:020000040000FA
:0600000002010A0221F3D7
:03002B0002265654
:03003B0002267723
:0300430002260191
:0300530002226620
:03006B0002262743
:1000830002205FE5C754F84401F5C7790122000057
:100093000080FB120086B900030200F4E4792178A2
:1000A30008B800028004F709D8FCE479297802B87B
:1000B30000028004F709D8FCE4900281786479098E
:1000C3008002F0A3D8FCD9FA900AE4AA82AB839009
:1000D300013A785E79048015E493A3AC82AD838AF8
:1000E300828B83F0A3AA82AB838C828D83D8E9D9D8
:1000F300E77582027583AE740312011C75829175D4
:100103008300740012011C75D00075813F7518813E
:10011300751902759F00020096C09FF59FE473D086
:100123009F22D083D082C09FE493C0E0740193C028
:10013300E0740293F59F22FF0000B400002800281A
:1001430000283075A000A000A000A000000800084F
:10015300E001F0001000100010001000100010006B
:1001630050005000500010001000D00700000000A5
:1001730000000F00010005003075070010000100AA
:1001830081FF00000000FF9506B3069B06FF0202F5
:100193000208025000A0000000E803025F82010091
:1001A300003982025B820100003B0B024F82010097
:1001B30000B302025B820100003C0B024D8201008E
:1001C30000C902025B820100003D0B02458201006F
:1001D30000CB02025B820100003E0B024782080053
:1001E30000CC02025B820100003F0B024982010046
:1001F30000400BFF0100FF20025F820100004282EA
:10020300025B82010000A40B024B8200000000008D
:100213000255820300001903650C650C650C650C1F
:10022300650C650C650C650C650C650C650C650C43
:10023300650CE70EFF0EE10EFFFF0202020202024F
:10024300020202010D0000001001025F82010000A2
:100253003F82025B82010000E70B02618201000022
:100263005D07025B82010000E80B026D8201000062
:100273005D81025B82010000E90B026F82010000D5
:100283004F81025B82010000EA0B027182010000D0
:10029300CD80025B82010000EB0B0275820100003E
:1002A300BB80025B82010000EC0B0277820100003D
:1002B3009780025B82010000ED0B0279820100004E
:1002C300A980025B82010000EE0B027B8201000029
:1002D3004181025B82010000EF0B025982010000A1
:1002E300F00B01E803053F100AFF0001307503021C
:1002F30001060000000000000000000000000000F4
:100303000000000000000000000000000000FFFFEC
:100313000600800CE803140953696D706C65424C48
:10032300455065726970686572616C0512500020F2
:1003330003020A000201060302F0FF53696D706CA9
:100343006520424C45205065726970686572616C26
:100353008B13000091130A436861726163746572C1
:100363006973746963203100024368617261637465
:10037300657269737469632032000843686172614E
:100383006374657269737469632033001043686131
:100393007261637465726973746963203400024324
:1003A300686172616374657269737469632035008F
:1003B3000A43686172616374657269737469632067
:1003C300360010436861726163746572697374699E
:1003D30063203700025F820100003C82025B8201DE
:1003E3000000030D027F82030000C50A0257820149
:1003F3000000040D025B82010000150D02818201E1
:100403000000C60A025782010000160D025B82013A
:100413000000270D028382020000C70A02578201EF
:100423000000280D025B82010000390D0285820065
:100433000000C80A025582030000C90A025782015C
:1004430000003A0D025B820100004B0D027382042F
:100453000000CF0A0257820100004C0D025B8201AB
:1004630000005D0D026982030000D40A0257820175
:1004730000005E0D025B820100006F0D02678200C7
:100483000000D90A025582030000DE0A02578201E6
:100493000000700D120125B99E03120125D09E03A1
:1004A300120125019F031201253C9F0312012566BA
:1004B3009F03120125909F03120125A79F03120199
:1004C30025BE9F03120125D59F03120125FE9F031D
:1004D30012012511A00312012527A0031201253AB9
:1004E300A00312012561A003120125BCA70212017A
:1004F30025C0A802120125F8A8021201251BA90292
:1005030012012526A90212012549A9021201255823
:10051300AA021201252DAB02120125A8AB0212017A
:100523002530AC021201256BAC02120125A2AC02EC
:1005330012012530AD0212012509AE02120125690F
:10054300AE0212012574AE02120125F3AE021201AE
:1005530025F6AE02120125F9AE0212012588AF027B
:100563001201258BAF02120125BBAF02120125E553
:10057300AF02120125D3B00212012585B102120187
:100583002541E50212012569E50212012597E502DD
:10059300120125CEE5021201252CE6021201257770
:1005A300E602120125C2E60212012502E702120148
:1005B3002548E70212012576E70212012533E802F6
:1005C3001201253DE8021201254AE8021201257DA8
:1005D300E80212012549E90212012555E902120137
:1005E300256DE90212012577E902120125AAA90363
:1005F300120125B8A903120125D0A903120125E888
:10060300A90312012510BB01120125BCBB01120174
:100613002537BC0112012558BD0112012594BD01E6
:100623001201253DBE0112012524BF0112012588B7
:10063300C001120125DFC00112012560C1011201B1
:100643002550C2011201259DC20112012523C301B8
:1006530012012555C30112012569C501120125ABFC
:10066300C501120125C9C5011201254CC60112019C
:100673002520C701120125E8C70112012574D20202
:1006830012012547D302120125F0D302120125439B
:10069300D402120125F3D4021201257FD5021201DF
:1006A300256BD6021201259AD602120125ADD70277
:1006B300120125F5D702120125CAD8021201250617
:1006C300D90212012522D9021201255FAC031201BE
:1006D300253584031201254B8403120125718403FC
:1006E3001201258D8503120125978503120125CC5F
:1006F3008603120125C487031201251AE0021201A1
:10070300254AE1021201257DE102120125C7E1021A
:100713001201258EE302120125BE6E001201252867
:100723006F001201258770001201259770001201D6
:1007330025C470001201251B7100120125C471002C
:10074300120125CB7200120125957300120125F5C4
:100753007400120125387500120125DD75001201A0
:10076300252A76001201255076001201255E7800B5
:10077300120125637800120125687A00120125B55C
:100783007A00120125287B001201255B7B001201F0
:1007930025FD7B00120125A67C00120125DE7C00CD
:1007A300120125E17C00120125297D001201256932
:1007B3007D00120125C07D00120125E4940312017E
:1007C30025FC94031201254495031201255A950330
:1007D300120125A19503120125B5960312012542A5
:1007E30097031201258D9703120125EC26001201B0
:1007F30025F826001201253327001201257827004A
:10080300120125382800120125BE280012012523D4
:1008130029001201254F2900120125882900120100
:1008230025C62B00120125AA2D00120125902F00A9
:10083300120125D330001201252133001201253383
:1008430034001201257E35001201258E3600120177
:1008530025AB3600120125E63600120125083700C4
:100863001201256B37001201252C3C00120125C112
:100873003C00120125123D00120125393D001201F1
:10088300258B3D00120125A93D00120125033E00E1
:10089300120125EC3E00120125624000120125E6FB
:1008A3004000120125FEE90212012508EA021201A5
:1008B300254BEA0212012566EA02120125F6EA0235
:1008C3001201251EEB021201255BEB021201259298
:1008D300EB02120125BBEB0212012530EC021201DF
:1008E3002545EC021201255AEC021201258BEC027C
:1008F3001201259FEC02120125C4EC02120125FE10
:10090300EC021201252AED0212012562ED02120109
:1009130025E1ED021201252AEE0212012554EE0211
:100923001201257FEE02120125AD7E00120125E999
:100933009A02120125179B02120125659C021201DE
:1009430025459D02120125649D02120125E19D02A8
:10095300120125249E021201257A9F021201253BD2
:10096300A002120125C2A20212012563A3021201F1
:100973002559A40212012556A502120125B0A6028B
:100983001201253BA70212012549A503120125B235
:10099300A50312012506A6031201252DA6031201A4
:1009A300255EA6031201254DF302120125BAF302B7
:1009B30012012501F40212012519F5021201251570
:1009C300F602120125F8F602120125F6B102120110
:1009D3002538B2021201250AB302120125E3B3023C
:1009E300120125DDB402120125BFB502120125282B
:1009F300B602120125DEB60212012552B702120118
:100A030025BEB702120125E7B70212012561B8021C
:100A1300120125FAB8021201255FB90212012574E9
:100A2300B902120125BAB902120125D3B902120182
:100A33002538BA021201253BBA02120125EB9103B4
:100A43001201251392031201255192031201250F5E
:100A53009303120125769303120125929303120146
:100A630025BA9303120125EA9303120125F993038F
:100A73001201257694031201259C9403120125AEDD
:100A8300AB011201258CAD01120125BEAF0112018C
:100A930025FAAF0112012527B00112012511B10179
:100AA3001201255CB101120125A7B101120125B97B
:100AB300B101120125F9B1011201252EB201120172
:100AC300257CB201120125ABB201120125CEB20180
:100AD3001201251BB301120125A0B301120125BA8E
:100AE300B501120125F9B7011201253AB801120126
:100AF30025DCB9011201251DBA0112012590BA01A5
:100B0300120125E6BA01120125D48D02120125D264
:100B13008E021201256B95021201258C9702120198
:100B230025579902120125BF9A021201254D410052
:100B3300120125FC410012012542420012012582C7
:100B430043001201251845001201259245001201A8
:100B530025AD4500120125284600120125824700D4
:100B6300120125E24800120125E849001201254936
:100B73004B00120125624B00120125C04B001201EC
:100B830025AE4C00120125E14C00120125514D0008
:100B9300120125CB4D00120125154E00120125DF50
:100BA3004E00120125B44F0012012593500012018B
:100BB300251E51001201258C5100120125005200FF
:100BC3001201252B5200120125EA52001201254F72
:100BD30054001201256C54001201258B540012019C
:100BE300257C5500120125A15500120125CB550086
:100BF300120125465600120125A0560012012509AF
:100C03005800120125B75800120125F858001201A7
:100C1300250080021201254E80021201255A80020E
:100C23001201253881021201256981021201259AD8
:100C330081021201251A8202120125528202120137
:100C430025A48202120125E18202120125FE8402FB
:100C53001201252487021201250F8902120125F9A9
:100C63008A02120125E126001201259B9701120138
:100C730025CB9701120125A49E0112012529A0016C
:100C830012012526A6011201250EA7011201254BEB
:100C9300A7011201256EA7011201259FA7011201C9
:100CA30025A8A701120125B2A701120125A0A801B9
:100CB30012012596A9011201258C82011201258BAF
:100CC3008601120125918601120125CC8D011201A5
:100CD30025E59201120125A48E031201259E8F039F
:100CE300120125129003120125509003120125C40D
:100CF30090031201253D9103120125469103120130
:100D030025529103120125679103120125A5910331
:100D1300120125BB9103120125BAF702120125C75F
:100D2300F702120125E1F70212012520F802120150
:100D3300255EF802120125C3F802120125D8F80234
:100D4300120125E3F802120125F0F802120125072A
:100D5300F90212012515F90212012520F9021201E7
:100D6300252CF9021201253BF90212012546F9024D
:100D730012012569F90212012510FA021201252038
:100D8300FA021201253AFA0212012557FA02120158
:100D93002573FA0212012598FA02120125A3FA0219
:100DA300120125B8FA02120125CCFA021201252DEF
:100DB300FB0212012533FB0212012539FB0212014A
:100DC300253FFB0212012557FB021201258AFB0274
:100DD30012012572D801120125F6D801120125A5A9
:100DE300D90112012504DB0112012525DD011201C0
:100DF3002511DE0112012546DE0112012568DE01FF
:100E030012012517DF011201250FE1011201253817
:100E1300E101120125CAE101120125FCE1011201E0
:100E23002509E20112012560E20112012586E20192
:100E3300120125F3E401120125F6E5011201254E05
:100E4300E60112012501CA011201250BCB01120192
:100E530025F2CB01120125FCCB011201251ECC0189
:100E63001201252ACC01120125C3CD01120125F25D
:100E7300CD011201250ECF0112012567CF01120109
:100E830025CDD001120125ACD10112012508D201D3
:100E930012012575D201120125B0D201120125EFED
:100EA300D201120125A8D501120125C2D5011201D3
:100EB300254ED6011201255CD601120125B5D601B6
:100EC300120125C3D60112012536D7011201259A35
:100ED300D701120125E4D7011201259BF401120168
:100EE30025BDF401120125E3F601120125F8F901EC
:100EF30012012510FB01120125C3FB01120125A5D7
:100F0300FC0112012573A00312012598A00312010D
:100F1300250AA103120125FACA0212012503CB02F5
:100F23001201250CCB02120125E3CB0212012594F9
:100F3300CD02120125CACD0212012504CE021201EF
:100F4300253ACE0212012574CE02120125A8CE0243
:100F5300120125D4CE021201251DCF0212012557FD
:100F6300CF02120125A0CF02120125F8CF021201F0
:100F7300252DD00212012588D002120125C2D002EC
:100F830012012513D10212012549D1021201258331
:100F9300D102120125B1D102120125D4D1021201CD
:100FA3002581AA03120125ADAA0312012508AB036B
:100FB30012012512AB0312012522AB031201255F97
:100FC300BA0212012569BA02120125A7BA02120157
:100FD30025F0BA021201252ABB0212012584BB02A5
:100FE300120125A5BB021201257DBE021201258631
:100FF300BE02120125D3BE02120125FCBE0212015C
:101003002506BF0212012572BF0212012504C00288
:101013001201254EC00212012584C00212012510BF
:10102300C10212012551C10212012588C102120118
:10103300259AC102120125B9C102120125C2C102BA
:101043001201258AC202120125B3A803120125C881
:101053009C03120125FE9C03120125349D031201FA
:10106300257F9E03120125E3AC03120125F9AC038E
:1010730012012503AD031201254DAD031201250015
:101083008003120125158003120125C88003120174
:10109300250881031201252181031201255C8103A7
:1010A300120125A98103120125DB81031201251DEC
:1010B3008203120125288403120125BAA303120116
:1010C30025E3A30312012512A403120125AAA403F5
:1010D300120125C2A40312012504A503120125B799
:1010E3009703120125DC97031201250698031201C9
:1010F30025ACAD031201252859001201258D5B0093
:101103001201252E5D00120125E25D0012012575F5
:101113005E00120125FA5E001201251F5F00120115
:1011230025756200120125FB62001201252E640061
:101133001201256864001201259D64001201255DDA
:101143006600120125BA6600120125036700120129
:10115300256E6700120125DF670012012511680063
:1011630012012529680012012572690012012582E6
:1011730069001201259D6A00120125BF6A00120150
:1011830025F56A00120125A96C00120125366D00B0
:10119300120125756D00120125996E00120125B10A
:1011A300AE0312012555AE0312012594AE031201BD
:1011B300259EAE031201252CAB031201253CAB0384
:1011C30012012557AB03120125BFAB03120125AF53
:1011D300A70312012534A8031201259AA8031201BB
:1011E30025A4A603120125CBA60312012521A703DB
:1011F30012012571A7031201253A8B031201254F12
:101203008B03120125938C031201250F8D03120109
:1012130025838D031201259D8D03120125B48D03B2
:10122300120125C78D03120125E18D03120125F853
:101233008D031201251E8E031201256F8E031201E9
:101243002507FC021201251EFC0212012598FC024F
:101253001201257CFD0212012553FF02120125CE46
:1012630087031201255E8803120125EA8803120110
:1012730025838903120125148A031201251D8A037C
:101283001201259B8A03120125AE8A03120125C48C
:101293008A03120125248B03120125378B031201C4
:1012A30025C9AB0312012539AC0312012544AC0354
:1012B30012012554AC0312012518A2031201256A59
:1012C300A203120125F4A2031201255BA303120159
:1012D30025839A03120125AD9A031201257B9B03F3
:1012E300120125569C03120125B8C2021201257F63
:1012F300C302120125B6C302120125E0C302120183
:101303002540C40212012596C402120125FBC40222
:1013130012012593C502120125A2C6021201253925
:10132300C802120125C6C8021201252DC9021201E5
:101333002544C9021201255ECA021201259CCA0274
:101343001201259CE6011201251DEA01120125A5C2
:10135300EB01120125FCEB011201251BEC0112012B
:101363002599EC011201252FEE0112012514EF013D
:1013730012012522F301120125F8F3011201259729
:10138300D90212012574DC0212012585DD02120146
:1013930025A9DE021201255DDF02120125DEDF022F
:1013A300120125A7EE02120125F7EE021201251400
:1013B300EF021201253CF002120125B5F0021201E1
:1013C3002582F10212012514F302120125C9FF013E
:1013D300120125C67F00120125B8FF02120125E084
:1013E300FF02E066701008A3E066700A08A3E066D7
:1013F300700408A3E06622C3E7960809E796080984
:10140300E7960809E79622C3E09608A3E09608A3A7
:10141300E09608A3E09622C008C3E096F50808A367
:10142300E096420808A3E096420808A3E096450820
:101433007001D3D00822080808EAC0E0EBC0E086B8
:10144300F0E7A4FA180986F0E7A42AFA180986F047
:10145300E7A42AFA180986F0E7A42AFA1986F0E71E
:10146300A4FBE5F02AFA190886F0E7A42BFBE5F0C4
:101473003AFA190886F0E7A42BFBE5F03AFA1818B4
:101483000986F0E7A4C5F02BFBE43AFA1908E7C58F
:10149300F0C6A426F6E5F03BFBE43AFA1886F0E73B
:1014A300A4F6E5F00826F6E43B08F6E43A08F6D09D
:1014B300E0FBD0E0FA22E4CFC0E0E4CEC0E0E4CD2C
:1014C300C0E0E4CCC0E075F020C3E633F608E633B1
:1014D300F608E633F608E633F6181818EC33FCED95
:1014E30033FDEE33FEEF33FFC3EC9709ED9709EEBF
:1014F3009709EF97191919400FFFEC97FC09ED971E
:10150300FD09EE97FE191906D5F0BEECF709EDF7C4
:1015130009EEF709EFF7191919D0E0FCD0E0FDD077
:10152300E0FED0E0FF226016080808C6C313C61801
:10153300C613C618C613C618C613C6D5E0EA22706A
:1015430009080808226016181818C6C333C608C647
:1015530033C608C633C608C633C6D5E0EA22E62733
:10156300F60809E637F60809E637F60809E637F616
:1015730022E026F608A3E036F608A3E036F608A331
:10158300E036F622E026F008A3E036F008A3E036C2
:10159300F008A3E036F022C3E697F60809E697F6CB
:1015A3000809E697F60809E697F622C3E096F008DD
:1015B300A3E096F008A3E096F008A3E096F022E6F5
:1015C30057F60809E657F60809E657F60809E657F5
:1015D300F622E056F608A3E056F608A3E056F6080E
:1015E300A3E056F622E056F008A3E056F008A3E085
:1015F30056F008A3E056F022E0F608A3E0F608A3AD
:10160300E0F608A3E0F622E6F008A3E6F008A3E676
:10161300F008A3E6F022E0FAA3E0FBA3E0FCA3E0DA
:10162300FD22EAF0A3EBF0A3ECF0A3EDF022CAC095
:10163300E0E6F0A308DAFAD0E0FA22CAC0E0E0A3B9
:10164300C582CCC582C583CDC583F0A3C582CCC575
:1016530082C583CDC583DAE6D0E0CA22C3E498F815
:10166300E499F91216A08026C3E49AFAE49BFBE9F5
:1016730020E7E91216A0E498F8E499F922C3E49864
:10168300F8E499F91216A0E498F8E499F9C3E49AF6
:10169300FAE49BFB22EB20E7CFE920E7E0B9001057
:1016A300BB0008E88AF084F8AAF022E4FBC8FA2217
:1016B300EB70227B10C833C8C933C9335007C39AB0
:1016C300C3DBF280069A50012ADBEAC833F4C8C9A7
:1016D30033F4C9FA2275F008E4C833C8C933C933EF
:1016E300C99AC99B5004C92AC93BD5F0ECFBC8333E
:1016F300F4C8E4C9FA22600D08C6A2E713C618C6E7
:1017030013C6D5E0F322600C08C6C313C618C6136C
:10171300C6D5E0F422700422600D18C6C333C60890
:10172300C633C6D5E0F41822251810AF08F51840C3
:101733000215198008F51840021519D2AF22C0D03E
:10174300251810AF08F518500205198008F5185030
:10175300020519D2AFD0D0222518F58210AF08F5B3
:1017630018400215198008F51840021519D2AF85E3
:101773001983222518F582E43519F58322E47325AC
:1017830018C582C0E0E51934FFC583C0E0E518C37E
:10179300958224F810AF08858319858218800885FF
:1017A3008319858218D2AFCEF0A3E520F0A3780881
:1017B300E608F0A3DEFAEFF0A3E58124FAF8E608E1
:1017C300F0A3E608F0A3E608F0A30808E608F0A3F0
:1017D300E608F0A315811581D0E0FED0E0F815816D
:1017E30015811581E8C0E0EEC0E0222518C582C04E
:1017F300E0E51934FFC583C0E0E518C3958224F9F9
:1018030010AF08858319858218800885831985821E
:1018130018D2AFCEF0A3E520F0A37808E608F0A332
:10182300DEFAEFF0A3E58124FBF8E608F0A3E6086F
:10183300F0A30808E608F0A3E608F0A315811581D4
:10184300D0E0FED0E0F815811581E8C0E0EEC0E0FD
:1018530022851983851882E0A3FEE0A3F52078088A
:10186300E0A3F608DFFAE0A3FFE0A3C0E0E0A3C033
:10187300E0E0A3C0E0E0A3C0E0E0A3C0E010AF0855
:101883008582188583198008858218858319D2AFCC
:10189300D083D082020122851983851882E0A3FEBA
:1018A300E0A3F5207808E0A3F608DFFAE0A3FFE061
:1018B300A3C0E0E0A3C0E0E0A3C0E0E0A3C0E01069
:1018C300AF08858218858319800885821885831956
:1018D300D2AFD083D08222C0D02518C582C0E0E524
:1018E3001934FFC583C0E0E518C3958224F310AF14
:1018F300088583198582188008858319858218D203
:10190300AFC8F0A3E9F0A3EAF0A3EBF0A37908E7EB
:1019130009F0A3D8FAECF0A3EDF0A3EEF0A3EFF0F7
:10192300A3D0E0F0A3D0E0F0A3D0E0F0A3E520F053
:10193300A3E5F0F0A322851983851882E0C0E0A314
:10194300E0F9A3E0FAA3E0FBA37808E0F608A3DF3D
:10195300FAE0FCA3E0FDA3E0FEA3E0FFA3E0C0E008
:10196300A3E0C0E0A3E0F5D0A3E0F520A3E0A3F556
:10197300F010AF088583198582188008858319853F
:101983008218D2AFD082D083D0E0F8D0E032740492
:101993008006740280027401C0E0F40412175BD065
:1019A300E0121631227404800474028000CCC0E07B
:1019B300EDC0E0E518C39CCCAD1950011D10AF0676
:1019C3008C188D1980068C188D19D2AF12163ED043
:1019D300E0FDD0E0FC22D083D082E9C0E0E493A311
:1019E300C386F0C5F095F0F908E493A386F0C5F03B
:1019F30095F0700BE493A3C3994005E9048002A317
:101A0300E475F002A42582F582E5F03583F583D0F1
:101A1300E0F9E493A3C0E0E493C0E022D083D08252
:101A2300ECC0E0EDC0E0E493A3FCE493A3FDED4C34
:101A3300600D121A6BEC24FFFCED34FFFD80EFE424
:101A430093A3FCE493A3FDED4C600D121AAAEC24BE
:101A5300FFFCED34FFFD80EFD0E0FDD0E0FCE4932C
:101A6300A3C0E0E493C0E022C0E0C3E4939608740B
:101A730001939618400FE493667008087401936607
:101A83001870007019A3A3C3E49396087401939686
:101A930018A3A3400DD0E0D0E0D0E0021A5BA3A3CB
:101AA300A3A3A3A3D0E022C0E0C0F088F0E4936630
:101AB30070080874019366187000A8F0A3A3700B54
:101AC300D0F0D0E0D0E0D0E0021A5BA3A3D0F0D0F6
:021AD300E0220F
:101AD80074F51217EEEAFEEBFFEE2434F8EF34004B
:101AE800F988088909EE2435F582EF3400F583E09A
:101AF800F8EE2437F582EF3400F583E0F50AEC853B
:101B08000AF0A4FCAAF0850AF0EDA42AFDE82CF856
:101B1800E43DF97A257B001216A0EA85088285093A
:101B280083F0F8740758F97401B900028004C333CC
:101B3800D9FCFAE8131313541FF8EE28F8EF340011
:101B4800F9E8245DF582E93400F583E05A6008EE8F
:101B58002434F582EF802CEE2434F582EF3400F53E
:101B680083E0C0E0EE2436F582EF3400F583E0F53B
:101B7800F0D0E084A8F0EE28F8EF3400F9E8243833
:101B8800F582E93400F583E0F97F0402189A74F5C8
:101B98001217EEEAFEEBFFEE2434F582EF3400F57F
:101BA80083E0C0E0EE2435F582EF3400F583D0E021
:101BB800F08E828F83A3A3A3A3A3A3A3C082C08311
:101BC8008E828F83A3A3A3A3A3E0F8A3E0F9D08315
:101BD800D082E0C398F508A3E099F509EE247FF5D3
:101BE80082EF3400F583E064017069EE2480F582A9
:101BF800EF3400F583E0F8A3E0F98E828F83A3A386
:101C0800A3A3A3A3A3E0FCA3E0FD8E828F83A3A3D9
:101C1800A3A3A3E0FAA3E0FBC3EA9CEB9D5010C387
:101C2800EC98ED99402EC3EA98EB995027800EC3A3
:101C3800EA98EB994007C3EC98ED9940177CDC7D56
:101C480004EEFAEFFB120BC3EE247FF582EF3400AB
:101C5800F583E4F0EE2434F8EF3400F9E8FCE9FD0C
:101C6800EE2435F582EF3400F583E0F8EE2437F5FD
:101C780082EF3400F583E0F50AE508850AF0A4F55B
:101C880008AAF0850AF0E509A42AF509E82508F864
:101C9800E43509F97A257B001216A0EA8C828D8337
:101CA800F0F8740758F97401B900028004C333D9F5
:101CB800FCFAE8131313541FF8EE28F8EF3400F970
:101CC800E8245DF582E93400F583E05A6008EE24E3
:101CD80034F582EF802CEE2434F582EF3400F5835E
:101CE800E0C0E0EE2436F582EF3400F583E0F5F04D
:101CF800D0E084A8F0EE28F8EF3400F9E82438F5AD
:101D080082E93400F583E0F91225ED021B91C082C7
:101D1800C083851882851983E0F8A3E0F9C3EA9C9B
:101D2800EB9D5010C3EC98ED99401BC3EA98EB99D2
:101D38005014800EC3EA98EB994007C3EC98ED99CC
:101D48004004790180027900D083D08222EAC39CC2
:101D5800FAEB9DFB2274EF1217EE9003A2E06408E1
:101D68006005E06407702A9061C8E060249003D0A1
:101D7800E0F4601DE0F875F003A4C8AAF02AF9742D
:101D8800D228FE740339FF8E828F83A3A3A3E07049
:101D980003021E8D906060E0C0E0EE2468F582EFDB
:101DA8003400F583D0E0F0750C45750D0575080015
:101DB800750900E5D914F50AE5D95403F50E60173D
:101DC8007403650E605CE50A6010EE2467F582EF27
:101DD8003400F583E07003021E72900540E0640150
:101DE800602AEE2482F582EF3400F583E0600478FF
:101DF8000480027800850A08E508C398FA95E0FB94
:101E0800120A918A088B09EA45097005120DB580F6
:101E180074EE2482F582EF3400F583E070048A0CB6
:101E28008B0DE50A6012850C82850D83F50BE5D9CB
:101E3800F0A3150BE50B70F6EE2482F582EF340063
:101E4800F583E0604474FC250AF50A780C121995AC
:101E5800AC0AA90EEEFAEFFB120C5F7402121741DE
:101E6800E97026AA08AB091212BF793D8E828F83CA
:101E7800A3A3A3A3E0FA7B00120965EEFAEFFB1215
:101E88000BDB120C71790080747403650E60568543
:101E98000A107511007810121995AC0CAD0DAA082E
:101EA800AB09120C3B7402121741EE2468F582EF5D
:101EB8003400F583E064807004747F8001E0F50CE1
:101EC800780C121999E50EF50C780C121999A90AD3
:101ED800AC08AD099003D0E0FA7B0012092974021E
:101EE80012174180139003A2E06408600BAC0CAD9C
:101EF8000DEEFAEFFB120CCB120DC179017F0A022D
:101F0800189A74F51217EE74FC12172BEAFEEBFF01
:101F18008908A2AFE433F509C2AF806AEE2463F8FA
:101F2800EF3400F97A007B00A2AFE433F50AC2AFC0
:101F380088828983E0FCA3E0FDEC4D603A888289C1
:101F480083E0FAA3E0FB8A828B83E0FCA3E0FD88B0
:101F5800828983ECF0A3EDF08A828B83E4F0A3F00E
:101F680088828983E0FCA3E0FDEC4D700A888289B1
:101F780083A3A3E4F0A3F0E50AA2E092AF1212BF94
:101F88009004E3E004F0EE2463F582EF3400F58377
:101F9800E0F8A3E0F9E849603DEE2463F582EF3408
:101FA80000F583E02402FAA3E03400FBEA2402F5FA
:101FB8000AEB3400F50B780A1219958A828B83E0B4
:101FC800FCA3E0F9EEFAEFFB120BFF7402121741C3
:101FD800E97003021F249004E3E060639004E4E0E6
:101FE800F89004E3E0C398500C74026508705090B0
:101FF80004E5E0604A8E828F83A3A3A3A3E085183B
:1020080082851983F0A3E4F09004E3E0F8740212E7
:102018001776E8F0A3E4F09004E3E0F89004E2E037
:1020280028F07402121776AC82AD83851882851960
:1020380083AA82AB8379011209359004E3E4F0E5C1
:1020480009A2E092AF7404121741021B910000002C
:102058008521878522C622C0E0C0D0E8C0E0E9C05B
:10206800E0EAC0E0EBC0E0ECC0E0EDC0E0EEC0E0CC
:10207800C008C009C00AC00BC082C083C0F0A2AFAC
:10208800E433FEC2AF759B00906182E0A2E050127B
:10209800E591A2E0500C7591FE7401652170031260
:1020A8001D5DE0A2E55051E591A2E5504B7591DF29
:1020B8009003A2E064076005E0640870237401657A
:1020C80021703579019003D0E0FA75F003A4CAA80D
:1020D800F028FB74D22AFA74033BFB121F0A8018FB
:1020E800E0640D70139003C4E004F064287002E407
:1020F800F07A00E0F9120DC7906182E0A2E6400391
:102108000221A6E591A2E640030221A67591BF909F
:1021180003A2E064057008120CF5120D0180031289
:102128000CFB752100120D55E99003A3F0790012FC
:102138000D49120B397A017B009003A1E0F91210C6
:102148001F907803E064427055900544E014F070E5
:102158004DC2AF12215E00782AD0E0F618D0E0F622
:10216800E59F540770057509FF800375097FC4C092
:10217800E07829E6F50808E65509F509740B7808AA
:10218800121709D0E02508F8906270E0A2E740F83D
:10219800E8C333906272F0906270E0D2E0F0906130
:1021A80081E0A2E35009E5E9A2E3500375E9F7A34A
:1021B800E0A2E75009E591A2E7500375917FEEA2EE
:1021C800E092AFD0F0D083D082D00BD00AD009D023
:1021D80008D0E0FED0E0FDD0E0FCD0E0FBD0E0FA93
:1021E800D0E0F9D0E0F8D0D0D0E032C0E0C0D0C024
:1021F80082C083906183E0A2E05009E5BFA2E0506D
:102208000375BFFEE0A2E15009E5BFA2E1500375E6
:10221800BFFDE0A2E25009E5BFA2E2500375BFFB93
:10222800E0A2E35009E5BFA2E3500375BFF7E0A2BF
:10223800E45009E5BFA2E4500375BFEFE0A2E55002
:1022480009E5BFA2E5500375BFDFE0A2E65009E546
:10225800BFA2E6500375BFBFD083D0828088C0E09C
:10226800C0D0E8C0E0E9C0E0EAC0E0EBC0E0ECC004
:10227800E0EDC0E0C0F0E5A7A2E6500FE5A1A2E6B8
:10228800500953A7BF75A1BF1222CBE5A7A2E550FD
:102298000CE5A1A2E5500653A7DF75A1DFE5A7A2CB
:1022A800E15009E5A1A2E1500375A1FDE5A7A2E26D
:1022B800500CE5A1A2E2500653A7FB75A1FBD0F094
:1022C8000221DC74F81217EE7521019003A2E06474
:1022D800067015120C8F8A828B83A3A3A3A3A3A3D2
:1022E800E0FAA3E0FB120CE3A2AFE433FED2AF9016
:1022F80003A8E0640170187A207B009003A1E0F93C
:102308001210A37A207B009003A1E0F91210259007
:102318006182E0D2E6F0900541E0602185C6228026
:10232800169003A7E064017008E5C654F84405F563
:10233800C653BEFC1220587401652160E4EEA2E089
:1023480092AF7F0102189A008E238F2485822885F8
:102358008327851882851983E0CEA3E0CF8528825C
:10236800852783EBC9EAC8EDCBECCA75F010C3E842
:1023780033C8E933C9EA33CAEB33CBC3EA9EF5263F
:10238800EB9FF525B35004AB25AA26EC33CCED33EF
:10239800CDD5F0DAAE23AF242274ED1217EE8A08F9
:1023A8008B098C0A8D0B7413121776780C1215FB97
:1023B8007808790C1213FA7510017511C875120096
:1023C80075130050127808790C12159A781079084C
:1023D8001213FA50168010780C790812159A781092
:1023E800790C1213FA40047901800279007F0C02FB
:1023F800189A74ED1217EE8A088B098C0A8D0B74E3
:1024080013121776780C1215FB780C79081213FA48
:1024180040117808790C12159AAA08AB09AC0AADD4
:102428000B80227510007511007512007513017864
:1024380010790C12159A78107908121561AA10AB48
:1024480011AC12AD1380A68A828B837508FF7509BB
:10245800FF750AFF750B0078081215E87F0402184B
:102468009A74F51217EE8C828D8378081215FB8A00
:10247800828B8378081215AEEA2404F8EB3400F94D
:102488008C828D83A3A3A3A3E0FCA3E0FD888289AB
:1024980083C3E09CF0A3E09DF088828983C3E09425
:1024A80020A3E0944E40268A828B837508FF750925
:1024B800FF750AFF750BFF78081215878A828B83D0
:1024C800A3A3A3A3E02420F0A3E0344EF002244FFA
:1024D80074F51217EEE9FE9004F7E0FAA3E0FBEEBC
:1024E800C333F8E433F9741228F582748139F5831B
:1024F800E02AF508A3E03BF50978081219957A4017
:102508007B427C0F7D0012235074021217418A0807
:102518008B098C0A8D0B74107808121529AA08AB40
:10252800097F0402189A74F11217EE8A0C8B0D8C2D
:102538000E8D0F740F121776E0FAA3E0FB741112D8
:102548001776E0F508A3E0F5097808121995EA244A
:1025580001F508EB3400F509E4F50AF50B780C7978
:1025680008121439750871750902780C7908121463
:1025780039AA0CAB0DAC0EAD0F1223507402121712
:10258800418B09EA450960047A0180027A00EC2A45
:10259800FCED3400FD7413121776E0F8A3E0F9E8B7
:1025A800FEE9FFECF8EDF97A717B021216A08808B3
:1025B80089098E828F83780812160AECF8EDF97A69
:1025C800717B021216A08A088B0974057808121705
:1025D800188E828F83A3A3A3A3E508F0A3E509F0CF
:1025E8007F0802189AC082C083E9906000F0D08307
:1025F800D08222C2AF02000022C0E074F21218DAC0
:10260800A2AFE433FED2AFC2C0E5D1A2E450065374
:10261800D1EF12129BEEA2E092AF7F01021939C0EE
:10262800E074F21218DAA2AFE433FED2AFE589A261
:10263800E04006E589A2E150031211F3758900759F
:102648008900C2C5EEA2E092AF7F01021939C0E04D
:10265800C0D0E8C0E0E9C0E0E5A8D2AFC2C7A2E7B1
:10266800A2E792AFD0E0F9D0E0F8D0D0D0E032C005
:10267800E0C0D0E8C0E0E9C0E0C008C009C082C03E
:1026880083A2AFE433F9D2AF9009F9E0F8A3E06888
:102698007008539AFBA374018026C2E99009F9E0F7
:1026A800F50874012508F074792508F58274093451
:1026B80000F583E0F5C19009F9E0C394804002E495
:1026C800F0E9A2E092AFD083D082D009D008D0E060
:1026D800F9D0E0F8D0D0D0E032020122FFFFFFFFAE
:1026E800FFFFFFFFC082C083E9900BA3F002297BA4
:1026F80074F7121782E99002E1F07C197D037AFFE2
:102708007BFF12087B9002E274FFF0A3F0A3E4F0D1
:10271800A3F079051208039002E1E0F91207257A7F
:10272800997B08120A437F0102185474F412178225
:102738008A088B09EB548060309002E1E0F91210AE
:10274800078A0A8B0BAE0AAF0BEE4F60138E828F8F
:1027580083E064B0700312081BEEFAEFFB120FF56A
:10276800AA08E5096480FB80047A007B0002294AF4
:1027780074F212178274FC12172BEAFEEBFFEE4F6D
:1027880060387402121776EEF0A3EF122BAFECF05C
:10279800A3ED122BAFAA82AB8312071FE9F50870CD
:1027A800737412121776123763E50A450B60658E4B
:1027B800828F83122826EE4F700575080280557A9D
:1027C800067B0012105B8A0C8B0DA80CA90DE8493A
:1027D8007005750813803D88828983E4122830A328
:1027E800A3EEF0A3EF123BFCE50AF0A3E50BF09093
:1027F80002E71228B89002E76017E0FCA3E0800324
:10280800EAFCEBFD8C828D831228B870F38C828DE4
:1028180083123688A9087404121741023DFEA3A347
:10282800A3A3E0FEA3E0FF22F0A3F088828983221D
:1028380074F2121782890AE975F017A4FEAFF090B6
:1028480002E6E4F09002E41228B8600A12106190DF
:1028580002E4E4F0A3F0EEFAEFFB12105B8A088BB7
:1028680009EA4509602FEEFCEFFD7900120FDD90B3
:1028780002E4E508F0A3E509F07B0080081228A22D
:10288800E4F0A3F00BEBC3950A40F2E50A9002E6E8
:10289800F0790080027913023DFEEB75F017A4F879
:1028A800A9F09002E4E028FAA3E0398A82F58322AD
:1028B80012341EEA4B2274F4121782750800750947
:1028C80000740C121776123BD0FEE9FF800CE50865
:1028D8002401F508E5093400F509C3E5089CE50974
:1028E8009D503285080A85090B7403780A12171857
:1028F800EA250AF8EB350BF988828983A3A3A3A3F9
:10290800A3A3123763EE650A7003EF650B70BFE887
:10291800FAE9FB80047A007B00802774F41217829E
:102928007900EAA2E0501B7508F47509817808124D
:1029380019957C047D007AA57B0B1207FD740212A1
:1029480017417F04021854C082C0839002E71229FD
:1029580082601C88828983A3A3E06A7003A3E06B6A
:102968008882898370E8A3A3A3A312341A80047A07
:10297800007B00D083D082020122123ED1E8492296
:1029880074EE12178274FC12172BEAFEEBFF8518FF
:1029980082851983E4F0A3F0EE240212366CEE244B
:1029A80005122B9DEE2404F50EEF122F82E024FE73
:1029B800603924FC604624FE605224FE605E24FEDA
:1029C8007003022AA224FE7003022B1A24FE70034D
:1029D800022B2924FE7003022B3824FC7003022BDF
:1029E8004724FE7003022B56022B939003007417A2
:1029F800F0A3E4122BB712049D022B93851882854D
:102A08001983AC82AD83120821022B638518828555
:102A18001983AC82AD83120827022B63850C0885C5
:102A28000D097402121776AC82AD83850882850978
:102A38008312341A1207438A0C8B0DAC0CAD0DECC3
:102A48004D6042E4F50CF50D780C121995750C00E3
:102A5800750D03780C121995750C01750D03780C1A
:102A680012199574081217761219AC7916123414C3
:102A78001208637408121741E9F50C700B12341030
:102A88001204B5800F750C01850882850983122B05
:102A9800A5123688850C08022B667402121776ACCC
:102AA80082AD83850C82850D8312341A1207438AFE
:102AB800108B11AC10AD11EC4D6043850C82850D67
:102AC80083A3A31219AC751000751103781012199D
:102AD800957510017511037810121995740812175D
:102AE800761219AC79161234141208637408121786
:102AF80041E9F509700B1234101204BB800F7509F7
:102B080001850C82850D83122BA51236888509084C
:102B1800804C851882851983AC82AD8312082D807C
:102B28003A851882851983AC82AD83120833802BCD
:102B3800851882851983AC82AD83120839801C857B
:102B48001882851983AC82AD8312083F800D8518E1
:102B580082851983AC82AD83120845E9F508E5083A
:102B680060298E828F83A3E06414601F850E82859E
:102B78000F83E0900300122BAF123ECD9003011299
:102B88003688E508A3122BB7120497EEFAEFFB126A
:102B980007C1023574F50CEF3400F50D22123ED151
:102BA80085188285198322F085188285198322F079
:102BB8007C007D03850A82850B8312341E2274EE05
:102BC80012178274FC12172B8A0A8B0B8C0E8D0F2E
:102BD800EA2405F508EB3400F5097C157D00790039
:102BE8007A007B03120FDDE5082402F50CE50912D3
:102BF8002BA085188285198385821085831178100A
:102C0800121995850882850983A3A3A3A31230CA44
:102C1800121995E5082405F510E5093400F5117831
:102C280010121995850C82850D8312342412073DE4
:102C380074061217418A108B11AE10AF11E50A24E1
:102C480002F50AE50B12366FEE4F7003022D8C80E9
:102C580017740212177612341A88828983EAF0A34D
:102C6800EBF0900300E004F0900300E0C39405400B
:102C780003022D8CE4F510F51178101219957510D2
:102C8800E975110278101219957510EA7511027814
:102C98001012199574061217761219AC7910EEFCF9
:102CA800EFFD1234141208637408121741E9705EBC
:102CB800850882850983A3A3A3A3A3A3A3E0F8900F
:102CC80002E9E06870481230CA1219957CEA7D0260
:102CD800E5082408FAE5093400FB120FD77402123C
:102CE8001741E960298E828F83A3A3A3A312341A04
:102CF800900300E0F510740278101217187401257B
:102D080010F58274033511F583EAF0A3EBF0740231
:102D1800121776858210858311781012199574021E
:102D28001217761219AC850C82850D83123EE212B9
:102D3800074974041217418A108B11AE10AF119015
:102D48000300E0F51075110074027810121718745A
:102D5800002510F874033511F988828983A3122895
:102D6800B87003022C50E82403F8E93400F9EE4F58
:102D78006003022C598882898374FFF0A3F09003C2
:102D880000E004F0900300E0600A1234101204A975
:102D98007900800B85088285098312367F790A02BB
:102DA800357474EA12178274FE12172B8C128D1365
:102DB800EA2405F50CEB12404C12282A7508007518
:102DC8000900EA2402F510EB3400F5118518828514
:102DD800198385820A85830B780A121995850C82D6
:102DE800850D83A3A3A3A3122F8C121995E50C2498
:102DF80005F50AE50D12366F780A121995850C82C9
:102E0800850D83123EE012073D74061217418A0AA7
:102E18008B0BEA450B7003022F3DEA2404F50EEBF9
:102E2800122F8212282A8A828B83A3A3A3E0F98512
:102E3800108285118312341A12072BE9F5096003F1
:102E4800022F3DE4F514F51578141219957514E957
:102E580075150278141219957514EA751502781407
:102E680012199574061217761219AC7913AC0AADBB
:102E78000B85108285118312341A120863740812A4
:102E88001741E9F5096003022F3D9002E9E0F8E5F2
:102E9800087009E02402900301F08017900301E014
:102EA800FCE82402FAE43400FBEA6C7001EB6003EE
:102EB800022F41850882AA821230C194141230B9B7
:102EC8005073850E82850F83E0C0E074022A122FAA
:102ED80079D0E0F00508850E82850F83A3E0C0E075
:102EE80085080A7402250A122F79D0E0F0050890A7
:102EF80002E9122F8C1219957CEA7D0285080A7462
:102F080002250AFA74033400FB120FC57402121763
:102F1800419002E9E02508F50874FF6E700374FF1C
:102F28006F6012EE24010EEF3400FFE508C394141D
:102F38005003022DD4E508601312330585108285ED
:102F4800118312341A1204AF79008014E509700352
:102F580075090A851282851383EEF0A3EFF0A9099B
:102F680074021217417F0E02185485080C7402254A
:102F78000CF58274033400F583223400F50F850EB6
:102F880082F58322123C0F2274EE12178274FE120D
:102F9800172B8C0E8D0FEA2405F50CEB122BA07560
:102FA8000B00900300E4F0F50AEA2402F508EB347C
:102FB80000F5098049900300E0FA9002E9E0F81270
:102FC80030C194171230B9400D900300E0F8741620
:102FD800C3989002E9F01230CA1219957CEA7D0272
:102FE80074012AFA74033400FB120FC57402121715
:102FF800419002E9E0F8900300E028F0050AE50CAA
:103008002416F582E50D122F7DE0F8E50AC39840F5
:10301800030230A2900300E0C39416507DE50AC372
:1030280033F8E433F9E50C28FEE50D39FF851882FD
:10303800851983AC82AD838E828F8312341A12076E
:10304800438A108B11AC10AD11EC4D7005750B0156
:103058008043E4F510F51178101219957510E9758B
:10306800110278101219957510EA7511027810126C
:10307800199574061217761219AC79168508828587
:10308800098312341A1208637408121741E9F50B00
:103098007003022FBD12367B80107C007D038508EB
:1030A8008285098312341A1204C1A90B74020235ED
:1030B80076E99400C365D03322EA28F8E43400F9AD
:1030C800E822E0F51075110078102274EA121782D0
:1030D80074FC12172B8A0C8B0D8C128D13EA2405A5
:1030E800F50AEB12366F750800750900E50A240227
:1030F800F510E50B3400F511740212177685820E6F
:1031080085830F780E121995850A82850B83A3A3F0
:10311800A3A3123BBB121995E50A2405F50EE50B8E
:103128003400F50F780E12199585108285118312D7
:10313800367512341412073D74061217418A0E8B25
:103148000FAE0EAF0FE50C2402F50EE50D3400F5B9
:103158000F80408882898374FFF00508122F7274EB
:10316800FFF005089002E9E0F50C750D00780C12E7
:1031780019957CEA7D0285080C7402250CFA740303
:103188003400FB120FC574021217419002E9E025C2
:1031980008F508EE4F60718E828F83A3A3A3E0F930
:1031A800850E82850F8312341A12072BE9F509EE72
:1031B8002404122B9DE97044E4F514F515781412D3
:1031C80019957514E975150278141219957514EA8C
:1031D800751502781412199574081217761219AC1D
:1031E8007911EEFCEFFD850E82850F8312341A12D9
:1031F80008637408121741E9F5096027850C828570
:103208000D831232FB123688E50870030232E11290
:103218003305850E82850F8312341A1204C779008C
:103228000232F6850882AA82EA9002E97009E0244F
:1032380004900301F08022E0F8900301E0F514E81F
:103248002404FCE43400FDEC65147001ED70C01238
:1032580030C194121230B950B6850C82850D83E0C6
:10326800C0E074022A122F79D0E0F00508850C829C
:10327800850D83A3E0C0E0122F72D0E012331785CA
:10328800820C85830D780C12199574041217761226
:1032980019AC851082851183123EE2120749740425
:1032A8001217418A0C8B0DAE0CAF0D85080C7402F9
:1032B800250CF874033400F9EE4F700302315B8576
:1032C8001882851983E088828983123317A3E0C0A6
:1032D800E0122F72D0E0023169E509700375090A1E
:1032E800850A82850B831232FB123688A909740479
:1032F800022F6A123ED18512828513832290030120
:10330800E0F5F0E50884900300F07C007D0322F0EE
:1033180005088518828519832274EC12178274FEB9
:1033280012172B8A088B098C0E8D0FEA2405FEEBE9
:103338003400FF851882851983AC82AD838E828F15
:103348008312341A1207438A0A8B0BEE2418122BA5
:103358009DEA450B70030233EB12355D5032851838
:103368008285198312341A1208578A108B11EA457C
:1033780011606B7912AC0AAD0B850882850983123E
:10338800341A851082851183121780E9F50A70585E
:10339800E4F50AF50B780A1219958E828F83A3A398
:1033A800E0F50A780A121995EE240312366C780AA9
:1033B8001219958E828F83123424120869740612AA
:1033C8001741E9F50A7021850C82850D83E0701F8D
:1033D80085088285098312341A1204CD8011750A72
:1033E8000E8009750A018004E50A600312367B85A0
:1033F8000C82850D83E0600479008002A90A7402BA
:103408001217417F0C0218547C007D03850A8285BF
:103418000B8312341E22E0FAA3E0FB22E0FCA3E0B7
:10342800FD85088285098312341E2274EE121782E4
:1034380074FE12172B8A088B098C0C8D0DEA240553
:10344800FEEB3400FF750E00851882851983AC8267
:10345800AD838E828F8312341A1207438A0A8B0B2C
:10346800EA450B700302354912355D5035851882DF
:1034780085198312341A1208578A0E8B0FEA450FE2
:10348800605E7912AC0AAD0B850882850983123417
:103498001A850E82850F83121780E9F50E600302E4
:1034A800354C850882850983123763AA0AFB1208FE
:1034B8004B8A108B11A810A911E849701E7AFF7B5E
:1034C800FF12084B8A108B11A810A911E849606CEB
:1034D80088828983E50AF0A3E50BF0750A00800766
:1034E800750E0E805F050A9002E6E0FAE50AC39AB7
:1034F800504AE50A75F017A4FAABF088828983A3CD
:10350800A3E02AFAA3E03BFB8A828B83123675EC90
:103518004D70D2750A17750B00780A121995EEFCD2
:10352800EFFD120FC57402121741EEFCEFFD85087E
:103538008285098312341A1204D38014750E098007
:1035480003750E01123EC9850C82850D83123688DB
:10355800A90E0230B4E5082402F508E5093400F59F
:10356800098A828B83A3A3A3E0A2E522740412171D
:10357800417F0A02185474EC1217828C108D11EADC
:103588002405F50CEB122BA0750F00EA2402F50AAE
:10359800EB12366F850A82F58312341A12084B8AA9
:1035A800088B09EA45097003023661750E008071BF
:1035B800850C82850D83E06401704F8E828F83A312
:1035C800A31219AC8E828F83A3A3A3A3E0F512756F
:1035D80013007812121995EE2405F512EF3400F550
:1035E80013781212199512341412086974061217F6
:1035F80041E9F50F6014850C82850D83E4F0123ED5
:10360800C98510828511831236887C177D00790060
:10361800EEFAEFFB120FDD8E828F83E4F0A3F00544
:103628000E9002E6E0F8E50EC398501EE50E75F020
:1036380017A4F8A9F0850882850983A3A312405628
:10364800123675EC4D60030235B88508828509830A
:1036580074FFF0A3F0E50F70061234141204D9A910
:103668000F02340BF50AEF3400F50B22A3E0FCA39C
:10367800E0FD228E828F83123ED1850E82850F83D4
:10368800E8F0A3E9F022C082C0839002E2E06A7009
:1036980003A3E06B70067AE27B0280047A007B0069
:1036A80002297BC082C08378008C828D83E06A7097
:1036B80003A3E06B7010E875F003A4F8A9F0EC28F8
:1036C800FAED39FB8015088C828D83A3A3A3E06AE9
:1036D8007003A3E06B60DF7A007B0002297B74F63D
:1036E8001217821208158A828B83E5824583700639
:1036F8007A007B008007A3A3A3A312341A023D7AA1
:1037080074F2121782E9FE740E1217761237637478
:1037180010121776123BDB8C828D83E064027036C0
:10372800A3123ED7F50CA3E0F9A80C740268700345
:103738007429697021750C02750D00780C121995A1
:103748007808121995780A121995EEF912088D74ED
:103758000612174180027901023DFEE0F50AA3E056
:10376800F50B2274E812178274FB12172BE98518DF
:1037780082851983F08A168B17ECFEEDFF75100011
:10378800741D121776123ECD741D121776123688E4
:103798008E828F83A3A3A3E0A2E4502D741D121779
:1037A8007612341A1208578A828B83E58245837011
:1037B80003023BAC790AEEFCEFFDAA16AB17121711
:1037C80080E9F5106003023BAF741F121776123BB5
:1037D800DB74211217761237637423121776E0F51B
:1037E8000EA3E0F50F8E828F83E064026003023B34
:1037F8005AA3123ECD850882850983A38582128546
:103808008313EE2406122B9D88828983E0FAA3E0B5
:10381800F9EA2400F514E439F5157814121A1F0191
:1038280000002801284F380700022814390328818E
:103838003800294B3A0129763A0229173A03294BCD
:103848003A0429F53A5A3BE50E450F6003023B5509
:10385800850C82850D83123BD0FAE9FB8A828B8323
:10386800E0850A82850B83123C061219958A828BA1
:1038780083A3E0FCA3E0023ADFE50E450F600302F4
:103888003B55850A82850B837401F0123BE385085A
:1038980082850983F07C007D008E828F83A3A3A399
:1038A800A3E02401FAA3E03400FB120743EA4B60CB
:1038B800418A828B83E02402F8850A82850B83E0A3
:1038C80028F0EA2404F8EB3400F988828983E0853B
:1038D8001282851383123C18123C061219958A82AB
:1038E8008B83123674E5082403FAE5093400FB02D9
:1038F8003AE4850A82850B83E02404F07C047D0089
:103908007900AA12AB13120FDD023BAFE50E450F8B
:103918006003023B55123BE3FEA3E0FF850A828564
:103928000B837404F0EE850882850983F0EF851215
:1039380082851383F07403121776AC82AD83EEFA96
:10394800EFFB1207438A0C8B0DEA450D7003023911
:10395800F88A828B83A3A31228267401121776850E
:10396800820E85830F780E12199574051217761238
:1039780019AC7CFF7DFF12074974041217418B0FA5
:10398800EA450F7033850C82850D83123BBB1219F3
:1039980095850C82850D83A31219AC7C027D007A73
:1039A8005D7B821205757404121741E9700A74016F
:1039B80012177674FFF0A3F08E828F83E064027092
:1039C80039750C02750D00780C1219958E828F834B
:1039D800123674E5082404FAE5093400FB120FC511
:1039E8007402121741850A82850B83E0240280093C
:1039F8007401121776EEF0A3EFF074011217761225
:103A08003BCCF07401121776A3123BC4023B4FE57E
:103A18000E450F6003023B55850C82850D831236D7
:103A280075AA16AB17120881850A82850B83740262
:103A3800F0EA850882850983F0851282851383EB75
:103A4800023B52E50E450F6003023B55123BE3F87B
:103A5800A3E0F9850A82850B837402F0E885088261
:103A6800850983F0E9851282851383023B52850C10
:103A780082850D8312341A120FBFEAFC8C82A88249
:103A8800C3950EE4950F405FE8650E7002E50F7070
:103A9800047C008022851882851983E0FAE50E2AC5
:103AA800FAE50F3400FBC3EA98EB94005003E0807A
:103AB80005E50ECCC39CFCEC850A82850B83F08C53
:103AC8000A750B00780A121995850C82850D83E01A
:103AD800250EFCA3E0350FFDAA08AB09120FC5742B
:103AE80002121741023BAF751007023BAFE50E45C6
:103AF8000F705A850C82850D83123ECD850A82850A
:103B08000B837407122832123BC4122832A3E085B3
:103B18001282851383F0E82402FAE93400FB8A82D2
:103B28008B83123BC4123BF3123BCCA3123BFC1217
:103B38003BD5F0E82405F8E93400F9888289831236
:103B48003BD5A3123C18A3A3A3A3F0805A75100B6E
:103B58008055741D12177612341A1208158A828B32
:103B680083E5824583603D123ECD880C890DE8458A
:103B78000D6031780E121995780A12199578081285
:103B880019957406121776E0F9EEFCEFFDAA16AB4C
:103B980017850C82850D831217807406121741E968
:103BA800F510800375100EA91074051217417F10C7
:103BB800021854E0F50E750F00780E22E085088291
:103BC80085098322123C2222123ED1E822123C228D
:103BD800A3A322E0F508A3E0F50922850C82850D50
:103BE80083E0F8A3E0F5838882E022A3A3F08A8229
:103BF8008B83A322F088828983A3A3A3A322F08ABC
:103C0800828B83123C0F22E0F50A750B00780A229A
:103C1800F088828983A3123C2222E08508828509E4
:103C280083A3A32274EE12178274FE12172B8A0A3A
:103C38008B0BECFAEDFB7414121776E0F510A3E089
:103C4800F5117416121776E0FE7418121776E0F55F
:103C58000EA3E0F50F851882851983AC82AD831217
:103C680007438A0C8B0DEA450D6049851882851932
:103C78008312341A1208158A828B83E58245836081
:103C88002FA3A3123BDBE50845096024780E12191F
:103C9800957810121995EEF9AC0CAD0DAA0AAB0B7C
:103CA80085088285098312178074041217418006DB
:103CB800790E800279010230B474F612178274FE0C
:103CC80012172B740C121776123BD085188285199F
:103CD80083F07401121776E9F0E4F508F50978081D
:103CE8001219957508027808121995740412177636
:103CF800858208858309780812199512086974065F
:103D08001217417402121741806874F7121782EA79
:103D1800FEEBFF89087C197D03120881EA540260D2
:103D28000BA908EEFAEFFB12073780027901022788
:103D38002E74F612178274FF6A700374FF6B701684
:103D48008C828D83123D7FE4F08C828D83A3A3A3A4
:103D5800123D7FA380181208518A088B09A808A968
:103D680009E849600D8882898374FF122830A3A36B
:103D7800E4F07F0202185474FFF0A3F08C828D8364
:103D8800A3A32274F61217821208518A828B83E544
:103D98008245836006A3A3E0FA80027A007B008054
:103DA800D174F21217828A088B09ECFEEDFF740EAB
:103DB800121776E0F50A1208518A0C8B0DA80CA987
:103DC8000DE8497026EEFCEFFD7AFF7BFF120851E3
:103DD8008A0C8B0DA80CA90DE8497004791180167E
:103DE80088828983E508F0A3E509F088828983A39E
:103DF800A3E50AF079007F0602185474EE121782C0
:103E0800EAFEEBFF8C088D09890C741412177612E0
:103E18003ECD741612177612341A750D00E84960F3
:103E280003023EC17402650C6003023EBC741212A8
:103E38001776123ED7FCA3E0F9EC2400F50EE4391E
:103E4800F50FEAF4F8EBF4F9EC58F8E50F59F9E84E
:103E580049705CE5082406F8ED3400F9880A890BF6
:103E68008882F583123EE21208818A108B11E50ED2
:103E780065107004E50F65116042780E121995857A
:103E88000A82850B83123EE21208877402121741D8
:103E9800E9F50D7027780E12199585088285098332
:103EA800A3A3123EE012089F7402121741800D75F9
:103EB8000D808008750D0D8003750D0BA90D023559
:103EC800798E828F83123ED122E0F8A3E0F9221284
:103ED8003ED188828983E022A3A3E0FCA3E0FDEE23
:103EE800FAEFFB2274E812178274E712172B851871
:103EF80082851983EAF0A3EBF08C168D17890E756D
:103F080008007509007431121776E0F512A3E0F580
:103F1800137433121776E0F514A3E0F5157435120F
:103F28001776E0F50FE50975F003A4F8A9F08518F0
:103F380082851983124056E0F47003A3E0F47003FD
:103F4800024039EE2402F50CEF12404CE0700302F7
:103F5800403985160A85170B780A121995AC14ADE5
:103F680015AA12AB1312080974021217418A0A8B98
:103F78000BEA450B7003024039E4F510F51178108F
:103F88001219957406121776858210858311781098
:103F98001219957409121776858210858311781085
:103FA800121995851282851383A3A3A3A31219ACB2
:103FB8007914AC0AAD0B8E828F8312341A120863FF
:103FC8007408121741E97069850A82850B83A3A3D7
:103FD800A3A3123ECD7402121776123688850C827E
:103FE800850D83E0A2E05018A90E7402121776AC72
:103FF80082AD838E828F8312341A12075BE94208DE
:10400800850C82850D83E0A2E15026E50FF50A783C
:104018000A121999A90E7403121776AC82AD838E11
:10402800828F8312341A1207557401121741E9421C
:10403800080509E509C394025003023F2DA9087435
:1040480019023BB33400F50D850C82F58322E02874
:10405800FEA3E039FF8E828F832274F2121782EA60
:10406800FEEBFF890B7401650B600E7402650B7023
:104078006A7901120A61E97062EEFAEFFB12084BE5
:104088008A088B09EA45096047750A00800B7C1786
:104098007D007900120FDD050A9002E6E0F8E50AD6
:1040A800C3985021E50A75F017A4F8A9F08508828D
:1040B800850983A3A3E028FAA3E039FB8A828B83CE
:1040C80012298270C985088285098374FFF0A3F0DC
:1040D8007C197D03EEFAEFFB12087B023DFE74F2B9
:1040E8001217828A088B09ECFEEDFF740E12177600
:1040F800123763900BA3E0F4603D7A097B00120F3E
:10410800EFEA4B60328A828B8374B1F0A3E4123BEE
:10411800F5A3123BF3A3E508F0A3E509124142EE2B
:10412800F0A3EF124142A3A3E50AF0A3E50BF09038
:104138000BA3E0F9120FFB023DFEF08A828B83A3EA
:10414800A3A3A3A322C082C0839061907404F0A3A8
:104158007448F0A37402F09061807440F09061BCE0
:104168007403F09061877419F0906265741BF09085
:104178006249E0C3941390619C400A7409F090600E
:104188006674018007740DF0906066E4F090619A9F
:104198007433F0A37455F09061A0743AF090053F21
:1041A800E064017009C2919003A6746780059003CA
:1041B800A67461F09026EAE493906186F09026E474
:1041C800E493F46027E493540FF8906185E0686005
:1041D80012E5C654804449F5C6E59E547F6449708B
:1041E800F8E8F053C680E59E547F70FA7905120D01
:1041F800A902437BC082C083E5A8F853A87E9061DA
:1042080081E4F0A3F0A3F0C2BA539AFEC289759B69
:1042180000C2C275E90075910075BF0075A91175D6
:10422800B905906181F0A374C0F0A3E4F0D2BA4359
:104238009A0174805842A802437BC082C08374F8F4
:1042480012172B9003A4E0F8A3E0F9E849700302E1
:1042580043709003A4E05440602379088518828550
:104268001983AA82AB83120C1D851882851983AA2B
:1042780082AB831209119003A4E054BFF0E054808C
:104288006010790C7A657B05120C1D9003A4E0542C
:104298007FF0E0A2E0503190619A7433F0A3745536
:1042A800F09061A0743AF090053FE064017009C293
:1042B800919003A6746780059003A67461F01209B3
:1042C800179003A4E054FEF0E05402603190619A24
:1042D800743FF0A3745AF09061A0747FF090053F8A
:1042E800E064017009D2919003A67471800590036F
:1042F800A6746AF01209179003A4E054FDF0E05484
:104308000460139026E8E493906186F012091D90EA
:1043180003A4E054FBF0E0540860139026E9E4930A
:10432800906186F012091D9003A4E054F7F0E05460
:104338001060139026EAE493906186F012091D90AC
:1043480003A4E054EFF0E05420600A12091D900322
:10435800A4E054DFF0A3E05401600D120B451209EC
:10436800239003A5E054FEF0740812174102437B22
:10437800F0A3F0D083D08202012274EC1217827469
:10438800F412172B851882851983AC82AD83758347
:104398008275821D740412163E9026E893F4600319
:1043A80002450E907808E0C3940250030244EE746C
:1043B80004121776AC82AD837583817582C8740840
:1043C80012163E8518828519838582128583137497
:1043D80004121776AC82AD83750EFF750FFF7FFF51
:1043E8007E00750C48750D78801574086E70030290
:1043F800448274096E7003024482740A6E607B857D
:104408000C82850D8378081215FB8C828D83A9098F
:10441800E50AC9F8881074187808121529E51045B6
:1044280008F8C3E098A3E099850C82850D83780885
:104438001215FB40188C828D837418780812152980
:10444800E5104508F8E0C398F8A3E0801C741878D4
:1044580008121529E5104508FAE9FB8C828D83E0DE
:10446800F8A3E0F9EAC398F8EB99F9C3E8950EE9DF
:10447800950F5006880E890FEEFF0EE50C2404F503
:104488000CE50D3400F50DEEC3941350030243F20E
:1044980074FF650E700474FF650F60238F08740243
:1044A800780812171874482508F58274783509F5C4
:1044B8008378081215FB851282851383E508F0ECD2
:1044C8002402FCED3400FD851282851383A38582C6
:1044D80012858313740C121776E5826C7003E583DA
:1044E8006D60030243E07508017509007808121928
:1044F800957402121776AC82AD837ABA7B091211D1
:10450800D57402121741740C1217417F0C0218540B
:10451800C082C0839061AE7468F0A3746AF0906240
:104528004574FBF0A304F053F4FD43FE0290053FED
:104538007401F09061A0E0643A90619A702374333A
:10454800F0A37455F09061A0743AF074016401709E
:1045580009C2919003A6746780289003A6746180AD
:1045680021743FF0A3745AF09061A0747FF0740135
:1045780064017009D2919003A6747180059003A616
:10458800746A02437A7F08021854C082C083900478
:10459800F1E06401700A9004F6E06004790C80028E
:1045A800790002437BC082C08375E1F19004F4E096
:1045B800605B14600914605F14605714705E120B1E
:1045C800579004EAE0F97AEB7B04120D2B7AD67B3C
:1045D800BE7C897D8E120D617A557B557C557D0098
:1045E800120D379004F5E0F9120D437901120D9D73
:1045F8009004E8E0F8A3E0C82416F582E83400F552
:1046080083746FF0A3740BF0790002437B120B5D87
:1046180080AF120B6380AA120B6980A5791280EA19
:1046280074F012178275D90D9004D5E0A2E0E43336
:104638001313F89004EAE0C4333354C0484401F536
:10464800D978E8790488828983A3A3A3E0F5D98877
:10465800828983A3A882A983E864EE7003E96404CD
:1046680070E378D5790488828983A3E0F5D98882B4
:104678008983A3A882A983E864DB7003E9640470D2
:10468800E575E1959004D5E0F97AD67B04120D31F1
:10469800900BC57409F0A3740BF0A37465F0A374B0
:1046A8000CF0A37465F0A3740CF0A37465F0A37404
:1046B8000CF0A3740FF0A3740BF0A37465F0A3744B
:1046C8000CF0A37427F0A3740BF0900BD37465F06F
:1046D800A3740CF0A37465F0A3740CF0A37465F0D4
:1046E800A3740CF0A37465F0A3740CF0A37465F0C4
:1046F800A3740CF0A37465F0A3740CF09004F4E0B8
:1047080064019004E87012E0F8A3E0F5838882A3BE
:10471800A37508007509088010E0F8A3E0F5838800
:1047280082A3A3750804750900750A00750B007843
:1047380008121574750CFF750DFF750EFF750F00C7
:104748007808790C1215C29004E8E0F8A3E0C824B0
:104758000EF582E83400F583780812160A9004E80A
:10476800E0F8A3E0C82414F582E83400F583741354
:10477800F09003A27402F002458D74F7121782902C
:1047880004FAE02407F5D99004EAE0C4333354C0AE
:10479800F5D978E8790488828983A3A3A3E0F5D9B9
:1047A80088828983A3A882A983E864EE7003E964F8
:1047B8000470E39004FAE0601F78E87904FAE824CA
:1047C80013F582E93400F583E0F5D988828983A35B
:1047D800A882A9831AEA70E690051AE02407F5D999
:1047E8009004EAE0C4333354C04404F5D978E87936
:1047F8000488828983A3A3A3E0F5D988828983A347
:10480800A882A983E864EE7003E9640470E3900564
:104818001AE0601F78E87904FAE82433F582E9346D
:1048280000F583E0F5D988828983A3A882A9831A31
:10483800EA70E675E195900BC57415F0A3740BF05A
:10484800A37465F0A3740CF0A37465F0A3740CF062
:10485800A37465F0A3740CF0A3740FF0A3740BF0A9
:10486800A37465F0A3740CF0A37427F0A3740BF081
:10487800900BD37465F0A3740CF0A37465F0A37463
:104888000CF0A37465F0A3740CF0A37465F0A37422
:104898000CF0A37465F0A3740CF0A37465F0A37412
:1048A8000CF09004E8E0F8A3E0C8240EF582E834A0
:1048B80000F58374FFF0A3F0A3F0A3F09004E8E000
:1048C800F8A3E0C82414F582E83400F5837412F0E4
:1048D8009003A27401F0FF02185474F71217829023
:1048E80004FAE02407F5D99004EAE0C4333354C04D
:1048F8004402F5D978E8790488828983A3A3A3E0E0
:10490800F5D988828983A3A882A983E864EE700315
:10491800E9640470E39004FAE0601F78E87904FA27
:10492800E82413F582E93400F583E0F5D988828913
:1049380083A3A882A9831AEA70E675E195900BC54E
:104948007421F0A3740BF0A37421F0A3740BF0A3EB
:104958007421F0A3740BF0A37421F0A3740BF0A3DB
:104968007421F0A3740BF0A37421F0A3740BF0A3CB
:104978007427F0A3740BF0900BD37465F0A3740C38
:10498800F0A37465F0A3740CF0A37465F0A3740C21
:10499800F0A37465F0A3740CF0A37465F0A3740C11
:1049A800F0A37465F0A3740CF09004E8E0F8A3E0B9
:1049B800C8240EF582E83400F58374FFF0A3F0A351
:1049C800F0A3F09004E8E0F8A3E0C82414F582E826
:1049D8003400F5837414F09003A27404F0024CA917
:1049E80074F71217829004FAE02407F5D99004EAC4
:1049F800E0C4333354C04406F5D978E87904888292
:104A08008983A3A3A3E0F5D988828983A3A882A96F
:104A180083E864EE7003E9640470E39004FAE060EC
:104A28001F78E87904FAE82413F582E93400F5835D
:104A3800E0F5D988828983A3A882A9831AEA70E657
:104A480090051AE02407F5D99004EAE0C4333354FA
:104A5800C04404F5D978E8790488828983A3A3A39C
:104A6800E0F5D988828983A3A882A983E864EE70D7
:104A780003E9640470E390051AE0601F78E879049C
:104A8800FAE82433F582E93400F583E0F5D9888221
:104A98008983A3A882A9831AEA70E675E195900B29
:104AA800C5741BF0A3740BF0A37465F0A3740CF029
:104AB800A37465F0A3740CF0A37465F0A3740CF0F0
:104AC800A37465F0A3740CF0A37465F0A3740CF0E0
:104AD800A37427F0A3740BF0900BD37465F0A37440
:104AE8000CF0A37465F0A3740CF0A37465F0A374C0
:104AF8000CF0A37465F0A3740CF0A37465F0A374B0
:104B08000CF0A37465F0A3740CF09004E8E0F8A32B
:104B1800E0C8240EF582E83400F58374FFF0A3F0B2
:104B2800A3F0A3F09004E8E0F8A3E0C82414F58209
:104B3800E83400F5837415F09003A27403F0024C76
:104B4800A9C082C0839004E8E0F8A3E0C82406F571
:104B580082E83400F583E402437874F712178290F0
:104B680003D0E0F875F003A4C8AAF02AF974D22893
:104B7800F8740339F9E82405FAE93400FB8A828BD2
:104B880083E0FCA3E0FD88828983A3A3A3A3A3A356
:104B9800A3A3A3ECF0A3EDF088828983A3A3A3A326
:104BA800A3A3A3E024FFF8A3E034FFF98A828B8350
:104BB800E8F0A3E9F0024CA974F7121782EAFEEBB9
:104BC800FF9061D0E06003024C9D75D90E75D90342
:104BD80075D904EE248BF582EF3400F583E5822441
:104BE80008F8E5833400F9E0F5D9A3E86582700395
:104BF800E9658370F2EE2483F582EF3400F583E5EE
:104C0800822404F8E5833400F9E0F5D9A3E8658245
:104C18007003E9658370F275E1957908EE248BFAE3
:104C2800EF3400FB120C117904EE2483FAEF340000
:104C3800FB120C117C00EEF8EFF9ECFAC3E49AFAD7
:104C480095E0FBEE2AFAEF3BFBEA248AF582EB3487
:104C580000F583E0C0E0E824AAF582E93400F58392
:104C6800D0E0F00C88828983A3A882A983ECC3943E
:104C78000840C7EE246FF582EF3400F583E0F8A30F
:104C8800E0F9EE2471F582EF3400F583E8F0A3E94A
:104C9800F07901800279008008F0EEA2E092AF7905
:104CA800007F01021854C082C08375D90275D903E8
:104CB80075D90575E195EA246FF582EB3400F58323
:104CC800E0F8A3E0F9EA2471F582EB3400F583E813
:104CD800F0A3E9F0790102437B74F6121782EAFE29
:104CE800EBFF9005457406F07508457509057808C9
:104CF8001219957C017903120C5974021217417527
:104D0800D90675D903758245758305E0F5D9A3E5FC
:104D180082644A7004E583640570F075E195900338
:104D2800A2E06408701EEE246FF582EF3400F5836C
:104D3800E0F8A3E0F9EE2471F582EF3400F583E89A
:104D4800F0A3E9F07901024FAF74F6121782EAFE78
:104D5800EBFF9061D0E070667801900545740BF028
:104D68009003A2E06407701975084575090578086D
:104D78001219957C017903120C59740212174178A3
:104D880005740128F5D975D903758245758305E839
:104D9800FAE0F5D9A31AEA70F875E195EE246FF5F3
:104DA80082EF3400F583E0F8A3E0F9EE2471F58290
:104DB800EF3400F583E8F0A3E9F079018002790087
:104DC800024FAF74F7121782EAFEEBFF75D903752D
:104DD800D90375D90DEE24DDF582EF3400F583E0B3
:104DE800F5D975E1957904120D67EE246FF582EF18
:104DF8003400F583E0F8A3E0F9EE2471F582EF348E
:104E080000F583E8F0A3E9F07901024CA974F612E1
:104E18001782EAFEEBFF9061D0E0F87480C398FA3D
:104E2800EE2482F582EF3400F583E0600478048094
:104E3800027800E8240BF8EAC3985003024EDA7DA2
:104E480009900545EDF0EE24E2F8EF3400F97A46D2
:104E58007B057C0888828983E08A828B83F088823C
:104E68008983A3A882A9838A828B83A3AA82AB831E
:104E78001CEC70E0EE2482F582EF3400F583E060EC
:104E88001D75084575090578081219957C09790377
:104E9800EEFAEFFB120C5974021217417D0D7401E2
:104EA8002DF5D975D9037582457583058D08E0F50B
:104EB800D9A31508E50870F675E1957904120D6710
:104EC800EE241DF582EF3400F583E4F0A3F07901B8
:104ED80080027900024FAF74F6121782EAFEEBFFE8
:104EE8009061D0E0F87480C398FAEE2482F582EFDE
:104EF8003400F583E06004780480027800E8240830
:104F0800F8EAC3985003024FAD7806900545740C33
:104F1800F09003BFE0900546F09003C0E09005478D
:104F2800F09003C1E0900548F09003C2E090054975
:104F3800F09003C3E090054AF0EE2482F582EF3446
:104F480000F583E0601B7508457509057808121996
:104F5800957C067903EEFA120C59740212174178FF
:104F68000A740128F5D975D90375824575830588B2
:104F780008E0F5D9A31508E50870F675E1957904F8
:104F8800120D67EE246FF582EF3400F583E0F8A385
:104F9800E0F9EE2471F582EF3400F583E8F0A3E937
:104FA800F07901800279007F0202185474F6121712
:104FB80082EAFEEBFF9061D0E0F87480C398FAEEC5
:104FC8002482F582EF3400F583E0600478048002DF
:104FD8007800E82404F8EAC398500302508E780257
:104FE800900545E8F0EE24F4F582EF3400F583E00F
:104FF800900546F0EE2482F582EF3400F583E060F8
:105008001B75084575090578081219957C027903FE
:10501800EEFA120C5974021217417806740128F539
:10502800D975D9037582457583058808E0F5D9A334
:105038001508E50870F675E195EE2473F582EF34EE
:1050480000F583E4F0EE247FF582EF3400F583E485
:10505800F0EE241DF582EF3400F583E4F0A3F07937
:1050680004120D67EE240DF582EF3400F583E0F8A5
:10507800A3E0F9EE2471F582EF3400F583E8F0A39C
:10508800E9F0790180027900024FAF74F6121782B5
:105098009061D0E0F87480C398FCEA2482F582EB32
:1050A8003400F583E06004780480027800E8240482
:1050B800F8ECC398405B79029005457407F0EA2440
:1050C800F5F582EB3400F583E0900546F0EA24829A
:1050D800F582EB3400F583E060187508457509051D
:1050E80078081219957C0209120C5974021217419A
:1050F8007906740129F5D975D90375824575830533
:10510800E9F8E0F5D9A318E870F875E19579018018
:10511800027900024FAF74F5121782E9FCA2AFE4DE
:1051280033F50AC2AF7D0080010DEA246EF582EBEB
:105138003400F583E0F8EDC398501A8D08EA250885
:10514800F8EB3400F9E8246AF582E93400F583E0E5
:105158006C70D68024EA246EF8EB3400F9E0FEEA9D
:105168002EFAEB3400FBEA246AF582EB3400F5836F
:10517800ECF088828983E004F0E50AA2E092AF7F30
:105188000302185474F6121782A2AFE433FDC2AFBB
:10519800EA246EF582EB3400F583E014F07C0060BD
:1051A800368C08EA2508F8EB3400F9E8246BF58218
:1051B800E93400F583E0C0E0E8246AF582E93400C8
:1051C800F583D0E0F00CEA246EF582EB3400F58329
:1051D800E0F8ECC39840CAEA246DF582EB3400F598
:1051E8008374FFF0EA2469F582EB3400F583E4F078
:1051F800EDA2E092AF024FAFC082C083E5A8F8C22B
:10520800AFEA246AF582EB3400F583E9F0EA246911
:10521800F582EB3400F583E4F0E8A2E7A2E792AF69
:1052280002437B74F3121782EAFEEBFFECFAEDFB04
:105238008A828B83A3A3A3A3E0541FF0EE2436F540
:1052480082EF3400F583E4F0F50AEEFCEFFD8A8284
:105258008B83E0C0E0EC245DF582ED3400F583D06B
:10526800E0F0750B00E50A33333354F8F50C8A8205
:105278008B83E0F508750900E50B78081216F9E547
:1052880008A2E0502FEE2436F8EF3400F98882891E
:1052980083E0F508EE2508F508EF3400F509E50880
:1052A8002438F582E5093400F583E50CF088828915
:1052B80083E004F0050B050CE50BC3940840AF052B
:1052C8000A8A828B83A3AA82AB838C828D83A3AC48
:1052D80082AD83E50AC3940550030252567F050246
:1052E800185474F71217829003CEE0640170030219
:1052F80054487A009003D4E060030254487401F0E3
:10530800A3E4F0A3F090043404F0900439F090037F
:10531800D7E4F0A3F0A3F0A3F09003E104F0900425
:1053280007E4F09003EAF0A3F0A3F0A3F0A3F0A33E
:10533800F0A3F0900451F0900445F090043A748082
:10534800F0A3E4F0900440F09004BCF0A3F0A3F0C4
:10535800A3F0A3F0A3F0A3F0A3F09004C5F0900489
:1053680054F09004A4F0A3F0A3F0A3F0A3F0A3F0EA
:10537800A3F0A3F0A3F0A3F09004B0F09004B2F06F
:105388009004AEF09004C8F0A3F0A3F0A3F0A3F04B
:10539800A3F0A3F0A3F078CE7903E8246EF582E9B0
:1053A8003400F58374FFF00A88828983A3A882A950
:1053B80083EAC3940440E37ACE7B0378DC790488DB
:1053C800828983E0C0E0EA2461F582EB3400F5834A
:1053D800D0E0F088828983A3A882A9838A828B83FC
:1053E800A3AA82AB83E864E17003E9640470D07A0D
:1053F800CE7B0378B5790388828983A3E0C0E0EA8D
:1054080024E6F582EB3400F583D0E0F088828983C6
:10541800A3A882A9838A828B83A3AA82AB83E86428
:10542800BD7003E9640370CF9003CEE004F064011B
:1054380070089003D6E09003D0F07AD27B03800402
:105448007A007B00024CA9C082C0839003D5E4F0A7
:105458009003D4F09003CEF0A3F0A374FFF075E1AD
:10546800F102437BC082C083780079009003D5E0C5
:10547800600478D2790388828983A3A3A3A3E0F97F
:1054880002437B74F6121782EAFEEBFFEE2463F503
:1054980082EF3400F583E0F8A3E0F9E849700302ED
:1054A8005530EE2463F8EF3400F97A007B00A2AFA0
:1054B800E433F508C2AF88828983E0FCA3E0FDEC01
:1054C8004D603A88828983E0FAA3E0FB8A828B8365
:1054D800E0FCA3E0FD88828983ECF0A3EDF08A82EA
:1054E8008B83E4F0A3F088828983E0FCA3E0FDECE1
:1054F8004D700A88828983A3A3E4F0A3F0E508A28B
:10550800E092AF1212BF9004E2E004F09004E3E0EE
:1055180004F0EE2463F582EF3400F583E0F8A3E0AD
:10552800F9E84960030254AA8E828F83A3A3A3E0FB
:10553800600F8E828F83A3A3A3E4F09003CFE014BF
:10554800F09003CEE014F070069003D074FFF08E54
:10555800828F83A3A3E4F09004E1E0700D9003CF61
:10556800E0640170057900120D49EEFAEFFB120CA8
:1055780089024FAF74F7121782EAFEEBFF8E828F13
:1055880083A3A3A3A3E0FA7B00120965EEFAEFFB5D
:10559800120BDB120C71024CA9C082C08378B5795A
:1055A8000388828983A3E4F088828983A3A882A9D7
:1055B80083E864BD7003E9640370E69003B6740180
:1055C80002437A74F6121782EAFEEBFFEC2403F822
:1055D800ED3400F988088909EC2407F8ED3400F95E
:1055E800E8FCE9FD8C828D83E0F8A3E0F985088268
:1055F800850983E0FAA3E0FB1216A0EE240DF582DC
:10560800EF3400F583E8F0A3E9F08C828D83E0F8AD
:10561800A3E0F9850882850983E0FAA3E0FB121666
:10562800A08B09EA45096013EE240DF582EF3400DA
:10563800F583E02401F0A3E03400F0024FAF74F6E4
:10564800121782EAFEEBFFEE242EF582EF3400F506
:1056580083E0FCA3E0FD780079FAECFAEDFB121682
:10566800A0EE246FF582EF3400F583E8F0A3E9F0AB
:10567800780079FAECFAEDFB1216A08B09EA4509D5
:105688006013EE246FF582EF3400F583E02401F017
:10569800A3E03400F0024FAF74EC121782EAFEEB7D
:1056A800FF741412177678081215FB120D0D8A0C68
:1056B8008B0D8C0E8D0F751002751100751200750B
:1056C8001300780C79101215617510FF7511FF75AC
:1056D80012FF780C79101215C2780C1219918E826B
:1056E8008F83E0F8A3E0F5838882A3A3121619122A
:1056F80023A17404121741E960030258048E828FB3
:1057080083E02402F8A3E03400F9E8FAE9FB8A828E
:105718008B8378081215878A828B837508FF750931
:10572800FF750AFF750B0078081215E8EE240BF5D3
:1057380082EF3400F583C082C0838E828F83A3A357
:10574800A3A3A3E02401F8A3E03400F9D083D08216
:10575800E0687003A3E069700579010258068E823B
:105768008F83A3A3A3A3A3A3A3E02401F0A3E034FE
:1057780000F0EE2473F582EF3400F583E0640170E5
:1057880036EE2474F582EF3400F583E0F8A3E0F9EF
:105798008E828F83A3A3A3A3A3A3A3E0687003A30C
:1057A800E0697013EE2474F582EF3400F583E02489
:1057B80001F0A3E03400F0EE247FF582EF3400F529
:1057C80083E064017036EE2480F582EF3400F583BF
:1057D800E0F8A3E0F98E828F83A3A3A3A3A3A3A3D6
:1057E800E0687003A3E0697013EE2480F582EF345B
:1057F80000F583E02401F0A3E03400F079000245CD
:105808001374F6121782E9FEECFFEA2462F582EBC4
:105818003400F583E0640160030258B29061D0E07F
:10582800F508EA2482F582EB3400F583E060047819
:1058380004800278007480C39508FC95E0FDEF2889
:10584800F8E43400F9E82402F8E93400F9EC98EDBA
:1058580099A2D265D033404E740A121776E0F50843
:10586800A3E0F509EA2482F582EB3400F583E060D1
:10587800157808121995EFFCEEF9120C59740212FA
:10588800174174042FFF74012FF5D98ED9EF600FDB
:10589800850882850983F8E0F5D9A318E870F875BA
:1058A800E195790080067907800279FF024FAF748D
:1058B800F7121782A2AFE433FEC2AF8A828B83E06D
:1058C800F8A3E0F9E8498A828B83600AA3A3E0F889
:1058D800A3E0F5838882ECF0A3EDF08A828B83A3A2
:1058E800A3ECF0A3EDF08C828D83E4F0A3024CA12D
:1058F80074F7121782E96021F88C828D83E08A821E
:105908008B83F08C828D83A3AC82AD838A828B8358
:10591800A3AA82AB8318E870E0ECFAEDFB024CA96D
:1059280074F012178274FA12172B890BECFEEDFF34
:10593800750A008A088B0978081219D90004105BC7
:105948005B6B598959A359BB59D959F159145A2C28
:105958005A405A6A5AF25A035B1A5B355B5B5B5BC7
:105968005B805A7401650B6003025B568E828F83DD
:10597800E0F8C394034003025B56E8900C8F025B87
:10598800327402650B6003025B568E828F8312624B
:1059980058900C90E8F0A3E9025B327401650B6043
:1059A80003025B56125B834003025B56E89007666E
:1059B800025B327401650B6003025B568E828F8333
:1059C800E0F8C394054003025B56E8900767025B62
:1059D800327401650B6003025B56125B834003025D
:1059E8005B56E8900768025B327410650B6003022F
:1059F8005B5675081075090078081219957A697B45
:105A080007120FC57402121741025B7C7401650B03
:105A18006003025B56125B834003025B56E8900703
:105A280079025B327401650B6003025B568E828FCC
:105A380083E0900C93025B327404650B6003025B95
:105A4800568E828F83780C1215FB908221780C1267
:105A5800141A5003025B5690077B780C12160A0240
:105A68005B7CE96003025B561206E3E970051211DC
:105A78005D806090080E806E7407650B6003025BA2
:105A88005675080675090078081219958E828F8355
:105A9800A3AC82AD837402121776AA82AB83120F6D
:105AA800CB74021217417C007D008518828519830A
:105AB800AA82AB838E828F83E0F9121103E9F5087D
:105AC800C3940A4003025B791206E3E9700CA90843
:105AD800121163795012133D806F740F2508F582F7
:105AE80074083400F583740180407401650B705E9E
:105AF800125B835059E890077A802F7401650B7008
:105B08004D8E828F83E0F8C3940A5042E8900C923D
:105B180080187401650B70368E828F83E0F874F9F3
:105B280028C3940A5028E8900C94F08047740165C3
