:020000040000FA
:0600000002010A02248B3C
:03002B00022903A4
:030033000228E5BB
:03003B0002292473
:03004300022899F7
:030053000224FE86
:03006B000228BFA9
:100083000222F7E5C754F84401F5C77901220000BD
:100093000080FB120086B900030200F4E4792178A2
:1000A30008B800028004F709D8FCE479297802B87B
:1000B30000028004F709D8FCE49002817864790C8B
:1000C3008002F0A3D8FCD9FA900DE4AA82AB839006
:1000D300013A780779058015E493A3AC82AD838A4E
:1000E300828B83F0A3AA82AB838C828D83D8E9D9D8
:1000F300E77582407583CE740312011C7582917576
:100103008300740012011C75D00075813F7518813E
:10011300751902759F00020096C09FF59FE473D086
:100123009F22D083D082C09FE493C0E0740193C028
:10013300E0740293F59F22FF0000B400002800281A
:1001430000283075A000A000A000A000000800084F
:10015300E001F0001000100010001000100010006B
:1001630050005000500010001000D00700000000A5
:1001730000000F00010005003075070010000100AA
:1001830081FF00000000FF3E075C074407FF0202F7
:100193000208025000A0000000E80302A082010050
:1001A3000059820264820100003B0E025E8201005C
:1001B30000B3020264820100003C0E025C82010073
:1001C30000C9020264820100003D0E026C8201003C
:1001D30000CB020264820100003E0E028882080006
:1001E30000CC020264820100003F0E028082010003
:1001F30000400EFF0100FF2002A082010000538295
:10020300026482010000A40E027C82000000000050
:1002130002608203000019030E0D0E0D0E0D0E0D6C
:100223000E0D0E0D0E0D0E0D0E0D0E0D0E0D0E0DF3
:100233000E0D900FA80F8A0FFFFF0200E2FF0200CE
:10024300E7FF0200F3FF0200F3FFFAFF07000300DA
:10025300F9FFFBFF07000400F7FF07000300090095
:1002630003000A000E0005000D0005000E00020247
:1002730002020202020202010D000000100102A0AC
:100283008201000050820264820100001B0F027091
:10029300820100009C070264820100001C0F0272AD
:1002A300820100006D810264820100001D0F02744F
:1002B3008201000051810264820100001E0F027658
:1002C30082010000DF800264820100001F0F0278B8
:1002D30082010000CD80026482010000200F027AB7
:1002E300820100009780026482010000210F027ED8
:1002F30082010000BB80026482010000220F02869B
:10030300820100005F81026482010000230F028AE0
:1003130082010000240F01E803053F100AFF0001DA
:100323003075030201060000000000000000000019
:1003330000000000000000000000000000000000BA
:100343000000FFFF0600800CE80384030F0013097D
:100353004F666669636577656C6C20233030303097
:100363003162051208000800020A000201060302B6
:10037300F1FF53696D706C6520424C4520506572E6
:100383006970686572616C0C15000018150A486184
:1003930072647761726520496E666F726D6174690C
:1003A3006F6E000A507265736574204865696768EB
:1003B300740002506F7374757265204A75646765C3
:1003C3006D656E74000A416374696F6E2052616ECD
:1003D30067650008436F6E74726F6C20436F6D6DB9
:1003E300616E6400125065736B205374617475738E
:1003F300000A4C6F636B2053746174757300025071
:100403006F77657275702054696D657374616D7073
:100413000000104865616C74682044617461000ACF
:100423004175746F6D61746963204D6F7665204407
:10043300617461000002A08201000056820264829E
:100443000100003A10028E82030000A30D026282B3
:100453000100003B100264820100005010029082F0
:10046300030000A70D0262820100005110026482A2
:100473000100005F10029282010000AF0D02628250
:100483000100006010026482010000721002948275
:10049300030000B10D026282010000731002648246
:1004A3000100008010029682020000B50D026282F4
:1004B3000100008110026482010000911002988201
:1004C300010000B60D026082030000BA0D026282D1
:1004D30001000092100264820100009E10029A82C1
:1004E300030000C00D0262820100009F10026482BB
:1004F300010000AB10029C82010000C50D02628264
:10050300010000AC10026482010000BF10029E8251
:10051300000000C90D026082030000D90D0262824F
:10052300010000C010026482010000CC100284822A
:10053300030000DF0D026282010000CD10120125CD
:10054300C5BD03120125DCBD031201250DBE031237
:10055300012548BE0312012572BE031201259CBE6C
:1005630003120125B3BE03120125CABE03120125DE
:10057300E1BE031201250ABF031201251DBF0312A9
:10058300012533BF0312012546BF031201256DBFA9
:100593000312012557D9021201255BDA0212012544
:1005A30093DA02120125B6DA02120125C1DA021228
:1005B3000125E4DA02120125F3DB02120125C8DC6E
:1005C3000212012543DD02120125CBDD02120125B2
:1005D30006DE021201253DDE02120125CBDE0212E8
:1005E3000125A4DF0212012504E0021201250FE018
:1005F300021201258EE00212012591E0021201256B
:1006030094E00212012523E10212012526E10212E0
:10061300012556E10212012580E1021201256EE255
:100623000212012520E3021201259C9003120125E9
:10063300C49003120125F29003120125299103129C
:100643000125879103120125D291031201251D92E1
:10065300031201255D9203120125A39203120125C2
:10066300D192031201258E9303120125989303124D
:100673000125A59303120125D89303120125A49400
:1006830003120125B09403120125C8940312012516
:10069300D29403120125B7C903120125C5C9031258
:1006A3000125DDC903120125F5C903120125ADE0BA
:1006B3000112012559E101120125D4E1011201259D
:1006C300F5E20112012531E301120125DAE30112FA
:1006D3000125C1E40112012525E6011201257CE66D
:1006E30001120125FDE601120125EDE701120125A5
:1006F3003AE801120125C0E801120125F2E80112CE
:10070300012506EB0112012548EB0112012566EBD9
:1007130001120125E9EB01120125BDEC01120125AE
:1007230085ED011201253CF4021201250FF5021299
:100733000125B8F5021201250BF602120125BBF6BD
:100743000212012547F70212012533F8021201258F
:1007530062F80212012575F902120125BDF9021290
:10076300012592FA02120125CEFA02120125EAFAB4
:10077300021201257C7F0012012535A603120125F3
:100783004BA60312012571A6031201258DA703129F
:10079300012597A703120125CCA803120125C4A99B
:1007A30003120125758B03120125A58C0312012564
:1007B300D88C03120125228D03120125E98E031221
:1007C30001255BC101120125C5C10112012524C305
:1007D3000112012534C30112012561C30112012550
:1007E300B8C30112012561C40112012568C50112B4
:1007F300012532C60112012592C701120125D5C771
:10080300011201257AC801120125C7C80112012569
:10081300EDC801120125FBCA0112012500CB01120B
:10082300012505CD0112012552CD01120125C5CDAA
:1008330001120125F8CD011201259ACE01120125DD
:1008430043CF011201257BCF011201257ECF011277
:100853000125C6CF0112012506D0011201255DD065
:10086300011201251BB30312012533B30312012522
:100873007BB30312012591B303120125D8B30312ED
:100883000125ECB40312012579B503120125C4B582
:1008930003120125C64500120125D2450012012588
:1008A3000D4600120125524600120125124700127F
:1008B3000125984700120125FD470012012529480B
:1008C30000120125624800120125A04A00120125E9
:1008D300844C001201256A4E00120125AD4F00120F
:1008E3000125FB51001201250D5300120125585417
:1008F30000120125685500120125855500120125B6
:10090300C05500120125E25500120125455600127B
:100913000125065B001201259B5B00120125EC5BA0
:1009230000120125135C00120125655C00120125EC
:10093300835C00120125DD5C00120125C65D0012F7
:1009430001253C5F00120125C05F00120125599566
:1009530003120125639503120125A69503120125B0
:10096300C1950312012551960312012579960312AD
:100973000125B69603120125ED960312012516975C
:10098300031201258B9703120125A097031201255A
:10099300B59703120125E69703120125FA9703126F
:1009A30001251F98031201255998031201258598E3
:1009B300031201251199031201253C990312012504
:1009C300859903120125AF9903120125DA990312C0
:1009D30001259BC50312012517B70212012545B74F
:1009E3000212012593B80212012573B902120125DF
:1009F30092B9021201250FBA0212012552BA02124C
:100A03000125A8BB0212012569BC02120125F0BE13
:100A13000212012591BF0212012587C0021201258E
:100A230084C102120125DEC20212012569C302122A
:100A3300012540C403120125A9C403120125FDC4E5
:100A43000312012524C50312012555C503120125EF
:100A53005FFB02120125CCFB0212012513FC0212DB
:100A630001252BFD0212012527FE021201250AFF93
:100A73000212012591E302120125D3E3021201259B
:100A8300A5E4021201257EE50212012578E6021291
:100A930001255AE702120125C3E70212012579E86D
:100AA30002120125EDE80212012559E9021201257E
:100AB30082E902120125FCE90212012595EA0212DC
:100AC3000125FAEA021201250FEB0212012555EB6B
:100AD300021201256EEB02120125D3EB021201254E
:100AE300D6EB0212012522B0031201254AB00312EC
:100AF300012588B00312012546B103120125ADB1CA
:100B030003120125C9B103120125F1B10312012515
:100B130021B20312012530B203120125ADB2031233
:100B23000125D3B2031201254AD10112012528D38D
:100B3300011201255AD50112012596D5011201256D
:100B4300C3D501120125ADD601120125F8D6011234
:100B5300012543D70112012555D70112012595D748
:100B630001120125CAD70112012518D80112012546
:100B730047D8011201256AD801120125B7D80112FD
:100B830001253CD90112012556DB0112012595DD12
:100B930001120125D6DD0112012578DF011201259D
:100BA300B9DF011201252CE00112012582E00112B7
:100BB300012502AA0212012500AB0212012599B1F7
:100BC30002120125BAB30212012585B502120125CD
:100BD300EDB602120125276000120125D66000122E
:100BE30001251C61001201255C6200120125F263DC
:100BF300001201256C64001201258764001201258F
:100C03000265001201255C6600120125BC67001213
:100C13000125C26800120125236A001201253C6ADE
:100C2300001201259A6A00120125886B0012012522
:100C3300BB6B001201252B6C00120125A56C001261
:100C43000125EF6C00120125B96D001201258E6E8E
:100C5300001201256D6F00120125F86F00120125A6
:100C6300667000120125DA70001201250571001269
:100C73000125C47100120125297300120125467351
:100C83000012012565730012012556740012012517
:100C93007B7400120125A574001201252075001232
:100CA30001257A7500120125E3760012012591775B
:100CB30000120125D277001201252E9C0212012574
:100CC3007C9C02120125889C02120125669D02125A
:100CD3000125979D02120125C89D02120125489EF8
:100CE30002120125809E02120125D29E02120125C5
:100CF3000F9F021201252CA10212012552A30212F9
:100D030001253DA50212012527A702120125FBFF9C
:100D13000112012548AD0112012578AD011201250B
:100D230051B401120125D6B501120125D3BB01121D
:100D33000125BBBC01120125F8BC011201251BBD15
:100D4300011201254CBD0112012555BD01120125DA
:100D53005FBD011201254DBE0112012543BF0112E2
:100D63000125399801120125389C011201253E9C69
:100D73000112012579A30112012592A8011201256F
:100D8300CEA903120125C8AA031201253CAB031205
:100D930001257AAB03120125EEAB0312012567ACE3
:100DA3000312012570AC031201257CAC031201254B
:100DB30091AC03120125CFAC03120125E5AC03125C
:100DC3000125029A031201250F9A03120125299A7C
:100DD30003120125689A03120125A69A031201251D
:100DE3000B9B03120125209B031201252B9B03124E
:100DF3000125389B031201254F9B031201255D9B9F
:100E030003120125689B03120125749B031201251C
:100E1300839B031201258E9B03120125B19B0312B1
:100E23000125589C03120125689C03120125829C0D
:100E3300031201259F9C03120125BB9C031201256C
:100E4300E09C03120125EB9C03120125009D031274
:100E53000125149D03120125759D031201257B9D18
:100E630003120125819D03120125879D031201258C
:100E73009F9D03120125D29D0312012505800212B5
:100E830001258980021201253881021201259782EA
:100E930002120125B88402120125A485021201253C
:100EA300D98502120125FB8502120125AA860212A9
:100EB3000125A28802120125CB88021201255D8932
:100EC300021201258F89021201259C890212012534
:100ED300F38902120125198A02120125868C021256
:100EE3000125898D02120125E18D021201259EEF54
:100EF30001120125A8F0011201258FF1011201252C
:100F030099F101120125BBF101120125C7F101126B
:100F1300012560F3011201258FF301120125ABF4C2
:100F23000112012504F5011201256AF601120125BA
:100F330049F701120125A5F70112012512F8011243
:100F430001254DF8011201258CF80112012545FBFD
:100F5300011201255FFB01120125EBFB01120125A3
:100F6300F9FB0112012552FC0112012560FC01125B
:100F73000125D3FC0112012537FD0112012581FD55
:100F830001120125EAC3021201250CC40212012534
:100F930032C60212012547C9021201255FCA021295
:100FA300012512CB02120125F4CB021201257FBFCA
:100FB30003120125A4BF0312012516C00312012544
:100FC3000278001201250B78001201251478001213
:100FD3000125EB78001201259C7A00120125D27AB3
:100FE300001201250C7B00120125427B0012012512
:100FF3007C7B00120125B07B00120125DC7B0012F3
:101003000125257C001201255F7C00120125A87CA7
:1010130000120125007D00120125357D00120125F6
:10102300907D00120125CA7D001201251B7E00124E
:101033000125517E001201258B7E00120125B97E08
:1010430000120125DC7E0012012544CB0312012589
:1010530070CB03120125CBCB03120125D5CB031291
:101063000125E5CB03120125F48503120125FE8535
:10107300031201253C8603120125858603120125EF
:10108300BF86031201251987031201253A8703122C
:101093000125438703120125908703120125B98790
:1010A30003120125C387031201252F88031201258B
:1010B300C188031201250B890312012541890312FB
:1010C3000125CD89031201250E8A03120125458AC4
:1010D30003120125578A03120125768A031201257B
:1010E3007F8A03120125478B03120125B4C603121D
:1010F3000125ABC7031201250AFE0112012540FE9B
:101103000112012576FE01120125C1FF01120125FD
:1011130021CD0312012537CD0312012541CD031241
:1011230001258BCD031201254F9E03120125649ED9
:1011330003120125179F03120125579F031201254F
:10114300709F03120125AB9F03120125F89F031221
:1011530001252AA0031201256CA00312012577A201
:1011630003120125C0C803120125E9C80312012592
:1011730018C90312012530C90312012572C90312CC
:101183000125982900120125F229001201259F2A21
:1011930000120125982B001201255A2C001201255B
:1011A300612D00120125782D00120125502E001209
:1011B30001256F2E00120125072F00120125FA2F9A
:1011C300001201252C30001201257C30001201256C
:1011D300783100120125CC35001201256436001246
:1011E3000125363700120125903700120125C63735
:1011F30000120125503800120125DC3800120125A8
:10120300513900120125FA3900120125123A001250
:101213000125403A001201258A3A00120125953B27
:1012230000120125EA3D001201255A400012012552
:10123300A84100120125C44200120125D242001226
:101243000125124300120125CD4300120125264436
:10125300001201255945001201258345001201257D
:10126300EEB50312012513B6031201253DB6031291
:101273000125EACD03120125A38201120125088568
:1012830001120125A986011201255D87011201259D
:10129300F087011201257588011201259A88011230
:1012A3000125F08B01120125768C01120125A98DF0
:1012B30001120125E38D01120125188E011201256A
:1012C300D88F011201253590011201257E9001125C
:1012D3000125E990011201255A91011201258C91F2
:1012E30001120125A49101120125ED92011201259C
:1012F300FD92011201251894011201253A9401125D
:101303000125709401120125249601120125B1963D
:1013130001120125F09601120125149801120125ED
:101323008ECA031201259FCA0312012593CE03120D
:101333000125D2CE03120125FACE03120125EFCBEC
:1013430003120125FFCB031201251ACC0312012539
:1013530082CC03120125BCC70312012541C8031225
:101363000125A7C803120125C6C203120125EFC236
:10137300031201255AC303120125ABC3031201252E
:1013830006C403120125BAB803120125CFB803120C
:101393000125EBB9031201255FBA0312012579BABE
:1013A3000312012590BA03120125A3BA03120125E2
:1013B300BDBA03120125D4BA03120125FABA0312E6
:1013C30001254BBB0312012584A2031201259BA215
:1013D3000312012515A303120125F9A30312012505
:1013E300D0A50312012515AD03120125A5AD0312E6
:1013F300012515AE03120125A6AE03120125AFAEDA
:10140300031201252DAF0312012540AF031201255D
:10141300ACAF031201250CB0031201251FB0031258
:1014230001258CCC03120125FBCC0312012506CD2B
:101433000312012516CD0312012524C10312012530
:1014430076C10312012500C20312012567C20312EC
:10145300012580BB03120125AABB0312012578BC19
:101463000312012553BD03120125FAEB02120125D4
:10147300C1EC02120125F8EC0212012522ED021241
:10148300012582ED02120125D8ED021201253DEE60
:1014930002120125D5EE02120125E4EF0212012505
:1014A3007BF10212012508F2021201256FF20212EA
:1014B300012586F202120125A0F302120125DEF3B3
:1014C300021201252F8E02120125B091021201256D
:1014D3003893021201258F9302120125AE93021253
:1014E30001252C9402120125C29502120125A7960B
:1014F30002120125B59A021201258B9B02120125C6
:1015030018CF02120125ABD2021201257ED302129B
:101513000125B2D40212012559D702120125BCD8E4
:101523000212012543D9021201250080031201256D
:101533005080031201256D800312012504820312DA
:1015430001258E82031201258A8303120125BB859F
:1015530003120125CCFF02120125DCCE03E06670E5
:101563001008A3E066700A08A3E066700408A3E00D
:101573006622C3E7960809E7960809E7960809E78C
:101583009622C3E09608A3E09608A3E09608A3E09A
:101593009622C008C3E096F50808A3E0964208081F
:1015A300A3E096420808A3E09645087001D3D0084B
:1015B30022080808E630E71112179D1215CC080817
:1015C30008C64480C618181822181818E9799EC648
:1015D30008CAC608CBC608CCC6C370207996CACB46
:1015E300CC7019798ECBCC70137986CC700EF980C0
:1015F3002ACA33CACB33CBCC33CC331930E7F2CC42
:10160300CBCA3350147004EA30E00DE4CA3ACACBB3
:101613003BCBCC3CCC500209C3E913C6CC182313F3
:10162300C6CB18C6CA18C6F922E6C33318461846ED
:10163300184622E7C33319471947194722E60846D4
:1016430008C3134608336002E633F422E709470967
:10165300C3134709336002E733F422121640601CB8
:1016630012164F601712162C70071216367001D31C
:1016730022C0D01216367006D0D0B322C32233D084
:10168300D0501430E0F6C3E7960809E7960809E757
:10169300960809E796B32220E0D5E6970809E6976E
:1016A3000809E6970809E697B322080808EAC0E0A4
:1016B300EBC0E086F0E7A4FA180986F0E7A42AFA5B
:1016C300180986F0E7A42AFA180986F0E7A42AFA8B
:1016D3001986F0E7A4FBE5F02AFA190886F0E7A4D7
:1016E3002BFBE5F03AFA190886F0E7A42BFBE5F0AB
:1016F3003AFA18180986F0E7A4C5F02BFBE43AFA86
:101703001908E7C5F0C6A426F6E5F03BFBE43AFA70
:101713001886F0E7A4F6E5F00826F6E43B08F6E4BD
:101723003A08F6D0E0FBD0E0FA22E4CFC0E0E4CE02
:10173300C0E0E4CDC0E0E4CCC0E075F020C3E63304
:10174300F608E633F608E633F608E633F618181813
:10175300EC33FCED33FDEE33FEEF33FFC3EC9709BF
:10176300ED9709EE9709EF97191919400FFFEC97B9
:10177300FC09ED97FD09EE97FE191906D5F0BEECAD
:10178300F709EDF709EEF709EFF7191919D0E0FC9E
:10179300D0E0FDD0E0FED0E0FF22181818E4C39695
:1017A300F608E496F608E496F608E496F622601640
:1017B300080808C6C313C618C613C618C613C61826
:1017C300C613C6D5E0EA2270090808082260161875
:1017D3001818C6C333C608C633C608C633C608C6F8
:1017E30033C6D5E0EA22E627F60809E637F6080904
:1017F300E637F60809E637F622E026F608A3E036D0
:10180300F608A3E036F608A3E036F622E026F00851
:10181300A3E036F008A3E036F008A3E036F022C3D5
:10182300E697F60809E697F60809E697F60809E643
:1018330097F622C3E096F008A3E096F008A3E0969B
:10184300F008A3E096F022E657F60809E657F608F3
:1018530009E657F60809E657F622E056F608A3E02C
:1018630056F608A3E056F608A3E056F622E056F033
:1018730008A3E056F008A3E056F008A3E056F022D0
:10188300E647F60809E647F60809E647F60809E6D3
:1018930047F622E0F608A3E0F608A3E0F608A3E083
:1018A300F622E6F008A3E6F008A3E6F008A3E6F0C4
:1018B30022E0FAA3E0FBA3E0FCA3E0FD22EAF0A30D
:1018C300EBF0A3ECF0A3EDF022CAC0E0E6F0A3082E
:1018D300DAFAD0E0FA22CAC0E0E0A3C582CCC5821E
:1018E300C583CDC583F0A3C582CCC582C583CDC5D1
:1018F30083DAE6D0E0CA22C3E498F8E499F912192E
:101903003B8026C3E49AFAE49BFBE920E7E912193A
:101913003BE498F8E499F922C3E498F8E499F912BE
:10192300193BE498F8E499F9C3E49AFAE49BFB229F
:10193300EB20E7CFE920E7E0B90010BB0008E88A15
:10194300F084F8AAF022E4FBC8FA22EB70227B10A1
:10195300C833C8C933C9335007C39AC3DBF28006FF
:101963009A50012ADBEAC833F4C8C933F4C9FA220E
:1019730075F008E4C833C8C933C933C99AC99B5041
:1019830004C92AC93BD5F0ECFBC833F4C8E4C9FA4F
:1019930022600D08C6A2E713C618C613C6D5E0F326
:1019A30022600C08C6C313C618C613C6D5E0F422BA
:1019B300700422600D18C6C333C608C633C6D5E00B
:1019C300F41822251810AF08F518400215198008DD
:1019D300F51840021519D2AF22C0D0251810AF0850
:1019E300F518500205198008F51850020519D2AFF1
:1019F300D0D0222518F58210AF08F518400215192A
:101A03008008F51840021519D2AF851983222518CD
:101A1300F582E43519F58322E4732518C582C0E005
:101A2300E51934FFC583C0E0E518C3958224F81097
:101A3300AF088583198582188008858319858218E4
:101A4300D2AFCEF0A3E520F0A37808E608F0A3DE3A
:101A5300FAEFF0A3E58124FAF8E608F0A3E608F02C
:101A6300A3E608F0A30808E608F0A3E608F0A31528
:101A7300811581D0E0FED0E0F8158115811581E84C
:101A8300C0E0EEC0E0222518C582C0E0E51934FFAE
:101A9300C583C0E0E518C3958224F910AF08858398
:101AA300198582188008858319858218D2AFCEF0F4
:101AB300A3E520F0A37808E608F0A3DEFAEFF0A38D
:101AC300E58124FBF8E608F0A3E608F0A30808E69E
:101AD30008F0A3E608F0A315811581D0E0FED0E05D
:101AE300F815811581E8C0E0EEC0E02285198385F1
:101AF3001882E0A3FEE0A3F5207808E0A3F608DF50
:101B0300FAE0A3FFE0A3C0E0E0A3C0E0E0A3C0E0ED
:101B1300E0A3C0E0E0A3C0E010AF0885821885838E
:101B2300198008858218858319D2AFD083D08202A9
:101B33000122851983851882E0A3FEE0A3F52078AE
:101B430008E0A3F608DFFAE0A3FFE0A3C0E0E0A308
:101B5300C0E0E0A3C0E0E0A3C0E010AF08858218B6
:101B63008583198008858218858319D2AFD083D0E5
:101B73008222C0D02518C582C0E0E51934FFC58391
:101B8300C0E0E518C3958224F310AF088583198557
:101B930082188008858319858218D2AFC8F0A3E91B
:101BA300F0A3EAF0A3EBF0A37908E709F0A3D8FACE
:101BB300ECF0A3EDF0A3EEF0A3EFF0A3D0E0F0A3DD
:101BC300D0E0F0A3D0E0F0A3E520F0A3E5F0F0A38C
:101BD30022851983851882E0C0E0A3E0F9A3E0FA27
:101BE300A3E0FBA37808E0F608A3DFFAE0FCA3E098
:101BF300FDA3E0FEA3E0FFA3E0C0E0A3E0C0E0A3F9
:101C0300E0F5D0A3E0F520A3E0A3F5F010AF08853D
:101C130083198582188008858319858218D2AFD0ED
:101C230082D083D0E0F8D0E032740480067402805E
:101C3300027401C0E0F4041219F6D0E01218CC22A9
:101C43007404800474028000CCC0E0EDC0E0E518A9
:101C5300C39CCCAD1950011D10AF068C188D198093
:101C6300068C188D19D2AF1218D9D0E0FDD0E0FC44
:101C730022D083D082E9C0E0E493A3C386F0C5F009
:101C830095F0F908E493A386F0C5F095F0700BE4A2
:101C930093A3C3994005E9048002A3E475F002A469
:101CA3002582F582E5F03583F583D0E0F9E493A34B
:101CB300C0E0E493C0E022D083D082ECC0E0EDC06A
:101CC300E0E493A3FCE493A3FDED4C600D121D0629
:101CD300EC24FFFCED34FFFD80EFE493A3FCE493DD
:101CE300A3FDED4C600D121D45EC24FFFCED34FF0C
:101CF300FD80EFD0E0FDD0E0FCE493A3C0E0E493EB
:101D0300C0E022C0E0C3E4939608740193961840A0
:101D13000FE49366700808740193661870007019D5
:101D2300A3A3C3E49396087401939618A3A3400D49
:101D3300D0E0D0E0D0E0021CF6A3A3A3A3A3A3D0DA
:101D4300E022C0E0C0F088F0E493667008087401F4
:101D53009366187000A8F0A3A3700BD0F0D0E0D066
:101D6300E0D0E0021CF6A3A3D0F0D0E02274F51279
:101D73001A89EAFEEBFFEE2434F8EF3400F9880801
:101D83008909EE2435F582EF3400F583E0F8EE247B
:101D930037F582EF3400F583E0F50AEC850AF0A409
:101DA300FCAAF0850AF0EDA42AFDE82CF8E43DF93D
:101DB3007A257B0012193BEA850882850983F0F8AE
:101DC300740758F97401B900028004C333D9FCFACB
:101DD300E8131313541FF8EE28F8EF3400F9E8243E
:101DE3005DF582E93400F583E05A6008EE2434F5AA
:101DF30082EF802CEE2434F582EF3400F583E0C0CB
:101E0300E0EE2436F582EF3400F583E0F5F0D0E020
:101E130084A8F0EE28F8EF3400F9E82438F582E9D5
:101E23003400F583E0F97F04021B3574F5121A8937
:101E3300EAFEEBFFEE2434F582EF3400F583E0C0D5
:101E4300E0EE2435F582EF3400F583D0E0F08E82A6
:101E53008F83A3A3A3A3A3A3A3C082C0838E828FD4
:101E630083A3A3A3A3A3E0F8A3E0F9D083D082E0E4
:101E7300C398F508A3E099F509EE247FF582EF34C2
:101E830000F583E064017069EE2480F582EF34008D
:101E9300F583E0F8A3E0F98E828F83A3A3A3A3A322
:101EA300A3A3E0FCA3E0FD8E828F83A3A3A3A3A33C
:101EB300E0FAA3E0FBC3EA9CEB9D5010C3EC98ED62
:101EC30099402EC3EA98EB995027800EC3EA98EB0A
:101ED300994007C3EC98ED9940177CDC7D04EEFA3A
:101EE300EFFB120C6CEE247FF582EF3400F583E4F4
:101EF300F0EE2434F8EF3400F9E8FCE9FDEE243584
:101F0300F582EF3400F583E0F8EE2437F582EF3401
:101F130000F583E0F50AE508850AF0A4F508AAF0C0
:101F2300850AF0E509A42AF509E82508F8E4350946
:101F3300F97A257B0012193BEA8C828D83F0F874C1
:101F43000758F97401B900028004C333D9FCFAE8D5
:101F5300131313541FF8EE28F8EF3400F9E8245D47
:101F6300F582E93400F583E05A6008EE2434F58203
:101F7300EF802CEE2434F582EF3400F583E0C0E0EB
:101F8300EE2436F582EF3400F583E0F5F0D0E084FB
:101F9300A8F0EE28F8EF3400F9E82438F582E934A4
:101FA30000F583E0F9122885021E29C082C08385CB
:101FB3001882851983E0F8A3E0F9C3EA9CEB9D50EE
:101FC30010C3EC98ED99401BC3EA98EB9950148029
:101FD3000EC3EA98EB994007C3EC98ED9940047956
:101FE3000180027900D083D08222EAC39CFAEB9D60
:101FF300FB2274EF121A899003A2E064086005E0E3
:102003006407702A9061C8E060249003D0E0F46014
:102013001DE0F875F003A4C8AAF02AF974D228FECB
:10202300740339FF8E828F83A3A3A3E0700302217D
:1020330025906060E0C0E0EE2468F582EF3400F59F
:1020430083D0E0F0750C45750D0575080075090022
:10205300E5D914F50AE5D95403F50E601774036541
:102063000E605CE50A6010EE2467F582EF3400F53C
:1020730083E0700302210A900540E06401602AEEC8
:102083002482F582EF3400F583E060047804800253
:102093007800850A08E508C398FA95E0FB120B3A25
:1020A3008A088B09EA45097005120E5E8074EE24D6
:1020B30082F582EF3400F583E070048A0C8B0DE522
:1020C3000A6012850C82850D83F50BE5D9F0A31503
:1020D3000BE50B70F6EE2482F582EF3400F583E016
:1020E300604474FC250AF50A780C121C30AC0AA96A
:1020F3000EEEFAEFFB120D0874021219DCE97026DA
:10210300AA08AB09121440793D8E828F83A3A3A33F
:10211300A3E0FA7B00120A0EEEFAEFFB120C841214
:102123000D1A790080747403650E6056850A107564
:1021330011007810121C30AC0CAD0DAA08AB0912BB
:102143000CE474021219DCEE2468F582EF3400F516
:1021530083E064807004747F8001E0F50C780C12D6
:102163001C34E50EF50C780C121C34A90AAC08AD2E
:10217300099003D0E0FA7B001209D274021219DC31
:1021830080139003A2E06408600BAC0CAD0DEEFA73
:10219300EFFB120D74120E6A79017F0A021B35746C
:1021A300F5121A8974FC1219C6EAFEEBFF8908A21C
:1021B300AFE433F509C2AF806AEE2463F8EF34006D
:1021C300F97A007B00A2AFE433F50AC2AF888289B3
:1021D30083E0FCA3E0FDEC4D603A88828983E0FA5A
:1021E300A3E0FB8A828B83E0FCA3E0FD88828983E2
:1021F300ECF0A3EDF08A828B83E4F0A3F08882896C
:1022030083E0FCA3E0FDEC4D700A88828983A3A3DD
:10221300E4F0A3F0E50AA2E092AF1214409004E3C5
:10222300E004F0EE2463F582EF3400F583E0F8A3D5
:10223300E0F9E849603DEE2463F582EF3400F5836D
:10224300E02402FAA3E03400FBEA2402F50AEB34AB
:1022530000F50B780A121C308A828B83E0FCA3E022
:10226300F9EEFAEFFB120CA874021219DCE9700301
:102273000221BC9004E3E060639004E4E0F890047E
:10228300E3E0C398500C7402650870509004E5E0D5
:10229300604A8E828F83A3A3A3A3E0851882851946
:1022A30083F0A3E4F09004E3E0F87402121A11E857
:1022B300F0A3E4F09004E3E0F89004E2E028F07483
:1022C30002121A11AC82AD83851882851983AA8202
:1022D300AB8379011209DE9004E3E4F0E509A2E09F
:1022E30092AF74041219DC021E29000000852187B5
:1022F3008522C622C0E0C0D0E8C0E0E9C0E0EAC061
:10230300E0EBC0E0ECC0E0EDC0E0EEC0E0C008C030
:1023130009C00AC00BC082C083C0F0A2AFE433FE81
:10232300C2AF759B00906182E0A2E05012E591A2DA
:10233300E0500C7591FE740165217003121FF5E0E6
:10234300A2E55051E591A2E5504B7591DF9003A2B0
:10235300E064076005E0640870237401652170354B
:1023630079019003D0E0FA75F003A4CAA8F028FB22
:1023730074D22AFA74033BFB1221A28018E0640D85
:1023830070139003C4E004F064287002E4F07A0050
:10239300E0F9120E70906182E0A2E6400302243E4F
:1023A300E591A2E6400302243E7591BF9003A2E0AB
:1023B30064057008120D9E120DAA8003120DA475F8
:1023C3002100120DFEE99003A3F07900120DF21221
:1023D3000BE27A017B009003A1E0F91210C290781E
:1023E30003E064427055900544E014F0704DC2AFB1
:1023F3001223F600782AD0E0F618D0E0F6E59F54D1
:102403000770057509FF800375097FC4C0E078294B
:10241300E6F50808E65509F509740B78081219A4BE
:10242300D0E02508F8906270E0A2E740F8E8C333F3
:10243300906272F0906270E0D2E0F0906181E0A26D
:10244300E35009E5E9A2E3500375E9F7A3E0A2E746
:102453005009E591A2E7500375917FEEA2E092AF98
:10246300D0F0D083D082D00BD00AD009D008D0E0EE
:10247300FED0E0FDD0E0FCD0E0FBD0E0FAD0E0F904
:10248300D0E0F8D0D0D0E032C0E0C0D0C082C0836A
:10249300906183E0A2E05009E5BFA2E0500375BF5D
:1024A300FEE0A2E15009E5BFA2E1500375BFFDE0E4
:1024B300A2E25009E5BFA2E2500375BFFBE0A2E32D
:1024C3005009E5BFA2E3500375BFF7E0A2E450094A
:1024D300E5BFA2E4500375BFEFE0A2E55009E5BFF5
:1024E300A2E5500375BFDFE0A2E65009E5BFA2E60F
:1024F300500375BFBFD083D0828088C0E0C0D0E8CE
:10250300C0E0E9C0E0EAC0E0EBC0E0ECC0E0EDC051
:10251300E0C0F0E5A7A2E6500FE5A1A2E6500953FB
:10252300A7BF75A1BF122563E5A7A2E5500CE5A1DE
:10253300A2E5500653A7DF75A1DFE5A7A2E1500985
:10254300E5A1A2E1500375A1FDE5A7A2E2500CE5C8
:10255300A1A2E2500653A7FB75A1FBD0F00224749D
:1025630074F8121A897521019003A2E064067015AC
:10257300120D388A828B83A3A3A3A3A3A3E0FAA398
:10258300E0FB120D8CA2AFE433FED2AF9003A8E0C0
:10259300640170187A207B009003A1E0F912114CBA
:1025A3007A207B009003A1E0F91210C8906182E0C9
:1025B300D2E6F0900541E0602185C62280169003A3
:1025C300A7E064017008E5C654F84405F5C653BE98
:1025D300FC1222F07401652160E4EEA2E092AF7F69
:1025E30001021B35008E238F24858228858327854E
:1025F3001882851983E0CEA3E0CF852882852783BF
:10260300EBC9EAC8EDCBECCA75F010C3E833C8E9EF
:1026130033C9EA33CAEB33CBC3EA9EF526EB9FF506
:1026230025B35004AB25AA26EC33CCED33CDD5F03E
:10263300DAAE23AF242274ED121A898A088B098C2F
:102643000A8D0B7413121A11780C121896780879E4
:102653000C1215757510017511C8751200751300EC
:1026630050127808790C121822781079081215750F
:1026730050168010780C79081218227810790C12F1
:10268300157540047901800279007F0C021B3574B3
:10269300ED121A898A088B098C0A8D0B7413121A8E
:1026A30011780C121896780C790812157540117868
:1026B30008790C121822AA08AB09AC0AAD0B8022C8
:1026C3007510007511007512007513017810790CDF
:1026D300121822781079081217E9AA10AB11AC125C
:1026E300AD1380A68A828B837508FF7509FF750A6F
:1026F300FF750B0078081218707F04021B3574F500
:10270300121A898C828D8378081218968A828B8399
:102713007808121836EA2404F8EB3400F98C828D19
:1027230083A3A3A3A3E0FCA3E0FD88828983C3E082
:102733009CF0A3E09DF088828983C3E09420A3E00A
:10274300944E40268A828B837508FF7509FF750AAC
:10275300FF750BFF780812180F8A828B83A3A3A33C
:10276300A3E02420F0A3E0344EF00226E774F51230
:102773001A89E9FE9004F7E0FAA3E0FBEEC333F80D
:10278300E433F9743228F582748139F583E02AF54C
:1027930008A3E03BF5097808121C307A407B427CA1
:1027A3000F7D001225E874021219DC8A088B098C4C
:1027B3000A8D0B741078081217B1AA08AB097F04AD
:1027C300021B3574F1121A898A0C8B0D8C0E8D0F36
:1027D300740F121A11E0FAA3E0FB7411121A11E03C
:1027E300F508A3E0F5097808121C30EA2401F5087E
:1027F300EB3400F509E4F50AF50B780C79081216A9
:10280300AD750871750902780C79081216ADAA0C1A
:10281300AB0DAC0EAD0F1225E874021219DC8B0957
:10282300EA450960047A0180027A00EC2AFCED345F
:1028330000FD7413121A11E0F8A3E0F9E8FEE9FFB2
:10284300ECF8EDF97A717B0212193B880889098E3D
:10285300828F8378081218A5ECF8EDF97A717B0260
:1028630012193B8A088B09740578081219B38E82F2
:102873008F83A3A3A3A3E508F0A3E509F07F0802D0
:102883001B35C082C083E9906000F0D083D08222E0
:10289300C2AF02000022C0E074F2121B75A2AFE4C3
:1028A30033FED2AFC2C0E5D1A2E4500653D1EF123A
:1028B300141CEEA2E092AF7F01021BD4C0E074F2BD
:1028C300121B75A2AFE433FED2AFE589A2E1500338
:1028D300121380758900C2C5EEA2E092AF7F010298
:1028E3001BD4C0E074F2121B75A2AFE433FED2AF67
:1028F300E58BA2E05003121380758B00C2E880D8E9
:10290300C0E0C0D0E8C0E0E9C0E0E5A8D2AFC2C7EC
:10291300A2E7A2E792AFD0E0F9D0E0F8D0D0D0E0C0
:1029230032C0E0C0D0E8C0E0E9C0E0C008C009C0E0
:1029330082C083A2AFE433F9D2AF9008C4E0F8A316
:10294300E0687008539AFBA374018026C2E99008DB
:10295300C4E0F50874012508F074C02508F58274F5
:10296300083400F583E0F5C19008C4E0C394044043
:1029730002E4F0E9A2E092AFD083D082D009D0087C
:0B298300D0E0F9D0E0F8D0D0D0E03276
:10299000FFFFFFFFFFFFFFFFC082C08390075FE0E4
:1029A000F8E94A6890075D603C7403F07410697040
:1029B00013EAC333FCE433FD74682CF58274073DDD
:1029C000F5838015E9702074016A70059009828092
:1029D0000874026A70119009841242BE900762EC7A
:1029E000F0A3ED8001E4F08002A3F0D083D0820256
:1029F000012274F0121A1D74FE1219C68A088B097E
:102A00007E007F00EEF8EFF97A027B00121933E8BE
:102A1000C333F50EE933F50F7468250EF50C740712
:102A2000350FF50D850C82F583A385820A85830B0E
:102A3000851882851983AC82AD837A02EE248DF9E4
:102A40001214B8E9601B74C3250EF5827481350F2A
:102A5000F583124044850C82850D83E8F0A3E9805C
:102A60001A851882851983E0850A82850B83F074A4
:102A700001121A11E0850C82850D83F0E5082EF80D
:102A8000E509123716EE2402FEEF3400FFC3EE9480
:102A900008EF12394D5003022A047402022FF27417
:102AA000F7121A1D74FE1219C6EAFEEBFF85188292
:102AB000851983AC82AD837A0279951214B8E960E6
:102AC00045900770E0600C1460142481601B146052
:102AD0001F802890098274BDF0A37404803C900983
:102AE000827403F0A37405803190098274E080053C
:102AF00090098274F5F0A37401801F90098274FF1D
:102B0000F0A3743F8014851882851983E0F974015D
:102B1000121A11E0900982F0A3E912370C7997128A
:102B200014B8E96041900770E0600C1460102481D3
:102B3000601714601F802790098474C6800590096F
:102B4000847465F0A3740280319009847416F0A334
:102B50007401802690098474F5F0A3E4801C900928
:102B600084E4F0A38014851882851983E0F9740148
:102B7000121A11E0900984F0A3E9F0900983123849
:102B800045900982122C40900985122C45900984A9
:102B9000122C4F7402023B8D74F7121A1D74FC1232
:102BA00019C6EAFEEBFF851882851983AC82AD83D6
:102BB0007A0479891214B8E9602D9007707401F0D5
:102BC00090097BC3E09458A3E09402500E900764F0
:102BD000E0640170069007707481F09007717402D0
:102BE000F0A3E4F0A38028851882851983E090077C
:102BF00071F07401121A11E0900770F07402121A49
:102C000011E0F97403121A11E0900772F0A3E9F0D1
:102C1000900770E0547F900FF97004741480027470
:102C20000FF0A3E4F0900771123845900770122C52
:102C300040900773122C45900772122C4F023B8B69
:102C4000123073F022122C4922123077A3F0221294
:102C50002C5322123077A3A3F02274E8121A1DEA33
:102C6000FEEBFF8C0A8D0B7418121A1178101218D3
:102C7000968E168F178E088F09EE4F702F7A057B70
:102C8000001211048A088B09AE08AF098E828F8367
:102C9000A3A3A3A3E4F08E828F83A3A3E50AF0A3EA
:102CA000E50BF08E828F83E4F0A3804EEA2404F5D6
:102CB00014EB3400F51590821478101217FC85146B
:102CC00082851583E0F50CE4F50DF50EF50F78100F
:102CD000790C121575502A800488088909850882A4
:102CE000850983123DE470F17A057B00121104120C
:102CF0002D38851482851583E004F0803288088998
:102D000009850882850983123DE470F17A057B000C
:102D1000121104122D388E828F83E0FEA3E0FF850E
:102D200014828515831243C5AA16AB1712110AEE39
:102D3000FAEFFB7F10021AEF8A0C8B0DA80CA90D7D
:102D400088828983A3A3E50AF0A3E50BF088828932
:102D500083E4F0A3F0850882850983E8F0A3E9F015
:102D600022C082C083123A708A828B83F0900FF760
:102D7000E08A828B830229E974F4121A1D74FC1212
:102D800019C68908900779E065087003022E468508
:102D90001882851983AA82AB831211E890097DE01D
:102DA000F50A75F005A4F8A9F0748628FE740939AF
:102DB000FFE0C394C950198E828F83123B7712189B
:102DC000B48E828F83A31218C090097DE004806BBB
:102DD00078007900E8FAE9FBEA75F005A4FAACF0AE
:102DE00075F005EBA42CFB74862AFC74093BFD8C62
:102DF000828D83A3A3A3A3A374051218D9E8240189
:102E000008E93400F9E50A24FFFAE434FFFBC3E8DB
:102E10009AE99BA2D265D03340BAEE24FBF582EF4B
:102E200034FFF583123B771218B4EE24FCF582EFE1
:102E300034FFF5831218C090097DE4F0E50890078F
:102E400079F079018002790074041219DC0241A33F
:102E5000C082C083900760C3E09489A3E09413907C
:102E600007604005E4F0A38003123DA30229EA7441
:102E7000F7121A1D8908740F5508F874F055086088
:102E80000A24F0603424F06067806F90097EE0705F
:102E90006990097FE0640260617401F07EF4FFE8EC
:102EA000601214600514600680507A0180027A0274
:102EB00079008037121206804190097EE0703B90C5
:102EC000097FE064026033E4F07EF47F01E8600B88
:102ED00014600C14600D14600E801F7A00800A7A52
:102EE0000180067A0280027A037910121182800A28
:102EF0009009807401F07E007F00E50890075FF084
:102F0000EEFAEFFB023B9074F0121A1DEAFEEBFFA3
:102F1000908208121C4390077E1240447583077507
:102F20008266E0C398FCA3E099FD90077A123DDB2E
:102F300012119A74041219DC90077AEAF0A3EBF0EC
:102F40007C007D0090077A1240448007E02CFCA3AF
:102F5000E03DFD88828983E5822402F8E583340020
:102F6000F9E8FAE9FB123DE48A828B8370DEE02CFB
:102F7000F508A3E03DF509900764780C12189690C7
:102F8000077C780C121560600C9007647C7C7D07D0
:102F900074041218D9900764780C12189690078060
:102FA000780C121560603A900784124044C3EE9882
:102FB000EF99502D9007647C807D0774041218D916
:102FC000900784F0A3F07A04FB1211048A0A8B0B99
:102FD000AE0AAF0B123050121536EEFAEFFB12119B
:102FE0000A900784124055AA08AB0980081214B24F
:102FF00074041219DC7F08021AEF74F7121A1DEC20
:10300000FEEDFFEAC39EFAEB9FFB121236E9F508CC
:1030100090076AE0C39EFAA3E09FFB121236E965AF
:10302000087004790280027901023B9074F6121A4A
:103030001D7A047B001211048A088B09AE08AF09BF
:10304000123050121536EEFAEFFB12110A0238CB8D
:1030500090076412384AF0900765123073F09007B9
:1030600067122C49900766122C53EEFCEFFD7A0490
:103070007905221230772212384AA32274F6121AE6
:103080001D7A087B001211048A088B09AE08AF096B
:10309000121188EEFCEFFD7A087901121536EEFA6E
:1030A000EFFB12110A7A057B001211048A088B09C2
:1030B000AE08AF097C737D0D7A01799B1214B8E9D3
:1030C0006005900D73E4F0900D73123845EEFCEF3F
:1030D000FD7A057906121536EEFAEFFB12110A7A1F
:1030E000047B001211048A088B09AE08AF09121183
:1030F00094EEFCEFFD7A047900121536EEFAEFFB40
:1031000012110A7A047B001211048A088B09AE0896
:10311000AF0912118EEEFCEFFD7A04790312153619
:10312000EEFAEFFB12110A7A027B001211048A08F0
:103130008B09AE08AF091211A0EEFCEFFD7A0279FF
:1031400002121536EEFAEFFB12110A7A057B001215
:1031500011048A088B09AE08AF09121242EEFCEF87
:10316000FD7A05790F121536EEFAEFFB12110A758A
:10317000C90043C9080238CB74EA121A1D891075B8
:103180000A00750B007C007D0079008911E5106054
:10319000351460142481601B1470407512F575138A
:1031A000017514F5891580177512037513057514CB
:1031B00065801C7512E07513017514167515019064
:1031C0000786740280117512BD7513047514C675D7
:1031D00015029007867404F0A3E4F0900981E0F5ED
:1031E000088909740378081219B385080E85090F38
:1031F00074F7250EF50C740E350FF50D74E7250EDA
:10320000F50E740E350FF50FEAC333F508EB33F501
:1032100009C3EA940112394C5003023350900762FB
:10322000E0F514A3E0F515E512C39514F514E513C4
:103230009515F515C3E5149414E51594005030095F
:10324000900762E0C39512F50AA3E09513F50BE52C
:103250000A2414F50AE50B3400123515E512940121
:10326000E51312394D4006AC12AD138002891112DC
:1032700035C0EA9512EB9513A2D265D03350030204
:1032800034FCE50C2402F512E50D3400F513E50ECF
:103290002402F582E50F3400F583E9A2E04049E518
:1032A00010700302344B14601B24816038146003D7
:1032B00002350012353C121933123DD01219331267
:1032C00035098017EAF8EBF9123DDB121933880A49
:1032D000890BE508250AF8E509350BF98512828581
:1032E000138302346F02342912355470030234B947
:1032F00014602324816056146003023500123524C3
:10330000121933123DD0121933880A890BEC250AA1
:10331000FAED350B8017ECF8EDF9123DDB1219339D
:10332000880E890FE50A250EFAE50B350FFB85128D
:10333000828513831242B6850CF0A4F8ACF0850C9C
:10334000F0E9A42CF9EA28F8EB390234F1023489C7
:1033500012394B40030234FC900762E0C39514F528
:1033600012A3E09515F513C3E5129414E513940028
:10337000501B09E51224ECF50AE51334FF1235154C
:1033800012394D5006AC12AD13800289111235C0AE
:10339000E49512F512E49513F513C3E5129AE513BB
:1033A0009BA2D265D03350030234FCE50E2406F50F
:1033B00082E50F3400F583E50E2404F50EE50F34A5
:1033C00000F50FE9A2E05003023478E50C2406F87A
:1033D000E50D3400F9880A890BE50C2404F8E50DA5
:1033E0003400F9880C890DE510606014601B24819D
:1033F000603714600302350012353C121933123D58
:10340000D01219331235098017EAF8EBF9123DDBB7
:10341000121933880C890DE508250CF8E509350DDE
:10342000F9850A82850B83804612353C121933E8F0
:10343000FCE9FDECC333FCED33FD850E82850F8383
:10344000123DDB121933123509801DEAF8EBF985BC
:103450000E82850F83123DDB121933880A890BE532
:1034600008250AF8E509350BF9850C82850D83E0FE
:1034700028FEA3E0390234F9123554603C14603F51
:10348000248160051470798006850E82850F83E0A3
:10349000FEA3E0FF123524121933E8FCE9FDECC36A
:1034A00033FCED33FDEEFAEFFB121933880A890B7A
:1034B000EC250AF8ED350B8023850E82850F83E01D
:1034C000FEA3E0FFECF8EDF9EEFAEFFB12193388FA
:1034D0000E890FE50A250EF8E50B350FF9EE850C80
:1034E000F0A4FEAAF0850CF0EFA42AFFE82EF8E97C
:1034F0003FF9E82508FEE93509FF80047E007F00DA
:10350000EEFAEFFB7F0E021AEF88088909EC250816
:10351000F8ED350922F50BEAC3950AF512EB950B88
:10352000F513C322EC75F07FA4FCA8F075F07FEDD5
:10353000A428FDECF8EDF97A327B0022EA75F07FE1
:10354000A4FAA8F075F07FEBA428FBEAF8EBF97A6F
:10355000327B0022E511A2E0B3E433F50CE50A9AD0
:10356000F8E50B9BF9851108E88508F0A4F885F0CB
:10357000118508F0E9A42511F9EAC3950AFAEB953B
:103580000BFBEA850CF0A4FA85F008850CF0EBA49F
:103590002508FBE82AF508E93BF509E50875F0037D
:1035A000A4F508A8F075F003E509A428F5098C0A2C
:1035B0008D0BE50AC333F50AE50B33F50BE5102255
:1035C000900786E0F512A3E0F513C32274F7121AF0
:1035D0001D74F61219C6E9FEEAC333FAEB33FB7425
:1035E000682AF874073BF988828983ECF0A3ED120E
:1035F0003B79F088828983E0C0E07401121A11D00F
:10360000E012370CEEF91214B27A007B00EAF8EB04
:10361000F9E8C333F8E933F97402121A11E5822884
:10362000FCE58339FD746828F8740739F9888289C4
:1036300083A3E08C828D83F088828983E08C828DE5
:1036400083A31238D0940412394C40C17402121A68
:1036500011AC82AD837A08790112153612121274F8
:103660000A023B8D74F0121A1D74F61219C68A08EC
:103670008B09750E00750F00E50EC333FEE50F33A1
:10368000FF74682EF50C74073FF50D850C82F583E9
:10369000A385820A85830BE5082EF582E5093FF5AF
:1036A00083123DE46028850C82850D83123B85855D
:1036B000188285198312372DC0E07401121A11D0B7
:1036C000E012370CE50EC333248DF91214B27402E4
:1036D000121A11E5822EF8E583123716E50E240141
:1036E000F50EE50F3400F50FC3E50E9404E50F1257
:1036F000394D40847402121A11AC82AD837A087974
:1037000001121536121212740A022FF2123B7DAC0E
:1037100082AD837A02223FF9850A82850B83E08895
:1037200082898312372D88828983A3F022F0850C49
:1037300082850D83E02274EC121A1D8A0C7510002C
:103740007511007512007513007A00850C088B093D
:103750008C0A8D0BEA33333354F878081217B19082
:10376000820C780812185D7403C39A33333354F80B
:1037700078081217CA781079081218830AEAC394D5
:103780000440C8AA10AB11AC12AD137F0C021AEFA3
:1037900074F7121A1D74FC1219C6EAFEEBFF121020
:1037A000EC1210F21211E28518828519831218C0EA
:1037B000851882851983EEFCEFFDECFAEDFB7404AD
:1037C0001218D9023B8B74F4121A1D7A057B001271
:1037D00011048A088B09AE08AF09740C121A111271
:1037E000384578017900C3E498FAE499FB740C1227
:1037F0001A11E5822AF582E5833BF583A3A3A3A3EF
:10380000A3E0C0E0123942D0E01239DC40D8EEFC2F
:10381000EFFD7A057906121536EEFAEFFB12110A62
:10382000740C121A11E06018740D121A1178081233
:103830001896E5084509450A450B70047901800290
:1038400079000241A312384AF022E08E828F83224F
:1038500074F6121A1D900980E060707A107B0012D5
:1038600011048A088B09AE08AF09900788E075F04B
:103870000FA4F8A9F0748628F8740939F9123845AC
:10388000900788E004F07A007B00E82AF582E93BA3
:10389000F583E0C0E0EE2AF582EF3BF583A3D0E0AC
:1038A0001238D0940F12394C40E0EEFCEFFD7A1044
:1038B0007908121536EEFAEFFB12110A900788E02C
:1038C000C394434006E4F0900980F07F02021AEFAF
:1038D000F0EA24010AEB3400FBC3EA2274F6121A60
:1038E0001D74FC1219C6851882851983AA82AB83C0
:1038F0001211E87A047B001211048A088B09AE08C1
:10390000AF0978007900851882851983E58228F54A
:1039100082E58339F583E0C0E0123942D0E0123904
:10392000EE9404E912394D40DDEEFCEFFD7A0479A6
:1039300007121536EEFAEFFB12110A74041219DCA5
:103940008089EE28F582EF39F58322C3EB1239E640
:103950002274F0121A1D74FC1219C6EAFEEBFF8ED7
:10396000828F83E0900D73F01210EC7801790012D1
:103970003942E0C0E0851882851983E58228FAE59E
:103980008339FBEA24FFF582EB34FFF583D0E012A4
:1039900039DC40DB8518828519831218B41211E2D4
:1039A0008A088B098C0A8D0B1210F28A0C8B0D8CF5
:1039B0000E8D0F7808790C1217E9900D787808129F
:1039C00018A58518828519831218B4900D741218E1
:1039D000C07C737D0D7A01799B022FED1239EE9434
:1039E00005E91239E6229400A2D265D03322F0E82C
:1039F000240108E93400F9C3E822C082C083900999
:103A00007FE4F090075DF090075FF0900979F00295
:103A100029E9C082C0838A828B83A3E0F87481681D
:103A2000600D74016860087480686003E8700BEAD8
:103A3000FCEBFD7A0479891214B21211CA0229EB47
:103A4000C082C08374FE1219C6123A70851882852E
:103A50001983F0900FF7E0C0E07401121A11D0E062
:103A600012370C790212153674021219DC0229EB96
:103A7000900768124048A3E028F8A3E039C313F97F
:103A8000E813900FF7F0A3E9F02274F7121A1D74EF
:103A9000F81219C6EAFCEBFD8C828D83E0C0E0745D
:103AA00001121A11D0E0F08C828D83A3E085188278
:103AB000851983F0EC2402FEED3400FF8E828F83A3
:103AC000E0C0E07403121A11D0E0F08C828D83A361
:103AD000A3A3E0C0E07402121A11D0E0123B7912E5
:103AE0003DE4900982600C123B857A0279951214AC
:103AF000B2800C124044851882851983123B85746C
:103B000002121A11123DE49009846010123B85EEF6
:103B1000FCEFFD7A0279971214B2800B12404474C4
:103B200002121A11123B857401121A11E0C0E074DE
:103B300004121A11D0E01243C0C0E07405121A1129
:103B4000D0E0F07403121A11E0C0E07406121A11EA
:103B5000D0E0F07402121A11E0C0E07407121A11DA
:103B6000D0E0F07404121A11AC82AD837A047903A8
:103B700012153674088016E508123B7D22F0851870
:103B80008285198322E8F0A3E9F02274041219DC7B
:103B90007F01021AEF74F0121A1D900764E06401AD
:103BA0007067900766123DC7900789123DBAE068BA
:103BB0007003A3E0696046E8496046900778E060DA
:103BC0004090097BE0C398F508A3E099F509339587
:103BD000E0F50AF50B78081215B4E50BC2E7F50B12
:103BE000908210780C1218967808790C12165E5094
:103BF00010900789123DC7900778E48026E8497045
:103C0000231240419007898016E064066005900900
:103C100082800990097F7402F0900789123DBAE80A
:103C2000F0A3E9F090075DE0703F90075EE0640369
:103C30007027C390097A123D9E5003023D7A900985
:103C400079C3E09401A3123D9E4003023D4F75806D
:103C50000053FD0F90075E800CE07003023D9B75E2
:103C6000800053FD0FE4023D9AF890075EE0687013
:103C700003023D1690075DE014600914601714609C
:103C800026023D0C90097BC082123DB0D0821245C5
:103C9000525079802D900984123DDB124041C3EAD5
:103CA00098EB9950678035900982C0829007621224
:103CB0004044758309D082124552500F90098212F8
:103CC0004044900762E8F0A3E98018900984123D0F
:103CD000DB900762C3E09AA3E09B5008900762EA7A
:103CE000F0A3EBF0900770E0F9900762C0829009B2
:103CF0007B123DDB758307D082E0C39AFAA3E09B79
:103D0000FB1211D0900979EAF0A3EBF090075DE087
:103D100090075E023D9A900979123DE47016758015
:103D20000053FD0F90075DE4F090075FF090097F6E
:103D30007402806690075DE014600514602A805B61
:103D400090097BC082123DB0D082124552503F9004
:103D5000097EE0700643FDF0758040900979E0240B
:103D6000FFF0A3E034FF8032900984C0821240410A
:103D7000758309D082124552501490097EE0700676
:103D800043FDF0758080900979123DA3800C758009
:103D90000053FD0F900979E4F0A3F0022FF5E01233
:103DA00039E622123DA722E02401F0A3E0340022EC
:103DB00090098212404875830922123DBE22E0F824
:103DC000A3E0F990097B22123DBEE8F0A3E9F022BE
:103DD000E8FCE9FDECC333FCED33FDE0FAA3E0FBC6
:103DE00022900766124048E84922C082C083E590CD
:103DF000540F90078BF090097FE06401700302403C
:103E00003E90078BE0640F90097F702BE4F09007E1
:103E10005DF090078C740FF090078DE4F090075ED2
:103E2000E06403700990097EE0700302403E7580F3
:103E30000053FD0F02403E7402F090097EE06003E3
:103E400002403E90078CE0F890078BE06870030218
:103E50003FDB90075EE064037003023FC390078B73
:103E6000E024FD7003023F4324FE605024FE6030D6
:103E700024FE7003023F6F24FE7003023F0824FEFD
:103E80006009147003023FB2023FD2900764E064FD
:103E9000067005123DE1701590075D7401023FD177
:103EA000900764E06406700C123DE1600790075DC6
:103EB000E4023FD190075D7402023FD1900764E0B5
:103EC0006406601E900768E0F47003A3E0F47003DA
:103ED000023FD290075D7403F090076812404402DD
:103EE0003F8A123DE16003023FD21242BB798D7AD4
:103EF000007B001211D690097EE06003023FD2439E
:103F0000FDF07580C0023FD2900764E06406600D4A
:103F100090076A12404E706A74FF698065123DE135
:103F20006003023FD21242BB798F7A017B001211EB
:103F3000D690097EE06003023FD243FDF0758020F9
:103F4000023FD2900764E06406600590076C802A07
:103F5000123DE1707D1242BB79917A027B00121111
:103F6000D690097EE0706B43FDF07580A080639071
:103F70000764E06406601C90076E12404E70037484
:103F8000FF69604E90075D7403F0900762E8F0A34C
:103F9000E9803E123DE1703A1242BB79937A037B8D
:103FA000001211D690097EE0702843FDF075806004
:103FB000802090075DE4F043FDF075801090077855
:103FC00004800E90075DE4F090075EF0900979F0B0
:103FD000A3F090078BE090078C8062E0640E705E27
:103FE00075800053FD0F90078EC3E09410A3E094FA
:103FF000004022900D7CE090075D70117401F090FC
:104000000D7CF0900765E0F912124880087402F008
:10401000900D7CE4F090078DE0702390078E1240A5
:104020005590078EC3E09419A3E0940040109007C8
:104030005DE4F090078EF0A3F090078D04F0022964
:10404000EB90097B12404822E0F8A3E0F9221240ED
:104050004874FF6822123DA7F02274F4121A1DE979
:10406000FE74046E600302418D900760123DE4709F
:104070000302419C900760C3E0941EA3E0940050AB
:104080000D7C047D007A907B0712142880077A0447
:104090007B0012142E900790E0900798F090079103
:1040A000E0F9900799F0900792E0FA90079AF09063
:1040B0000793E0FB90079BF090821C7808121896FB
:1040C0009007947808121560707290823878081200
:1040D00018969007987808121560604C90079878A9
:1040E000081218967401650870047402650960145A
:1040F0009007987808121896740165087004740186
:104100006509702490824478081218969007987870
:104110000812156060129082307808121896900785
:1041200098780812156070149007987401F0A374C1
:1041300004F0A37401F0A374AAF08060900798784B
:104140000812189674016508700474056509700EEC
:104150009007947C987D0774041218D9800FE99019
:104160000764F0EA900767F0EB900766F090079815
:1041700078081218969007947808121560601D90C0
:1041800007987C947D0774041218D9800FEEC394AD
:104190000540098E08AA087B0012142E900760E4DF
:1041A000F0A3F07F04021AEF74F4121A1DEAFEEB7A
:1041B000FFEEF8EFF9E8C333F8E933F9900770E060
:1041C000600C1460112481601514601A8022750837
:1041D0000775090F801A75081175090F8012750887
:1041E0000775090F800675081175090FE8FEE9FFCC
:1041F000124041758307758262E0C398FAA3E09983
:10420000FB8508828509831242BEC3EC9EED9FA206
:10421000D265D033502E900770E0F91211D08A0A7F
:104220008B0BAC0AAD0BEEF8EFF98508828509839C
:10423000A3A3123DDB121933880A890B85088285F6
:1042400009838047C3E49CF8E49DF9C3EE98EF9995
:10425000A2D265D033505C900770E0F91211D08A79
:104260000A8B0BAC0AAD0BEEF8EFF98508828509D5
:1042700083A3A3A3A3A3A3123DDB121933880A8946
:104280000B850882850983A3A3A3A3A3A3A3A312D9
:1042900042B6850AF0A4C8AAF0850BF0A42AFA85D4
:1042A0000AF0E9A42AF9ECC398F8ED99F990097994
:1042B000123B850241A3124048E82290097BE0FCB2
:1042C000A3E0FD2212394B500479008002790102EB
:1042D000012274F0121A1D8A088B098C0A8D0B12A8
:1042E00010EC1210F28A0C8B0D8C0E8D0F78087961
:1042F0000C12157550117808790C121822AA08AB07
:1043000009AC0AAD0B80087A007B007C007D0002BE
:104310002FF574F7121A1D74FB1219C6EAFEEBFF93
:10432000851882851983AC82AD837A05799C121435
:10433000B8E96026851882851983E4F004121A1101
:104340007403F014121A117484F07403121A1174A5
:1043500007F07404121A117408F07402121A11E0B2
:10436000FA7401121A11E0F9EA900776123B86748A
:1043700004121A11E0FA7403121A11E0F9EA900714
:1043800074F0A3E91243C0900D7EF0900D7CE4F030
:10439000900D7F741EF0A3E4F0A3F0A3F0900D7EC7
:1043A000123845900777122C40900776122C4590D2
:1043B0000775122C4F9007741243C57405023B8D8C
:1043C000123B7DE022123073A3A3A3F02274F012FB
:1043D0001A1D89081210ECE508604874026508701F
:1043E00004740180027402900D7DF06401700590E8
:1043F000077680039007741242B6FCE9FD900D7FAA
:10440000ECF0A3EDF0A3E4F0A3F01210F28A0C8B11
:104410000D8C0E8D0F900D7F780C1217FCA3780C6D
:104420001218A5022FF574F0121A1D74FC1219C689
:104430008A828B83A3A882A983E0F50CEA2402FC7C
:10444000EB3400FD850C088C828D83E0FFE5088548
:104450001882851983F0A3EFF0EA2404FEEB340000
:10446000FFEA2403F508EB3400F509850882F5839B
:10447000E0F50E8E828F83E0F50BE50EF50A7402EF
:10448000121A11E50AF0A3E50B1243C0F50AA3E0E6
:10449000F50BE50A450B6010E50C900777F08C8270
:1044A0008D83E09007768011900777E0888289837A
:1044B000F0900776E08C828D83F07402121A11124C
:1044C0003DE46015850882850983E0900775F08ECC
:1044D000828F83E09007748011900775E0850882D1
:1044E000850983F090077412384AF08A828B83E042
:1044F000F8740F58640F6008747F58900D7E800820
:10450000900D7EE08A828B83F08A828B83E0A2E723
:10451000502A90076812404475830F7582F7124540
:10452000524011900FF712404475830775826A124A
:10453000455250088A828B83E0C2E7F08A828B83DF
:10454000E05480900D7CF01C1CEBFD7A05799C02F8
:104550002FEDC3E098A3E09922C082C083900D7D27
:10456000E0640190075D70087403F09007688006AE
:104570007403F090076A124044900762E8F0A3E9E0
:104580000229EAC082C08390097FE07034900D7DDB
:10459000E0640190075D70107403F090097BE024E3
:1045A000FBF8A3E034FF800E7403F090097BE02455
:1045B00005F8A3E03400F9900762123B8579018089
:1045C0000279000229EBC082C083E9900EA3F002B9
:1045D000485574F7121A1DE99002E1F07C197D0329
:1045E0007AFF7BFF1209249002E274FFF0A3F0A38C
:1045F000E4F0A3F079051208AC9002E1E0F91207AB
:10460000CE7A427B09120AEC7F01021AEF74F4128F
:104610001A1D8A088B09EB548060309002E1E0F9A2
:104620001210AA8A0A8B0BAE0AAF0BEE4F60138EE4
:10463000828F83E064B070031208C4EEFAEFFB12BD
:104640001098AA08E5096480FB80047A007B0002C8
:10465000482474F2121A1D74FC1219C6EAFEEBFF0C
:10466000EE4F60387402121A11EEF0A3EF124A896D
:10467000ECF0A3ED124A89AA82AB831207C8E9F5D0
:104680000870737412121A1112563DE50A450B6038
:10469000658E828F83124700EE4F70057508028089
:1046A000557A067B001211048A0C8B0DA80CA90DFB
:1046B000E8497005750813803D88828983E41247B4
:1046C0000AA3A3EEF0A3EF125AD6E50AF0A3E50B76
:1046D000F09002E71247929002E76017E0FCA3E037
:1046E0008003EAFCEBFD8C828D8312479270F38C81
:1046F000828D83125562A90874041219DC025CD8F9
:10470000A3A3A3A3E0FEA3E0FF22F0A3F088828985
:10471000832274F2121A1D890AE975F017A4FEAFFC
:10472000F09002E6E4F09002E4124792600A12115F
:104730000A9002E4E4F0A3F0EEFAEFFB1211048A0F
:10474000088B09EA4509602FEEFCEFFD7900121095
:10475000869002E4E508F0A3E509F07B00800812EA
:10476000477CE4F0A3F00BEBC3950A40F2E50A9016
:1047700002E6F0790080027913025CD8EB75F0173D
:10478000A4F8A9F09002E4E028FAA3E0398A82F5BF
:1047900083221252F8EA4B2274F4121A1D75080093
:1047A000750900740C121A11125AAAFEE9FF800C46
:1047B000E5082401F508E5093400F509C3E5089C7E
:1047C000E5099D503285080A85090B7403780A12A1
:1047D00019B3EA250AF8EB350BF988828983A3A37C
:1047E000A3A3A3A312563DEE650A7003EF650B70F9
:1047F000BFE8FAE9FB80047A007B00802774F4129A
:104800001A1D7900EAA2E0501B7508D2750981785B
:1048100008121C307C047D007AA57B0E1208A67459
:10482000021219DC7F04021AEFC082C0839002E7F3
:1048300012485C601C88828983A3A3E06A7003A38A
:10484000E06B8882898370E8A3A3A3A31252F4804B
:10485000047A007B00D083D082020122125DABE893
:10486000492274EE121A1D74FC1219C6EAFEEBFFFF
:10487000851882851983E4F0A3F0EE2402125546D0
:10488000EE2405124A77EE2404F50EEF124E5CE09A
:1048900024FE603924FC604624FE605224FE605EE3
:1048A00024FE700302497C24FE70030249F424FEB6
:1048B0007003024A0324FE7003024A1224FC7003B0
:1048C000024A2124FE7003024A30024A6D9003001E
:1048D0007417F0A3E4124A91120546024A6D851836
:1048E00082851983AC82AD831208CA024A3D8518BD
:1048F00082851983AC82AD831208D0024A3D850CB3
:1049000008850D097402121A11AC82AD83850882E4
:104910008509831252F41207EC8A0C8B0DAC0CAD96
:104920000DEC4D6042E4F50CF50D780C121C307561
:104930000C00750D03780C121C30750C01750D03FD
:10494000780C121C307408121A11121C47791612B6
:1049500052EE12090C74081219DCE9F50C700B12F6
:1049600052EA12055E800F750C0185088285098365
:10497000124A7F125562850C08024A407402121ACC
:1049800011AC82AD83850C82850D831252F412071F
:10499000EC8A108B11AC10AD11EC4D6043850C828C
:1049A000850D83A3A3121C477510007511037810A1
:1049B000121C307510017511037810121C30740828
:1049C000121A11121C4779161252EE12090C7408B1
:1049D0001219DCE9F509700B1252EA120564800F16
:1049E000750901850C82850D83124A7F12556285F7
:1049F0000908804C851882851983AC82AD83120822
:104A0000D6803A851882851983AC82AD831208DC82
:104A1000802B851882851983AC82AD831208E280D1
:104A20001C851882851983AC82AD831208E8800D3D
:104A3000851882851983AC82AD831208EEE9F508EA
:104A4000E50860298E828F83A3E06414601F850EC1
:104A500082850F83E0900300124A89125DA79003BC
:104A600001125562E508A3124A91120540EEFAEFD1
:104A7000FB12086A02544EF50CEF3400F50D2212B9
:104A80005DAB85188285198322F08518828519838C
:104A900022F07C007D03850A82850B831252F82266
:104AA00074EE121A1D74FC1219C68A0A8B0B8C0E36
:104AB0008D0FEA2405F508EB3400F5097C157D001F
:104AC00079007A007B03121086E5082402F50CE5D4
:104AD00009124A7A85188285198385821085831187
:104AE0007810121C30850882850983A3A3A3A31222
:104AF0004FA4121C30E5082405F510E5093400F533
:104B0000117810121C30850C82850D831252FE1212
:104B100007E674061219DC8A108B11AE10AF11E58E
:104B20000A2402F50AE50B125549EE4F7003024CB8
:104B30006680177402121A111252F488828983EA6D
:104B4000F0A3EBF0900300E004F0900300E0C394C6
:104B5000054003024C66E4F510F5117810121C3084
:104B60007510E97511027810121C307510EA751174
:104B7000027810121C307406121A11121C47791098
:104B8000EEFCEFFD1252EE12090C74081219DCE96A
:104B9000705E850882850983A3A3A3A3A3A3A3E0D2
:104BA000F89002E9E0687048124FA4121C307CEAC9
:104BB0007D02E5082408FAE5093400FB1210807430
:104BC000021219DCE960298E828F83A3A3A3A312AA
:104BD00052F4900300E0F510740278101219B374C7
:104BE000012510F58274033511F583EAF0A3EBF08B
:104BF0007402121A118582108583117810121C30EC
:104C00007402121A11121C47850C82850D83125DE5
:104C1000BC1207F274041219DC8A108B11AE10AFAB
:104C200011900300E0F5107511007402781012194C
:104C3000B374002510F874033511F988828983A3B1
:104C40001247927003024B2AE82403F8E93400F972
:104C5000EE4F6003024B338882898374FFF0A3F028
:104C6000900300E004F0900300E0600A1252EA12A0
:104C700005527900800B8508828509831255597980
:104C80000A02544E74EA121A1D74FE1219C68C12CE
:104C90008D13EA2405F50CEB125F26124704750804
:104CA00000750900EA2402F510EB3400F5118518AF
:104CB0008285198385820A85830B780A121C3085C8
:104CC0000C82850D83A3A3A3A3124E66121C30E5AC
:104CD0000C2405F50AE50D125549780A121C308599
:104CE0000C82850D83125DBA1207E674061219DC78
:104CF0008A0A8B0BEA450B7003024E17EA2404F56F
:104D00000EEB124E5C1247048A828B83A3A3A3E0AE
:104D1000F98510828511831252F41207D4E9F5093E
:104D20006003024E17E4F514F5157814121C307563
:104D300014E97515027814121C307514EA75150201
:104D40007814121C307406121A11121C477913AC15
:104D50000AAD0B8510828511831252F412090C746E
:104D6000081219DCE9F5096003024E179002E9E028
:104D7000F8E5087009E02402900301F08017900321
:104D800001E0FCE82402FAE43400FBEA6C7001EB79
:104D90006003024E1B850882AA82124F9B94141254
:104DA0004F935073850E82850F83E0C0E074022A12
:104DB000124E53D0E0F00508850E82850F83A3E0E4
:104DC000C0E085080A7402250A124E53D0E0F005AF
:104DD000089002E9124E66121C307CEA7D028508BA
:104DE0000A7402250AFA74033400FB12106E74026E
:104DF0001219DC9002E9E02508F50874FF6E7003D3
:104E000074FF6F6012EE24010EEF3400FFE508C35B
:104E100094145003024CAEE50860131251DF851064
:104E2000828511831252F412055879008014E50925
:104E3000700375090A851282851383EEF0A3EFF0E3
:104E4000A90974021219DC7F0E021AEF85080C748E
:104E500002250CF58274033400F583223400F50F2B
:104E6000850E82F58322125AE92274EE121A1D74FD
:104E7000FE1219C68C0E8D0FEA2405F50CEB124AB2
:104E80007A750B00900300E4F0F50AEA2402F508B5
:104E9000EB3400F5098049900300E0FA9002E9E064
:104EA000F8124F9B9417124F93400D900300E0F8B7
:104EB0007416C3989002E9F0124FA4121C307CEAD9
:104EC0007D0274012AFA74033400FB12106E74021E
:104ED0001219DC9002E9E0F8900300E028F0050ADE
:104EE000E50C2416F582E50D124E57E0F8E50AC3ED
:104EF000984003024F7C900300E0C39416507DE578
:104F00000AC333F8E433F9E50C28FEE50D39FF85D3
:104F10001882851983AC82AD838E828F831252F4FE
:104F20001207EC8A108B11AC10AD11EC4D700575A9
:104F30000B018043E4F510F5117810121C30751048
:104F4000E97511027810121C307510EA751102789B
:104F500010121C307406121A11121C47791685089B
:104F6000828509831252F412090C74081219DCE9C3
:104F7000F50B7003024E9712555580107C007D038F
:104F80008508828509831252F412056AA90B7402FE
:104F9000025450E99400C365D03322EA28F8E4347F
:104FA00000F9E822E0F51075110078102274EA1279
:104FB0001A1D74FC1219C68A0C8B0D8C128D13EA03
:104FC0002405F50AEB125549750800750900E50A34
:104FD0002402F510E50B3400F5117402121A118544
:104FE000820E85830F780E121C30850A82850B8312
:104FF000A3A3A3A3125A95121C30E50A2405F50EAB
:10500000E50B3400F50F780E121C308510828511E7
:105010008312554F1252EE1207E674061219DC8AFB
:105020000E8B0FAE0EAF0FE50C2402F50EE50D341E
:1050300000F50F80408882898374FFF00508124EC6
:105040004C74FFF005089002E9E0F50C750D00784E
:105050000C121C307CEA7D0285080C7402250CFAC7
:1050600074033400FB12106E74021219DC9002E912
:10507000E02508F508EE4F60718E828F83A3A3A30D
:10508000E0F9850E82850F831252F41207D4E9F5F8
:1050900009EE2404124A77E97044E4F514F5157812
:1050A00014121C307514E97515027814121C307531
:1050B00014EA7515027814121C307408121A1112B1
:1050C0001C477911EEFCEFFD850E82850F8312528D
:1050D000F412090C74081219DCE9F5096027850C33
:1050E00082850D831251D5125562E5087003025175
:1050F000BB1251DF850E82850F831252F4120570A8
:1051000079000251D0850882AA82EA9002E97009EA
:10511000E02404900301F08022E0F8900301E0F520
:1051200014E82404FCE43400FDEC65147001ED7017
:10513000C0124F9B9412124F9350B6850C82850D6E
:1051400083E0C0E074022A124E53D0E0F0050885D7
:105150000C82850D83A3E0C0E0124E4CD0E01251CA
:10516000F185820C85830D780C121C307404121AA0
:1051700011121C47851082851183125DBC1207F243
:1051800074041219DC8A0C8B0DAE0CAF0D85080C63
:105190007402250CF874033400F9EE4F70030250CA
:1051A00035851882851983E0888289831251F1A39D
:1051B000E0C0E0124E4CD0E0025043E509700375A8
:1051C000090A850A82850B831251D5125562A909F5
:1051D0007404024E44125DAB8512828513832290C3
:1051E0000301E0F5F0E50884900300F07C007D0306
:1051F00022F005088518828519832274EC121A1D85
:1052000074FE1219C68A088B098C0E8D0FEA2405CC
:10521000FEEB3400FF851882851983AC82AD838E46
:10522000828F831252F41207EC8A0A8B0BEE241839
:10523000124A77EA450B70030252C51254375032B6
:105240008518828519831252F41209008A108B1175
:10525000EA4511606B7912AC0AAD0B8508828509AD
:10526000831252F4851082851183121A1BE9F50A04
:105270007058E4F50AF50B780A121C308E828F8381
:10528000A3A3E0F50A780A121C30EE240312554657
:10529000780A121C308E828F831252FE1209127409
:1052A000061219DCE9F50A7021850C82850D83E070
:1052B000701F8508828509831252F41205768011C9
:1052C000750A0E8009750A018004E50A600312550B
:1052D00055850C82850D83E0600479008002A90A5F
:1052E00074021219DC7F0C021AEF7C007D03850A20
:1052F00082850B831252F822E0FAA3E0FB22E0FC45
:10530000A3E0FD8508828509831252F82274EE120B
:105310001A1D74FE1219C68A088B098C0C8D0DEAB1
:105320002405FEEB3400FF750E0085188285198375
:10533000AC82AD838E828F831252F41207EC8A0AFC
:105340008B0BEA450B7003025423125437503585FA
:1053500018828519831252F41209008A0E8B0FEA03
:10536000450F605E7912AC0AAD0B85088285098312
:105370001252F4850E82850F83121A1BE9F50E6016
:105380000302542685088285098312563DAA0AFB2A
:105390001208F48A108B11A810A911E849701E7A1E
:1053A000FF7BFF1208F48A108B11A810A911E8499D
:1053B000606C88828983E50AF0A3E50BF0750A002A
:1053C0008007750E0E805F050A9002E6E0FAE50A96
:1053D000C39A504AE50A75F017A4FAABF08882899F
:1053E00083A3A3E02AFAA3E03BFB8A828B831255B6
:1053F0004FEC4D70D2750A17750B00780A121C30ED
:10540000EEFCEFFD12106E74021219DCEEFCEFFDE3
:105410008508828509831252F412057C8014750E6A
:10542000098003750E01125DA3850C82850D831220
:105430005562A90E024F8EE5082402F508E50934ED
:1054400000F5098A828B83A3A3A3E0A2E52274045A
:105450001219DC7F0A021AEF74EC121A1D8C108DDF
:1054600011EA2405F50CEB124A7A750F00EA2402C2
:10547000F50AEB125549850A82F5831252F4120897
:10548000F48A088B09EA4509700302553B750E0042
:105490008071850C82850D83E06401704F8E828F50
:1054A00083A3A3121C478E828F83A3A3A3A3E0F53B
:1054B000127513007812121C30EE2405F512EF3429
:1054C00000F5137812121C301252EE1209127406F3
:1054D0001219DCE9F50F6014850C82850D83E4F068
:1054E000125DA38510828511831255627C177D00A1
:1054F0007900EEFAEFFB1210868E828F83E4F0A320
:10550000F0050E9002E6E0F8E50EC398501EE50E99
:1055100075F017A4F8A9F0850882850983A3A31262
:105520005F3012554FEC4D6003025492850882851E
:10553000098374FFF0A3F0E50F70061252EE120516
:1055400082A90F0252E5F50AEF3400F50B22A3E021
:10555000FCA3E0FD228E828F83125DAB850E8285D7
:105560000F83E8F0A3E9F022C082C0839002E2E05A
:105570006A7003A3E06B70067AE27B0280047A0013
:105580007B00024855C082C08378008C828D83E006
:105590006A7003A3E06B7010E875F003A4F8A9F03B
:1055A000EC28FAED39FB8015088C828D83A3A3A328
:1055B000E06A7003A3E06B60DF7A007B000248556D
:1055C00074F6121A1D1208BE8A828B83E582458307
:1055D00070067A007B008007A3A3A3A31252F402F3
:1055E0005C5474F2121A1DE9FE740E121A1112564E
:1055F0003D7410121A11125AB58C828D83E0640228
:105600007036A3125DB1F50CA3E0F9A80C74026822
:1056100070037429697021750C02750D00780C12E5
:105620001C307808121C30780A121C30EEF912096E
:105630003674061219DC80027901025CD8E0F50AA2
:10564000A3E0F50B2274E8121A1D74FB1219C6E9C7
:10565000851882851983F08A168B17ECFEEDFF758D
:105660001000741D121A11125DA7741D121A111266
:1056700055628E828F83A3A3A3E0A2E4502D741DF4
:10568000121A111252F41209008A828B83E58245A4
:10569000837003025A86790AEEFCEFFDAA16AB1757
:1056A000121A1BE9F5106003025A89741F121A11AD
:1056B000125AB57421121A1112563D7423121A117E
:1056C000E0F50EA3E0F50F8E828F83E064026003A5
:1056D000025A34A3125DA7850882850983A38582B7
:1056E00012858313EE2406124A7788828983E0FAB2
:1056F000A3E0F9EA2400F514E439F5157814121C36
:10570000BA010000280128295707000228EE570394
:10571000285B5700292559012950590229F15803BE
:105720002925590429CF59345AE50E450F60030243
:105730005A2F850C82850D83125AAAFAE9FB8A82B8
:105740008B83E0850A82850B83125AE0121C308A13
:10575000828B83A3E0FCA3E00259B9E50E450F60FC
:1057600003025A2F850A82850B837401F0125ABDF9
:10577000850882850983F07C007D008E828F83A35B
:10578000A3A3A3E02401FAA3E03400FB1207ECEA90
:105790004B60418A828B83E02402F8850A82850B64
:1057A00083E028F0EA2404F8EB3400F98882898346
:1057B000E0851282851383125AF2125AE0121C30CD
:1057C0008A828B8312554EE5082403FAE5093400DA
:1057D000FB0259BE850A82850B83E02404F07C0419
:1057E0007D007900AA12AB13121086025A89E50EC9
:1057F000450F6003025A2F125ABDFEA3E0FF850A2F
:1058000082850B837404F0EE850882850983F0EFAE
:10581000851282851383F07403121A11AC82AD8352
:10582000EEFAEFFB1207EC8A0C8B0DEA450D7003C4
:105830000258D28A828B83A3A31247007401121AE2
:105840001185820E85830F780E121C307405121A92
:1058500011121C477CFF7DFF1207F274041219DC41
:105860008B0FEA450F7033850C82850D83125A9594
:10587000121C30850C82850D83A3121C477C027D8F
:10588000007A687B8212061E74041219DCE9700A21
:105890007401121A1174FFF0A3F08E828F83E064FA
:1058A000027039750C02750D00780C121C308E8256
:1058B0008F8312554EE5082404FAE5093400FB12E3
:1058C000106E74021219DC850A82850B83E02402B3
:1058D00080097401121A11EEF0A3EFF07401121A8C
:1058E00011125AA6F07401121A11A3125A9E025AEA
:1058F00029E50E450F6003025A2F850C82850D8322
:1059000012554FAA16AB1712092A850A82850B83F6
:105910007402F0EA850882850983F0851282851376
:1059200083EB025A2CE50E450F6003025A2F125AE0
:10593000BDF8A3E0F9850A82850B837402F0E8853F
:105940000882850983F0E9851282851383025A2C27
:10595000850C82850D831252F4121068EAFC8C8249
:10596000A882C3950EE4950F405FE8650E7002E5CE
:105970000F70047C008022851882851983E0FAE587
:105980000E2AFAE50F3400FBC3EA98EB94005003AB
:10599000E08005E50ECCC39CFCEC850A82850B8378
:1059A000F08C0A750B00780A121C30850C82850D6C
:1059B00083E0250EFCA3E0350FFDAA08AB09121009
:1059C0006E74021219DC025A89751007025A89E5B1
:1059D0000E450F705A850C82850D83125DA7850ACE
:1059E00082850B83740712470C125A9E12470CA330
:1059F000E0851282851383F0E82402FAE93400FB83
:105A00008A828B83125A9E125ACD125AA6A3125A18
:105A1000D6125AAFF0E82405F8E93400F9888289F3
:105A200083125AAFA3125AF2A3A3A3A3F0805A750C
:105A3000100B8055741D121A111252F41208BE8AEE
:105A4000828B83E5824583603D125DA7880C890DBA
:105A5000E8450D6031780E121C30780A121C30783F
:105A600008121C307406121A11E0F9EEFCEFFDAAC0
:105A700016AB17850C82850D83121A1B740612193A
:105A8000DCE9F510800375100EA91074051219DCFD
:105A90007F10021AEFE0F50E750F00780E22E085F8
:105AA000088285098322125AFC22125DABE8221279
:105AB0005AFCA3A322E0F508A3E0F50922850C8295
:105AC000850D83E0F8A3E0F5838882E022A3A3F0AC
:105AD0008A828B83A322F088828983A3A3A3A32233
:105AE000F08A828B83125AE922E0F50A750B00785E
:105AF0000A22F088828983A3125AFC22E085088258
:105B0000850983A3A32274EE121A1D74FE1219C60E
:105B10008A0A8B0BECFAEDFB7414121A11E0F510E3
:105B2000A3E0F5117416121A11E0FE7418121A117E
