:020000040000FA
:0600000002010A02236761
:03002B000227DFCA
:030033000227C1E0
:03003B0002280098
:030043000227751C
:030053000223DAAB
:03006B0002279BCE
:100083000221D3E5C754F84401F5C77901220000E2
:100093000080FB120086B900030200F4E4792178A2
:1000A30008B800028004F709D8FCE479297802B87B
:1000B30000028004F709D8FCE49002817858790C97
:1000C3008002F0A3D8FCD9FA900DD8AA82AB839012
:1000D300013A780779058015E493A3AC82AD838A4E
:1000E300828B83F0A3AA82AB838C828D83D8E9D9D8
:1000F300E77582BA7583CB740312011C75829175FF
:100103008300740012011C75D00075813F7518813E
:10011300751902759F00020096C09FF59FE473D086
:100123009F22D083D082C09FE493C0E0740193C028
:10013300E0740293F59F22FF0000B400002800281A
:1001430000283075A000A000A000A000000800084F
:10015300E001F0001000100010001000100010006B
:1001630050005000500010001000D00700000000A5
:1001730000000F00010005003075070010000100AA
:1001830081FF00000000FF3E075C074407FF0202F7
:100193000208025000A0000000E803026E82010082
:1001A300004C82026A820100002F0E026482010069
:1001B30000B302026A82010000300E026082010075
:1001C30000C902026A82010000310E025E82010050
:1001D30000CB02026A82010000320E025C82080038
:1001E30000CC02026A82010000330E025A8201002F
:1001F30000340EFF0100FF20026E820100005282D4
:10020300026A82010000980E02588200000000007A
:1002130002668203000019030E0D0E0D0E0D0E0D66
:100223000E0D0E0D0E0D0E0D0E0D0E0D0E0D0E0DF3
:100233000E0D900FA80F8A0FFFFF0200E2FF0200CE
:10024300E7FF0200F3FF0200F3FFFAFF07000300DA
:10025300F9FFFBFF07000400F7FF07000300090095
:1002630003000A000E0005000D0005000E00020247
:1002730002020202020202010D0000001001026EDE
:10028300820100005582026A820100000F0F02748E
:10029300820100009907026A82010000100F0276B2
:1002A300820100006D81026A82010000110F027A4F
:1002B300820100005181026A82010000120F027C58
:1002C30082010000DF80026A82010000130F027EB8
:1002D30082010000CD80026A82010000140F0282B5
:1002E300820100009780026A82010000150F0284D8
:1002F30082010000BB80026A82010000160F0286A1
:10030300820100005F81026A82010000170F0278F8
:1003130082010000180F01E803053F100AFF0001E6
:100323003075030201060000000000000000000019
:1003330000000000000000000000000000000000BA
:100343000000FFFF0600800CE80384030F0013097D
:100353004F666669636577656C6C20233030303097
:100363006666051208000800020A0002010603027D
:10037300F1FF53696D706C6520424C4520506572E6
:100383006970686572616CF414000000150A4861B5
:1003930072647761726520496E666F726D6174690C
:1003A3006F6E000A507265736574204865696768EB
:1003B30074000A506F7374757265204A75646765BB
:1003C3006D656E74000A416374696F6E2052616ECD
:1003D30067650008436F6E74726F6C20436F6D6DB9
:1003E300616E6400125065736B205374617475738E
:1003F300000A4C6F636B2053746174757300025071
:100403006F77657275702054696D657374616D7073
:100413000000104865616C74682044617461000ACF
:100423004175746F6D61746963204D6F7665204407
:100433006174610000026E820100004F82026A82D1
:100443000100002E10028A82030000970D026882C9
:100453000100002F10026A820100004410028C8206
:100463000300009B0D0268820100004510026A82AE
:100473000100005310028E82030000A30D02688264
:100483000100005410026A8201000066100290828B
:10049300030000A50D0268820100006710026A8252
:1004A3000100007410029282020000A90D0268820A
:1004B3000100007510026A82010000851002948217
:1004C300010000AA0D026682030000AE0D026882DD
:1004D3000100008610026A820100009210029682D7
:1004E300030000B40D0268820100009310026A82C7
:1004F3000100009F10029882010000B90D0268827A
:10050300010000A010026A82010000B310029A8267
:10051300000000BD0D026682030000CD0D0268825B
:10052300010000B410026A82010000C01002808240
:10053300030000D30D026882010000C110120125DF
:100543003EBC0312012555BC0312012586BC0312D0
:100553000125C1BC03120125EBBC0312012515BD06
:10056300031201252CBD0312012543BD03120125EE
:100573005ABD0312012583BD0312012596BD031243
:100583000125ACBD03120125BFBD03120125E6BD44
:100593000312012518CF021201251CD002120125D6
:1005A30054D00212012577D00212012582D0021203
:1005B3000125A5D002120125B4D10212012589D249
:1005C3000212012504D3021201258CD30212012544
:1005D300C7D302120125FED3021201258CD40212C5
:1005E300012565D502120125C5D502120125D0D5F5
:1005F300021201254FD60212012552D602120125FD
:1006030055D602120125E4D602120125E7D60212BD
:10061300012517D70212012541D7021201252FD830
:1006230002120125E1D802120125A88A031201252D
:10063300D08A03120125FE8A03120125358B03128A
:100643000125938B03120125DE8B03120125298CCF
:1006530003120125698C03120125AF8C03120125B6
:10066300DD8C031201259A8D03120125A48D03123B
:100673000125B18D03120125E48D03120125B08EEE
:1006830003120125BC8E03120125D48E031201250A
:10069300DE8E0312012517C70312012525C7031296
:1006A30001253DC70312012555C703120125A9E002
:1006B3000112012555E101120125D0E101120125A5
:1006C300F1E2011201252DE301120125D6E3011206
:1006D3000125BDE40112012521E60112012578E679
:1006E30001120125F9E601120125E9E701120125AD
:1006F30036E801120125BCE801120125EEE80112DA
:10070300012502EB0112012544EB0112012562EBE5
:1007130001120125E5EB01120125B9EC01120125B6
:1007230081ED0112012577F1021201254AF202122D
:100733000125F3F20212012546F302120125F6F315
:100743000212012582F4021201256EF5021201251F
:100753009DF502120125B0F602120125F8F60212E8
:100763000125CDF70212012509F80212012525F80A
:100773000212012581CA03120125AEA40312012529
:10078300C4A403120125EAA40312012506A6031239
:10079300012510A60312012545A7031201253DA833
:1007A30003120125818503120125B1860312012558
:1007B300E486031201252E8703120125F58803120F
:1007C300012557C101120125C1C10112012520C311
:1007D3000112012530C3011201255DC30112012558
:1007E300B4C3011201255DC40112012564C50112C0
:1007F30001252EC6011201258EC701120125D1C77D
:100803000112012576C801120125C3C80112012571
:10081300E9C801120125F7CA01120125FCCA011218
:10082300012501CD011201254ECD01120125C1CDB6
:1008330001120125F4CD0112012596CE01120125E5
:100843003FCF0112012577CF011201257ACF011283
:100853000125C2CF0112012502D00112012559D071
:100863000112012594B103120125ACB10312012534
:10087300F4B1031201250AB20312012551B2031286
:10088300012565B303120125F2B3031201253DB41B
:1008930003120125D94200120125E5420012012568
:1008A300204300120125654300120125254400124F
:1008B3000125AB44001201251045001201253C45DA
:1008C30000120125754500120125B34700120125C9
:1008D3009749001201257D4B00120125C04C0012DF
:1008E30001250E4F001201252050001201256B51E6
:1008F300001201257B520012012598520012012596
:10090300D35200120125F55200120125585300124B
:100913000125195800120125AE5800120125FF5870
:1009230000120125265900120125785900120125CC
:10093300965900120125F05900120125D95A0012C7
:1009430001254F5C00120125D35C00120125658F40
:10095300031201256F8F03120125B28F03120125A4
:10096300CD8F031201255D9003120125859003129B
:100973000125C29003120125F9900312012522914A
:1009830003120125979103120125AC91031201254E
:10099300C19103120125F29103120125069203125C
:1009A30001252B92031201256592031201259192D1
:1009B300031201251D9303120125489303120125F8
:1009C300919303120125BB9303120125E6930312AE
:1009D3000125D1FE0212012517B70212012545B7E1
:1009E3000212012593B80212012573B902120125DF
:1009F30092B9021201250FBA0212012552BA02124C
:100A03000125A8BB0212012569BC02120125F0BE13
:100A13000212012591BF0212012587C0021201258E
:100A230084C102120125DEC20212012569C302122A
:100A33000125B9C20312012522C30312012576C37E
:100A4300031201259DC303120125CEC30312012501
:100A53000E94031201257B9403120125C294031201
:100A63000125DA9503120125D69603120125B997BC
:100A73000312012552D90212012594D9021201252C
:100A830066DA021201253FDB0212012539DC02126C
:100A930001251BDD0212012584DD021201253ADE48
:100AA30002120125AEDE021201251ADF0212012510
:100AB30043DF02120125BDDF0212012556E00212B7
:100AC3000125BBE002120125D0E00212012516E147
:100AD300021201252FE10212012594E102120125E0
:100AE30097E1021201259BAE03120125C3AE031247
:100AF300012501AF03120125BFAF0312012526B063
:100B03000312012542B0031201256AB00312012525
:100B13009AB003120125A9B00312012526B10312CD
:100B230001254CB10312012546D10112012524D31D
:100B33000112012556D50112012592D50112012575
:100B4300BFD501120125A9D601120125F4D6011240
:100B530001253FD70112012551D70112012591D754
:100B630001120125C6D70112012514D8011201254E
:100B730043D80112012566D801120125B3D8011209
:100B8300012538D90112012552DB0112012591DD1E
:100B930001120125D2DD0112012574DF01120125A5
:100BA300B5DF0112012528E0011201257EE00112C3
:100BB300012502AA0212012500AB0212012599B1F7
:100BC30002120125BAB30212012585B502120125CD
:100BD300EDB6021201253A5D00120125E95D00120E
:100BE30001252F5E001201256F5F001201250561AB
:100BF300001201257F61001201259A61001201256F
:100C03001562001201256F6300120125CF640012E3
:100C13000125D565001201253667001201254F67AE
:100C230000120125AD67001201259B680012012502
:100C3300CE68001201253E6900120125B869001231
:100C43000125026A00120125CC6A00120125A16B5D
:100C530000120125806C001201250B6D0012012585
:100C6300796D00120125ED6D00120125186E001239
:100C73000125D76E001201253C7000120125597021
:100C830000120125787000120125697100120125F7
:100C93008E7100120125B871001201253372001202
:100CA30001258D7200120125F67300120125A4742B
:100CB30000120125E574001201252E9C0212012564
:100CC3007C9C02120125889C02120125669D02125A
:100CD3000125979D02120125C89D02120125489EF8
:100CE30002120125809E02120125D29E02120125C5
:100CF3000F9F021201252CA10212012552A30212F9
:100D030001253DA50212012527A702120125F07F27
:100D13000012012544AD0112012574AD0112012514
:100D23004DB401120125D2B501120125CFBB011229
:100D33000125B7BC01120125F4BC0112012517BD21
:100D43000112012548BD0112012551BD01120125E2
:100D53005BBD0112012549BE011201253FBF0112EE
:100D63000125359801120125349C011201253A9C75
:100D73000112012575A3011201258EA80112012577
:100D830047A80312012541A903120125B5A903129E
:100D93000125F3A90312012567AA03120125E0AA7D
:100DA30003120125E9AA03120125F5AA031201255D
:100DB3000AAB0312012548AB031201255EAB0312F4
:100DC30001257B9803120125889803120125A29817
:100DD30003120125E198031201251F99031201252E
:100DE300849903120125999903120125A4990312E9
:100DF3000125B19903120125C89903120125D6993A
:100E030003120125E19903120125ED99031201252E
:100E1300FC9903120125079A031201252A9A03124A
:100E23000125D19A03120125E19A03120125FB9AA8
:100E330003120125189B03120125349B031201257C
:100E4300599B03120125649B03120125799B03120D
:100E530001258D9B03120125EE9B03120125F49BB3
:100E630003120125FA9B03120125009C031201259D
:100E7300189C031201254B9C0312012505800212C5
:100E830001258980021201253881021201259782EA
:100E930002120125B88402120125A485021201253C
:100EA300D98502120125FB8502120125AA860212A9
:100EB3000125A28802120125CB88021201255D8932
:100EC300021201258F89021201259C890212012534
:100ED300F38902120125198A02120125868C021256
:100EE3000125898D02120125E18D021201259AEF58
:100EF30001120125A4F0011201258BF10112012534
:100F030095F101120125B7F101120125C3F1011277
:100F130001255CF3011201258BF301120125A7F4CE
:100F23000112012500F50112012566F601120125C2
:100F330045F701120125A1F7011201250EF801124F
:100F4300012549F80112012588F80112012541FB09
:100F5300011201255BFB01120125E7FB01120125AB
:100F6300F5FB011201254EFC011201255CFC011267
:100F73000125CFFC0112012533FD011201257DFD61
:100F830001120125EAC3021201250CC40212012534
:100F930032C60212012547C9021201255FCA021295
:100FA300012512CB02120125F4CB02120125F8BD53
:100FB300031201251DBE031201258FBE0312012555
:100FC300FDE90212012506EA021201250FEA0212C7
:100FD3000125E6EA0212012597EC02120125CDEC68
:100FE3000212012507ED021201253DED0212012532
:100FF30077ED02120125ABED02120125D7ED0212A6
:10100300012520EE021201255AEE02120125A3EE5C
:1010130002120125FBEE0212012530EF0212012517
:101023008BEF02120125C5EF0212012516F0021201
:1010330001254CF00212012586F002120125B4F0BD
:1010430002120125D7F002120125A4C803120125BB
:10105300D0C8031201252BC90312012535C9031278
:10106300012545C9031201250080031201250A80C9
:1010730003120125488003120125918003120125E3
:10108300CB8003120125258103120125468103121A
:1010930001254F81031201259C8103120125C5817E
:1010A30003120125CF81031201253B82031201257F
:1010B300CD82031201251783031201254D830312E9
:1010C3000125D983031201251A84031201255184B2
:1010D300031201256384031201258284031201256F
:1010E3008B840312012553850312012514C40312B3
:1010F30001250BC50312012506FE011201253CFE45
:101103000112012572FE01120125BDFF0112012505
:10111300867F001201259C7F00120125A67F001205
:10112300012505CB03120125C89C03120125DD9C73
:1011330003120125909D03120125D09D0312012561
:10114300E99D03120125249E03120125719E0312BA
:101153000125A39E03120125E59E03120125F0A09C
:101163000312012520C60312012549C603120125D6
:1011730078C60312012590C603120125D2C60312B5
:101183000125742800120125C6280012012578299B
:1011930000120125712A001201252E2B00120125B0
:1011A300312C00120125092D00120125282D0012D2
:1011B3000125C02D00120125A72E00120125B72EEF
:1011C30000120125002F00120125443000120125D1
:1011D3009A3400120125373500120125FC3500121F
:1011E30001255636001201258C36001201251037D1
:1011F300001201259C37001201250C38001201252D
:101203007338001201258B3800120125B8380012FB
:101213000125E23800120125F73900120125C53BEB
:1012230000120125753E00120125C33F001201255E
:10123300DB4000120125864100120125BB4100124B
:101243000125AF420012012567B4031201258CB4B6
:1012530003120125B6B40312012564CB0312012541
:101263009F8201120125048501120125A586011221
:101273000125598701120125EC8701120125718887
:1012830001120125968801120125EC8B011201251B
:10129300728C01120125A58D01120125DF8D01122A
:1012A3000125148E01120125D48F011201253190DD
:1012B300011201257A9001120125E5900112012501
:1012C300569101120125889101120125A091011265
:1012D3000125E99201120125F992011201251494C5
:1012E300011201253694011201256C940112012586
:1012F300209601120125AD9601120125EC960112EB
:101303000125109801120125EEC703120125FFC71D
:10131300031201250DCC031201254CCC0312012528
:10132300EAFF021201254FC9031201255FC9031207
:1013330001257AC903120125E2C9031201251CC53F
:1013430003120125A1C50312012507C603120125B6
:101353003FC10312012568C103120125D3C1031242
:10136300012524C2031201257FC20312012533B7CD
:101373000312012548B70312012564B8031201259E
:10138300D8B803120125F2B80312012509B90312D3
:1013930001251CB90312012536B9031201254DB9E4
:1013A3000312012573B903120125C4B903120125E0
:1013B300FDA00312012514A1031201258EA103121E
:1013C300012572A20312012549A4031201258EAB44
:1013D300031201251EAC031201258EAC0312012555
:1013E3001FAD0312012528AD03120125A6AD03127B
:1013F3000125B9AD0312012525AE0312012585AEE2
:101403000312012598AE03120125ECC9031201252D
:101413005BCA0312012566CA0312012576CA0312A9
:1014230001259DBF03120125EFBF0312012579C0DA
:1014330003120125E0C003120125F9B903120125A6
:1014430023BA03120125F1BA03120125CCBB0312FF
:101453000125BBE10212012582E202120125B9E254
:1014630002120125E3E20212012543E302120125E0
:1014730099E302120125FEE30212012596E402120A
:101483000125A5E5021201253CE702120125C9E762
:101493000212012530E80212012547E80212012554
:1014A30061E9021201259FE9021201252F8E021222
:1014B3000125B091021201253893021201258F9361
:1014C30002120125AE93021201252C94021201256A
:1014D300C29502120125A79602120125B59A02129E
:1014E30001258B9B02120125157500120125A87891
:1014F300001201257B7900120125AF7A0012012524
:10150300657D00120125EB7E00120125727F00121A
:1015130001259AF802120125EAF80212012507F9BA
:10152300021201259EFA021201253AFB021201253D
:1015330036FC0212012598FE0212012556CC031235
:10154300012582CC03E066701008A3E066700A08E8
:10155300A3E066700408A3E06622C3E7960809E7E0
:10156300960809E7960809E79622C3E09608A3E0E0
:101573009608A3E09608A3E09622C008C3E096F578
:101583000808A3E096420808A3E096420808A3E0EF
:101593009645087001D3D00822080808EAC0E0EB9A
:1015A300C0E086F0E7A4FA180986F0E7A42AFA183F
:1015B3000986F0E7A42AFA180986F0E7A42AFA199B
:1015C30086F0E7A4FBE5F02AFA190886F0E7A42BD6
:1015D300FBE5F03AFA190886F0E7A42BFBE5F03AAD
:1015E300FA18180986F0E7A4C5F02BFBE43AFA19B8
:1015F30008E7C5F0C6A426F6E5F03BFBE43AFA1883
:1016030086F0E7A4F6E5F00826F6E43B08F6E43AAC
:1016130008F6D0E0FBD0E0FA22E4CFC0E0E4CEC08D
:10162300E0E4CDC0E0E4CCC0E075F020C3E633F6DF
:1016330008E633F608E633F608E633F6181818EC2E
:1016430033FCED33FDEE33FEEF33FFC3EC9709EDCF
:101653009709EE9709EF97191919400FFFEC97FCBB
:1016630009ED97FD09EE97FE191906D5F0BEECF7C3
:1016730009EDF709EEF709EFF7191919D0E0FCD0D6
:10168300E0FDD0E0FED0E0FF226016080808C6C3E4
:1016930013C618C613C618C613C618C613C6D5E094
:1016A300EA227009080808226016181818C6C333FE
:1016B300C608C633C608C633C608C633C6D5E0EA6D
:1016C30022E627F60809E637F60809E637F6080999
:1016D300E637F622E026F608A3E036F608A3E0365E
:1016E300F608A3E036F622E026F008A3E036F00879
:1016F300A3E036F008A3E036F022C3E697F6080924
:10170300E697F60809E697F60809E697F622C3E096
:1017130096F008A3E096F008A3E096F008A3E096FD
:10172300F022E657F60809E657F60809E657F608E1
:1017330009E657F622E056F608A3E056F608A3E0BA
:1017430056F608A3E056F622E056F008A3E056F05A
:1017530008A3E056F008A3E056F022E647F608098E
:10176300E647F60809E647F60809E647F622E0F6F3
:1017730008A3E0F608A3E0F608A3E0F622E6F008E3
:10178300A3E6F008A3E6F008A3E6F022E0FAA3E05C
:10179300FBA3E0FCA3E0FD22EAF0A3EBF0A3ECF053
:1017A300A3EDF022CAC0E0E6F0A308DAFAD0E0FA2B
:1017B30022CAC0E0E0A3C582CCC582C583CDC58360
:1017C300F0A3C582CCC582C583CDC583DAE6D0E05C
:1017D300CA22C3E498F8E499F91218168026C3E4E0
:1017E3009AFAE49BFBE920E7E9121816E498F8E477
:1017F30099F922C3E498F8E499F9121816E498F8D1
:10180300E499F9C3E49AFAE49BFB22EB20E7CFE9DE
:1018130020E7E0B90010BB0008E88AF084F8AAF0DA
:1018230022E4FBC8FA22EB70227B10C833C8C93309
:10183300C9335007C39AC3DBF280069A50012ADBEF
:10184300EAC833F4C8C933F4C9FA2275F008E4C806
:1018530033C8C933C933C99AC99B5004C92AC93B80
:10186300D5F0ECFBC833F4C8E4C9FA22600D08C60E
:10187300A2E713C618C613C6D5E0F322600C08C648
:10188300C313C618C613C6D5E0F422700422600D34
:1018930018C6C333C608C633C6D5E0F418222518C4
:1018A30010AF08F518400215198008F51840021505
:1018B30019D2AF22C0D0251810AF08F51850020571
:1018C300198008F51850020519D2AFD0D022251877
:1018D300F58210AF08F518400215198008F5184075
:1018E300021519D2AF851983222518F582E435191B
:1018F300F58322E4732518C582C0E0E51934FFC5DA
:1019030083C0E0E518C3958224F810AF08858319D6
:101913008582188008858319858218D2AFCEF0A3FB
:10192300E520F0A37808E608F0A3DEFAEFF0A3E5DC
:101933008124FAF8E608F0A3E608F0A3E608F0A38A
:101943000808E608F0A3E608F0A315811581D0E0A6
:10195300FED0E0F8158115811581E8C0E0EEC0E006
:10196300222518C582C0E0E51934FFC583C0E0E530
:1019730018C3958224F910AF0885831985821880CE
:1019830008858319858218D2AFCEF0A3E520F0A392
:101993007808E608F0A3DEFAEFF0A3E58124FBF86C
:1019A300E608F0A3E608F0A30808E608F0A3E608B3
:1019B300F0A315811581D0E0FED0E0F815811581E3
:1019C300E8C0E0EEC0E022851983851882E0A3FE1B
:1019D300E0A3F5207808E0A3F608DFFAE0A3FFE030
:1019E300A3C0E0E0A3C0E0E0A3C0E0E0A3C0E0E068
:1019F300A3C0E010AF08858218858319800885820B
:101A030018858319D2AFD083D0820201228519832E
:101A1300851882E0A3FEE0A3F5207808E0A3F6088A
:101A2300DFFAE0A3FFE0A3C0E0E0A3C0E0E0A3C0CF
:101A3300E0E0A3C0E010AF08858218858319800811
:101A4300858218858319D2AFD083D08222C0D02556
:101A530018C582C0E0E51934FFC583C0E0E518C3AB
:101A6300958224F310AF0885831985821880088531
:101A73008319858218D2AFC8F0A3E9F0A3EAF0A3D3
:101A8300EBF0A37908E709F0A3D8FAECF0A3EDF0A3
:101A9300A3EEF0A3EFF0A3D0E0F0A3D0E0F0A3D047
:101AA300E0F0A3E520F0A3E5F0F0A32285198385F8
:101AB3001882E0C0E0A3E0F9A3E0FAA3E0FBA37877
:101AC30008E0F608A3DFFAE0FCA3E0FDA3E0FEA331
:101AD300E0FFA3E0C0E0A3E0C0E0A3E0F5D0A3E013
:101AE300F520A3E0A3F5F010AF08858319858218CC
:101AF3008008858319858218D2AFD082D083D0E045
:101B0300F8D0E03274048006740280027401C0E0ED
:101B1300F4041218D1D0E01217A7227404800474BD
:101B2300028000CCC0E0EDC0E0E518C39CCCAD1949
:101B330050011D10AF068C188D1980068C188D1955
:101B4300D2AF1217B4D0E0FDD0E0FC22D083D08214
:101B5300E9C0E0E493A3C386F0C5F095F0F908E487
:101B630093A386F0C5F095F0700BE493A3C399405B
:101B730005E9048002A3E475F002A42582F582E559
:101B8300F03583F583D0E0F9E493A3C0E0E493C098
:101B9300E022D083D082ECC0E0EDC0E0E493A3FC6C
:101BA300E493A3FDED4C600D121BE1EC24FFFCED6F
:101BB30034FFFD80EFE493A3FCE493A3FDED4C60BD
:101BC3000D121C20EC24FFFCED34FFFD80EFD0E070
:101BD300FDD0E0FCE493A3C0E0E493C0E022C0E0C6
:101BE300C3E49396087401939618400FE4936670C8
:101BF3000808740193661870007019A3A3C3E493D3
:101C030096087401939618A3A3400DD0E0D0E0D0BA
:101C1300E0021BD1A3A3A3A3A3A3D0E022C0E0C0EF
:101C2300F088F0E4936670080874019366187000F6
:101C3300A8F0A3A3700BD0F0D0E0D0E0D0E0021B5B
:081C4300D1A3A3D0F0D0E022F0
:101C4C0074F5121964EAFEEBFFEE2434F8EF34005D
:101C5C00F988088909EE2435F582EF3400F583E024
:101C6C00F8EE2437F582EF3400F583E0F50AEC85C5
:101C7C000AF0A4FCAAF0850AF0EDA42AFDE82CF8E1
:101C8C00E43DF97A257B00121816EA85088285094D
:101C9C0083F0F8740758F97401B900028004C33357
:101CAC00D9FCFAE8131313541FF8EE28F8EF34009C
:101CBC00F9E8245DF582E93400F583E05A6008EE1A
:101CCC002434F582EF802CEE2434F582EF3400F5C9
:101CDC0083E0C0E0EE2436F582EF3400F583E0F5C6
:101CEC00F0D0E084A8F0EE28F8EF3400F9E82438BE
:101CFC00F582E93400F583E0F97F04021A1074F5DB
:101D0C00121964EAFEEBFFEE2434F582EF3400F591
:101D1C0083E0C0E0EE2435F582EF3400F583D0E0AB
:101D2C00F08E828F83A3A3A3A3A3A3A3C082C0839B
:101D3C008E828F83A3A3A3A3A3E0F8A3E0F9D0839F
:101D4C00D082E0C398F508A3E099F509EE247FF55D
:101D5C0082EF3400F583E064017069EE2480F58233
:101D6C00EF3400F583E0F8A3E0F98E828F83A3A310
:101D7C00A3A3A3A3A3E0FCA3E0FD8E828F83A3A364
:101D8C00A3A3A3E0FAA3E0FBC3EA9CEB9D5010C312
:101D9C00EC98ED99402EC3EA98EB995027800EC32E
:101DAC00EA98EB994007C3EC98ED9940177CDC7DE1
:101DBC0004EEFAEFFB120C6CEE247FF582EF34008C
:101DCC00F583E4F0EE2434F8EF3400F9E8FCE9FD97
:101DDC00EE2435F582EF3400F583E0F8EE2437F588
:101DEC0082EF3400F583E0F50AE508850AF0A4F5E6
:101DFC0008AAF0850AF0E509A42AF509E82508F8EF
:101E0C00E43509F97A257B00121816EA8C828D8349
:101E1C00F0F8740758F97401B900028004C333D97F
:101E2C00FCFAE8131313541FF8EE28F8EF3400F9FA
:101E3C00E8245DF582E93400F583E05A6008EE246D
:101E4C0034F582EF802CEE2434F582EF3400F583E8
:101E5C00E0C0E0EE2436F582EF3400F583E0F5F0D7
:101E6C00D0E084A8F0EE28F8EF3400F9E82438F537
:101E7C0082E93400F583E0F9122761021D05C08266
:101E8C00C083851882851983E0F8A3E0F9C3EA9C26
:101E9C00EB9D5010C3EC98ED99401BC3EA98EB995D
:101EAC005014800EC3EA98EB994007C3EC98ED9957
:101EBC004004790180027900D083D08222EAC39C4D
:101ECC00FAEB9DFB2274EF1219649003A2E06408F4
:101EDC006005E06407702A9061C8E060249003D02C
:101EEC00E0F4601DE0F875F003A4C8AAF02AF974B8
:101EFC00D228FE740339FF8E828F83A3A3A3E070D4
:101F0C0003022001906060E0C0E0EE2468F582EFEF
:101F1C003400F583D0E0F0750C45750D057508009F
:101F2C00750900E5D914F50AE5D95403F50E6017C7
:101F3C007403650E605CE50A6010EE2467F582EFB1
:101F4C003400F583E07003021FE6900540E0640165
:101F5C00602AEE2482F582EF3400F583E060047889
:101F6C000480027800850A08E508C398FA95E0FB1E
:101F7C00120B3A8A088B09EA45097005120E5E802D
:101F8C0074EE2482F582EF3400F583E070048A0C41
:101F9C008B0DE50A6012850C82850D83F50BE5D956
:101FAC00F0A3150BE50B70F6EE2482F582EF3400EE
:101FBC00F583E0604474FC250AF50A780C121B0BBF
:101FCC00AC0AA90EEEFAEFFB120D0874021218B748
:101FDC00E97026AA08AB09121428793D8E828F83EA
:101FEC00A3A3A3A3E0FA7B00120A0EEEFAEFFB12F6
:101FFC000C84120D1A790080747403650E6056857A
:10200C000A107511007810121B0BAC0CAD0DAA0840
:10201C00AB09120CE474021218B7EE2468F582EFC7
:10202C003400F583E064807004747F8001E0F50C6B
:10203C00780C121B0FE50EF50C780C121B0FA90A6D
:10204C00AC08AD099003D0E0FA7B001209D27402FF
:10205C001218B780139003A2E06408600BAC0CADAF
:10206C000DEEFAEFFB120D74120E6A79017F0A0263
:10207C001A1074F512196474FC1218A1EAFEEBFF25
:10208C008908A2AFE433F509C2AF806AEE2463F885
:10209C00EF3400F97A007B00A2AFE433F50AC2AF4B
:1020AC0088828983E0FCA3E0FDEC4D603A8882894C
:1020BC0083E0FAA3E0FB8A828B83E0FCA3E0FD883B
:1020CC00828983ECF0A3EDF08A828B83E4F0A3F099
:1020DC0088828983E0FCA3E0FDEC4D700A8882893C
:1020EC0083A3A3E4F0A3F0E50AA2E092AF121428B4
:1020FC009004E3E004F0EE2463F582EF3400F58302
:10210C00E0F8A3E0F9E849603DEE2463F582EF3492
:10211C0000F583E02402FAA3E03400FBEA2402F584
:10212C000AEB3400F50B780A121B0B8A828B83E0C6
:10213C00FCA3E0F9EEFAEFFB120CA874021218B72C
:10214C00E970030220989004E3E060639004E4E0FB
:10215C00F89004E3E0C398500C740265087050903A
:10216C0004E5E0604A8E828F83A3A3A3A3E08518C5
:10217C0082851983F0A3E4F09004E3E0F874021272
:10218C0018ECE8F0A3E4F09004E3E0F89004E2E04B
:10219C0028F074021218ECAC82AD83851882851974
:1021AC0083AA82AB8379011209DE9004E3E4F0E5A3
:1021BC0009A2E092AF74041218B7021D05000000CA
:1021CC008521878522C622C0E0C0D0E8C0E0E9C0E6
:1021DC00E0EAC0E0EBC0E0ECC0E0EDC0E0EEC0E057
:1021EC00C008C009C00AC00BC082C083C0F0A2AF37
:1021FC00E433FEC2AF759B00906182E0A2E0501206
:10220C00E591A2E0500C7591FE74016521700312EA
:10221C001ED1E0A2E55051E591A2E5504B7591DF3E
:10222C009003A2E064076005E06408702374016504
:10223C0021703579019003D0E0FA75F003A4CAA897
:10224C00F028FB74D22AFA74033BFB12207E801810
:10225C00E0640D70139003C4E004F064287002E491
:10226C00F07A00E0F9120E70906182E0A2E6400371
:10227C0002231AE591A2E6400302231A7591BF903E
:10228C0003A2E064057008120D9E120DAA800312C1
:10229C000DA4752100120DFEE99003A3F079001234
:1022AC000DF2120BE27A017B009003A1E0F91210FF
:1022BC00C2907803E064427055900544E014F070CD
:1022CC004DC2AF1222D200782AD0E0F618D0E0F638
:1022DC00E59F540770057509FF800375097FC4C01D
:1022EC00E07829E6F50808E65509F509740B780835
:1022FC0012187FD0E02508F8906270E0A2E740F851
:10230C00E8C333906272F0906270E0D2E0F09061BA
:10231C0081E0A2E35009E5E9A2E3500375E9F7A3D4
:10232C00E0A2E75009E591A2E7500375917FEEA278
:10233C00E092AFD0F0D083D082D00BD00AD009D0AD
:10234C0008D0E0FED0E0FDD0E0FCD0E0FBD0E0FA1D
:10235C00D0E0F9D0E0F8D0D0D0E032C0E0C0D0C0AE
:10236C0082C083906183E0A2E05009E5BFA2E050F7
:10237C000375BFFEE0A2E15009E5BFA2E150037571
:10238C00BFFDE0A2E25009E5BFA2E2500375BFFB1E
:10239C00E0A2E35009E5BFA2E3500375BFF7E0A24A
:1023AC00E45009E5BFA2E4500375BFEFE0A2E5508D
:1023BC0009E5BFA2E5500375BFDFE0A2E65009E5D1
:1023CC00BFA2E6500375BFBFD083D0828088C0E027
:1023DC00C0D0E8C0E0E9C0E0EAC0E0EBC0E0ECC08F
:1023EC00E0EDC0E0C0F0E5A7A2E6500FE5A1A2E643
:1023FC00500953A7BF75A1BF12243FE5A7A2E55012
:10240C000CE5A1A2E5500653A7DF75A1DFE5A7A255
:10241C00E15009E5A1A2E1500375A1FDE5A7A2E2F7
:10242C00500CE5A1A2E2500653A7FB75A1FBD0F01E
:10243C0002235074F81219647521019003A2E06410
:10244C00067015120D388A828B83A3A3A3A3A3A3B2
:10245C00E0FAA3E0FB120D8CA2AFE433FED2AF90F6
:10246C0003A8E0640170187A207B009003A1E0F9C6
:10247C0012114C7A207B009003A1E0F91210C89045
:10248C006182E0D2E6F0900541E0602185C62280B1
:10249C00169003A7E064017008E5C654F84405F5EE
:1024AC00C653BEFC1221CC7401652160E4EEA2E09F
:1024BC0092AF7F01021A10008E238F24858228850B
:1024CC008327851882851983E0CEA3E0CF852882E7
:1024DC00852783EBC9EAC8EDCBECCA75F010C3E8CD
:1024EC0033C8E933C9EA33CAEB33CBC3EA9EF526CA
:1024FC00EB9FF525B35004AB25AA26EC33CCED337A
:10250C00CDD5F0DAAE23AF242274ED1219648A080B
:10251C008B098C0A8D0B74131218EC780C12177132
:10252C007808790C12155D7510017511C8751200BB
:10253C0075130050127808790C1216FD7810790872
:10254C0012155D50168010780C79081216FD781053
:10255C00790C12155D40047901800279007F0C0220
:10256C001A1074ED1219648A088B098C0A8D0B747D
:10257C00131218EC780C121771780C790812155D7F
:10258C0040117808790C1216FDAA08AB09AC0AADFB
:10259C000B802275100075110075120075130178EF
:1025AC0010790C1216FD781079081216C4AA10AB0B
:1025BC0011AC12AD1380A68A828B837508FF750946
:1025CC00FF750AFF750B00780812174B7F04021A6F
:1025DC001074F51219648C828D8378081217718A25
:1025EC00828B837808121711EA2404F8EB3400F973
:1025FC008C828D83A3A3A3A3E0FCA3E0FD88828936
:10260C0083C3E09CF0A3E09DF088828983C3E094AF
:10261C0020A3E0944E40268A828B837508FF7509AF
:10262C00FF750AFF750BFF78081216EA8A828B83F6
:10263C00A3A3A3A3E02420F0A3E0344EF00225C30F
:10264C0074F5121964E9FE9004F7E0FAA3E0FBEECE
:10265C00C333F8E433F9743228F582748139F58385
:10266C00E02AF508A3E03BF5097808121B0B7A4029
:10267C007B427C0F7D001224C474021218B78A08A6
:10268C008B098C0A8D0B7410780812168CAA08AB67
:10269C00097F04021A1074F11219648A0C8B0D8CC8
:1026AC000E8D0F740F1218ECE0FAA3E0FB741112EC
:1026BC0018ECE0F508A3E0F5097808121B0BEA24E6
:1026CC0001F508EB3400F509E4F50AF50B780C7903
:1026DC000812159C750871750902780C7908121589
:1026EC009CAA0CAB0DAC0EAD0F1224C474021218C4
:1026FC00B78B09EA450960047A0180027A00EC2A5A
:10270C00FCED3400FD74131218ECE0F8A3E0F9E8CA
:10271C00FEE9FFECF8EDF97A717B021218168808C5
:10272C0089098E828F837808121780ECF8EDF97A7C
:10273C00717B021218168A088B0974057808121816
:10274C008E8E828F83A3A3A3A3E508F0A3E509F0E3
:10275C007F08021A10C082C083E9906000F0D08319
:10276C00D08222C2AF02000022C0E074F2121A50D2
:10277C00A2AFE433FED2AFC2C0E5D1A2E4500653FF
:10278C00D1EF121404EEA2E092AF7F01021AAFC097
:10279C00E074F2121A50A2AFE433FED2AFE589A274
:1027AC00E15003121368758900C2C5EEA2E092AF26
:1027BC007F01021AAFC0E074F2121A50A2AFE433D8
:1027CC00FED2AFE58BA2E05003121368758B00C2EA
:1027DC00E880D8C0E0C0D0E8C0E0E9C0E0E5A8D20D
:1027EC00AFC2C7A2E7A2E792AFD0E0F9D0E0F8D031
:1027FC00D0D0E032C0E0C0D0E8C0E0E9C0E0C00812
:10280C00C009C082C083A2AFE433F9D2AF9008C133
:10281C00E0F8A3E0687008539AFBA374018026C209
:10282C00E99008C1E0F50874012508F074BD25088D
:10283C00F58274083400F583E0F5C19008C1E0C35B
:10284C0094044002E4F0E9A2E092AFD083D082D0AD
:0E285C0009D008D0E0F9D0E0F8D0D0D0E032BA
:10286C00FFFFFFFFFFFFFFFFC082C08390075FE009
:10287C00F8E94A6890075D603C7403F07410697065
:10288C0013EAC333FCE433FD74682CF58274073D02
:10289C00F5838015E9702074016A700590097F80BA
:1028AC000874026A70119009811240D5900762EC8D
:1028BC00F0A3ED8001E4F002386C74F01218F87497
:1028CC00FE1218A18A088B097E007F00EEF8EFF942
:1028DC007A027B0012180EE8C333F50EE933F50FBC
:1028EC007468250EF50C7407350FF50D850C82F503
:1028FC0083A385820A85830B851882851983AC8214
:10290C00AD837A02EE248DF91214A0E9601B74C316
:10291C00250EF5827481350FF583123BB3850C823D
:10292C00850D83E8F0A3E9801A851882851983E068
:10293C00850A82850B83F074011218ECE0850C82F9
:10294C00850D83F0E5082EF8E5091235DCEE24023E
:10295C00FEEF3400FFC3EE9408EF12380850030268
:10296C0028D874021218B77F080219CA74F7121803
:10297C00F874FE1218A1EAFEEBFF85188285198304
:10298C00AC82AD837A0279951214A0E96045900768
:10299C0070E0600C1460142481601B14601F80288C
:1029AC0090097F74BDF0A37404803C90097F74037C
:1029BC00F0A37405803190097F74E0800590097F45
:1029CC0074F5F0A37401801F90097F74FFF0A37459
:1029DC003F8014851882851983E0F974011218EC74
:1029EC00E090097FF0A3E912352979971214A0E938
:1029FC006041900770E0600C146010248160171423
:102A0C00601F802790098174C680059009817465C8
:102A1C00F0A3740280319009817416F0A3740180C4
:102A2C002690098174F5F0A3E4801C900981E4F0F0
:102A3C00A38014851882851983E0F974011218ECAF
:102A4C00E0900981F0A3E9F090098012303D9009E3
:102A5C007F12302D900982122B19900981122B2391
:102A6C0074020239EF74F71218F874FC1218A1EA08
:102A7C00FEEBFF851882851983AC82AD837A0479CD
:102A8C00891214A0E9602D9007707401F0900978F8
:102A9C00C3E09458A3E09402500E900764E06401E4
:102AAC0070069007707481F09007717402F0A3E4C3
:102ABC00F0A38028851882851983E0900771F07443
:102ACC00011218ECE0900770F074021218ECE0F9A7
:102ADC0074031218ECE0900772F0A3E9F090077001
:102AEC00E0547F900FED700474148002740FF0A307
:102AFC00E4F090077112303D90077012302D900762
:102B0C0073122B19900772122B230239ED122B1D05
:102B1C0022123036A3F022122B2722123036A3A316
:102B2C00F02274E81218F8EAFEEBFF8C0A8D0B7495
:102B3C00181218EC78101217718E168F178E088FCA
:102B4C0009EE4F702B7A057B001211048A088B0951
:102B5C00AE08AF098E828F83A3A3A3A3E41241789E
:102B6C00A3A3E50AF0A3E50B124178E4F0A3804E91
:102B7C00EA2404F514EB3400F51590821878101241
:102B8C0016D7851482851583E0F50CE4F50DF50E4A
:102B9C00F50F7810790C12155D502A80048808897D
:102BAC00098508828509831239E570F17A057B0065
:102BBC00121104122C08851482851583E004F08010
:102BCC0032880889098508828509831239E570F1F4
:102BDC007A057B00121104122C088E828F83E0FE82
:102BEC00A3E0FF85148285158312417EAA16AB17CC
:102BFC0012110AEEFAEFFB7F100219CA8A0C8B0D28
:102C0C00A80CA90D88828983A3A3E50AF0A3E50B80
:102C1C00F088828983E4F0A3F0850882850983E833
:102C2C00F0A3E9F02274F41218F874FC1218A189BC
:102C3C0008900778E065087003022CFF85188285E0
:102C4C001983AA82AB831211E290097AE0F50A7516
:102C5C00F005A4F8A9F0748328FE740939FFE0C3C9
:102C6C0094C950198E828F831239C712178F8E8296
:102C7C008F83A312179B90097AE004806B780079FC
:102C8C0000E8FAE9FBEA75F005A4FAACF075F0057A
:102C9C00EBA42CFB74832AFC74093BFD8C828D8382
:102CAC00A3A3A3A3A374051217B4E8240108E93461
:102CBC0000F9E50A24FFFAE434FFFBC3E89AE99B28
:102CCC00A2D265D03340BAEE24FBF582EF34FFF587
:102CDC00831239C712178FEE24FCF582EF34FFF5FF
:102CEC008312179B90097AE4F0E508900778F07945
:102CFC00018002790074041218B7023FBEC082C072
:102D0C0083900760C3E09489A3E09413900760401C
:102D1C0005E4F0A38003123BA302386B74F712187E
:102D2C00F88908740F5508F874F05508600A24F0F7
:102D3C00603424F06067806F90097BE070699009C3
:102D4C007CE0640260617401F07EF4FFE8601214B0
:102D5C00600514600680507A0180027A0279008046
:102D6C0037121200804190097BE0703B90097CE0A7
:102D7C0064026033E4F07EF47F01E8600B14600CB5
:102D8C0014600D14600E801F7A00800A7A01800690
:102D9C007A0280027A037910121182800A90097DDE
:102DAC007401F07E007F00E50890075FF0EEFAEF0B
:102DBC00FB0239F274F01218F8EAFEEBFF90821C59
:102DCC00121B1E90077D123BB3758307758266E05C
:102DDC00C398FCA3E099FD900779123E6F12119AEB
:102DEC0074041218B7900779EAF0A3EBF07C007D1D
:102DFC0000900779123BB38007E02CFCA3E03DFD6B
:102E0C0088828983E5822402F8E5833400F9E8FAA4
:102E1C00E9FB1239E58A828B8370DEE02CF508A37E
:102E2C00E03DF509900764780C12177190077B78D8
:102E3C000C121548600C9007647C7B7D077404129F
:102E4C0017B4900764780C12177190077F780C12E6
:102E5C001548603A900783123BB3C3EE98EF995034
:102E6C002D9007647C7F7D0774041217B490078340
:102E7C00F0A3F07A04FB1211048A0A8B0BAE0AAF92
:102E8C000B122EDB12151EEEFAEFFB12110A900735
:102E9C0083123E58AA08AB09022973C3EA9CEB9D26
:102EAC00400479028002790102012274F61218F8AA
:102EBC007A047B001211048A088B09AE08AF091240
:102ECC002EDB12151EEEFAEFFB12110A02378B9055
:102EDC000764E08E828F83F0900765123032F09099
:102EEC000767122B1D900766122B27EEFCEFFD7A5D
:102EFC000479052274F61218F87A087B0012110472
:102F0C008A088B09AE08AF09121188EEFCEFFD7A26
:102F1C0008790112151EEEFAEFFB12110A7A057BE5
:102F2C00001211048A088B09AE08AF097C707D0D64
:102F3C007A01799B1214A0E96005900D70E4F09071
:102F4C000D7012303DEEFCEFFD7A05790612151E60
:102F5C00EEFAEFFB12110A7A047B001211048A08B4
:102F6C008B09AE08AF09121194EEFCEFFD7A0479CF
:102F7C000012151EEEFAEFFB12110A7A047B0012F6
:102F8C0011048A088B09AE08AF0912118EEEFCEF02
:102F9C00FD7A04790312151EEEFAEFFB12110A7A70
:102FAC00027B001211048A088B09AE08AF097CEB76
:102FBC007D0F7A0279991214A0E9601A900770E0DB
:102FCC00A2E7900FEB40087484F0A374038006749E
:102FDC0062F0A37401F0900FEC12303D900FEB12E5
:102FEC00302DEEFCEFFD7A02790212151EEEFAEF8F
:102FFC00FB12110A7A057B001211048A088B09AEA8
:10300C0008AF09121230EEFCEFFD7A05790F12159C
:10301C001EEEFAEFFB12110A75C90043C9080237FC
:10302C008B123032F02212303622E08E828F83A344
:10303C0022E08E828F83F02274EA1218F8891075C0
:10304C000A00750B007C007D0079008911E5106089
:10305C00351460142481601B1470407512F57513BF
:10306C00017514F589158017751203751305751400
:10307C0065801C7512E07513017514167515019099
:10308C000785740280117512BD7513047514C6750D
:10309C0015029007857404F0A3E4F090097EE0F526
:1030AC000889097403780812188E85080E85090F93
:1030BC0074EB250EF50C740E350FF50D74DB250E27
:1030CC00F50E740E350FF50FEAC333F508EB33F537
:1030DC0009C3EA9401123807500302321D900762AB
:1030EC00E0F514A3E0F515E512C39514F514E513FA
:1030FC009515F515C3E5149414E515940050300995
:10310C00900762E0C39512F50AA3E09513F50BE561
:10311C000A2414F50AE50B34001233E3E51294018A
:10312C00E5131238084006AC12AD13800289111257
:10313C00348EEA9512EB9513A2D265D0335003026C
:10314C0033CAE50C2402F512E50D3400F513E50E37
:10315C002402F582E50F3400F583E9A2E04049E54D
:10316C0010700302331914601B248160381460033F
:10317C000233CE12340A12180E123E6412180E12BA
:10318C0033D78017EAF8EBF9123E6F12180E880A43
:10319C00890BE508250AF8E509350BF985128285B6
:1031AC00138302333D0232F7123422700302338749
:1031BC00146023248160571460030233CE1233F25F
:1031CC0012180E123E6412180E880A890BEC250A8E
:1031DC00FAED350B8017ECF8EDF9123E6F12180E64
:1031EC00880E890FE50A250EFAE50B350FFB8512C3
:1031FC0082851383123BB3E8850CF0A4F8ACF08500
:10320C000CF0E9A42CF9EA28F8EB390233BF0233AD
:10321C0057C312380740030233CA900762E0C395C4
:10322C0014F512A3E09515F513C3E5129414E513E8
:10323C009400501B09E51224ECF50AE51334FF1237
:10324C0033E31238085006AC12AD13800289111208
:10325C00348EE49512F512E49513F513C3E5129A26
:10326C00E5139BA2D265D03350030233CAE50E247A
:10327C0006F582E50F3400F583E50E2404F50EE522
:10328C000F3400F50FE9A2E05003023346E50C249D
:10329C0006F8E50D3400F9880A890BE50C2404F8CE
:1032AC00E50D3400F9880C890DE510606014601B85
:1032BC00248160371460030233CE12340A12180EC4
:1032CC00123E6412180E1233D78017EAF8EBF9127B
:1032DC003E6F12180E880C890DE508250CF8E509CF
:1032EC00350DF9850A82850B83804612340A121833
:1032FC000EE8FCE9FDECC333FCED33FD850E828555
:10330C000F83123E6F12180E1233D7801DEAF8EBA2
:10331C00F9850E82850F83123E6F12180E880A896A
:10332C000BE508250AF8E509350BF9850C82850DA6
:10333C0083E028FEA3E0390233C7123422603C1428
:10334C00603F248160051470798006850E82850F9C
:10335C0083E0FEA3E0FF1233F212180EE8FCE9FD45
:10336C00ECC333FCED33FDEEFAEFFB12180E880ABA
:10337C00890BEC250AF8ED350B8023850E82850F21
:10338C0083E0FEA3E0FFECF8EDF9EEFAEFFB121888
:10339C000E880E890FE50A250EF8E50B350FF9EEB0
:1033AC00850CF0A4FEAAF0850CF0EFA42AFFE82E01
:1033BC00F8E93FF9E82508FEE93509FF80047E00AD
:1033CC007F00EEFAEFFB7F0E0219CA88088909EC20
:1033DC002508F8ED350922F50BEAC3950AF512EB31
:1033EC00950BF513C322EC75F07FA4FCA8F075F0D7
:1033FC007FEDA428FDECF8EDF97A327B0022EA751A
:10340C00F07FA4FAA8F075F07FEBA428FBEAF8EBA8
:10341C00F97A327B0022E511A2E0B3E433F50CE536
:10342C000A9AF8E50B9BF9851108E88508F0A4F8D1
:10343C0085F0118508F0E9A42511F9EAC3950AFA7B
:10344C00EB950BFBEA850CF0A4FA85F008850CF0E3
:10345C00EBA42508FBE82AF508E93BF509E5087516
:10346C00F003A4F508A8F075F003E509A428F50904
:10347C008C0A8D0BE50AC333F50AE50B33F50BE526
:10348C001022900785E0F512A3E0F513C32274F720
:10349C001218F874F61218A1E9FEEAC333FAEB33EA
:1034AC00FB74682AF874073BF988828983ECF0A3D3
:1034BC00ED1239C91242A8C0E074011218ECD0E028
:1034CC00123529EEF912149A7A007B00EAF8EBF91E
:1034DC00E8C333F8E933F974021218ECE58228FCDE
:1034EC00E58339FD746828F8740739F98882898373
:1034FC00A3E08C828D831242A88C828D83A3123719
:10350C0090940412380740C474021218ECAC82ADCB
:10351C00837A08790112151E740A0239EFF08518A6
:10352C0082851983AC82AD837A022274F01218F86A
:10353C0074F61218A18A088B09750E00750F00E538
:10354C000EC333FEE50F33FF74682EF50C74073F82
:10355C00F50D850C82F583A385820A85830BE5081E
:10356C002EF582E5093FF5831239E56028850C823A
:10357C00850D831239D18518828519831235F3C0D4
:10358C00E074011218ECD0E0123529E50EC3332497
:10359C008DF912149A74021218ECE5822EF8E58358
:1035AC001235DCE50E2401F50EE50F3400F50FC3E2
:1035BC00E50E9404E50F123808408474021218ECDE
:1035CC00AC82AD837A08790112151E740A02297037
:1035DC003FF9850A82850B83E0888289831235F353
:1035EC0088828983A3F022F0850C82850D83E022EA
:1035FC0074EC1218F88A0C75100075110075120015
:10360C007513007A00850C088B098C0A8D0BEA3334
:10361C00333354F8780812168C90822478081217D9
:10362C00387403C39A33333354F878081216A578D8
:10363C0010790812175E0AEAC3940440C8AA10ABAA
:10364C0011AC12AD137F0C0219CA74F71218F8746E
:10365C00FC1218A1EAFEEBFF1210EC1210F2121180
:10366C00DC85188285198312179B8518828519832E
:10367C00EEFCEFFDECFAEDFB74041217B40239ED1D
:10368C0074F41218F87A057B001211048A088B095D
:10369C00AE08AF09740C1218EC12303D78017900A9
:1036AC00C3E498FAE499FB740C1218ECE5822AF541
:1036BC0082E5833BF583A3A3A3A3A3E0C0E0EE289C
:1036CC00F582EF39F583D0E012384D40D3EEFCEFA4
:1036DC00FD7A05790612151EEEFAEFFB12110A742B
:1036EC000C1218ECE06018740D1218EC7808121714
:1036FC0071E5084509450A450B700479018002798A
:10370C0000023FBE74F61218F890097DE060707AE2
:10371C00107B001211048A088B09AE08AF099007C0
:10372C0087E075F00FA4F8A9F0748328F8740939B0
:10373C00F912303D900787E004F07A007B00E82A0C
:10374C00F582E93BF583E0C0E0EE2AF582EF3BF52C
:10375C0083A3D0E0123790940F12380740E0EEFCB0
:10376C00EFFD7A10790812151EEEFAEFFB12110A12
:10377C00900787E0C394434006E4F090097DF07F06
:10378C00020219CAF0EA24010AEB3400FBC3EA2254
:10379C0074F61218F874FC1218A185188285198316
:1037AC00AA82AB831211E27A047B001211048A08FC
:1037BC008B09AE08AF0978007900851882851983CA
:1037CC00E58228F582E58339F583E0C0E0EE28F543
:1037DC0082EF39F583D0E012385F9404E91238088F
:1037EC0040D8EEFCEFFD7A04790712151EEEFAEFC5
:1037FC00FB12110A74041218B78084EB123857228A
:10380C00C082C0838A828B83E0900D70F07801793E
:10381C0000EA28F582EB39F583E0C0E0C3E498FCBC
:10382C00E499FD74752CF582740D3DF583D0E0128E
:10383C00384D40DD7C707D0D7A01799B12149A8095
:10384C001F12385F9405E9123857229400A2D265F2
:10385C00D03322F0E8240108E93400F9C3E822F05F
:10386C00D083D082020122C082C08390097CE4F014
:10387C0090075DF090075FF0900976F0A380E0C0B0
:10388C0082C0838A828B83A3E0F8748168600D7494
:10389C00016860087480686003E8700BEAFCEBFD5B
:1038AC007A04798912149A1211C480B474F712181C
:1038BC00F8EAFEEBFF8E828F83E0F9A3E0900FEB2A
:1038CC001239D7799912149AEEFCEFFD7A0279022B
:1038DC0012151E0239F274F71218F874F81218A1A6
:1038EC00EAFCEBFD8C828D83E0C0E074011218ECD5
:1038FC00D0E01242A2A3E0851882851983F0EC2453
:10390C0002FEED3400FF8E828F83E0C0E074031260
:10391C0018ECD0E01242A2A3A3A3E0C0E074021200
:10392C0018ECD0E01239C91239E590097F600C12FD
:10393C0039D17A02799512149A800C123BB38518FE
:10394C00828519831239D174021218EC1239E59060
:10395C000981600BE81239D7799712149A800B12EF
:10396C003BB374021218EC1239D174011218ECE04A
:10397C00C0E074041218ECD0E01239C9E0C0E07455
:10398C00051218ECD0E0F074031218ECE0C0E074EF
:10399C00061218ECD0E0F074021218ECE0C0E074DF
:1039AC00071218ECD0E0F074041218ECAC82AD8362
:1039BC007A04790312151E74088028E508F085181E
:1039CC008285198322E8F0A3E9F022F0A3E9F0EE56
:1039DC00FCEFFD7A0222900766E0F8A3E0F9E849D3
:1039EC002274041218B77F010219CAC082C08390D6
:1039FC000764E0640170071239E26007800BE06431
:103A0C0006600F90097F123BB3900978E8F0A3E9A8
:103A1C00800590097C7402F090075DE0703F900780
:103A2C005EE064037027C3900977123B9E5003023B
:103A3C003B7A900976C3E09401A3123B9E400302AB
:103A4C003B4F75800053FD0F90075E800CE07003B8
:103A5C00023B9B75800053FD0FE4023B9AF89007E4
:103A6C005EE0687003023B1690075DE01460091479
:103A7C006017146026023B0C900978C082123BB987
:103A8C00D082123E5D5079802D900981123E6F12CA
:103A9C003BB0C3EA98EB995067803590097FC082A0
:103AAC00900762123BB3758309D082123E5D500FB2
:103ABC0090097F123BB3900762E8F0A3E98018905D
:103ACC000981123E6F900762C3E09AA3E09B5008F5
:103ADC00900762EAF0A3EBF0900770E0F9900762B0
:103AEC00C082900978123E6F758307D082E0C39A2A
:103AFC00FAA3E09BFB1211CA900976EAF0A3EBF053
:103B0C0090075DE090075E023B9A9009761239E5CA
:103B1C00701675800053FD0F90075DE4F090075F01
:103B2C00F090097C7402806690075DE014600514C7
:103B3C00602A805B900978C082123BB9D082123E19
:103B4C005D503F90097BE0700643FDF0758040901E
:103B5C000976E024FFF0A3E034FF8032900981C0A5
:103B6C0082123BB0758309D082123E5D50149009CD
:103B7C007BE0700643FDF0758080900976123BA3C4
:103B8C00800C75800053FD0F900976E4F0A3F002D1
:103B9C00386CE012385722123BA722E02401F0A324
:103BAC00E0340022900978E0F8A3E0F92290097F34
:103BBC00E0F8A3E0F975830922C082C083E5905434
:103BCC000F900788F090097CE064017003023E5569
:103BDC00900788E0640F90097C702BE4F090075DEF
:103BEC00F0900789740FF090078AE4F090075EE07C
:103BFC006403700990097BE07003023E55758000E8
:103C0C0053FD0F023E557402F090097BE0600302F5
:103C1C003E5590076A123E6F900789E0F89007882E
:103C2C00E0687003023DCC90075EE0640370030211
:103C3C003DB3900788E024FD7003023D3424FE6000
:103C4C005024FE603024FE7003023D6024FE70039D
:103C5C00023CE924FE6009147003023DA6023DC239
:103C6C00900764E0640670051239E2701590075DE8
:103C7C007401023DC1900764E06406700C1239E2D5
:103C8C00600790075DE4023DC190075D7402023D40
:103C9C00C1900764E06406601E900768E0F470034E
:103CAC00A3E0F47003023DC290075D7403F090072B
:103CBC0068123BB3023D7E1239E26003023DC21230
:103CCC0040D2798D7A007B001211D090097BE06094
:103CDC0003023DC243FDF07580C0023DC2900764F3
:103CEC00E06406601D74FF6A700374FF6B7003025E
:103CFC003DC290075D7403F0900762EAF0A3EB02FB
:103D0C003DC11239E26003023DC21240D2798F7A72
:103D1C00017B001211D090097BE06003023DC2438D
:103D2C00FDF0758020023DC2900764E064066005DA
:103D3C0090076C802A1239E2707C1240D279917A09
:103D4C00027B001211D090097BE0706A43FDF07584
:103D5C0080A08062900764E06406601F90076E127A
:103D6C003BB374FF68700374FF69604A90075D741D
:103D7C0003F0900762E8F0A3E9803A1239E270365A
:103D8C001240D279937A037B001211D090097BE018
:103D9C00702443FDF0758060801C90075DE4F04357
:103DAC00FDF0758010800F90075DE4F090075EF0D9
:103DBC00900976F0A3F0900788E0900789023E54B2
:103DCC00E0640E6003023E5575800053FD0F9007B2
:103DDC008BC3E09410A3E094004045900D75E07007
:103DEC0034900768C082900FEB123BB3758307D0F9
:103DFC0082123E5D502A900FEBC3E09AA3E09B50D9
:103E0C001F90075D7401F0900D75F0900765E0F957
:103E1C00121236800B90075D7402F0900D75E4F071
:103E2C0090078AE0702390078B123E5890078BC343
:103E3C00E09419A3E09400401090075DE4F0900723
:103E4C008BF0A3F090078A04F002386C123BA7F0B9
:103E5C0022C3E098A3E09922E8FCE9FDECC333FC13
:103E6C00ED33FDE0FAA3E0FB2274F41218F8E9FE3E
:103E7C0074046E6003023FA89007601239E570036A
:103E8C00023FB7900760C3E0941EA3E09400500D6E
:103E9C007C047D007A8D7B0712141080077A047BDA
:103EAC000012141690078DE0900795F090078EE0A5
:103EBC00F9900796F090078FE0FA900797F090072B
:103ECC0090E0FB900798F090822878081217719078
:103EDC000791780812154870729082307808121782
:103EEC00719007957808121548604C9007957808E2
:103EFC0012177174016508700474026509601490DE
:103F0C0007957808121771740165087004740165BF
:103F1C0009702490824478081217719007957808DC
:103F2C00121548601290820C780812177190079540
:103F3C00780812154870149007957401F0A3740456
:103F4C00F0A37401F0A374AAF08060900795780830
:103F5C0012177174016508700474056509700E9070
:103F6C0007917C957D0774041217B4800FE99007B4
:103F7C0064F0EA900767F0EB900766F0900795788D
:103F8C00081217719007917808121548601D900758
:103F9C00957C917D0774041217B4800FEEC39405C1
:103FAC0040098E08AA087B00121416900760E4F0F2
:103FBC00A3F07F040219CA74F41218F8EAFEEBFF9E
:103FCC00EEF8EFF9E8C333F8E933F9900770E060E5
:103FDC000C1460112481601514601A80227508FB82
:103FEC0075090E801A75080575090F80127508FB86
:103FFC0075090E800675080575090FE8FEE9FF12B4
:10400C003BB0758307758262E0C398FAA3E099FB15
:10401C008508828509831240D5C3EC9EED9FA2D200
:10402C0065D033502E900770E0F91211CA8A0A8BB2
:10403C000BAC0AAD0BEEF8EFF9850882850983A36A
:10404C00A3123E6F12180E880A890B850882850907
:10405C00838047C3E49CF8E49DF9C3EE98EF99A2E2
:10406C00D265D033505D900770E0F91211CA8A0AFC
:10407C008B0BAC0AAD0BEEF8EFF985088285098342
:10408C00A3A3A3A3A3A3123E6F12180E880A890B35
:10409C00850882850983A3A3A3A3A3A3A3A3123B8F
:1040AC00B3E8850AF0A4C8AAF0850BF0A42AFA8517
:1040BC000AF0E9A42AF9ECC398F8ED99F99009767D
:1040CC001239D1023FBE900978E0FCA3E0FD2274C6
:1040DC00F71218F874FB1218A1EAFEEBFF85188290
:1040EC00851983AC82AD837A05799C1214A0E960A2
:1040FC001F74011218EC7403F0141218EC7484F091
:10410C0074031218EC7407F074041218EC7408F0B1
:10411C0074021218ECE0FA74011218ECE0F9EA904F
:10412C0007761239D274041218ECE0FA74031218E0
:10413C00ECE0F9EA9007741239D2900D75E4F09026
:10414C000D77741EF0A3E4F0A3F0A3124178F09065
:10415C00077712302D900776122B19900775122BBA
:10416C002390077412417E74050239EFF08E828F12
:10417C008322123032A3A3A3F022C082C083E96051
:10418C002B7402697004740180027402900D76F035
:10419C00640170059007768003900774123E6F904F
:1041AC000D77EAF0A3EBF0A3E4F0A3F002386C7403
:1041BC00F21218F8EAFEEBFFEE2402F8EF3400F9E5
:1041CC008E828F83A3AA82AB83E0F50888828983D1
:1041DC00E0FDE5082400940FED9400500D8A828BCD
:1041EC0083E4F088828983740FF0EE2404FCEF34AE
:1041FC0000FDEE2403F508EF3400F509850882F57F
:10420C0083E0F50C8C828D83E0F50BE50C24009497
:10421C001EE50B9400500D850882850983E412423B
:10422C00A2741EF08A828B83E09007771242A890CA
:10423C000776F0850882850983E09007751242A203
:10424C00E0900774124178E06028900768123BB345
:10425C0075830F7582EB123E5D4011900FEB123B94
:10426C00B375830775826A123E5D50068E828F830A
:10427C00E4F08E828F83E0900D75F0EEFCEFFD7A0A
:10428C0005799C12149AEEFCEFFD7A05790F121544
:10429C001E7F060219CAF08C828D8322F0888289D7
:1042AC0083E022C082C083900D76E0640190075DAC
:1042BC0070087403F090076880067403F090076A26
:1042CC00123BB3900762E8F0A3E902386BC082C0DE
:1042DC0083E9900E97F002456874F71218F8E9908C
:1042EC0002E1F07C197D037AFF7BFF120924900216
:1042FC00E274FFF0A3F0A3E4F0A3F079051208AC8C
:10430C009002E1E0F91207CE7A427B09120AEC7FA7
:10431C00010219CA74F41218F88A088B09EB54803C
:10432C0060309002E1E0F91210AA8A0A8B0BAE0AF7
:10433C00AF0BEE4F60138E828F83E064B07003126C
:10434C0008C4EEFAEFFB121098AA08E5096480FB8A
:10435C0080047A007B0002453774F21218F874FC62
:10436C001218A1EAFEEBFFEE4F603874021218EC43
:10437C00EEF0A3EF12479CECF0A3ED12479CAA823F
:10438C00AB831207C8E9F508707374121218EC129B
:10439C005350E50A450B60658E828F83124413EEF1
:1043AC004F700575080280557A067B001211048A3D
:1043BC000C8B0DA80CA90DE8497005750813803DF0
:1043CC0088828983E412441DA3A3EEF0A3EF125755
:1043DC00E9E50AF0A3E50BF09002E71244A5900280
:1043EC00E76017E0FCA3E08003EAFCEBFD8C828D18
:1043FC00831244A570F38C828D83125275A90874B4
:10440C00041218B70259EBA3A3A3A3E0FEA3E0FF89
:10441C0022F0A3F0888289832274F21218F8890A98
:10442C00E975F017A4FEAFF09002E6E4F09002E418
:10443C001244A5600A12110A9002E4E4F0A3F0EE13
:10444C00FAEFFB1211048A088B09EA4509602FEE7A
:10445C00FCEFFD79001210869002E4E508F0A3E56C
:10446C0009F07B00800812448FE4F0A3F00BEBC33F
:10447C00950A40F2E50A9002E6F079008002791381
:10448C000259EBEB75F017A4F8A9F09002E4E028C0
:10449C00FAA3E0398A82F5832212500BEA4B22747C
:1044AC00F41218F8750800750900740C1218EC1247
:1044BC0057BDFEE9FF800CE5082401F508E5093439
:1044CC0000F509C3E5089CE5099D503285080A856D
:1044DC00090B7403780A12188EEA250AF8EB350BCF
:1044EC00F988828983A3A3A3A3A3A3125350EE65D7
:1044FC000A7003EF650B70BFE8FAE9FB80047A00E1
:10450C007B00802774F41218F87900EAA2E0501BA3
:10451C007508D27509817808121B0B7C047D007A12
:10452C00997B0E1208A674021218B77F040219CADE
:10453C00C082C0839002E712456F601C8882898319
:10454C00A3A3E06A7003A3E06B8882898370E8A35D
:10455C00A3A3A312500780047A007B00D083D082DF
:10456C00020122125ABEE8492274EE1218F874FCA9
:10457C001218A1EAFEEBFF851882851983E4F0A3DB
:10458C00F0EE2402125259EE240512478AEE24044E
:10459C00F50EEF124B6FE024FE603924FC604624CC
:1045AC00FE605224FE605E24FE700302468F24FEE1
:1045BC00700302470724FE700302471624FE7003A3
:1045CC0002472524FC700302473424FE7003024783
:1045DC00430247809003007417F0A3E41247A4121F
:1045EC000546024780851882851983AC82AD8312FB
:1045FC0008CA024750851882851983AC82AD831294
:10460C0008D0024750850C08850D0974021218EC6D
:10461C00AC82AD838508828509831250071207ECA2
:10462C008A0C8B0DAC0CAD0DEC4D6042E4F50CF529
:10463C000D780C121B0B750C00750D03780C121BEE
:10464C000B750C01750D03780C121B0B74081218EA
:10465C00EC121B22791612500112090C7408121854
:10466C00B7E9F50C700B124FFD12055E800F750C3F
:10467C0001850882850983124792125275850C08B0
:10468C0002475374021218ECAC82AD83850C828500
:10469C000D831250071207EC8A108B11AC10AD1160
:1046AC00EC4D6043850C82850D83A3A3121B2275F0
:1046BC0010007511037810121B0B75100175110386
:1046CC007810121B0B74081218EC121B227916129C
:1046DC00500112090C74081218B7E9F509700B1285
:1046EC004FFD120564800F750901850C82850D83C1
:1046FC00124792125275850908804C8518828519CB
:10470C0083AC82AD831208D6803A851882851983D2
:10471C00AC82AD831208DC802B851882851983ACA2
:10472C0082AD831208E2801C851882851983AC82C5
:10473C00AD831208E8800D851882851983AC82AD93
:10474C00831208EEE9F508E50860298E828F83A3B1
:10475C00E06414601F850E82850F83E090030012C5
:10476C00479C125ABA900301125275E508A31247DE
:10477C00A4120540EEFAEFFB12086A025161F50C27
:10478C00EF3400F50D22125ABE851882851983224A
:10479C00F085188285198322F07C007D03850A82BE
:1047AC00850B8312500B2274EE1218F874FC12183D
:1047BC00A18A0A8B0B8C0E8D0FEA2405F508EB34BD
:1047CC0000F5097C157D0079007A007B03121086B8
:1047DC00E5082402F50CE50912478D851882851928
:1047EC00838582108583117810121B0B85088285B6
:1047FC000983A3A3A3A3124CB7121B0BE508240532
:10480C00F510E5093400F5117810121B0B850C829C
:10481C00850D831250111207E674061218B78A1010
:10482C008B11AE10AF11E50A2402F50AE50B1252FA
:10483C005CEE4F7003024979801774021218EC1267
:10484C00500788828983EAF0A3EBF0900300E00420
:10485C00F0900300E0C394054003024979E4F5109D
:10486C00F5117810121B0B7510E9751102781012E6
:10487C001B0B7510EA7511027810121B0B740612C3
:10488C0018EC121B227910EEFCEFFD1250011209EC
:10489C000C74081218B7E9705E850882850983A329
:1048AC00A3A3A3A3A3A3E0F89002E9E068704812C5
:1048BC004CB7121B0B7CEA7D02E5082408FAE509CB
:1048CC003400FB12108074021218B7E960298E8232
:1048DC008F83A3A3A3A3125007900300E0F51074D9
:1048EC0002781012188E74012510F582740335119C
:1048FC00F583EAF0A3EBF074021218EC85821085B4
:10490C0083117810121B0B74021218EC121B2285E7
:10491C000C82850D83125ACF1207F274041218B749
:10492C008A108B11AE10AF11900300E0F5107511C9
:10493C00007402781012188E74002510F874033568
:10494C0011F988828983A31244A5700302483DE8BB
:10495C002403F8E93400F9EE4F60030248468882DC
:10496C00898374FFF0A3F0900300E004F09003003F
:10497C00E0600A124FFD1205527900800B85088207
:10498C0085098312526C790A02516174EA1218F883
:10499C0074FE1218A18C128D13EA2405F50CEB127F
:1049AC005C39124417750800750900EA2402F510E9
:1049BC00EB3400F51185188285198385820A85836D
:1049CC000B780A121B0B850C82850D83A3A3A3A362
:1049DC00124B79121B0BE50C2405F50AE50D12524E
:1049EC005C780A121B0B850C82850D83125ACD1232
:1049FC0007E674061218B78A0A8B0BEA450B70038C
:104A0C00024B2AEA2404F50EEB124B6F1244178A60
:104A1C00828B83A3A3A3E0F98510828511831250A6
:104A2C00071207D4E9F5096003024B2AE4F514F5E3
:104A3C00157814121B0B7514E97515027814121BDA
:104A4C000B7514EA7515027814121B0B74061218E8
:104A5C00EC121B227913AC0AAD0B851082851183E5
:104A6C0012500712090C74081218B7E9F509600303
:104A7C00024B2A9002E9E0F8E5087009E024029064
:104A8C000301F08017900301E0FCE82402FAE434FF
:104A9C0000FBEA6C7001EB6003024B2E850882AAC6
:104AAC0082124CAE9414124CA65073850E82850F54
:104ABC0083E0C0E074022A124B66D0E0F005088552
:104ACC000E82850F83A3E0C0E085080A7402250AD4
:104ADC00124B66D0E0F005089002E9124B79121BDC
:104AEC000B7CEA7D0285080A7402250AFA740334E9
:104AFC0000FB12106E74021218B79002E9E0250840
:104B0C00F50874FF6E700374FF6F6012EE24010ED3
:104B1C00EF3400FFE508C3941450030249C1E508C3
:104B2C006013124EF2851082851183125007120504
:104B3C005879008014E509700375090A851282857D
:104B4C001383EEF0A3EFF0A90974021218B77F0ECD
:104B5C000219CA85080C7402250CF5827403340002
:104B6C00F583223400F50F850E82F583221257FC53
:104B7C002274EE1218F874FE1218A18C0E8D0FEA26
:104B8C002405F50CEB12478D750B00900300E4F037
:104B9C00F50AEA2402F508EB3400F5098049900384
:104BAC0000E0FA9002E9E0F8124CAE9417124CA611
:104BBC00400D900300E0F87416C3989002E9F012CF
:104BCC004CB7121B0B7CEA7D0274012AFA74033475
:104BDC0000FB12106E74021218B79002E9E0F89004
:104BEC000300E028F0050AE50C2416F582E50D1209
:104BFC004B6AE0F8E50AC3984003024C8F9003001F
:104C0C00E0C39416507DE50AC333F8E433F9E50CA0
:104C1C0028FEE50D39FF851882851983AC82AD839A
:104C2C008E828F831250071207EC8A108B11AC10F6
:104C3C00AD11EC4D7005750B018043E4F510F511C9
:104C4C007810121B0B7510E97511027810121B0BE2
:104C5C007510EA7511027810121B0B74061218EC01
:104C6C00121B2279168508828509831250071209B6
:104C7C000C74081218B7E9F50B7003024BAA125208
:104C8C006880107C007D038508828509831250079B
:104C9C0012056AA90B7402025163E99400C365D032
:104CAC003322EA28F8E43400F9E822E0F510751113
:104CBC000078102274EA1218F874FC1218A18A0CED
:104CCC008B0D8C128D13EA2405F50AEB12525C75D0
:104CDC000800750900E50A2402F510E50B3400F50F
:104CEC001174021218EC85820E85830F780E121B3C
:104CFC000B850A82850B83A3A3A3A31257A8121BAF
:104D0C000BE50A2405F50EE50B3400F50F780E12B1
:104D1C001B0B8510828511831252621250011207EF
:104D2C00E674061218B78A0E8B0FAE0EAF0FE50C99
:104D3C002402F50EE50D3400F50F8040888289833E
:104D4C0074FFF00508124B5F74FFF005089002E940
:104D5C00E0F50C750D00780C121B0B7CEA7D0285BE
:104D6C00080C7402250CFA74033400FB12106E74D8
:104D7C00021218B79002E9E02508F508EE4F6071B1
:104D8C008E828F83A3A3A3E0F9850E82850F8312F5
:104D9C0050071207D4E9F509EE240412478AE9708A
:104DAC0044E4F514F5157814121B0B7514E97515FC
:104DBC00027814121B0B7514EA7515027814121B69
:104DCC000B74081218EC121B227911EEFCEFFD8506
:104DDC000E82850F8312500712090C74081218B733
:104DEC00E9F5096027850C82850D83124EE8125275
:104DFC0075E5087003024ECE124EF2850E82850FB9
:104E0C00831250071205707900024EE3850882AABE
:104E1C0082EA9002E97009E02404900301F08022F8
:104E2C00E0F8900301E0F514E82404FCE43400FD00
:104E3C00EC65147001ED70C0124CAE9412124CA6BD
:104E4C0050B6850C82850D83E0C0E074022A124BAB
:104E5C0066D0E0F00508850C82850D83A3E0C0E0E8
:104E6C00124B5FD0E0124F0485820C85830D780CB9
:104E7C00121B0B74041218EC121B22851082851164
:104E8C0083125ACF1207F274041218B78A0C8B0DC6
:104E9C00AE0CAF0D85080C7402250CF874033400AD
:104EAC00F9EE4F7003024D48851882851983E0880E
:104EBC00828983124F04A3E0C0E0124B5FD0E00262
:104ECC004D56E509700375090A850A82850B831214
:104EDC004EE8125275A9097404024B57125ABE853A
:104EEC00128285138322900301E0F5F0E50884908B
:104EFC000300F07C007D0322F005088518828519DB
:104F0C00832274EC1218F874FE1218A18A088B090B
:104F1C008C0E8D0FEA2405FEEB3400FF851882857C
:104F2C001983AC82AD838E828F831250071207ECEB
:104F3C008A0A8B0BEE241812478AEA450B7003027F
:104F4C004FD812514A503285188285198312500756
:104F5C001209008A108B11EA4511606B7912AC0AA8
:104F6C00AD0B850882850983125007851082851147
:104F7C00831218F6E9F50A7058E4F50AF50B780A6D
:104F8C00121B0B8E828F83A3A3E0F50A780A121BE7
:104F9C000BEE2403125259780A121B0B8E828F834C
:104FAC0012501112091274061218B7E9F50A702181
:104FBC00850C82850D83E0701F850882850983121C
:104FCC0050071205768011750A0E8009750A01804A
:104FDC0004E50A6003125268850C82850D83E0603B
:104FEC000479008002A90A74021218B77F0C021906
:104FFC00CA7C007D03850A82850B8312500B22E04C
:10500C00FAA3E0FB22E0FCA3E0FD8508828509837E
:10501C0012500B2274EE1218F874FE1218A18A08A2
:10502C008B098C0C8D0DEA2405FEEB3400FF750EFC
:10503C0000851882851983AC82AD838E828F831292
:10504C0050071207EC8A0A8B0BEA450B70030251CE
:10505C003612514A50358518828519831250071221
:10506C0009008A0E8B0FEA450F605E7912AC0AAD0F
:10507C000B850882850983125007850E82850F8364
:10508C001218F6E9F50E600302513985088285097C
:10509C0083125350AA0AFB1208F48A108B11A81021
:1050AC00A911E849701E7AFF7BFF1208F48A108B55
:1050BC0011A810A911E849606C88828983E50AF06F
:1050CC00A3E50BF0750A008007750E0E805F050ACC
:1050DC009002E6E0FAE50AC39A504AE50A75F01721
:1050EC00A4FAABF088828983A3A3E02AFAA3E03B5D
:1050FC00FB8A828B83125262EC4D70D2750A177543
:10510C000B00780A121B0BEEFCEFFD12106E7402F2
:10511C001218B7EEFCEFFD85088285098312500743
:10512C0012057C8014750E098003750E01125AB697
:10513C00850C82850D83125275A90E024CA1E508CF
:10514C002402F508E5093400F5098A828B83A3A3B0
:10515C00A3E0A2E52274041218B77F0A0219CA74DC
:10516C00EC1218F88C108D11EA2405F50CEB124793
:10517C008D750F00EA2402F50AEB12525C850A8247
:10518C00F5831250071208F48A088B09EA45097056
:10519C000302524E750E008071850C82850D83E0E2
:1051AC006401704F8E828F83A3A3121B228E828F79
:1051BC0083A3A3A3A3E0F5127513007812121B0BA3
:1051CC00EE2405F512EF3400F5137812121B0B12B6
:1051DC00500112091274061218B7E9F50F60148504
:1051EC000C82850D83E4F0125AB6851082851183EA
:1051FC001252757C177D007900EEFAEFFB121086C7
:10520C008E828F83E4F0A3F0050E9002E6E0F8E5C1
:10521C000EC398501EE50E75F017A4F8A9F085087A
:10522C0082850983A3A3125C43125262EC4D600386
:10523C000251A585088285098374FFF0A3F0E50F60
:10524C007006125001120582A90F024FF8F50AEFF1
:10525C003400F50B22A3E0FCA3E0FD228E828F83A9
:10526C00125ABE850E82850F83E8F0A3E9F022C0A6
:10527C0082C0839002E2E06A7003A3E06B70067A4E
:10528C00E27B0280047A007B00024568C082C08306
:10529C0078008C828D83E06A7003A3E06B7010E859
:1052AC0075F003A4F8A9F0EC28FAED39FB80150889
:1052BC008C828D83A3A3A3E06A7003A3E06B60DFF1
:1052CC007A007B0002456874F61218F81208BE8A40
:1052DC00828B83E582458370067A007B008007A36E
:1052EC00A3A3A312500702596774F21218F8E9FE2F
:1052FC00740E1218EC12535074101218EC1257C88A
:10530C008C828D83E064027036A3125AC4F50CA310
:10531C00E0F9A80C74026870037429697021750C8B
:10532C0002750D00780C121B0B7808121B0B780AF7
:10533C00121B0BEEF912093674061218B78002799B
:10534C00010259EBE0F50AA3E0F50B2274E8121800
:10535C00F874FB1218A1E9851882851983F08A1656
:10536C008B17ECFEEDFF751000741D1218EC125A21
:10537C00BA741D1218EC1252758E828F83A3A3A3DC
:10538C00E0A2E4502D741D1218EC12500712090003
:10539C008A828B83E58245837003025799790AEEE2
:1053AC00FCEFFDAA16AB171218F6E9F51060030214
:1053BC00579C741F1218EC1257C874211218EC1257
:1053CC00535074231218ECE0F50EA3E0F50F8E8207
:1053DC008F83E064026003025747A3125ABA850810
:1053EC0082850983A3858212858313EE24061247D6
:1053FC008A88828983E0FAA3E0F9EA2400F514E4B0
:10540C0039F5157814121B950100002801283C541D
:10541C0007000228015503286E540029385601292B
:10542C00635602290456032938560429E256475775
:10543C00E50E450F6003025742850C82850D8312E1
:10544C0057BDFAE9FB8A828B83E0850A82850B8340
:10545C001257F3121B0B8A828B83A3E0FCA3E0028E
:10546C0056CCE50E450F6003025742850A82850B28
:10547C00837401F01257D0850882850983F07C0073
:10548C007D008E828F83A3A3A3A3E02401FAA3E063
:10549C003400FB1207ECEA4B60418A828B83E024D8
:1054AC0002F8850A82850B83E028F0EA2404F8EBE5
:1054BC003400F988828983E085128285138312581F
:1054CC00051257F3121B0B8A828B83125261E5086B
:1054DC002403FAE5093400FB0256D1850A82850BB8
:1054EC0083E02404F07C047D007900AA12AB131233
:1054FC00108602579CE50E450F6003025742125767
:10550C00D0FEA3E0FF850A82850B837404F0EE8540
:10551C000882850983F0EF851282851383F074036A
:10552C001218ECAC82AD83EEFAEFFB1207EC8A0C8E
:10553C008B0DEA450D70030255E58A828B83A3A37C
:10554C0012441374011218EC85820E85830F780EA9
:10555C00121B0B74051218EC121B227CFF7DFF1220
:10556C0007F274041218B78B0FEA450F7033850CD1
:10557C0082850D831257A8121B0B850C82850D8317
:10558C00A3121B227C027D007A9C7B8212061E7465
:10559C00041218B7E9700A74011218EC74FFF0A326
:1055AC00F08E828F83E064027039750C02750D00E9
:1055BC00780C121B0B8E828F83125261E508240427
:1055CC00FAE5093400FB12106E74021218B7850A42
:1055DC0082850B83E02402800974011218ECEEF032
:1055EC00A3EFF074011218EC1257B9F074011218F1
:1055FC00ECA31257B102573CE50E450F600302575E
:10560C0042850C82850D83125262AA16AB171209C1
:10561C002A850A82850B837402F0EA850882850943
:10562C0083F0851282851383EB02573FE50E450FFD
:10563C0060030257421257D0F8A3E0F9850A82851D
:10564C000B837402F0E8850882850983F0E98512E2
:10565C008285138302573F850C82850D8312500778
:10566C00121068EAFC8C82A882C3950EE4950F4058
:10567C005FE8650E7002E50F70047C0080228518CF
:10568C0082851983E0FAE50E2AFAE50F3400FBC394
:10569C00EA98EB94005003E08005E50ECCC39CFC2B
:1056AC00EC850A82850B83F08C0A750B00780A1244
:1056BC001B0B850C82850D83E0250EFCA3E0350FBA
:1056CC00FDAA08AB0912106E74021218B702579C8F
:1056DC0075100702579CE50E450F705A850C828594
:1056EC000D83125ABA850A82850B83740712441FE4
:1056FC001257B112441FA3E0851282851383F0E880
:10570C002402FAE93400FB8A828B831257B11257B8
:10571C00E01257B9A31257E91257C2F0E82405F862
:10572C00E93400F9888289831257C2A3125805A361
:10573C00A3A3A3F0805A75100B8055741D1218EC9E
:10574C001250071208BE8A828B83E5824583603D26
:10575C00125ABA880C890DE8450D6031780E121B6F
:10576C000B780A121B0B7808121B0B74061218EC20
:10577C00E0F9EEFCEFFDAA16AB17850C82850D83C4
:10578C001218F674061218B7E9F510800375100E8E
:10579C00A91074051218B77F100219CAE0F50E751E
:1057AC000F00780E22E08508828509832212580F9B
:1057BC0022125ABEE82212580FA3A322E0F508A326
:1057CC00E0F50922850C82850D83E0F8A3E0F583D2
:1057DC008882E022A3A3F08A828B83A322F08882A2
:1057EC008983A3A3A3A322F08A828B831257FC2262
:1057FC00E0F50A750B00780A22F088828983A312DF
:10580C00580F22E0850882850983A3A32274EE1227
:10581C0018F874FE1218A18A0A8B0BECFAEDFB74C3
:10582C00141218ECE0F510A3E0F51174161218EC34
:10583C00E0FE74181218ECE0F50EA3E0F50F8518D5
:10584C0082851983AC82AD831207EC8A0C8B0DEA2E
:10585C00450D60498518828519831250071208BEC0
:10586C008A828B83E5824583602FA3A31257C8E5F8
:10587C000845096024780E121B0B7810121B0BEED6
:10588C00F9AC0CAD0DAA0AAB0B8508828509831205
:10589C0018F674041218B78006790E80027901028A
:1058AC004CA174F61218F874FE1218A1740C12188C
:1058BC00EC1257BD851882851983F074011218EC0F
:1058CC00E9F0E4F508F5097808121B0B7508027865
:1058DC0008121B0B74041218EC8582088583097856
:1058EC0008121B0B12091274061218B77402121844
:1058FC00B7806874F71218F8EAFEEBFF89087C1978
:10590C007D0312092AEA5402600BA908EEFAEFFB98
:10591C001207E08002790102431B74F61218F87426
:10592C00FF6A700374FF6B70168C828D8312596C36
:10593C00E4F08C828D83A3A3A312596CA38018125C
:10594C0008FA8A088B09A808A909E849600D888219
:10595C00898374FF12441DA3A3E4F07F020219CAC9
:10596C0074FFF0A3F08C828D83A3A32274F612181B
:10597C00F81208FA8A828B83E58245836006A3A31A
:10598C00E0FA80027A007B0080D174F21218F88A57
:10599C00088B09ECFEEDFF740E1218ECE0F50A1200
:1059AC0008FA8A0C8B0DA80CA90DE8497026EEFCA0
:1059BC00EFFD7AFF7BFF1208FA8A0C8B0DA80CA95D
:1059CC000DE84970047911801688828983E508F006
:1059DC00A3E509F088828983A3A3E50AF079007F07
:1059EC00060219CA74EE1218F8EAFEEBFF8C088D49
:1059FC0009890C74141218EC125ABA74161218EC99
:105A0C00125007750D00E8496003025AAE74026526
:105A1C000C6003025AA974121218EC125AC4FCA39B
:105A2C00E0F9EC2400F50EE439F50FEAF4F8EBF4A8
:105A3C00F9EC58F8E50F59F9E849705CE5082406CB
:105A4C00F8ED3400F9880A890B8882F583125ACF55
:105A5C0012092A8A108B11E50E65107004E50F658A
:105A6C00116042780E121B0B850A82850B83125A29
:105A7C00CF12093074021218B7E9F50D7027780EA1
:105A8C00121B0B850882850983A3A3125ACD120918
:105A9C004874021218B7800D750D808008750D0DB5
:105AAC008003750D0BA90D0251668E828F83125ADD
:105ABC00BE22E0F8A3E0F922125ABE88828983E064
:105ACC0022A3A3E0FCA3E0FDEEFAEFFB2274E812A4
:105ADC0018F874E71218A1851882851983EAF0A3C7
:105AEC00EBF08C168D17890E750800750900743152
:105AFC001218ECE0F512A3E0F51374331218ECE075
:105B0C00F514A3E0F51574351218ECE0F50FE50962
:105B1C0075F003A4F8A9F0851882851983125C43EB
