:020000040000FA
:0600000002010A02248B3C
:03002B00022903A4
:030033000228E5BB
:03003B0002292473
:03004300022899F7
:030053000224FE86
:03006B000228BFA9
:100083000222F7E5C754F84401F5C77901220000BD
:100093000080FB120086B900030200F4E4792178A2
:1000A30008B800028004F709D8FCE479297802B87B
:1000B30000028004F709D8FCE49002817863790C8C
:1000C3008002F0A3D8FCD9FA900DE3AA82AB839007
:1000D300013A780779058015E493A3AC82AD838A4E
:1000E300828B83F0A3AA82AB838C828D83D8E9D9D8
:1000F300E77582477583CE740312011C758291756F
:100103008300740012011C75D00075813F7518813E
:10011300751902759F00020096C09FF59FE473D086
:100123009F22D083D082C09FE493C0E0740193C028
:10013300E0740293F59F22FF0000B400002800281A
:1001430000283075A000A000A000A000000800084F
:10015300E001F0001000100010001000100010006B
:1001630050005000500010001000D00700000000A5
:1001730000000F00010005003075070010000100AA
:1001830081FF00000000FF3E075C074407FF0202F7
:100193000208025000A0000000E80302A082010050
:1001A3000059820264820100003A0E025E8201005D
:1001B30000B3020264820100003B0E025C82010074
:1001C30000C9020264820100003C0E026C8201003D
:1001D30000CB020264820100003D0E028882080007
:1001E30000CC020264820100003E0E028082010004
:1001F300003F0EFF0100FF2002A082010000538296
:10020300026482010000A30E027C82000000000051
:1002130002608203000019030E0D0E0D0E0D0E0D6C
:100223000E0D0E0D0E0D0E0D0E0D0E0D0E0D0E0DF3
:100233000E0D900FA80F8A0FFFFF0200E2FF0200CE
:10024300E7FF0200F3FF0200F3FFFAFF07000300DA
:10025300F9FFFBFF07000400F7FF07000300090095
:1002630003000A000E0005000D0005000E00020247
:1002730002020202020202010D000000100102A0AC
:100283008201000050820264820100001A0F027092
:10029300820100009B070264820100001B0F0272AF
:1002A300820100006D810264820100001C0F027450
:1002B3008201000051810264820100001D0F027659
:1002C30082010000DF800264820100001E0F0278B9
:1002D30082010000CD800264820100001F0F027AB8
:1002E300820100009780026482010000200F027ED9
:1002F30082010000BB80026482010000210F02869C
:10030300820100005F81026482010000220F028AE1
:1003130082010000230F01E803053F100AFF0001DB
:100323003075030201060000000000000000000019
:1003330000000000000000000000000000000000BA
:100343000000FFFF0600800CE80384030F0013097D
:100353004F666669636577656C6C20233030303097
:100363006666051208000800020A0002010603027D
:10037300F1FF53696D706C6520424C4520506572E6
:100383006970686572616C0C15000018150A486184
:1003930072647761726520496E666F726D6174690C
:1003A3006F6E000A507265736574204865696768EB
:1003B300740002506F7374757265204A75646765C3
:1003C3006D656E74000A416374696F6E2052616ECD
:1003D30067650008436F6E74726F6C20436F6D6DB9
:1003E300616E6400125065736B205374617475738E
:1003F300000A4C6F636B2053746174757300025071
:100403006F77657275702054696D657374616D7073
:100413000000104865616C74682044617461000ACF
:100423004175746F6D61746963204D6F7665204407
:10043300617461000002A08201000056820264829E
:100443000100003910028E82030000A20D026282B5
:100453000100003A100264820100004F10029082F2
:10046300030000A60D0262820100005010026482A4
:100473000100005E10029282010000AE0D02628252
:100483000100005F10026482010000711002948277
:10049300030000B00D026282010000721002648248
:1004A3000100007F10029682020000B40D026282F6
:1004B3000100008010026482010000901002988203
:1004C300010000B50D026082030000B90D026282D3
:1004D30001000091100264820100009D10029A82C3
:1004E300030000BF0D0262820100009E10026482BD
:1004F300010000AA10029C82010000C40D02628266
:10050300010000AB10026482010000BE10029E8253
:10051300000000C80D026082030000D80D02628251
:10052300010000BF10026482010000CB100284822C
:10053300030000DE0D026282010000CC10120125CF
:10054300E5BD03120125FCBD031201252DBE0312D7
:10055300012568BE0312012592BE03120125BCBE0C
:1005630003120125D3BE03120125EABE031201259E
:1005730001BF031201252ABF031201253DBF031248
:10058300012553BF0312012566BF031201258DBF49
:100593000312012591D90212012595DA02120125D0
:1005A300CDDA02120125F0DA02120125FBDA02127A
:1005B30001251EDB021201252DDC0212012502DDBD
:1005C300021201257DDD0212012505DE021201253D
:1005D30040DE0212012577DE0212012505DF021239
:1005E3000125DEDF021201253EE00212012549E06A
:1005F30002120125C8E002120125CBE002120125F7
:10060300CEE0021201255DE10212012560E1021232
:10061300012590E102120125BAE102120125A8E2A7
:10062300021201255AE3021201259C9003120125AF
:10063300C49003120125F29003120125299103129C
:100643000125879103120125D291031201251D92E1
:10065300031201255D9203120125A39203120125C2
:10066300D192031201258E9303120125989303124D
:100673000125A59303120125D89303120125A49400
:1006830003120125B09403120125C8940312012516
:10069300D29403120125D7C903120125E5C9031218
:1006A3000125FDC90312012515CA03120125ADE079
:1006B3000112012559E101120125D4E1011201259D
:1006C300F5E20112012531E301120125DAE30112FA
:1006D3000125C1E40112012525E6011201257CE66D
:1006E30001120125FDE601120125EDE701120125A5
:1006F3003AE801120125C0E801120125F2E80112CE
:10070300012506EB0112012548EB0112012566EBD9
:1007130001120125E9EB01120125BDEC01120125AE
:1007230085ED0112012576F40212012549F5021225
:100733000125F2F50212012545F602120125F5F60F
:100743000212012581F7021201256DF8021201251B
:100753009CF802120125AFF902120125F7F90212E2
:100763000125CCFA0212012508FB0212012524FB04
:1007730002120125A4CC0312012555A6031201255B
:100783006BA60312012591A603120125ADA703123F
:100793000125B7A703120125ECA803120125E4A93B
:1007A30003120125758B03120125A58C0312012564
:1007B300D88C03120125228D03120125E98E031221
:1007C30001255BC101120125C5C10112012524C305
:1007D3000112012534C30112012561C30112012550
:1007E300B8C30112012561C40112012568C50112B4
:1007F300012532C60112012592C701120125D5C771
:10080300011201257AC801120125C7C80112012569
:10081300EDC801120125FBCA0112012500CB01120B
:10082300012505CD0112012552CD01120125C5CDAA
:1008330001120125F8CD011201259ACE01120125DD
:1008430043CF011201257BCF011201257ECF011277
:100853000125C6CF0112012506D0011201255DD065
:10086300011201253BB30312012553B303120125E2
:100873009BB303120125B1B303120125F8B303128D
:1008830001250CB50312012599B503120125E4B521
:1008930003120125A94500120125B54500120125C2
:1008A300F04500120125354600120125F5460012D8
:1008B30001257B4700120125E047001201250C4862
:1008C30000120125454800120125834A0012012523
:1008D300674C001201254D4E00120125904F001266
:1008E3000125DE5100120125F052001201253B546F
:1008F300001201254B5500120125685500120125F0
:10090300A35500120125C5550012012528560012D2
:100913000125E95A001201257E5B00120125CF5BF8
:1009230000120125F65B00120125485C0012012527
:10093300665C00120125C05C00120125A95D00124E
:1009430001251F5F00120125A35F001201255995A0
:1009530003120125639503120125A69503120125B0
:10096300C1950312012551960312012579960312AD
:100973000125B69603120125ED960312012516975C
:10098300031201258B9703120125A097031201255A
:10099300B59703120125E69703120125FA9703126F
:1009A30001251F98031201255998031201258598E3
:1009B300031201251199031201253C990312012504
:1009C300859903120125AF9903120125DA990312C0
:1009D3000125BBC50312012517B70212012545B72F
:1009E3000212012593B80212012573B902120125DF
:1009F30092B9021201250FBA0212012552BA02124C
:100A03000125A8BB0212012569BC02120125F0BE13
:100A13000212012591BF0212012587C0021201258E
:100A230084C102120125DEC20212012569C302122A
:100A3300012560C403120125C9C4031201251DC584
:100A43000312012544C50312012575C503120125AF
:100A5300029A031201256F9A03120125B69A031213
:100A63000125CE9B03120125CA9C03120125AD9DCE
:100A730003120125CBE3021201250DE40212012525
:100A8300DFE402120125B8E502120125B2E60212E3
:100A9300012594E702120125FDE702120125B3E8BF
:100AA3000212012527E90212012593E90212012509
:100AB300BCE90212012536EA02120125CFEA02122D
:100AC300012534EB0212012549EB021201258FEBBC
:100AD30002120125A8EB021201250DEC02120125D9
:100AE30010EC0212012542B0031201256AB0031271
:100AF3000125A8B00312012566B103120125CDB16A
:100B030003120125E9B10312012511B203120125D4
:100B130041B20312012550B203120125CDB20312D3
:100B23000125F3B2031201254AD10112012528D36D
:100B3300011201255AD50112012596D5011201256D
:100B4300C3D501120125ADD601120125F8D6011234
:100B5300012543D70112012555D70112012595D748
:100B630001120125CAD70112012518D80112012546
:100B730047D8011201256AD801120125B7D80112FD
:100B830001253CD90112012556DB0112012595DD12
:100B930001120125D6DD0112012578DF011201259D
:100BA300B9DF011201252CE00112012582E00112B7
:100BB300012502AA0212012500AB0212012599B1F7
:100BC30002120125BAB30212012585B502120125CD
:100BD300EDB6021201250A6000120125B960001268
:100BE3000125FF60001201253F6200120125D56334
:100BF300001201254F64001201256A6400120125C9
:100C0300E564001201253F66001201259F6700126B
:100C13000125A56800120125066A001201251F6A35
:100C2300001201257D6A001201256B6B001201255C
:100C33009E6B001201250E6C00120125886C0012B8
:100C43000125D26C001201259C6D00120125716EE5
:100C530000120125506F00120125DB6F00120125E0
:100C6300497000120125BD7000120125E8700012C1
:100C73000125A771001201250C73001201252973A8
:100C83000012012548730012012539740012012551
:100C93005E74001201258874001201250375001289
:100CA30001255D7500120125C676001201257477B2
:100CB30000120125B577001201252E9C0212012591
:100CC3007C9C02120125889C02120125669D02125A
:100CD3000125979D02120125C89D02120125489EF8
:100CE30002120125809E02120125D29E02120125C5
:100CF3000F9F021201252CA10212012552A30212F9
:100D030001253DA50212012527A702120125FC7F1B
:100D13000012012548AD0112012578AD011201250C
:100D230051B401120125D6B501120125D3BB01121D
:100D33000125BBBC01120125F8BC011201251BBD15
:100D4300011201254CBD0112012555BD01120125DA
:100D53005FBD011201254DBE0112012543BF0112E2
:100D63000125399801120125389C011201253E9C69
:100D73000112012579A30112012592A8011201256F
:100D8300EEA903120125E8AA031201255CAB0312A5
:100D930001259AAB031201250EAC0312012587AC82
:100DA3000312012590AC031201259CAC031201250B
:100DB300B1AC03120125EFAC0312012505AD0312FB
:100DC300012599FB02120125A6FB02120125C0FB96
:100DD30002120125FFFB021201253DFC021201252F
:100DE300A2FC02120125B7FC02120125C2FC021269
:100DF3000125CFFC02120125E6FC02120125F4FCB9
:100E030002120125FFFC021201250BFD021201252E
:100E13001AFD0212012525FD0212012548FD0212C9
:100E23000125EFFD02120125FFFD0212012519FE26
:100E33000212012536FE0212012552FE021201257D
:100E430077FE0212012582FE0212012597FE02128D
:100E53000125ABFE021201250CFF0212012512FF30
:100E63000212012518FF021201251EFF021201259D
:100E730036FF0212012569FF0212012505800212C5
:100E830001258980021201253881021201259782EA
:100E930002120125B88402120125A485021201253C
:100EA300D98502120125FB8502120125AA860212A9
:100EB3000125A28802120125CB88021201255D8932
:100EC300021201258F89021201259C890212012534
:100ED300F38902120125198A02120125868C021256
:100EE3000125898D02120125E18D021201259EEF54
:100EF30001120125A8F0011201258FF1011201252C
:100F030099F101120125BBF101120125C7F101126B
:100F1300012560F3011201258FF301120125ABF4C2
:100F23000112012504F5011201256AF601120125BA
:100F330049F701120125A5F70112012512F8011243
:100F430001254DF8011201258CF80112012545FBFD
:100F5300011201255FFB01120125EBFB01120125A3
:100F6300F9FB0112012552FC0112012560FC01125B
:100F73000125D3FC0112012537FD0112012581FD55
:100F830001120125EAC3021201250CC40212012534
:100F930032C60212012547C9021201255FCA021295
:100FA300012512CB02120125F4CB021201259FBFAA
:100FB30003120125C4BF0312012536C00312012504
:100FC300E57700120125EE7700120125F77700126D
:100FD3000125CE78001201257F7A00120125B57A0A
:100FE30000120125EF7A00120125257B001201254D
:100FF3005F7B00120125937B00120125BF7B00124A
:101003000125087C00120125427C001201258B7CFE
:1010130000120125E37C00120125187D0012012531
:10102300737D00120125AD7D00120125FE7D0012A6
:101033000125347E001201256E7E001201259C7E5F
:1010430000120125BF7E0012012564CB0312012586
:1010530090CB03120125EBCB03120125F5CB031231
:10106300012505CC03120125F48503120125FE8514
:10107300031201253C8603120125858603120125EF
:10108300BF86031201251987031201253A8703122C
:101093000125438703120125908703120125B98790
:1010A30003120125C387031201252F88031201258B
:1010B300C188031201250B890312012541890312FB
:1010C3000125CD89031201250E8A03120125458AC4
:1010D30003120125578A03120125768A031201257B
:1010E3007F8A03120125478B03120125D4C60312FD
:1010F3000125CBC7031201250AFE0112012540FE7B
:101103000112012576FE01120125C1FF01120125FD
:1011130028CD031201253ECD0312012548CD03122C
:10112300012592CD031201256F9E03120125849E92
:1011330003120125379F03120125779F031201250F
:10114300909F03120125CB9F0312012518A00312C0
:1011530001254AA0031201258CA00312012597A2A1
:1011630003120125E0C80312012509C90312012551
:1011730038C90312012550C90312012592C903126C
:101183000125982900120125F229001201259F2A21
:1011930000120125982B00120125402C0012012575
:1011A300472D001201255C2D00120125342E00125B
:1011B3000125532E00120125EB2E00120125F62FD7
:1011C300001201252830001201257B300012012571
:1011D300823100120125D635001201256E36001228
:1011E30001254037001201259A3700120125D03717
:1011F300001201254F3800120125DB3800120125AA
:10120300503900120125F93900120125113A001253
:1012130001253F3A00120125893A001201258E3B30
:1012230000120125CC3D0012012538400012012592
:10123300864100120125A24200120125B04200128C
:101243000125F04200120125B243001201250B448F
:10125300001201253C4500120125664500120125B7
:101263000EB60312012533B6031201255DB6031230
:101273000125F1CD03120125A38201120125088561
:1012830001120125A986011201255D87011201259D
:10129300F087011201257588011201259A88011230
:1012A3000125F08B01120125768C01120125A98DF0
:1012B30001120125E38D01120125188E011201256A
:1012C300D88F011201253590011201257E9001125C
:1012D3000125E990011201255A91011201258C91F2
:1012E30001120125A49101120125ED92011201259C
:1012F300FD92011201251894011201253A9401125D
:101303000125709401120125249601120125B1963D
:1013130001120125F09601120125149801120125ED
:10132300AECA03120125BFCA031201259ACE0312C6
:101333000125D9CE03120125E6FF021201255F7FA5
:10134300001201256F7F001201258A7F00120125FB
:10135300F27F00120125DCC70312012561C80312C5
:101363000125C7C803120125E6C2031201250FC3D5
:10137300031201257AC303120125CBC303120125EE
:1013830026C403120125DAB803120125EFB80312AC
:1013930001250BBA031201257FBA0312012599BA5D
:1013A30003120125B0BA03120125C3BA03120125A2
:1013B300DDBA03120125F4BA031201251ABB031285
:1013C30001256BBB03120125A4A203120125BBA2B5
:1013D3000312012535A30312012519A403120125C4
:1013E300F0A50312012535AD03120125C5AD031286
:1013F300012535AE03120125C6AE03120125CFAE7A
:10140300031201254DAF0312012560AF031201251D
:10141300CCAF031201252CB0031201253FB00312F8
:1014230001250FCC031201257ECC0312012589CCA3
:101433000312012599CC0312012544C1031201258E
:1014430096C10312012520C20312012587C203128C
:101453000125A0BB03120125CABB0312012598BCB9
:101463000312012573BD0312012534EC0212012579
:10147300FBEC0212012532ED021201255CED021292
:101483000125BCED0212012512EE0212012577EEB1
:10149300021201250FEF021201251EF0021201258F
:1014A300B5F10212012542F202120125A9F202123C
:1014B3000125C0F202120125DAF30212012518F404
:1014C300021201252F8E02120125B091021201256D
:1014D3003893021201258F9302120125AE93021253
:1014E30001252C9402120125C29502120125A7960B
:1014F30002120125B59A021201258B9B02120125C6
:1015030018CF02120125ABD2021201257ED302129B
:101513000125B2D40212012593D702120125F6D870
:10152300021201257DD90212012500800312012533
:101533005080031201256D800312012504820312DA
:1015430001258E82031201258A8303120125BB859F
:1015530003120125E3CE031201250FCF03E06670CA
:101563001008A3E066700A08A3E066700408A3E00D
:101573006622C3E7960809E7960809E7960809E78C
:101583009622C3E09608A3E09608A3E09608A3E09A
:101593009622C008C3E096F50808A3E0964208081F
:1015A300A3E096420808A3E09645087001D3D0084B
:1015B30022080808E630E71112179D1215CC080817
:1015C30008C64480C618181822181818E9799EC648
:1015D30008CAC608CBC608CCC6C370207996CACB46
:1015E300CC7019798ECBCC70137986CC700EF980C0
:1015F3002ACA33CACB33CBCC33CC331930E7F2CC42
:10160300CBCA3350147004EA30E00DE4CA3ACACBB3
:101613003BCBCC3CCC500209C3E913C6CC182313F3
:10162300C6CB18C6CA18C6F922E6C33318461846ED
:10163300184622E7C33319471947194722E60846D4
:1016430008C3134608336002E633F422E709470967
:10165300C3134709336002E733F422121640601CB8
:1016630012164F601712162C70071216367001D31C
:1016730022C0D01216367006D0D0B322C32233D084
:10168300D0501430E0F6C3E7960809E7960809E757
:10169300960809E796B32220E0D5E6970809E6976E
:1016A3000809E6970809E697B322080808EAC0E0A4
:1016B300EBC0E086F0E7A4FA180986F0E7A42AFA5B
:1016C300180986F0E7A42AFA180986F0E7A42AFA8B
:1016D3001986F0E7A4FBE5F02AFA190886F0E7A4D7
:1016E3002BFBE5F03AFA190886F0E7A42BFBE5F0AB
:1016F3003AFA18180986F0E7A4C5F02BFBE43AFA86
:101703001908E7C5F0C6A426F6E5F03BFBE43AFA70
:101713001886F0E7A4F6E5F00826F6E43B08F6E4BD
:101723003A08F6D0E0FBD0E0FA22E4CFC0E0E4CE02
:10173300C0E0E4CDC0E0E4CCC0E075F020C3E63304
:10174300F608E633F608E633F608E633F618181813
:10175300EC33FCED33FDEE33FEEF33FFC3EC9709BF
:10176300ED9709EE9709EF97191919400FFFEC97B9
:10177300FC09ED97FD09EE97FE191906D5F0BEECAD
:10178300F709EDF709EEF709EFF7191919D0E0FC9E
:10179300D0E0FDD0E0FED0E0FF22181818E4C39695
:1017A300F608E496F608E496F608E496F622601640
:1017B300080808C6C313C618C613C618C613C61826
:1017C300C613C6D5E0EA2270090808082260161875
:1017D3001818C6C333C608C633C608C633C608C6F8
:1017E30033C6D5E0EA22E627F60809E637F6080904
:1017F300E637F60809E637F622E026F608A3E036D0
:10180300F608A3E036F608A3E036F622E026F00851
:10181300A3E036F008A3E036F008A3E036F022C3D5
:10182300E697F60809E697F60809E697F60809E643
:1018330097F622C3E096F008A3E096F008A3E0969B
:10184300F008A3E096F022E657F60809E657F608F3
:1018530009E657F60809E657F622E056F608A3E02C
:1018630056F608A3E056F608A3E056F622E056F033
:1018730008A3E056F008A3E056F008A3E056F022D0
:10188300E647F60809E647F60809E647F60809E6D3
:1018930047F622E0F608A3E0F608A3E0F608A3E083
:1018A300F622E6F008A3E6F008A3E6F008A3E6F0C4
:1018B30022E0FAA3E0FBA3E0FCA3E0FD22EAF0A30D
:1018C300EBF0A3ECF0A3EDF022CAC0E0E6F0A3082E
:1018D300DAFAD0E0FA22CAC0E0E0A3C582CCC5821E
:1018E300C583CDC583F0A3C582CCC582C583CDC5D1
:1018F30083DAE6D0E0CA22C3E498F8E499F912192E
:101903003B8026C3E49AFAE49BFBE920E7E912193A
:101913003BE498F8E499F922C3E498F8E499F912BE
:10192300193BE498F8E499F9C3E49AFAE49BFB229F
:10193300EB20E7CFE920E7E0B90010BB0008E88A15
:10194300F084F8AAF022E4FBC8FA22EB70227B10A1
:10195300C833C8C933C9335007C39AC3DBF28006FF
:101963009A50012ADBEAC833F4C8C933F4C9FA220E
:1019730075F008E4C833C8C933C933C99AC99B5041
:1019830004C92AC93BD5F0ECFBC833F4C8E4C9FA4F
:1019930022600D08C6A2E713C618C613C6D5E0F326
:1019A30022600C08C6C313C618C613C6D5E0F422BA
:1019B300700422600D18C6C333C608C633C6D5E00B
:1019C300F41822251810AF08F518400215198008DD
:1019D300F51840021519D2AF22C0D0251810AF0850
:1019E300F518500205198008F51850020519D2AFF1
:1019F300D0D0222518F58210AF08F518400215192A
:101A03008008F51840021519D2AF851983222518CD
:101A1300F582E43519F58322E4732518C582C0E005
:101A2300E51934FFC583C0E0E518C3958224F81097
:101A3300AF088583198582188008858319858218E4
:101A4300D2AFCEF0A3E520F0A37808E608F0A3DE3A
:101A5300FAEFF0A3E58124FAF8E608F0A3E608F02C
:101A6300A3E608F0A30808E608F0A3E608F0A31528
:101A7300811581D0E0FED0E0F8158115811581E84C
:101A8300C0E0EEC0E0222518C582C0E0E51934FFAE
:101A9300C583C0E0E518C3958224F910AF08858398
:101AA300198582188008858319858218D2AFCEF0F4
:101AB300A3E520F0A37808E608F0A3DEFAEFF0A38D
:101AC300E58124FBF8E608F0A3E608F0A30808E69E
:101AD30008F0A3E608F0A315811581D0E0FED0E05D
:101AE300F815811581E8C0E0EEC0E02285198385F1
:101AF3001882E0A3FEE0A3F5207808E0A3F608DF50
:101B0300FAE0A3FFE0A3C0E0E0A3C0E0E0A3C0E0ED
:101B1300E0A3C0E0E0A3C0E010AF0885821885838E
:101B2300198008858218858319D2AFD083D08202A9
:101B33000122851983851882E0A3FEE0A3F52078AE
:101B430008E0A3F608DFFAE0A3FFE0A3C0E0E0A308
:101B5300C0E0E0A3C0E0E0A3C0E010AF08858218B6
:101B63008583198008858218858319D2AFD083D0E5
:101B73008222C0D02518C582C0E0E51934FFC58391
:101B8300C0E0E518C3958224F310AF088583198557
:101B930082188008858319858218D2AFC8F0A3E91B
:101BA300F0A3EAF0A3EBF0A37908E709F0A3D8FACE
:101BB300ECF0A3EDF0A3EEF0A3EFF0A3D0E0F0A3DD
:101BC300D0E0F0A3D0E0F0A3E520F0A3E5F0F0A38C
:101BD30022851983851882E0C0E0A3E0F9A3E0FA27
:101BE300A3E0FBA37808E0F608A3DFFAE0FCA3E098
:101BF300FDA3E0FEA3E0FFA3E0C0E0A3E0C0E0A3F9
:101C0300E0F5D0A3E0F520A3E0A3F5F010AF08853D
:101C130083198582188008858319858218D2AFD0ED
:101C230082D083D0E0F8D0E032740480067402805E
:101C3300027401C0E0F4041219F6D0E01218CC22A9
:101C43007404800474028000CCC0E0EDC0E0E518A9
:101C5300C39CCCAD1950011D10AF068C188D198093
:101C6300068C188D19D2AF1218D9D0E0FDD0E0FC44
:101C730022D083D082E9C0E0E493A3C386F0C5F009
:101C830095F0F908E493A386F0C5F095F0700BE4A2
:101C930093A3C3994005E9048002A3E475F002A469
:101CA3002582F582E5F03583F583D0E0F9E493A34B
:101CB300C0E0E493C0E022D083D082ECC0E0EDC06A
:101CC300E0E493A3FCE493A3FDED4C600D121D0629
:101CD300EC24FFFCED34FFFD80EFE493A3FCE493DD
:101CE300A3FDED4C600D121D45EC24FFFCED34FF0C
:101CF300FD80EFD0E0FDD0E0FCE493A3C0E0E493EB
:101D0300C0E022C0E0C3E4939608740193961840A0
:101D13000FE49366700808740193661870007019D5
:101D2300A3A3C3E49396087401939618A3A3400D49
:101D3300D0E0D0E0D0E0021CF6A3A3A3A3A3A3D0DA
:101D4300E022C0E0C0F088F0E493667008087401F4
:101D53009366187000A8F0A3A3700BD0F0D0E0D066
:101D6300E0D0E0021CF6A3A3D0F0D0E02274F51279
:101D73001A89EAFEEBFFEE2434F8EF3400F9880801
:101D83008909EE2435F582EF3400F583E0F8EE247B
:101D930037F582EF3400F583E0F50AEC850AF0A409
:101DA300FCAAF0850AF0EDA42AFDE82CF8E43DF93D
:101DB3007A257B0012193BEA850882850983F0F8AE
:101DC300740758F97401B900028004C333D9FCFACB
:101DD300E8131313541FF8EE28F8EF3400F9E8243E
:101DE3005DF582E93400F583E05A6008EE2434F5AA
:101DF30082EF802CEE2434F582EF3400F583E0C0CB
:101E0300E0EE2436F582EF3400F583E0F5F0D0E020
:101E130084A8F0EE28F8EF3400F9E82438F582E9D5
:101E23003400F583E0F97F04021B3574F5121A8937
:101E3300EAFEEBFFEE2434F582EF3400F583E0C0D5
:101E4300E0EE2435F582EF3400F583D0E0F08E82A6
:101E53008F83A3A3A3A3A3A3A3C082C0838E828FD4
:101E630083A3A3A3A3A3E0F8A3E0F9D083D082E0E4
:101E7300C398F508A3E099F509EE247FF582EF34C2
:101E830000F583E064017069EE2480F582EF34008D
:101E9300F583E0F8A3E0F98E828F83A3A3A3A3A322
:101EA300A3A3E0FCA3E0FD8E828F83A3A3A3A3A33C
:101EB300E0FAA3E0FBC3EA9CEB9D5010C3EC98ED62
:101EC30099402EC3EA98EB995027800EC3EA98EB0A
:101ED300994007C3EC98ED9940177CDC7D04EEFA3A
:101EE300EFFB120C6CEE247FF582EF3400F583E4F4
:101EF300F0EE2434F8EF3400F9E8FCE9FDEE243584
:101F0300F582EF3400F583E0F8EE2437F582EF3401
:101F130000F583E0F50AE508850AF0A4F508AAF0C0
:101F2300850AF0E509A42AF509E82508F8E4350946
:101F3300F97A257B0012193BEA8C828D83F0F874C1
:101F43000758F97401B900028004C333D9FCFAE8D5
:101F5300131313541FF8EE28F8EF3400F9E8245D47
:101F6300F582E93400F583E05A6008EE2434F58203
:101F7300EF802CEE2434F582EF3400F583E0C0E0EB
:101F8300EE2436F582EF3400F583E0F5F0D0E084FB
:101F9300A8F0EE28F8EF3400F9E82438F582E934A4
:101FA30000F583E0F9122885021E29C082C08385CB
:101FB3001882851983E0F8A3E0F9C3EA9CEB9D50EE
:101FC30010C3EC98ED99401BC3EA98EB9950148029
:101FD3000EC3EA98EB994007C3EC98ED9940047956
:101FE3000180027900D083D08222EAC39CFAEB9D60
:101FF300FB2274EF121A899003A2E064086005E0E3
:102003006407702A9061C8E060249003D0E0F46014
:102013001DE0F875F003A4C8AAF02AF974D228FECB
:10202300740339FF8E828F83A3A3A3E0700302217D
:1020330025906060E0C0E0EE2468F582EF3400F59F
:1020430083D0E0F0750C45750D0575080075090022
:10205300E5D914F50AE5D95403F50E601774036541
:102063000E605CE50A6010EE2467F582EF3400F53C
:1020730083E0700302210A900540E06401602AEEC8
:102083002482F582EF3400F583E060047804800253
:102093007800850A08E508C398FA95E0FB120B3A25
:1020A3008A088B09EA45097005120E5E8074EE24D6
:1020B30082F582EF3400F583E070048A0C8B0DE522
:1020C3000A6012850C82850D83F50BE5D9F0A31503
:1020D3000BE50B70F6EE2482F582EF3400F583E016
:1020E300604474FC250AF50A780C121C30AC0AA96A
:1020F3000EEEFAEFFB120D0874021219DCE97026DA
:10210300AA08AB09121440793D8E828F83A3A3A33F
:10211300A3E0FA7B00120A0EEEFAEFFB120C841214
:102123000D1A790080747403650E6056850A107564
:1021330011007810121C30AC0CAD0DAA08AB0912BB
:102143000CE474021219DCEE2468F582EF3400F516
:1021530083E064807004747F8001E0F50C780C12D6
:102163001C34E50EF50C780C121C34A90AAC08AD2E
:10217300099003D0E0FA7B001209D274021219DC31
:1021830080139003A2E06408600BAC0CAD0DEEFA73
:10219300EFFB120D74120E6A79017F0A021B35746C
:1021A300F5121A8974FC1219C6EAFEEBFF8908A21C
:1021B300AFE433F509C2AF806AEE2463F8EF34006D
:1021C300F97A007B00A2AFE433F50AC2AF888289B3
:1021D30083E0FCA3E0FDEC4D603A88828983E0FA5A
:1021E300A3E0FB8A828B83E0FCA3E0FD88828983E2
:1021F300ECF0A3EDF08A828B83E4F0A3F08882896C
:1022030083E0FCA3E0FDEC4D700A88828983A3A3DD
:10221300E4F0A3F0E50AA2E092AF1214409004E3C5
:10222300E004F0EE2463F582EF3400F583E0F8A3D5
:10223300E0F9E849603DEE2463F582EF3400F5836D
:10224300E02402FAA3E03400FBEA2402F50AEB34AB
:1022530000F50B780A121C308A828B83E0FCA3E022
:10226300F9EEFAEFFB120CA874021219DCE9700301
:102273000221BC9004E3E060639004E4E0F890047E
:10228300E3E0C398500C7402650870509004E5E0D5
:10229300604A8E828F83A3A3A3A3E0851882851946
:1022A30083F0A3E4F09004E3E0F87402121A11E857
:1022B300F0A3E4F09004E3E0F89004E2E028F07483
:1022C30002121A11AC82AD83851882851983AA8202
:1022D300AB8379011209DE9004E3E4F0E509A2E09F
:1022E30092AF74041219DC021E29000000852187B5
:1022F3008522C622C0E0C0D0E8C0E0E9C0E0EAC061
:10230300E0EBC0E0ECC0E0EDC0E0EEC0E0C008C030
:1023130009C00AC00BC082C083C0F0A2AFE433FE81
:10232300C2AF759B00906182E0A2E05012E591A2DA
:10233300E0500C7591FE740165217003121FF5E0E6
:10234300A2E55051E591A2E5504B7591DF9003A2B0
:10235300E064076005E0640870237401652170354B
:1023630079019003D0E0FA75F003A4CAA8F028FB22
:1023730074D22AFA74033BFB1221A28018E0640D85
:1023830070139003C4E004F064287002E4F07A0050
:10239300E0F9120E70906182E0A2E6400302243E4F
:1023A300E591A2E6400302243E7591BF9003A2E0AB
:1023B30064057008120D9E120DAA8003120DA475F8
:1023C3002100120DFEE99003A3F07900120DF21221
:1023D3000BE27A017B009003A1E0F91210C290781E
:1023E30003E064427055900544E014F0704DC2AFB1
:1023F3001223F600782AD0E0F618D0E0F6E59F54D1
:102403000770057509FF800375097FC4C0E078294B
:10241300E6F50808E65509F509740B78081219A4BE
:10242300D0E02508F8906270E0A2E740F8E8C333F3
:10243300906272F0906270E0D2E0F0906181E0A26D
:10244300E35009E5E9A2E3500375E9F7A3E0A2E746
:102453005009E591A2E7500375917FEEA2E092AF98
:10246300D0F0D083D082D00BD00AD009D008D0E0EE
:10247300FED0E0FDD0E0FCD0E0FBD0E0FAD0E0F904
:10248300D0E0F8D0D0D0E032C0E0C0D0C082C0836A
:10249300906183E0A2E05009E5BFA2E0500375BF5D
:1024A300FEE0A2E15009E5BFA2E1500375BFFDE0E4
:1024B300A2E25009E5BFA2E2500375BFFBE0A2E32D
:1024C3005009E5BFA2E3500375BFF7E0A2E450094A
:1024D300E5BFA2E4500375BFEFE0A2E55009E5BFF5
:1024E300A2E5500375BFDFE0A2E65009E5BFA2E60F
:1024F300500375BFBFD083D0828088C0E0C0D0E8CE
:10250300C0E0E9C0E0EAC0E0EBC0E0ECC0E0EDC051
:10251300E0C0F0E5A7A2E6500FE5A1A2E6500953FB
:10252300A7BF75A1BF122563E5A7A2E5500CE5A1DE
:10253300A2E5500653A7DF75A1DFE5A7A2E1500985
:10254300E5A1A2E1500375A1FDE5A7A2E2500CE5C8
:10255300A1A2E2500653A7FB75A1FBD0F00224749D
:1025630074F8121A897521019003A2E064067015AC
:10257300120D388A828B83A3A3A3A3A3A3E0FAA398
:10258300E0FB120D8CA2AFE433FED2AF9003A8E0C0
:10259300640170187A207B009003A1E0F912114CBA
:1025A3007A207B009003A1E0F91210C8906182E0C9
:1025B300D2E6F0900541E0602185C62280169003A3
:1025C300A7E064017008E5C654F84405F5C653BE98
:1025D300FC1222F07401652160E4EEA2E092AF7F69
:1025E30001021B35008E238F24858228858327854E
:1025F3001882851983E0CEA3E0CF852882852783BF
:10260300EBC9EAC8EDCBECCA75F010C3E833C8E9EF
:1026130033C9EA33CAEB33CBC3EA9EF526EB9FF506
:1026230025B35004AB25AA26EC33CCED33CDD5F03E
:10263300DAAE23AF242274ED121A898A088B098C2F
:102643000A8D0B7413121A11780C121896780879E4
:102653000C1215757510017511C8751200751300EC
:1026630050127808790C121822781079081215750F
:1026730050168010780C79081218227810790C12F1
:10268300157540047901800279007F0C021B3574B3
:10269300ED121A898A088B098C0A8D0B7413121A8E
:1026A30011780C121896780C790812157540117868
:1026B30008790C121822AA08AB09AC0AAD0B8022C8
:1026C3007510007511007512007513017810790CDF
:1026D300121822781079081217E9AA10AB11AC125C
:1026E300AD1380A68A828B837508FF7509FF750A6F
:1026F300FF750B0078081218707F04021B3574F500
:10270300121A898C828D8378081218968A828B8399
:102713007808121836EA2404F8EB3400F98C828D19
:1027230083A3A3A3A3E0FCA3E0FD88828983C3E082
:102733009CF0A3E09DF088828983C3E09420A3E00A
:10274300944E40268A828B837508FF7509FF750AAC
:10275300FF750BFF780812180F8A828B83A3A3A33C
:10276300A3E02420F0A3E0344EF00226E774F51230
:102773001A89E9FE9004F7E0FAA3E0FBEEC333F80D
:10278300E433F9743228F582748139F583E02AF54C
:1027930008A3E03BF5097808121C307A407B427CA1
:1027A3000F7D001225E874021219DC8A088B098C4C
:1027B3000A8D0B741078081217B1AA08AB097F04AD
:1027C300021B3574F1121A898A0C8B0D8C0E8D0F36
:1027D300740F121A11E0FAA3E0FB7411121A11E03C
:1027E300F508A3E0F5097808121C30EA2401F5087E
:1027F300EB3400F509E4F50AF50B780C79081216A9
:10280300AD750871750902780C79081216ADAA0C1A
:10281300AB0DAC0EAD0F1225E874021219DC8B0957
:10282300EA450960047A0180027A00EC2AFCED345F
:1028330000FD7413121A11E0F8A3E0F9E8FEE9FFB2
:10284300ECF8EDF97A717B0212193B880889098E3D
:10285300828F8378081218A5ECF8EDF97A717B0260
:1028630012193B8A088B09740578081219B38E82F2
:102873008F83A3A3A3A3E508F0A3E509F07F0802D0
:102883001B35C082C083E9906000F0D083D08222E0
:10289300C2AF02000022C0E074F2121B75A2AFE4C3
:1028A30033FED2AFC2C0E5D1A2E4500653D1EF123A
:1028B300141CEEA2E092AF7F01021BD4C0E074F2BD
:1028C300121B75A2AFE433FED2AFE589A2E1500338
:1028D300121380758900C2C5EEA2E092AF7F010298
:1028E3001BD4C0E074F2121B75A2AFE433FED2AF67
:1028F300E58BA2E05003121380758B00C2E880D8E9
:10290300C0E0C0D0E8C0E0E9C0E0E5A8D2AFC2C7EC
:10291300A2E7A2E792AFD0E0F9D0E0F8D0D0D0E0C0
:1029230032C0E0C0D0E8C0E0E9C0E0C008C009C0E0
:1029330082C083A2AFE433F9D2AF9008C3E0F8A317
:10294300E0687008539AFBA374018026C2E99008DB
:10295300C3E0F50874012508F074BF2508F58274F7
:10296300083400F583E0F5C19008C3E0C394044044
:1029730002E4F0E9A2E092AFD083D082D009D0087C
:0B298300D0E0F9D0E0F8D0D0D0E03276
:10299000FFFFFFFFFFFFFFFFC082C08390075FE0E4
:1029A000F8E94A6890075D603C7403F07410697040
:1029B00013EAC333FCE433FD74682CF58274073DDD
:1029C000F5838015E9702074016A70059009818093
:1029D0000874026A701190098312429C900762EC9D
:1029E000F0A3ED8001E4F08002A3F0D083D0820256
:1029F000012274F0121A1D74FE1219C68A088B097E
:102A00007E007F00EEF8EFF97A027B00121933E8BE
:102A1000C333F50EE933F50F7468250EF50C740712
:102A2000350FF50D850C82F583A385820A85830B0E
:102A3000851882851983AC82AD837A02EE248DF9E4
:102A40001214B8E9601B74C3250EF5827481350F2A
:102A5000F583124022850C82850D83E8F0A3E9807E
:102A60001A851882851983E0850A82850B83F074A4
:102A700001121A11E0850C82850D83F0E5082EF80D
:102A8000E509123720EE2402FEEF3400FFC3EE9476
:102A900008EF12394C5003022A047402022FEE741C
:102AA000F7121A1D74FE1219C6EAFEEBFF85188292
:102AB000851983AC82AD837A0279951214B8E960E6
:102AC00045900770E0600C1460142481601B146052
:102AD0001F802890098174BDF0A37404803C900984
:102AE000817403F0A37405803190098174E080053E
:102AF00090098174F5F0A37401801F90098174FF1F
:102B0000F0A3743F8014851882851983E0F974015D
:102B1000121A11E0900981F0A3E912371679971281
:102B200014B8E96041900770E0600C1460102481D3
:102B3000601714601F802790098374C68005900970
:102B4000837465F0A3740280319009837416F0A336
:102B50007401802690098374F5F0A3E4801C900929
:102B600083E4F0A38014851882851983E0F9740149
:102B7000121A11E0900983F0A3E9F0900982123152
:102B80007790098112306990098412306F9009831F
:102B90001230767402023B8674F7121A1D74FC120E
:102BA00019C6EAFEEBFF851882851983AC82AD83D6
:102BB0007A0479891214B8E9602D9007707401F0D5
:102BC00090097AC3E09458A3E09402500E900764F1
:102BD000E0640170069007707481F09007717402D0
:102BE000F0A3E4F0A38028851882851983E090077C
:102BF00071F07401121A11E0900770F07402121A49
:102C000011E0F97403121A11E0900772F0A3E9F0D1
:102C1000900770E0547F900FF87004741480027471
:102C20000FF0A3E4F0900771123177900770123023
:102C30006990077312306F900772123076023B84EE
:102C400074E8121A1DEAFEEBFF8C0A8D0B74181241
:102C50001A1178101218968E168F178E088F09EE9B
:102C60004F702F7A057B001211048A088B09AE0879
:102C7000AF098E828F83A3A3A3A3E4F08E828F83F8
:102C8000A3A3E50AF0A3E50BF08E828F83E4F0A303
:102C9000804EEA2404F514EB3400F5159082147884
:102CA000101217FC851482851583E0F50CE4F50DF0
:102CB000F50EF50F7810790C121575502A800488DE
:102CC000088909850882850983123DC670F17A0555
:102CD0007B00121104122D1E851482851583E004D9
:102CE000F0803288088909850882850983123DC6EB
:102CF00070F17A057B00121104122D1E8E828F83D3
:102D0000E0FEA3E0FF8514828515831243A3AA1673
:102D1000AB1712110AEEFAEFFB7F10021AEF8A0CC2
:102D20008B0DA80CA90D88828983A3A3E50AF0A3C3
:102D3000E50BF088828983E4F0A3F0850882850999
:102D400083E8F0A3E9F022C082C083123A6F8A823E
:102D50008B83F0900FF6122FE30229E974F4121A14
:102D60001D74FC1219C68908900778E06508700385
:102D7000022E2A851882851983AA82AB831211E854
:102D800090097CE0F50A75F005A4F8A9F07485288F
:102D9000FE740939FFE0C394C950198E828F8312E3
:102DA0003B761218B48E828F83A31218C090097CD0
:102DB000E004806B78007900E8FAE9FBEA75F00539
:102DC000A4FAACF075F005EBA42CFB74852AFC7416
:102DD000093BFD8C828D83A3A3A3A3A374051218C2
:102DE000D9E8240108E93400F9E50A24FFFAE434BB
:102DF000FFFBC3E89AE99BA2D265D03340BAEE2428
:102E0000FBF582EF34FFF583123B761218B4EE2403
:102E1000FCF582EF34FFF5831218C090097CE4F0D2
:102E2000E508900778F0790180027900740412199E
:102E3000DC024181C082C083900760C3E09489A313
:102E4000E094139007604005E4F0A38003123D94E2
:102E50000229EA74F7121A1D8908740F5508F874CC
:102E6000F05508600A24F0603424F06067806F90A9
:102E7000097DE0706990097EE0640260617401F090
:102E80007EF4FFE8601214600514600680507A0139
:102E900080027A0279008037121206804190097D03
:102EA000E0703B90097EE064026033E4F07EF47FE2
:102EB00001E8600B14600C14600D14600E801F7A22
:102EC00000800A7A0180067A0280027A0379101261
:102ED0001182800A90097F7401F07E007F00E5086E
:102EE00090075FF0EEFAEFFB023B8974F0121A1DB7
:102EF000EAFEEBFF908208121C4390077D124022ED
:102F0000758307758266E0C398FCA3E099FD90077E
:102F100079123DBD12119A74041219DC900779EAF6
:102F2000F0A3EBF07C007D0090077912402280072F
:102F3000E02CFCA3E03DFD88828983E5822402F831
:102F4000E5833400F9E8FAE9FB123DC68A828B83F7
:102F500070DEE02CF508A3E03DF509900764780CDD
:102F600012189690077B780C121560600C9007641D
:102F70007C7B7D0774041218D9900764780C1218B2
:102F80009690077F780C1215606047900783124077
:102F900022C3EE98EF99503A9007647C7F7D0774C6
:102FA000041218D9900783F0A3F07A04FB121104DD
:102FB000900764122FE3F0900765122FDEF0900760
:102FC00067122FDEA3F0900766122FDEA3A3F01284
:102FD000110A900783124033AA08AB098013122FFD
:102FE000E3A322E08A828B83221214B274041219A2
:102FF000DC7F08021AEF74F7121A1DECFEEDFFEAEF
:10300000C39EFAEB9FFB121236E9F50890076AE0BF
:10301000C39EFAA3E09FFB121236E965087004799B
:103020000280027901023B8974F6121A1D7A047B30
:10303000001211048A088B09AE08AF0990076412C8
:10304000317790076512306990076712306F9007EB
:1030500066123076EEFCEFFD7A047905121536EE35
:10306000FAEFFB12110A0238CA12317CA3F02212C5
:10307000317CA3A3F0221243A9F02274F6121A1D88
:103080007A087B001211048A088B09AE08AF091276
:103090001188EEFCEFFD7A087901121536EEFAEF91
:1030A000FB12110A7A057B001211048A088B09AE03
:1030B00008AF097C727D0D7A01799B1214B8E96022
:1030C00005900D72E4F0900D72123177EEFCEFFD79
:1030D0007A057906121536EEFAEFFB12110A7A0418
:1030E0007B001211048A088B09AE08AF09121194F3
:1030F000EEFCEFFD7A047900121536EEFAEFFB12C2
:10310000110A7A047B001211048A088B09AE08AFF9
:103110000912118EEEFCEFFD7A047903121536EEDA
:10312000FAEFFB12110A7A027B001211048A088B53
:1031300009AE08AF091211A0EEFCEFFD7A02790288
:10314000121536EEFAEFFB12110A7A057B00121106
:10315000048A088B09AE08AF09121242EEFCEFFD9B
:103160007A05790F121536EEFAEFFB12110A75C9BE
:103170000043C9080238CA12317CF022E08E828FE7
:10318000832274EA121A1D8910750A00750B007CDF
:10319000007D0079008911E51060351460142481E8
:1031A000601B1470407512F57513017514F58915BF
:1031B0008017751203751305751465801C7512E070
:1031C0007513017514167515019007857402801129
:1031D0007512BD7513047514C675150290078574B4
:1031E00004F0A3E4F0900980E0F5088909740378FD
:1031F000081219B385080E85090F74F6250EF50C13
:10320000740E350FF50D74E6250EF50E740E350FA0
:10321000F50FEAC333F508EB33F509C3EA9401125D
:10322000394B500302335A900762E0F514A3E0F5DE
:1032300015E512C39514F514E5139515F515C3E5B9
:10324000149414E5159400503009900762E0C3957A
:1032500012F50AA3E09513F50BE50A2414F50AE527
:103260000B340012351FE5129401E51312394C405E
:1032700006AC12AD13800289111235CAEA9512EB21
:103280009513A2D265D0335003023506E50C240213
:10329000F512E50D3400F513E50E2402F582E50F75
:1032A0003400F583E9A2E04049E51070030234558B
:1032B00014601B2481603814600302350A123546FD
:1032C000121933123DB21219331235138017EAF86E
:1032D000EBF9123DBD121933880A890BE508250A5E
:1032E000F8E509350BF985128285138302347902DA
:1032F000343312355E70030234C3146023248160BA
:103300005614600302350A12352E121933123DB2DB
:10331000121933880A890BEC250AFAED350B801750
:10332000ECF8EDF9123DBD121933880E890FE50A4C
:10333000250EFAE50B350FFB8512828513831242A9
:1033400094850CF0A4F8ACF0850CF0E9A42CF9EA13
:1033500028F8EB390234FB02349312394A40030255
:103360003506900762E0C39514F512A3E09515F5B4
:1033700013C3E5129414E5139400501B09E51224BD
:10338000ECF50AE51334FF12351F12394C5006AC28
:1033900012AD13800289111235CAE49512F512E4B8
:1033A0009513F513C3E5129AE5139BA2D265D033AA
:1033B0005003023506E50E2406F582E50F3400F5CC
:1033C00083E50E2404F50EE50F3400F50FE9A2E0C5
:1033D0005003023482E50C2406F8E50D3400F98828
:1033E0000A890BE50C2404F8E50D3400F9880C89F2
:1033F0000DE510606014601B2481603714600302C7
:10340000350A123546121933123DB21219331235EC
:10341000138017EAF8EBF9123DBD121933880C89B5
:103420000DE508250CF8E509350DF9850A82850BAF
:10343000838046123546121933E8FCE9FDECC333AC
:10344000FCED33FD850E82850F83123DBD121933CD
:10345000123513801DEAF8EBF9850E82850F831271
:103460003DBD121933880A890BE508250AF8E509DC
:10347000350BF9850C82850D83E028FEA3E0390227
:10348000350312355E603C14603F24816005147082
:10349000798006850E82850F83E0FEA3E0FF12355A
:1034A0002E121933E8FCE9FDECC333FCED33FDEEDD
:1034B000FAEFFB121933880A890BEC250AF8ED356F
:1034C0000B8023850E82850F83E0FEA3E0FFECF8DE
:1034D000EDF9EEFAEFFB121933880E890FE50A2594
:1034E0000EF8E50B350FF9EE850CF0A4FEAAF08579
:1034F0000CF0EFA42AFFE82EF8E93FF9E82508FED2
:10350000E93509FF80047E007F00EEFAEFFB7F0EB5
:10351000021AEF88088909EC2508F8ED350922F52B
:103520000BEAC3950AF512EB950BF513C322EC7564
:10353000F07FA4FCA8F075F07FEDA428FDECF8ED79
:10354000F97A327B0022EA75F07FA4FAA8F075F0D0
:103550007FEBA428FBEAF8EBF97A327B0022E51135
:10356000A2E0B3E433F50CE50A9AF8E50B9BF98584
:103570001108E88508F0A4F885F0118508F0E9A4A1
:103580002511F9EAC3950AFAEB950BFBEA850CF0D5
:10359000A4FA85F008850CF0EBA42508FBE82AF5D1
:1035A00008E93BF509E50875F003A4F508A8F075EE
:1035B000F003E509A428F5098C0A8D0BE50AC3334D
:1035C000F50AE50B33F50BE51022900785E0F512BF
:1035D000A3E0F513C32274F7121A1D74F61219C66C
:1035E000E9FEEAC333FAEB33FB74682AF874073B4D
:1035F000F988828983ECF0A3ED123B78F088828908
:1036000083E0C0E07401121A11D0E0123716EEF90F
:103610001214B27A007B00EAF8EBF9E8C333F8E958
:1036200033F97402121A11E58228FCE58339FD741E
:103630006828F8740739F988828983A3E08C828D21
:1036400083F088828983E08C828D83A31238CF94A3
:103650000412394B40C17402121A11AC82AD837A44
:10366000087901121536121212740A023B8674F0A0
:10367000121A1D74F61219C68A088B09750E007588
:103680000F00E50EC333FEE50F33FF74682EF50C13
:1036900074073FF50D850C82F583A385820A858327
:1036A0000BE5082EF582E5093FF583123DC660283B
:1036B000850C82850D83123D8985188285198312B8
:1036C0003737C0E07401121A11D0E0123716E50E38
:1036D000C333248DF91214B27402121A11E5822E2A
:1036E000F8E583123720E50E2401F50EE50F3400CE
:1036F000F50FC3E50E9404E50F12394C40847402B3
:10370000121A11AC82AD837A0879011215361212A1
:1037100012740A022FEE123B7CAC82AD837A022235
:103720003FF9850A82850B83E088828983123737C7
:1037300088828983A3F022F0850C82850D83E022A4
:1037400074EC121A1D8A0C751000751100751200A8
:103750007513007A00850C088B098C0A8D0BEA33EF
:10376000333354F878081217B190820C7808121885
:103770005D7403C39A33333354F878081217CA7848
:103780001079081218830AEAC3940440C8AA10AB3F
:1037900011AC12AD137F0C021AEF74F7121A1D74DC
:1037A000FC1219C6EAFEEBFF1210EC1210F2121115
:1037B000E28518828519831218C0851882851983BD
:1037C000EEFCEFFDECFAEDFB74041218D9023B8419
:1037D00074F4121A1D7A057B001211048A088B09F1
:1037E000AE08AF09740C121A111231777801790002
:1037F000C3E498FAE499FB740C121A11E5822AF5D5
:1038000082E5833BF583A3A3A3A3A3E0C0E0123921
:1038100041D0E01239DB40D8EEFCEFFD7A057906A5
:10382000121536EEFAEFFB12110A740C121A11E09F
:103830006018740D121A117808121896E5084509D7
:10384000450A450B700479018002790002418174B8
:10385000F6121A1D90097FE060707A107B00121139
:10386000048A088B09AE08AF09900787E075F00F4E
:10387000A4F8A9F0748528F8740939F91231779001
:103880000787E004F07A007B00E82AF582E93BF53F
:1038900083E0C0E0EE2AF582EF3BF583A3D0E0128F
:1038A00038CF940F12394B40E0EEFCEFFD7A1079DF
:1038B00008121536EEFAEFFB12110A900787E0C3E3
:1038C00094434006E4F090097FF07F02021AEFF083
:1038D000EA24010AEB3400FBC3EA2274F6121A1D33
:1038E00074FC1219C6851882851983AA82AB8312CB
:1038F00011E87A047B001211048A088B09AE08AF24
:103900000978007900851882851983E58228F58277
:10391000E58339F583E0C0E0123941D0E01239ED9A
:103920009404E912394C40DDEEFCEFFD7A0479078E
:10393000121536EEFAEFFB12110A74041219DC802C
:1039400089EE28F582EF39F58322C3EB1239E5229F
:1039500074F0121A1D74FC1219C6EAFEEBFF8E8277
:103960008F83E0900D72F01210EC7801790012391B
:1039700041E0C0E0851882851983E58228FAE58355
:1039800039FBEA24FFF582EB34FFF583D0E01239EE
:10399000DB40DB8518828519831218B41211E28A84
:1039A000088B098C0A8D0B1210F28A0C8B0D8C0E71
:1039B0008D0F7808790C1217E9900D777808121896
:1039C000A58518828519831218B4900D731218C03A
:1039D0007C727D0D7A01799B022FE91239ED9405F5
:1039E000E91239E5229400A2D265D03322F0E8240E
:1039F0000108E93400F9C3E822C082C08390097E3F
:103A0000E4F090075DF090075FF0900978F00229EC
:103A1000E9C082C0838A828B83A3E0F874816860E6
:103A20000D74016860087480686003E8700BEAFC3C
:103A3000EBFD7A0479891214B21211CA0229EBC083
:103A400082C08374FE1219C6123A6F8518828519D6
:103A500083F0900FF6E0C0E07401121A11D0E0126A
:103A60003716790212153674021219DC0229EB900E
:103A70000768124026A3E028F8A3E039C313F9E849
:103A800013900FF6F0A3E9F02274F7121A1D74F8E0
:103A90001219C6EAFCEBFD8C828D83E0C0E0740154
:103AA000121A11D0E0F08C828D83A3E085188285F4
:103AB0001983F0EC2402FEED3400FF8E828F83E048
:103AC000C0E07403121A11D0E0F08C828D83A3A39E
:103AD000A3E0C0E07402121A11D0E0123B78123D4C
:103AE000C6900981600C123D897A0279951214B250
:103AF000800C124022851882851983123D89740238
:103B0000121A11123DC69009836010123D89EEFC15
:103B1000EFFD7A0279971214B2800B1240227402E0
:103B2000121A11123D897401121A11E0C0E07404D6
:103B3000121A11D0E012439EC0E07405121A11D07F
:103B4000E0F07403121A11E0C0E07406121A11D0EA
:103B5000E0F07402121A11E0C0E07407121A11D0DA
:103B6000E0F07404121A11AC82AD837A0479031266
:103B7000153674088010E508123B7C22F085188207
:103B80008519832274041219DC7F01021AEF74F084
:103B9000121A1D900764E06401705D900766123D83
:103BA000AB123D89900788123DABE0687003A3E03B
:103BB000696039E849603990097AE0C398F508A34B
:103BC000E099F5093395E0F50AF50B78081215B47C
:103BD000E50BC2E7F50B908210780C121896780866
:103BE000790C12165E50099007888014E849701FFE
:103BF00012401F900788800BE06406600C900981DA
:103C0000123DABE8F0A3E9800590097E7402F090C4
:103C1000075DE0703F90075EE064037027C3900982
:103C200079123D8F5003023D65900978C3E09401FD
:103C3000A3123D8F4003023D3A75800053FD0F9063
:103C4000075E800CE07003023D8675800053FD0F17
:103C5000E4023D85F890075EE0687003023D019044
:103C6000075DE0146009146017146026023CF790A9
:103C7000097AC082123DA1D0821245355079802D3B
:103C8000900983123DBD12401FC3EA98EB9950671B
:103C90008035900981C082900762124022758309A5
:103CA000D082124535500F90098112402290076250
:103CB000E8F0A3E98018900983123DBD900762C324
:103CC000E09AA3E09B5008900762EAF0A3EBF09023
:103CD0000770E0F9900762C08290097A123DBD75C5
:103CE0008307D082E0C39AFAA3E09BFB1211D09025
:103CF0000978EAF0A3EBF090075DE090075E023DE3
:103D000085900978123DC6701675800053FD0F909E
:103D1000075DE4F090075FF090097E740280669082
:103D2000075DE014600514602A805B90097AC08208
:103D3000123DA1D082124535503F90097DE07006BA
:103D400043FDF0758040900978E024FFF0A3E03453
:103D5000FF8032900983C08212401F758309D08290
:103D6000124535501490097DE0700643FDF07580D2
:103D700080900978123D94800C75800053FD0F905F
:103D80000978E4F0A3F0022FF1E8F0A3E9F022E0D3
:103D90001239E522123D9822E02401F0A3E034001C
:103DA000229009811240267583092212402690092B
:103DB0007A22E8FCE9FDECC333FCED33FDE0FAA325
:103DC000E0FB22900766124026E84922C082C083A9
:103DD000E590540F90078AF090097EE0640170032B
:103DE00002401C90078AE0640F90097E702BE4F07B
:103DF00090075DF090078B740FF090078CE4F090C3
:103E0000075EE06403700990097DE0700302401CC6
:103E100075800053FD0F02401C7402F090097DE094
:103E2000600302401C90078BE0F890078AE06870FE
:103E300003023FB990075EE064037003023FA19064
:103E4000078AE024FD7003023F2524FE605024FE13
:103E5000603024FE7003023F5124FE7003023EEAEC
:103E600024FE6009147003023F94023FB09007647F
:103E7000E064067005123DC3701590075D74010281
:103E80003FAF900764E06406700C123DC36007907A
:103E9000075DE4023FAF90075D7402023FAF9007F9
:103EA00064E06406601E900768E0F47003A3E0F429
:103EB0007003023FB090075D7403F09007681240F2
:103EC00022023F6C123DC36003023FB01242997957
:103ED0008D7A007B001211D690097DE06003023FCD
:103EE000B043FDF07580C0023FB0900764E0640607
:103EF000600D90076A12402C706A74FF6980651229
:103F00003DC36003023FB0124299798F7A017B0072
:103F10001211D690097DE06003023FB043FDF075B9
:103F20008020023FB0900764E06406600590076C53
:103F3000802A123DC3707912429979917A027B00EE
:103F40001211D690097DE0706743FDF07580A08066
:103F50005F900764E06406601C90076E12402C704E
:103F60000374FF69604A90075D7403F0900762E88C
:103F7000F0A3E9803A123DC3703612429979937AE0
:103F8000037B001211D690097DE0702443FDF0758B
:103F90008060801C90075DE4F043FDF07580108028
:103FA0000F90075DE4F090075EF0900978F0A3F0C1
:103FB00090078AE090078B8062E0640E705E7580E7
:103FC0000053FD0F90078DC3E09410A3E0940040D0
:103FD00022900D7BE090075D70117401F0900D7BD5
:103FE000F0900765E0F912124880087402F0900D15
:103FF0007BE4F090078CE0702390078D12403390A3
:10400000078DC3E09419A3E09400401090075DE48D
:10401000F090078DF0A3F090078C04F00229EB904C
:10402000097A12402622E0F8A3E0F9221240267411
:10403000FF6822123D98F02274F4121A1DE9FE74F2
:10404000046E600302416B900760123DC67003026C
:10405000417A900760C3E0941EA3E09400500D7C69
:10406000047D007A8F7B0712142880077A047B0076
:1040700012142E90078FE0900797F0900790E0F9C8
:10408000900798F0900791E0FA900799F0900792C6
:10409000E0FB90079AF090821C780812189690071F
:1040A000937808121560707290823878081218960A
:1040B0009007977808121560604C9007977808125F
:1040C00018967401650870047402650960149007FD
:1040D00097780812189674016508700474016509D0
:1040E00070249082447808121896900797780812E6
:1040F00015606012908230780812189690079778B1
:104100000812156070149007977401F0A37404F0FE
:10411000A37401F0A374AAF0806090079778081246
:10412000189674016508700474056509700E90078F
:10413000937C977D0774041218D9800FE990076467
:10414000F0EA900767F0EB900766F0900797780821
:104150001218969007937808121560601D900797C3
:104160007C937D0774041218D9800FEEC394054028
:10417000098E08AA087B0012142E900760E4F0A3B1
:10418000F07F04021AEF74F4121A1DEAFEEBFFEE40
:10419000F8EFF9E8C333F8E933F9900770E0600C01
:1041A0001460112481601514601A80227508067548
:1041B000090F801A75081075090F801275080675A9
:1041C000090F800675081075090FE8FEE9FF124017
:1041D0001F758307758262E0C398FAA3E099FB8597
:1041E000088285098312429CC3EC9EED9FA2D26592
:1041F000D033502E900770E0F91211D08A0A8B0B41
:10420000AC0AAD0BEEF8EFF9850882850983A3A30C
:10421000123DBD121933880A890B850882850983EE
:104220008047C3E49CF8E49DF9C3EE98EF99A2D2CD
:1042300065D033505C900770E0F91211D08A0A8B78
:104240000BAC0AAD0BEEF8EFF9850882850983A364
:10425000A3A3A3A3A3123DBD121933880A890B851A
:104260000882850983A3A3A3A3A3A3A3A3124294B3
:10427000850AF0A4C8AAF0850BF0A42AFA850AF0F2
:10428000E9A42AF9ECC398F8ED99F9900978123D60
:1042900089024181124026E82290097AE0FCA3E0DD
:1042A000FD2212394A50047900800279010201226C
:1042B00074F0121A1D8A088B098C0A8D0B1210ECEF
:1042C0001210F28A0C8B0D8C0E8D0F7808790C125F
:1042D000157550117808790C121822AA08AB09AC90
:1042E0000AAD0B80087A007B007C007D00022FF174
:1042F00074F7121A1D74FB1219C6EAFEEBFF85183B
:1043000082851983AC82AD837A05799C1214B8E951
:104310006026851882851983E4F004121A1174034B
:10432000F014121A117484F07403121A117407F045
:104330007404121A117408F07402121A11E0FA745B
:1043400001121A11E0F9EA900776123D8A740412FC
:104350001A11E0FA7403121A11E0F9EA900774F0E6
:10436000A3E912439E900D7DF0900D7BE4F0900D3B
:104370007E741EF0A3E4F0A3F0A3F0900D7D123143
:104380007790077712306990077612306F90077533
:104390001230769007741243A37405023B86123BD9
:1043A0007CE0221243A9A3F022E08E828F83A3A394
:1043B000A32274F0121A1D89081210ECE508604857
:1043C000740265087004740180027402900D7CF020
:1043D000640170059007768003900774124294FC84
:1043E000E9FD900D7EECF0A3EDF0A3E4F0A3F01254
:1043F00010F28A0C8B0D8C0E8D0F900D7E780C12A6
:1044000017FCA3780C1218A5022FF174F0121A1DD4
:1044100074FC1219C68A828B83A3A882A983E0F553
:104420000CEA2402FCEB3400FD850C088C828D83A1
:10443000E0FFE508851882851983F0A3EFF0EA24F0
:1044400004FEEB3400FFEA2403F508EB3400F50921
:10445000850882F583E0F50E8E828F83E0F50BE50B
:104460000EF50A7402121A11E50AF0A3E50B1243C5
:104470009EF50AA3E0F50BE50A450B6010E50C90EC
:104480000777F08C828D83E0900776801190077714
:10449000E088828983F0900776E08C828D83F074C7
:1044A00002121A11123DC66015850882850983E043
:1044B000900775F08E828F83E090077480119007CB
:1044C00075E0850882850983F090077412317CF0CD
:1044D0008A828B83E0F8740F58640F6008747F58E9
:1044E000900D7D8006900D7D122FE3F08A828B83E4
:1044F000E0A2E7502A90076812402275830F758268
:10450000F61245354011900FF6124022758307755B
:10451000826A12453550088A828B83E0C2E7F08AAE
:10452000828B83E05480900D7BF01C1CEBFD7A05A0
:10453000799C022FE9C3E098A3E09922C082C0834E
:10454000900D7CE0640190075D70087403F09007A3
:104550006880067403F090076A124022900762E8B0
:10456000F0A3E90229EAC082C08390097EE070349A
:10457000900D7CE0640190075D70107403F0900969
:104580007AE024FBF8A3E034FF800E7403F0900976
:104590007AE02405F8A3E03400F9900762123D891F
:1045A0007901800279000229EBC082C083E9900E74
:1045B000A2F002483874F7121A1DE99002E1F07C6B
:1045C000197D037AFF7BFF1209249002E274FFF049
:1045D000A3F0A3E4F0A3F079051208AC9002E1E0A7
:1045E000F91207CE7A427B09120AEC7F01021AEF18
:1045F00074F4121A1D8A088B09EB54806030900203
:10460000E1E0F91210AA8A0A8B0BAE0AAF0BEE4F4B
:1046100060138E828F83E064B070031208C4EEFAD8
:10462000EFFB121098AA08E5096480FB80047A0069
:104630007B0002480774F2121A1D74FC1219C6EAB4
:10464000FEEBFFEE4F60387402121A11EEF0A3EF8A
:10465000124A6CECF0A3ED124A6CAA82AB831207EB
:10466000C8E9F50870737412121A11125620E50A7F
:10467000450B60658E828F831246E3EE4F700575A1
:10468000080280557A067B001211048A0C8B0DA853
:104690000CA90DE8497005750813803D888289834F
:1046A000E41246EDA3A3EEF0A3EF125AB9E50AF027
:1046B000A3E50BF09002E71247759002E76017E060
:1046C000FCA3E08003EAFCEBFD8C828D831247752E
:1046D00070F38C828D83125545A90874041219DC7D
:1046E000025CBBA3A3A3A3E0FEA3E0FF22F0A3F020
:1046F000888289832274F2121A1D890AE975F017DB
:10470000A4FEAFF09002E6E4F09002E41247756078
:104710000A12110A9002E4E4F0A3F0EEFAEFFB12A1
:1047200011048A088B09EA4509602FEEFCEFFD7938
:10473000001210869002E4E508F0A3E509F07B0082
:10474000800812475FE4F0A3F00BEBC3950A40F238
:10475000E50A9002E6F0790080027913025CBBEB77
:1047600075F017A4F8A9F09002E4E028FAA3E03964
:104770008A82F583221252DBEA4B2274F4121A1D4C
:10478000750800750900740C121A11125A8DFEE991
:10479000FF800CE5082401F508E5093400F509C39C
:1047A000E5089CE5099D503285080A85090B7403CC
:1047B000780A1219B3EA250AF8EB350BF9888289D1
:1047C00083A3A3A3A3A3A3125620EE650A7003EF4D
:1047D000650B70BFE8FAE9FB80047A007B00802754
:1047E00074F4121A1D7900EAA2E0501B7508D27504
:1047F00009817808121C307C047D007AA47B0E129B
:1048000008A674021219DC7F04021AEFC082C0836A
:104810009002E712483F601C88828983A3A3E06A64
:104820007003A3E06B8882898370E8A3A3A3A3121B
:1048300052D780047A007B00D083D08202012212FA
:104840005D8EE8492274EE121A1D74FC1219C6EA34
:10485000FEEBFF851882851983E4F0A3F0EE2402B5
:10486000125529EE2405124A5AEE2404F50EEF12D1
:104870004E3FE024FE603924FC604624FE60522452
:10488000FE605E24FE700302495F24FE700302494D
:10489000D724FE70030249E624FE70030249F52482
:1048A000FC7003024A0424FE7003024A13024A50B9
:1048B0009003007417F0A3E4124A74120546024AEA
:1048C00050851882851983AC82AD831208CA024ACA
:1048D00020851882851983AC82AD831208D0024AE4
:1048E00020850C08850D097402121A11AC82AD8363
:1048F0008508828509831252D71207EC8A0C8B0D2A
:10490000AC0CAD0DEC4D6042E4F50CF50D780C12DD
:104910001C30750C00750D03780C121C30750C01E1
:10492000750D03780C121C307408121A11121C47F2
:1049300079161252D112090C74081219DCE9F50C1F
:10494000700B1252CD12055E800F750C0185088226
:10495000850983124A62125545850C08024A237460
:1049600002121A11AC82AD83850C82850D8312521E
:10497000D71207EC8A108B11AC10AD11EC4D6043CF
:10498000850C82850D83A3A3121C47751000751139
:10499000037810121C307510017511037810121C69
:1049A000307408121A11121C4779161252D11209CA
:1049B0000C74081219DCE9F509700B1252CD1205BE
:1049C00064800F750901850C82850D83124A62127D
:1049D0005545850908804C851882851983AC82ADC0
:1049E000831208D6803A851882851983AC82AD83FC
:1049F0001208DC802B851882851983AC82AD831266
:104A000008E2801C851882851983AC82AD83120868
:104A1000E8800D851882851983AC82AD831208EE7B
:104A2000E9F508E50860298E828F83A3E0641460AD
:104A30001F850E82850F83E0900300124A6C125D81
:104A40008A900301125545E508A3124A74120540E5
:104A5000EEFAEFFB12086A025431F50CEF3400F560
:104A60000D22125D8E85188285198322F0851882A9
:104A700085198322F07C007D03850A82850B8312D1
:104A800052DB2274EE121A1D74FC1219C68A0A8BAC
:104A90000B8C0E8D0FEA2405F508EB3400F5097C2C
:104AA000157D0079007A007B03121086E508240248
:104AB000F50CE509124A5D851882851983858210F7
:104AC0008583117810121C30850882850983A3A381
:104AD000A3A3124F87121C30E5082405F510E50941
:104AE0003400F5117810121C30850C82850D83126C
:104AF00052E11207E674061219DC8A108B11AE100F
:104B0000AF11E50A2402F50AE50B12552CEE4F70A1
:104B100003024C4980177402121A111252D788826C
:104B20008983EAF0A3EBF0900300E004F090030027
:104B3000E0C394054003024C49E4F510F5117810E8
:104B4000121C307510E97511027810121C307510A6
:104B5000EA7511027810121C307406121A11121C18
:104B6000477910EEFCEFFD1252D112090C740812B5
:104B700019DCE9705E850882850983A3A3A3A3A33A
:104B8000A3A3E0F89002E9E0687048124F87121C76
:104B9000307CEA7D02E5082408FAE5093400FB12BE
:104BA000108074021219DCE960298E828F83A3A31E
:104BB000A3A31252D7900300E0F5107402781012EC
:104BC00019B374012510F58274033511F583EAF0E9
:104BD000A3EBF07402121A118582108583117810EC
:104BE000121C307402121A11121C47850C82850D9A
:104BF00083125D9F1207F274041219DC8A108B1164
:104C0000AE10AF11900300E0F5107511007402783A
:104C1000101219B374002510F874033511F9888245
:104C20008983A31247757003024B0DE82403F8E94A
:104C30003400F9EE4F6003024B168882898374FFBB
:104C4000F0A3F0900300E004F0900300E0600A128B
:104C500052CD1205527900800B8508828509831296
:104C6000553C790A02543174EA121A1D74FE121965
:104C7000C68C128D13EA2405F50CEB125F0912465F
:104C8000E7750800750900EA2402F510EB3400F519
:104C90001185188285198385820A85830B780A120B
:104CA0001C30850C82850D83A3A3A3A3124E491249
:104CB0001C30E50C2405F50AE50D12552C780A1276
:104CC0001C30850C82850D83125D9D1207E67406EB
:104CD0001219DC8A0A8B0BEA450B7003024DFAEAC3
:104CE0002404F50EEB124E3F1246E78A828B83A313
:104CF000A3A3E0F98510828511831252D71207D43D
:104D0000E9F5096003024DFAE4F514F5157814127B
:104D10001C307514E97515027814121C307514EAEC
:104D20007515027814121C307406121A11121C47E1
:104D30007913AC0AAD0B8510828511831252D712FC
:104D4000090C74081219DCE9F5096003024DFA90A8
:104D500002E9E0F8E5087009E02402900301F08020
:104D600017900301E0FCE82402FAE43400FBEA6C4B
:104D70007001EB6003024DFE850882AA82124F7E0D
:104D80009414124F765073850E82850F83E0C0E035
:104D900074022A124E36D0E0F00508850E82850F87
:104DA00083A3E0C0E085080A7402250A124E36D0BB
:104DB000E0F005089002E9124E49121C307CEA7DB1
:104DC0000285080A7402250AFA74033400FB1210E3
:104DD0006E74021219DC9002E9E02508F50874FFF0
:104DE0006E700374FF6F6012EE24010EEF3400FF4B
:104DF000E508C394145003024C91E5086013125166
:104E0000C28510828511831252D71205587900800D
:104E100014E509700375090A851282851383EEF083
:104E2000A3EFF0A90974021219DC7F0E021AEF85B4
:104E3000080C7402250CF58274033400F5832234C7
:104E400000F50F850E82F58322125ACC2274EE12E1
:104E50001A1D74FE1219C68C0E8D0FEA2405F50C6E
:104E6000EB124A5D750B00900300E4F0F50AEA24AA
:104E700002F508EB3400F5098049900300E0FA9050
:104E800002E9E0F8124F7E9417124F76400D90031E
:104E900000E0F87416C3989002E9F0124F87121CD4
:104EA000307CEA7D0274012AFA74033400FB12108C
:104EB0006E74021219DC9002E9E0F8900300E02819
:104EC000F0050AE50C2416F582E50D124E3AE0F8DD
:104ED000E50AC3984003024F5F900300E0C39416B5
:104EE000507DE50AC333F8E433F9E50C28FEE50DFF
:104EF00039FF851882851983AC82AD838E828F83BA
:104F00001252D71207EC8A108B11AC10AD11EC4D78
:104F10007005750B018043E4F510F5117810121C33
:104F2000307510E97511027810121C307510EA7591
:104F300011027810121C307406121A11121C4779D3
:104F4000168508828509831252D712090C7408123B
:104F500019DCE9F50B7003024E7A12553880107C8B
:104F6000007D038508828509831252D712056AA93C
:104F70000B7402025433E99400C365D03322EA284B
:104F8000F8E43400F9E822E0F510751100781022F9
:104F900074EA121A1D74FC1219C68A0C8B0D8C123D
:104FA0008D13EA2405F50AEB12552C7508007509D6
:104FB00000E50A2402F510E50B3400F51174021225
:104FC0001A1185820E85830F780E121C30850A8295
:104FD000850B83A3A3A3A3125A78121C30E50A24DD
:104FE00005F50EE50B3400F50F780E121C30851018
:104FF000828511831255321252D11207E6740612BD
:1050000019DC8A0E8B0FAE0EAF0FE50C2402F50EE5
:10501000E50D3400F50F80408882898374FFF00528
:1050200008124E2F74FFF005089002E9E0F50C75A8
:105030000D00780C121C307CEA7D0285080C74028D
:10504000250CFA74033400FB12106E74021219DC82
:105050009002E9E02508F508EE4F60718E828F839B
:10506000A3A3A3E0F9850E82850F831252D71207FE
:10507000D4E9F509EE2404124A5AE97044E4F5141F
:10508000F5157814121C307514E975150278141290
:105090001C307514EA7515027814121C307408124D
:1050A0001A11121C477911EEFCEFFD850E82850F57
:1050B000831252D712090C74081219DCE9F5096041
:1050C00027850C82850D831251B8125545E508706D
:1050D0000302519E1251C2850E82850F831252D750
:1050E00012057079000251B3850882AA82EA900203
:1050F000E97009E02404900301F08022E0F89003B5
:1051000001E0F514E82404FCE43400FDEC651470BF
:1051100001ED70C0124F7E9412124F7650B6850C7E
:1051200082850D83E0C0E074022A124E36D0E0F092
:105130000508850C82850D83A3E0C0E0124E2FD0B8
:10514000E01251D485820C85830D780C121C3074CA
:1051500004121A11121C47851082851183125D9F5B
:105160001207F274041219DC8A0C8B0DAE0CAF0D11
:1051700085080C7402250CF874033400F9EE4F70A6
:1051800003025018851882851983E088828983126A
:1051900051D4A3E0C0E0124E2FD0E0025026E50922
:1051A000700375090A850A82850B831251B812555E
:1051B00045A9097404024E27125D8E85128285135B
:1051C0008322900301E0F5F0E50884900300F07C71
:1051D000007D0322F005088518828519832274EC6E
:1051E000121A1D74FE1219C68A088B098C0E8D0FB7
:1051F000EA2405FEEB3400FF851882851983AC8212
:10520000AD838E828F831252D71207EC8A0A8B0BE2
:10521000EE2418124A5AEA450B70030252A812549F
:105220001A50328518828519831252D71209008AC2
:10523000108B11EA4511606B7912AC0AAD0B850831
:10524000828509831252D7851082851183121A1B19
:10525000E9F50A7058E4F50AF50B780A121C308E4D
:10526000828F83A3A3E0F50A780A121C30EE240390
:10527000125529780A121C308E828F831252E11245
:10528000091274061219DCE9F50A7021850C828571
:105290000D83E0701F8508828509831252D712059D
:1052A000768011750A0E8009750A018004E50A608E
:1052B00003125538850C82850D83E06004790080E7
:1052C00002A90A74021219DC7F0C021AEF7C007D1D
:1052D00003850A82850B831252DB22E0FAA3E0FBEE
:1052E00022E0FCA3E0FD8508828509831252DB22BF
:1052F00074EE121A1D74FE1219C68A088B098C0CE2
:105300008D0DEA2405FEEB3400FF750E0085188232
:10531000851983AC82AD838E828F831252D7120798
:10532000EC8A0A8B0BEA450B700302540612541ADE
:1053300050358518828519831252D71209008A0EBA
:105340008B0FEA450F605E7912AC0AAD0B850882BF
:105350008509831252D7850E82850F83121A1BE9A5
:10536000F50E6003025409850882850983125620D0
:10537000AA0AFB1208F48A108B11A810A911E84997
:10538000701E7AFF7BFF1208F48A108B11A810A9F7
:1053900011E849606C88828983E50AF0A3E50BF087
:1053A000750A008007750E0E805F050A9002E6E020
:1053B000FAE50AC39A504AE50A75F017A4FAABF069
:1053C00088828983A3A3E02AFAA3E03BFB8A828B2D
:1053D00083125532EC4D70D2750A17750B00780A9E
:1053E000121C30EEFCEFFD12106E74021219DCEE8E
:1053F000FCEFFD8508828509831252D712057C8057
:1054000014750E098003750E01125D86850C828568
:105410000D83125545A90E024F71E5082402F508C7
:10542000E5093400F5098A828B83A3A3A3E0A2E5F2
:105430002274041219DC7F0A021AEF74EC121A1D8E
:105440008C108D11EA2405F50CEB124A5D750F00E6
:10545000EA2402F50AEB12552C850A82F5831252D2
:10546000D71208F48A088B09EA4509700302551E11
:10547000750E008071850C82850D83E06401704F8C
:105480008E828F83A3A3121C478E828F83A3A3A334
:10549000A3E0F5127513007812121C30EE2405F506
:1054A00012EF3400F5137812121C301252D1120987
:1054B0001274061219DCE9F50F6014850C82850D53
:1054C00083E4F0125D868510828511831255457C38
:1054D000177D007900EEFAEFFB1210868E828F8323
:1054E000E4F0A3F0050E9002E6E0F8E50EC3985054
:1054F0001EE50E75F017A4F8A9F0850882850983CA
:10550000A3A3125F13125532EC4D6003025475854C
:10551000088285098374FFF0A3F0E50F700612522C
:10552000D1120582A90F0252C8F50AEF3400F50B1B
:1055300022A3E0FCA3E0FD228E828F83125D8E8584
:105540000E82850F83E8F0A3E9F022C082C0839029
:1055500002E2E06A7003A3E06B70067AE27B0280ED
:10556000047A007B00024838C082C08378008C82B5
:105570008D83E06A7003A3E06B7010E875F003A4FC
:10558000F8A9F0EC28FAED39FB8015088C828D83A0
:10559000A3A3A3E06A7003A3E06B60DF7A007B0043
:1055A00002483874F6121A1D1208BE8A828B83E5EF
:1055B00082458370067A007B008007A3A3A3A31211
:1055C00052D7025C3774F2121A1DE9FE740E121AD9
:1055D000111256207410121A11125A988C828D834F
:1055E000E064027036A3125D94F50CA3E0F9A80CF8
:1055F00074026870037429697021750C02750D00BE
:10560000780C121C307808121C30780A121C30EE0C
:10561000F912093674061219DC80027901025CBBAA
:10562000E0F50AA3E0F50B2274E8121A1D74FB12D0
:1056300019C6E9851882851983F08A168B17ECFE46
:10564000EDFF751000741D121A11125D8A741D127F
:105650001A111255458E828F83A3A3A3E0A2E450B2
:105660002D741D121A111252D71209008A828B83CF
:10567000E58245837003025A69790AEEFCEFFDAAC0
:1056800016AB17121A1BE9F5106003025A6C741F4F
:10569000121A11125A987421121A111256207423D8
:1056A000121A11E0F50EA3E0F50F8E828F83E064ED
:1056B000026003025A17A3125D8A85088285098356
:1056C000A3858212858313EE2406124A5A888289A2
:1056D00083E0FAA3E0F9EA2400F514E439F515783B
:1056E00014121CBA0100002801280C5707000228D8
:1056F000D15703283E570029085901293359022957
:10570000D458032908590429B259175AE50E450FF0
:105710006003025A12850C82850D83125A8DFAE9B4
:10572000FB8A828B83E0850A82850B83125AC3121F
:105730001C308A828B83A3E0FCA3E002599CE50E17
:10574000450F6003025A12850A82850B837401F0AB
:10575000125AA0850882850983F07C007D008E8224
:105760008F83A3A3A3A3E02401FAA3E03400FB12D8
:1057700007ECEA4B60418A828B83E02402F8850AB9
:1057800082850B83E028F0EA2404F8EB3400F988E2
:10579000828983E0851282851383125AD5125AC3F7
:1057A000121C308A828B83125531E5082403FAE5F6
:1057B000093400FB0259A1850A82850B83E0240489
:1057C000F07C047D007900AA12AB13121086025AF5
:1057D0006CE50E450F6003025A12125AA0FEA3E0B8
:1057E000FF850A82850B837404F0EE8508828509A3
:1057F00083F0EF851282851383F07403121A11ACC3
:1058000082AD83EEFAEFFB1207EC8A0C8B0DEA45B2
:105810000D70030258B58A828B83A3A31246E374EA
:1058200001121A1185820E85830F780E121C3074B6
:1058300005121A11121C477CFF7DFF1207F2740437
:105840001219DC8B0FEA450F7033850C82850D83AE
:10585000125A78121C30850C82850D83A3121C47C6
:105860007C027D007A687B8212061E74041219DCA9
:10587000E9700A7401121A1174FFF0A3F08E828F7E
:1058800083E064027039750C02750D00780C121CEF
:10589000308E828F83125531E5082404FAE50934ED
:1058A00000FB12106E74021219DC850A82850B83CC
:1058B000E0240280097401121A11EEF0A3EFF074D3
:1058C00001121A11125A89F07401121A11A3125AF4
:1058D00081025A0CE50E450F6003025A12850C82B4
:1058E000850D83125532AA16AB1712092A850A8232
:1058F000850B837402F0EA850882850983F085129E
:1059000082851383EB025A0FE50E450F6003025A9E
:1059100012125AA0F8A3E0F9850A82850B8374025B
:10592000F0E8850882850983F0E985128285138372
:10593000025A0F850C82850D831252D7121068EA25
:10594000FC8C82A882C3950EE4950F405FE8650E3B
:105950007002E50F70047C0080228518828519830F
:10596000E0FAE50E2AFAE50F3400FBC3EA98EB945F
:10597000005003E08005E50ECCC39CFCEC850A8258
:10598000850B83F08C0A750B00780A121C30850C8D
:1059900082850D83E0250EFCA3E0350FFDAA08AB40
:1059A0000912106E74021219DC025A6C751007028B
:1059B0005A6CE50E450F705A850C82850D83125D79
:1059C0008A850A82850B8374071246EF125A811268
:1059D00046EFA3E0851282851383F0E82402FAE9FA
:1059E0003400FB8A828B83125A81125AB0125A8970
:1059F000A3125AB9125A92F0E82405F8E93400F9D2
:105A000088828983125A92A3125AD5A3A3A3A3F022
:105A1000805A75100B8055741D121A111252D7122C
:105A200008BE8A828B83E5824583603D125D8A8849
:105A30000C890DE8450D6031780E121C30780A1281
:105A40001C307808121C307406121A11E0F9EEFCB2
:105A5000EFFDAA16AB17850C82850D83121A1B74F5
:105A6000061219DCE9F510800375100EA9107405F3
:105A70001219DC7F10021AEFE0F50E750F00780E98
:105A800022E085088285098322125ADF22125D8E68
:105A9000E822125ADFA3A322E0F508A3E0F50922C9
:105AA000850C82850D83E0F8A3E0F5838882E022EF
:105AB000A3A3F08A828B83A322F088828983A3A385
:105AC000A3A322F08A828B83125ACC22E0F50A75B6
:105AD0000B00780A22F088828983A3125ADF22E021
:105AE000850882850983A3A32274EE121A1D74FE11
:105AF0001219C68A0A8B0BECFAEDFB7414121A11F8
:105B0000E0F510A3E0F5117416121A11E0FE7418F6
:105B1000121A11E0F50EA3E0F50F8518828519839E
:105B2000AC82AD831207EC8A0C8B0DEA450D6049FF
