:020000040000FA
:0600000002010A02248B3C
:03002B00022903A4
:030033000228E5BB
:03003B0002292473
:03004300022899F7
:030053000224FE86
:03006B000228BFA9
:100083000222F7E5C754F84401F5C77901220000BD
:100093000080FB120086B900030200F4E4792178A2
:1000A30008B800028004F709D8FCE479297802B87B
:1000B30000028004F709D8FCE49002817864790C8B
:1000C3008002F0A3D8FCD9FA900DE4AA82AB839006
:1000D300013A780779058015E493A3AC82AD838A4E
:1000E300828B83F0A3AA82AB838C828D83D8E9D9D8
:1000F300E77582277583CE740312011C758291758F
:100103008300740012011C75D00075813F7518813E
:10011300751902759F00020096C09FF59FE473D086
:100123009F22D083D082C09FE493C0E0740193C028
:10013300E0740293F59F22FF0000B400002800281A
:1001430000283075A000A000A000A000000800084F
:10015300E001F0001000100010001000100010006B
:1001630050005000500010001000D00700000000A5
:1001730000000F00010005003075070010000100AA
:1001830081FF00000000FF3E075C074407FF0202F7
:100193000208025000A0000000E80302A082010050
:1001A3000059820264820100003B0E025E8201005C
:1001B30000B3020264820100003C0E025C82010073
:1001C30000C9020264820100003D0E026C8201003C
:1001D30000CB020264820100003E0E028882080006
:1001E30000CC020264820100003F0E028082010003
:1001F30000400EFF0100FF2002A082010000538295
:10020300026482010000A40E027C82000000000050
:1002130002608203000019030E0D0E0D0E0D0E0D6C
:100223000E0D0E0D0E0D0E0D0E0D0E0D0E0D0E0DF3
:100233000E0D900FA80F8A0FFFFF0200E2FF0200CE
:10024300E7FF0200F3FF0200F3FFFAFF07000300DA
:10025300F9FFFBFF07000400F7FF07000300090095
:1002630003000A000E0005000D0005000E00020247
:1002730002020202020202010D000000100102A0AC
:100283008201000050820264820100001B0F027091
:10029300820100009C070264820100001C0F0272AD
:1002A300820100006D810264820100001D0F02744F
:1002B3008201000051810264820100001E0F027658
:1002C30082010000DF800264820100001F0F0278B8
:1002D30082010000CD80026482010000200F027AB7
:1002E300820100009780026482010000210F027ED8
:1002F30082010000BB80026482010000220F02869B
:10030300820100005F81026482010000230F028AE0
:1003130082010000240F01E803053F100AFF0001DA
:100323003075030201060000000000000000000019
:1003330000000000000000000000000000000000BA
:100343000000FFFF0600800CE80384030F0013097D
:100353004F666669636577656C6C20233030303097
:100363003133051208000800020A000201060302E5
:10037300F1FF53696D706C6520424C4520506572E6
:100383006970686572616C0C15000018150A486184
:1003930072647761726520496E666F726D6174690C
:1003A3006F6E000A507265736574204865696768EB
:1003B300740002506F7374757265204A75646765C3
:1003C3006D656E74000A416374696F6E2052616ECD
:1003D30067650008436F6E74726F6C20436F6D6DB9
:1003E300616E6400125065736B205374617475738E
:1003F300000A4C6F636B2053746174757300025071
:100403006F77657275702054696D657374616D7073
:100413000000104865616C74682044617461000ACF
:100423004175746F6D61746963204D6F7665204407
:10043300617461000002A08201000056820264829E
:100443000100003A10028E82030000A30D026282B3
:100453000100003B100264820100005010029082F0
:10046300030000A70D0262820100005110026482A2
:100473000100005F10029282010000AF0D02628250
:100483000100006010026482010000721002948275
:10049300030000B10D026282010000731002648246
:1004A3000100008010029682020000B50D026282F4
:1004B3000100008110026482010000911002988201
:1004C300010000B60D026082030000BA0D026282D1
:1004D30001000092100264820100009E10029A82C1
:1004E300030000C00D0262820100009F10026482BB
:1004F300010000AB10029C82010000C50D02628264
:10050300010000AC10026482010000BF10029E8251
:10051300000000C90D026082030000D90D0262824F
:10052300010000C010026482010000CC100284822A
:10053300030000DF0D026282010000CD10120125CD
:10054300C5BD03120125DCBD031201250DBE031237
:10055300012548BE0312012572BE031201259CBE6C
:1005630003120125B3BE03120125CABE03120125DE
:10057300E1BE031201250ABF031201251DBF0312A9
:10058300012533BF0312012546BF031201256DBFA9
:100593000312012557D9021201255BDA0212012544
:1005A30093DA02120125B6DA02120125C1DA021228
:1005B3000125E4DA02120125F3DB02120125C8DC6E
:1005C3000212012543DD02120125CBDD02120125B2
:1005D30006DE021201253DDE02120125CBDE0212E8
:1005E3000125A4DF0212012504E0021201250FE018
:1005F300021201258EE00212012591E0021201256B
:1006030094E00212012523E10212012526E10212E0
:10061300012556E10212012580E1021201256EE255
:100623000212012520E3021201259C9003120125E9
:10063300C49003120125F29003120125299103129C
:100643000125879103120125D291031201251D92E1
:10065300031201255D9203120125A39203120125C2
:10066300D192031201258E9303120125989303124D
:100673000125A59303120125D89303120125A49400
:1006830003120125B09403120125C8940312012516
:10069300D29403120125B7C903120125C5C9031258
:1006A3000125DDC903120125F5C903120125ADE0BA
:1006B3000112012559E101120125D4E1011201259D
:1006C300F5E20112012531E301120125DAE30112FA
:1006D3000125C1E40112012525E6011201257CE66D
:1006E30001120125FDE601120125EDE701120125A5
:1006F3003AE801120125C0E801120125F2E80112CE
:10070300012506EB0112012548EB0112012566EBD9
:1007130001120125E9EB01120125BDEC01120125AE
:1007230085ED011201253CF4021201250FF5021299
:100733000125B8F5021201250BF602120125BBF6BD
:100743000212012547F70212012533F8021201258F
:1007530062F80212012575F902120125BDF9021290
:10076300012592FA02120125CEFA02120125EAFAB4
:100773000212012584CC0312012535A6031201259B
:100783004BA60312012571A6031201258DA703129F
:10079300012597A703120125CCA803120125C4A99B
:1007A30003120125758B03120125A58C0312012564
:1007B300D88C03120125228D03120125E98E031221
:1007C30001255BC101120125C5C10112012524C305
:1007D3000112012534C30112012561C30112012550
:1007E300B8C30112012561C40112012568C50112B4
:1007F300012532C60112012592C701120125D5C771
:10080300011201257AC801120125C7C80112012569
:10081300EDC801120125FBCA0112012500CB01120B
:10082300012505CD0112012552CD01120125C5CDAA
:1008330001120125F8CD011201259ACE01120125DD
:1008430043CF011201257BCF011201257ECF011277
:100853000125C6CF0112012506D0011201255DD065
:10086300011201251BB30312012533B30312012522
:100873007BB30312012591B303120125D8B30312ED
:100883000125ECB40312012579B503120125C4B582
:1008930003120125AB4500120125B74500120125BE
:1008A300F24500120125374600120125F7460012D2
:1008B30001257D4700120125E247001201250E485C
:1008C30000120125474800120125854A001201251F
:1008D300694C001201254F4E00120125924F001260
:1008E3000125E05100120125F252001201253D5469
:1008F300001201254D55001201256A5500120125EC
:10090300A55500120125C755001201252A560012CC
:100913000125EB5A00120125805B00120125D15BF2
:1009230000120125F85B001201254A5C0012012523
:10093300685C00120125C25C00120125AB5D001248
:100943000125215F00120125A55F0012012559959C
:1009530003120125639503120125A69503120125B0
:10096300C1950312012551960312012579960312AD
:100973000125B69603120125ED960312012516975C
:10098300031201258B9703120125A097031201255A
:10099300B59703120125E69703120125FA9703126F
:1009A30001251F98031201255998031201258598E3
:1009B300031201251199031201253C990312012504
:1009C300859903120125AF9903120125DA990312C0
:1009D30001259BC50312012517B70212012545B74F
:1009E3000212012593B80212012573B902120125DF
:1009F30092B9021201250FBA0212012552BA02124C
:100A03000125A8BB0212012569BC02120125F0BE13
:100A13000212012591BF0212012587C0021201258E
:100A230084C102120125DEC20212012569C302122A
:100A3300012540C403120125A9C403120125FDC4E5
:100A43000312012524C50312012555C503120125EF
:100A53005FFB02120125CCFB0212012513FC0212DB
:100A630001252BFD0212012527FE021201250AFF93
:100A73000212012591E302120125D3E3021201259B
:100A8300A5E4021201257EE50212012578E6021291
:100A930001255AE702120125C3E70212012579E86D
:100AA30002120125EDE80212012559E9021201257E
:100AB30082E902120125FCE90212012595EA0212DC
:100AC3000125FAEA021201250FEB0212012555EB6B
:100AD300021201256EEB02120125D3EB021201254E
:100AE300D6EB0212012522B0031201254AB00312EC
:100AF300012588B00312012546B103120125ADB1CA
:100B030003120125C9B103120125F1B10312012515
:100B130021B20312012530B203120125ADB2031233
:100B23000125D3B2031201254AD10112012528D38D
:100B3300011201255AD50112012596D5011201256D
:100B4300C3D501120125ADD601120125F8D6011234
:100B5300012543D70112012555D70112012595D748
:100B630001120125CAD70112012518D80112012546
:100B730047D8011201256AD801120125B7D80112FD
:100B830001253CD90112012556DB0112012595DD12
:100B930001120125D6DD0112012578DF011201259D
:100BA300B9DF011201252CE00112012582E00112B7
:100BB300012502AA0212012500AB0212012599B1F7
:100BC30002120125BAB30212012585B502120125CD
:100BD300EDB6021201250C6000120125BB60001264
:100BE3000125016100120125416200120125D7632D
:100BF300001201255164001201256C6400120125C5
:100C0300E76400120125416600120125A167001265
:100C13000125A76800120125086A00120125216A2F
:100C2300001201257F6A001201256D6B0012012558
:100C3300A06B00120125106C001201258A6C0012B2
:100C43000125D46C001201259E6D00120125736EDF
:100C530000120125526F00120125DD6F00120125DC
:100C63004B7000120125BF7000120125EA700012BB
:100C73000125A971001201250E73001201252B73A2
:100C8300001201254A73001201253B74001201254D
:100C93006074001201258A74001201250575001283
:100CA30001255F7500120125C876001201257677AC
:100CB30000120125B777001201252E9C021201258F
:100CC3007C9C02120125889C02120125669D02125A
:100CD3000125979D02120125C89D02120125489EF8
:100CE30002120125809E02120125D29E02120125C5
:100CF3000F9F021201252CA10212012552A30212F9
:100D030001253DA50212012527A702120125FBFF9C
:100D13000112012548AD0112012578AD011201250B
:100D230051B401120125D6B501120125D3BB01121D
:100D33000125BBBC01120125F8BC011201251BBD15
:100D4300011201254CBD0112012555BD01120125DA
:100D53005FBD011201254DBE0112012543BF0112E2
:100D63000125399801120125389C011201253E9C69
:100D73000112012579A30112012592A8011201256F
:100D8300CEA903120125C8AA031201253CAB031205
:100D930001257AAB03120125EEAB0312012567ACE3
:100DA3000312012570AC031201257CAC031201254B
:100DB30091AC03120125CFAC03120125E5AC03125C
:100DC3000125029A031201250F9A03120125299A7C
:100DD30003120125689A03120125A69A031201251D
:100DE3000B9B03120125209B031201252B9B03124E
:100DF3000125389B031201254F9B031201255D9B9F
:100E030003120125689B03120125749B031201251C
:100E1300839B031201258E9B03120125B19B0312B1
:100E23000125589C03120125689C03120125829C0D
:100E3300031201259F9C03120125BB9C031201256C
:100E4300E09C03120125EB9C03120125009D031274
:100E53000125149D03120125759D031201257B9D18
:100E630003120125819D03120125879D031201258C
:100E73009F9D03120125D29D0312012505800212B5
:100E830001258980021201253881021201259782EA
:100E930002120125B88402120125A485021201253C
:100EA300D98502120125FB8502120125AA860212A9
:100EB3000125A28802120125CB88021201255D8932
:100EC300021201258F89021201259C890212012534
:100ED300F38902120125198A02120125868C021256
:100EE3000125898D02120125E18D021201259EEF54
:100EF30001120125A8F0011201258FF1011201252C
:100F030099F101120125BBF101120125C7F101126B
:100F1300012560F3011201258FF301120125ABF4C2
:100F23000112012504F5011201256AF601120125BA
:100F330049F701120125A5F70112012512F8011243
:100F430001254DF8011201258CF80112012545FBFD
:100F5300011201255FFB01120125EBFB01120125A3
:100F6300F9FB0112012552FC0112012560FC01125B
:100F73000125D3FC0112012537FD0112012581FD55
:100F830001120125EAC3021201250CC40212012534
:100F930032C60212012547C9021201255FCA021295
:100FA300012512CB02120125F4CB021201257FBFCA
:100FB30003120125A4BF0312012516C00312012544
:100FC300E77700120125F07700120125F977001267
:100FD3000125D07800120125817A00120125B77A04
:100FE30000120125F17A00120125277B0012012549
:100FF300617B00120125957B00120125C17B001244
:1010030001250A7C00120125447C001201258D7CF8
:1010130000120125E57C001201251A7D001201252D
:10102300757D00120125AF7D00120125007E00129F
:101033000125367E00120125707E001201259E7E59
:1010430000120125C17E0012012544CB03120125A4
:1010530070CB03120125CBCB03120125D5CB031291
:101063000125E5CB03120125F48503120125FE8535
:10107300031201253C8603120125858603120125EF
:10108300BF86031201251987031201253A8703122C
:101093000125438703120125908703120125B98790
:1010A30003120125C387031201252F88031201258B
:1010B300C188031201250B890312012541890312FB
:1010C3000125CD89031201250E8A03120125458AC4
:1010D30003120125578A03120125768A031201257B
:1010E3007F8A03120125478B03120125B4C603121D
:1010F3000125ABC7031201250AFE0112012540FE9B
:101103000112012576FE01120125C1FF01120125FD
:1011130008CD031201251ECD0312012528CD03128C
:10112300012572CD031201254F9E03120125649EF2
:1011330003120125179F03120125579F031201254F
:10114300709F03120125AB9F03120125F89F031221
:1011530001252AA0031201256CA00312012577A201
:1011630003120125C0C803120125E9C80312012592
:1011730018C90312012530C90312012572C90312CC
:101183000125982900120125F229001201259F2A21
:1011930000120125982B001201255A2C001201255B
:1011A300612D00120125782D00120125502E001209
:1011B30001256F2E00120125072F00120125FA2F9A
:1011C300001201252C30001201257C30001201256C
:1011D300783100120125CC35001201256436001246
:1011E3000125363700120125903700120125C63735
:1011F30000120125503800120125DC3800120125A8
:10120300513900120125FA3900120125123A001250
:101213000125403A001201258A3A001201258F3B2D
:1012230000120125D33D001201253F400012012584
:101233008D4100120125A94200120125B742001277
:101243000125F74200120125B243001201250B4488
:10125300001201253E4500120125684500120125B3
:10126300EEB50312012513B6031201253DB6031291
:101273000125D1CD03120125A38201120125088581
:1012830001120125A986011201255D87011201259D
:10129300F087011201257588011201259A88011230
:1012A3000125F08B01120125768C01120125A98DF0
:1012B30001120125E38D01120125188E011201256A
:1012C300D88F011201253590011201257E9001125C
:1012D3000125E990011201255A91011201258C91F2
:1012E30001120125A49101120125ED92011201259C
:1012F300FD92011201251894011201253A9401125D
:101303000125709401120125249601120125B1963D
:1013130001120125F09601120125149801120125ED
:101323008ECA031201259FCA031201257ACE031226
:101333000125B9CE03120125E1CE03120125617FF8
:1013430000120125717F001201258C7F00120125F7
:10135300F47F00120125BCC70312012541C8031203
:101363000125A7C803120125C6C203120125EFC236
:10137300031201255AC303120125ABC3031201252E
:1013830006C403120125BAB803120125CFB803120C
:101393000125EBB9031201255FBA0312012579BABE
:1013A3000312012590BA03120125A3BA03120125E2
:1013B300BDBA03120125D4BA03120125FABA0312E6
:1013C30001254BBB0312012584A2031201259BA215
:1013D3000312012515A303120125F9A30312012505
:1013E300D0A50312012515AD03120125A5AD0312E6
:1013F300012515AE03120125A6AE03120125AFAEDA
:10140300031201252DAF0312012540AF031201255D
:10141300ACAF031201250CB0031201251FB0031258
:101423000125EFCB031201255ECC0312012569CC04
:101433000312012579CC0312012524C103120125CE
:1014430076C10312012500C20312012567C20312EC
:10145300012580BB03120125AABB0312012578BC19
:101463000312012553BD03120125FAEB02120125D4
:10147300C1EC02120125F8EC0212012522ED021241
:10148300012582ED02120125D8ED021201253DEE60
:1014930002120125D5EE02120125E4EF0212012505
:1014A3007BF10212012508F2021201256FF20212EA
:1014B300012586F202120125A0F302120125DEF3B3
:1014C300021201252F8E02120125B091021201256D
:1014D3003893021201258F9302120125AE93021253
:1014E30001252C9402120125C29502120125A7960B
:1014F30002120125B59A021201258B9B02120125C6
:1015030018CF02120125ABD2021201257ED302129B
:101513000125B2D40212012559D702120125BCD8E4
:101523000212012543D9021201250080031201256D
:101533005080031201256D800312012504820312DA
:1015430001258E82031201258A8303120125BB859F
:1015530003120125CCFF02120125C3CE03E06670FE
:101563001008A3E066700A08A3E066700408A3E00D
:101573006622C3E7960809E7960809E7960809E78C
:101583009622C3E09608A3E09608A3E09608A3E09A
:101593009622C008C3E096F50808A3E0964208081F
:1015A300A3E096420808A3E09645087001D3D0084B
:1015B30022080808E630E71112179D1215CC080817
:1015C30008C64480C618181822181818E9799EC648
:1015D30008CAC608CBC608CCC6C370207996CACB46
:1015E300CC7019798ECBCC70137986CC700EF980C0
:1015F3002ACA33CACB33CBCC33CC331930E7F2CC42
:10160300CBCA3350147004EA30E00DE4CA3ACACBB3
:101613003BCBCC3CCC500209C3E913C6CC182313F3
:10162300C6CB18C6CA18C6F922E6C33318461846ED
:10163300184622E7C33319471947194722E60846D4
:1016430008C3134608336002E633F422E709470967
:10165300C3134709336002E733F422121640601CB8
:1016630012164F601712162C70071216367001D31C
:1016730022C0D01216367006D0D0B322C32233D084
:10168300D0501430E0F6C3E7960809E7960809E757
:10169300960809E796B32220E0D5E6970809E6976E
:1016A3000809E6970809E697B322080808EAC0E0A4
:1016B300EBC0E086F0E7A4FA180986F0E7A42AFA5B
:1016C300180986F0E7A42AFA180986F0E7A42AFA8B
:1016D3001986F0E7A4FBE5F02AFA190886F0E7A4D7
:1016E3002BFBE5F03AFA190886F0E7A42BFBE5F0AB
:1016F3003AFA18180986F0E7A4C5F02BFBE43AFA86
:101703001908E7C5F0C6A426F6E5F03BFBE43AFA70
:101713001886F0E7A4F6E5F00826F6E43B08F6E4BD
:101723003A08F6D0E0FBD0E0FA22E4CFC0E0E4CE02
:10173300C0E0E4CDC0E0E4CCC0E075F020C3E63304
:10174300F608E633F608E633F608E633F618181813
:10175300EC33FCED33FDEE33FEEF33FFC3EC9709BF
:10176300ED9709EE9709EF97191919400FFFEC97B9
:10177300FC09ED97FD09EE97FE191906D5F0BEECAD
:10178300F709EDF709EEF709EFF7191919D0E0FC9E
:10179300D0E0FDD0E0FED0E0FF22181818E4C39695
:1017A300F608E496F608E496F608E496F622601640
:1017B300080808C6C313C618C613C618C613C61826
:1017C300C613C6D5E0EA2270090808082260161875
:1017D3001818C6C333C608C633C608C633C608C6F8
:1017E30033C6D5E0EA22E627F60809E637F6080904
:1017F300E637F60809E637F622E026F608A3E036D0
:10180300F608A3E036F608A3E036F622E026F00851
:10181300A3E036F008A3E036F008A3E036F022C3D5
:10182300E697F60809E697F60809E697F60809E643
:1018330097F622C3E096F008A3E096F008A3E0969B
:10184300F008A3E096F022E657F60809E657F608F3
:1018530009E657F60809E657F622E056F608A3E02C
:1018630056F608A3E056F608A3E056F622E056F033
:1018730008A3E056F008A3E056F008A3E056F022D0
:10188300E647F60809E647F60809E647F60809E6D3
:1018930047F622E0F608A3E0F608A3E0F608A3E083
:1018A300F622E6F008A3E6F008A3E6F008A3E6F0C4
:1018B30022E0FAA3E0FBA3E0FCA3E0FD22EAF0A30D
:1018C300EBF0A3ECF0A3EDF022CAC0E0E6F0A3082E
:1018D300DAFAD0E0FA22CAC0E0E0A3C582CCC5821E
:1018E300C583CDC583F0A3C582CCC582C583CDC5D1
:1018F30083DAE6D0E0CA22C3E498F8E499F912192E
:101903003B8026C3E49AFAE49BFBE920E7E912193A
:101913003BE498F8E499F922C3E498F8E499F912BE
:10192300193BE498F8E499F9C3E49AFAE49BFB229F
:10193300EB20E7CFE920E7E0B90010BB0008E88A15
:10194300F084F8AAF022E4FBC8FA22EB70227B10A1
:10195300C833C8C933C9335007C39AC3DBF28006FF
:101963009A50012ADBEAC833F4C8C933F4C9FA220E
:1019730075F008E4C833C8C933C933C99AC99B5041
:1019830004C92AC93BD5F0ECFBC833F4C8E4C9FA4F
:1019930022600D08C6A2E713C618C613C6D5E0F326
:1019A30022600C08C6C313C618C613C6D5E0F422BA
:1019B300700422600D18C6C333C608C633C6D5E00B
:1019C300F41822251810AF08F518400215198008DD
:1019D300F51840021519D2AF22C0D0251810AF0850
:1019E300F518500205198008F51850020519D2AFF1
:1019F300D0D0222518F58210AF08F518400215192A
:101A03008008F51840021519D2AF851983222518CD
:101A1300F582E43519F58322E4732518C582C0E005
:101A2300E51934FFC583C0E0E518C3958224F81097
:101A3300AF088583198582188008858319858218E4
:101A4300D2AFCEF0A3E520F0A37808E608F0A3DE3A
:101A5300FAEFF0A3E58124FAF8E608F0A3E608F02C
:101A6300A3E608F0A30808E608F0A3E608F0A31528
:101A7300811581D0E0FED0E0F8158115811581E84C
:101A8300C0E0EEC0E0222518C582C0E0E51934FFAE
:101A9300C583C0E0E518C3958224F910AF08858398
:101AA300198582188008858319858218D2AFCEF0F4
:101AB300A3E520F0A37808E608F0A3DEFAEFF0A38D
:101AC300E58124FBF8E608F0A3E608F0A30808E69E
:101AD30008F0A3E608F0A315811581D0E0FED0E05D
:101AE300F815811581E8C0E0EEC0E02285198385F1
:101AF3001882E0A3FEE0A3F5207808E0A3F608DF50
:101B0300FAE0A3FFE0A3C0E0E0A3C0E0E0A3C0E0ED
:101B1300E0A3C0E0E0A3C0E010AF0885821885838E
:101B2300198008858218858319D2AFD083D08202A9
:101B33000122851983851882E0A3FEE0A3F52078AE
:101B430008E0A3F608DFFAE0A3FFE0A3C0E0E0A308
:101B5300C0E0E0A3C0E0E0A3C0E010AF08858218B6
:101B63008583198008858218858319D2AFD083D0E5
:101B73008222C0D02518C582C0E0E51934FFC58391
:101B8300C0E0E518C3958224F310AF088583198557
:101B930082188008858319858218D2AFC8F0A3E91B
:101BA300F0A3EAF0A3EBF0A37908E709F0A3D8FACE
:101BB300ECF0A3EDF0A3EEF0A3EFF0A3D0E0F0A3DD
:101BC300D0E0F0A3D0E0F0A3E520F0A3E5F0F0A38C
:101BD30022851983851882E0C0E0A3E0F9A3E0FA27
:101BE300A3E0FBA37808E0F608A3DFFAE0FCA3E098
:101BF300FDA3E0FEA3E0FFA3E0C0E0A3E0C0E0A3F9
:101C0300E0F5D0A3E0F520A3E0A3F5F010AF08853D
:101C130083198582188008858319858218D2AFD0ED
:101C230082D083D0E0F8D0E032740480067402805E
:101C3300027401C0E0F4041219F6D0E01218CC22A9
:101C43007404800474028000CCC0E0EDC0E0E518A9
:101C5300C39CCCAD1950011D10AF068C188D198093
:101C6300068C188D19D2AF1218D9D0E0FDD0E0FC44
:101C730022D083D082E9C0E0E493A3C386F0C5F009
:101C830095F0F908E493A386F0C5F095F0700BE4A2
:101C930093A3C3994005E9048002A3E475F002A469
:101CA3002582F582E5F03583F583D0E0F9E493A34B
:101CB300C0E0E493C0E022D083D082ECC0E0EDC06A
:101CC300E0E493A3FCE493A3FDED4C600D121D0629
:101CD300EC24FFFCED34FFFD80EFE493A3FCE493DD
:101CE300A3FDED4C600D121D45EC24FFFCED34FF0C
:101CF300FD80EFD0E0FDD0E0FCE493A3C0E0E493EB
:101D0300C0E022C0E0C3E4939608740193961840A0
:101D13000FE49366700808740193661870007019D5
:101D2300A3A3C3E49396087401939618A3A3400D49
:101D3300D0E0D0E0D0E0021CF6A3A3A3A3A3A3D0DA
:101D4300E022C0E0C0F088F0E493667008087401F4
:101D53009366187000A8F0A3A3700BD0F0D0E0D066
:101D6300E0D0E0021CF6A3A3D0F0D0E02274F51279
:101D73001A89EAFEEBFFEE2434F8EF3400F9880801
:101D83008909EE2435F582EF3400F583E0F8EE247B
:101D930037F582EF3400F583E0F50AEC850AF0A409
:101DA300FCAAF0850AF0EDA42AFDE82CF8E43DF93D
:101DB3007A257B0012193BEA850882850983F0F8AE
:101DC300740758F97401B900028004C333D9FCFACB
:101DD300E8131313541FF8EE28F8EF3400F9E8243E
:101DE3005DF582E93400F583E05A6008EE2434F5AA
:101DF30082EF802CEE2434F582EF3400F583E0C0CB
:101E0300E0EE2436F582EF3400F583E0F5F0D0E020
:101E130084A8F0EE28F8EF3400F9E82438F582E9D5
:101E23003400F583E0F97F04021B3574F5121A8937
:101E3300EAFEEBFFEE2434F582EF3400F583E0C0D5
:101E4300E0EE2435F582EF3400F583D0E0F08E82A6
:101E53008F83A3A3A3A3A3A3A3C082C0838E828FD4
:101E630083A3A3A3A3A3E0F8A3E0F9D083D082E0E4
:101E7300C398F508A3E099F509EE247FF582EF34C2
:101E830000F583E064017069EE2480F582EF34008D
:101E9300F583E0F8A3E0F98E828F83A3A3A3A3A322
:101EA300A3A3E0FCA3E0FD8E828F83A3A3A3A3A33C
:101EB300E0FAA3E0FBC3EA9CEB9D5010C3EC98ED62
:101EC30099402EC3EA98EB995027800EC3EA98EB0A
:101ED300994007C3EC98ED9940177CDC7D04EEFA3A
:101EE300EFFB120C6CEE247FF582EF3400F583E4F4
:101EF300F0EE2434F8EF3400F9E8FCE9FDEE243584
:101F0300F582EF3400F583E0F8EE2437F582EF3401
:101F130000F583E0F50AE508850AF0A4F508AAF0C0
:101F2300850AF0E509A42AF509E82508F8E4350946
:101F3300F97A257B0012193BEA8C828D83F0F874C1
:101F43000758F97401B900028004C333D9FCFAE8D5
:101F5300131313541FF8EE28F8EF3400F9E8245D47
:101F6300F582E93400F583E05A6008EE2434F58203
:101F7300EF802CEE2434F582EF3400F583E0C0E0EB
:101F8300EE2436F582EF3400F583E0F5F0D0E084FB
:101F9300A8F0EE28F8EF3400F9E82438F582E934A4
:101FA30000F583E0F9122885021E29C082C08385CB
:101FB3001882851983E0F8A3E0F9C3EA9CEB9D50EE
:101FC30010C3EC98ED99401BC3EA98EB9950148029
:101FD3000EC3EA98EB994007C3EC98ED9940047956
:101FE3000180027900D083D08222EAC39CFAEB9D60
:101FF300FB2274EF121A899003A2E064086005E0E3
:102003006407702A9061C8E060249003D0E0F46014
:102013001DE0F875F003A4C8AAF02AF974D228FECB
:10202300740339FF8E828F83A3A3A3E0700302217D
:1020330025906060E0C0E0EE2468F582EF3400F59F
:1020430083D0E0F0750C45750D0575080075090022
:10205300E5D914F50AE5D95403F50E601774036541
:102063000E605CE50A6010EE2467F582EF3400F53C
:1020730083E0700302210A900540E06401602AEEC8
:102083002482F582EF3400F583E060047804800253
:102093007800850A08E508C398FA95E0FB120B3A25
:1020A3008A088B09EA45097005120E5E8074EE24D6
:1020B30082F582EF3400F583E070048A0C8B0DE522
:1020C3000A6012850C82850D83F50BE5D9F0A31503
:1020D3000BE50B70F6EE2482F582EF3400F583E016
:1020E300604474FC250AF50A780C121C30AC0AA96A
:1020F3000EEEFAEFFB120D0874021219DCE97026DA
:10210300AA08AB09121440793D8E828F83A3A3A33F
:10211300A3E0FA7B00120A0EEEFAEFFB120C841214
:102123000D1A790080747403650E6056850A107564
:1021330011007810121C30AC0CAD0DAA08AB0912BB
:102143000CE474021219DCEE2468F582EF3400F516
:1021530083E064807004747F8001E0F50C780C12D6
:102163001C34E50EF50C780C121C34A90AAC08AD2E
:10217300099003D0E0FA7B001209D274021219DC31
:1021830080139003A2E06408600BAC0CAD0DEEFA73
:10219300EFFB120D74120E6A79017F0A021B35746C
:1021A300F5121A8974FC1219C6EAFEEBFF8908A21C
:1021B300AFE433F509C2AF806AEE2463F8EF34006D
:1021C300F97A007B00A2AFE433F50AC2AF888289B3
:1021D30083E0FCA3E0FDEC4D603A88828983E0FA5A
:1021E300A3E0FB8A828B83E0FCA3E0FD88828983E2
:1021F300ECF0A3EDF08A828B83E4F0A3F08882896C
:1022030083E0FCA3E0FDEC4D700A88828983A3A3DD
:10221300E4F0A3F0E50AA2E092AF1214409004E3C5
:10222300E004F0EE2463F582EF3400F583E0F8A3D5
:10223300E0F9E849603DEE2463F582EF3400F5836D
:10224300E02402FAA3E03400FBEA2402F50AEB34AB
:1022530000F50B780A121C308A828B83E0FCA3E022
:10226300F9EEFAEFFB120CA874021219DCE9700301
:102273000221BC9004E3E060639004E4E0F890047E
:10228300E3E0C398500C7402650870509004E5E0D5
:10229300604A8E828F83A3A3A3A3E0851882851946
:1022A30083F0A3E4F09004E3E0F87402121A11E857
:1022B300F0A3E4F09004E3E0F89004E2E028F07483
:1022C30002121A11AC82AD83851882851983AA8202
:1022D300AB8379011209DE9004E3E4F0E509A2E09F
:1022E30092AF74041219DC021E29000000852187B5
:1022F3008522C622C0E0C0D0E8C0E0E9C0E0EAC061
:10230300E0EBC0E0ECC0E0EDC0E0EEC0E0C008C030
:1023130009C00AC00BC082C083C0F0A2AFE433FE81
:10232300C2AF759B00906182E0A2E05012E591A2DA
:10233300E0500C7591FE740165217003121FF5E0E6
:10234300A2E55051E591A2E5504B7591DF9003A2B0
:10235300E064076005E0640870237401652170354B
:1023630079019003D0E0FA75F003A4CAA8F028FB22
:1023730074D22AFA74033BFB1221A28018E0640D85
:1023830070139003C4E004F064287002E4F07A0050
:10239300E0F9120E70906182E0A2E6400302243E4F
:1023A300E591A2E6400302243E7591BF9003A2E0AB
:1023B30064057008120D9E120DAA8003120DA475F8
:1023C3002100120DFEE99003A3F07900120DF21221
:1023D3000BE27A017B009003A1E0F91210C290781E
:1023E30003E064427055900544E014F0704DC2AFB1
:1023F3001223F600782AD0E0F618D0E0F6E59F54D1
:102403000770057509FF800375097FC4C0E078294B
:10241300E6F50808E65509F509740B78081219A4BE
:10242300D0E02508F8906270E0A2E740F8E8C333F3
:10243300906272F0906270E0D2E0F0906181E0A26D
:10244300E35009E5E9A2E3500375E9F7A3E0A2E746
:102453005009E591A2E7500375917FEEA2E092AF98
:10246300D0F0D083D082D00BD00AD009D008D0E0EE
:10247300FED0E0FDD0E0FCD0E0FBD0E0FAD0E0F904
:10248300D0E0F8D0D0D0E032C0E0C0D0C082C0836A
:10249300906183E0A2E05009E5BFA2E0500375BF5D
:1024A300FEE0A2E15009E5BFA2E1500375BFFDE0E4
:1024B300A2E25009E5BFA2E2500375BFFBE0A2E32D
:1024C3005009E5BFA2E3500375BFF7E0A2E450094A
:1024D300E5BFA2E4500375BFEFE0A2E55009E5BFF5
:1024E300A2E5500375BFDFE0A2E65009E5BFA2E60F
:1024F300500375BFBFD083D0828088C0E0C0D0E8CE
:10250300C0E0E9C0E0EAC0E0EBC0E0ECC0E0EDC051
:10251300E0C0F0E5A7A2E6500FE5A1A2E6500953FB
:10252300A7BF75A1BF122563E5A7A2E5500CE5A1DE
:10253300A2E5500653A7DF75A1DFE5A7A2E1500985
:10254300E5A1A2E1500375A1FDE5A7A2E2500CE5C8
:10255300A1A2E2500653A7FB75A1FBD0F00224749D
:1025630074F8121A897521019003A2E064067015AC
:10257300120D388A828B83A3A3A3A3A3A3E0FAA398
:10258300E0FB120D8CA2AFE433FED2AF9003A8E0C0
:10259300640170187A207B009003A1E0F912114CBA
:1025A3007A207B009003A1E0F91210C8906182E0C9
:1025B300D2E6F0900541E0602185C62280169003A3
:1025C300A7E064017008E5C654F84405F5C653BE98
:1025D300FC1222F07401652160E4EEA2E092AF7F69
:1025E30001021B35008E238F24858228858327854E
:1025F3001882851983E0CEA3E0CF852882852783BF
:10260300EBC9EAC8EDCBECCA75F010C3E833C8E9EF
:1026130033C9EA33CAEB33CBC3EA9EF526EB9FF506
:1026230025B35004AB25AA26EC33CCED33CDD5F03E
:10263300DAAE23AF242274ED121A898A088B098C2F
:102643000A8D0B7413121A11780C121896780879E4
:102653000C1215757510017511C8751200751300EC
:1026630050127808790C121822781079081215750F
:1026730050168010780C79081218227810790C12F1
:10268300157540047901800279007F0C021B3574B3
:10269300ED121A898A088B098C0A8D0B7413121A8E
:1026A30011780C121896780C790812157540117868
:1026B30008790C121822AA08AB09AC0AAD0B8022C8
:1026C3007510007511007512007513017810790CDF
:1026D300121822781079081217E9AA10AB11AC125C
:1026E300AD1380A68A828B837508FF7509FF750A6F
:1026F300FF750B0078081218707F04021B3574F500
:10270300121A898C828D8378081218968A828B8399
:102713007808121836EA2404F8EB3400F98C828D19
:1027230083A3A3A3A3E0FCA3E0FD88828983C3E082
:102733009CF0A3E09DF088828983C3E09420A3E00A
:10274300944E40268A828B837508FF7509FF750AAC
:10275300FF750BFF780812180F8A828B83A3A3A33C
:10276300A3E02420F0A3E0344EF00226E774F51230
:102773001A89E9FE9004F7E0FAA3E0FBEEC333F80D
:10278300E433F9743228F582748139F583E02AF54C
:1027930008A3E03BF5097808121C307A407B427CA1
:1027A3000F7D001225E874021219DC8A088B098C4C
:1027B3000A8D0B741078081217B1AA08AB097F04AD
:1027C300021B3574F1121A898A0C8B0D8C0E8D0F36
:1027D300740F121A11E0FAA3E0FB7411121A11E03C
:1027E300F508A3E0F5097808121C30EA2401F5087E
:1027F300EB3400F509E4F50AF50B780C79081216A9
:10280300AD750871750902780C79081216ADAA0C1A
:10281300AB0DAC0EAD0F1225E874021219DC8B0957
:10282300EA450960047A0180027A00EC2AFCED345F
:1028330000FD7413121A11E0F8A3E0F9E8FEE9FFB2
:10284300ECF8EDF97A717B0212193B880889098E3D
:10285300828F8378081218A5ECF8EDF97A717B0260
:1028630012193B8A088B09740578081219B38E82F2
:102873008F83A3A3A3A3E508F0A3E509F07F0802D0
:102883001B35C082C083E9906000F0D083D08222E0
:10289300C2AF02000022C0E074F2121B75A2AFE4C3
:1028A30033FED2AFC2C0E5D1A2E4500653D1EF123A
:1028B300141CEEA2E092AF7F01021BD4C0E074F2BD
:1028C300121B75A2AFE433FED2AFE589A2E1500338
:1028D300121380758900C2C5EEA2E092AF7F010298
:1028E3001BD4C0E074F2121B75A2AFE433FED2AF67
:1028F300E58BA2E05003121380758B00C2E880D8E9
:10290300C0E0C0D0E8C0E0E9C0E0E5A8D2AFC2C7EC
:10291300A2E7A2E792AFD0E0F9D0E0F8D0D0D0E0C0
:1029230032C0E0C0D0E8C0E0E9C0E0C008C009C0E0
:1029330082C083A2AFE433F9D2AF9008C4E0F8A316
:10294300E0687008539AFBA374018026C2E99008DB
:10295300C4E0F50874012508F074C02508F58274F5
:10296300083400F583E0F5C19008C4E0C394044043
:1029730002E4F0E9A2E092AFD083D082D009D0087C
:0B298300D0E0F9D0E0F8D0D0D0E03276
:10299000FFFFFFFFFFFFFFFFC082C08390075FE0E4
:1029A000F8E94A6890075D603C7403F07410697040
:1029B00013EAC333FCE433FD74682CF58274073DDD
:1029C000F5838015E9702074016A70059009828092
:1029D0000874026A70119009841242A3900762EC95
:1029E000F0A3ED8001E4F08002A3F0D083D0820256
:1029F000012274F0121A1D74FE1219C68A088B097E
:102A00007E007F00EEF8EFF97A027B00121933E8BE
:102A1000C333F50EE933F50F7468250EF50C740712
:102A2000350FF50D850C82F583A385820A85830B0E
:102A3000851882851983AC82AD837A02EE248DF9E4
:102A40001214B8E9601B74C3250EF5827481350F2A
:102A5000F583124029850C82850D83E8F0A3E98077
:102A60001A851882851983E0850A82850B83F074A4
:102A700001121A11E0850C82850D83F0E5082EF80D
:102A8000E509123716EE2402FEEF3400FFC3EE9480
:102A900008EF12394D5003022A047402022FF27417
:102AA000F7121A1D74FE1219C6EAFEEBFF85188292
:102AB000851983AC82AD837A0279951214B8E960E6
:102AC00045900770E0600C1460142481601B146052
:102AD0001F802890098274BDF0A37404803C900983
:102AE000827403F0A37405803190098274E080053C
:102AF00090098274F5F0A37401801F90098274FF1D
:102B0000F0A3743F8014851882851983E0F974015D
:102B1000121A11E0900982F0A3E912370C7997128A
:102B200014B8E96041900770E0600C1460102481D3
:102B3000601714601F802790098474C6800590096F
:102B4000847465F0A3740280319009847416F0A334
:102B50007401802690098474F5F0A3E4801C900928
:102B600084E4F0A38014851882851983E0F9740148
:102B7000121A11E0900984F0A3E9F0900983123849
:102B800045900982122C40900985122C45900984A9
:102B9000122C4F7402023B8774F7121A1D74FC1238
:102BA00019C6EAFEEBFF851882851983AC82AD83D6
:102BB0007A0479891214B8E9602D9007707401F0D5
:102BC00090097BC3E09458A3E09402500E900764F0
:102BD000E0640170069007707481F09007717402D0
:102BE000F0A3E4F0A38028851882851983E090077C
:102BF00071F07401121A11E0900770F07402121A49
:102C000011E0F97403121A11E0900772F0A3E9F0D1
:102C1000900770E0547F900FF97004741480027470
:102C20000FF0A3E4F0900771123845900770122C52
:102C300040900773122C45900772122C4F023B856F
:102C4000123073F022122C4922123077A3F0221294
:102C50002C5322123077A3A3F02274E8121A1DEA33
:102C6000FEEBFF8C0A8D0B7418121A1178101218D3
:102C7000968E168F178E088F09EE4F702F7A057B70
:102C8000001211048A088B09AE08AF098E828F8367
:102C9000A3A3A3A3E4F08E828F83A3A3E50AF0A3EA
:102CA000E50BF08E828F83E4F0A3804EEA2404F5D6
:102CB00014EB3400F51590821478101217FC85146B
:102CC00082851583E0F50CE4F50DF50EF50F78100F
:102CD000790C121575502A800488088909850882A4
:102CE000850983123DCD70F17A057B001211041223
:102CF0002D38851482851583E004F0803288088998
:102D000009850882850983123DCD70F17A057B0023
:102D1000121104122D388E828F83E0FEA3E0FF850E
:102D200014828515831243AAAA16AB1712110AEE54
:102D3000FAEFFB7F10021AEF8A0C8B0DA80CA90D7D
:102D400088828983A3A3E50AF0A3E50BF088828932
:102D500083E4F0A3F0850882850983E8F0A3E9F015
:102D600022C082C083123A708A828B83F0900FF760
:102D7000E08A828B830229E974F4121A1D74FC1212
:102D800019C68908900778E065087003022E468509
:102D90001882851983AA82AB831211E890097DE01D
:102DA000F50A75F005A4F8A9F0748628FE740939AF
:102DB000FFE0C394C950198E828F83123B7712189B
:102DC000B48E828F83A31218C090097DE004806BBB
:102DD00078007900E8FAE9FBEA75F005A4FAACF0AE
:102DE00075F005EBA42CFB74862AFC74093BFD8C62
:102DF000828D83A3A3A3A3A374051218D9E8240189
:102E000008E93400F9E50A24FFFAE434FFFBC3E8DB
:102E10009AE99BA2D265D03340BAEE24FBF582EF4B
:102E200034FFF583123B771218B4EE24FCF582EFE1
:102E300034FFF5831218C090097DE4F0E50890078F
:102E400078F079018002790074041219DC0241885B
:102E5000C082C083900760C3E09489A3E09413907C
:102E600007604005E4F0A38003123D9B0229EA7449
:102E7000F7121A1D8908740F5508F874F055086088
:102E80000A24F0603424F06067806F90097EE0705F
:102E90006990097FE0640260617401F07EF4FFE8EC
:102EA000601214600514600680507A0180027A0274
:102EB00079008037121206804190097EE0703B90C5
:102EC000097FE064026033E4F07EF47F01E8600B88
:102ED00014600C14600D14600E801F7A00800A7A52
:102EE0000180067A0280027A037910121182800A28
:102EF0009009807401F07E007F00E50890075FF084
:102F0000EEFAEFFB023B8A74F0121A1DEAFEEBFFA9
:102F1000908208121C4390077D1240297583077523
:102F20008266E0C398FCA3E099FD900779123DC446
:102F300012119A74041219DC900779EAF0A3EBF0ED
:102F40007C007D009007791240298007E02CFCA3CB
:102F5000E03DFD88828983E5822402F8E583340020
:102F6000F9E8FAE9FB123DCD8A828B8370DEE02C12
:102F7000F508A3E03DF509900764780C12189690C7
:102F8000077B780C121560600C9007647C7B7D07D2
:102F900074041218D9900764780C12189690077F61
:102FA000780C121560603A900783124029C3EE989E
:102FB000EF99502D9007647C7F7D0774041218D917
:102FC000900783F0A3F07A04FB1211048A0A8B0B9A
:102FD000AE0AAF0B123050121536EEFAEFFB12119B
:102FE0000A90078312403AAA08AB0980081214B26B
:102FF00074041219DC7F08021AEF74F7121A1DEC20
:10300000FEEDFFEAC39EFAEB9FFB121236E9F508CC
:1030100090076AE0C39EFAA3E09FFB121236E965AF
:10302000087004790280027901023B8A74F6121A50
:103030001D7A047B001211048A088B09AE08AF09BF
:10304000123050121536EEFAEFFB12110A0238CB8D
:1030500090076412384AF0900765123073F09007B9
:1030600067122C49900766122C53EEFCEFFD7A0490
:103070007905221230772212384AA32274F6121AE6
:103080001D7A087B001211048A088B09AE08AF096B
:10309000121188EEFCEFFD7A087901121536EEFA6E
:1030A000EFFB12110A7A057B001211048A088B09C2
:1030B000AE08AF097C737D0D7A01799B1214B8E9D3
:1030C0006005900D73E4F0900D73123845EEFCEF3F
:1030D000FD7A057906121536EEFAEFFB12110A7A1F
:1030E000047B001211048A088B09AE08AF09121183
:1030F00094EEFCEFFD7A047900121536EEFAEFFB40
:1031000012110A7A047B001211048A088B09AE0896
:10311000AF0912118EEEFCEFFD7A04790312153619
:10312000EEFAEFFB12110A7A027B001211048A08F0
:103130008B09AE08AF091211A0EEFCEFFD7A0279FF
:1031400002121536EEFAEFFB12110A7A057B001215
:1031500011048A088B09AE08AF09121242EEFCEF87
:10316000FD7A05790F121536EEFAEFFB12110A758A
:10317000C90043C9080238CB74EA121A1D891075B8
:103180000A00750B007C007D0079008911E5106054
:10319000351460142481601B1470407512F575138A
:1031A000017514F5891580177512037513057514CB
:1031B00065801C7512E07513017514167515019064
:1031C0000785740280117512BD7513047514C675D8
:1031D00015029007857404F0A3E4F0900981E0F5EE
:1031E000088909740378081219B385080E85090F38
:1031F00074F7250EF50C740E350FF50D74E7250EDA
:10320000F50E740E350FF50FEAC333F508EB33F501
:1032100009C3EA940112394C5003023350900762FB
:10322000E0F514A3E0F515E512C39514F514E513C4
:103230009515F515C3E5149414E51594005030095F
:10324000900762E0C39512F50AA3E09513F50BE52C
:103250000A2414F50AE50B3400123515E512940121
:10326000E51312394D4006AC12AD138002891112DC
:1032700035C0EA9512EB9513A2D265D03350030204
:1032800034FCE50C2402F512E50D3400F513E50ECF
:103290002402F582E50F3400F583E9A2E04049E518
:1032A00010700302344B14601B24816038146003D7
:1032B00002350012353C121933123DB9121933127E
:1032C00035098017EAF8EBF9123DC4121933880A60
:1032D000890BE508250AF8E509350BF98512828581
:1032E000138302346F02342912355470030234B947
:1032F00014602324816056146003023500123524C3
:10330000121933123DB9121933880A890BEC250AB8
:10331000FAED350B8017ECF8EDF9123DC4121933B4
:10332000880E890FE50A250EFAE50B350FFB85128D
:103330008285138312429B850CF0A4F8ACF0850CB7
:10334000F0E9A42CF9EA28F8EB390234F1023489C7
:1033500012394B40030234FC900762E0C39514F528
:1033600012A3E09515F513C3E5129414E513940028
:10337000501B09E51224ECF50AE51334FF1235154C
:1033800012394D5006AC12AD13800289111235C0AE
:10339000E49512F512E49513F513C3E5129AE513BB
:1033A0009BA2D265D03350030234FCE50E2406F50F
:1033B00082E50F3400F583E50E2404F50EE50F34A5
:1033C00000F50FE9A2E05003023478E50C2406F87A
:1033D000E50D3400F9880A890BE50C2404F8E50DA5
:1033E0003400F9880C890DE510606014601B24819D
:1033F000603714600302350012353C121933123D58
:10340000B91219331235098017EAF8EBF9123DC4E5
:10341000121933880C890DE508250CF8E509350DDE
:10342000F9850A82850B83804612353C121933E8F0
:10343000FCE9FDECC333FCED33FD850E82850F8383
:10344000123DC4121933123509801DEAF8EBF985D3
:103450000E82850F83123DC4121933880A890BE549
:1034600008250AF8E509350BF9850C82850D83E0FE
:1034700028FEA3E0390234F9123554603C14603F51
:10348000248160051470798006850E82850F83E0A3
:10349000FEA3E0FF123524121933E8FCE9FDECC36A
:1034A00033FCED33FDEEFAEFFB121933880A890B7A
:1034B000EC250AF8ED350B8023850E82850F83E01D
:1034C000FEA3E0FFECF8EDF9EEFAEFFB12193388FA
:1034D0000E890FE50A250EF8E50B350FF9EE850C80
:1034E000F0A4FEAAF0850CF0EFA42AFFE82EF8E97C
:1034F0003FF9E82508FEE93509FF80047E007F00DA
:10350000EEFAEFFB7F0E021AEF88088909EC250816
:10351000F8ED350922F50BEAC3950AF512EB950B88
:10352000F513C322EC75F07FA4FCA8F075F07FEDD5
:10353000A428FDECF8EDF97A327B0022EA75F07FE1
:10354000A4FAA8F075F07FEBA428FBEAF8EBF97A6F
:10355000327B0022E511A2E0B3E433F50CE50A9AD0
:10356000F8E50B9BF9851108E88508F0A4F885F0CB
:10357000118508F0E9A42511F9EAC3950AFAEB953B
:103580000BFBEA850CF0A4FA85F008850CF0EBA49F
:103590002508FBE82AF508E93BF509E50875F0037D
:1035A000A4F508A8F075F003E509A428F5098C0A2C
:1035B0008D0BE50AC333F50AE50B33F50BE5102255
:1035C000900785E0F512A3E0F513C32274F7121AF1
:1035D0001D74F61219C6E9FEEAC333FAEB33FB7425
:1035E000682AF874073BF988828983ECF0A3ED120E
:1035F0003B79F088828983E0C0E07401121A11D00F
:10360000E012370CEEF91214B27A007B00EAF8EB04
:10361000F9E8C333F8E933F97402121A11E5822884
:10362000FCE58339FD746828F8740739F9888289C4
:1036300083A3E08C828D83F088828983E08C828DE5
:1036400083A31238D0940412394C40C17402121A68
:1036500011AC82AD837A08790112153612121274F8
:103660000A023B8774F0121A1D74F61219C68A08F2
:103670008B09750E00750F00E50EC333FEE50F33A1
:10368000FF74682EF50C74073FF50D850C82F583E9
:10369000A385820A85830BE5082EF582E5093FF5AF
:1036A00083123DCD6028850C82850D83123D908567
:1036B000188285198312372DC0E07401121A11D0B7
:1036C000E012370CE50EC333248DF91214B27402E4
:1036D000121A11E5822EF8E583123716E50E240141
:1036E000F50EE50F3400F50FC3E50E9404E50F1257
:1036F000394D40847402121A11AC82AD837A087974
:1037000001121536121212740A022FF2123B7DAC0E
:1037100082AD837A02223FF9850A82850B83E08895
:1037200082898312372D88828983A3F022F0850C49
:1037300082850D83E02274EC121A1D8A0C7510002C
:103740007511007512007513007A00850C088B093D
:103750008C0A8D0BEA33333354F878081217B19082
:10376000820C780812185D7403C39A33333354F80B
:1037700078081217CA781079081218830AEAC394D5
:103780000440C8AA10AB11AC12AD137F0C021AEFA3
:1037900074F7121A1D74FC1219C6EAFEEBFF121020
:1037A000EC1210F21211E28518828519831218C0EA
:1037B000851882851983EEFCEFFDECFAEDFB7404AD
:1037C0001218D9023B8574F4121A1D7A057B001277
:1037D00011048A088B09AE08AF09740C121A111271
:1037E000384578017900C3E498FAE499FB740C1227
:1037F0001A11E5822AF582E5833BF583A3A3A3A3EF
:10380000A3E0C0E0123942D0E01239DC40D8EEFC2F
:10381000EFFD7A057906121536EEFAEFFB12110A62
:10382000740C121A11E06018740D121A1178081233
:103830001896E5084509450A450B70047901800290
:10384000790002418812384AF022E08E828F83226A
:1038500074F6121A1D900980E060707A107B0012D5
:1038600011048A088B09AE08AF09900787E075F04C
:103870000FA4F8A9F0748628F8740939F9123845AC
:10388000900787E004F07A007B00E82AF582E93BA4
:10389000F583E0C0E0EE2AF582EF3BF583A3D0E0AC
:1038A0001238D0940F12394C40E0EEFCEFFD7A1044
:1038B0007908121536EEFAEFFB12110A900787E02D
:1038C000C394434006E4F0900980F07F02021AEFAF
:1038D000F0EA24010AEB3400FBC3EA2274F6121A60
:1038E0001D74FC1219C6851882851983AA82AB83C0
:1038F0001211E87A047B001211048A088B09AE08C1
:10390000AF0978007900851882851983E58228F54A
:1039100082E58339F583E0C0E0123942D0E0123904
:10392000EE9404E912394D40DDEEFCEFFD7A0479A6
:1039300007121536EEFAEFFB12110A74041219DCA5
:103940008089EE28F582EF39F58322C3EB1239E640
:103950002274F0121A1D74FC1219C6EAFEEBFF8ED7
:10396000828F83E0900D73F01210EC7801790012D1
:103970003942E0C0E0851882851983E58228FAE59E
:103980008339FBEA24FFF582EB34FFF583D0E012A4
:1039900039DC40DB8518828519831218B41211E2D4
:1039A0008A088B098C0A8D0B1210F28A0C8B0D8CF5
:1039B0000E8D0F7808790C1217E9900D787808129F
:1039C00018A58518828519831218B4900D741218E1
:1039D000C07C737D0D7A01799B022FED1239EE9434
:1039E00005E91239E6229400A2D265D03322F0E82C
:1039F000240108E93400F9C3E822C082C083900999
:103A00007FE4F090075DF090075FF0900979F00295
:103A100029E9C082C0838A828B83A3E0F87481681D
:103A2000600D74016860087480686003E8700BEAD8
:103A3000FCEBFD7A0479891214B21211CA0229EB47
:103A4000C082C08374FE1219C6123A70851882852E
:103A50001983F0900FF7E0C0E07401121A11D0E062
:103A600012370C790212153674021219DC0229EB96
:103A700090076812402DA3E028F8A3E039C313F99A
:103A8000E813900FF7F0A3E9F02274F7121A1D74EF
:103A9000F81219C6EAFCEBFD8C828D83E0C0E0745D
:103AA00001121A11D0E0F08C828D83A3E085188278
:103AB000851983F0EC2402FEED3400FF8E828F83A3
:103AC000E0C0E07403121A11D0E0F08C828D83A361
:103AD000A3A3E0C0E07402121A11D0E0123B7912E5
:103AE0003DCD900982600C123D907A0279951214B6
:103AF000B2800C124029851882851983123D90747A
:103B000002121A11123DCD9009846010123D90EE00
:103B1000FCEFFD7A0279971214B2800B12402974DF
:103B200002121A11123D907401121A11E0C0E074D1
:103B300004121A11D0E01243A5C0E07405121A1144
:103B4000D0E0F07403121A11E0C0E07406121A11EA
:103B5000D0E0F07402121A11E0C0E07407121A11DA
:103B6000D0E0F07404121A11AC82AD837A047903A8
:103B700012153674088010E508123B7D22F0851876
:103B8000828519832274041219DC7F01021AEF74F2
:103B9000F0121A1D900764E06401706390076612CA
:103BA0003DB2123D90900788123DB2E0687003A3C9
:103BB000E069603FE849603F90097BE0C398F50801
:103BC000A3E099F5093395E0F50AF50B780812158D
:103BD000B4E50BC2E7F50B908210780C12189678BA
:103BE00008790C12165E500F90078AE07009900752
:103BF000888014E849701F124026900788800BE0E7
:103C00006406600C900982123DB2E8F0A3E98005D9
:103C100090097F7402F090075DE0703F90075EE0CE
:103C200064037027C390097A123D965003023D6CDD
:103C3000900979C3E09401A3123D964003023D41EF
:103C400075800053FD0F90075E800CE07003023D0D
:103C50008D75800053FD0FE4023D8CF890075EE007
:103C6000687003023D0890075DE014600914601756
:103C7000146026023CFE90097BC082123DA8D082CF
:103C80001245375079802D900984123DC412402688
:103C9000C3EA98EB9950678035900982C0829007FB
:103CA00062124029758309D082124537500F90095E
:103CB00082124029900762E8F0A3E98018900984F5
:103CC000123DC4900762C3E09AA3E09B500890079E
:103CD00062EAF0A3EBF0900770E0F9900762C0820F
:103CE00090097B123DC4758307D082E0C39AFAA382
:103CF000E09BFB1211D0900979EAF0A3EBF090075A
:103D00005DE090075E023D8C900979123DCD701602
:103D100075800053FD0F90075DE4F090075FF09011
:103D2000097F7402806690075DE014600514602AC4
:103D3000805B90097BC082123DA8D082124537502B
:103D40003F90097EE0700643FDF075804090097950
:103D5000E024FFF0A3E034FF8032900984C0821297
:103D60004026758309D082124537501490097EE0B1
:103D7000700643FDF0758080900979123D9B800CA0
:103D800075800053FD0F900979E4F0A3F0022FF540
:103D9000E8F0A3E9F022E01239E622123D9F22E08A
:103DA0002401F0A3E034002290098212402D758393
:103DB000092212402D90097B22E8FCE9FDECC33377
:103DC000FCED33FDE0FAA3E0FB2290076612402DE4
:103DD000E84922C082C083E590540F90078BF09091
:103DE000097FE06401700302402390078BE0640FB9
:103DF00090097F702BE4F090075DF090078C740FB2
:103E0000F090078DE4F090075EE06403700990097C
:103E10007EE0700302402375800053FD0F024023B3
:103E20007402F090097EE0600302402390078CE06A
:103E3000F890078BE0687003023FC090075EE06473
:103E4000037003023FA890078BE024FD7003023F3C
:103E50002C24FE605024FE603024FE7003023F5884
:103E600024FE7003023EF124FE6009147003023F39
:103E70009B023FB7900764E064067005123DCA706C
:103E80001590075D7401023FB6900764E064067008
:103E90000C123DCA600790075DE4023FB690075DD3
:103EA0007402023FB6900764E06406601E900768E3
:103EB000E0F47003A3E0F47003023FB790075D7471
:103EC00003F0900768124029023F73123DCA600355
:103ED000023FB71242A0798D7A007B001211D69072
:103EE000097EE06003023FB743FDF07580C0023FEA
:103EF000B7900764E06406600D90076A1240337063
:103F00006A74FF698065123DCA6003023FB71242BE
:103F1000A0798F7A017B001211D690097EE06003B0
:103F2000023FB743FDF0758020023FB7900764E081
:103F30006406600590076C802A123DCA70791242AF
:103F4000A079917A027B001211D690097EE0706709
:103F500043FDF07580A0805F900764E06406601CFC
:103F600090076E124033700374FF69604A90075DDA
:103F70007403F0900762E8F0A3E9803A123DCA703A
:103F8000361242A079937A037B001211D690097EF3
:103F9000E0702443FDF0758060801C90075DE4F0C4
:103FA00043FDF0758010800F90075DE4F090075E90
:103FB000F0900979F0A3F090078BE090078C806275
:103FC000E0640E705E75800053FD0F90078EC3E0B5
:103FD0009410A3E094004022900D7CE090075D7067
:103FE000117401F0900D7CF0900765E0F912124811
:103FF00080087402F0900D7CE4F090078DE070234F
:1040000090078E12403A90078EC3E09419A3E09473
:1040100000401090075DE4F090078EF0A3F0900749
:104020008D04F00229EB90097B12402D22E0F8A3C9
:10403000E0F92212402D74FF6822123D9FF0227495
:10404000F4121A1DE9FE74046E60030241729007B7
:1040500060123DCD7003024181900760C3E0941E61
:10406000A3E09400500D7C047D007A907B0712142D
:104070002880077A047B0012142E900790E09007A6
:1040800098F0900791E0F9900799F0900792E0FA84
:1040900090079AF0900793E0FB90079BF090821CAA
:1040A000780812189690079478081215607072902C
:1040B0008238780812189690079878081215606070
:1040C0004C9007987808121896740165087004746B
:1040D00002650960149007987808121896740165B3
:1040E00008700474016509702490824478081218DD
:1040F00096900798780812156060129082307808C0
:104100001218969007987808121560701490079806
:104110007401F0A37404F0A37401F0A374AAF080F6
:1041200060900798780812189674016508700474F6
:10413000056509700E9007947C987D077404121829
:10414000D9800FE9900764F0EA900767F0EB9007D9
:1041500066F09007987808121896900794780812DD
:104160001560601D9007987C947D0774041218D91F
:10417000800FEEC3940540098E08AA087B00121434
:104180002E900760E4F0A3F07F04021AEF74F4129B
:104190001A1DEAFEEBFFEEF8EFF9E8C333F8E93356
:1041A000F9900770E0600C146011248160151460B0
:1041B0001A802275080775090F801A75081175098C
:1041C0000F801275080775090F80067508117509AB
:1041D0000FE8FEE9FF124026758307758262E0C38F
:1041E00098FAA3E099FB8508828509831242A3C34C
:1041F000EC9EED9FA2D265D033502E900770E0F96F
:104200001211D08A0A8B0BAC0AAD0BEEF8EFF985D0
:104210000882850983A3A3123DC4121933880A8931
:104220000B8508828509838047C3E49CF8E49DF9E7
:10423000C3EE98EF99A2D265D033505C900770E03E
:10424000F91211D08A0A8B0BAC0AAD0BEEF8EFF91C
:10425000850882850983A3A3A3A3A3A3123DC41247
:104260001933880A890B850882850983A3A3A3A330
:10427000A3A3A3A312429B850AF0A4C8AAF0850BAE
:10428000F0A42AFA850AF0E9A42AF9ECC398F8ED1B
:1042900099F9900979123D9002418812402DE82247
:1042A00090097BE0FCA3E0FD2212394B5004790019
:1042B0008002790102012274F0121A1D8A088B090A
:1042C0008C0A8D0B1210EC1210F28A0C8B0D8C0ED6
:1042D0008D0F7808790C12157550117808790C1229
:1042E0001822AA08AB09AC0AAD0B80087A007B0043
:1042F0007C007D00022FF574F7121A1D74FB121951
:10430000C6EAFEEBFF851882851983AC82AD837AFD
:1043100005799C1214B8E96026851882851983E412
:10432000F004121A117403F014121A117484F07448
:1043300003121A117407F07404121A117408F0743D
:1043400002121A11E0FA7401121A11E0F9EA900748
:1043500076123D917404121A11E0FA7403121A11C4
:10436000E0F9EA900774F0A3E91243A5900D7EF0FE
:10437000900D7CE4F0900D7F741EF0A3E4F0A3F0A8
:10438000A3F0900D7E123845900777122C409007CD
:1043900076122C45900775122C4F9007741243AA81
:1043A0007405023B87123B7DE022123073A3A3A366
:1043B000F02274F0121A1D89081210ECE50860480A
:1043C000740265087004740180027402900D7DF01F
:1043D00064017005900776800390077412429BFC7D
:1043E000E9FD900D7FECF0A3EDF0A3E4F0A3F01253
:1043F00010F28A0C8B0D8C0E8D0F900D7F780C12A5
:1044000017FCA3780C1218A5022FF574F0121A1DD0
:1044100074FC1219C68A828B83A3A882A983E0F553
:104420000CEA2402FCEB3400FD850C088C828D83A1
:10443000E0FFE508851882851983F0A3EFF0EA24F0
:1044400004FEEB3400FFEA2403F508EB3400F50921
:10445000850882F583E0F50E8E828F83E0F50BE50B
:104460000EF50A7402121A11E50AF0A3E50B1243C5
:10447000A5F50AA3E0F50BE50A450B6010E50C90E5
:104480000777F08C828D83E0900776801190077714
:10449000E088828983F0900776E08C828D83F074C7
:1044A00002121A11123DCD6015850882850983E03C
:1044B000900775F08E828F83E090077480119007CB
:1044C00075E0850882850983F090077412384AF0F8
:1044D0008A828B83E0F8740F58640F6008747F58E9
:1044E000900D7E8008900D7EE08A828B83F08A8218
:1044F0008B83E0A2E7502A90076812402975830F4A
:104500007582F71245374011900FF71240297583D5
:104510000775826A12453750088A828B83E0C2E7AA
:10452000F08A828B83E05480900D7CF01C1CEBFDA4
:104530007A05799C022FEDC3E098A3E09922C0820E
:10454000C083900D7DE0640190075D70087403F0F6
:1045500090076880067403F090076A12402990075C
:1045600062E8F0A3E90229EAC082C08390097FE0F3
:104570007034900D7DE0640190075D70107403F05D
:1045800090097BE024FBF8A3E034FF800E7403F075
:1045900090097BE02405F8A3E03400F9900762124B
:1045A0003D907901800279000229EBC082C083E945
:1045B000900EA3F002483A74F7121A1DE99002E136
:1045C000F07C197D037AFF7BFF1209249002E274CC
:1045D000FFF0A3F0A3E4F0A3F079051208AC900279
:1045E000E1E0F91207CE7A427B09120AEC7F010260
:1045F0001AEF74F4121A1D8A088B09EB548060308C
:104600009002E1E0F91210AA8A0A8B0BAE0AAF0BF6
:10461000EE4F60138E828F83E064B070031208C483
:10462000EEFAEFFB121098AA08E5096480FB8004FB
:104630007A007B0002480974F2121A1D74FC1219E8
:10464000C6EAFEEBFFEE4F60387402121A11EEF06C
:10465000A3EF124A6EECF0A3ED124A6EAA82AB836E
:104660001207C8E9F50870737412121A1112562253
:10467000E50A450B60658E828F831246E5EE4F702A
:104680000575080280557A067B001211048A0C8B8E
:104690000DA80CA90DE8497005750813803D8882A6
:1046A0008983E41246EFA3A3EEF0A3EF125ABBE511
:1046B0000AF0A3E50BF09002E71247779002E7605B
:1046C00017E0FCA3E08003EAFCEBFD8C828D8312F3
:1046D000477770F38C828D83125547A908740412B2
:1046E00019DC025CBDA3A3A3A3E0FEA3E0FF22F0BC
:1046F000A3F0888289832274F2121A1D890AE9754F
:10470000F017A4FEAFF09002E6E4F09002E4124746
:1047100077600A12110A9002E4E4F0A3F0EEFAEFD7
:10472000FB1211048A088B09EA4509602FEEFCEFA1
:10473000FD79001210869002E4E508F0A3E509F087
:104740007B008008124761E4F0A3F00BEBC3950AED
:1047500040F2E50A9002E6F0790080027913025CEB
:10476000BDEB75F017A4F8A9F09002E4E028FAA3D5
:10477000E0398A82F583221252DDEA4B2274F41268
:104780001A1D750800750900740C121A11125A8F3F
:10479000FEE9FF800CE5082401F508E5093400F581
:1047A00009C3E5089CE5099D503285080A85090B77
:1047B0007403780A1219B3EA250AF8EB350BF98865
:1047C000828983A3A3A3A3A3A3125622EE650A7032
:1047D00003EF650B70BFE8FAE9FB80047A007B0009
:1047E000802774F4121A1D7900EAA2E0501B7508A4
:1047F000D27509817808121C307C047D007AA57B73
:104800000E1208A674021219DC7F04021AEFC0828D
:10481000C0839002E7124841601C88828983A3A369
:10482000E06A7003A3E06B8882898370E8A3A3A386
:10483000A31252D980047A007B00D083D082020177
:1048400022125D90E8492274EE121A1D74FC1219AE
:10485000C6EAFEEBFF851882851983E4F0A3F0EE2B
:10486000240212552BEE2405124A5CEE2404F50EA8
:10487000EF124E41E024FE603924FC604624FE60C5
:104880005224FE605E24FE700302496124FE700320
:104890000249D924FE70030249E824FE700302494C
:1048A000F724FC7003024A0624FE7003024A150234
:1048B0004A529003007417F0A3E4124A7612054698
:1048C000024A52851882851983AC82AD831208CAC8
:1048D000024A22851882851983AC82AD831208D0E2
:1048E000024A22850C08850D097402121A11AC8245
:1048F000AD838508828509831252D91207EC8A0C90
:104900008B0DAC0CAD0DEC4D6042E4F50CF50D7863
:104910000C121C30750C00750D03780C121C3075D0
:104920000C01750D03780C121C307408121A111248
:104930001C4779161252D312090C74081219DCE9BB
:10494000F50C700B1252CF12055E800F750C0185AD
:104950000882850983124A64125547850C08024A69
:10496000257402121A11AC82AD83850C82850D83E9
:104970001252D91207EC8A108B11AC10AD11EC4D0C
:104980006043850C82850D83A3A3121C477510001C
:104990007511037810121C30751001751103781011
:1049A000121C307408121A11121C4779161252D3B5
:1049B00012090C74081219DCE9F509700B1252CFB8
:1049C000120564800F750901850C82850D83124ADA
:1049D00064125547850908804C851882851983AC77
:1049E00082AD831208D6803A851882851983AC82FD
:1049F000AD831208DC802B851882851983AC82ADCB
:104A0000831208E2801C851882851983AC82AD83ED
:104A10001208E8800D851882851983AC82AD831257
:104A200008EEE9F508E50860298E828F83A3E0642B
:104A300014601F850E82850F83E0900300124A6E7A
:104A4000125D8C900301125547E508A3124A7612B5
:104A50000540EEFAEFFB12086A025433F50CEF340E
:104A600000F50D22125D9085188285198322F0854C
:104A7000188285198322F07C007D03850A82850BCC
:104A8000831252DD2274EE121A1D74FC1219C68AAA
:104A90000A8B0B8C0E8D0FEA2405F508EB3400F51C
:104AA000097C157D0079007A007B03121086E508E9
:104AB0002402F50CE509124A5F8518828519838561
:104AC00082108583117810121C3085088285098335
:104AD000A3A3A3A3124F89121C30E5082405F510E7
:104AE000E5093400F5117810121C30850C82850D13
:104AF000831252E31207E674061219DC8A108B1136
:104B0000AE10AF11E50A2402F50AE50B12552EEEA0
:104B10004F7003024C4B80177402121A111252D9B3
:104B200088828983EAF0A3EBF0900300E004F09020
:104B30000300E0C394054003024C4BE4F510F5116B
:104B40007810121C307510E97511027810121C30A3
:104B50007510EA7511027810121C307406121A11C1
:104B6000121C477910EEFCEFFD1252D312090C749F
:104B7000081219DCE9705E850882850983A3A3A366
:104B8000A3A3A3A3E0F89002E9E0687048124F895C
:104B9000121C307CEA7D02E5082408FAE50934009D
:104BA000FB12108074021219DCE960298E828F8357
:104BB000A3A3A3A31252D9900300E0F510740278C6
:104BC000101219B374012510F58274033511F583A1
:104BD000EAF0A3EBF07402121A118582108583119A
:104BE0007810121C307402121A11121C47850C82A4
:104BF000850D83125DA11207F274041219DC8A106C
:104C00008B11AE10AF11900300E0F5107511007418
:104C10000278101219B374002510F874033511F9D5
:104C200088828983A31247777003024B0FE824031D
:104C3000F8E93400F9EE4F6003024B18888289834B
:104C400074FFF0A3F0900300E004F0900300E06034
:104C50000A1252CF1205527900800B85088285090D
:104C60008312553E790A02543374EA121A1D74FEF7
:104C70001219C68C128D13EA2405F50CEB125F0B8A
:104C80001246E9750800750900EA2402F510EB34B4
:104C900000F51185188285198385820A85830B7832
:104CA0000A121C30850C82850D83A3A3A3A3124E88
:104CB0004B121C30E50C2405F50AE50D12552E7833
:104CC0000A121C30850C82850D83125D9F1207E647
:104CD00074061219DC8A0A8B0BEA450B7003024D2D
:104CE000FCEA2404F50EEB124E411246E98A828B4F
:104CF00083A3A3A3E0F98510828511831252D912F0
:104D000007D4E9F5096003024DFCE4F514F51578C4
:104D100014121C307514E97515027814121C3075C4
:104D200014EA7515027814121C307406121A111246
:104D30001C477913AC0AAD0B851082851183125282
:104D4000D912090C74081219DCE9F5096003024D47
:104D5000FC9002E9E0F8E5087009E0240290030104
:104D6000F08017900301E0FCE82402FAE43400FB31
:104D7000EA6C7001EB6003024E00850882AA821281
:104D80004F809414124F785073850E82850F83E004
:104D9000C0E074022A124E38D0E0F00508850E8279
:104DA000850F83A3E0C0E085080A7402250A124E2D
:104DB00038D0E0F005089002E9124E4B121C307C0E
:104DC000EA7D0285080A7402250AFA74033400FB9E
:104DD00012106E74021219DC9002E9E02508F50841
:104DE00074FF6E700374FF6F6012EE24010EEF34D7
:104DF00000FFE508C394145003024C93E5086013C8
:104E00001251C48510828511831252D91205587926
:104E1000008014E509700375090A851282851383E1
:104E2000EEF0A3EFF0A90974021219DC7F0E021A4A
:104E3000EF85080C7402250CF58274033400F583A9
:104E4000223400F50F850E82F58322125ACE227489
:104E5000EE121A1D74FE1219C68C0E8D0FEA24056F
:104E6000F50CEB124A5F750B00900300E4F0F50AB5
:104E7000EA2402F508EB3400F5098049900300E0CC
:104E8000FA9002E9E0F8124F809417124F78400D23
:104E9000900300E0F87416C3989002E9F0124F896D
:104EA000121C307CEA7D0274012AFA74033400FB80
:104EB00012106E74021219DC9002E9E0F8900300FF
:104EC000E028F0050AE50C2416F582E50D124E3CAB
:104ED000E0F8E50AC3984003024F61900300E0C385
:104EE0009416507DE50AC333F8E433F9E50C28FE47
:104EF000E50D39FF851882851983AC82AD838E82DA
:104F00008F831252D91207EC8A108B11AC10AD119D
:104F1000EC4D7005750B018043E4F510F511781028
:104F2000121C307510E97511027810121C307510C2
:104F3000EA7511027810121C307406121A11121C34
:104F40004779168508828509831252D912090C7493
:104F5000081219DCE9F50B7003024E7C12553A80F9
:104F6000107C007D038508828509831252D91205C1
:104F70006AA90B7402025435E99400C365D0332248
:104F8000EA28F8E43400F9E822E0F5107511007819
:104F9000102274EA121A1D74FC1219C68A0C8B0DA9
:104FA0008C128D13EA2405F50AEB12552E750800B4
:104FB000750900E50A2402F510E50B3400F51174BB
:104FC00002121A1185820E85830F780E121C30850D
:104FD0000A82850B83A3A3A3A3125A7A121C30E57D
:104FE0000A2405F50EE50B3400F50F780E121C307F
:104FF0008510828511831255341252D31207E6743C
:10500000061219DC8A0E8B0FAE0EAF0FE50C2402D0
:10501000F50EE50D3400F50F80408882898374FF1A
:10502000F00508124E3174FFF005089002E9E0F532
:105030000C750D00780C121C307CEA7D0285080C82
:105040007402250CFA74033400FB12106E74021201
:1050500019DC9002E9E02508F508EE4F60718E82B8
:105060008F83A3A3A3E0F9850E82850F831252D903
:105070001207D4E9F509EE2404124A5CE97044E40D
:10508000F514F5157814121C307514E975150278AD
:1050900014121C307514EA7515027814121C307441
:1050A00008121A11121C477911EEFCEFFD850E82D1
:1050B000850F831252D912090C74081219DCE9F514
:1050C000096027850C82850D831251BA125547E578
:1050D0000870030251A01251C4850E82850F8312FD
:1050E00052D912057079000251B5850882AA82EA68
:1050F0009002E97009E02404900301F08022E0F8B6
:10510000900301E0F514E82404FCE43400FDEC65B0
:10511000147001ED70C0124F809412124F7850B687
:10512000850C82850D83E0C0E074022A124E38D0CF
:10513000E0F00508850C82850D83A3E0C0E0124EE7
:1051400031D0E01251D685820C85830D780C121C6B
:10515000307404121A11121C4785108285118312B3
:105160005DA11207F274041219DC8A0C8B0DAE0CCF
:10517000AF0D85080C7402250CF874033400F9EEA9
:105180004F700302501A851882851983E08882893E
:10519000831251D6A3E0C0E0124E31D0E002502875
:1051A000E509700375090A850A82850B831251BAD5
:1051B000125547A9097404024E29125D9085128286
:1051C00085138322900301E0F5F0E5088490030045
:1051D000F07C007D0322F005088518828519832262
:1051E00074EC121A1D74FE1219C68A088B098C0EF3
:1051F0008D0FEA2405FEEB3400FF851882851983A4
:10520000AC82AD838E828F831252D91207EC8A0A48
:105210008B0BEE2418124A5CEA450B70030252AA6B
:1052200012541C50328518828519831252D91209E2
:10523000008A108B11EA4511606B7912AC0AAD0B34
:105240008508828509831252D985108285118312BF
:105250001A1BE9F50A7058E4F50AF50B780A121CD6
:10526000308E828F83A3A3E0F50A780A121C30EEF9
:10527000240312552B780A121C308E828F8312520F
:10528000E312091274061219DCE9F50A7021850C83
:1052900082850D83E0701F8508828509831252D9AB
:1052A0001205768011750A0E8009750A018004E5E1
:1052B0000A600312553A850C82850D83E0600479FB
:1052C000008002A90A74021219DC7F0C021AEF7C1A
:1052D000007D03850A82850B831252DD22E0FAA34A
:1052E000E0FB22E0FCA3E0FD8508828509831252E1
:1052F000DD2274EE121A1D74FE1219C68A088B097B
:105300008C0C8D0DEA2405FEEB3400FF750E008534
:105310001882851983AC82AD838E828F831252D915
:105320001207EC8A0A8B0BEA450B70030254081231
:10533000541C50358518828519831252D9120900E0
:105340008A0E8B0FEA450F605E7912AC0AAD0B85B1
:1053500008828509831252D9850E82850F83121A1D
:105360001BE9F50E600302540B8508828509831240
:105370005622AA0AFB1208F48A108B11A810A91150
:10538000E849701E7AFF7BFF1208F48A108B11A87F
:1053900010A911E849606C88828983E50AF0A3E5C9
:1053A0000BF0750A008007750E0E805F050A9002EB
:1053B000E6E0FAE50AC39A504AE50A75F017A4FA3E
:1053C000ABF088828983A3A3E02AFAA3E03BFB8A9F
:1053D000828B83125534EC4D70D2750A17750B0011
:1053E000780A121C30EEFCEFFD12106E74021219D6
:1053F000DCEEFCEFFD8508828509831252D9120587
:105400007C8014750E098003750E01125D88850C71
:1054100082850D83125547A90E024F73E5082402B9
:10542000F508E5093400F5098A828B83A3A3A3E07C
:10543000A2E52274041219DC7F0A021AEF74EC123E
:105440001A1D8C108D11EA2405F50CEB124A5F75BC
:105450000F00EA2402F50AEB12552E850A82F58325
:105460001252D91208F48A088B09EA45097003021E
:105470005520750E008071850C82850D83E06401D6
:10548000704F8E828F83A3A3121C478E828F83A3BB
:10549000A3A3A3E0F5127513007812121C30EE24BA
:1054A00005F512EF3400F5137812121C301252D3A6
:1054B00012091274061219DCE9F50F6014850C82CA
:1054C000850D83E4F0125D88851082851183125565
:1054D000477C177D007900EEFAEFFB1210868E8272
:1054E0008F83E4F0A3F0050E9002E6E0F8E50EC32A
:1054F00098501EE50E75F017A4F8A9F0850882856E
:105500000983A3A3125F15125534EC4D60030254B6
:105510007785088285098374FFF0A3F0E50F700694
:105520001252D3120582A90F0252CAF50AEF3400B3
:10553000F50B22A3E0FCA3E0FD228E828F83125D97
:1055400090850E82850F83E8F0A3E9F022C082C027
:10555000839002E2E06A7003A3E06B70067AE27B5C
:105560000280047A007B0002483AC082C08378003F
:105570008C828D83E06A7003A3E06B7010E875F095
:1055800003A4F8A9F0EC28FAED39FB8015088C8209
:105590008D83A3A3A3E06A7003A3E06B60DF7A00AE
:1055A0007B0002483A74F6121A1D1208BE8A828BDA
:1055B00083E582458370067A007B008007A3A3A35E
:1055C000A31252D9025C3974F2121A1DE9FE740E4C
:1055D000121A111256227410121A11125A9A8C822F
:1055E0008D83E064027036A3125D96F50CA3E0F99A
:1055F000A80C74026870037429697021750C027517
:105600000D00780C121C307808121C30780A121C1D
:1056100030EEF912093674061219DC8002790102A3
:105620005CBDE0F50AA3E0F50B2274E8121A1D74C4
:10563000FB1219C6E9851882851983F08A168B1723
:10564000ECFEEDFF751000741D121A11125D8C74C2
:105650001D121A111255478E828F83A3A3A3E0A2B5
:10566000E4502D741D121A111252D91209008A82A7
:105670008B83E58245837003025A6B790AEEFCEF57
:10568000FDAA16AB17121A1BE9F5106003025A6E39
:10569000741F121A11125A9A7421121A11125622D8
:1056A0007423121A11E0F50EA3E0F50F8E828F839A
:1056B000E064026003025A19A3125D8C850882859A
:1056C0000983A3858212858313EE2406124A5C881F
:1056D000828983E0FAA3E0F9EA2400F514E439F5BD
:1056E000157814121CBA0100002801280E57070073
:1056F0000228D3570328405700290A590129355950
:105700000229D65803290A590429B459195AE50E11
:10571000450F6003025A14850C82850D83125A8F3F
:10572000FAE9FB8A828B83E0850A82850B83125A11
:10573000C5121C308A828B83A3E0FCA3E002599E31
:10574000E50E450F6003025A14850A82850B8374A7
:1057500001F0125AA2850882850983F07C007D0041
:105760008E828F83A3A3A3A3E02401FAA3E03400D5
:10577000FB1207ECEA4B60418A828B83E02402F83B
:10578000850A82850B83E028F0EA2404F8EB3400D4
:10579000F988828983E0851282851383125AD71291
:1057A0005AC5121C308A828B83125533E5082403B4
:1057B000FAE5093400FB0259A3850A82850B83E0D0
:1057C0002404F07C047D007900AA12AB1312108629
:1057D000025A6EE50E450F6003025A14125AA2FED9
:1057E000A3E0FF850A82850B837404F0EE850882AE
:1057F000850983F0EF851282851383F07403121AF2
:1058000011AC82AD83EEFAEFFB1207EC8A0C8B0D24
:10581000EA450D70030258B78A828B83A3A3124610
:10582000E57401121A1185820E85830F780E121C01
:10583000307405121A11121C477CFF7DFF1207F20B
:1058400074041219DC8B0FEA450F7033850C8285C6
:105850000D83125A7A121C30850C82850D83A31297
:105860001C477C027D007A687B8212061E7404123B
:1058700019DCE9700A7401121A1174FFF0A3F08E9A
:10588000828F83E064027039750C02750D00780C0C
:10589000121C308E828F83125533E5082404FAE5FA
:1058A000093400FB12106E74021219DC850A82851D
:1058B0000B83E0240280097401121A11EEF0A3EFA9
:1058C000F07401121A11125A8BF07401121A11A3FA
:1058D000125A83025A0EE50E450F6003025A1485D0
:1058E0000C82850D83125534AA16AB1712092A852E
:1058F0000A82850B837402F0EA850882850983F0A9
:10590000851282851383EB025A11E50E450F600361
:10591000025A14125AA2F8A3E0F9850A82850B8371
:105920007402F0E8850882850983F0E98512828592
:105930001383025A11850C82850D831252D91210DD
:1059400068EAFC8C82A882C3950EE4950F405FE85C
:10595000650E7002E50F70047C0080228518828538
:105960001983E0FAE50E2AFAE50F3400FBC3EA9842
:10597000EB94005003E08005E50ECCC39CFCEC8565
:105980000A82850B83F08C0A750B00780A121C3092
:10599000850C82850D83E0250EFCA3E0350FFDAA62
:1059A00008AB0912106E74021219DC025A6E7510DF
:1059B00007025A6EE50E450F705A850C82850D83DD
:1059C000125D8C850A82850B8374071246F1125A88
:1059D000831246F1A3E0851282851383F0E8240246
:1059E000FAE93400FB8A828B83125A83125AB2126C
:1059F0005A8BA3125ABB125A94F0E82405F8E934E2
:105A000000F988828983125A94A3125AD7A3A3A3B8
:105A1000A3F0805A75100B8055741D121A11125282
:105A2000D91208BE8A828B83E5824583603D125D70
:105A30008C880C890DE8450D6031780E121C307889
:105A40000A121C307808121C307406121A11E0F980
:105A5000EEFCEFFDAA16AB17850C82850D83121A9A
:105A60001B74061219DCE9F510800375100EA910DD
:105A700074051219DC7F10021AEFE0F50E750F00A5
:105A8000780E22E085088285098322125AE12212CB
:105A90005D90E822125AE1A3A322E0F508A3E0F505
:105AA0000922850C82850D83E0F8A3E0F5838882C6
:105AB000E022A3A3F08A828B83A322F088828983C9
:105AC000A3A3A3A322F08A828B83125ACE22E0F5ED
:105AD0000A750B00780A22F088828983A3125AE1A2
:105AE00022E0850882850983A3A32274EE121A1D81
:105AF00074FE1219C68A0A8B0BECFAEDFB741412B1
:105B00001A11E0F510A3E0F5117416121A11E0FE57
:105B10007418121A11E0F50EA3E0F50F85188285AE
:105B20001983AC82AD831207EC8A0C8B0DEA450D0C
