:020000040000FA
:0600000002010A02237850
:03002B000227EDBC
:030033000227CFD2
:03003B0002280E8A
:030043000227830E
:030053000223EE97
:03006B000227A9C0
:10008300022227E5C754F84401F5C779012200008D
:100093000080FB120086B900030200F4E4792178A2
:1000A30008B800028004F709D8FCE479297802B87B
:1000B30000028004F709D8FCE49002817864790C8B
:1000C3008002F0A3D8FCD9FA900DE4AA82AB839006
:1000D300013A780779058015E493A3AC82AD838A4E
:1000E300828B83F0A3AA82AB838C828D83D8E9D9D8
:1000F300E77582A37583C6740312011C758291751B
:100103008300740012011C75D00075813F7518813E
:10011300751902759F00020096C09FF59FE473D086
:100123009F22D083D082C09FE493C0E0740193C028
:10013300E0740293F59F22FF0000B400002800281A
:1001430000283075A000A000A000A000000800084F
:10015300E001F0001000100010001000100010006B
:1001630050005000500010001000D00700000000A5
:1001730000000F00010005003075070010000100AA
:1001830081FF00000000FF3E075C074407FF0202F7
:100193000208025000A0000000E80302AB90010037
:1001A30000949002B3900100003B0E029F90010067
:1001B30000B30202B3900100003C0E029D900100C7
:1001C30000C90202B3900100003D0E02A590010098
:1001D30000CB0202B3900100003E0E02C59008005E
:1001E30000CC0202B3900100003F0E02B190010067
:1001F30000400EFF0100FF2002AB9001000097902A
:1002030002B390010000A40E02AF900000000000B2
:1002130002A19003000019036E0D6E0D6E0D6E0D9D
:100223006E0D6E0D6E0D6E0D6E0D6E0D6E0D6E0DF3
:100233006E0D44105C103E10FFFF0200E2FF02004F
:10024300E7FF0200F3FF0200F3FFFAFF07000300DA
:10025300F9FFFBFF07000400F7FF07000300090095
:1002630003000A000E0005000D0005000E00020247
:1002730002020202020202010D000000100102ABA1
:10028300900100009A9002B3900100001B0F02C777
:10029300900100009C0702B3900100001C0F02C3F1
:1002A300900100006B8F02B3900100001D0F02C18B
:1002B300900100005D8F02B3900100001E0F02BF8A
:1002C30090010000B98E02B3900100001F0F02BD20
:1002D30090010000A78E02B390010000200F02BB23
:1002E30090010000958E02B390010000210F02B926
:1002F30090010000CB8E02B390010000220F02B7E1
:10030300900100004F8F02B390010000230F02B54C
:1003130090010000240F01E803053F100AFF0001CC
:100323003075030201060000000000000000000019
:1003330000000000000000000000000000000000BA
:100343000000FFFF0600800CE80384030F0013097D
:100353004F666669636577656C6C20233030303097
:100363003133051208000800020A000201060302E5
:10037300F1FF53696D706C6520424C4520506572E6
:100383006970686572616CC0150000CC150A48611C
:1003930072647761726520496E666F726D6174690C
:1003A3006F6E000A507265736574204865696768EB
:1003B300740002506F7374757265204A75646765C3
:1003C3006D656E74000A416374696F6E2052616ECD
:1003D30067650008436F6E74726F6C20436F6D6DB9
:1003E300616E6400125065736B205374617475738E
:1003F300000A4C6F636B2053746174757300025071
:100403006F77657275702054696D657374616D7073
:100413000000104865616C74682044617461000ACF
:100423004175746F6D61746963204D6F7665204407
:10043300617461000002AB90010000B98F02B390B8
:100443000100003A1002CF90030000A30D02A39015
:100453000100003B1002B390010000501002D19044
:10046300030000A70D02A390010000511002B390F6
:100473000100005F1002D390010000AF0D02A390B2
:10048300010000601002B390010000721002D590C9
:10049300030000B10D02A390010000731002B3909A
:1004A300010000801002D790020000B50D02A39056
:1004B300010000811002B390010000911002D99055
:1004C300010000B60D02A190030000BA0D02A39033
:1004D300010000921002B3900100009E1002DB9015
:1004E300030000C00D02A3900100009F1002B3900F
:1004F300010000AB1002DD90010000C50D02A390C6
:10050300010000AC1002B390010000BF1002DF90A5
:10051300000000C90D02A190030000D90D02A390B1
:10052300010000C01002B390010000CC1002CB9078
:10053300030000DF0D02A390010000CD101201257E
:100543002FB90312012546B90312012577B9031206
:100553000125B2B903120125DCB90312012506BA3C
:10056300031201251DBA0312012534BA0312012512
:100573004BBA0312012574BA0312012587BA031279
:1005830001259DBA03120125B0BA03120125D7BA7A
:100593000312012538B6021201253CB702120125C8
:1005A30074B70212012597B702120125A2B70212EE
:1005B3000125C5B702120125D4B802120125A9B934
:1005C3000212012524BA02120125ACBA0212012536
:1005D300E7BA021201251EBB02120125ACBB0212AF
:1005E300012585BC02120125E5BC02120125F0BCE0
:1005F300021201256FBD0212012572BD02120125EF
:1006030075BD0212012504BE0212012507BE0212A6
:10061300012537BE0212012561BE021201254FBF1B
:100623000212012501C002120125EA8903120125E4
:10063300128A03120125408A03120125778A0312C5
:100643000125D58A03120125208B031201256B8B0B
:1006530003120125AB8B03120125F18B0312012534
:100663001F8C03120125DC8C03120125E68C031277
:100673000125F38C03120125268D03120125F28D2A
:1006830003120125FE8D03120125168E0312012587
:10069300208E031201254CC2031201255AC20312F4
:1006A300012572C2031201258AC20312012502D653
:1006B30001120125AED60112012529D70112012508
:1006C3004AD80112012586D8011201252FD901121A
:1006D300012516DA011201257ADB01120125D1DB8E
:1006E3000112012552DC0112012542DD011201250F
:1006F3008FDD0112012515DE0112012547DE0112EE
:1007030001255BE0011201259DE001120125BBE0FB
:10071300011201253EE10112012512E20112012518
:10072300DAE201120125DAEB02120125ADEC021225
:10073300012556ED02120125A9ED0212012559EEFC
:1007430002120125E5EE02120125D1EF0212012565
:1007530000F00212012513F1021201255BF10212CE
:10076300012530F2021201256CF20212012588F2F2
:100773000212012500C503120125A39F03120125BF
:10078300B99F03120125DF9F03120125FBA003126A
:10079300012505A1031201253AA20312012532A363
:1007A3000312012500800312012530810312012564
:1007B300638103120125AD810312012574830312A2
:1007C300012513C6011201257DC601120125DCC7CF
:1007D30001120125ECC70112012519C801120125D7
:1007E30070C80112012519C90112012520CA01127D
:1007F3000125EACA011201254ACC011201258DCC3B
:100803000112012532CD011201257FCD01120125EF
:10081300A5CD01120125B3CF01120125B8CF0112D5
:100823000125BDD1011201250AD2011201257DD274
:1008330001120125B0D20112012552D30112012563
:10084300FBD30112012533D40112012536D4011241
:1008530001257ED401120125BED40112012515D52F
:100863000112012594AC03120125ACAC031201253E
:10087300F4AC031201250AAD0312012551AD031295
:10088300012565AE03120125F2AE031201253DAF2A
:100893000312012507450012012513450012012506
:1008A3004E450012012593450012012553460012BF
:1008B3000125D946001201253E47001201256A474A
:1008C30000120125A34700120125E1490012012569
:1008D300C54B00120125AB4D00120125EE4E00124F
:1008E30001253C51001201254E5200120125995356
:1008F30000120125A95400120125C6540012012536
:1009030001550012012523550012012586550012B9
:100913000125475A00120125DC5A001201252D5BDF
:1009230000120125545B00120125A65B001201256C
:10093300C45B001201251E5C00120125075D001235
:1009430001257D5E00120125015F00120125A78E9E
:1009530003120125B18E03120125F48E0312012522
:100963000F8F031201259F8F03120125C78F0312D7
:1009730001250490031201253B9003120125649085
:1009830003120125D99003120125EE9003120125CC
:100993000391031201253491031201254891031297
:1009A30001256D9103120125A79103120125D3910E
:1009B300031201255F92031201258A920312012576
:1009C300D39203120125FD920312012528930312EA
:1009D300012530BE0312012565A90212012593A941
:1009E30002120125E1AA02120125C1AB021201255F
:1009F300E0AB021201255DAC02120125A0AC02128C
:100A03000125F6AD02120125B7AE021201253EB152
:100A130002120125DFB102120125D5B2021201250E
:100A2300D2B3021201252CB502120125B7B5021269
:100A330001258DFE01120125F6FE011201254AFF53
:100A43000112012571FF01120125A2FF01120125E7
:100A5300509303120125BD9303120125049403123D
:100A630001251C9503120125189603120125FB96F7
:100A730003120125B5D302120125F7D30212012572
:100A8300C9D402120125A2D5021201259CD6021255
:100A930001257ED702120125E7D7021201259DD831
:100AA3000212012511D9021201257DD90212012555
:100AB300A6D90212012520DA02120125B9DA02129F
:100AC30001251EDB0212012533DB0212012579DB2E
:100AD3000212012592DB02120125F7DB0212012526
:100AE300FADB021201259BA903120125C3A90312F4
:100AF300012501AA03120125BFAA0312012526AB72
:100B03000312012542AB031201256AAB031201252F
:100B13009AAB03120125A9AB0312012526AC0312DC
:100B230001254CAC031201250BB601120125A9B70F
:100B330001120125C4B90112012500BA01120125D0
:100B43002DBA0112012512BB0112012559BB011255
:100B530001259DBB01120125AFBB01120125EFBB8E
:100B6300011201251CBC0112012567BC01120125DC
:100B7300A7BC01120125D5BC0112012527BD011215
:100B83000125B7BD0112012555C0011201256BC214
:100B930001120125A9C2011201253AC4011201253E
:100BA3007FC401120125F6C40112012540C50112BB
:100BB3000125E8C5011201253CCA02120125BBCA61
:100BC300021201257DD0021201258CD102120125CA
:100BD300F4D2021201258BD302120125E5900112F2
:100BE30001252E91011201255B91011201258E91A0
:100BF300011201259B9101120125A79101120125E3
:100C0300B99101120125A09201120125FE92011250
:100C13000125339301120125769401120125C39412
:100C230001120125E79401120125549501120125B2
:100C3300129601120125CB96011201253897011254
:100C43000125EA9701120125FA97011201258198DE
:100C5300011201254099011201256D990112012507
:100C6300E69901120125439A011201258D9A011279
:100C73000125239B01120125EE9B01120125A39C53
:100C830001120125189D01120125799D01120125EB
:100C9300E39D011201251C9E01120125BE9E011236
:100CA3000125CE9F011201250EA0011201252BA0C3
:100CB300011201254AA00112012591A0011201256B
:100CC300B6A001120125E3A0011201255DA10112C5
:100CD30001259EA101120125C2A20112012572A3C1
:100CE30001120125C9A30112012533A40112012513
:100CF3004CA40112012572C002120125C5C00212C3
:100D03000125D1C002120125A6C102120125CDC1C0
:100D13000212012508C20212012574C20212012522
:100D2300B0C202120125E9C20212012501C3021257
:100D3300012556C3021201256FC302120125B8C350
:100D430002120125CBC302120125E5C302120125BC
:100D5300FBC3021201252EC50212012575C602121C
:100D6300012577C70212012571C802120125F37FFD
:100D7300001201252E9C021201255E9C0212012500
:100D830026A0021201257DA10212012546A202120C
:100D93000125C6A30212012597A402120125D4A49A
:100DA30002120125F7A40212012535A5021201251D
:100DB3003EA50212012588A50212012592A5021261
:100DC30001253CA60212012515A70212012569A7D8
:100DD30002120125CBA7021201251EA8021201252A
:100DE3004DA8021201258AA8021201257EA4011230
:100DF3000125E5A701120125EBA7011201256DAD20
:100E030001120125E6B101120125BCB5011201252C
:100E13003CA303120125B2A303120125C8A30312A5
:100E2300012509A40312012543A403120125BCA42F
:100E330003120125F7A4031201256AA50312012554
:100E4300A8A503120125B1A503120125BDA503120F
:100E53000125D9A50312012504A6031201251AA60B
:100E6300031201255EA6031201252785031201251E
:100E73003A85031201255485031201257D8503124A
:100E83000125C08503120125FF85031201253D8637
:100E930003120125A28603120125B7860312012539
:100EA300C28603120125CF8603120125E6860312AB
:100EB3000125F48603120125FF86031201250B8702
:100EC300031201251E870312012529870312012519
:100ED3004C8703120125F3870312012503880312AC
:100EE30001251D88031201253A880312012556881E
:100EF300031201257B88031201258688031201252D
:100F03009B8803120125AF88031201251089031260
:100F130001251689031201251C8903120125228943
:100F2300031201253A89031201256D890312012554
:100F330005800212012589800212012538810212DF
:100F43000125978202120125B88402120125A48586
:100F530002120125D98502120125FB850212012502
:100F6300AA8602120125A28802120125CB88021249
:100F730001255D89021201258F89021201259C89B1
:100F830002120125F38902120125198A0212012591
:100F9300868C02120125898D02120125E18D021230
:100FA3000125F3E401120125FDE501120125E4E623
:100FB30001120125EEE60112012510E701120125B8
:100FC3001CE701120125B5E801120125E4E801122D
:100FD300012500EA0112012559EA01120125BFEB9F
:100FE300011201259EEC01120125FAEC01120125E3
:100FF30067ED01120125A2ED01120125E1ED0112B8
:1010030001259AF001120125B4F00112012540F1E6
:10101300011201254EF101120125A7F1011201254B
:10102300B5F10112012528F2011201258CF20112FA
:101033000125D6F2011201255FF30112012581F387
:1010430001120125A7F501120125BCF801120125A2
:10105300D4F90112012587FA0112012569FB011256
:101063000125E9BA031201250EBB0312012580BB3A
:101073000312012560E40212012569E4021201252D
:1010830072E40212012549E502120125FAE6021271
:10109300012530E7021201256AE702120125A0E7C4
:1010A30002120125DAE7021201250EE802120125D8
:1010B3003AE80212012583E802120125BDE8021273
:1010C300012506E9021201255EE90212012593E9D1
:1010D30002120125EEE90212012528EA0212012576
:1010E30079EA02120125AFEA02120125E9EA0212A6
:1010F300012517EB021201253AEB0212012523C346
:10110300031201254FC303120125AAC303120125AC
:10111300B4C303120125C4C303120125F1F802125B
:101123000125FBF80212012539F90212012582F982
:1011330002120125BCF90212012516FA0212012539
:1011430037FA0212012540FA021201258DFA021222
:101153000125B6FA02120125C0FA021201252CFB61
:1011630002120125BEFB0212012508FC0212012511
:101173003EFC02120125CAFC021201250BFD0212DC
:10118300012542FD0212012554FD0212012573FDC2
:10119300021201257CFD0212012544FE02120125E3
:1011A30049BF0312012540C0031201253EB70312B4
:1011B300012574B703120125AAB703120125F5B857
:1011C3000312012584C5031201259AC503120125C3
:1011D300A4C503120125EEC503120125BD97031211
:1011E3000125D29703120125859803120125C5987D
:1011F30003120125DE980312012519990312012513
:10120300669903120125989903120125DA990312AD
:101213000125E59B0312012555C1031201257EC15A
:1012230003120125ADC103120125C5C10312012516
:1012330007C203120125802800120125DA280012B3
:101243000125872900120125802A00120125282B58
:10125300001201252F2C00120125442C0012012518
:101263001C2D001201253B2D00120125D32D001248
:101273000125D22E00120125042F00120125572F1C
:10128300001201255E3000120125B234001201253F
:101293004A35001201252836001201258236001234
:1012A3000125B83600120125373700120125C3374F
:1012B30000120125383800120125E13800120125FA
:1012C300F93800120125273900120125713900125E
:1012D3000125693A00120125263D00120125963F9A
:1012E30000120125E44000120125004200120125ED
:1012F3000E42001201254E42001201251043001236
:1013030001256943001201259A4400120125C444B2
:101313000012012567AF031201258CAF03120125CB
:10132300B6AF031201254DC603120125685F0012F3
:101333000125CD61001201256E630012012522648F
:1013430000120125B564001201253A65001201253A
:101353005F6500120125B568001201253B69001283
:1013630001256E6A00120125A86A00120125DD6AB3
:10137300001201259D6C00120125FA6C0012012553
:10138300436D00120125AE6D001201251F6E001280
:101393000125516E00120125696E00120125B26FFD
:1013A30000120125C26F00120125DD700012012514
:1013B300FF7000120125357100120125E972001238
:1013C3000125767300120125B57300120125D97426
:1013D300001201253D7F001201254E7F00120125D9
:1013E300F6C60312012535C703120125E8FF0112D2
:1013F3000125CEC303120125DEC303120125F9C360
:101403000312012561C40312012551C003120125F2
:10141300D6C0031201253CC10312012572FE02123C
:1014230001259BFE0212012506FF0212012557FF2B
:1014330002120125B2FF0212012533B20312012564
:1014430048B20312012564B303120125D8B3031272
:101453000125F2B30312012509B4031201251CB4BB
:101463000312012536B4031201254DB403120125DD
:1014730073B403120125C4B403120125F29B0312B2
:101483000125099C03120125839C03120125679DF5
:10149300031201253E9F031201258EA60312012587
:1014A3001EA7031201258EA7031201251FA80312ED
:1014B300012528A803120125A6A803120125B9A80E
:1014C3000312012525A90312012585A9031201256C
:1014D30098A9031201256BC403120125DAC4031270
:1014E3000125E5C403120125F5C4031201258EBCB1
:1014F30003120125E0BC031201256ABD0312012575
:10150300D1BD03120125F9B40312012523B503123A
:101513000125F1B503120125CCB6031201251EDC0A
:1015230002120125E5DC021201251CDD0212012550
:1015330046DD02120125A6DD02120125FCDD0212A1
:10154300012561DE02120125F9DE0212012508E000
:10155300021201259FE1021201252CE2021201254C
:1015630093E202120125AAE202120125C4E3021248
:10157300012502E4021201252F8E02120125B091EA
:10158300021201253893021201258F9302120125BD
:10159300AE93021201252C9402120125C295021268
:1015A3000125A79602120125B59A021201258B9BEC
:1015B30002120125FE740012012591780012012503
:1015C300647900120125987A001201253F7D0012EB
:1015D3000125A27E00120125297F00120125FDF2BB
:1015E300021201254DF3021201256AF302120125AD
:1015F30001F5021201258BF50212012587F602126D
:101603000125B8F8021201253FC7031201256BC754
:1016130003E066701008A3E066700A08A3E0667032
:101623000408A3E06622C3E7960809E7960809E7DA
:10163300960809E79622C3E09608A3E09608A3E07C
:101643009608A3E09622C008C3E096F50808A3E035
:1016530096420808A3E096420808A3E0964508705E
:1016630001D3D00822080808E630E71112185112F6
:101673001680080808C64480C618181822181818B7
:10168300E9799EC608CAC608CBC608CCC6C3702073
:101693007996CACBCC7019798ECBCC70137986CC62
:1016A300700EF9802ACA33CACB33CBCC33CC33196F
:1016B30030E7F2CCCBCA3350147004EA30E00DE4C7
:1016C300CA3ACACB3BCBCC3CCC500209C3E913C6C4
:1016D300CC182313C6CB18C6CA18C6F922E6C333DF
:1016E30018461846184622E7C333194719471947BE
:1016F30022E6084608C3134608336002E633F422A1
:10170300E7094709C3134709336002E733F4221299
:1017130016F4601C12170360171216E070071216F6
:10172300EA7001D322C0D01216EA7006D0D0B322D9
:10173300C32233D0D0501430E0F6C3E7960809E74C
:10174300960809E7960809E796B32220E0D5E697BD
:101753000809E6970809E6970809E697B3220808F7
:1017630008EAC0E0EBC0E086F0E7A4FA180986F0C7
:10177300E7A42AFA180986F0E7A42AFA180986F0DA
:10178300E7A42AFA1986F0E7A4FBE5F02AFA190878
:1017930086F0E7A42BFBE5F03AFA190886F0E7A4F4
:1017A3002BFBE5F03AFA18180986F0E7A4C5F02BED
:1017B300FBE43AFA1908E7C5F0C6A426F6E5F03BC0
:1017C300FBE43AFA1886F0E7A4F6E5F00826F6E417
:1017D3003B08F6E43A08F6D0E0FBD0E0FA22E4CF87
:1017E300C0E0E4CEC0E0E4CDC0E0E4CCC0E075F0FE
:1017F30020C3E633F608E633F608E633F608E633A5
:10180300F6181818EC33FCED33FDEE33FEEF33FF1F
:10181300C3EC9709ED9709EE9709EF97191919404A
:101823000FFFEC97FC09ED97FD09EE97FE191906DA
:10183300D5F0BEECF709EDF709EEF709EFF7191943
:1018430019D0E0FCD0E0FDD0E0FED0E0FF22181874
:1018530018E4C396F608E496F608E496F608E496C8
:10186300F6226016080808C6C313C618C613C6189E
:10187300C613C618C613C6D5E0EA227009080808BD
:10188300226016181818C6C333C608C633C608C65E
:1018930033C608C633C6D5E0EA22E627F60809E6CA
:1018A30037F60809E637F60809E637F622E026F6A2
:1018B30008A3E036F608A3E036F608A3E036F622DE
:1018C300E026F008A3E036F008A3E036F008A3E032
:1018D30036F022C3E697F60809E697F60809E69775
:1018E300F60809E697F622C3E096F008A3E096F01F
:1018F30008A3E096F008A3E096F022E056F608A3CA
:10190300E056F608A3E056F608A3E056F622E056A2
:10191300F008A3E056F008A3E056F008A3E056F061
:1019230022E647F60809E647F60809E647F60809F6
:10193300E647F622E0F608A3E0F608A3E0F608A3DC
:10194300E0F622E6F008A3E6F008A3E6F008A3E633
:10195300F022E0FAA3E0FBA3E0FCA3E0FD22EAF01F
:10196300A3EBF0A3ECF0A3EDF022CAC0E0E6F0A3F2
:1019730008DAFAD0E0FA22CAC0E0E0A3C582CCC5F7
:1019830082C583CDC583F0A3C582CCC582C583CD73
:10199300C583DAE6D0E0CA22C3E498F8E499F912E1
:1019A30019DC8026C3E49AFAE49BFBE920E7E912F9
:1019B30019DCE498F8E499F922C3E498F8E499F976
:1019C3001219DCE498F8E499F9C3E49AFAE49BFB6E
:1019D30022EB20E7CFE920E7E0B90010BB0008E8DD
:1019E3008AF084F8AAF022E4FBC8FA22EB70227B87
:1019F30010C833C8C933C9335007C39AC3DBF28055
:101A0300069A50012ADBEAC833F4C8C933F4C9FA89
:101A13002275F008E4C833C8C933C933C99AC99BCE
:101A23005004C92AC93BD5F0ECFBC833F4C8E4C958
:101A3300FA22600D08C6A2E713C618C613C6D5E07E
:101A4300F322600C08C6C313C618C613C6D5E0F448
:101A530022700422600D18C6C333C608C633C6D528
:101A6300E0F41822251810AF08F518400215198064
:101A730008F51840021519D2AF22C0D0251810AFAF
:101A830008F518500205198008F51850020519D2F7
:101A9300AFD0D0222518F58210AF08F518400215F3
:101AA300198008F51840021519D2AF85198322252C
:101AB30018F582E43519F58322E4732518C582C02D
:101AC300E0E51934FFC583C0E0E518C3958224F827
:101AD30010AF08858319858218800885831985824C
:101AE30018D2AFCEF0A3E520F0A37808E608F0A360
:101AF300DEFAEFF0A3E58124FAF8E608F0A3E6089E
:101B0300F0A3E608F0A30808E608F0A3E608F0A3AC
:101B130015811581D0E0FED0E0F81581158115817E
:101B2300E8C0E0EEC0E0222518C582C0E0E5193424
:101B3300FFC583C0E0E518C3958224F910AF08857B
:101B430083198582188008858319858218D2AFCEC0
:101B5300F0A3E520F0A37808E608F0A3DEFAEFF09F
:101B6300A3E58124FBF8E608F0A3E608F0A3080840
:101B7300E608F0A3E608F0A315811581D0E0FED0B6
:101B8300E0F815811581E8C0E0EEC0E022851983F5
:101B9300851882E0A3FEE0A3F5207808E0A3F60809
:101BA300DFFAE0A3FFE0A3C0E0E0A3C0E0E0A3C04E
:101BB300E0E0A3C0E0E0A3C0E010AF088582188591
:101BC30083198008858218858319D2AFD083D08288
:101BD300020122851983851882E0A3FEE0A3F52084
:101BE3007808E0A3F608DFFAE0A3FFE0A3C0E0E093
:101BF300A3C0E0E0A3C0E0E0A3C0E010AF0885828B
:101C0300188583198008858218858319D2AFD083FC
:101C1300D08222C0D02518C582C0E0E51934FFC5A3
:101C230083C0E0E518C3958224F310AF08858319B8
:101C33008582188008858319858218D2AFC8F0A3DE
:101C4300E9F0A3EAF0A3EBF0A37908E709F0A3D83E
:101C5300FAECF0A3EDF0A3EEF0A3EFF0A3D0E0F0E5
:101C6300A3D0E0F0A3D0E0F0A3E520F0A3E5F0F0EB
:101C7300A322851983851882E0C0E0A3E0F9A3E0DD
:101C8300FAA3E0FBA37808E0F608A3DFFAE0FCA3DD
:101C9300E0FDA3E0FEA3E0FFA3E0C0E0A3E0C0E01B
:101CA300A3E0F5D0A3E0F520A3E0A3F5F010AF087F
:101CB3008583198582188008858319858218D2AF98
:101CC300D082D083D0E0F8D0E0327404800674026E
:101CD30080027401C0E0F404121A97D0E012196D67
:101CE300227404800474028000CCC0E0EDC0E0E5FF
:101CF30018C39CCCAD1950011D10AF068C188D195B
:101D030080068C188D19D2AF12197AD0E0FDD0E07D
:101D1300FC22D083D082E9C0E0E493A3C386F0C55C
:101D2300F095F0F908E493A386F0C5F095F0700BF5
:101D3300E493A3C3994005E9048002A3E475F00288
:101D4300A42582F582E5F03583F583D0E0F9E493A9
:101D5300A3C0E0E493C0E022D083D082ECC0E0EDE6
:101D6300C0E0E493A3FCE493A3FDED4C600D121DCE
:101D7300A7EC24FFFCED34FFFD80EFE493A3FCE428
:101D830093A3FDED4C600D121DE6EC24FFFCED3436
:101D9300FFFD80EFD0E0FDD0E0FCE493A3C0E0E4DE
:101DA30093C0E022C0E0C3E49396087401939618AD
:101DB300400FE4936670080874019366187000700E
:101DC30019A3A3C3E49396087401939618A3A3409D
:101DD3000DD0E0D0E0D0E0021D97A3A3A3A3A3A35B
:101DE300D0E022C0E0C0F088F0E493667008087485
:101DF300019366187000A8F0A3A3700BD0F0D0E095
:0E1E0300D0E0D0E0021D97A3A3D0F0D0E022E3
:101E140074F5121B2AEAFEEBFFEE2434F8EF3400CB
:101E2400F988088909EE2435121F40F8EE24371288
:101E34001F40F50AEC850AF0A4FCAAF0850AF0ED2F
:101E4400A42AFDE82CF8E43DF97A257B001219DC7C
:101E5400EA850882850983F074075AF87401B8008A
:101E6400028004C333D8FCFBEA131313541FF8EEA7
:101E740028F8EF3400F9E8245DF582E9121F435B8A
:101E84006003EA801CEE2436121F40F5F0EA84A8B1
:101E9400F0EE28F8EF3400F9E82438F582E9121F4F
:101EA40043F97F04021BD674F5121B2AEAFEEBFFEA
:101EB400EE2434121F40C0E0EE2435F582EF3400E6
:101EC400F583D0E0F08E828F83A3A3A3A3A3E0FACB
:101ED400A3E0FB8E828F83A3A3A3A3A3A3A3E0FC0D
:101EE400A3E0FDECC39AF50AED9BF50BEE247FF518
:101EF40008EF3400F509850882F583E06401702B4E
:101F0400EE2480F582EF3400F583121CE8121F4999
:101F14007402121A7DE960137CDC7D04EEFAEFFB97
:101F2400120C96850882850983E4F0AC0AAD0BEEA9
:101F3400FAEFFB121E1412276F021EA6F582EF346D
:101F440000F583E022C082C083851882851983E06E
:101F5400F8A3E0F9C3EA9CEB9D5010C3EC98ED990B
:101F6400401BC3EA98EB995014800EC3EA98EB998E
:101F74004007C3EC98ED994004790180027900D0C0
:101F840083D08222EAC39CFAEB9DFB2274ED121BE0
:101F94002A9003A2E064086005E06407702C906155
:101FA400C8E060269003D0E0F874FF68601CE87510
:101FB400F003A4C8AAF02AF974D228FE740339FFE6
:101FC4008E828F83A3A3A3E070057900022130EEF3
:101FD4002468F510EF3400F511906060E0851082FC
:101FE400851183F0750A45750B05750800750900A0
:101FF400E5D914F50EE5D95403F50F601CEE2482DF
:10200400F50CEF3400F50D7403650F6058E50E60B0
:1020140013EE2467121F40700B793DEEFAEFFB12AA
:102024000CBA80A6900540E064016026850C828588
:102034000D83E06004780480027800850E08E508CA
:10204400C398FA95E0FB120B3A8A088B09EA450912
:102054007006120F12021FCE850C82850D83E0706C
:10206400048A0A8B0B78008016E5D9C0E08812E553
:102074000A2512F582E50B3400F583D0E0F008E878
:10208400C3950E40E4850C82850D83E0602874FCC2
:10209400250EF50E780A121CD1AC0EA90FEEFAEF3C
:1020A400FB120D687402121A7DE9700AAA08AB09C2
:1020B4001214F402201D7403650F6058850E0C750C
:1020C4000D00780C121CD1AC0AAD0BAA08AB091296
:1020D4000D2C7402121A7D851082851183E0F87428
:1020E40080687005750C7F8002880CE50CF50A7811
:1020F4000A121CD5E50FF50A780A121CD5A90EACF4
:1021040008AD099003D0E0FA7B001209D2740212E0
:102114001A7D80139003A2E06408600BAC0AAD0B37
:10212400EEFAEFFB120DFE120F1E79017F0C021B5B
:10213400D674F3121B2A74FC121A67EAFEEBFF89A9
:1021440008A2AFE433F509C2AFEE2463F50AEF3415
:1021540000F50B8010AA0AAB0B120CE41214F490D5
:1021640004E3E004F0850A82850B83E0F8A3E0F938
:10217400E849602FE82402FAE93400FBEA2402F576
:102184000CEB3400F50D780C121CD18A828B83E0A1
:10219400FCA3E0F9EEFAEFFB120CD87402121A7DDC
:1021A400E960B29004E3E060579004E4E0F890043E
:1021B400E3E0C398500C7402650870449004E5E0B1
:1021C400603E8E828F83A3A3A3A3E0851882851922
:1021D400831222147402121AB2E81222149004E236
:1021E400E028F07402121AB2AC82AD83851882859D
:1021F4001983AA82AB8379011209DE9004E3E4F027
:10220400E509A2E092AF7404121A7D7F06021BD680
:10221400F0A3E4F09004E3E0F82200008521878530
:1022240022C622C0E074EF121C16A2AFE433FEC231
:10223400AF759B00906182E0A2E05012E591A2E0AC
:10224400500C7591FE740165217003121F90E0A279
:10225400E55051E591A2E5504B7591DF9003A2E062
:1022640064076005E06408702374016521703579A2
:10227400019003D0E0FA75F003A4CAA8F028FB7417
:10228400D22AFA74033BFB1221358018E0640D70E6
:10229400139003C4E004F064287002E4F07A00E0D0
:1022A400F9120F24906182E0A2E6400302234EE576
:1022B40091A2E6400302234E7591BF9003A2E0640D
:1022C400057008120E40120E4C8003120E46752142
:1022D40000120EB2E99003A3F07900120EA6120CBC
:1022E400007A017B009003A1E0F912117690780343
:1022F400E064427055900544E014F0704DC2AF1292
:10230400230600782AD0E0F618D0E0F6E59F5407BB
:1023140070057509FF800375097FC4C0E07829E65C
:10232400F50808E65509F509740B7808121A45D022
:10233400E02508F8906270E0A2E740F8E8C3339023
:102344006272F0906270E0D2E0F0906181E0A2E30A
:102354005009E5E9A2E3500375E9F7A3E0A2E750C9
:1023640009E591A2E7500375917FEEA2E092AF7F59
:1023740004021C75C0E0C0D0C082C083906183E0B9
:10238400A2E05009E5BFA2E0500375BFFEE0A2E160
:102394005009E5BFA2E1500375BFFDE0A2E2500978
:1023A400E5BFA2E2500375BFFBE0A2E35009E5BF1D
:1023B400A2E3500375BFF7E0A2E45009E5BFA2E42D
:1023C400500375BFEFE0A2E55009E5BFA2E5500355
:1023D40075BFDFE0A2E65009E5BFA2E6500375BF72
:1023E400BFD083D082D0D0D0E032C0E074F2121CCF
:1023F40016E5A7A2E4500FE5A1A2E4500953A7EF04
:1024040075A1EF122442E5A7A2E5500CE5A1A2E5CF
:10241400500653A7DF75A1DFE5A7A2E15009E5A1A6
:10242400A2E1500375A1FDE5A7A2E2500CE5A1A22B
:10243400E2500653A7FB75A1FB7F01021C7574F8DB
:10244400121B2A7521019003A2E0640670077A002A
:102454007B00120E28A2AFE433FED2AF9003A8E0B3
:10246400640170187A207B009003A1E0F912120035
:102474007A207B009003A1E0F912117C906182E044
:10248400D2E6F0900541E0602185C62280169003D3
:10249400A7E064017008E5C654F84405F5C653BEC8
:1024A400FC1222207401652160E4EEA2E092AF7F69
:1024B40001021BD68E238F248582288583278518C5
:1024C40082851983E0CEA3E0CF852882852783EB1C
:1024D400C9EAC8EDCBECCA75F010C3E833C8E933D8
:1024E400C9EA33CAEB33CBC3EA9EF526EB9FF52545
:1024F400B35004AB25AA26EC33CCED33CDD5F0DABA
:10250400AE23AF242274F1121B2A8A088B098C0A89
:102514008D0B90904C78081218FE740F121AB27832
:102524000C12193790904C780C1218FE7808790C1C
:1025340012162990903850107808790C1218D67811
:10254400081216494014800E780C79081218D678AF
:102554000C12164950047901800279007F08021B8D
:10256400D674ED121B2A8A088B098C0A8D0B909065
:102574004C78081218FE7413121AB2780C12193718
:1025840090904C780C1218FE780C79081216294099
:10259400117808790C1218D6AA08AB09AC0AAD0B4D
:1025A40080227510007511007512007513017810E2
:1025B400790C1218D67810790812189DAA10AB114C
:1025C400AC12AD137F0C021BD690904C78081219F4
:1025D400378A828B8378081219117F04021BD67400
:1025E400F5121B2A8C828D8378081219378A828B04
:1025F4008378081218EA122637C3E098F0A3E0990A
:10260400122629401E90904078081219378A828B2E
:102614008378081218C38E828F83E02420F0A3E00D
:10262400344EF080A4F08E828F83C3E09420A3E024
:10263400944E22EA2404F8EB3400F9E8FEE9FF8C16
:10264400828D83A3A3A3A3E0F8A3E0F98E828F83F2
:102654002274F5121B2AE9FE9004F7E0FAA3E0FBCA
:10266400EEC333F8E433F9741028F582748F39F526
:1026740083E02AF508A3E03BF5097808121CD19001
:1026840090681219551224B87402121A7D8A088BA4
:10269400098C0A8D0B74107808121865AA08AB0906
:1026A4007F04021BD674F1121B2A8A0C8B0D8C0E2C
:1026B4008D0F740F121AB2E0FAA3E0FB7411121A10
:1026C400B2E0F508A3E0F5097808121CD1EA240168
:1026D400F508EB3400F509E4F50AF50B780C7908F4
:1026E4001217619090307808121937780C79081213
:1026F4001761AA0CAB0DAC0EAD0F1224B874021204
:102704001A7D8B09EA450960047A0180027A00EC9B
:102714002AFCED3400FD7413121AB2E0F8A3E0F9B8
:10272400E8FEE9FFECF8EDF97A717B021219DC8816
:10273400088909E4F50AF50B8E828F83780812194B
:1027440046ECF8EDF97A717B021219DC8A088B09E0
:1027540074057808121A548E828F83A3A3A3A3E569
:1027640008F0A3E509F07F08021BD6C082C083E904
:10277400906000F0D083D08222C2AF02000022C059
:10278400E074F2121C16A2AFE433FED2AFC2C0E56D
:10279400D1A2E4500653D1EF1214D0EEA2E092AFCE
:1027A4007F01021C75C0E074F2121C16A2AFE43360
:1027B400FED2AFE589A2E15003121434758900C238
:1027C400C5EEA2E092AF7F01021C75C0E074F21264
:1027D4001C16A2AFE433FED2AFE58BA2E050031285
:1027E4001434758B00C2E880D8C0E0C0D0E8C0E0E3
:1027F400E9C0E0E5A8D2AFC2C7A2E7A2E792AFD092
:10280400E0F9D0E0F8D0D0D0E032C0E0C0D0E8C0E9
:10281400E0E9C0E0C008C009C082C083A2AFE433CD
:10282400F9D2AF9008C4E0F8A3E0687008539AFBAB
:10283400A374018026C2E99008C4E0F50874012558
:1028440008F074C02508F58274083400F583E0F5B7
:10285400C19008C4E0C394044002E4F0E9A2E09209
:10286400AFD083D082D009D008D0E0F9D0E0F8D03E
:10287400D0D0E032FFFFFFFFFFFFFFFFC082C08325
:1028840090075FE0F8E94A6890075D603C7403F0E4
:102894007410697013EAC333FCE433FD74682CF5D7
:1028A4008274073DF5838015E9702074016A700510
:1028B400900982800874026A70119009841241FAA6
:1028C400900762ECF0A3ED8001E4F08002A3F0D065
:1028D40083D08202012274F0121ABE74FE121A67A7
:1028E4008A088B097E007F00EEF8EFF97A027B00FC
:1028F4001219D4E8C333F50EE933F50F7468250EC5
:10290400F50C7407350FF50D850C82F583A38582CC
:102914000A85830B851882851983AC82AD837A027C
:10292400EE248DF912156CE9601B74C2250EF58234
:10293400748F350FF583123F80850C82850D83E8F3
:10294400F0A3E9801A851882851983E0850A8285B7
:102954000B83F07401121AB2E0850C82850D83F0AA
:10296400E5082EF8E5091235FBEE2402FEEF3400EB
:10297400FFC3EE9408EF12383450030228EC7402BB
:1029840002362074F7121ABE74FE121A67EAFEEBBE
:10299400FF851882851983AC82AD837A02799512FA
:1029A400156CE96045900770E0600C146014248194
:1029B400601B14601F802890098274BDF0A3740406
:1029C400803C9009827403F0A374058031900982DD
:1029D40074E0800590098274F5F0A37401801F905F
:1029E400098274FFF0A3743F8014851882851983CB
:1029F400E0F97401121AB2E0900982F0A3E91235E9
:102A0400F1799712156CE96041900770E0600C143D
:102A140060102481601714601F802790098474C695
:102A240080059009847465F0A37402803190098450
:102A34007416F0A37401802690098474F5F0A3E45D
:102A4400801C900984E4F0A380148518828519837E
:102A5400E0F97401121AB2E0900984F0A3E9F0904D
:102A64000983123053900982122F45900985122F41
:102A74004B900984122F527402023A6174F7121AAD
:102A8400BE74FC121A67EAFEEBFF8518828519836F
:102A9400AC82AD837A04798912156CE9602D9007B4
:102AA400707401F090097BC3E09458A3E094025041
:102AB4000E900764E0640170069007707481F090D2
:102AC40007717402F0A3E4F0A380288518828519A5
:102AD40083E0900771F07401121AB2E0900770F06D
:102AE4007402121AB2E0F97403121AB2E090077277
:102AF400F0A3E9F0900770E0547F900FF97004742C
:102B0400148002740FF0A3E4F09007711230539014
:102B14000770122F45900773122F4B900772122FD4
:102B240052023A5F74E8121ABEEAFEEBFF8C0A8D79
:102B34000B7418121AB278101219378E168F178E5A
:102B4400088F09EE4F702F7A057B001211B88A089E
:102B54008B09AE08AF098E828F83A3A3A3A3E4F0ED
:102B64008E828F83A3A3E50AF0A3E50BF08E828FF8
:102B740083E4F0A3804EEA2404F514EB3400F51545
:102B840090904078101218B0851482851583E0F572
:102B94000CE4F50DF50EF50F7810790C121629508A
:102BA4002A800488088909850882850983123D20C2
:102BB40070F17A057B001211B8122C0685148285F7
:102BC4001583E004F0803288088909850882850924
:102BD40083123D2070F17A057B001211B8122C0685
:102BE4008E828F83E0FEA3E0FF8514828515831215
:102BF4004301AA16AB171211BEEEFAEFFB7F1002C7
:102C04001B908A0C8B0DA80CA90D88828983A3A321
:102C1400E50AF0A3E50BF088828983E4F0A3F0854C
:102C24000882850983E8F0A3E9F022C082C08312F8
:102C340039578A828B83F0900FF7122ECC0228D159
:102C440074F4121ABE74FC121A678908900779E0AA
:102C540065087003022D12851882851983AA82AB38
:102C64008312129C90097DE0F50A75F005A4F8A979
:102C7400F0748628FE740939FFE0C394C950198E94
:102C8400828F83123CC31219558E828F83A312192B
:102C94006190097DE004806B78007900E8FAE9FB33
:102CA400EA75F005A4FAACF075F005EBA42CFB74FE
:102CB400862AFC74093BFD8C828D83A3A3A3A3A362
:102CC400740512197AE8240108E93400F9E50A24A4
:102CD400FFFAE434FFFBC3E89AE99BA2D265D03340
:102CE40040BAEE24FBF582EF34FFF583123CC312A5
:102CF4001955EE24FCF582EF34FFF5831219619027
:102D0400097DE4F0E508900779F079018002790003
:102D14007404121A7D0240DFC082C083900760C32E
:102D2400E09489A3E094139007604005E4F0A38045
:102D340003123CDF0228D274F7121ABE8908740FFA
:102D44005508F874F05508600A24F0603424F060E3
:102D540067806F90097EE0706990097FE06402608B
:102D6400617401F07EF4FFE86012146005146006DB
:102D740080507A0180027A02790080371212BA8078
:102D84004190097EE0703B90097FE064026033E487
:102D9400F07EF47F01E8600B14600C14600D146085
:102DA4000E801F7A00800A7A0180067A0280027AF5
:102DB400037910121236800A9009807401F07E00A3
:102DC4007F00E50890075FF0EEFAEFFB023A6474C7
:102DD400F0121ABEEAFEEBFF909034121CE4900746
:102DE4007E123F80758307758266E0C398FCA3E07A
:102DF40099FD90077A123D1712124E7404121A7D2F
:102E040090077AEAF0A3EBF07C007D0090077A1239
:102E14003F808007E02CFCA3E03DFD88828983E5A8
:102E2400822402F8E5833400F9E8FAE9FB123D2034
:102E34008A828B8370DEE02CF508A3E03DF50990CF
:102E44000764780C12193790077C780C12161460FA
:102E54000C9007647C7C7D07740412197A900764D3
:102E6400780C121937900780780C1216146047906A
:102E74000784123F80C3EE98EF99503A9007647C20
:102E8400807D07740412197A900784F0A3F07A0401
:102E9400FB1211B8900764122ECCF0900765122E25
:102EA400C7F0900767122EC7A3F0900766122EC7CB
:102EB400A3A3F01211BE900784123F91AA08AB0994
:102EC400023623122ECCA322E08A828B832274F74B
:102ED400121ABEECFEEDFFEAC39EFAEB9FFB121240
:102EE400EAE9F50890076AE0C39EFAA3E09FFB12A3
:102EF40012EAE965087004790280027901023A64F1
:102F040074F6121ABE7A047B001211B88A088B096F
:102F1400AE08AF09900764123053900765122F452D
:102F2400900767122F4B900766122F52EEFCEFFDAD
:102F34007A0479051215EAEEFAEFFB1211BE023794
:102F4400B2123058A3F022123058A3A3F022124335
:102F540007F02274F6121ABE7A087B001211B88A9E
:102F6400088B09AE08AF0912123CEEFCEFFD7A089B
:102F740079011215EAEEFAEFFB1211BE7A057B0015
:102F84001211B88A088B09AE08AF097C737D0D7ADB
:102F940001799B12156CE96005900D73E4F0900DB6
:102FA40073123053EEFCEFFD7A0579061215EAEE42
:102FB400FAEFFB1211BE7A047B001211B88A088B57
:102FC40009AE08AF09121248EEFCEFFD7A0479004D
:102FD4001215EAEEFAEFFB1211BE7A047B0012110D
:102FE400B88A088B09AE08AF09121242EEFCEFFD55
:102FF4007A0479031215EAEEFAEFFB1211BE7A0293
:103004007B001211B88A088B09AE08AF091212545A
:10301400EEFCEFFD7A0279021215EAEEFAEFFB12EA
:1030240011BE7A057B001211B88A088B09AE08AF6D
:10303400091212F6EEFCEFFD7A05790F1215EAEE8D
:10304400FAEFFB1211BE75C90043C9080237B21268
:103054003058F022E08E828F832274EA121ABE89DD
:1030640010750A00750B007C007D0079008911E55C
:103074001060351460142481601B1470407512F5BF
:103084007513017514F589158017751203751305E9
:10309400751465801C7512E0751301751416751589
:1030A40001900786740280117512BD75130475149E
:1030B400C67515029007867404F0A3E4F0900981A4
:1030C400E0F508890974037808121A5485080E85F6
:1030D400090F74F7250EF50C740E350FF50D74E712
:1030E400250EF50E740E350FF50FEAC333F508EB14
:1030F40033F509C3EA94011238335003023236908F
:103104000762E0F514A3E0F515E512C39514F51470
:10311400E5139515F515C3E5149414E515940050BD
:103124003009900762E0C39512F50AA3E09513F500
:103134000BE50A2414F50AE50B34001233FBE512FF
:103144009401E5131238344006AC12AD13800289A1
:10315400111234A6EA9512EB9513A2D265D033501E
:10316400030233E2E50C2402F512E50D3400F513F5
:10317400E50E2402F582E50F3400F583E9A2E04070
:1031840049E510700302333114601B248160381444
:1031940060030233E61234221219D4123D0C1219C0
:1031A400D41233EF8017EAF8EBF9123D171219D451
:1031B400880A890BE508250AF8E509350BF9851213
:1031C4008285138302335502330F12343A7003029B
:1031D400339F146023248160561460030233E61283
:1031E400340A1219D4123D0C1219D4880A890BEC32
:1031F400250AFAED350B8017ECF8EDF9123D17129C
:1032040019D4880E890FE50A250EFAE50B350FFB54
:103214008512828513831241F2850CF0A4F8ACF078
:10322400850CF0E9A42CF9EA28F8EB390233D7022B
:10323400336F12383240030233E2900762E0C395E1
:1032440014F512A3E09515F513C3E5129414E513D0
:103254009400501B09E51224ECF50AE51334FF121F
:1032640033FB1238345006AC12AD138002891112AC
:1032740034A6E49512F512E49513F513C3E5129AF6
:10328400E5139BA2D265D03350030233E2E50E244A
:1032940006F582E50F3400F583E50E2404F50EE50A
:1032A4000F3400F50FE9A2E0500302335EE50C246D
:1032B40006F8E50D3400F9880A890BE50C2404F8B6
:1032C400E50D3400F9880C890DE510606014601B6D
:1032D400248160371460030233E61234221219D4B5
:1032E400123D0C1219D41233EF8017EAF8EBF912DD
:1032F4003D171219D4880C890DE508250CF8E50949
:10330400350DF9850A82850B838046123422121901
:10331400D4E8FCE9FDECC333FCED33FD850E828576
:103324000F83123D171219D41233EF801DEAF8EB04
:10333400F9850E82850F83123D171219D4880A89E4
:103344000BE508250AF8E509350BF9850C82850D8E
:1033540083E028FEA3E0390233DF12343A603C14E0
:10336400603F248160051470798006850E82850F84
:1033740083E0FEA3E0FF12340A1219D4E8FCE9FD4D
:10338400ECC333FCED33FDEEFAEFFB1219D4880ADB
:10339400890BEC250AF8ED350B8023850E82850F09
:1033A40083E0FEA3E0FFECF8EDF9EEFAEFFB12196F
:1033B400D4880E890FE50A250EF8E50B350FF9EED2
:1033C400850CF0A4FEAAF0850CF0EFA42AFFE82EE9
:1033D400F8E93FF9E82508FEE93509FF80047E0095
:1033E4007F00EEFAEFFB7F0E021B9088088909EC40
:1033F4002508F8ED350922F50BEAC3950AF512EB19
:10340400950BF513C322EC75F07FA4FCA8F075F0BE
:103414007FEDA428FDECF8EDF97A327B0022EA7501
:10342400F07FA4FAA8F075F07FEBA428FBEAF8EB90
:10343400F97A327B0022E511A2E0B3E433F50CE51E
:103444000A9AF8E50B9BF9851108E88508F0A4F8B9
:1034540085F0118508F0E9A42511F9EAC3950AFA63
:10346400EB950BFBEA850CF0A4FA85F008850CF0CB
:10347400EBA42508FBE82AF508E93BF509E50875FE
:10348400F003A4F508A8F075F003E509A428F509EC
:103494008C0A8D0BE50AC333F50AE50B33F50BE50E
:1034A4001022900786E0F512A3E0F513C32274F707
:1034B400121ABE74F6121A67E9FEEAC333FAEB3342
:1034C400FB74682AF874073BF988828983ECF0A3BB
:1034D400ED123CC5F088828983E0C0E07401121AC1
:1034E400B2D0E01235F1EEF91215667A007B00EAEB
:1034F400F8EBF9E8C333F8E933F97402121AB2E5C8
:103504008228FCE58339FD746828F8740739F98842
:10351400828983A3E08C828D83F088828983E08C06
:10352400828D83A31237B7940412383340C17402D6
:10353400121AB2AC82AD837A0879011215EA12121A
:10354400C6740A023A6174F0121ABE74F6121A674B
:103554008A088B09750E00750F00E50EC333FEE56E
:103564000F33FF74682EF50C74073FF50D850C823C
:10357400F583A385820A85830BE5082EF582E50988
:103584003FF583123D206028850C82850D83123A15
:1035940059851882851983123612C0E07401121AF3
:1035A400B2D0E01235F1E50EC333248DF91215665D
:1035B4007402121AB2E5822EF8E5831235FBE50E89
:1035C4002401F50EE50F3400F50FC3E50E9404E570
:1035D4000F12383440847402121AB2AC82AD837A6A
:1035E4000879011215EA1212C6740A802F123CC916
:1035F400AC82AD837A02223FF9850A82850B83E08F
:103604008882898312361288828983A3F022F08506
:103614000C82850D83E0221215667404121A7D7FD4
:1036240008021B9074EC121ABE8A0C7510007511F6
:10363400007512007513007A00850C088B098C0A3A
:103644008D0BEA33333354F87808121865909000E0
:1036540078081218FE7403C39A33333354F8780885
:1036640012187E781079081219240AEAC3940440C7
:10367400C8AA10AB11AC12AD137F0C021B9074F7E7
:10368400121ABE74FC121A67EAFEEBFF1211A012A2
:1036940011A612129685188285198312196185184C
:1036A40082851983EEFCEFFDECFAEDFB740412192C
:1036B4007A023A5F74F4121ABE7A057B001211B8CA
:1036C4008A088B09AE08AF09740C121AB21230536F
:1036D40078017900C3E498FAE499FB740C121AB2E5
:1036E400E5822AF582E5833BF583A3A3A3A3A3E0A4
:1036F400C0E0123829D0E01238C340D8EEFCEFFD08
:103704007A0579061215EAEEFAEFFB1211BE740C73
:10371400121AB2E06018740D121AB278081219372E
:10372400E5084509450A450B7004790180027900D2
:103734000240DF74F6121ABE900980E060707A10BD
:103744007B001211B88A088B09AE08AF099007886C
:10375400E075F00FA4F8A9F0748628F8740939F913
:10376400123053900788E004F07A007B00E82AF5D1
:1037740082E93BF583E0C0E0EE2AF582EF3BF58376
:10378400A3D0E01237B7940F12383340E0EEFCEFC9
:10379400FD7A1079081215EAEEFAEFFB1211BE90C9
:1037A4000788E0C394434006E4F0900980F07F0268
:1037B400021B90F0EA24010AEB3400FBC3EA2274F2
:1037C400F6121ABE74FC121A67851882851983AA28
:1037D40082AB8312129C7A047B001211B88A088B84
:1037E40009AE08AF0978007900851882851983E548
:1037F4008228F582E58339F583E0C0E0123829D0C8
:10380400E01238D59404E912383440DDEEFCEFFDC3
:103814007A0479071215EAEEFAEFFB1211BE74046A
:10382400121A7D8089EE28F582EF39F58322C3EBE5
:103834001238CD2274F0121ABE74FC121A67EAFE12
:10384400EBFF8E828F83E0900D73F01211A078014C
:103854007900123829E0C0E0851882851983E58251
:1038640028FAE58339FBEA24FFF582EB34FFF5837C
:10387400D0E01238C340DB851882851983121955AC
:103884001212968A088B098C0A8D0B1211A68A0CC7
:103894008B0D8C0E8D0F7808790C12189D900D7875
:1038A4007808121946851882851983121955900DC6
:1038B400741219617C737D0D7A01799B02361B1297
:1038C40038D59405E91238CD229400A2D265D033BC
:1038D40022F0E8240108E93400F9C3E822C082C0D8
:1038E4008390097FE4F090075DF090075FF0900902
:1038F40079F00228D1C082C0838A828B83A3E0F846
:10390400748168600D74016860087480686003E8FD
:10391400700BEAFCEBFD7A04798912156612127EAB
:103924000228D3C082C08374FE121A6712395785E5
:103934001882851983F0900FF7E0C0E07401121A21
:10394400B2D0E01235F179021215EA7402121A7D2E
:103954000228D3900768123F84A3E028F8A3E03933
:10396400C313F9E813900FF7F0A3E9F02274F712E8
:103974001ABE74F8121A67EAFCEBFD8C828D83E0A0
:10398400C0E07401121AB2D0E0F08C828D83A312CD
:103994003CD6EC2402FEED3400FF8E828F83E0C01F
:1039A400E07403121AB2D0E0F08C828D83A3A3A337
:1039B400E0C0E07402121AB2D0E0123CC5123D20FD
:1039C400900982600C123A597A0279951215668030
:1039D4000C123F80851882851983123A5974021299
:1039E4001AB2123D209009846010123A59EEFCEF8D
:1039F400FD7A027997121566800B123F80740212C9
:103A04001AB2123A597401121AB2E0C0E0740412E4
:103A14001AB2D0E01242FCC0E07405121AB2D0E02F
:103A2400F07403121AB2E0C0E07406121AB2D0E0C5
:103A3400F07402121AB2E0C0E07407121AB2D0E0B5
:103A4400F07404121AB2AC82AD837A0479031215AD
:103A5400EA74088008E8F0A3E9F0227404121A7DDD
:103A64007F01021B9074F0121ABE74FC121A679044
:103A74000764E064016003023B32900766123D0371
:103A8400900789123CECE0687003A3E069700302BC
:103A94003B26E8497003023B2A90097C123CD690ED
:103AA400097BE0C0E07401121AB2D0E0F090078AFA
:103AB400E0C0E07402121AB2D0E0F0900789E0C0CE
:103AC400E07403121AB2D0E0123CC5AC82AD837A22
:103AD4000479051215EA900778E0604A90097BC0E2
:103AE40082900789123CFCD082E0C398F508A3E0D9
:103AF40099F5093395E0F50AF50B7808121668E58F
:103B04000BC2E7F50B909004780C121937780879FA
:103B14000C1217125010900789123D03900778E495
:103B24008022E849701F123F7D900789800BE06472
:103B340006600C900982123CECE8F0A3E980059041
:103B4400097F7402F090075DE0703F90075EE064C7
:103B5400037027C390097A123CD15003023C9F9012
:103B64000979C3E09401A3123CD14003023C74756B
:103B7400800053FD0F90075E800CE07003023CC090
:103B840075800053FD0FE4023CBFF890075EE068C7
:103B94007003023C3B90075DE01460091460171445
:103BA4006026023C3190097BC082123CF9D082121B
:103BB40044935079802D900984123D17123F7DC3A0
:103BC400EA98EB9950678035900982C08290076229
:103BD400123F80758309D082124493500F9009825A
:103BE400123F80900762E8F0A3E9801890098412DC
:103BF4003D17900762C3E09AA3E09B5008900762C8
:103C0400EAF0A3EBF0900770E0F9900762C08290AD
:103C1400097B123D17758307D082E0C39AFAA3E0AB
:103C24009BFB121284900979EAF0A3EBF090075DF4
:103C3400E090075E023CBF900979123D2070167532
:103C4400800053FD0F90075DE4F090075FF090094A
:103C54007F7402806690075DE014600514602A801A
:103C64005B90097BC082123CF9D082124493503F8E
:103C740090097EE0700643FDF0758040900979E07C
:103C840024FFF0A3E034FF8032900984C082123F05
:103C94007D758309D082124493501490097EE0709C
:103CA4000643FDF0758080900979123CDF800C7525
:103CB400800053FD0F900979E4F0A3F002361EE56D
:103CC40008123CC922F085188285198322E0123833
:103CD400CD22E0851882851983F022123CE322E08C
:103CE4002401F0A3E0340022123CF022E0F8A3E027
:103CF400F990097B22900982123F8475830922126C
:103D04003CF0E8F0A3E9F022E8FCE9FDECC333FC65
:103D1400ED33FDE0FAA3E0FB22900766123F84E84E
:103D24004922C082C083E590540F90078BF090091C
:103D34007FE064017003023F7A90078BE0640F9088
:103D4400097F702BE4F090075DF090078C740FF0FE
:103D540090078DE4F090075EE06403700990097E9B
:103D6400E07003023F7A75800053FD0F023F7A74BE
:103D740002F090097EE06003023F7A90078CE0F83D
:103D840090078BE0687003023F1790075EE06403BE
:103D94007003023EFF90078BE024FD7003023E7F18
:103DA40024FE605024FE603024FE7003023EAB24E7
:103DB400FE7003023E4424FE6009147003023EEECA
:103DC400023F0E900764E064067005123D1D7015F5
:103DD40090075D7401023F0D900764E06406700C67
:103DE400123D1D600790075DE4023F0D90075D746E
:103DF40002023F0D900764E06406601E900768E0CD
:103E0400F47003A3E0F47003023F0E90075D7403A3
:103E1400F0900768123F80023EC6123D1D60030207
:103E24003F0E1241F7798D7A007B0012128A9009B5
:103E34007EE06003023F0E43FDF07580C0023F0E3A
:103E4400900764E06406600D90076A123F8A706A06
:103E540074FF698065123D1D6003023F0E1241F735
:103E6400798F7A017B0012128A90097EE060030246
:103E74003F0E43FDF0758020023F0E900764E0641E
:103E840006600590076C802A123D1D707D1241F773
:103E940079917A027B0012128A90097EE0706B435A
:103EA400FDF07580A08063900764E06406601C9058
:103EB400076E123F8A700374FF69604E90075D7449
:103EC40003F0900762E8F0A3E9803E123D1D703ACA
:103ED4001241F779937A037B0012128A90097EE0EB
:103EE400702843FDF0758060802090075DE4F04306
:103EF400FDF075801090077804800E90075DE4F063
:103F040090075EF0900979F0A3F090078BE090079A
:103F14008C8062E0640E705E75800053FD0F900724
:103F24008EC3E09410A3E094004022900D7CE090B6
:103F3400075D70117401F0900D7CF0900765E0F955
:103F44001212FC80087402F0900D7CE4F090078D4E
:103F5400E0702390078E123F9190078EC3E094196E
:103F6400A3E09400401090075DE4F090078EF0A366
:103F7400F090078D04F00228D390097B123F84222D
:103F8400E0F8A3E0F922123F8474FF6822123CE3B4
:103F9400F02274F4121ABEE9FE74046E6003024047
:103FA400C9900760123D2070030240D8900760C397
:103FB400E0941EA3E09400500D7C047D007A907B75
:103FC400071214DC80077A047B001214E290079035
:103FD400E0900798F0900791E0F9900799F0900726
:103FE40092E0FA90079AF0900793E0FB90079BF019
:103FF40090900878081219379007947808121614CC
:10400400707290900C7808121937900798780812FB
:104014001614604C900798780812193774016508D3
:1040240070047402650960149007987808121937AF
:104034007401650870047401650970249090107807
:104044000812193790079878081216146012909085
:1040540014780812193790079878081216147014F7
:104064009007987401F0A37404F0A37401F0A3748E
:10407400AAF08060900798780812193774016508CF
:10408400700474056509700E9007947C987D07741C
:104094000412197A800FE9900764F0EA900767F038
:1040A400EB900766F09007987808121937900794F8
:1040B4007808121614601D9007987C947D07740488
:1040C40012197A800FEEC3940540098E08AA087B62
:1040D400001214E2900760E4F0A3F07F04021B9046
:1040E40074F4121ABEEAFEEBFFEEF8EFF9E8C333FC
:1040F400F8E933F9900770E0600C146011248160D2
:104104001514601A802275080775090F801A75083E
:104114001175090F801275080775090F8006750857
:104124001175090FE8FEE9FF123F7D75830775825B
:1041340062E0C398FAA3E099FB850882850983129B
:1041440041FAC3EC9EED9FA2D265D033502E900766
:1041540070E0F91212848A0A8B0BAC0AAD0BEEF8EC
:10416400EFF9850882850983A3A3123D171219D498
:10417400880A890B8508828509838047C3E49CF8F3
:10418400E49DF9C3EE98EF99A2D265D033505C90C8
:104194000770E0F91212848A0A8B0BAC0AAD0BEE9D
:1041A400F8EFF9850882850983A3A3A3A3A3A31227
:1041B4003D171219D4880A890B850882850983A3BF
:1041C400A3A3A3A3A3A3A31241F2850AF0A4C8AA9C
:1041D400F0850BF0A42AFA850AF0E9A42AF9ECC3C5
:1041E40098F8ED99F9900979123A590240DF123F93
:1041F40084E82290097BE0FCA3E0FD2212383250CF
:104204000479008002790102012274F0121ABE8A34
:10421400088B098C0A8D0B1211A01211A68A0C8B23
:104224000D8C0E8D0F7808790C1216295011780810
:10423400790C1218D6AA08AB09AC0AAD0B80087A1F
:10424400007B007C007D0002362374F7121ABE74D2
:10425400FB121A67EAFEEBFF851882851983AC828C
:10426400AD837A05799C12156CE9602685188285E0
:104274001983E4F004121AB27403F014121AB2741B
:1042840084F07403121AB27407F07404121AB2742C
:1042940008F07402121AB2E0FA7401121AB2E0F9C8
:1042A400EA900776123A5A7404121AB2E0FA7403C6
:1042B400121AB2E0F9EA900774F0A3E91242FC90F2
:1042C4000D7EF0900D7CE4F0900D7F741EF0A3E45D
:1042D400F0A3F0A3F0900D7E123053900777122FC5
:1042E40045900776122F4B900775122F5290077442
:1042F4001243017405023A61123CC9E022124307D9
:10430400A3F022E08E828F83A3A3A32274F0121A57
:10431400BE89081211A0E50860487402650870049B
:10432400740180027402900D7DF0640170059007A1
:104334007680039007741241F2FCE9FD900D7FEC46
:10434400F0A3EDF0A3E4F0A3F01211A68A0C8B0DF8
:104354008C0E8D0F900D7F780C1218B0A3780C1270
:10436400194602362374F0121ABE74FC121A678AB4
:10437400828B83A3A882A983E0F50CEA2402FCEBD8
:104384003400FD850C088C828D83E0FFE5088518D8
:1043940082851983F0A3EFF0EA2404FEEB3400FFD6
:1043A400EA2403F508EB3400F509850882F583E077
:1043B400F50E8E828F83E0F50BE50EF50A7402127A
:1043C4001AB2E50AF0A3E50B1242FCF50AA3E0F5E4
:1043D4000BE50A450B6010E50C900777F08C828D95
:1043E40083E09007768011900777E088828983F0D4
:1043F400900776E08C828D83F07402121AB2123D1B
:10440400206015850882850983E0900775F08E8207
:104414008F83E09007748011900775E0850882858A
:104424000983F0900774123058F08A828B83E0F885
:10443400740F58640F6008747F58900D7E80069046
:104444000D7E122ECCF08A828B83E0A2E7502A9054
:104454000768123F8075830F7582F71244934011E9
:10446400900FF7123F8075830775826A1244935048
:10447400088A828B83E0C2E7F08A828B83E05480CF
:10448400900D7CF01C1CEBFD7A05799C02361BC355
:10449400E098A3E09922C082C083900D7DE064017E
:1044A40090075D70087403F090076880067403F049
:1044B40090076A123F80900762E8F0A3E90228D2CD
:1044C400C082C08390097FE07034900D7DE0640168
:1044D40090075D70107403F090097BE024FBF8A34F
:1044E400E034FF800E7403F090097BE02405F8A308
:1044F400E03400F9900762123A5979018002790098
:104504000228D3C082C083E9900EA3F002479674B8
:10451400F7121ABEE99002E1F07C197D037AFF7B61
:10452400FF1209249002E274FFF0A3F0A3E4F0A3C5
:10453400F079051208AC9002E1E0F91207CE7A4254
:104544007B09120AEC7F01021B9074F4121ABE8AD2
:10455400088B09EB548060309002E1E0F912115E9F
:104564008A0A8B0BAE0AAF0BEE4F60138E828F83D9
:10457400E064B070031208C4EEFAEFFB12114CAA07
:1045840008E5096480FB80047A007B0002476574B7
:10459400F2121ABE74FC121A67EAFEEBFFEE4F60C9
:1045A400387402121AB2EEF0A3EF1249CAECF0A367
:1045B400ED1249CAAA82AB831207C8E9F5087073E1
:1045C4007412121AB212557EE50A450B60658E828A
:1045D4008F83124641EE4F700575080280557A06A6
:1045E4007B001211B88A0C8B0DA80CA90DE8497038
:1045F40005750813803D88828983E412464BA3A382
:10460400EEF0A3EF125A17E50AF0A3E50BF09002BF
:10461400E71246D39002E76017E0FCA3E08003EAC8
:10462400FCEBFD8C828D831246D370F38C828D83D8
:104634001254A3A9087404121A7D025C19A3A3A33B
:10464400A3E0FEA3E0FF22F0A3F088828983227412
:10465400F2121ABE890AE975F017A4FEAFF09002AF
:10466400E6E4F09002E41246D3600A1211BE90020E
:10467400E4E4F0A3F0EEFAEFFB1211B88A088B0918
:10468400EA4509602FEEFCEFFD790012113A900221
:10469400E4E508F0A3E509F07B0080081246BDE4D8
:1046A400F0A3F00BEBC3950A40F2E50A9002E6F0A2
:1046B400790080027913025C19EB75F017A4F8A94C
:1046C400F09002E4E028FAA3E0398A82F58322120A
:1046D4005239EA4B2274F4121ABE750800750900A7
:1046E400740C121AB21259EBFEE9FF800CE508248F
:1046F40001F508E5093400F509C3E5089CE5099DC1
:10470400503285080A85090B7403780A121A54EA90
:10471400250AF8EB350BF988828983A3A3A3A3A305
:10472400A312557EEE650A7003EF650B70BFE8FABD
:10473400E9FB80047A007B00802774F4121ABE79A6
:1047440000EAA2E0501B7508F075098F7808121C66
:10475400D17C047D007AA57B0E1208A67402121A7D
:104764007D7F04021B90C082C0839002E712479DA4
:10477400601C88828983A3A3E06A7003A3E06B882A
:1047840082898370E8A3A3A3A312523580047A001C
:104794007B00D083D082020122125CECE8492274AF
:1047A400EE121ABE74FC121A67EAFEEBFF85188239
:1047B400851983E4F0A3F0EE2402125487EE240555
:1047C4001249B8EE2404F50EEF124D9DE024FE606C
:1047D4003924FC604624FE605224FE605E24FE7090
:1047E400030248BD24FE700302493524FE7003020F
:1047F400494424FE700302495324FC7003024962B5
:1048040024FE70030249710249AE9003007417F04C
:10481400A3E41249D21205460249AE8518828519CD
:1048240083AC82AD831208CA02497E851882851939
:1048340083AC82AD831208D002497E850C08850DB5
:10484400097402121AB2AC82AD8385088285098389
:104854001252351207EC8A0C8B0DAC0CAD0DEC4DDD
:104864006042E4F50CF50D780C121CD1750C007542
:104874000D03780C121CD1750C01750D03780C1204
:104884001CD17408121AB2121CE8791612522F1293
:10489400090C7408121A7DE9F50C700B12522B12D4
:1048A400055E800F750C018508828509831249C055
:1048B4001254A3850C080249817402121AB2AC8204
:1048C400AD83850C82850D831252351207EC8A1054
:1048D4008B11AC10AD11EC4D6043850C82850D83BA
:1048E400A3A3121CE87510007511037810121CD1D3
:1048F4007510017511037810121CD17408121AB2C4
:10490400121CE8791612522F12090C7408121A7D1F
:10491400E9F509700B12522B120564800F75090119
:10492400850C82850D831249C01254A38509088021
:104934004C851882851983AC82AD831208D6803ADF
:10494400851882851983AC82AD831208DC802B859F
:104954001882851983AC82AD831208E2801C851805
:1049640082851983AC82AD831208E8800D85188294
:10497400851983AC82AD831208EEE9F508E5086079
:10498400298E828F83A3E06414601F850E82850FB5
:1049940083E09003001249CA125CE89003011254A8
:1049A400A3E508A31249D2120540EEFAEFFB120860
:1049B4006A02538FF50CEF3400F50D22125CEC857E
:1049C400188285198322F085188285198322F07C48
:1049D400007D03850A82850B831252392274EE12FC
:1049E4001ABE74FC121A678A0A8B0B8C0E8D0FEA9E
:1049F4002405F508EB3400F5097C157D0079007A6F
:104A0400007B0312113AE5082402F50CE50912496A
:104A1400BB851882851983858210858311781012CD
:104A24001CD1850882850983A3A3A3A3124EE51292
:104A34001CD1E5082405F510E5093400F5117810BA
:104A4400121CD1850C82850D8312523F1207E67425
:104A540006121A7D8A108B11AE10AF11E50A2402DA
:104A6400F50AE50B12548AEE4F7003024BA7801728
:104A74007402121AB212523588828983EAF0A3EBC7
:104A8400F0900300E004F0900300E0C394054003B9
:104A9400024BA7E4F510F5117810121CD17510E93A
:104AA4007511027810121CD17510EA751102781074
:104AB400121CD17406121AB2121CE87910EEFCEF23
:104AC400FD12522F12090C7408121A7DE9705E85CA
:104AD4000882850983A3A3A3A3A3A3A3E0F8900258
:104AE400E9E0687048124EE5121CD17CEA7D02E5CB
:104AF400082408FAE5093400FB1211347402121A6E
:104B04007DE960298E828F83A3A3A3A312523590DB
:104B14000300E0F51074027810121A547401251081
:104B2400F58274033511F583EAF0A3EBF0740212F5
:104B34001AB28582108583117810121CD174021266
:104B44001AB2121CE8850C82850D83125CFD1207D3
:104B5400F27404121A7D8A108B11AE10AF119003F7
:104B640000E0F51075110074027810121A547400E4
:104B74002510F874033511F988828983A31246D36A
:104B84007003024A6BE82403F8E93400F9EE4F603D
:104B940003024A748882898374FFF0A3F0900300AF
:104BA400E004F0900300E0600A12522B12055279DF
:104BB40000800B85088285098312549A790A02536E
:104BC4008F74EA121ABE74FE121A678C128D13EADD
:104BD4002405F50CEB125E6712464575080075094D
:104BE40000EA2402F510EB3400F5118518828519CA
:104BF4008385820A85830B780A121CD1850C8285F1
:104C04000D83A3A3A3A3124DA7121CD1E50C240565
:104C1400F50AE50D12548A780A121CD1850C828596
:104C24000D83125CFB1207E67406121A7D8A0A8B46
:104C34000BEA450B7003024D58EA2404F50EEB12FF
:104C44004D9D1246458A828B83A3A3A3E0F9851068
:104C5400828511831252351207D4E9F509600302E3
:104C64004D58E4F514F5157814121CD17514E97532
:104C740015027814121CD17514EA751502781412F1
:104C84001CD17406121AB2121CE87913AC0AAD0BCB
:104C940085108285118312523512090C7408121A78
:104CA4007DE9F5096003024D589002E9E0F8E50852
:104CB4007009E02402900301F08017900301E0FCE6
:104CC400E82402FAE43400FBEA6C7001EB600302AE
:104CD4004D5C850882AA82124EDC9414124ED45084
:104CE40073850E82850F83E0C0E074022A124D940E
:104CF400D0E0F00508850E82850F83A3E0C0E0852F
:104D0400080A7402250A124D94D0E0F005089002B6
:104D1400E9124DA7121CD17CEA7D0285080A7402AF
:104D2400250AFA74033400FB1211227402121A7D4C
:104D34009002E9E02508F50874FF6E700374FF6FB4
:104D44006012EE24010EEF3400FFE508C394145002
:104D540003024BEFE5086013125120851082851180
:104D64008312523512055879008014E509700375D1
:104D7400090A851282851383EEF0A3EFF0A9097462
:104D840002121A7D7F0E021B9085080C7402250CFA
:104D9400F58274033400F583223400F50F850E8206
:104DA400F58322125A2A2274EE121ABE74FE121AC3
:104DB400678C0E8D0FEA2405F50CEB1249BB750BBD
:104DC40000900300E4F0F50AEA2402F508EB34004D
:104DD400F5098049900300E0FA9002E9E0F8124EE8
:104DE400DC9417124ED4400D900300E0F87416C3FF
:104DF400989002E9F0124EE5121CD17CEA7D02740F
:104E0400012AFA74033400FB1211227402121A7D6F
:104E14009002E9E0F8900300E028F0050AE50C248C
:104E240016F582E50D124D98E0F8E50AC3984003A3
:104E3400024EBD900300E0C39416507DE50AC333CF
:104E4400F8E433F9E50C28FEE50D39FF8518828571
:104E54001983AC82AD838E828F831252351207EC94
:104E64008A108B11AC10AD11EC4D7005750B0180DF
:104E740043E4F510F5117810121CD17510E9751181
:104E8400027810121CD17510EA7511027810121CE8
:104E9400D17406121AB2121CE879168508828509A3
:104EA4008312523512090C7408121A7DE9F50B703D
:104EB40003024DD812549680107C007D038508822D
:104EC40085098312523512056AA90B7402025391A3
:104ED400E99400C365D03322EA28F8E43400F9E801
:104EE40022E0F51075110078102274EA121ABE74CB
:104EF400FC121A678A0C8B0D8C128D13EA2405F5AB
:104F04000AEB12548A750800750900E50A2402F5B3
:104F140010E50B3400F5117402121AB285820E8565
:104F2400830F780E121CD1850A82850B83A3A3A359
:104F3400A31259D6121CD1E50A2405F50EE50B344B
:104F440000F50F780E121CD185108285118312543E
:104F54009012522F1207E67406121A7D8A0E8B0FD6
:104F6400AE0EAF0FE50C2402F50EE50D3400F50F7F
:104F740080408882898374FFF00508124D8D74FF88
:104F8400F005089002E9E0F50C750D00780C121C90
:104F9400D17CEA7D0285080C7402250CFA74033472
:104FA40000FB1211227402121A7D9002E9E0250816
:104FB400F508EE4F60718E828F83A3A3A3E0F98579
:104FC4000E82850F831252351207D4E9F509EE24B7
:104FD400041249B8E97044E4F514F5157814121C68
:104FE400D17514E97515027814121CD17514EA757B
:104FF40015027814121CD17408121AB2121CE87922
:1050040011EEFCEFFD850E82850F831252351209D5
:105014000C7408121A7DE9F5096027850C82850D48
:10502400831251161254A3E50870030250FC125166
:1050340020850E82850F8312523512057079000285
:105044005111850882AA82EA9002E97009E02404D9
:10505400900301F08022E0F8900301E0F514E824C5
:1050640004FCE43400FDEC65147001ED70C0124ED4
:10507400DC9412124ED450B6850C82850D83E0C0A8
:10508400E074022A124D94D0E0F00508850C828564
:105094000D83A3E0C0E0124D8DD0E0125132858221
:1050A4000C85830D780C121CD17404121AB2121CD4
:1050B400E8851082851183125CFD1207F2740412D4
:1050C4001A7D8A0C8B0DAE0CAF0D85080C7402256D
:1050D4000CF874033400F9EE4F7003024F76851810
:1050E40082851983E088828983125132A3E0C0E06B
:1050F400124D8DD0E0024F84E509700375090A85CD
:105104000A82850B831251161254A3A9097404024E
:105114004D85125CEC85128285138322900301E095
:10512400F5F0E50884900300F07C007D0322F0058F
:10513400088518828519832274EC121ABE74FE1233
:105144001A678A088B098C0E8D0FEA2405FEEB344E
:1051540000FF851882851983AC82AD838E828F838C
:105164001252351207EC8A0A8B0BEE24181249B836
:10517400EA450B70030252061253785032851882A6
:105184008519831252351209008A108B11EA4511D0
:10519400606B7912AC0AAD0B8508828509831252C3
:1051A40035851082851183121ABCE9F50A7058E41A
:1051B400F50AF50B780A121CD18E828F83A3A3E023
:1051C400F50A780A121CD1EE2403125487780A12C5
:1051D4001CD18E828F8312523F1209127406121A46
:1051E4007DE9F50A7021850C82850D83E0701F85A9
:1051F40008828509831252351205768011750A0ECC
:105204008009750A018004E50A6003125496850C2E
:1052140082850D83E0600479008002A90A74021279
:105224001A7D7F0C021B907C007D03850A82850B0E
:105234008312523922E0FAA3E0FB22E0FCA3E0FD52
:105244008508828509831252392274EE121ABE74BB
:10525400FE121A678A088B098C0C8D0DEA2405FE50
:10526400EB3400FF750E00851882851983AC82AD7E
:10527400838E828F831252351207EC8A0A8B0BEAD3
:10528400450B700302536412537850358518828598
:1052940019831252351209008A0E8B0FEA450F60EA
:1052A4005E7912AC0AAD0B850882850983125235EA
:1052B400850E82850F83121ABCE9F50E6003025332
:1052C4006785088285098312557EAA0AFB1208F4B1
:1052D4008A108B11A810A911E849701E7AFF7BFF70
:1052E4001208F48A108B11A810A911E849606C887F
:1052F400828983E50AF0A3E50BF0750A008007753F
:105304000E0E805F050A9002E6E0FAE50AC39A50A1
:105314004AE50A75F017A4FAABF088828983A3A33F
:10532400E02AFAA3E03BFB8A828B83125490EC4D73
:1053340070D2750A17750B00780A121CD1EEFCEFB7
:10534400FD1211227402121A7DEEFCEFFD85088213
:1053540085098312523512057C8014750E09800369
:10536400750E01125CE4850C82850D831254A3A989
:105374000E024ECFE5082402F508E5093400F509CC
:105384008A828B83A3A3A3E0A2E5227404121A7D6C
:105394007F0A021B9074EC121ABE8C108D11EA2441
:1053A40005F50CEB1249BB750F00EA2402F50AEB74
:1053B40012548A850A82F5831252351208F48A0837
:1053C4008B09EA4509700302547C750E00807185CF
:1053D4000C82850D83E06401704F8E828F83A3A3BA
:1053E400121CE88E828F83A3A3A3A3E0F512751386
:1053F400007812121CD1EE2405F512EF3400F513D7
:105404007812121CD112522F1209127406121A7D2C
:10541400E9F50F6014850C82850D83E4F0125CE4D9
:105424008510828511831254A37C177D007900EEC8
:10543400FAEFFB12113A8E828F83E4F0A3F0050E8B
:105444009002E6E0F8E50EC398501EE50E75F017DD
:10545400A4F8A9F0850882850983A3A3125E7112BA
:105464005490EC4D60030253D385088285098374FC
:10547400FFF0A3F0E50F700612522F120582A90F58
:10548400025226F50AEF3400F50B22A3E0FCA3E058
:10549400FD228E828F83125CEC850E82850F83E859
:1054A400F0A3E9F022C082C0839002E2E06A7003B4
:1054B400A3E06B70067AE27B0280047A007B000230
:1054C4004796C082C08378008C828D83E06A700323
:1054D400A3E06B7010E875F003A4F8A9F0EC28FAC7
:1054E400ED39FB8015088C828D83A3A3A3E06A7039
:1054F40003A3E06B60DF7A007B0002479674F61228
:105504001ABE1208BE8A828B83E582458370067AAE
:10551400007B008007A3A3A3A3125235025B9574FA
:10552400F2121ABEE9FE740E121AB212557E7410EB
:10553400121AB21259F68C828D83E064027036A37B
:10554400125CF2F50CA3E0F9A80C74026870037401
:1055540029697021750C02750D00780C121CD17824
:1055640008121CD1780A121CD1EEF91209367406FD
:10557400121A7D80027901025C19E0F50AA3E0F5B4
:105584000B2274E8121ABE74FB121A67E98518829A
:10559400851983F08A168B17ECFEEDFF75100074E5
:1055A4001D121AB2125CE8741D121AB21254A38EA0
:1055B400828F83A3A3A3E0A2E4502D741D121AB218
:1055C4001252351209008A828B83E5824583700367
:1055D4000259C7790AEEFCEFFDAA16AB17121ABCE2
:1055E400E9F51060030259CA741F121AB21259F66F
:1055F4007421121AB212557E7423121AB2E0F50EF7
:10560400A3E0F50F8E828F83E06402600302597574
:10561400A3125CE8850882850983A38582128583A9
:1056240013EE24061249B888828983E0FAA3E0F9CC
:10563400EA2400F514E439F5157814121D5B010011
:10564400002801286A56070002282F5703289C5671
:1056540000296658012991580229325803296658AD
:10566400042910597559E50E450F600302597085D8
:105674000C82850D831259EBFAE9FB8A828B83E055
:10568400850A82850B83125A21121CD18A828B834C
:10569400A3E0FCA3E00258FAE50E450F60030259AB
:1056A40070850A82850B837401F01259FE85088285
:1056B400850983F07C007D008E828F83A3A3A3A33E
:1056C400E02401FAA3E03400FB1207ECEA4B60414A
:1056D4008A828B83E02402F8850A82850B83E02882
:1056E400F0EA2404F8EB3400F988828983E0851217
:1056F40082851383125A33125A21121CD18A828B47
:105704008312548FE5082403FAE5093400FB025898
:10571400FF850A82850B83E02404F07C047D0079F4
:1057240000AA12AB1312113A0259CAE50E450F60D2
:10573400030259701259FEFEA3E0FF850A82850B0D
:10574400837404F0EE850882850983F0EF85128264
:10575400851383F07403121AB2AC82AD83EEFAEFB0
:10576400FB1207EC8A0C8B0DEA450D7003025813EB
:105774008A828B83A3A31246417401121AB28582D2
:105784000E85830F780E121CD17405121AB2121CE6
:10579400E87CFF7DFF1207F27404121A7D8B0FEA76
:1057A400450F7033850C82850D831259D6121CD196
:1057B400850C82850D83A3121CE87C027D007AA9E6
:1057C4007B9012061E7404121A7DE9700A74011289
:1057D4001AB274FFF0A3F08E828F83E064027039F2
:1057E400750C02750D00780C121CD18E828F8312F9
:1057F400548FE5082404FAE5093400FB12112274DD
:1058040002121A7D850A82850B83E02402800974C2
:1058140001121AB2EEF0A3EFF07401121AB2125987
:10582400E7F07401121AB2A31259DF02596AE50EA5
:10583400450F6003025970850C82850D83125490C4
:10584400AA16AB1712092A850A82850B837402F003
:10585400EA850882850983F0851282851383EB0229
:10586400596DE50E450F60030259701259FEF8A3F5
:10587400E0F9850A82850B837402F0E88508828545
:105884000983F0E985128285138302596D850C82A0
:10589400850D8312523512111CEAFC8C82A882C336
:1058A400950EE4950F405FE8650E7002E50F7004F5
:1058B4007C008022851882851983E0FAE50E2AFA95
:1058C400E50F3400FBC3EA98EB94005003E0800535
:1058D400E50ECCC39CFCEC850A82850B83F08C0A14
:1058E400750B00780A121CD1850C82850D83E02586
:1058F4000EFCA3E0350FFDAA08AB091211227402B5
:10590400121A7D0259CA7510070259CAE50E450FCD
:10591400705A850C82850D83125CE8850A82850B9A
:1059240083740712464D1259DF12464DA3E08512C7
:1059340082851383F0E82402FAE93400FB8A828B1F
:10594400831259DF125A0E1259E7A3125A17125929
:10595400F0F0E82405F8E93400F9888289831259C3
:10596400F0A3125A33A3A3A3A3F0805A75100B809B
:1059740055741D121AB21252351208BE8A828B83D4
:10598400E5824583603D125CE8880C890DE8450D8D
:105994006031780E121CD1780A121CD17808121CBE
:1059A400D17406121AB2E0F9EEFCEFFDAA16AB1799
:1059B400850C82850D83121ABC7406121A7DE9F5D2
:1059C40010800375100EA9107405121A7D7F100241
:1059D4001B90E0F50E750F00780E22E08508828595
:1059E400098322125A3D22125CECE822125A3DA38A
:1059F400A322E0F508A3E0F50922850C82850D8336
:105A0400E0F8A3E0F5838882E022A3A3F08A828BE6
:105A140083A322F088828983A3A3A3A322F08A828A
:105A24008B83125A2A22E0F50A750B00780A22F0B9
:105A340088828983A3125A3D22E0850882850983DE
:105A4400A3A32274EE121ABE74FE121A678A0A8B7A
:105A54000BECFAEDFB7414121AB2E0F510A3E0F5A6
:105A6400117416121AB2E0FE7418121AB2E0F50E8E
:105A7400A3E0F50F851882851983AC82AD831207E4
:105A8400EC8A0C8B0DEA450D6049851882851983D3
:105A94001252351208BE8A828B83E5824583602FB9
:105AA400A3A31259F6E50845096024780E121CD107
:105AB4007810121CD1EEF9AC0CAD0DAA0AAB0B8513
:105AC4000882850983121ABC7404121A7D8006792F
:105AD4000E80027901024ECF74F6121ABE74FE12C1
:105AE4001A67740C121AB21259EB8518828519833D
:105AF400F07401121AB2E9F0E4F508F50978081215
:105B04001CD17508027808121CD17404121AB285CB
:105B140082088583097808121CD1120912740612AE
:105B24001A7D7402121A7D806874F7121ABEEAFE96
