:020000040000FA
:0600000002010A0221C406
:03002B0002263971
:0300330002261B87
:03003B0002265A40
:030043000225CFC4
:0300530002223A4C
:03006B000225F576
:10008300022073E5C754F84401F5C7790122000043
:100093000080FB120086B900030200F4E4792178A2
:1000A30008B800028004F709D8FCE479297802B87B
:1000B30000028004F709D8FCE49002817832790CBD
:1000C3008002F0A3D8FCD9FA900DB2AA82AB839038
:1000D300013A780779058015E493A3AC82AD838A4E
:1000E300828B83F0A3AA82AB838C828D83D8E9D9D8
:1000F300E77582607583BF740312011C7582917565
:100103008300740012011C75D00075813F7518813E
:10011300751902759F00020096C09FF59FE473D086
:100123009F22D083D082C09FE493C0E0740193C028
:10013300E0740293F59F22FF0000B400002800281A
:1001430000283075A000A000A000A000000800084F
:10015300E001F0001000100010001000100010006B
:1001630050005000500010001000D00700000000A5
:1001730000000F00010005003075070010000100AA
:1001830081FF00000000FF3E075C074407FF0202F7
:100193000208025000A0000000E80302DD90010005
:1001A30000909002AF90010000090E029B900100A5
:1001B30000B30202AF900100000A0E029990010001
:1001C30000C90202AF900100000B0E02A1900100D2
:1001D30000CB0202AF900100000C0E02C190080098
:1001E30000CC0202AF900100000D0E02AD900100A1
:1001F300000E0EFF0100FF2002DD9001000093902E
:1002030002AF90010000720E02AB900000000000EC
:10021300029D9003000019036E0D6E0D6E0D6E0DA1
:100223006E0D6E0D6E0D6E0D6E0D6E0D6E0D6E0DF3
:100233006E0D44105C103E10FFFF0200E2FF02004F
:10024300E7FF0200F3FF0200F3FFFAFF07000300DA
:10025300F9FFFBFF07000400F7FF07000300090095
:1002630003000A000E0005000D0005000E00020247
:1002730002020202020202010D000000100102DD6F
:1002830090010000969002AF90010000E90E02C3B6
:1002930090010000990702AF90010000EA0E02BF2F
:1002A300900100006B8F02AF90010000EB0E02BDC6
:1002B300900100005D8F02AF90010000EC0E02BBC5
:1002C30090010000CB8E02AF90010000ED0E02B949
:1002D30090010000B98E02AF90010000EE0E02B74C
:1002E30090010000DD8E02AF90010000EF0E02B519
:1002F30090010000958E02AF90010000F00E02B352
:10030300900100004F8F02AF90010000F10E02B187
:1003130090010000F20E01E803053F100AFF0001FF
:100323003075030201060000000000000000000019
:1003330000000000000000000000000000000000BA
:100343000000FFFF0600800CE80384030F0013097D
:100353004F666669636577656C6C20233030303097
:100363003031051208000800020A000201060302E8
:10037300F1FF53696D706C6520424C4520506572E6
:100383006970686572616C8A15000096150A486188
:1003930072647761726520496E666F726D6174690C
:1003A3006F6E000A507265736574204865696768EB
:1003B30074000A506F7374757265204A75646765BB
:1003C3006D656E74000A416374696F6E2052616ECD
:1003D30067650008436F6E74726F6C20436F6D6DB9
:1003E300616E6400125065736B205374617475738E
:1003F300000A4C6F636B2053746174757300025071
:100403006F77657275702054696D657374616D7073
:100413000000104865616C74682044617461000ACF
:100423004175746F6D61746963204D6F7665204407
:10043300617461000002DD90010000B98F02AF908A
:10044300010000081002CB90030000710D029F9081
:10045300010000091002AF900100001E1002CD90B0
:10046300030000750D029F900100001F1002AF9062
:100473000100002D1002CF900300007D0D029F901C
:100483000100002E1002AF90010000401002D19035
:100493000300007F0D029F90010000411002AF9006
:1004A3000100004E1002D390020000830D029F90C2
:1004B3000100004F1002AF900100005F1002D590C1
:1004C300010000840D029D90030000880D029F909F
:1004D300010000601002AF900100006C1002D79081
:1004E3000300008E0D029F900100006D1002AF907B
:1004F300010000791002D990010000930D029F9032
:100503000100007A1002AF900100008D1002DB9011
:10051300000000970D029D90030000A70D029F901D
:100523000100008E1002AF900100009A1002C790E4
:10053300030000AD0D029F900100009B10120125E6
:100543004AB00312012561B00312012592B00312D0
:100553000125CDB003120125F7B00312012521B106
:100563000312012538B1031201254FB103120125EE
:1005730066B1031201258FB103120125A2B1031243
:100583000125B8B103120125CBB103120125F2B144
:1005930003120125D5B002120125D9B1021201259A
:1005A30011B20212012534B2021201253FB2021226
:1005B300012562B20212012571B30212012546B46C
:1005C30002120125C1B40212012549B50212012507
:1005D30084B502120125BBB50212012549B60212E8
:1005E300012522B70212012582B7021201258DB718
:1005F300021201250CB8021201250FB802120125BF
:1006030012B802120125A1B802120125A4B80212E0
:100613000125D4B802120125FEB802120125ECB956
:10062300021201259EBA02120125C3840312012579
:10063300EB8403120125198503120125508503124A
:100643000125AE8503120125F98503120125448690
:1006530003120125848603120125CA86031201258C
:10066300F88603120125B58703120125BF870312FC
:100673000125CC8703120125FF8703120125CB88AF
:1006830003120125D78803120125EF8803120125E0
:10069300F98803120125C2BA03120125D0BA031245
:1006A3000125E8BA0312012500BB03120125FED57B
:1006B30001120125AAD60112012525D70112012510
:1006C30046D80112012582D8011201252BD9011226
:1006D300012512DA0112012576DB01120125CDDB9A
:1006E300011201254EDC011201253EDD0112012517
:1006F3008BDD0112012511DE0112012543DE0112FA
:10070300012557E00112012599E001120125B7E007
:10071300011201253AE1011201250EE20112012520
:10072300D6E20112012577E6021201254AE70212F9
:100733000125F3E70212012546E802120125F6E836
:100743000212012582E9021201256EEA0212012535
:100753009DEA02120125B0EB02120125F8EB021209
:100763000125CDEC0212012509ED0212012525ED2B
:100773000212012527BE03120125BE96031201258D
:10078300D49603120125FA96031201251698031233
:1007930001252098031201255599031201254D9A2D
:1007A3000312012552F90212012582FA02120125D0
:1007B300B5FA02120125FFFA02120125C6FC021244
:1007C30001250FC60112012579C601120125D8C7DB
:1007D30001120125E8C70112012515C801120125DF
:1007E3006CC80112012515C9011201251CCA011289
:1007F3000125E6CA0112012546CC0112012589CC47
:10080300011201252ECD011201257BCD01120125F7
:10081300A1CD01120125AFCF01120125B4CF0112E1
:100823000125B9D10112012506D20112012579D280
:1008330001120125ACD2011201254ED3011201256B
:10084300F7D3011201252FD40112012532D401124D
:1008530001257AD401120125BAD40112012511D53B
:1008630001120125AFA303120125C7A3031201251A
:100873000FA40312012525A4031201256CA403125E
:10088300012580A5031201250DA60312012558A6F3
:10089300031201253141001201253D4100120125BA
:1008A300784100120125BD41001201257D4200124D
:1008B30001250343001201256843001201259443D7
:1008C30000120125CD43001201250B46001201251C
:1008D300EF4700120125D54900120125184B0012DC
:1008E3000125664D00120125784E00120125C34FE4
:1008F30000120125D35000120125F05000120125EA
:100903002B51001201254D5100120125B051001247
:10091300012571560012012506570012012557576C
:10092300001201257E5700120125D0570012012520
:10093300EE570012012548580012012531590012C3
:100943000125A75A001201252B5B0012012580897E
:10095300031201258A8903120125CD89031201257A
:10096300E88903120125788A03120125A08A03125C
:100973000125DD8A03120125148B031201253D8B0A
:1009830003120125B28B03120125C78B0312012524
:10099300DC8B031201250D8C03120125218C03121C
:1009A3000125468C03120125808C03120125AC8C92
:1009B30003120125388D03120125638D03120125CE
:1009C300AC8D03120125D68D03120125018E03126E
:1009D3000125A6B6031201251EF3011201254CF3CE
:1009E300011201259AF4011201257AF5011201255C
:1009F30099F50112012516F60112012559F6011286
:100A03000125AFF70112012570F801120125F7FA4C
:100A13000112012598FB011201258EFC011201250B
:100A23008BFD01120125E5FE0112012570FF011264
:100A330001254BB503120125B4B50312012508B6F0
:100A4300031201252FB60312012560B603120125F7
:100A5300298E03120125968E03120125DD8E0312C2
:100A63000125F58F03120125F19003120125D4917D
:100A73000312012552CE0212012594CE0212012542
:100A830066CF021201253FD00212012539D102128D
:100A930001251BD20212012584D2021201253AD369
:100AA30002120125AED3021201251AD40212012526
:100AB30043D402120125BDD40212012556D50212D8
:100AC3000125BBD502120125D0D50212012516D668
:100AD300021201252FD60212012594D602120125F6
:100AE30097D602120125B6A003120125DEA0031238
:100AF30001251CA103120125DAA10312012541A23C
:100B0300031201255DA20312012585A2031201250B
:100B1300B5A203120125C4A20312012541A30312A6
:100B2300012567A30312012507B601120125A5B705
:100B330001120125C0B901120125FCB901120125D9
:100B430029BA011201250EBB0112012555BB011261
:100B5300012599BB01120125ABBB01120125EBBB9A
:100B63000112012518BC0112012563BC01120125E4
:100B7300A3BC01120125D1BC0112012523BD011221
:100B83000125B3BD0112012551C00112012567C220
:100B930001120125A5C20112012536C40112012546
:100BA3007BC401120125F2C4011201253CC50112C7
:100BB3000125E4C501120125D9C40212012558C536
:100BC300021201251ACB0212012529CC021201259A
:100BD30091CD0212012528CE02120125E1900112C6
:100BE30001252A91011201255791011201258A91AC
:100BF30001120125979101120125A39101120125EB
:100C0300B591011201259C9201120125FA9201125C
:100C130001252F9301120125729401120125BF941E
:100C230001120125E39401120125509501120125BA
:100C33000E9601120125C796011201253497011260
:100C43000125E69701120125F697011201257D98EA
:100C5300011201253C99011201256999011201250F
:100C6300E299011201253F9A01120125899A011285
:100C730001251F9B01120125EA9B011201259F9C5F
:100C830001120125149D01120125759D01120125F3
:100C9300DF9D01120125189E01120125BA9E011242
:100CA3000125CA9F011201250AA00112012527A0CF
:100CB3000112012546A0011201258DA00112012573
:100CC300B2A001120125DFA00112012559A10112D1
:100CD30001259AA101120125BEA2011201256EA3CD
:100CE30001120125C5A3011201252FA4011201251B
:100CF30048A4011201250FBB0212012562BB021297
:100D030001256EBB0212012543BC021201256ABCF8
:100D130002120125A5BC0212012511BD02120125F3
:100D23004DBD0212012586BD021201259EBD021290
:100D33000125F3BD021201250CBE0212012555BE89
:100D43000212012568BE0212012582BE021201258C
:100D530098BE02120125CBBF0212012512C1021255
:100D6300012514C2021201250EC302120125F1FF4F
:100D730001120125FF8D021201252F8E021201257A
:100D8300F791021201254E930212012517940212C4
:100D93000125979502120125689602120125A59651
:100DA30002120125C8960212012506970212012597
:100DB3000F97021201255997021201256397021218
:100DC30001250D9802120125E698021201253A9990
:100DD300021201259C9902120125EF9902120125A5
:100DE3001E9A021201255B9A021201257AA40112AE
:100DF3000125E1A701120125E7A70112012569AD2C
:100E030001120125E2B101120125B8B50112012534
:100E1300579A03120125CD9A03120125E39A03126F
:100E23000125249B031201255E9B03120125D79BF9
:100E330003120125129C03120125859C031201252F
:100E4300C39C03120125CC9C03120125D89C0312D9
:100E53000125F49C031201251F9D03120125359DD5
:100E630003120125799D0312012500800312012538
:100E73001380031201252D800312012556800312CE
:100E83000125998003120125D880031201251681BB
:100E9300031201257B810312012590810312012591
:100EA3009B8103120125A88103120125BF8103122F
:100EB3000125CD8103120125D88103120125E48187
:100EC30003120125F7810312012502820312012572
:100ED300258203120125CC8203120125DC82031231
:100EE3000125F682031201251383031201252F83A3
:100EF300031201255483031201255F830312012585
:100F0300748303120125888303120125E9830312E5
:100F13000125EF8303120125F58303120125FB83CA
:100F230003120125138403120125468403120125AC
:100F3300F4E40112012578E50112012527E60112E7
:100F4300012586E701120125A7E90112012593EA8C
:100F530001120125C8EA01120125EAEA011201255D
:100F630099EB0112012591ED01120125BAED011250
:100F730001254CEE011201257EEE011201258BEEB7
:100F830001120125E2EE0112012508EF01120125EC
:100F930075F10112012578F201120125D0F2011237
:100FA30001252871001201253272001201251973DF
:100FB3000012012523730012012545730012012538
:100FC300517300120125EA740012012519750012EC
:100FD30001253576001201258E7600120125F4775E
:100FE30000120125D378001201252F790012012563
:100FF3009C7900120125D77900120125167A001277
:101003000125CF7C00120125E97C00120125757DA5
:1010130000120125837D00120125DC7D00120125CC
:10102300EA7D001201255D7E00120125C17E0012BA
:1010330001250B7F00120125369B02120125589BC7
:10104300021201257E9D0212012593A002120125A1
:10105300ABA1021201255EA20212012540A30212D6
:10106300012504B20312012529B2031201259BB203
:1010730003120125FDDE0212012506DF02120125FE
:101083000FDF02120125E6DF0212012597E10212AA
:101093000125CDE10212012507E2021201253DE2FD
:1010A3000212012577E202120125ABE202120125A9
:1010B300D7E20212012520E3021201255AE30212AC
:1010C3000125A3E302120125FBE30212012530E40B
:1010D300021201258BE402120125C5E40212012547
:1010E30016E5021201254CE50212012586E50212DE
:1010F3000125B4E502120125D7E5021201254FBCF3
:10110300031201257BBC03120125D6BC0312012562
:10111300E0BC03120125F0BC03120125D1F3021236
:101123000125DBF30212012519F40212012562F4F1
:10113300021201259CF402120125F6F40212012584
:1011430017F50212012520F5021201256DF5021291
:10115300012596F502120125A0F5021201250CF6D0
:10116300021201259EF602120125E8F6021201255C
:101173001EF702120125AAF702120125EBF702124C
:10118300012522F80212012534F80212012553F831
:10119300021201255CF80212012524F9021201252D
:1011A300BFB703120125B6B80312012559AE0312C6
:1011B30001258FAE03120125C5AE0312012510B020
:1011C30003120125947F00120125AA7F0012012535
:1011D300B47F00120125ABBE0312012596920312C0
:1011E3000125AB92031201255E93031201259E9301
:1011F30003120125B79303120125F293031201256C
:101203003F9403120125719403120125B394031231
:101213000125CBB903120125F4B90312012523BA21
:10122300031201253BBA031201257DBA03120125DE
:10123300CC26001201251E2700120125D0270012FB
:101243000125C92800120125862900120125892AB2
:1012530000120125612B00120125802B00120125AC
:10126300182C00120125FF2C001201250F2D00124E
:101273000125582D001201259C2E00120125F23262
:10128300001201258F330012012554340012012569
:10129300AE3400120125E434001201256835001232
:1012A3000125F43500120125643600120125CB36E1
:1012B30000120125E3360012012510370012012523
:1012C3003A37001201254F38001201251D3A00124A
:1012D3000125CD3C001201251B3E00120125333FA1
:1012E30000120125DE3F00120125134000120125E3
:1012F30007410012012582A603120125A7A60312A6
:101303000125D1A6031201250ABF03120125925B11
:1013130000120125F75D00120125985F00120125D7
:101323004C6000120125DF60001201256461001288
:101333000125896100120125DF640012012565651D
:1013430000120125986600120125D26600120125BC
:10135300076700120125C7680012012524690012DE
:1013630001256D6900120125D86900120125496A1A
:10137300001201257B6A00120125936A00120125E0
:10138300DC6B00120125EC6B00120125076D0012C6
:101393000125296D001201255F6D00120125136FD0
:1013A30000120125A06F00120125DF6F0012012535
:1013B30003710012012599BB03120125AABB031275
:1013C3000125B3BF03120125F2BF0312012546C055
:1013D30003120125FABC031201250ABD03120125DC
:1013E30022BD0312012588BD03120125C7B80312CC
:1013F30001254CB903120125B2B90312012579FE67
:1014030002120125A2FE021201250DFF021201257F
:101413005EFF02120125B9FF021201254EA9031234
:10142300012563A9031201257FAA03120125F3AA4B
:10143300031201250DAB0312012524AB0312012571
:1014430037AB0312012551AB0312012568AB03121D
:1014530001258EAB03120125DFAB0312012559C011
:1014630003120125A99D03120125399E03120125AB
:10147300A99E031201253A9F03120125439F0312DC
:101483000125C19F03120125D49F0312012540A00A
:1014930003120125A0A003120125B3A00312012505
:1014A30092BD0312012501BE031201250CBE0312D6
:1014B30001251CBE03120125A9B303120125FBB3A9
:1014C3000312012585B403120125ECB4031201258F
:1014D30014AC031201253EAC031201250CAD03121B
:1014E3000125E7AD03120125BBD60212012582D7E0
:1014F30002120125B9D702120125E3D702120125F1
:1015030043D80212012599D802120125FED80212EE
:10151300012596D902120125A5DA021201253CDC28
:1015230002120125C9DC0212012530DD0212012558
:1015330047DD0212012561DE021201259FDE021240
:1015430001250080021201258183021201250985EC
:10155300021201256085021201257F8502120125F1
:10156300FD85021201259387021201257888021254
:101573000125868C021201255C8D0212012564A6C9
:1015830002120125F7A902120125CAAA0212012596
:10159300FEAB02120125B4AE021201253AB00212CB
:1015A3000125C1B0021201259AED02120125EAEDCF
:1015B3000212012507EE021201259EEF02120125F8
:1015C3003AF00212012536F10212012598F30212B4
:1015D3000125FCBF0312012528C003E06670100833
:1015E300A3E066700A08A3E066700408A3E066221D
:1015F300C3E7960809E7960809E7960809E79622DC
:10160300C3E09608A3E09608A3E09608A3E0962219
:10161300C008C3E096F50808A3E096420808A3E0D3
:1016230096420808A3E09645087001D3D008220823
:101633000808EAC0E0EBC0E086F0E7A4FA180986E0
:10164300F0E7A42AFA180986F0E7A42AFA1809860B
:10165300F0E7A42AFA1986F0E7A4FBE5F02AFA19C1
:101663000886F0E7A42BFBE5F03AFA190886F0E7C1
:10167300A42BFBE5F03AFA18180986F0E7A4C5F0A5
:101683002BFBE43AFA1908E7C5F0C6A426F6E5F001
:101693003BFBE43AFA1886F0E7A4F6E5F00826F6F1
:1016A300E43B08F6E43A08F6D0E0FBD0E0FA226027
:1016B30016080808C6C313C618C613C618C613C629
:1016C30018C613C6D5E0EA22700908080822601676
:1016D300181818C6C333C608C633C608C633C608A7
:1016E300C633C6D5E0EA22E627F60809E637F60848
:1016F30009E637F60809E637F622E026F608A3E0FE
:1017030036F608A3E036F608A3E036F622E026F024
:1017130008A3E036F008A3E036F008A3E036F02291
:10172300C3E697F60809E697F60809E697F6080967
:10173300E697F622C3E096F008A3E096F008A3E04C
:1017430096F008A3E096F022E056F608A3E056F6DA
:1017530008A3E056F608A3E056F622E056F008A3E5
:10176300E056F008A3E056F008A3E056F022E6475F
:10177300F60809E647F60809E647F60809E647F6D4
:1017830022E0F608A3E0F608A3E0F608A3E0F622B9
:10179300E6F008A3E6F008A3E6F008A3E6F022E0EB
:1017A300FAA3E0FBA3E0FCA3E0FD22EAF0A3EBF045
:1017B300A3ECF0A3EDF022CAC0E0E6F0A308DAFA46
:1017C300D0E0FA22CAC0E0E0A3C582CCC582C583BB
:1017D300CDC583F0A3C582CCC582C583CDC583DACD
:1017E300E6D0E0CA22C3E498F8E499F912182980F4
:1017F30026C3E49AFAE49BFBE920E7E9121829E4FB
:1018030098F8E499F922C3E498F8E499F9121829AD
:10181300E498F8E499F9C3E49AFAE49BFB22EB20F9
:10182300E7CFE920E7E0B90010BB0008E88AF084BD
:10183300F8AAF022E4FBC8FA22EB70227B10C8332B
:10184300C8C933C9335007C39AC3DBF280069A5021
:10185300012ADBEAC833F4C8C933F4C9FA2275F0A4
:1018630008E4C833C8C933C933C99AC99B5004C9EA
:101873002AC93BD5F0ECFBC833F4C8E4C9FA2260AB
:101883000D08C6A2E713C618C613C6D5E0F3226037
:101893000C08C6C313C618C613C6D5E0F4227004D9
:1018A30022600D18C6C333C608C633C6D5E0F41884
:1018B30022251810AF08F518400215198008F518ED
:1018C30040021519D2AF22C0D0251810AF08F51861
:1018D300500205198008F51850020519D2AFD0D06F
:1018E300222518F58210AF08F51840021519800853
:1018F300F51840021519D2AF851983222518F582F0
:10190300E43519F58322E4732518C582C0E0E5198F
:1019130034FFC583C0E0E518C3958224F810AF08EF
:101923008583198582188008858319858218D2AF2B
:10193300CEF0A3E520F0A37808E608F0A3DEFAEFE3
:10194300F0A3E58124FAF8E608F0A3E608F0A3E69D
:1019530008F0A30808E608F0A3E608F0A31581152C
:1019630081D0E0FED0E0F8158115811581E8C0E053
:10197300EEC0E0222518C582C0E0E51934FFC58317
:10198300C0E0E518C3958224F910AF088583198553
:1019930082188008858319858218D2AFCEF0A3E51B
:1019A30020F0A37808E608F0A3DEFAEFF0A3E581C0
:1019B30024FBF8E608F0A3E608F0A30808E608F01D
:1019C300A3E608F0A315811581D0E0FED0E0F81559
:1019D300811581E8C0E0EEC0E02285198385188275
:1019E300E0A3FEE0A3F5207808E0A3F608DFFAE021
:1019F300A3FFE0A3C0E0E0A3C0E0E0A3C0E0E0A356
:101A0300C0E0E0A3C0E010AF088582188583198089
:101A130008858218858319D2AFD083D08202012230
:101A2300851983851882E0A3FEE0A3F5207808E0FA
:101A3300A3F608DFFAE0A3FFE0A3C0E0E0A3C0E061
:101A4300E0A3C0E0E0A3C0E010AF0885821885835F
:101A5300198008858218858319D2AFD083D082225A
:101A6300C0D02518C582C0E0E51934FFC583C0E0A6
:101A7300E518C3958224F310AF088583198582186E
:101A83008008858319858218D2AFC8F0A3E9F0A333
:101A9300EAF0A3EBF0A37908E709F0A3D8FAECF096
:101AA300A3EDF0A3EEF0A3EFF0A3D0E0F0A3D0E01A
:101AB300F0A3D0E0F0A3E520F0A3E5F0F0A32285A6
:101AC3001983851882E0C0E0A3E0F9A3E0FAA3E05C
:101AD300FBA37808E0F608A3DFFAE0FCA3E0FDA38C
:101AE300E0FEA3E0FFA3E0C0E0A3E0C0E0A3E0F5D5
:101AF300D0A3E0F520A3E0A3F5F010AF0885831988
:101B03008582188008858319858218D2AFD082D048
:101B130083D0E0F8D0E0327404800674028002744B
:101B230001C0E0F4041218E4D0E01217BA227404DE
:101B3300800474028000CCC0E0EDC0E0E518C39CD3
:101B4300CCAD1950011D10AF068C188D1980068C71
:101B5300188D19D2AF1217C7D0E0FDD0E0FC22D008
:101B630083D082E9C0E0E493A3C386F0C5F095F087
:101B7300F908E493A386F0C5F095F0700BE493A302
:101B8300C3994005E9048002A3E475F002A4258209
:101B9300F582E5F03583F583D0E0F9E493A3C0E063
:101BA300E493C0E022D083D082ECC0E0EDC0E0E457
:101BB30093A3FCE493A3FDED4C600D121BF4EC2402
:101BC300FFFCED34FFFD80EFE493A3FCE493A3FD5E
:101BD300ED4C600D121C33EC24FFFCED34FFFD8053
:101BE300EFD0E0FDD0E0FCE493A3C0E0E493C0E0D9
:101BF30022C0E0C3E49396087401939618400FE45F
:101C03009366700808740193661870007019A3A393
:101C1300C3E49396087401939618A3A3400DD0E0F0
:101C2300D0E0D0E0021BE4A3A3A3A3A3A3D0E022AC
:101C3300C0E0C0F088F0E49366700808740193660E
:101C4300187000A8F0A3A3700BD0F0D0E0D0E0D0C0
:0B1C5300E0021BE4A3A3D0F0D0E022CD
:101C600074F5121977EAFEEBFFEE2434F8EF340036
:101C7000F988088909EE2435121D8CF8EE243712F4
:101C80001D8CF50AEC850AF0A4FCAAF0850AF0ED9B
:101C9000A42AFDE82CF8E43DF97A257B00121829E6
:101CA000EA850882850983F074075AF87401B80040
:101CB000028004C333D8FCFBEA131313541FF8EE5D
:101CC00028F8EF3400F9E8245DF582E9121D8F5BF6
:101CD0006003EA801CEE2436121D8CF5F0EA84A81D
:101CE000F0EE28F8EF3400F9E82438F582E9121D07
:101CF0008FF97F04021A2374F5121977EAFEEBFFBD
:101D0000EE2434121D8CC0E0EE2435F582EF340051
:101D1000F583D0E0F08E828F83A3A3A3A3A3E0FA80
:101D2000A3E0FB8E828F83A3A3A3A3A3A3A3E0FCC2
:101D3000A3E0FDECC39AF50AED9BF50BEE247FF5CD
:101D400008EF3400F509850882F583E06401702B03
:101D5000EE2480F582EF3400F583121B35121D95B9
:101D600074021218CAE960137CDC7D04EEFAEFFB02
:101D7000120C96850882850983E4F0AC0AAD0BEE5F
:101D8000FAEFFB121C601225BB021CF2F582EF3445
:101D900000F583E022C082C083851882851983E024
:101DA000F8A3E0F9C3EA9CEB9D5010C3EC98ED99C1
:101DB000401BC3EA98EB995014800EC3EA98EB9944
:101DC0004007C3EC98ED994004790180027900D076
:101DD00083D08222EAC39CFAEB9DFB2274ED121998
:101DE000779003A2E064086005E06407702C9061BE
:101DF000C8E060269003D0E0F874FF68601CE875C6
:101E0000F003A4C8AAF02AF974D228FE740339FF9B
:101E10008E828F83A3A3A3E070057900021F7CEE5E
:101E20002468F510EF3400F511906060E0851082B1
:101E3000851183F0750A45750B0575080075090055
:101E4000E5D914F50EE5D95403F50F601CEE248294
:101E5000F50CEF3400F50D7403650F6058E50E6066
:101E600013EE2467121D8C700B793DEEFAEFFB1216
:101E70000CBA80A6900540E064016026850C82853E
:101E80000D83E06004780480027800850E08E50880
:101E9000C398FA95E0FB120B3A8A088B09EA4509C8
:101EA0007006120F12021E1A850C82850D83E070D7
:101EB000048A0A8B0B78008016E5D9C0E08812E509
:101EC0000A2512F582E50B3400F583D0E0F008E82E
:101ED000C3950E40E4850C82850D83E0602874FC78
:101EE000250EF50E780A121B1EAC0EA90FEEFAEFA6
:101EF000FB120D6874021218CAE9700AAA08AB092D
:101F00001214BE021E697403650F6058850E0C75AD
:101F10000D00780C121B1EAC0AAD0BAA08AB0912FF
:101F20000D2C74021218CA851082851183E0F87492
:101F300080687005750C7F8002880CE50CF50A78C6
:101F40000A121B22E50FF50A780A121B22A90EAC11
:101F500008AD099003D0E0FA7B001209D274021296
:101F600018CA80139003A2E06408600BAC0AAD0BA2
:101F7000EEFAEFFB120DFE120F1E79017F0C021A12
:101F80002374F312197774FC1218B4EAFEEBFF897C
:101F900008A2AFE433F509C2AFEE2463F50AEF34CB
:101FA00000F50B8010AA0AAB0B120CE41214BE90C1
:101FB00004E3E004F0850A82850B83E0F8A3E0F9EE
:101FC000E849602FE82402FAE93400FBEA2402F52C
:101FD0000CEB3400F50D780C121B1E8A828B83E00B
:101FE000FCA3E0F9EEFAEFFB120CD874021218CA47
:101FF000E960B29004E3E060579004E4E0F89004F4
:10200000E3E0C398500C7402650870449004E5E066
:10201000603E8E828F83A3A3A3A3E08518828519D7
:102020008312206074021218FFE81220609004E20C
:10203000E028F074021218FFAC82AD838518828507
:102040001983AA82AB8379011209DE9004E3E4F0DC
:10205000E509A2E092AF74041218CA7F06021A239F
:10206000F0A3E4F09004E3E0F822000085218785E6
:1020700022C622C0E074EF121A63A2AFE433FEC29C
:10208000AF759B00906182E0A2E05012E591A2E062
:10209000500C7591FE740165217003121DDCE0A2E5
:1020A000E55051E591A2E5504B7591DF9003A2E018
:1020B00064076005E0640870237401652170357958
:1020C000019003D0E0FA75F003A4CAA8F028FB74CD
:1020D000D22AFA74033BFB121F818018E0640D7052
:1020E000139003C4E004F064287002E4F07A00E086
:1020F000F9120F24906182E0A2E6400302219AE5E2
:1021000091A2E6400302219A7591BF9003A2E06478
:10211000057008120E40120E4C8003120E467521F7
:1021200000120EB2E99003A3F07900120EA6120C71
:10213000007A017B009003A1E0F9121176907803F8
:10214000E064427055900544E014F0704DC2AF1247
:10215000215200782AD0E0F618D0E0F6E59F540727
:1021600070057509FF800375097FC4C0E07829E612
:10217000F50808E65509F509740B7808121892D08D
:10218000E02508F8906270E0A2E740F8E8C33390D9
:102190006272F0906270E0D2E0F0906181E0A2E3C0
:1021A0005009E5E9A2E3500375E9F7A3E0A2E7507F
:1021B00009E591A2E7500375917FEEA2E092AF7F0F
:1021C00004021AC2C0E0C0D0C082C083906183E024
:1021D000A2E05009E5BFA2E0500375BFFEE0A2E116
:1021E0005009E5BFA2E1500375BFFDE0A2E250092E
:1021F000E5BFA2E2500375BFFBE0A2E35009E5BFD3
:10220000A2E3500375BFF7E0A2E45009E5BFA2E4E2
:10221000500375BFEFE0A2E55009E5BFA2E550030A
:1022200075BFDFE0A2E65009E5BFA2E6500375BF27
:10223000BFD083D082D0D0D0E032C0E074F2121A86
:1022400063E5A7A2E4500FE5A1A2E4500953A7EF6C
:1022500075A1EF12228EE5A7A2E5500CE5A1A2E53B
:10226000500653A7DF75A1DFE5A7A2E15009E5A15C
:10227000A2E1500375A1FDE5A7A2E2500CE5A1A2E1
:10228000E2500653A7FB75A1FB7F01021AC274F846
:102290001219777521019003A2E0640670077A0095
:1022A0007B00120E28A2AFE433FED2AF9003A8E069
:1022B000640170187A207B009003A1E0F9121200EB
:1022C0007A207B009003A1E0F912117C906182E0FA
:1022D000D2E6F0900541E0602185C6228016900389
:1022E000A7E064017008E5C654F84405F5C653BE7E
:1022F000FC12206C7401652160E4EEA2E092AF7FD5
:1023000001021A238E238F2485822885832785182E
:1023100082851983E0CEA3E0CF852882852783EBD1
:10232000C9EAC8EDCBECCA75F010C3E833C8E9338D
:10233000C9EA33CAEB33CBC3EA9EF526EB9FF525FA
:10234000B35004AB25AA26EC33CCED33CDD5F0DA6F
:10235000AE23AF242274F11219778A088B098C0AF4
:102360008D0B909048780812174B740F1218FF7855
:102370000C121784909048780C12174B7808790C3F
:102380001215F390903450107808790C12172378B6
:10239000081216134014800E780C7908121723784F
:1023A0000C12161350047901800279007F08021A7A
:1023B0002374ED1219778A088B098C0A8D0B909083
:1023C00048780812174B74131218FF780C121784F0
:1023D000909048780C12174B780C79081215F3403E
:1023E000117808790C121723AA08AB09AC0AAD0BB7
:1023F0008022751000751100751200751301781098
:10240000790C121723781079081216EAAA10AB116A
:10241000AC12AD137F0C021A239090487808121763
:10242000848A828B83780812175E7F04021A2374D1
:10243000F51219778C828D8378081217848A828B23
:10244000837808121737122483C3E098F0A3E09929
:10245000122475401E90906878081217848A828B27
:102460008378081217108E828F83E02420F0A3E077
:10247000344EF080A4F08E828F83C3E09420A3E0DA
:10248000944E22EA2404F8EB3400F9E8FEE9FF8CCC
:10249000828D83A3A3A3A3E0F8A3E0F98E828F83A8
:1024A0002274F5121977E9FE9004F7E0FAA3E0FB35
:1024B000EEC333F8E433F9741028F582748F39F5DC
:1024C00083E02AF508A3E03BF5097808121B1E906B
:1024D00090641217A212230474021218CA8A088B7D
:1024E000098C0A8D0B741078081216B2AA08AB0971
:1024F0007F04021A2374F11219778A0C8B0D8C0E4B
:102500008D0F740F1218FFE0FAA3E0FB741112187C
:10251000FFE0F508A3E0F5097808121B1EEA240184
:10252000F508EB3400F509E4F50AF50B780C7908A9
:1025300012163290902C7808121784780C790812B1
:102540001632AA0CAB0DAC0EAD0F1223047402129E
:1025500018CA8B09EA450960047A0180027A00EC06
:102560002AFCED3400FD74131218FFE0F8A3E0F923
:10257000E8FEE9FFECF8EDF97A717B021218298880
:10258000088909E4F50AF50B8E828F837808121703
:1025900093ECF8EDF97A717B021218298A088B09FD
:1025A000740578081218A18E828F83A3A3A3A3E5D4
:1025B00008F0A3E509F07F08021A23C082C083E96E
:1025C000906000F0D083D08222C2AF02000022C00F
:1025D000E074F2121A63A2AFE433FED2AFC2C0E5D8
:1025E000D1A2E4500653D1EF12149AEEA2E092AFBA
:1025F0007F01021AC2C0E074F2121A63A2AFE43380
:10260000FED2AFE589A2E15003121416758900C20B
:10261000C5EEA2E092AF7F01021AC2C0E074F212CE
:102620001A63A2AFE433FED2AFE58BA2E0500312EF
:102630001416758B00C2E880D8C0E0C0D0E8C0E0B6
:10264000E9C0E0E5A8D2AFC2C7A2E7A2E792AFD047
:10265000E0F9D0E0F8D0D0D0E032C0E0C0D0E8C09F
:10266000E0E9C0E0C008C009C082C083A2AFE43383
:10267000F9D2AF90089BE0F8A3E0687008539AFB8A
:10268000A374018026C2E990089BE0F50874012537
:1026900008F074972508F58274083400F583E0F596
:1026A000C190089BE0C394044002E4F0E9A2E092E8
:1026B000AFD083D082D009D008D0E0F9D0E0F8D0F4
:1026C000D0D0E032FFFFFFFFFFFFFFFFC082C083DB
:1026D00090075FE0F8E94A6890075D603C7403F09A
:1026E0007410697013EAC333FCE433FD74682CF58D
:1026F0008274073DF5838015E9702074016A7005C6
:10270000900959800874026A701190095B123F2D7C
:10271000900762ECF0A3ED8001E4F00236C474F09F
:1027200012190B74FE1218B48A088B097E007F0000
:10273000EEF8EFF97A027B00121821E8C333F50EA8
:10274000E933F50F7468250EF50C7407350FF50D98
:10275000850C82F583A385820A85830B8518828583
:102760001983AC82AD837A02EE248DF9121536E915
:10277000601B74C2250EF582748F350FF583123AF3
:102780000B850C82850D83E8F0A3E9801A851882F9
:10279000851983E0850A82850B83F074011218FF86
:1027A000E0850C82850D83F0E5082EF8E5091234EA
:1027B00034EE2402FEEF3400FFC3EE9408EF12362D
:1027C00060500302273074021218CA7F080219DD14
:1027D00074F712190B74FE1218B4EAFEEBFF851899
:1027E00082851983AC82AD837A027995121536E918
:1027F0006045900770E0600C1460142481601B1425
:10280000601F802890095974BDF0A37404803C9027
:1028100009597403F0A37405803190095974E0805C
:102820000590095974F5F0A37401801F900959743B
:10283000FFF0A3743F8014851882851983E0F97432
:10284000011218FFE0900959F0A3E912338179973A
:10285000121536E96041900770E0600C1460102496
:1028600081601714601F802790095B74C6800590F3
:10287000095B7465F0A37402803190095B7416F0F3
:10288000A37401802690095B74F5F0A3E4801C908A
:10289000095BE4F0A38014851882851983E0F9743C
:1028A000011218FFE090095BF0A3E9F090095A12B9
:1028B0002E95900959122E8590095C122971900964
:1028C0005B12297B740202384774F712190B74FCEF
:1028D0001218B4EAFEEBFF851882851983AC82AD2D
:1028E000837A047989121536E9602D900770740196
:1028F000F0900952C3E09458A3E09402500E900760
:1029000064E0640170069007707481F09007717440
:1029100002F0A3E4F0A38028851882851983E09053
:102920000771F074011218FFE0900770F074021242
:1029300018FFE0F974031218FFE0900772F0A3E9A2
:10294000F0900770E0547F900FC7700474148002F9
:10295000740FF0A3E4F0900771122E959007701297
:102960002E8590077312297190077212297B023805
:102970004512297522122E8EA3F02212297F2212CF
:102980002E8EA3A3F02274E812190BEAFEEBFF8C43
:102990000A8D0B74181218FF78101217848E168F78
:1029A000178E088F09EE4F702B7A057B001211B835
:1029B0008A088B09AE08AF098E828F83A3A3A3A3D5
:1029C000E4123FD0A3A3E50AF0A3E50B123FD0E445
:1029D000F0A3804EEA2404F514EB3400F515909032
:1029E0006878101216FD851482851583E0F50CE4D5
:1029F000F50DF50EF50F7810790C1215F3502A80AD
:102A0000048808890985088285098312383D70F198
:102A10007A057B001211B8122A608514828515830D
:102A2000E004F080328808890985088285098312CC
:102A3000383D70F17A057B001211B8122A608E823F
:102A40008F83E0FEA3E0FF851482851583123FD6B5
:102A5000AA16AB171211BEEEFAEFFB7F100219DDBA
:102A60008A0C8B0DA80CA90D88828983A3A3E50A83
:102A7000F0A3E50BF088828983E4F0A3F085088257
:102A8000850983E8F0A3E9F02274F412190B74FCB1
:102A90001218B48908900778E065087003022B5774
:102AA000851882851983AA82AB83121290900954EB
:102AB000E0F50A75F005A4F8A9F0745D28FE740924
:102AC00039FFE0C394C950198E828F8312381F12C8
:102AD00017A28E828F83A31217AE900954E0048050
:102AE0006B78007900E8FAE9FBEA75F005A4FAAC26
:102AF000F075F005EBA42CFB745D2AFC74093BFD1A
:102B00008C828D83A3A3A3A3A374051217C7E82403
:102B10000108E93400F9E50A24FFFAE434FFFBC3B5
:102B2000E89AE99BA2D265D03340BAEE24FBF58245
:102B3000EF34FFF58312381F1217A2EE24FCF58242
:102B4000EF34FFF5831217AE900954E4F0E50890D6
:102B50000778F079018002790074041218CA023EE5
:102B600016C082C083900760C3E09489A3E09413E9
:102B70009007604005E4F0A380031239FB0236C3DE
:102B800074F712190B8908740F5508F874F055087A
:102B9000600A24F0603424F06067806F900955E08B
:102BA0007069900956E0640260617401F07EF4FF80
:102BB000E8601214600514600680507A0180027A81
:102BC00002790080371212AE8041900955E0703BC7
:102BD000900956E064026033E4F07EF47F01E8601F
:102BE0000B14600C14600D14600E801F7A00800AB4
:102BF0007A0180067A0280027A03791012123080FC
:102C00000A9009577401F07E007F00E50890075F85
:102C1000F0EEFAEFFB02384A74F012190BEAFEEB01
:102C2000FF90901C121B3190077D123A0B758307A1
:102C3000758266E0C398FCA3E099FD900779123C89
:102C4000C712124874041218CA900779EAF0A3EB6D
:102C5000F07C007D00900779123A0B8007E02CFC95
:102C6000A3E03DFD88828983E5822402F8E5833470
:102C700000F9E8FAE9FB12383D8A828B8370DEE0C6
:102C80002CF508A3E03DF509900764780C12178431
:102C900090077B780C1215DE600C9007647C7B7DBE
:102CA0000774041217C7900764780C1217849007F2
:102CB0007F780C1215DE603A900783123A0BC3EE50
:102CC00098EF99502D9007647C7F7D07740412174C
:102CD000C7900783F0A3F07A04FB1211B88A0A8B1D
:102CE0000BAE0AAF0B122D331215B4EEFAEFFB1236
:102CF00011BE900783123CB0AA08AB090227CBC3D0
:102D0000EA9CEB9D40047902800279010201227461
:102D1000F612190B7A047B001211B88A088B09AEDF
:102D200008AF09122D331215B4EEFAEFFB1211BEE3
:102D30000235E3900764E08E828F83F0900765127E
:102D40002E8AF090076712297590076612297FEE88
:102D5000FCEFFD7A0479052274F612190B7A087BD0
:102D6000001211B88A088B09AE08AF09121236EEAC
:102D7000FCEFFD7A0879011215B4EEFAEFFB12119F
:102D8000BE7A057B001211B88A088B09AE08AF091C
:102D90007C4A7D0D7A01799B121536E96005900D0C
:102DA0004AE4F0900D4A122E95EEFCEFFD7A05797B
:102DB000061215B4EEFAEFFB1211BE7A047B001274
:102DC00011B88A088B09AE08AF09121242EEFCEF67
:102DD000FD7A0479001215B4EEFAEFFB1211BE7AF7
:102DE000047B001211B88A088B09AE08AF091212D1
:102DF0003CEEFCEFFD7A0479031215B4EEFAEFFB1A
:102E00001211BE7A027B001211B88A088B09AE0833
:102E1000AF097CC57D0F7A027999121536E9601ADF
:102E2000900770E0A2E7900FC540087484F0A37487
:102E30000380067462F0A37401F0900FC6122E9501
:102E4000900FC5122E85EEFCEFFD7A027902121565
:102E5000B4EEFAEFFB1211BE7A057B001211B88AAC
:102E6000088B09AE08AF091212DEEEFCEFFD7A0501
:102E7000790F1215B4EEFAEFFB1211BE75C90043BB
:102E8000C9080235E3122E8AF022122E8E22E08E1D
:102E9000828F83A322E08E828F83F02274EA12193C
:102EA0000B8910750A00750B007C007D0079008984
:102EB00011E51060351460142481601B1470407596
:102EC00012F57513017514F58915801775120375C0
:102ED0001305751465801C7512E0751301751416C1
:102EE000751501900785740280117512BD75130464
:102EF0007514C67515029007857404F0A3E4F0906C
:102F00000958E0F5088909740378081218A18508A2
:102F10000E85090F74C5250EF50C740E350FF50DD1
:102F200074B5250EF50E740E350FF50FEAC333F5A3
:102F300008EB33F509C3EA940112365F50030230FF
:102F400075900762E0F514A3E0F515E512C395143A
:102F5000F514E5139515F515C3E5149414E51594CA
:102F600000503009900762E0C39512F50AA3E0957E
:102F700013F50BE50A2414F50AE50B340012323B75
:102F8000E5129401E5131236604006AC12AD1380D1
:102F90000289111232E6EA9512EB9513A2D265D09E
:102FA000335003023222E50C2402F512E50D340001
:102FB000F513E50E2402F582E50F3400F583E9A24E
:102FC000E04049E510700302317114601B248160F8
:102FD00038146003023226123262121821123CBCED
:102FE00012182112322F8017EAF8EBF9123CC7129F
:102FF0001821880A890BE508250AF8E509350BF937
:1030000085128285138302319502314F12327A7014
:10301000030231DF146023248160571460030232FD
:103020002612324A121821123CBC121821880A8931
:103030000BEC250AFAED350B8017ECF8EDF9123C94
:10304000C7121821880E890FE50A250EFAE50B35FF
:103050000FFB851282851383123A0BE8850CF0A4CE
:10306000F8ACF0850CF0E9A42CF9EA28F8EB390269
:1030700032170231AFC312365F400302322290078B
:1030800062E0C39514F512A3E09515F513C3E5129C
:103090009414E5139400501B09E51224ECF50AE59D
:1030A0001334FF12323B1236605006AC12AD13805F
:1030B0000289111232E6E49512F512E49513F51324
:1030C000C3E5129AE5139BA2D265D03350030232B6
:1030D00022E50E2406F582E50F3400F583E50E2483
:1030E00004F50EE50F3400F50FE9A2E050030231BC
:1030F0009EE50C2406F8E50D3400F9880A890BE5F5
:103100000C2404F8E50D3400F9880C890DE51060F5
:103110006014601B2481603714600302322612326F
:1031200062121821123CBC12182112322F8017EAA9
:10313000F8EBF9123CC7121821880C890DE5082517
:103140000CF8E509350DF9850A82850B8380461256
:103150003262121821E8FCE9FDECC333FCED33FDCB
:10316000850E82850F83123CC712182112322F80E0
:103170001DEAF8EBF9850E82850F83123CC7121801
:1031800021880A890BE508250AF8E509350BF98538
:103190000C82850D83E028FEA3E03902321F123233
:1031A0007A603C14603F2481600514707980068544
:1031B0000E82850F83E0FEA3E0FF12324A1218212F
:1031C000E8FCE9FDECC333FCED33FDEEFAEFFB1256
:1031D0001821880A890BEC250AF8ED350B80238528
:1031E0000E82850F83E0FEA3E0FFECF8EDF9EEFA26
:1031F000EFFB121821880E890FE50A250EF8E50B62
:10320000350FF9EE850CF0A4FEAAF0850CF0EFA4C2
:103210002AFFE82EF8E93FF9E82508FEE93509FF1D
:1032200080047E007F00EEFAEFFB7F0E0219DD883E
:10323000088909EC2508F8ED350922F50BEAC39554
:103240000AF512EB950BF513C322EC75F07FA4FC85
:10325000A8F075F07FEDA428FDECF8EDF97A327B4B
:103260000022EA75F07FA4FAA8F075F07FEBA4289D
:10327000FBEAF8EBF97A327B0022E511A2E0B3E435
:1032800033F50CE50A9AF8E50B9BF9851108E885FA
:1032900008F0A4F885F0118508F0E9A42511F9EAF1
:1032A000C3950AFAEB950BFBEA850CF0A4FA85F0BE
:1032B00008850CF0EBA42508FBE82AF508E93BF5A6
:1032C00009E50875F003A4F508A8F075F003E50911
:1032D000A428F5098C0A8D0BE50AC333F50AE50B22
:1032E00033F50BE51022900785E0F512A3E0F51306
:1032F000C32274F712190B74F61218B4E9FEEAC36C
:1033000033FAEB33FB74682AF874073BF988828937
:1033100083ECF0A3ED123821124100C0E0740112D9
:1033200018FFD0E0123381EEF91215307A007B00DD
:10333000EAF8EBF9E8C333F8E933F974021218FF3D
:10334000E58228FCE58339FD746828F8740739F9AB
:1033500088828983A3E08C828D831241008C828DC8
:1033600083A31235E8940412365F40C47402121825
:10337000FFAC82AD837A0879011215B4740A023861
:1033800047F0851882851983AC82AD837A02227456
:10339000F012190B74F61218B48A088B09750E0016
:1033A000750F00E50EC333FEE50F33FF74682EF58D
:1033B0000C74073FF50D850C82F583A385820A8581
:1033C000830BE5082EF582E5093FF58312383D6051
:1033D00028850C82850D83123829851882851983EA
:1033E00012344BC0E074011218FFD0E0123381E5B3
:1033F0000EC333248DF912153074021218FFE582C2
:103400002EF8E583123434E50E2401F50EE50F3471
:1034100000F50FC3E50E9404E50F12366040847486
:10342000021218FFAC82AD837A0879011215B474C8
:103430000A0227C83FF9850A82850B83E0888289C2
:103440008312344B88828983A3F022F0850C828515
:103450000D83E02274EC12190B8A0C7510007511A3
:10346000007512007513007A00850C088B098C0A10
:103470008D0BEA33333354F878081216B29090006B
:10348000780812174B7403C39A33333354F878080F
:103490001216CB781079081217710AEAC394044007
:1034A000C8AA10AB11AC12AD137F0C0219DD74F772
:1034B00012190B74FC1218B4EAFEEBFF1211A012E1
:1034C00011A612128A8518828519831217AE8518E3
:1034D00082851983EEFCEFFDECFAEDFB7404121704
:1034E000C702384574F412190B7A057B001211B823
:1034F0008A088B09AE08AF09740C1218FF122E95BA
:1035000078017900C3E498FAE499FB740C1218FF6F
:10351000E5822AF582E5833BF583A3A3A3A3A3E079
:10352000C0E0EE28F582EF39F583D0E01236A540F1
:10353000D3EEFCEFFD7A0579061215B4EEFAEFFB37
:103540001211BE740C1218FFE06018740D1218FFEF
:103550007808121784E5084509450A450B70047977
:103560000180027900023E1674F612190B90095779
:10357000E060707A107B001211B88A088B09AE08DF
:10358000AF09900787E075F00FA4F8A9F0745D28E3
:10359000F8740939F9122E95900787E004F07A0043
:1035A0007B00E82AF582E93BF583E0C0E0EE2AF5EE
:1035B00082EF3BF583A3D0E01235E8940F12365F1B
:1035C00040E0EEFCEFFD7A1079081215B4EEFAEF48
:1035D000FB1211BE900787E0C394434006E4F090CD
:1035E0000957F07F020219DDF0EA24010AEB3400EA
:1035F000FBC3EA2274F612190B74FC1218B4851876
:1036000082851983AA82AB831212907A047B0012FE
:1036100011B88A088B09AE08AF09780079008518BF
:1036200082851983E58228F582E58339F583E0C038
:10363000E0EE28F582EF39F583D0E01236B7940436
:10364000E912366040D8EEFCEFFD7A0479071215D6
:10365000B4EEFAEFFB1211BE74041218CA8084EBA8
:103660001236AF22C082C0838A828B83E0900D4ADB
:10367000F078017900EA28F582EB39F583E0C0E0C3
:10368000C3E498FCE499FD744F2CF582740D3DF56C
:1036900083D0E01236A540DD7C4A7D0D7A01799B0E
:1036A000121530801F1236B79405E91236AF2294F6
:1036B00000A2D265D03322F0E8240108E93400F9F1
:1036C000C3E822F0D083D082020122C082C083905E
:1036D0000956E4F090075DF090075FF0900950F014
:1036E000A380E0C082C0838A828B83A3E0F87481C8
:1036F00068600D74016860087480686003E8700B8E
:10370000EAFCEBFD7A04798912153012127280B44A
:1037100074F712190BEAFEEBFF8E828F83E0F9A398
:10372000E0900FC512382F7999121530EEFCEFFD9D
:103730007A0279021215B402384A74F712190B741E
:10374000F81218B4EAFCEBFD8C828D83E0C0E074C3
:10375000011218FFD0E01240FAA3E0851882851903
:1037600083F0EC2402FEED3400FF8E828F83E0C0F4
:10377000E074031218FFD0E01240FAA3A3A3E0C044
:10378000E074021218FFD0E012382112383D90097F
:1037900059600C1238297A027995121530800C1272
:1037A0003A0B85188285198312382974021218FF82
:1037B00012383D90095B600BE812382F799712158B
:1037C00030800B123A0B74021218FF123829740160
:1037D0001218FFE0C0E074041218FFD0E012382184
:1037E000E0C0E074051218FFD0E0F074031218FF77
:1037F000E0C0E074061218FFD0E0F074021218FF67
:10380000E0C0E074071218FFD0E0F074041218FF53
:10381000AC82AD837A0479031215B474088028E56C
:1038200008F085188285198322E8F0A3E9F022F0D8
:10383000A3E9F0EEFCEFFD7A0222900766E0F8A320
:10384000E0F9E8492274041218CA7F010219DDC0A8
:1038500082C083900764E06401700712383A600701
:10386000800BE06406600F900959123A0B900952E0
:10387000E8F0A3E980059009567402F090075DE036
:10388000703F90075EE064037027C39009511239BE
:10389000F650030239D2900950C3E09401A31239C3
:1038A000F640030239A775800053FD0F90075E8034
:1038B0000CE070030239F375800053FD0FE4023908
:1038C000F2F890075EE068700302396E90075DE0E1
:1038D000146009146017146026023964900952C0FC
:1038E00082123A11D082123CB55079802D90095B3A
:1038F000123CC7123A08C3EA98EB9950678035909A
:103900000959C082900762123A0B758309D082125E
:103910003CB5500F900959123A0B900762E8F0A39A
:10392000E9801890095B123CC7900762C3E09AA334
:10393000E09B5008900762EAF0A3EBF0900770E07C
:10394000F9900762C082900952123CC7758307D074
:1039500082E0C39AFAA3E09BFB121278900950EA26
:10396000F0A3EBF090075DE090075E0239F290095A
:103970005012383D701675800053FD0F90075DE4BE
:10398000F090075FF09009567402806690075DE042
:1039900014600514602A805B900952C082123A11AB
:1039A000D082123CB5503F900955E0700643FDF0BF
:1039B000758040900950E024FFF0A3E034FF80328E
:1039C00090095BC082123A08758309D082123CB517
:1039D0005014900955E0700643FDF0758080900901
:1039E000501239FB800C75800053FD0F900950E494
:1039F000F0A3F00236C4E01236AF221239FF22E003
:103A00002401F0A3E0340022900952E0F8A3E0F989
:103A100022900959E0F8A3E0F975830922C082C019
:103A200083E590540F900788F0900956E064017088
:103A300003023CAD900788E0640F900956702BE4B8
:103A4000F090075DF0900789740FF090078AE4F01A
:103A500090075EE064037009900955E07003023C32
:103A6000AD75800053FD0F023CAD7402F090095516
:103A7000E06003023CAD90076A123CC7900789E002
:103A8000F8900788E0687003023C2490075EE064C9
:103A9000037003023C0B900788E024FD7003023B97
:103AA0008C24FE605024FE603024FE7003023BB87C
:103AB00024FE7003023B4124FE6009147003023BA4
:103AC000FE023C1A900764E06406700512383A70F2
:103AD0001590075D7401023C19900764E06406705C
:103AE0000C12383A600790075DE4023C1990075DBC
:103AF0007402023C19900764E06406601E90076837
:103B0000E0F47003A3E0F47003023C1A90075D74C4
:103B100003F0900768123A0B023BD612383A600362
:103B2000023C1A123F2A798D7A007B0012127E9095
:103B30000955E06003023C1A43FDF07580C0023C69
:103B40001A900764E06406601D74FF6A700374FFD6
:103B50006B7003023C1A90075D7403F0900762EAF1
:103B6000F0A3EB023C1912383A6003023C1A123FF0
:103B70002A798F7A017B0012127E900955E060034A
:103B8000023C1A43FDF0758020023C1A900764E065
:103B90006406600590076C802A12383A707C123FE8
:103BA0002A79917A027B0012127E900955E0706AA0
:103BB00043FDF07580A08062900764E06406601F9A
:103BC00090076E123A0B74FF68700374FF69604AC5
:103BD00090075D7403F0900762E8F0A3E9803A1261
:103BE000383A7036123F2A79937A037B0012127E9C
:103BF000900955E0702443FDF0758060801C9007AB
:103C00005DE4F043FDF0758010800F90075DE4F0F7
:103C100090075EF0900950F0A3F0900788E09007BD
:103C200089023CACE0640E6003023CAD7580005339
:103C3000FD0F90078BC3E09410A3E09400404590E3
:103C40000D4FE07034900768C082900FC5123A0B98
:103C5000758307D082123CB5502A900FC5C3E09AF5
:103C6000A3E09B501F90075D7401F0900D4FF09002
:103C70000765E0F91212E4800B90075D7402F09082
:103C80000D4FE4F090078AE0702390078B123CB050
:103C900090078BC3E09419A3E09400401090075D57
:103CA000E4F090078BF0A3F090078A04F00236C48A
:103CB0001239FFF022C3E098A3E09922E8FCE9FD65
:103CC000ECC333FCED33FDE0FAA3E0FB2274F41205
:103CD000190BE9FE74046E6003023E009007601247
:103CE000383D7003023E0F900760C3E0941EA3E0CE
:103CF0009400500D7C047D007A8D7B071214A68001
:103D0000077A047B001214AC90078DE0900795F0C1
:103D100090078EE0F9900796F090078FE0FA9007F1
:103D200097F0900790E0FB900798F0909004780847
:103D300012178490079178081215DE70729090081F
:103D4000780812178490079578081215DE604C9059
:103D50000795780812178474016508700474026569
:103D6000096014900795780812178474016508702B
:103D70000474016509702490900C780812178490DF
:103D8000079578081215DE601290901078081217C7
:103D90008490079578081215DE70149007957401C9
:103DA000F0A37404F0A37401F0A374AAF0806090EF
:103DB0000795780812178474016508700474056506
:103DC00009700E9007917C957D0774041217C780C7
:103DD0000FE9900764F0EA900767F0EB900766F050
:103DE000900795780812178490079178081215DECD
:103DF000601D9007957C917D0774041217C7800F92
:103E0000EEC3940540098E08AA087B001214AC90FA
:103E10000760E4F0A3F07F040219DD74F412190BBB
:103E2000EAFEEBFFEEF8EFF9E8C333F8E933F99077
:103E30000770E0600C1460112481601514601A8012
:103E4000227508D575090E801A7508DF75090E8070
:103E5000127508D575090E80067508DF75090EE81C
:103E6000FEE9FF123A08758307758262E0C398FA8B
:103E7000A3E099FB850882850983123F2DC3EC9E40
:103E8000ED9FA2D265D033502E900770E0F9121248
:103E9000788A0A8B0BAC0AAD0BEEF8EFF985088235
:103EA000850983A3A3123CC7121821880A890B85B0
:103EB00008828509838047C3E49CF8E49DF9C3EE3A
:103EC00098EF99A2D265D033505D900770E0F91257
:103ED00012788A0A8B0BAC0AAD0BEEF8EFF9850865
:103EE00082850983A3A3A3A3A3A3123CC71218210D
:103EF000880A890B850882850983A3A3A3A3A3A3AA
:103F0000A3A3123A0BE8850AF0A4C8AAF0850BF027
:103F1000A42AFA850AF0E9A42AF9ECC398F8ED99E5
:103F2000F9900950123829023E16900952E0FCA37C
:103F3000E0FD2274F712190B74FB1218B4EAFEEBC1
:103F4000FF851882851983AC82AD837A05799C122E
:103F50001536E9601F74011218FF7403F01412186B
:103F6000FF7484F074031218FF7407F074041218BD
:103F7000FF7408F074021218FFE0FA74011218FFBF
:103F8000E0F9EA90077612382A74041218FFE0FA72
:103F900074031218FFE0F9EA90077412382A900DA2
:103FA0004FE4F0900D51741EF0A3E4F0A3F0A312BF
:103FB0003FD0F0900777122E8590077612297190E6
:103FC000077512297B900774123FD6740502384793
:103FD000F08E828F8322122E8AA3A3A3F022C082A6
:103FE000C083E9602B74026970047401800274025A
:103FF000900D50F06401700590077680039007746F
:10400000123CC7900D51EAF0A3EBF0A3E4F0A3F04B
:104010000236C474F212190BEAFEEBFFEE2402F82A
:10402000EF3400F98E828F83A3AA82AB83E0F50878
:1040300088828983E0FDE5082400940FED94005008
:104040000D8A828B83E4F088828983740FF0EE24DA
:1040500004FCEF3400FDEE2403F508EF3400F5090D
:10406000850882F583E0F50C8C828D83E0F50BE505
:104070000C2400941EE50B9400500D8508828509E0
:1040800083E41240FA741EF08A828B83E0900777F3
:10409000124100900776F0850882850983E0900739
:1040A000751240FAE0900774123FD0E06028900744
:1040B00068123A0B75830F7582C5123CB54011909A
:1040C0000FC5123A0B75830775826A123CB550060C
:1040D0008E828F83E4F08E828F83E0900D4FF0EE1E
:1040E000FCEFFD7A05799C121530EEFCEFFD7A05A8
:1040F000790F1215B47F060219DDF08C828D8322B0
:10410000F088828983E022C082C083900D50E064F1
:104110000190075D70087403F090076880067403CF
:10412000F090076A123A0B900762E8F0A3E90236B2
:10413000C3C082C083E9900E71F00243C074F712CD
:10414000190BE99002E1F07C197D037AFF7BFF12E5
:1041500009249002E274FFF0A3F0A3E4F0A3F07945
:10416000051208AC9002E1E0F91207CE7A427B0911
:10417000120AEC7F010219DD74F412190B8A088B04
:1041800009EB548060309002E1E0F912115E8A0A76
:104190008B0BAE0AAF0BEE4F60138E828F83E06401
:1041A000B070031208C4EEFAEFFB12114CAA08E536
:1041B000096480FB80047A007B0002438F74F21252
:1041C000190B74FC1218B4EAFEEBFFEE4F60387462
:1041D000021218FFEEF0A3EF1245F4ECF0A3ED127B
:1041E00045F4AA82AB831207C8E9F508707374120C
:1041F0001218FF1251A8E50A450B60658E828F8365
:1042000012426BEE4F700575080280557A067B00EE
:104210001211B88A0C8B0DA80CA90DE84970057510
:104220000813803D88828983E4124275A3A3EEF0CF
:10423000A3EF125641E50AF0A3E50BF09002E71256
:1042400042FD9002E76017E0FCA3E08003EAFCEB8C
:10425000FD8C828D831242FD70F38C828D8312500F
:10426000CDA90874041218CA025843A3A3A3A3E05B
:10427000FEA3E0FF22F0A3F0888289832274F21269
:10428000190B890AE975F017A4FEAFF09002E6E475
:10429000F09002E41242FD600A1211BE9002E4E4C2
:1042A000F0A3F0EEFAEFFB1211B88A088B09EA4589
:1042B00009602FEEFCEFFD790012113A9002E4E55F
:1042C00008F0A3E509F07B0080081242E7E4F0A3C0
:1042D000F00BEBC3950A40F2E50A9002E6F0790094
:1042E00080027913025843EB75F017A4F8A9F090F7
:1042F00002E4E028FAA3E0398A82F58322124E63B1
:10430000EA4B2274F412190B750800750900740C3D
:104310001218FF125615FEE9FF800CE5082401F57E
:1043200008E5093400F509C3E5089CE5099D50320C
:1043300085080A85090B7403780A1218A1EA250A70
:10434000F8EB350BF988828983A3A3A3A3A3A31257
:1043500051A8EE650A7003EF650B70BFE8FAE9FB40
:1043600080047A007B00802774F412190B7900EA2C
:10437000A2E0501B7508F075098F7808121B1E7C8F
:10438000047D007A737B0E1208A674021218CA7F8D
:10439000040219DDC082C0839002E71243C7601C8B
:1043A00088828983A3A3E06A7003A3E06B88828973
:1043B0008370E8A3A3A3A3124E5F80047A007B005E
:1043C000D083D082020122125916E8492274EE12DB
:1043D000190B74FC1218B4EAFEEBFF8518828519DC
:1043E00083E4F0A3F0EE24021250B1EE240512454E
:1043F000E2EE2404F50EEF1249C7E024FE603924F2
:10440000FC604624FE605224FE605E24FE700302BF
:1044100044E724FE700302455F24FE700302456EEC
:1044200024FE700302457D24FC700302458C24FEAB
:10443000700302459B0245D89003007417F0A3E473
:104440001245FC1205460245D8851882851983ACB1
:1044500082AD831208CA0245A8851882851983ACEB
:1044600082AD831208D00245A8850C08850D097419
:10447000021218FFAC82AD83850882850983124E33
:104480005F1207EC8A0C8B0DAC0CAD0DEC4D60424D
:10449000E4F50CF50D780C121B1E750C00750D0360
:1044A000780C121B1E750C01750D03780C121B1E67
:1044B00074081218FF121B357916124E5912090C86
:1044C00074081218CAE9F50C700B124E5512055EED
:1044D000800F750C018508828509831245EA125008
:1044E000CD850C080245AB74021218FFAC82AD8377
:1044F000850C82850D83124E5F1207EC8A108B119A
:10450000AC10AD11EC4D6043850C82850D83A3A3E7
:10451000121B357510007511037810121B1E7510D3
:10452000017511037810121B1E74081218FF121B5C
:10453000357916124E5912090C74081218CAE9F589
:1045400009700B124E55120564800F750901850C18
:1045500082850D831245EA1250CD850908804C856D
:104560001882851983AC82AD831208D6803A8518EB
:1045700082851983AC82AD831208DC802B8518827A
:10458000851983AC82AD831208E2801C8518828570
:104590001983AC82AD831208E8800D8518828519D5
:1045A00083AC82AD831208EEE9F508E50860298E38
:1045B000828F83A3E06414601F850E82850F83E0E1
:1045C0009003001245F41259129003011250CDE5E8
:1045D00008A31245FC120540EEFAEFFB12086A022E
:1045E0004FB9F50CEF3400F50D22125916851882DB
:1045F00085198322F085188285198322F07C007D3D
:1046000003850A82850B83124E632274EE12190B06
:1046100074FC1218B48A0A8B0B8C0E8D0FEA2405D9
:10462000F508EB3400F5097C157D0079007A007BF4
:104630000312113AE5082402F50CE5091245E58557
:1046400018828519838582108583117810121B1EAC
:10465000850882850983A3A3A3A3124B0F121B1EF7
:10466000E5082405F510E5093400F5117810121B52
:104670001E850C82850D83124E691207E6740612A0
:1046800018CA8A108B11AE10AF11E50A2402F50A80
:10469000E50B1250B4EE4F70030247D1801774023D
:1046A0001218FF124E5F88828983EAF0A3EBF09024
:1046B0000300E004F0900300E0C3940540030247C8
:1046C000D1E4F510F5117810121B1E7510E9751163
:1046D000027810121B1E7510EA7511027810121B59
:1046E0001E74061218FF121B357910EEFCEFFD1236
:1046F0004E5912090C74081218CAE9705E850882B6
:10470000850983A3A3A3A3A3A3A3E0F89002E9E0F0
:10471000687048124B0F121B1E7CEA7D02E50824CC
:1047200008FAE5093400FB12113474021218CAE9C0
:1047300060298E828F83A3A3A3A3124E5F900300F0
:10474000E0F510740278101218A174012510F5829A
:1047500074033511F583EAF0A3EBF074021218FF2D
:104760008582108583117810121B1E74021218FFA7
:10477000121B35850C82850D831259271207F2749E
:10478000041218CA8A108B11AE10AF11900300E00A
:10479000F510751100740278101218A1740025101C
:1047A000F874033511F988828983A31242FD7003DE
:1047B000024695E82403F8E93400F9EE4F6003025D
:1047C000469E8882898374FFF0A3F0900300E00482
:1047D000F0900300E0600A124E55120552790080F5
:1047E0000B8508828509831250C4790A024FB97477
:1047F000EA12190B74FE1218B48C128D13EA2405F8
:10480000F50CEB125A9112426F750800750900EA17
:104810002402F510EB3400F5118518828519838583
:10482000820A85830B780A121B1E850C82850D83F4
:10483000A3A3A3A31249D1121B1EE50C2405F50A5C
:10484000E50D1250B4780A121B1E850C82850D836B
:104850001259251207E674061218CA8A0A8B0BEA47
:10486000450B7003024982EA2404F50EEB1249C796
:1048700012426F8A828B83A3A3A3E0F985108285FD
:104880001183124E5F1207D4E9F5096003024982D1
:10489000E4F514F5157814121B1E7514E97515024C
:1048A0007814121B1E7514EA7515027814121B1E5B
:1048B00074061218FF121B357913AC0AAD0B851064
:1048C00082851183124E5F12090C74081218CAE90E
:1048D000F50960030249829002E9E0F8E5087009F1
:1048E000E02402900301F08017900301E0FCE8242B
:1048F00002FAE43400FBEA6C7001EB6003024986C3
:10490000850882AA82124B069414124AFE507385BF
:104910000E82850F83E0C0E074022A1249BED0E007
:10492000F00508850E82850F83A3E0C0E085080AA4
:104930007402250A1249BED0E0F005089002E9127F
:1049400049D1121B1E7CEA7D0285080A7402250AE1
:10495000FA74033400FB12112274021218CA900276
:10496000E9E02508F50874FF6E700374FF6F6012AC
:10497000EE24010EEF3400FFE508C3941450030247
:104980004819E5086013124D4A851082851183127B
:104990004E5F12055879008014E509700375090A05
:1049A000851282851383EEF0A3EFF0A90974021239
:1049B00018CA7F0E0219DD85080C7402250CF582D9
:1049C00074033400F583223400F50F850E82F583DD
:1049D000221256542274EE12190B74FE1218B48C63
:1049E0000E8D0FEA2405F50CEB1245E5750B0090D2
:1049F0000300E4F0F50AEA2402F508EB3400F509B7
:104A00008049900300E0FA9002E9E0F8124B069426
:104A100017124AFE400D900300E0F87416C39890F8
:104A200002E9F0124B0F121B1E7CEA7D0274012A70
:104A3000FA74033400FB12112274021218CA900295
:104A4000E9E0F8900300E028F0050AE50C2416F5EB
:104A500082E50D1249C2E0F8E50AC3984003024A14
:104A6000E7900300E0C39416507DE50AC333F8E4F1
:104A700033F9E50C28FEE50D39FF85188285198389
:104A8000AC82AD838E828F83124E5F1207EC8A1048
:104A90008B11AC10AD11EC4D7005750B018043E42A
:104AA000F510F5117810121B1E7510E975110278BA
:104AB00010121B1E7510EA7511027810121B1E745D
:104AC000061218FF121B3579168508828509831294
:104AD0004E5F12090C74081218CAE9F50B70030234
:104AE0004A021250C080107C007D0385088285092F
:104AF00083124E5F12056AA90B7402024FBBE99440
:104B000000C365D03322EA28F8E43400F9E822E053
:104B1000F51075110078102274EA12190B74FC124A
:104B200018B48A0C8B0D8C128D13EA2405F50AEB50
:104B30001250B4750800750900E50A2402F510E565
:104B40000B3400F51174021218FF85820E85830F55
:104B5000780E121B1E850A82850B83A3A3A3A312C2
:104B60005600121B1EE50A2405F50EE50B3400F570
:104B70000F780E121B1E8510828511831250BA12F7
:104B80004E591207E674061218CA8A0E8B0FAE0E23
:104B9000AF0FE50C2402F50EE50D3400F50F804053
:104BA0008882898374FFF005081249B774FFF00505
:104BB000089002E9E0F50C750D00780C121B1E7CC4
:104BC000EA7D0285080C7402250CFA74033400FB9C
:104BD00012112274021218CA9002E9E02508F508A1
:104BE000EE4F60718E828F83A3A3A3E0F9850E82BE
:104BF000850F83124E5F1207D4E9F509EE240412E3
:104C000045E2E97044E4F514F5157814121B1E759D
:104C100014E97515027814121B1E7514EA75150235
:104C20007814121B1E74081218FF121B357911EE2E
:104C3000FCEFFD850E82850F83124E5F12090C7406
:104C4000081218CAE9F5096027850C82850D8312C0
:104C50004D401250CDE5087003024D26124D4A8595
:104C60000E82850F83124E5F1205707900024D3B54
:104C7000850882AA82EA9002E97009E02404900380
:104C800001F08022E0F8900301E0F514E82404FC30
:104C9000E43400FDEC65147001ED70C0124B069415
:104CA00012124AFE50B6850C82850D83E0C0E07476
:104CB000022A1249BED0E0F00508850C82850D83DA
:104CC000A3E0C0E01249B7D0E0124D5C85820C85AC
:104CD000830D780C121B1E74041218FF121B3585ED
:104CE00010828511831259271207F274041218CA10
:104CF0008A0C8B0DAE0CAF0D85080C7402250CF8D8
:104D000074033400F9EE4F7003024BA085188285BE
:104D10001983E088828983124D5CA3E0C0E01249C8
:104D2000B7D0E0024BAEE509700375090A850A8227
:104D3000850B83124D401250CDA90974040249AF6E
:104D400012591685128285138322900301E0F5F033
:104D5000E50884900300F07C007D0322F0050885BF
:104D600018828519832274EC12190B74FE1218B480
:104D70008A088B098C0E8D0FEA2405FEEB3400FFA8
:104D8000851882851983AC82AD838E828F83124E03
:104D90005F1207EC8A0A8B0BEE24181245E2EA45F3
:104DA0000B7003024E30124FA250328518828519C3
:104DB00083124E5F1209008A108B11EA4511606B55
:104DC0007912AC0AAD0B850882850983124E5F8586
:104DD0001082851183121909E9F50A7058E4F50A61
:104DE000F50B780A121B1E8E828F83A3A3E0F50AAF
:104DF000780A121B1EEE24031250B1780A121B1EF1
:104E00008E828F83124E6912091274061218CAE933
:104E1000F50A7021850C82850D83E0701F8508825C
:104E2000850983124E5F1205768011750A0E80097E
:104E3000750A018004E50A60031250C0850C828562
:104E40000D83E0600479008002A90A74021218CA76
:104E50007F0C0219DD7C007D03850A82850B83129D
:104E60004E6322E0FAA3E0FB22E0FCA3E0FD85080C
:104E700082850983124E632274EE12190B74FE129E
:104E800018B48A088B098C0C8D0DEA2405FEEB34CE
:104E900000FF750E00851882851983AC82AD838E64
:104EA000828F83124E5F1207EC8A0A8B0BEA450B46
:104EB0007003024F8E124FA25035851882851983D8
:104EC000124E5F1209008A0E8B0FEA450F605E7961
:104ED00012AC0AAD0B850882850983124E5F850EE0
:104EE00082850F83121909E9F50E6003024F91853F
:104EF00008828509831251A8AA0AFB1208F48A10B5
:104F00008B11A810A911E849701E7AFF7BFF1208C7
:104F1000F48A108B11A810A911E849606C88828965
:104F200083E50AF0A3E50BF0750A008007750E0E05
:104F3000805F050A9002E6E0FAE50AC39A504AE566
:104F40000A75F017A4FAABF088828983A3A3E02A3C
:104F5000FAA3E03BFB8A828B831250BAEC4D70D2ED
:104F6000750A17750B00780A121B1EEEFCEFFD1276
:104F7000112274021218CAEEFCEFFD850882850921
:104F800083124E5F12057C8014750E098003750E26
:104F90000112590E850C82850D831250CDA90E0287
:104FA0004AF9E5082402F508E5093400F5098A8282
:104FB0008B83A3A3A3E0A2E52274041218CA7F0A7C
:104FC0000219DD74EC12190B8C108D11EA2405F511
:104FD0000CEB1245E5750F00EA2402F50AEB1250BE
:104FE000B4850A82F583124E5F1208F48A088B0991
:104FF000EA450970030250A6750E008071850C8287
:10500000850D83E06401704F8E828F83A3A3121BF2
:10501000358E828F83A3A3A3A3E0F51275130078C6
:1050200012121B1EEE2405F512EF3400F513781250
:10503000121B1E124E5912091274061218CAE9F5F3
:105040000F6014850C82850D83E4F012590E8510D3
:10505000828511831250CD7C177D007900EEFAEF26
:10506000FB12113A8E828F83E4F0A3F0050E9002BA
:10507000E6E0F8E50EC398501EE50E75F017A4F8AB
:10508000A9F0850882850983A3A3125A9B1250BAFE
:10509000EC4D6003024FFD85088285098374FFF0A3
:1050A000A3F0E50F7006124E59120582A90F024EA9
:1050B00050F50AEF3400F50B22A3E0FCA3E0FD223B
:1050C0008E828F83125916850E82850F83E8F0A396
:1050D000E9F022C082C0839002E2E06A7003A3E09C
:1050E0006B70067AE27B0280047A007B000243C088
:1050F000C082C08378008C828D83E06A7003A3E055
:105100006B7010E875F003A4F8A9F0EC28FAED39FB
:10511000FB8015088C828D83A3A3A3E06A7003A390
:10512000E06B60DF7A007B000243C074F612190B5B
:105130001208BE8A828B83E582458370067A007BE3
:10514000008007A3A3A3A3124E5F0257BF74F212FD
:10515000190BE9FE740E1218FF1251A874101218E0
:10516000FF1256208C828D83E064027036A31259A0
:105170001CF50CA3E0F9A80C74026870037429698B
:105180007021750C02750D00780C121B1E78081228
:105190001B1E780A121B1EEEF9120936740612182D
:1051A000CA80027901025843E0F50AA3E0F50B2218
:1051B00074E812190B74FB1218B4E985188285196A
:1051C00083F08A168B17ECFEEDFF751000741D122C
:1051D00018FF125912741D1218FF1250CD8E828FB3
:1051E00083A3A3A3E0A2E4502D741D1218FF124E56
:1051F0005F1209008A828B83E58245837003025522
:10520000F1790AEEFCEFFDAA16AB17121909E9F5C0
:105210001060030255F4741F1218FF1256207421F7
:105220001218FF1251A874231218FFE0F50EA3E024
:10523000F50F8E828F83E06402600302559FA312F4
:105240005912850882850983A3858212858313EE0E
:1052500024061245E288828983E0FAA3E0F9EA2471
:1052600000F514E439F5157814121BA80100002884
:10527000012894520700022859530328C6520029D6
:1052800090540129BB5402295C54032990540429E9
:105290003A559F55E50E450F600302559A850C82DD
:1052A000850D83125615FAE9FB8A828B83E0850A05
:1052B00082850B8312564B121B1E8A828B83A3E0BE
:1052C000FCA3E0025524E50E450F600302559A85C4
:1052D0000A82850B837401F012562885088285099D
:1052E00083F07C007D008E828F83A3A3A3A3E024A0
:1052F00001FAA3E03400FB1207ECEA4B60418A821A
:105300008B83E02402F8850A82850B83E028F0EA8B
:105310002404F8EB3400F988828983E085128285C1
:10532000138312565D12564B121B1E8A828B8312F8
:1053300050B9E5082403FAE5093400FB0255298534
:105340000A82850B83E02404F07C047D007900AAA6
:1053500012AB1312113A0255F4E50E450F60030229
:10536000559A125628FEA3E0FF850A82850B8374A6
:1053700004F0EE850882850983F0EF85128285139B
:1053800083F074031218FFAC82AD83EEFAEFFB12C8
:1053900007EC8A0C8B0DEA450D700302543D8A829E
:1053A0008B83A3A312426B74011218FF85820E85B2
:1053B000830F780E121B1E74051218FF121B357C0A
:1053C000FF7DFF1207F274041218CA8B0FEA450F13
:1053D0007033850C82850D83125600121B1E850CBE
:1053E00082850D83A3121B357C027D007AA57B90FC
:1053F00012061E74041218CAE9700A74011218FF0A
:1054000074FFF0A3F08E828F83E064027039750C14
:1054100002750D00780C121B1E8E828F831250B9FC
:10542000E5082404FAE5093400FB12112274021283
:1054300018CA850A82850B83E02402800974011250
:1054400018FFEEF0A3EFF074011218FF125611F0DE
:1054500074011218FFA3125609025594E50E450F68
:10546000600302559A850C82850D831250BAAA16E4
:10547000AB1712092A850A82850B837402F0EA852C
:105480000882850983F0851282851383EB02559784
:10549000E50E450F600302559A125628F8A3E0F96D
:1054A000850A82850B837402F0E88508828509836A
:1054B000F0E9851282851383025597850C82850D4C
:1054C00083124E5F12111CEAFC8C82A882C3950ED7
:1054D000E4950F405FE8650E7002E50F70047C00F4
:1054E0008022851882851983E0FAE50E2AFAE50FF5
:1054F0003400FBC3EA98EB94005003E08005E50E0E
:10550000CCC39CFCEC850A82850B83F08C0A750B5E
:1055100000780A121B1E850C82850D83E0250EFC87
:10552000A3E0350FFDAA08AB09121122740212186C
:10553000CA0255F47510070255F4E50E450F705A6E
:10554000850C82850D83125912850A82850B83741E
:1055500007124277125609124277A3E0851282851C
:105560001383F0E82402FAE93400FB8A828B831269
:105570005609125638125611A312564112561AF0F5
:10558000E82405F8E93400F98882898312561AA3C1
:1055900012565DA3A3A3A3F0805A75100B80557417
:1055A0001D1218FF124E5F1208BE8A828B83E5829D
:1055B0004583603D125912880C890DE8450D603114
:1055C000780E121B1E780A121B1E7808121B1E74FE
:1055D000061218FFE0F9EEFCEFFDAA16AB17850CDA
:1055E00082850D8312190974061218CAE9F5108014
:1055F0000375100EA91074051218CA7F100219DD68
:10560000E0F50E750F00780E22E08508828509838B
:105610002212566722125916E822125667A3A322B5
:10562000E0F508A3E0F50922850C82850D83E0F8FA
:10563000A3E0F5838882E022A3A3F08A828B83A370
:1056400022F088828983A3A3A3A322F08A828B837A
:1056500012565422E0F50A750B00780A22F088826F
:105660008983A312566722E0850882850983A3A354
:105670002274EE12190B74FE1218B48A0A8B0BEC0A
:10568000FAEDFB74141218FFE0F510A3E0F51174A5
:10569000161218FFE0FE74181218FFE0F50EA3E0D2
:1056A000F50F851882851983AC82AD831207EC8AC9
:1056B0000C8B0DEA450D6049851882851983124EC1
:1056C0005F1208BE8A828B83E5824583602FA3A385
:1056D000125620E50845096024780E121B1E78102A
:1056E000121B1EEEF9AC0CAD0DAA0AAB0B8508829D
:1056F00085098312190974041218CA8006790E806C
:10570000027901024AF974F612190B74FE1218B4E8
:10571000740C1218FF125615851882851983F074BF
:10572000011218FFE9F0E4F508F5097808121B1ECC
:105730007508027808121B1E74041218FF8582086F
:105740008583097808121B1E12091274061218CAE2
:1057500074021218CA806874F712190BEAFEEBFF84
:1057600089087C197D0312092AEA5402600BA908F2
:10577000EEFAEFFB1207E08002790102417374F642
:1057800012190B74FF6A700374FF6B70168C828D94
:10579000831257C4E4F08C828D83A3A3A31257C451
:1057A000A380181208FA8A088B09A808A909E849F1
:1057B000600D8882898374FF124275A3A3E4F07F91
:1057C000020219DD74FFF0A3F08C828D83A3A32263
:1057D00074F612190B1208FA8A828B83E5824583CC
:1057E0006006A3A3E0FA80027A007B0080D174F205
:1057F00012190B8A088B09ECFEEDFF740E1218FFCC
:10580000E0F50A1208FA8A0C8B0DA80CA90DE849DC
:105810007026EEFCEFFD7AFF7BFF1208FA8A0C8BF4
:105820000DA80CA90DE849700479118016888289A9
:1058300083E508F0A3E509F088828983A3A3E50A3C
:10584000F079007F060219DD74EE12190BEAFEEB07
:10585000FF8C088D09890C74141218FF12591274E8
:10586000161218FF124E5F750D00E84960030259C9
:10587000067402650C600302590174121218FF12BB
:10588000591CFCA3E0F9EC2400F50EE439F50FEA0D
:10589000F4F8EBF4F9EC58F8E50F59F9E849705CC5
:1058A000E5082406F8ED3400F9880A890B8882F5AA
:1058B0008312592712092A8A108B11E50E65107080
:1058C00004E50F65116042780E121B1E850A828561
:1058D0000B8312592712093074021218CAE9F50D08
:1058E0007027780E121B1E850882850983A3A312D8
:1058F000592512094874021218CA800D750D80804E
:1059000008750D0D8003750D0BA90D024FBE8E821B
:105910008F8312591622E0F8A3E0F9221259168853
:10592000828983E022A3A3E0FCA3E0FDEEFAEFFB73
:105930002274E812190B74E71218B48518828519BD
:1059400083EAF0A3EBF08C168D17890E75080075AD
:10595000090074311218FFE0F512A3E0F513743357
:105960001218FFE0F514A3E0F51574351218FFE0E6
:10597000F50FE50975F003A4F8A9F08518828519DB
:1059800083125A9BE0F47003A3E0F47003025A7E82
:10599000EE2402F50CEF125A91E07003025A7E8554
:1059A000160A85170B780A121B1EAC14AD15AA1225
:1059B000AB131208B274021218CA8A0A8B0BEA459A
:1059C0000B7003025A7EE4F510F5117810121B1EBD
:1059D00074061218FF8582108583117810121B1E21
:1059E00074091218FF8582108583117810121B1E0E
:1059F000851282851383A3A3A3A3121B357914AC4C
:105A00000AAD0B8E828F83124E5F12090C7408123E
:105A100018CAE97069850A82850B83A3A3A3A31220
:105A2000591274021218FF1250CD850C82850D8315
:105A3000E0A2E05018A90E74021218FFAC82AD83E8
:105A40008E828F83124E5F120804E94208850C8211
:105A5000850D83E0A2E15026E50FF50A780A121BB6
:105A600022A90E74031218FFAC82AD838E828F833D
:105A7000124E5F1207FE74011218CAE942080509A6
:105A8000E509C394025003025972A908741902551A
:105A9000F83400F50D850C82F58322E028FEA3E0A2
:105AA00039FF8E828F832274F212190BEAFEEBFF0C
:105AB000890B7401650B600E7402650B706A7901C5
:105AC000120B0AE97062EEFAEFFB1208F48A088BF7
:105AD00009EA45096047750A00800B7C177D00794B
:105AE0000012113A050A9002E6E0F8E50AC3985060
:105AF00021E50A75F017A4F8A9F0850882850983C5
:105B0000A3A3E028FAA3E039FB8A828B831243C760
:105B100070C985088285098374FFF0A3F07C197D24
:105B200003EEFAEFFB12092402584374F212190B28
