:020000040000FA
:0600000002010A0222D0F9
:03002B0002274564
:030033000227277A
:03003B0002276633
:030043000226DBB7
:030053000223463F
:03006B0002270168
:1000830002217FE5C754F84401F5C7790122000036
:100093000080FB120086B900030200F4E4792178A2
:1000A30008B800028004F709D8FCE479297802B87B
:1000B30000028004F709D8FCE49002817834790CBB
:1000C3008002F0A3D8FCD9FA900DB4AA82AB839036
:1000D300013A780779058015E493A3AC82AD838A4E
:1000E300828B83F0A3AA82AB838C828D83D8E9D9D8
:1000F300E775820D7583C1740312011C75829175B6
:100103008300740012011C75D00075813F7518813E
:10011300751902759F00020096C09FF59FE473D086
:100123009F22D083D082C09FE493C0E0740193C028
:10013300E0740293F59F22FF0000B400002800281A
:1001430000283075A000A000A000A000000800084F
:10015300E001F0001000100010001000100010006B
:1001630050005000500010001000D00700000000A5
:1001730000000F00010005003075070010000100AA
:1001830081FF00000000FF3E075C074407FF0202F7
:100193000208025000A0000000E80302AB90010037
:1001A30000949002B3900100000B0E029F90010097
:1001B30000B30202B3900100000C0E029D900100F7
:1001C30000C90202B3900100000D0E02A5900100C8
:1001D30000CB0202B3900100000E0E02C59008008E
:1001E30000CC0202B3900100000F0E02B190010097
:1001F30000100EFF0100FF2002AB9001000097905A
:1002030002B390010000740E02AF900000000000E2
:1002130002A19003000019036E0D6E0D6E0D6E0D9D
:100223006E0D6E0D6E0D6E0D6E0D6E0D6E0D6E0DF3
:100233006E0D44105C103E10FFFF0200E2FF02004F
:10024300E7FF0200F3FF0200F3FFFAFF07000300DA
:10025300F9FFFBFF07000400F7FF07000300090095
:1002630003000A000E0005000D0005000E00020247
:1002730002020202020202010D000000100102ABA1
:10028300900100009A9002B390010000EB0E02C7A8
:10029300900100009B0702B390010000EC0E02C323
:1002A300900100006B8F02B390010000ED0E02C1BC
:1002B300900100005D8F02B390010000EE0E02BFBB
:1002C30090010000B98E02B390010000EF0E02BD51
:1002D30090010000A78E02B390010000F00E02BB54
:1002E30090010000958E02B390010000F10E02B957
:1002F30090010000CB8E02B390010000F20E02B712
:10030300900100004F8F02B390010000F30E02B57D
:1003130090010000F40E01E803053F100AFF0001FD
:100323003075030201060000000000000000000019
:1003330000000000000000000000000000000000BA
:100343000000FFFF0600800CE80384030F0013097D
:100353004F666669636577656C6C20233030303097
:100363006666051208000800020A0002010603027D
:10037300F1FF53696D706C6520424C4520506572E6
:100383006970686572616C8A15000096150A486188
:1003930072647761726520496E666F726D6174690C
:1003A3006F6E000A507265736574204865696768EB
:1003B30074000A506F7374757265204A75646765BB
:1003C3006D656E74000A416374696F6E2052616ECD
:1003D30067650008436F6E74726F6C20436F6D6DB9
:1003E300616E6400125065736B205374617475738E
:1003F300000A4C6F636B2053746174757300025071
:100403006F77657275702054696D657374616D7073
:100413000000104865616C74682044617461000ACF
:100423004175746F6D61746963204D6F7665204407
:10043300617461000002AB90010000B98F02B390B8
:100443000100000A1002CF90030000730D02A39075
:100453000100000B1002B390010000201002D190A4
:10046300030000770D02A390010000211002B39056
:100473000100002F1002D3900300007F0D02A39010
:10048300010000301002B390010000421002D59029
:10049300030000810D02A390010000431002B390FA
:1004A300010000501002D790020000850D02A390B6
:1004B300010000511002B390010000611002D990B5
:1004C300010000860D02A1900300008A0D02A39093
:1004D300010000621002B3900100006E1002DB9075
:1004E300030000900D02A3900100006F1002B3906F
:1004F3000100007B1002DD90010000950D02A39026
:100503000100007C1002B3900100008F1002DF9005
:10051300000000990D02A190030000A90D02A39011
:10052300010000901002B3900100009C1002CB90D8
:10053300030000AF0D02A3900100009D10120125DE
:10054300D8B103120125EFB10312012520B2031222
:1005530001255BB20312012585B203120125AFB257
:1005630003120125C6B203120125DDB203120125D0
:10057300F4B2031201251DB30312012530B3031294
:10058300012546B30312012559B30312012580B394
:100593000312012572B30212012576B4021201255A
:1005A300AEB402120125D1B402120125DCB4021249
:1005B3000125FFB4021201250EB602120125E3B68E
:1005C300021201255EB702120125E6B702120125C8
:1005D30021B80212012558B802120125E6B8021209
:1005E3000125BFB9021201251FBA021201252ABA39
:1005F30002120125A9BA02120125ACBA0212012581
:10060300AFBA021201253EBB0212012541BB021201
:10061300012571BB021201259BBB0212012589BC76
:10062300021201253BBD02120125EA8903120125AD
:10063300128A03120125408A03120125778A0312C5
:100643000125D58A03120125208B031201256B8B0B
:1006530003120125AB8B03120125F18B0312012534
:100663001F8C03120125DC8C03120125E68C031277
:100673000125F38C03120125268D03120125F28D2A
:1006830003120125FE8D03120125168E0312012587
:10069300208E031201256FBC031201257DBC0312BA
:1006A300012595BC03120125ADBC0312012502D619
:1006B30001120125AED60112012529D70112012508
:1006C3004AD80112012586D8011201252FD901121A
:1006D300012516DA011201257ADB01120125D1DB8E
:1006E3000112012552DC0112012542DD011201250F
:1006F3008FDD0112012515DE0112012547DE0112EE
:1007030001255BE0011201259DE001120125BBE0FB
:10071300011201253EE10112012512E20112012518
:10072300DAE20112012514E902120125E7E90212B6
:10073300012590EA02120125E3EA0212012593EB57
:10074300021201251FEC021201250BED02120125F5
:100753003AED021201254DEE0212012595EE021229
:1007630001256AEF02120125A6EF02120125C2EF4D
:1007730002120125D4BF03120125EFFB021201254A
:1007830005FC021201252BFC0212012547FD021272
:10079300012551FD0212012586FE021201257EFF6D
:1007A3000212012500800312012530810312012565
:1007B300638103120125AD810312012574830312A2
:1007C300012513C6011201257DC601120125DCC7CF
:1007D30001120125ECC70112012519C801120125D7
:1007E30070C80112012519C90112012520CA01127D
:1007F3000125EACA011201254ACC011201258DCC3B
:100803000112012532CD011201257FCD01120125EF
:10081300A5CD01120125B3CF01120125B8CF0112D5
:100823000125BDD1011201250AD2011201257DD274
:1008330001120125B0D20112012552D30112012563
:10084300FBD30112012533D40112012536D4011241
:1008530001257ED401120125BED40112012515D52F
:10086300011201253DA50312012555A503120125FA
:100873009DA503120125B3A503120125FAA50312B1
:1008830001250EA7031201259BA703120125E6A745
:10089300031201259E4200120125AA4200120125DE
:1008A300E542001201252A4300120125EA43001202
:1008B3000125704400120125D5440012012501458C
:1008C300001201253A45001201257847001201253F
:1008D3005C4900120125424B00120125854C001290
:1008E3000125D34E00120125E54F00120125305199
:1008F300001201254052001201255D52001201250C
:10090300985200120125BA52001201251D530012FC
:100913000125DE5700120125735800120125C45822
:1009230000120125EB58001201253D590012012543
:100933005B5900120125B559001201259E5A001278
:100943000125145C00120125985C00120125A78E75
:1009530003120125B18E03120125F48E0312012522
:100963000F8F031201259F8F03120125C78F0312D7
:1009730001250490031201253B9003120125649085
:1009830003120125D99003120125EE9003120125CC
:100993000391031201253491031201254891031297
:1009A30001256D9103120125A79103120125D3910E
:1009B300031201255F92031201258A920312012576
:1009C300D39203120125FD920312012528930312EA
:1009D300012553B8031201252E9C021201255C9CAC
:1009E30002120125AA9D021201258A9E02120125E7
:1009F300A99E02120125269F02120125699F021258
:100A03000125BFA00212012580A10212012507A41E
:100A130002120125A8A4021201259EA50212012596
:100A23009BA602120125F5A70212012580A8021236
:100A330001258DFE01120125F6FE011201254AFF53
:100A43000112012571FF01120125A2FF01120125E7
:100A5300509303120125BD9303120125049403123D
:100A630001251C9503120125189603120125FB96F7
:100A730003120125EFD00212012531D10212012503
:100A830003D202120125DCD202120125D6D30212AF
:100A93000125B8D40212012521D502120125D7D58B
:100AA300021201254BD602120125B7D602120125E7
:100AB300E0D6021201255AD702120125F3D70212FA
:100AC300012558D8021201256DD802120125B3D889
:100AD30002120125CCD80212012531D902120125B7
:100AE30034D90212012544A2031201256CA2031278
:100AF3000125AAA20312012568A303120125CFA38E
:100B030003120125EBA30312012513A403120125EC
:100B130043A40312012552A403120125CFA40312F7
:100B23000125F5A4031201250BB601120125A9B76E
:100B330001120125C4B90112012500BA01120125D0
:100B43002DBA0112012512BB0112012559BB011255
:100B530001259DBB01120125AFBB01120125EFBB8E
:100B6300011201251CBC0112012567BC01120125DC
:100B7300A7BC01120125D5BC0112012527BD011215
:100B83000125B7BD0112012555C0011201256BC214
:100B930001120125A9C2011201253AC4011201253E
:100BA3007FC401120125F6C40112012540C50112BB
:100BB3000125E8C50112012576C702120125F5C7F3
:100BC30002120125B7CD02120125C6CE021201255C
:100BD3002ED002120125C5D002120125E590011283
:100BE30001252E91011201255B91011201258E91A0
:100BF300011201259B9101120125A79101120125E3
:100C0300B99101120125A09201120125FE92011250
:100C13000125339301120125769401120125C39412
:100C230001120125E79401120125549501120125B2
:100C3300129601120125CB96011201253897011254
:100C43000125EA9701120125FA97011201258198DE
:100C5300011201254099011201256D990112012507
:100C6300E69901120125439A011201258D9A011279
:100C73000125239B01120125EE9B01120125A39C53
:100C830001120125189D01120125799D01120125EB
:100C9300E39D011201251C9E01120125BE9E011236
:100CA3000125CE9F011201250EA0011201252BA0C3
:100CB300011201254AA00112012591A0011201256B
:100CC300B6A001120125E3A0011201255DA10112C5
:100CD30001259EA101120125C2A20112012572A3C1
:100CE30001120125C9A30112012533A40112012513
:100CF3004CA401120125ACBD02120125FFBD021255
:100D030001250BBE02120125E0BE0212012507BF19
:100D13000212012542BF02120125AEBF02120125B4
:100D2300EABF0212012523C0021201253BC00212B1
:100D3300012590C002120125A9C002120125F2C0AB
:100D43000212012505C1021201251FC1021201254C
:100D530035C10212012568C202120125AFC3021276
:100D63000125B1C402120125ABC502120125F87F8A
:100D730000120125957200120125C572001201258A
:100D83008D7600120125E47700120125AD7800125B
:100D930001252D7A00120125FE7A001201253B7BE5
:100DA300001201255E7B001201259C7B00120125A8
:100DB300A57B00120125EF7B00120125F97B0012B0
:100DC3000125A37C001201257C7D00120125D07D25
:100DD30000120125327E00120125857E00120125B5
:100DE300B47E00120125F17E001201257EA40112BA
:100DF3000125E5A701120125EBA7011201256DAD20
:100E030001120125E6B101120125BCB5011201252C
:100E1300E59B031201255B9C03120125719C0312C0
:100E23000125B29C03120125EC9C03120125659D4B
:100E330003120125A09D03120125139E0312012510
:100E4300519E031201255A9E03120125669E031229
:100E53000125829E03120125AD9E03120125C39E27
:100E630003120125079F031201252785031201257C
:100E73003A85031201255485031201257D8503124A
:100E83000125C08503120125FF85031201253D8637
:100E930003120125A28603120125B7860312012539
:100EA300C28603120125CF8603120125E6860312AB
:100EB3000125F48603120125FF86031201250B8702
:100EC300031201251E870312012529870312012519
:100ED3004C8703120125F3870312012503880312AC
:100EE30001251D88031201253A880312012556881E
:100EF300031201257B88031201258688031201252D
:100F03009B8803120125AF88031201251089031260
:100F130001251689031201251C8903120125228943
:100F2300031201253A89031201256D890312012554
:100F330005800212012589800212012538810212DF
:100F43000125978202120125B88402120125A48586
:100F530002120125D98502120125FB850212012502
:100F6300AA8602120125A28802120125CB88021249
:100F730001255D89021201258F89021201259C89B1
:100F830002120125F38902120125198A0212012591
:100F9300868C02120125898D02120125E18D021230
:100FA3000125F3E401120125FDE501120125E4E623
:100FB30001120125EEE60112012510E701120125B8
:100FC3001CE701120125B5E801120125E4E801122D
:100FD300012500EA0112012559EA01120125BFEB9F
:100FE300011201259EEC01120125FAEC01120125E3
:100FF30067ED01120125A2ED01120125E1ED0112B8
:1010030001259AF001120125B4F00112012540F1E6
:10101300011201254EF101120125A7F1011201254B
:10102300B5F10112012528F2011201258CF20112FA
:101033000125D6F2011201255FF30112012581F387
:1010430001120125A7F501120125BCF801120125A2
:10105300D4F90112012587FA0112012569FB011256
:10106300012592B303120125B7B30312012529B455
:10107300031201259AE102120125A3E102120125BF
:10108300ACE10212012583E20212012534E40212CB
:1010930001256AE402120125A4E402120125DAE41F
:1010A3000212012514E50212012548E50212012569
:1010B30074E502120125BDE502120125F7E50212CE
:1010C300012540E60212012598E602120125CDE62C
:1010D3000212012528E70212012562E70212012507
:1010E300B3E702120125E9E70212012523E8021200
:1010F300012551E80212012574E802120125FCBD05
:101103000312012528BE0312012583BE0312012504
:101113008DBE031201259DBE031201256EF6021238
:10112300012578F602120125B6F602120125FFF613
:101133000212012539F70212012593F70212012544
:10114300B4F702120125BDF7021201250AF80212B3
:10115300012533F8021201253DF802120125A9F8F1
:10116300021201253BF90212012585F9021201251C
:10117300BBF90212012547FA0212012588FA02126D
:101183000125BFFA02120125D1FA02120125F0FA54
:1011930002120125F9FA02120125C1FB02120125EF
:1011A3006CB90312012563BA03120125E7AF0312D9
:1011B30001251DB00312012553B0031201259EB171
:1011C3000312012588FF021201259EFF0212012549
:1011D300A8FF0212012558C003120125BD9703126F
:1011E3000125D29703120125859803120125C5987D
:1011F30003120125DE980312012519990312012513
:10120300669903120125989903120125DA990312AD
:10121300012578BB03120125A1BB03120125D0BB15
:1012230003120125E8BB031201252ABC0312012581
:10123300D827001201252A2800120125D7280012D9
:101243000125D02900120125782A001201257B2BC4
:1012530000120125532C00120125722C00120125C6
:101263000A2D001201250E2E001201251E2E00123A
:101273000125762E00120125AA2F00120125003424
:10128300001201259D34001201256235001201254B
:10129300BC3500120125F235001201257636001205
:1012A3000125023700120125723700120125D937B3
:1012B30000120125F137001201251E380012012505
:1012C3004838001201255B3900120125863B0012C4
:1012D3000125363E00120125843F001201259C4062
:1012E300001201254B410012012580410012012506
:1012F30074420012012510A80312012535A8031218
:1013030001255FA803120125B7C003120125FF5C65
:1013130000120125645F00120125056100120125F9
:10132300B961001201254C6200120125D16200123D
:101333000125F662001201254C6600120125D266D2
:10134300001201250568001201253F6800120125DE
:10135300746800120125346A00120125916A001293
:101363000125DA6A00120125456B00120125B66BCF
:1013730000120125E86B00120125006C0012012503
:10138300496D00120125596D00120125746E00127A
:101393000125966E00120125CC6E00120125807086
:1013A300001201250D71001201254C710012012557
:1013B30070720012012546BD0312012557BD0312A9
:1013C300012560C1031201259FC103120125E8FF16
:1013D30001120125A7BE03120125B7BE0312012581
:1013E300CFBE0312012535BF0312012574BA0312C0
:1013F3000125F9BA031201255FBB03120125D9B6F2
:101403000312012502B7031201256DB7031201254B
:10141300BEB70312012519B803120125DCAA031272
:101423000125F1AA031201250DAC0312012581AC9C
:10143300031201259BAC03120125B2AC0312012553
:10144300C5AC03120125DFAC03120125F6AC031270
:1014530001251CAD031201256DAD03120125C7C182
:1014630003120125379F03120125C79F031201258C
:1014730037A003120125C8A003120125D1A003122E
:1014830001254FA10312012562A103120125CEA15B
:10149300031201252EA20312012541A203120125E5
:1014A3003FBF03120125AEBF03120125B9BF0312CB
:1014B3000125C9BF0312012537B50312012589B5DB
:1014C3000312012513B6031201257AB6031201256F
:1014D300A2AD03120125CCAD031201259AAE03126E
:1014E300012575AF0312012558D9021201251FDA10
:1014F3000212012556DA0212012580DA02120125B1
:10150300E0DA0212012536DB021201259BDB02120F
:10151300012533DC0212012542DD02120125D9DE49
:101523000212012566DF02120125CDDF0212012519
:10153300E4DF02120125FEE0021201253CE1021262
:1015430001252F8E02120125B09102120125389335
:10155300021201258F9302120125AE930212012577
:101563002C9402120125C29502120125A79602129C
:101573000125B59A021201258B9B0212012501A9AF
:101583000212012594AC0212012567AD0212012556
:101593009BAE0212012551B102120125D7B20212EC
:1015A30001255EB30212012537F00212012587F0EF
:1015B30002120125A4F0021201253BF202120125B9
:1015C300D7F202120125D3F30212012535F60212D6
:1015D3000125CC7F00120125A9C103E06670100824
:1015E300A3E066700A08A3E066700408A3E066221D
:1015F300C3E7960809E7960809E7960809E79622DC
:10160300C3E09608A3E09608A3E09608A3E0962219
:10161300C008C3E096F50808A3E096420808A3E0D3
:1016230096420808A3E09645087001D3D008220823
:101633000808E630E7111217AB12164A080808C665
:101643004480C618181822181818E9799EC608CAC3
:10165300C608CBC608CCC6C370207996CACBCC705B
:1016630019798ECBCC70137986CC700EF9802ACA87
:1016730033CACB33CBCC33CC331930E7F2CCCBCA20
:101683003350147004EA30E00DE4CA3ACACB3BCBC2
:10169300CC3CCC500209C3E913C6CC182313C6CBE8
:1016A30018C6CA18C6F922E6C333184618461846A0
:1016B30022E7C33319471947194722E6084608C3E7
:1016C300134608336002E633F422E7094709C313DC
:1016D3004709336002E733F4221216BE601C121668
:1016E300CD60171216AA70071216B47001D322C068
:1016F300D01216B47006D0D0B322C32233D0D05048
:101703001430E0F6C3E7960809E7960809E7960858
:1017130009E796B32220E0D5E6970809E69708097A
:10172300E6970809E697B322080808EAC0E0EBC089
:10173300E086F0E7A4FA180986F0E7A42AFA180964
:1017430086F0E7A42AFA180986F0E7A42AFA19868C
:10175300F0E7A4FBE5F02AFA190886F0E7A42BFBCF
:10176300E5F03AFA190886F0E7A42BFBE5F03AFA1C
:1017730018180986F0E7A4C5F02BFBE43AFA190818
:10178300E7C5F0C6A426F6E5F03BFBE43AFA188673
:10179300F0E7A4F6E5F00826F6E43B08F6E43A0899
:1017A300F6D0E0FBD0E0FA22181818E4C396F60846
:1017B300E496F608E496F608E496F622601608081E
:1017C30008C6C313C618C613C618C613C618C6134D
:1017D300C6D5E0EA2270090808082260161818180E
:1017E300C6C333C608C633C608C633C608C633C61F
:1017F300D5E0EA22E627F60809E637F60809E637D0
:10180300F60809E637F622E026F608A3E036F608DE
:10181300A3E036F608A3E036F622E026F008A3E0BC
:1018230036F008A3E036F008A3E036F022C3E697CB
:10183300F60809E697F60809E697F60809E697F623
:1018430022C3E096F008A3E096F008A3E096F00820
:10185300A3E096F022E056F608A3E056F608A3E0CC
:1018630056F608A3E056F622E056F008A3E056F039
:1018730008A3E056F008A3E056F022E647F608096D
:10188300E647F60809E647F60809E647F622E0F6D2
:1018930008A3E0F608A3E0F608A3E0F622E6F008C2
:1018A300A3E6F008A3E6F008A3E6F022E0FAA3E03B
:1018B300FBA3E0FCA3E0FD22EAF0A3EBF0A3ECF032
:1018C300A3EDF022CAC0E0E6F0A308DAFAD0E0FA0A
:1018D30022CAC0E0E0A3C582CCC582C583CDC5833F
:1018E300F0A3C582CCC582C583CDC583DAE6D0E03B
:1018F300CA22C3E498F8E499F91219368026C3E49E
:101903009AFAE49BFBE920E7E9121936E498F8E434
:1019130099F922C3E498F8E499F9121936E498F88E
:10192300E499F9C3E49AFAE49BFB22EB20E7CFE9BD
:1019330020E7E0B90010BB0008E88AF084F8AAF0B9
:1019430022E4FBC8FA22EB70227B10C833C8C933E8
:10195300C9335007C39AC3DBF280069A50012ADBCE
:10196300EAC833F4C8C933F4C9FA2275F008E4C8E5
:1019730033C8C933C933C99AC99B5004C92AC93B5F
:10198300D5F0ECFBC833F4C8E4C9FA22600D08C6ED
:10199300A2E713C618C613C6D5E0F322600C08C627
:1019A300C313C618C613C6D5E0F422700422600D13
:1019B30018C6C333C608C633C6D5E0F418222518A3
:1019C30010AF08F518400215198008F518400215E4
:1019D30019D2AF22C0D0251810AF08F51850020550
:1019E300198008F51850020519D2AFD0D022251856
:1019F300F58210AF08F518400215198008F5184054
:101A0300021519D2AF851983222518F582E43519F9
:101A1300F58322E4732518C582C0E0E51934FFC5B8
:101A230083C0E0E518C3958224F810AF08858319B5
:101A33008582188008858319858218D2AFCEF0A3DA
:101A4300E520F0A37808E608F0A3DEFAEFF0A3E5BB
:101A53008124FAF8E608F0A3E608F0A3E608F0A369
:101A63000808E608F0A3E608F0A315811581D0E085
:101A7300FED0E0F8158115811581E8C0E0EEC0E0E5
:101A8300222518C582C0E0E51934FFC583C0E0E50F
:101A930018C3958224F910AF0885831985821880AD
:101AA30008858319858218D2AFCEF0A3E520F0A371
:101AB3007808E608F0A3DEFAEFF0A3E58124FBF84B
:101AC300E608F0A3E608F0A30808E608F0A3E60892
:101AD300F0A315811581D0E0FED0E0F815811581C2
:101AE300E8C0E0EEC0E022851983851882E0A3FEFA
:101AF300E0A3F5207808E0A3F608DFFAE0A3FFE00F
:101B0300A3C0E0E0A3C0E0E0A3C0E0E0A3C0E0E046
:101B1300A3C0E010AF0885821885831980088582E9
:101B230018858319D2AFD083D0820201228519830D
:101B3300851882E0A3FEE0A3F5207808E0A3F60869
:101B4300DFFAE0A3FFE0A3C0E0E0A3C0E0E0A3C0AE
:101B5300E0E0A3C0E010AF088582188583198008F0
:101B6300858218858319D2AFD083D08222C0D02535
:101B730018C582C0E0E51934FFC583C0E0E518C38A
:101B8300958224F310AF0885831985821880088510
:101B93008319858218D2AFC8F0A3E9F0A3EAF0A3B2
:101BA300EBF0A37908E709F0A3D8FAECF0A3EDF082
:101BB300A3EEF0A3EFF0A3D0E0F0A3D0E0F0A3D026
:101BC300E0F0A3E520F0A3E5F0F0A32285198385D7
:101BD3001882E0C0E0A3E0F9A3E0FAA3E0FBA37856
:101BE30008E0F608A3DFFAE0FCA3E0FDA3E0FEA310
:101BF300E0FFA3E0C0E0A3E0C0E0A3E0F5D0A3E0F2
:101C0300F520A3E0A3F5F010AF08858319858218AA
:101C13008008858319858218D2AFD082D083D0E023
:101C2300F8D0E03274048006740280027401C0E0CC
:101C3300F4041219F1D0E01218C72274048004745A
:101C4300028000CCC0E0EDC0E0E518C39CCCAD1928
:101C530050011D10AF068C188D1980068C188D1934
:101C6300D2AF1218D4D0E0FDD0E0FC22D083D082D2
:101C7300E9C0E0E493A3C386F0C5F095F0F908E466
:101C830093A386F0C5F095F0700BE493A3C399403A
:101C930005E9048002A3E475F002A42582F582E538
:101CA300F03583F583D0E0F9E493A3C0E0E493C077
:101CB300E022D083D082ECC0E0EDC0E0E493A3FC4B
:101CC300E493A3FDED4C600D121D01EC24FFFCED2C
:101CD30034FFFD80EFE493A3FCE493A3FDED4C609C
:101CE3000D121D40EC24FFFCED34FFFD80EFD0E02E
:101CF300FDD0E0FCE493A3C0E0E493C0E022C0E0A5
:101D0300C3E49396087401939618400FE4936670A6
:101D13000808740193661870007019A3A3C3E493B1
:101D230096087401939618A3A3400DD0E0D0E0D099
:101D3300E0021CF1A3A3A3A3A3A3D0E022C0E0C0AD
:101D4300F088F0E4936670080874019366187000D5
:101D5300A8F0A3A3700BD0F0D0E0D0E0D0E0021C39
:081D6300F1A3A3D0F0D0E022AF
:101D6C0074F5121A84EAFEEBFFEE2434F8EF34001B
:101D7C00F988088909EE2435121E98F8EE243712DA
:101D8C001E98F50AEC850AF0A4FCAAF0850AF0ED81
:101D9C00A42AFDE82CF8E43DF97A257B00121936CB
:101DAC00EA850882850983F074075AF87401B80033
:101DBC00028004C333D8FCFBEA131313541FF8EE50
:101DCC0028F8EF3400F9E8245DF582E9121E9B5BDC
:101DDC006003EA801CEE2436121E98F5F0EA84A803
:101DEC00F0EE28F8EF3400F9E82438F582E9121EF9
:101DFC009BF97F04021B3074F5121A84EAFEEBFF88
:101E0C00EE2434121E98C0E0EE2435F582EF340037
:101E1C00F583D0E0F08E828F83A3A3A3A3A3E0FA73
:101E2C00A3E0FB8E828F83A3A3A3A3A3A3A3E0FCB5
:101E3C00A3E0FDECC39AF50AED9BF50BEE247FF5C0
:101E4C0008EF3400F509850882F583E06401702BF6
:101E5C00EE2480F582EF3400F583121C42121EA191
:101E6C0074021219D7E960137CDC7D04EEFAEFFBE7
:101E7C00120C96850882850983E4F0AC0AAD0BEE52
:101E8C00FAEFFB121D6C1226C7021DFEF582EF3411
:101E9C0000F583E022C082C083851882851983E017
:101EAC00F8A3E0F9C3EA9CEB9D5010C3EC98ED99B4
:101EBC00401BC3EA98EB995014800EC3EA98EB9937
:101ECC004007C3EC98ED994004790180027900D069
:101EDC0083D08222EAC39CFAEB9DFB2274ED121A8A
:101EEC00849003A2E064086005E06407702C9061A4
:101EFC00C8E060269003D0E0F874FF68601CE875B9
:101F0C00F003A4C8AAF02AF974D228FE740339FF8E
:101F1C008E828F83A3A3A3E070057900022088EE44
:101F2C002468F510EF3400F511906060E0851082A4
:101F3C00851183F0750A45750B0575080075090048
:101F4C00E5D914F50EE5D95403F50F601CEE248287
:101F5C00F50CEF3400F50D7403650F6058E50E6059
:101F6C0013EE2467121E98700B793DEEFAEFFB12FC
:101F7C000CBA80A6900540E064016026850C828531
:101F8C000D83E06004780480027800850E08E50873
:101F9C00C398FA95E0FB120B3A8A088B09EA4509BB
:101FAC007006120F12021F26850C82850D83E070BD
:101FBC00048A0A8B0B78008016E5D9C0E08812E5FC
:101FCC000A2512F582E50B3400F583D0E0F008E821
:101FDC00C3950E40E4850C82850D83E0602874FC6B
:101FEC00250EF50E780A121C2BAC0EA90FEEFAEF8B
:101FFC00FB120D6874021219D7E9700AAA08AB0912
:10200C001214BE021F757403650F6058850E0C7593
:10201C000D00780C121C2BAC0AAD0BAA08AB0912E4
:10202C000D2C74021219D7851082851183E0F87477
:10203C0080687005750C7F8002880CE50CF50A78B9
:10204C000A121C2FE50FF50A780A121C2FA90EACE8
:10205C0008AD099003D0E0FA7B001209D274021289
:10206C0019D780139003A2E06408600BAC0AAD0B87
:10207C00EEFAEFFB120DFE120F1E79017F0C021B04
:10208C003074F3121A8474FC1219C1EAFEEBFF8946
:10209C0008A2AFE433F509C2AFEE2463F50AEF34BE
:1020AC0000F50B8010AA0AAB0B120CE41214BE90B4
:1020BC0004E3E004F0850A82850B83E0F8A3E0F9E1
:1020CC00E849602FE82402FAE93400FBEA2402F51F
:1020DC000CEB3400F50D780C121C2B8A828B83E0F0
:1020EC00FCA3E0F9EEFAEFFB120CD874021219D72C
:1020FC00E960B29004E3E060579004E4E0F89004E7
:10210C00E3E0C398500C7402650870449004E5E059
:10211C00603E8E828F83A3A3A3A3E08518828519CA
:10212C008312216C7402121A0CE812216C9004E2D6
:10213C00E028F07402121A0CAC82AD8385188285EB
:10214C001983AA82AB8379011209DE9004E3E4F0CF
:10215C00E509A2E092AF74041219D77F06021B3076
:10216C00F0A3E4F09004E3E0F822000085218785D9
:10217C0022C622C0E074EF121B70A2AFE433FEC281
:10218C00AF759B00906182E0A2E05012E591A2E055
:10219C00500C7591FE740165217003121EE8E0A2CB
:1021AC00E55051E591A2E5504B7591DF9003A2E00B
:1021BC0064076005E064087023740165217035794B
:1021CC00019003D0E0FA75F003A4CAA8F028FB74C0
:1021DC00D22AFA74033BFB12208D8018E0640D7038
:1021EC00139003C4E004F064287002E4F07A00E079
:1021FC00F9120F24906182E0A2E640030222A6E5C8
:10220C0091A2E640030222A67591BF9003A2E0645E
:10221C00057008120E40120E4C8003120E467521EA
:10222C0000120EB2E99003A3F07900120EA6120C64
:10223C00007A017B009003A1E0F9121176907803EB
:10224C00E064427055900544E014F0704DC2AF123A
:10225C00225E00782AD0E0F618D0E0F6E59F54070D
:10226C0070057509FF800375097FC4C0E07829E605
:10227C00F50808E65509F509740B780812199FD072
:10228C00E02508F8906270E0A2E740F8E8C33390CC
:10229C006272F0906270E0D2E0F0906181E0A2E3B3
:1022AC005009E5E9A2E3500375E9F7A3E0A2E75072
:1022BC0009E591A2E7500375917FEEA2E092AF7F02
:1022CC0004021BCFC0E0C0D0C082C083906183E009
:1022DC00A2E05009E5BFA2E0500375BFFEE0A2E109
:1022EC005009E5BFA2E1500375BFFDE0A2E2500921
:1022FC00E5BFA2E2500375BFFBE0A2E35009E5BFC6
:10230C00A2E3500375BFF7E0A2E45009E5BFA2E4D5
:10231C00500375BFEFE0A2E55009E5BFA2E55003FD
:10232C0075BFDFE0A2E65009E5BFA2E6500375BF1A
:10233C00BFD083D082D0D0D0E032C0E074F2121B78
:10234C0070E5A7A2E4500FE5A1A2E4500953A7EF52
:10235C0075A1EF12239AE5A7A2E5500CE5A1A2E521
:10236C00500653A7DF75A1DFE5A7A2E15009E5A14F
:10237C00A2E1500375A1FDE5A7A2E2500CE5A1A2D4
:10238C00E2500653A7FB75A1FB7F01021BCF74F82B
:10239C00121A847521019003A2E0640670077A007A
:1023AC007B00120E28A2AFE433FED2AF9003A8E05C
:1023BC00640170187A207B009003A1E0F9121200DE
:1023CC007A207B009003A1E0F912117C906182E0ED
:1023DC00D2E6F0900541E0602185C622801690037C
:1023EC00A7E064017008E5C654F84405F5C653BE71
:1023FC00FC1221787401652160E4EEA2E092AF7FBB
:10240C0001021B308E238F24858228858327851813
:10241C0082851983E0CEA3E0CF852882852783EBC4
:10242C00C9EAC8EDCBECCA75F010C3E833C8E93380
:10243C00C9EA33CAEB33CBC3EA9EF526EB9FF525ED
:10244C00B35004AB25AA26EC33CCED33CDD5F0DA62
:10245C00AE23AF242274F1121A848A088B098C0AD9
:10246C008D0B90904C7808121858740F121A0C7827
:10247C000C12189190904C780C1218587808790C12
:10248C001215F390903850107808790C1218307897
:10249C00081216134014800E780C79081218307834
:1024AC000C12161350047901800279007F08021B6C
:1024BC003074ED121A848A088B098C0A8D0B90905B
:1024CC004C78081218587413121A0C780C121891B4
:1024DC0090904C780C121858780C79081215F3401F
:1024EC00117808790C121830AA08AB09AC0AAD0B9C
:1024FC00802275100075110075120075130178108B
:10250C00790C121830781079081217F7AA10AB1141
:10251C00AC12AD137F0C021B3090904C7808121843
:10252C00918A828B83780812186B7F04021B30749B
:10253C00F5121A848C828D8378081218918A828BFA
:10254C0083780812184412258FC3E098F0A3E09901
:10255C00122581401E90904078081218918A828B27
:10256C0083780812181D8E828F83E02420F0A3E05C
:10257C00344EF080A4F08E828F83C3E09420A3E0CD
:10258C00944E22EA2404F8EB3400F9E8FEE9FF8CBF
:10259C00828D83A3A3A3A3E0F8A3E0F98E828F839B
:1025AC002274F5121A84E9FE9004F7E0FAA3E0FB1A
:1025BC00EEC333F8E433F9741028F582748F39F5CF
:1025CC0083E02AF508A3E03BF5097808121C2B9050
:1025DC0090681218AF12241074021219D78A088B43
:1025EC00098C0A8D0B741078081217BFAA08AB0956
:1025FC007F04021B3074F1121A848A0C8B0D8C0E22
:10260C008D0F740F121A0CE0FAA3E0FB7411121A5E
:10261C000CE0F508A3E0F5097808121C2BEA24015C
:10262C00F508EB3400F509E4F50AF50B780C79089C
:10263C0012172B9090307808121891780C79081298
:10264C00172BAA0CAB0DAC0EAD0F1224107402128A
:10265C0019D78B09EA450960047A0180027A00ECEB
:10266C002AFCED3400FD7413121A0CE0F8A3E0F907
:10267C00E8FEE9FFECF8EDF97A717B021219368865
:10268C00088909E4F50AF50B8E828F8378081218F5
:10269C00A0ECF8EDF97A717B021219368A088B09D5
:1026AC00740578081219AE8E828F83A3A3A3A3E5B9
:1026BC0008F0A3E509F07F08021B30C082C083E953
:1026CC00906000F0D083D08222C2AF02000022C002
:1026DC00E074F2121B70A2AFE433FED2AFC2C0E5BD
:1026EC00D1A2E4500653D1EF12149AEEA2E092AFAD
:1026FC007F01021BCFC0E074F2121B70A2AFE43357
:10270C00FED2AFE589A2E15003121416758900C2FE
:10271C00C5EEA2E092AF7F01021BCFC0E074F212B3
:10272C001B70A2AFE433FED2AFE58BA2E0500312D4
:10273C001416758B00C2E880D8C0E0C0D0E8C0E0A9
:10274C00E9C0E0E5A8D2AFC2C7A2E7A2E792AFD03A
:10275C00E0F9D0E0F8D0D0D0E032C0E0C0D0E8C092
:10276C00E0E9C0E0C008C009C082C083A2AFE43376
:10277C00F9D2AF90089DE0F8A3E0687008539AFB7B
:10278C00A374018026C2E990089DE0F50874012528
:10279C0008F074992508F58274083400F583E0F587
:1027AC00C190089DE0C394044002E4F0E9A2E092D9
:1027BC00AFD083D082D009D008D0E0F9D0E0F8D0E7
:1027CC00D0D0E032FFFFFFFFFFFFFFFFC082C083CE
:1027DC0090075FE0F8E94A6890075D603C7403F08D
:1027EC007410697013EAC333FCE433FD74682CF580
:1027FC008274073DF5838015E9702074016A7005B9
:10280C0090095B800874026A701190095D12409601
:10281C00900762ECF0A3ED8001E4F00237D274F083
:10282C00121A1874FE1219C18A088B097E007F00D7
:10283C00EEF8EFF97A027B0012192EE8C333F50E8D
:10284C00E933F50F7468250EF50C7407350FF50D8B
:10285C00850C82F583A385820A85830B8518828576
:10286C001983AC82AD837A02EE248DF9121536E908
:10287C00601B74C2250EF582748F350FF583123BE5
:10288C006B850C82850D83E8F0A3E9801A8518828C
:10289C00851983E0850A82850B83F07401121A0C6A
:1028AC00E0850C82850D83F0E5082EF8E5091235DC
:1028BC0042EE2402FEEF3400FFC3EE9408EF123711
:1028CC006E500302283C7402022E0674F7121A187A
:1028DC0074FE1219C1EAFEEBFF851882851983ACD0
:1028EC0082AD837A027995121536E96045900770AE
:1028FC00E0600C1460142481601B14601F8028900D
:10290C00095B74BDF0A37404803C90095B7403F004
:10291C00A37405803190095B74E0800590095B74A9
:10292C00F5F0A37401801F90095B74FFF0A3743F52
:10293C008014851882851983E0F97401121A0CE051
:10294C0090095BF0A3E912348F7997121536E96080
:10295C0041900770E0600C146010248160171460C3
:10296C001F802790095D74C6800590095D7465F021
:10297C00A37402803190095D7416F0A37401802653
:10298C0090095D74F5F0A3E4801C90095DE4F0A35C
:10299C008014851882851983E0F97401121A0CE0F1
:1029AC0090095DF0A3E9F090095C122FA390095BEC
:1029BC00122E6590095E122E5F90095D122E7174B5
:1029CC000202395374F7121A1874FC1219C1EAFE78
:1029DC00EBFF851882851983AC82AD837A047989E3
:1029EC00121536E9602D9007707401F0900954C3EC
:1029FC00E09458A3E09402500E900764E0640170D8
:102A0C00069007707481F09007717402F0A3E4F0E3
:102A1C00A38028851882851983E0900771F07401D2
:102A2C00121A0CE0900770F07402121A0CE0F97490
:102A3C0003121A0CE0900772F0A3E9F0900770E013
:102A4C00547F900FC9700474148002740FF0A3E4C7
:102A5C00F0900771122FA3900770122E65900773D8
:102A6C00122E5F900772122E7102395174E8121AED
:102A7C0018EAFEEBFF8C0A8D0B7418121A0C7810E6
:102A8C001218918E168F178E088F09EE4F702B7AB5
:102A9C00057B001211B88A088B09AE08AF098E822B
:102AAC008F83A3A3A3A3E4124139A3A3E50AF0A344
:102ABC00E50B124139E4F0A3804EEA2404F514EB43
:102ACC003400F515909040781012180A8514828500
:102ADC001583E0F50CE4F50DF50EF50F7810790C77
:102AEC001215F3502A800488088909850882850903
:102AFC008312394B70F17A057B001211B8122B52EC
:102B0C00851482851583E004F08032880889098554
:102B1C00088285098312394B70F17A057B001211FA
:102B2C00B8122B528E828F83E0FEA3E0FF851482B5
:102B3C0085158312413FAA16AB171211BEEEFAEFA0
:102B4C00FB7F10021AEA8A0C8B0DA80CA90D888247
:102B5C008983A3A3E50AF0A3E50BF088828983E4BB
:102B6C00F0A3F0850882850983E8F0A3E9F02274CC
:102B7C00F4121A1874FC1219C18908900778E065D0
:102B8C00087003022C49851882851983AA82AB83AD
:102B9C00121290900956E0F50A75F005A4F8A9F008
:102BAC00745F28FE740939FFE0C394C950198E82F2
:102BBC008F8312392D1218AF8E828F83A31218BBFC
:102BCC00900956E004806B78007900E8FAE9FBEA9A
:102BDC0075F005A4FAACF075F005EBA42CFB745F52
:102BEC002AFC74093BFD8C828D83A3A3A3A3A3743D
:102BFC00051218D4E8240108E93400F9E50A24FF89
:102C0C00FAE434FFFBC3E89AE99BA2D265D03340C7
:102C1C00BAEE24FBF582EF34FFF58312392D12182E
:102C2C00AFEE24FCF582EF34FFF5831218BB90094C
:102C3C0056E4F0E508900778F07901800279007489
:102C4C00041219D7023F7FC082C083900760C3E093
:102C5C009489A3E094139007604005E4F0A38003EB
:102C6C00123B5B0237D174F7121A188908740F558E
:102C7C0008F874F05508600A24F0603424F060679A
:102C8C00806F900957E07069900958E064026061A8
:102C9C007401F07EF4FFE860121460051460068085
:102CAC00507A0180027A02790080371212AE80418C
:102CBC00900957E0703B900958E064026033E4F0EF
:102CCC007EF47F01E8600B14600C14600D14600E30
:102CDC00801F7A00800A7A0180067A0280027A03C9
:102CEC007910121230800A9009597401F07E007F1D
:102CFC0000E50890075FF0EEFAEFFB02395674F02E
:102D0C00121A18EAFEEBFF909034121C3E90077DCD
:102D1C00123B6B758307758266E0C398FCA3E09940
:102D2C00FD900779123E3012124874041219D79094
:102D3C000779EAF0A3EBF07C007D00900779123B59
:102D4C006B8007E02CFCA3E03DFD88828983E58243
:102D5C002402F8E5833400F9E8FAE9FB12394B8ACE
:102D6C00828B8370DEE02CF508A3E03DF50990071B
:102D7C0064780C12189190077B780C1215DE600C9D
:102D8C009007647C7B7D0774041218D490076478D8
:102D9C000C12189190077F780C1215DE6049900781
:102DAC0083123B6BC3EE98EF99503C9007647C7F89
:102DBC007D0774041218D4900783F0A3F07A04FBF7
:102DCC001211B8900764E08A828B83F09007651229
:102DDC002DFFF0900767122DFFA3F0900766122DC0
:102DEC00FFA3A3F01211BE900783123E19AA08ABE1
:102DFC0009800AE08A828B83A3221219D77F0802EA
:102E0C001AEAC3EA9CEB9D40047902800279010224
:102E1C00012274F6121A187A047B001211B88A086F
:102E2C008B09AE08AF09900764122FA390076512A7
:102E3C002E65900767122E5F900766122E71EEFCBE
:102E4C00EFFD7A0479051215B4EEFAEFFB1211BE00
:102E5C000236F1122E6AA3F022122E6AF022E08EB4
:102E6C00828F83A322124145F02274F6121A187A2B
:102E7C00087B001211B88A088B09AE08AF09121230
:102E8C0036EEFCEFFD7A0879011215B4EEFAEFFB81
:102E9C001211BE7A057B001211B88A088B09AE0894
:102EAC00AF097C4C7D0D7A01799B121536E96005D2
:102EBC00900D4CE4F0900D4C122FA3EEFCEFFD7A2C
:102ECC000579061215B4EEFAEFFB1211BE7A047BEB
:102EDC00001211B88A088B09AE08AF09121242EE23
:102EEC00FCEFFD7A0479001215B4EEFAEFFB121127
:102EFC00BE7A047B001211B88A088B09AE08AF09A0
:102F0C0012123CEEFCEFFD7A0479031215B4EEFAC2
:102F1C00EFFB1211BE7A027B001211B88A088B09E2
:102F2C00AE08AF097CC77D0F7A027999121536E984
:102F3C00601A900770E0A2E7900FC740087484F005
:102F4C00A3740380067462F0A37401F0900FC8128E
:102F5C002FA3900FC7122E65EEFCEFFD7A027902BB
:102F6C001215B4EEFAEFFB1211BE7A057B001211AA
:102F7C00B88A088B09AE08AF091212DEEEFCEFFD21
:102F8C007A05790F1215B4EEFAEFFB1211BE75C962
:102F9C000043C9080236F1E08E828F83F02274EA76
:102FAC00121A188910750A00750B007C007D0079C7
:102FBC00008911E51060351460142481601B1470B5
:102FCC00407512F57513017514F589158017751276
:102FDC0003751305751465801C7512E07513017566
:102FEC001416751501900785740280117512BD7544
:102FFC0013047514C67515029007857404F0A3E4C8
:10300C00F090095AE0F5088909740378081219AE92
:10301C0085080E85090F74C7250EF50C740E350F37
:10302C00F50D74B7250EF50E740E350FF50FEAC3BA
:10303C0033F508EB33F509C3EA940112376D5003ED
:10304C00023183900762E0F514A3E0F515E512C395
:10305C009514F514E5139515F515C3E5149414E5BD
:10306C00159400503009900762E0C39512F50AA33D
:10307C00E09513F50BE50A2414F50AE50B34001260
:10308C003349E5129401E51312376E4006AC12ADCC
:10309C0013800289111233F4EA9512EB9513A2D224
:1030AC0065D0335003023330E50C2402F512E50DE4
:1030BC003400F513E50E2402F582E50F3400F58398
:1030CC00E9A2E04049E510700302327F14601B2432
:1030DC0081603814600302333412337012192E12CB
:1030EC003E2512192E12333D8017EAF8EBF9123EE9
:1030FC003012192E880A890BE508250AF8E50935DE
:10310C000BF98512828513830232A302325D1233CE
:10311C008870030232ED146023248160571460031D
:10312C0002333412335812192E123E2512192E88DE
:10313C000A890BEC250AFAED350B8017ECF8EDF942
:10314C00123E3012192E880E890FE50A250EFAE56B
:10315C000B350FFB851282851383123B6BE8850CB4
:10316C00F0A4F8ACF0850CF0E9A42CF9EA28F8EB03
:10317C00390233250232BDC312376D40030233309E
:10318C00900762E0C39514F512A3E09515F513C3EF
:10319C00E5129414E5139400501B09E51224ECF588
:1031AC000AE51334FF12334912376E5006AC12ADD8
:1031BC0013800289111233F4E49512F512E495137D
:1031CC00F513C3E5129AE5139BA2D265D0335003D5
:1031DC00023330E50E2406F582E50F3400F583E565
:1031EC000E2404F50EE50F3400F50FE9A2E05003B0
:1031FC000232ACE50C2406F8E50D3400F9880A8996
:10320C000BE50C2404F8E50D3400F9880C890DE568
:10321C0010606014601B2481603714600302333427
:10322C0012337012192E123E2512192E12333D80B4
:10323C0017EAF8EBF9123E3012192E880C890DE5BD
:10324C0008250CF8E509350DF9850A82850B838074
:10325C004612337012192EE8FCE9FDECC333FCED79
:10326C0033FD850E82850F83123E3012192E1233D8
:10327C003D801DEAF8EBF9850E82850F83123E30F6
:10328C0012192E880A890BE508250AF8E509350B71
:10329C00F9850C82850D83E028FEA3E03902332DDD
:1032AC00123388603C14603F24816005147079806F
:1032BC0006850E82850F83E0FEA3E0FF12335812C1
:1032CC00192EE8FCE9FDECC333FCED33FDEEFAEF0F
:1032DC00FB12192E880A890BEC250AF8ED350B80A8
:1032EC0023850E82850F83E0FEA3E0FFECF8EDF959
:1032FC00EEFAEFFB12192E880E890FE50A250EF84F
:10330C00E50B350FF9EE850CF0A4FEAAF0850CF058
:10331C00EFA42AFFE82EF8E93FF9E82508FEE93585
:10332C0009FF80047E007F00EEFAEFFB7F0E021A8D
:10333C00EA88088909EC2508F8ED350922F50BEA2D
:10334C00C3950AF512EB950BF513C322EC75F07FC0
:10335C00A4FCA8F075F07FEDA428FDECF8EDF97A4B
:10336C00327B0022EA75F07FA4FAA8F075F07FEBAF
:10337C00A428FBEAF8EBF97A327B0022E511A2E0F3
:10338C00B3E433F50CE50A9AF8E50B9BF9851108C3
:10339C00E88508F0A4F885F0118508F0E9A425115A
:1033AC00F9EAC3950AFAEB950BFBEA850CF0A4FA43
:1033BC0085F008850CF0EBA42508FBE82AF508E954
:1033CC003BF509E50875F003A4F508A8F075F003C2
:1033DC00E509A428F5098C0A8D0BE50AC333F50A17
:1033EC00E50B33F50BE51022900785E0F512A3E011
:1033FC00F513C32274F7121A1874F61219C1E9FEE8
:10340C00EAC333FAEB33FB74682AF874073BF98888
:10341C00828983ECF0A3ED12392F12426DC0E07457
:10342C0001121A0CD0E012348FEEF91215307A001A
:10343C007B00EAF8EBF9E8C333F8E933F9740212CC
:10344C001A0CE58228FCE58339FD746828F87407AA
:10345C0039F988828983A3E08C828D8312426D8C2A
:10346C00828D83A31236F6940412376D40C4740215
:10347C00121A0CAC82AD837A0879011215B4740A55
:10348C00023953F0851882851983AC82AD837A0298
:10349C002274F0121A1874F61219C18A088B097565
:1034AC000E00750F00E50EC333FEE50F33FF746895
:1034BC002EF50C74073FF50D850C82F583A38582E0
:1034CC000A85830BE5082EF582E5093FF583123951
:1034DC004B6028850C82850D8312393785188285BF
:1034EC001983123559C0E07401121A0CD0E0123451
:1034FC008FE50EC333248DF91215307402121A0C99
:10350C00E5822EF8E583123542E50E2401F50EE531
:10351C000F3400F50FC3E50E9404E50F12376E401F
:10352C00847402121A0CAC82AD837A0879011215DC
:10353C00B4740A022E063FF9850A82850B83E08853
:10354C0082898312355988828983A3F022F0850CF5
:10355C0082850D83E02274EC121A188A0C75100007
:10356C007511007512007513007A00850C088B0913
:10357C008C0A8D0BEA33333354F878081217BF904A
:10358C00900078081218587403C39A33333354F8E4
:10359C0078081217D87810790812187E0AEAC394A2
:1035AC000440C8AA10AB11AC12AD137F0C021AEA7E
:1035BC0074F7121A1874FC1219C1EAFEEBFF1211FF
:1035CC00A01211A612128A8518828519831218BBB3
:1035DC00851882851983EEFCEFFDECFAEDFB740483
:1035EC001218D402395174F4121A187A057B00128D
:1035FC0011B88A088B09AE08AF09740C121A0C1298
:10360C002FA378017900C3E498FAE499FB740C12A7
:10361C001A0CE5822AF582E5833BF583A3A3A3A3C9
:10362C00A3E0C0E0EE28F582EF39F583D0E0123745
:10363C00B340D3EEFCEFFD7A0579061215B4EEFA21
:10364C00EFFB1211BE740C121A0CE06018740D1200
:10365C001A0C7808121891E5084509450A450B70B3
:10366C0004790180027900023F7F74F6121A1890D7
:10367C000959E060707A107B001211B88A088B0926
:10368C00AE08AF09900787E075F00FA4F8A9F074A5
:10369C005F28F8740939F9122FA3900787E004F01A
:1036AC007A007B00E82AF582E93BF583E0C0E0EE86
:1036BC002AF582EF3BF583A3D0E01236F6940F1275
:1036CC00376D40E0EEFCEFFD7A1079081215B4EE80
:1036DC00FAEFFB1211BE900787E0C394434006E457
:1036EC00F0900959F07F02021AEAF0EA24010AEB81
:1036FC003400FBC3EA2274F6121A1874FC1219C1B6
:10370C00851882851983AA82AB831212907A047B66
:10371C00001211B88A088B09AE08AF09780079003D
:10372C00851882851983E58228F582E58339F5832E
:10373C00E0C0E0EE28F582EF39F583D0E01237C512
:10374C009404E912376E40D8EEFCEFFD7A04790749
:10375C001215B4EEFAEFFB1211BE74041219D780D5
:10376C0084EB1237BD22C082C0838A828B83E090A7
:10377C000D4CF078017900EA28F582EB39F583E0FD
:10378C00C0E0C3E498FCE499FD74512CF582740DEF
:10379C003DF583D0E01237B340DD7C4C7D0D7A01D2
:1037AC00799B121530801F1237C59405E91237BD6D
:1037BC00229400A2D265D03322F0E8240108E93427
:1037CC0000F9C3E822F0D083D082020122C082C06B
:1037DC0083900958E4F090075DF090075FF0900932
:1037EC0052F0A380E0C082C0838A828B83A3E0F86E
:1037FC00748168600D74016860087480686003E807
:10380C00700BEAFCEBFD7A047989121530121272F6
:10381C0080B474F7121A18EAFEEBFF8E828F83E0E5
:10382C00F9A3E0900FC712393D7999121530EEFCCF
:10383C00EFFD7A0279021215B402395674F7121A96
:10384C001874F81219C1EAFCEBFD8C828D83E0C070
:10385C00E07401121A0CD0E0124267A3E0851882C2
:10386C00851983F0EC2402FEED3400FF8E828F83E9
:10387C00E0C0E07403121A0CD0E0124267A3A3A3B9
:10388C00E0C0E07402121A0CD0E012392F12394B3E
:10389C0090095B600C1239377A02799512153080D9
:1038AC000C123B6B851882851983123937740212FE
:1038BC001A0C12394B90095D600BE812393D79975F
:1038CC00121530800B123B6B7402121A0C12393722
:1038DC007401121A0CE0C0E07404121A0CD0E0123D
:1038EC00392FE0C0E07405121A0CD0E0F07403120A
:1038FC001A0CE0C0E07406121A0CD0E0F07402123C
:10390C001A0CE0C0E07407121A0CD0E0F074041228
:10391C001A0CAC82AD837A0479031215B474088046
:10392C0026E508F085188285198322E8F0A3E9F0D2
:10393C0022F0A3E9F0EEFCEFFD7A0222900766126A
:10394C003B6FE8492274041219D77F01021AEA74FA
:10395C00F0121A18900764E06401705D900766120B
:10396C003B7F123937900788123B7FE0687003A3C6
:10397C00E0696039E8496039900954E0C398F5086A
:10398C00A3E099F5093395E0F50AF50B78081216C2
:10399C0032E50BC2E7F50B909004780C1218917875
:1039AC0008790C1216DC50099007888014E84970CD
:1039BC001F123B68900788800BE06406600C90092E
:1039CC005B123B7FE8F0A3E980059009587402F084
:1039DC0090075DE0703F90075EE064037027C39032
:1039EC000953123B565003023B32900952C3E094E8
:1039FC0001A3123B564003023B0775800053FD0F99
:103A0C0090075E800CE07003023B5375800053FD01
:103A1C000FE4023B52F890075EE0687003023ACE66
:103A2C0090075DE0146009146017146026023AC414
:103A3C00900954C082123B75D082123E1E50798080
:103A4C002D90095D123E30123B68C3EA98EB9950F9
:103A5C0067803590095BC082900762123B6B75835F
:103A6C0009D082123E1E500F90095B123B6B9007DF
:103A7C0062E8F0A3E9801890095D123E309007626D
:103A8C00C3E09AA3E09B5008900762EAF0A3EBF026
:103A9C00900770E0F9900762C082900954123E3092
:103AAC00758307D082E0C39AFAA3E09BFB121278CD
:103ABC00900952EAF0A3EBF090075DE090075E02EC
:103ACC003B5290095212394B701675800053FD0F02
:103ADC0090075DE4F090075FF090095874028066DF
:103AEC0090075DE014600514602A805B900954C057
:103AFC0082123B75D082123E1E503F900957E070E7
:103B0C000643FDF0758040900952E024FFF0A3E0DD
:103B1C0034FF803290095DC082123B68758309D0F6
:103B2C0082123E1E5014900957E0700643FDF0754A
:103B3C008080900952123B5B800C75800053FD0F06
:103B4C00900952E4F0A3F0022E09E01237BD2212C4
:103B5C003B5F22E02401F0A3E034002290095412D0
:103B6C003B6F22E0F8A3E0F92290095B123B6F75E2
:103B7C00830922123B6F90095422C082C083E590C6
:103B8C00540F90078AF0900958E064017003023ECC
:103B9C001690078AE0640F900958702BE4F0900798
:103BAC005DF090078B740FF090078CE4F090075E3B
:103BBC00E064037009900957E07003023E167580AB
:103BCC000053FD0F023E167402F0900957E060039B
:103BDC00023E1690076A123E3090078BE0F8900771
:103BEC008AE0687003023D8D90075EE06403700309
:103BFC00023D7490078AE024FD7003023CF524FE1C
:103C0C00605024FE603024FE7003023D2124FE70BF
:103C1C0003023CAA24FE6009147003023D67023DB6
:103C2C0083900764E064067005123948701590079C
:103C3C005D7401023D82900764E06406700C1239D9
:103C4C0048600790075DE4023D8290075D740202B4
:103C5C003D82900764E06406601E900768E0F47093
:103C6C0003A3E0F47003023D8390075D7403F090AE
:103C7C000768123B6B023D3F1239486003023D83DB
:103C8C00124093798D7A007B0012127E900957E0D6
:103C9C006003023D8343FDF07580C0023D839007B5
:103CAC0064E06406601D74FF6A700374FF6B70033C
:103CBC00023D8390075D7403F0900762EAF0A3EB7A
:103CCC00023D821239486003023D83124093798F82
:103CDC007A017B0012127E900957E06003023D834B
:103CEC0043FDF0758020023D83900764E06406601C
:103CFC000590076C802A123948707C124093799198
:103D0C007A027B0012127E900957E0706A43FDF034
:103D1C007580A08062900764E06406601F90076E57
:103D2C00123B6B74FF68700374FF69604A90075D07
:103D3C007403F0900762E8F0A3E9803A12394870F6
:103D4C003612409379937A037B0012127E900957B6
:103D5C00E0702443FDF0758060801C90075DE4F0FA
:103D6C0043FDF0758010800F90075DE4F090075EC6
:103D7C00F0900952F0A3F090078AE090078B023E76
:103D8C0015E0640E6003023E1675800053FD0F9023
:103D9C00078DC3E09410A3E094004045900D51E0D2
:103DAC007034900768C082900FC7123B6B75830705
:103DBC00D082123E1E502A900FC7C3E09AA3E09BFC
:103DCC00501F90075D7401F0900D51F0900765E065
:103DDC00F91212E4800B90075D7402F0900D51E41F
:103DEC00F090078CE0702390078D123E1990078D90
:103DFC00C3E09419A3E09400401090075DE4F090A8
:103E0C00078DF0A3F090078C04F00237D2123B5FC1
:103E1C00F022C3E098A3E09922E8FCE9FDECC3335F
:103E2C00FCED33FDE0FAA3E0FB2274F4121A18E95E
:103E3C00FE74046E6003023F6990076012394B7088
:103E4C0003023F78900760C3E0941EA3E0940050F7
:103E5C000D7C047D007A8F7B071214A680077A04F0
:103E6C007B001214AC90078FE0900797F0900790AE
:103E7C00E0F9900798F0900791E0FA900799F0908C
:103E8C000792E0FB90079AF090900878081218912E
:103E9C0090079378081215DE707290900C780812C7
:103EAC00189190079778081215DE604C9007977858
:103EBC000812189174016508700474026509601485
:103ECC0090079778081218917401650870047401B2
:103EDC0065097024909010780812189190079778C3
:103EEC00081215DE60129090147808121891900741
:103EFC009778081215DE70149007977401F0A3746C
:103F0C0004F0A37401F0A374AAF080609007977872
:103F1C000812189174016508700474056509700E17
:103F2C009007937C977D0774041218D4800FE99046
:103F3C000764F0EA900767F0EB900766F09007973C
:103F4C00780812189190079378081215DE601D906E
:103F5C0007977C937D0774041218D4800FEEC394DA
:103F6C000540098E08AA087B001214AC900760E487
:103F7C00F0A3F07F04021AEA74F4121A18EAFEEBAA
:103F8C00FFEEF8EFF9E8C333F8E933F9900770E086
:103F9C00600C1460112481601514601A802275085D
:103FAC00D775090E801A7508E175090E801275080F
:103FBC00D775090E80067508E175090EE8FEE9FF54
:103FCC00123B68758307758262E0C398FAA3E09987
:103FDC00FB850882850983124096C3EC9EED9FA257
:103FEC00D265D033502E900770E0F91212788A0AFD
:103FFC008B0BAC0AAD0BEEF8EFF9850882850983C3
:10400C00A3A3123E3012192E880A890B85088285CB
:10401C0009838047C3E49CF8E49DF9C3EE98EF99BB
:10402C00A2D265D033505D900770E0F91212788AF5
:10403C000A8B0BAC0AAD0BEEF8EFF98508828509FB
:10404C0083A3A3A3A3A3A3123E3012192E880A891B
:10405C000B850882850983A3A3A3A3A3A3A3A312FF
:10406C003B6BE8850AF0A4C8AAF0850BF0A42AFAE9
:10407C00850AF0E9A42AF9ECC398F8ED99F99009AE
:10408C0052123937023F7F900954E0FCA3E0FD2225
:10409C0074F7121A1874FB1219C1EAFEEBFF85189B
:1040AC0082851983AC82AD837A05799C121536E929
:1040BC00601F7401121A0C7403F014121A0C74841D
:1040CC00F07403121A0C7407F07404121A0C7408AE
:1040DC00F07402121A0CE0FA7401121A0CE0F9EAEC
:1040EC009007761239387404121A0CE0FA74031221
:1040FC001A0CE0F9EA900774123938900D51E4F07B
:10410C00900D53741EF0A3E4F0A3F0A3124139F008
:10411C00900777122E65900776122E5F9007751216
:10412C002E7190077412413F7405023953F08E8240
:10413C008F8322124145A3F022122E6AA3A322C020
:10414C0082C083E9602B740269700474018002746C
:10415C0002900D52F0640170059007768003900771
:10416C0074123E30900D53EAF0A3EBF0A3E4F0A3ED
:10417C00F00237D274F2121A18EAFEEBFFEE2402A8
:10418C00F8EF3400F98E828F83A3AA82AB83E0F51B
:10419C000888828983E0FDE5082400940FED9400E3
:1041AC00500D8A828B83E4F088828983740FF0EE41
:1041BC002404FCEF3400FDEE2403F508EF3400F585
:1041CC0009850882F583E0F50C8C828D83E0F50B74
:1041DC00E50C2400941EE50B9400500D8508828597
:1041EC000983E4124267741EF08A828B83E0900785
:1041FC007712426D900776F0850882850983E090EE
:10420C000775124267E0900774124139E0602890FC
:10421C000768123B6B75830F7582C7123E1E4011E7
:10422C00900FC7123B6B75830775826A123E1E5046
:10423C00068E828F83E4F08E828F83E0900D51F096
:10424C00EEFCEFFD7A05799C121530EEFCEFFD7A51
:10425C0005790F1215B47F06021AEAF08C828D8351
:10426C0022F088828983E022C082C083900D52E0C4
:10427C00640190075D70087403F090076880067401
:10428C0003F090076A123B6B900762E8F0A3E90217
:10429C0037D1C082C083E9900E73F002452D74F7BC
:1042AC00121A18E99002E1F07C197D037AFF7BFF6A
:1042BC001209249002E274FFF0A3F0A3E4F0A3F03F
:1042CC0079051208AC9002E1E0F91207CE7A427B34
:1042DC0009120AEC7F01021AEA74F4121A188A08FD
:1042EC008B09EB548060309002E1E0F912115E8A88
:1042FC000A8B0BAE0AAF0BEE4F60138E828F83E0EE
:10430C0064B070031208C4EEFAEFFB12114CAA0849
:10431C00E5096480FB80047A007B000244FC74F2A3
:10432C00121A1874FC1219C1EAFEEBFFEE4F60383A
:10433C007402121A0CEEF0A3EF124761ECF0A3ED2D
:10434C00124761AA82AB831207C8E9F5087073742F
:10435C0012121A0C125315E50A450B60658E828FEA
:10436C00831243D8EE4F700575080280557A067B90
:10437C00001211B88A0C8B0DA80CA90DE849700518
:10438C00750813803D88828983E41243E2A3A3EE6F
:10439C00F0A3EF1257AEE50AF0A3E50BF09002E79D
:1043AC0012446A9002E76017E0FCA3E08003EAFC89
:1043BC00EBFD8C828D8312446A70F38C828D831298
:1043CC00523AA90874041219D70259B0A3A3A3A393
:1043DC00E0FEA3E0FF22F0A3F0888289832274F22E
:1043EC00121A18890AE975F017A4FEAFF09002E6CC
:1043FC00E4F09002E412446A600A1211BE9002E4E6
:10440C00E4F0A3F0EEFAEFFB1211B88A088B09EA7C
:10441C004509602FEEFCEFFD790012113A9002E491
:10442C00E508F0A3E509F07B008008124454E4F0A1
:10443C00A3F00BEBC3950A40F2E50A9002E6F07983
:10444C0000800279130259B0EB75F017A4F8A9F0AB
:10445C009002E4E028FAA3E0398A82F58322124F15
:10446C00D0EA4B2274F4121A1875080075090074FE
:10447C000C121A0C125782FEE9FF800CE50824017D
:10448C00F508E5093400F509C3E5089CE5099D50DC
:10449C003285080A85090B7403780A1219AEEA25CD
:1044AC000AF8EB350BF988828983A3A3A3A3A3A3F2
:1044BC00125315EE650A7003EF650B70BFE8FAE94D
:1044CC00FB80047A007B00802774F4121A187900A0
:1044DC00EAA2E0501B7508F075098F7808121C2BA6
:1044EC007C047D007A757B0E1208A674021219D713
:1044FC007F04021AEAC082C0839002E7124534603E
:10450C001C88828983A3A3E06A7003A3E06B888272
:10451C00898370E8A3A3A3A3124FCC80047A007BF9
:10452C0000D083D082020122125A83E8492274EE11
:10453C00121A1874FC1219C1EAFEEBFF8518828559
:10454C001983E4F0A3F0EE240212521EEE2405129D
:10455C00474FEE2404F50EEF124B34E024FE603985
:10456C0024FC604624FE605224FE605E24FE700330
:10457C0002465424FE70030246CC24FE700302460D
:10458C00DB24FE70030246EA24FC70030246F92485
:10459C00FE70030247080247459003007417F0A30E
:1045AC00E41247691205460247458518828519832E
:1045BC00AC82AD831208CA0247158518828519830F
:1045CC00AC82AD831208D0024715850C08850D0905
:1045DC007402121A0CAC82AD838508828509831291
:1045EC004FCC1207EC8A0C8B0DAC0CAD0DEC4D6066
:1045FC0042E4F50CF50D780C121C2B750C00750DA6
:10460C0003780C121C2B750C01750D03780C121C05
:10461C002B7408121A0C121C427916124FC612096E
:10462C000C74081219D7E9F50C700B124FC2120555
:10463C005E800F750C01850882850983124757121D
:10464C00523A850C080247187402121A0CAC82AD4F
:10465C0083850C82850D83124FCC1207EC8A108B4C
:10466C0011AC10AD11EC4D6043850C82850D83A30C
:10467C00A3121C427510007511037810121C2B75B7
:10468C0010017511037810121C2B7408121A0C12DD
:10469C001C427916124FC612090C74081219D7E96C
:1046AC00F509700B124FC2120564800F7509018554
:1046BC000C82850D8312475712523A850908804C9B
:1046CC00851882851983AC82AD831208D6803A8511
:1046DC001882851983AC82AD831208DC802B851877
:1046EC0082851983AC82AD831208E2801C85188206
:1046FC00851983AC82AD831208E8800D85188285FC
:10470C001983AC82AD831208EEE9F508E50860293F
:10471C008E828F83A3E06414601F850E82850F83C5
:10472C00E0900300124761125A7F90030112523A33
:10473C00E508A3124769120540EEFAEFFB12086A6E
:10474C00025126F50CEF3400F50D22125A83851810
:10475C008285198322F085188285198322F07C00CA
:10476C007D03850A82850B83124FD02274EE121AB8
:10477C001874FC1219C18A0A8B0B8C0E8D0FEA244B
:10478C0005F508EB3400F5097C157D0079007A00FD
:10479C007B0312113AE5082402F50CE50912475285
:1047AC008518828519838582108583117810121CD7
:1047BC002B850882850983A3A3A3A3124C7C121C0E
:1047CC002BE5082405F510E5093400F511781012D5
:1047DC001C2B850C82850D83124FD61207E67406AE
:1047EC001219D78A108B11AE10AF11E50A2402F5FD
:1047FC000AE50B125221EE4F700302493E801774EA
:10480C0002121A0C124FCC88828983EAF0A3EBF0C7
:10481C00900300E004F0900300E0C3940540030211
:10482C00493EE4F510F5117810121C2B7510E97542
:10483C0011027810121C2B7510EA751102781012E7
:10484C001C2B7406121A0C121C427910EEFCEFFD94
:10485C00124FC612090C74081219D7E9705E85083C
:10486C0082850983A3A3A3A3A3A3A3E0F89002E9E1
:10487C00E0687048124C7C121C2B7CEA7D02E50827
:10488C002408FAE5093400FB12113474021219D70A
:10489C00E960298E828F83A3A3A3A3124FCC90032C
:1048AC0000E0F510740278101219AE74012510F5A1
:1048BC008274033511F583EAF0A3EBF07402121A3B
:1048CC000C8582108583117810121C2B7402121A1D
:1048DC000C121C42850C82850D83125A941207F21D
:1048EC0074041219D78A108B11AE10AF11900300FB
:1048FC00E0F510751100740278101219AE740025D1
:10490C0010F874033511F988828983A312446A70F4
:10491C0003024802E82403F8E93400F9EE4F60037F
:10492C0002480B8882898374FFF0A3F0900300E0A7
:10493C0004F0900300E0600A124FC2120552790095
:10494C00800B850882850983125231790A0251261F
:10495C0074EA121A1874FE1219C18C128D13EA24FF
:10496C0005F50CEB125BFE1243DC750800750900B3
:10497C00EA2402F510EB3400F511851882851983B1
:10498C0085820A85830B780A121C2B850C82850D77
:10499C0083A3A3A3A3124B3E121C2BE50C2405F5F9
:1049AC000AE50D125221780A121C2B850C82850DFA
:1049BC0083125A921207E674061219D78A0A8B0BC5
:1049CC00EA450B7003024AEFEA2404F50EEB124B96
:1049DC00341243DC8A828B83A3A3A3E0F985108273
:1049EC00851183124FCC1207D4E9F5096003024AF2
:1049FC00EFE4F514F5157814121C2B7514E97515E4
:104A0C00027814121C2B7514EA7515027814121CFA
:104A1C002B7406121A0C121C427913AC0AAD0B85BE
:104A2C001082851183124FCC12090C74081219D7FD
:104A3C00E9F5096003024AEF9002E9E0F8E5087035
:104A4C0009E02402900301F08017900301E0FCE8D8
:104A5C002402FAE43400FBEA6C7001EB6003024AB6
:104A6C00F3850882AA82124C739414124C6B507307
:104A7C00850E82850F83E0C0E074022A124B2BD086
:104A8C00E0F00508850E82850F83A3E0C0E0850861
:104A9C000A7402250A124B2BD0E0F005089002E9AB
:104AAC00124B3E121C2B7CEA7D0285080A740225EF
:104ABC000AFA74033400FB12112274021219D790F3
:104ACC0002E9E02508F50874FF6E700374FF6F604F
:104ADC0012EE24010EEF3400FFE508C394145003CA
:104AEC00024986E5086013124EB785108285118342
:104AFC00124FCC12055879008014E5097003750922
:104B0C000A851282851383EEF0A3EFF0A9097402D3
:104B1C001219D77F0E021AEA85080C7402250CF5BF
:104B2C008274033400F583223400F50F850E82F570
:104B3C0083221257C12274EE121A1874FE1219C174
:104B4C008C0E8D0FEA2405F50CEB124752750B00F9
:104B5C00900300E4F0F50AEA2402F508EB3400F5C2
:104B6C00098049900300E0FA9002E9E0F8124C73D6
:104B7C009417124C6B400D900300E0F87416C39818
:104B8C009002E9F0124C7C121C2B7CEA7D02740121
:104B9C002AFA74033400FB12112274021219D790F2
:104BAC0002E9E0F8900300E028F0050AE50C241671
:104BBC00F582E50D124B2FE0F8E50AC3984003028D
:104BCC004C54900300E0C39416507DE50AC333F8AF
:104BDC00E433F9E50C28FEE50D39FF8518828519BB
:104BEC0083AC82AD838E828F83124FCC1207EC8AFA
:104BFC00108B11AC10AD11EC4D7005750B01804391
:104C0C00E4F510F5117810121C2B7510E9751102D2
:104C1C007810121C2B7510EA7511027810121C2BCF
:104C2C007406121A0C121C427916850882850983A7
:104C3C00124FCC12090C74081219D7E9F50B70033A
:104C4C00024B6F12522D80107C007D0385088285EB
:104C5C000983124FCC12056AA90B7402025128E980
:104C6C009400C365D03322EA28F8E43400F9E82232
:104C7C00E0F51075110078102274EA121A1874FC01
:104C8C001219C18A0C8B0D8C128D13EA2405F50AAE
:104C9C00EB125221750800750900E50A2402F51083
:104CAC00E50B3400F5117402121A0C85820E858303
:104CBC000F780E121C2B850A82850B83A3A3A3A34A
:104CCC0012576D121C2BE50A2405F50EE50B34006A
:104CDC00F50F780E121C2B8510828511831252272A
:104CEC00124FC61207E674061219D78A0E8B0FAE36
:104CFC000EAF0FE50C2402F50EE50D3400F50F8018
:104D0C00408882898374FFF00508124B2474FFF0ED
:104D1C0005089002E9E0F50C750D00780C121C2BBF
:104D2C007CEA7D0285080C7402250CFA74033400AD
:104D3C00FB12112274021219D79002E9E02508F532
:104D4C0008EE4F60718E828F83A3A3A3E0F9850ECA
:104D5C0082850F83124FCC1207D4E9F509EE240497
:104D6C0012474FE97044E4F514F5157814121C2B16
:104D7C007514E97515027814121C2B7514EA751547
:104D8C00027814121C2B7408121A0C121C42791182
:104D9C00EEFCEFFD850E82850F83124FCC12090CB1
:104DAC0074081219D7E9F5096027850C82850D83E3
:104DBC00124EAD12523AE5087003024E93124EB7E2
:104DCC00850E82850F83124FCC1205707900024E2E
:104DDC00A8850882AA82EA9002E97009E02404906E
:104DEC000301F08022E0F8900301E0F514E82404BC
:104DFC00FCE43400FDEC65147001ED70C0124C73D2
:104E0C009412124C6B50B6850C82850D83E0C0E079
:104E1C0074022A124B2BD0E0F00508850C82850D0C
:104E2C0083A3E0C0E0124B24D0E0124EC985820C63
:104E3C0085830D780C121C2B7404121A0C121C4254
:104E4C00851082851183125A941207F27404121978
:104E5C00D78A0C8B0DAE0CAF0D85080C7402250C8B
:104E6C00F874033400F9EE4F7003024D0D8518826F
:104E7C00851983E088828983124EC9A3E0C0E012B1
:104E8C004B24D0E0024D1BE509700375090A850A15
:104E9C0082850B83124EAD12523AA9097404024B4F
:104EAC001C125A8385128285138322900301E0F52C
:104EBC00F0E50884900300F07C007D0322F00508E7
:104ECC008518828519832274EC121A1874FE121933
:104EDC00C18A088B098C0E8D0FEA2405FEEB340079
:104EEC00FF851882851983AC82AD838E828F8312E5
:104EFC004FCC1207EC8A0A8B0BEE241812474FEAA0
:104F0C00450B7003024F9D12510F5032851882854C
:104F1C001983124FCC1209008A108B11EA451160CB
:104F2C006B7912AC0AAD0B850882850983124FCCC4
:104F3C00851082851183121A16E9F50A7058E4F56A
:104F4C000AF50B780A121C2B8E828F83A3A3E0F533
:104F5C000A780A121C2BEE240312521E780A121C19
:104F6C002B8E828F83124FD612091274061219D708
:104F7C00E9F50A7021850C82850D83E0701F850888
:104F8C0082850983124FCC1205768011750A0E802A
:104F9C0009750A018004E50A600312522D850C8202
:104FAC00850D83E0600479008002A90A740212194D
:104FBC00D77F0C021AEA7C007D03850A82850B835D
:104FCC00124FD022E0FAA3E0FB22E0FCA3E0FD8527
:104FDC000882850983124FD02274EE121A1874FEBF
:104FEC001219C18A088B098C0C8D0DEA2405FEEB75
:104FFC003400FF750E00851882851983AC82AD8351
:10500C008E828F83124FCC1207EC8A0A8B0BEA45E7
:10501C000B70030250FB12510F5035851882851905
:10502C0083124FCC1209008A0E8B0FEA450F605E7B
:10503C007912AC0AAD0B850882850983124FCC8599
:10504C000E82850F83121A16E9F50E60030250FECC
:10505C00850882850983125315AA0AFB1208F48A63
:10506C00108B11A810A911E849701E7AFF7BFF1252
:10507C0008F48A108B11A810A911E849606C888279
:10508C008983E50AF0A3E50BF0750A008007750E1D
:10509C000E805F050A9002E6E0FAE50AC39A504AD0
:1050AC00E50A75F017A4FAABF088828983A3A3E014
:1050BC002AFAA3E03BFB8A828B83125227EC4D70B9
:1050CC00D2750A17750B00780A121C2BEEFCEFFD3B
:1050DC0012112274021219D7EEFCEFFD850882859D
:1050EC000983124FCC12057C8014750E0980037550
:1050FC000E01125A7B850C82850D8312523AA90E31
:10510C00024C66E5082402F508E5093400F5098A25
:10511C00828B83A3A3A3E0A2E52274041219D77F88
:10512C000A021AEA74EC121A188C108D11EA240572
:10513C00F50CEB124752750F00EA2402F50AEB123C
:10514C005221850A82F583124FCC1208F48A088BFF
:10515C0009EA45097003025213750E008071850C23
:10516C0082850D83E06401704F8E828F83A3A3121E
:10517C001C428E828F83A3A3A3A3E0F512751300A8
:10518C007812121C2BEE2405F512EF3400F513786F
:10519C0012121C2B124FC612091274061219D7E9DF
:1051AC00F50F6014850C82850D83E4F0125A7B8513
:1051BC00108285118312523A7C177D007900EEFA29
:1051CC00EFFB12113A8E828F83E4F0A3F0050E9060
:1051DC0002E6E0F8E50EC398501EE50E75F017A434
:1051EC00F8A9F0850882850983A3A3125C081252E2
:1051FC0027EC4D600302516A85088285098374FF90
:10520C00F0A3F0E50F7006124FC6120582A90F022B
:10521C004FBDF50AEF3400F50B22A3E0FCA3E0FD33
:10522C00228E828F83125A83850E82850F83E8F03B
:10523C00A3E9F022C082C0839002E2E06A7003A36B
:10524C00E06B70067AE27B0280047A007B000245F8
:10525C002DC082C08378008C828D83E06A7003A39A
:10526C00E06B7010E875F003A4F8A9F0EC28FAEDE7
:10527C0039FB8015088C828D83A3A3A3E06A70038D
:10528C00A3E06B60DF7A007B0002452D74F6121AE6
:10529C00181208BE8A828B83E582458370067A00D9
:1052AC007B008007A3A3A3A3124FCC02592C74F24A
:1052BC00121A18E9FE740E121A0C125315741012ED
:1052CC001A0C12578D8C828D83E064027036A312F7
:1052DC005A89F50CA3E0F9A80C74026870037429C0
:1052EC00697021750C02750D00780C121C2B780856
:1052FC00121C2B780A121C2BEEF9120936740612AA
:10530C0019D7800279010259B0E0F50AA3E0F50B38
:10531C002274E8121A1874FB1219C1E985188285D7
:10532C001983F08A168B17ECFEEDFF751000741DB7
:10533C00121A0C125A7F741D121A0C12523A8E82C7
:10534C008F83A3A3A3E0A2E4502D741D121A0C1298
:10535C004FCC1209008A828B83E58245837003024D
:10536C00575E790AEEFCEFFDAA16AB17121A16E976
:10537C00F5106003025761741F121A0C12578D74CA
:10538C0021121A0C1253157423121A0CE0F50EA3E9
:10539C00E0F50F8E828F83E06402600302570CA34A
:1053AC00125A7F850882850983A38582128583130F
:1053BC00EE240612474F88828983E0FAA3E0F9EACB
:1053CC002400F514E439F5157814121CB50100000D
:1053DC00280128015407000228C65403283354001E
:1053EC0029FD55012928560229C9550329FD5504C3
:1053FC0029A7560C57E50E450F6003025707850C7D
:10540C0082850D83125782FAE9FB8A828B83E085B1
:10541C000A82850B831257B8121C2B8A828B83A3AA
:10542C00E0FCA3E0025691E50E450F60030257071E
:10543C00850A82850B837401F01257958508828545
:10544C000983F07C007D008E828F83A3A3A3A3E04D
:10545C002401FAA3E03400FB1207ECEA4B60418A0A
:10546C00828B83E02402F8850A82850B83E028F086
:10547C00EA2404F8EB3400F988828983E0851282EF
:10548C008513831257CA1257B8121C2B8A828B832E
:10549C00125226E5082403FAE5093400FB0256965D
:1054AC00850A82850B83E02404F07C047D0079005E
:1054BC00AA12AB1312113A025761E50E450F6003A5
:1054CC00025707125795FEA3E0FF850A82850B83CE
:1054DC007404F0EE850882850983F0EF85128285CD
:1054EC001383F07403121A0CAC82AD83EEFAEFFB4B
:1054FC001207EC8A0C8B0DEA450D70030255AA8A33
:10550C00828B83A3A31243D87401121A0C85820ECA
:10551C0085830F780E121C2B7405121A0C121C4268
:10552C007CFF7DFF1207F274041219D78B0FEA452A
:10553C000F7033850C82850D8312576D121C2B85D1
:10554C000C82850D83A3121C427C027D007AA97B00
:10555C009012061E74041219D7E9700A7401121AFB
:10556C000C74FFF0A3F08E828F83E06402703975A7
:10557C000C02750D00780C121C2B8E828F8312522C
:10558C0026E5082404FAE5093400FB121122740202
:10559C001219D7850A82850B83E0240280097401D5
:1055AC00121A0CEEF0A3EFF07401121A0C12577EC3
:1055BC00F07401121A0CA3125776025701E50E452E
:1055CC000F6003025707850C82850D83125227AAA0
:1055DC0016AB1712092A850A82850B837402F0EA2E
:1055EC00850882850983F0851282851383EB025727
:1055FC0004E50E450F6003025707125795F8A3E018
:10560C00F9850A82850B837402F0E8850882850986
:10561C0083F0E9851282851383025704850C8285F9
:10562C000D83124FCC12111CEAFC8C82A882C395FC
:10563C000EE4950F405FE8650E7002E50F70047C78
:10564C00008022851882851983E0FAE50E2AFAE596
:10565C000F3400FBC3EA98EB94005003E08005E59F
:10566C000ECCC39CFCEC850A82850B83F08C0A75EE
:10567C000B00780A121C2B850C82850D83E0250EFD
:10568C00FCA3E0350FFDAA08AB091211227402121B
:10569C0019D7025761751007025761E50E450F7057
:1056AC005A850C82850D83125A7F850A82850B835D
:1056BC0074071243E41257761243E4A3E085128276
:1056CC00851383F0E82402FAE93400FB8A828B8389
:1056DC001257761257A512577EA31257AE12578740
:1056EC00F0E82405F8E93400F98882898312578799
:1056FC00A31257CAA3A3A3A3F0805A75100B80550D
:10570C00741D121A0C124FCC1208BE8A828B83E5C0
:10571C00824583603D125A7F880C890DE8450D60E7
:10572C0031780E121C2B780A121C2B7808121C2BA9
:10573C007406121A0CE0F9EEFCEFFDAA16AB1785F5
:10574C000C82850D83121A1674061219D7E9F510FE
:10575C00800375100EA91074051219D77F10021A48
:10576C00EAE0F50E750F00780E22E08508828509B7
:10577C0083221257D422125A83E8221257D4A3A39D
:10578C0022E0F508A3E0F50922850C82850D83E063
:10579C00F8A3E0F5838882E022A3A3F08A828B83AE
:1057AC00A322F088828983A3A3A3A322F08A828BED
:1057BC00831257C122E0F50A750B00780A22F08893
:1057CC00828983A31257D422E0850882850983A39A
:1057DC00A32274EE121A1874FE1219C18A0A8B0BCA
:1057EC00ECFAEDFB7414121A0CE0F510A3E0F511B1
:1057FC007416121A0CE0FE7418121A0CE0F50EA3B3
:10580C00E0F50F851882851983AC82AD831207EC05
:10581C008A0C8B0DEA450D60498518828519831217
:10582C004FCC1208BE8A828B83E5824583602FA3FE
:10583C00A312578DE50845096024780E121C2B78AD
:10584C0010121C2BEEF9AC0CAD0DAA0AAB0B850893
:10585C0082850983121A1674041219D78006790EE0
:10586C0080027901024C6674F6121A1874FE121931
:10587C00C1740C121A0C125782851882851983F088
:10588C007401121A0CE9F0E4F508F5097808121CF9
:10589C002B7508027808121C2B7404121A0C8582C2
:1058AC00088583097808121C2B1209127406121928
:1058BC00D774021219D7806874F7121A18EAFEEB23
:1058CC00FF89087C197D0312092AEA5402600BA98E
:1058DC0008EEFAEFFB1207E0800279010242E07455
:1058EC00F6121A1874FF6A700374FF6B70168C82B0
:1058FC008D83125931E4F08C828D83A3A3A31259AA
:10590C0031A380181208FA8A088B09A808A909E89B
:10591C0049600D8882898374FF1243E2A3A3E4F0EB
:10592C007F02021AEA74FFF0A3F08C828D83A3A38A
:10593C002274F6121A181208FA8A828B83E58245B1
:10594C00836006A3A3E0FA80027A007B0080D17406
:10595C00F2121A188A088B09ECFEEDFF740E121A5B
:10596C000CE0F50A1208FA8A0C8B0DA80CA90DE8AC
:10597C00497026EEFCEFFD7AFF7BFF1208FA8A0CC9
:10598C008B0DA80CA90DE84970047911801688823A
:10599C008983E508F0A3E509F088828983A3A3E550
:1059AC000AF079007F06021AEA74EE121A18EAFE5F
:1059BC00EBFF8C088D09890C7414121A0C125A7F87
:1059CC007416121A0C124FCC750D00E849600302C4
:1059DC005A737402650C6003025A6E7412121A0C1C
:1059EC00125A89FCA3E0F9EC2400F50EE439F50F0A
:1059FC00EAF4F8EBF4F9EC58F8E50F59F9E84970CA
:105A0C005CE5082406F8ED3400F9880A890B8882D5
:105A1C00F583125A9412092A8A108B11E50E65101F
:105A2C007004E50F65116042780E121C2B850A82FA
:105A3C00850B83125A9412093074021219D7E9F5A6
:105A4C000D7027780E121C2B850882850983A3A361
:105A5C00125A9212094874021219D7800D750D80D2
:105A6C008008750D0D8003750D0BA90D02512B8E41
:105A7C00828F83125A8322E0F8A3E0F922125A8310
:105A8C0088828983E022A3A3E0FCA3E0FDEEFAEF79
:105A9C00FB2274E8121A1874E71219C18518828552
:105AAC001983EAF0A3EBF08C168D17890E7508009C
:105ABC007509007431121A0CE0F512A3E0F5137499
:105ACC0033121A0CE0F514A3E0F5157435121A0C08
:105ADC00E0F50FE50975F003A4F8A9F085188285A7
:105AEC001983125C08E0F47003A3E0F47003025B0A
:105AFC00EBEE2402F50CEF125BFEE07003025BEBA5
:105B0C0085160A85170B780A121C2BAC14AD15AA36
:105B1C0012AB131208B274021219D78A0A8B0BEA51
