:020000040000FA
:0600000002010A0222E4E5
:03002B0002275950
:0300330002273B66
:03003B0002277A1F
:030043000226EFA3
:0300530002235A2B
:03006B0002271554
:10008300022193E5C754F84401F5C7790122000022
:100093000080FB120086B900030200F4E4792178A2
:1000A30008B800028004F709D8FCE479297802B87B
:1000B30000028004F709D8FCE49002817835790CBA
:1000C3008002F0A3D8FCD9FA900DB5AA82AB839035
:1000D300013A780779058015E493A3AC82AD838A4E
:1000E300828B83F0A3AA82AB838C828D83D8E9D9D8
:1000F300E77582517583C1740312011C7582917572
:100103008300740012011C75D00075813F7518813E
:10011300751902759F00020096C09FF59FE473D086
:100123009F22D083D082C09FE493C0E0740193C028
:10013300E0740293F59F22FF0000B400002800281A
:1001430000283075A000A000A000A000000800084F
:10015300E001F0001000100010001000100010006B
:1001630050005000500010001000D00700000000A5
:1001730000000F00010005003075070010000100AA
:1001830081FF00000000FF3E075C074407FF0202F7
:100193000208025000A0000000E80302AB90010037
:1001A30000949002B3900100000C0E029F90010096
:1001B30000B30202B3900100000D0E029D900100F6
:1001C30000C90202B3900100000E0E02A5900100C7
:1001D30000CB0202B3900100000F0E02C59008008D
:1001E30000CC0202B390010000100E02B190010096
:1001F30000110EFF0100FF2002AB90010000979059
:1002030002B390010000750E02AF900000000000E1
:1002130002A19003000019036E0D6E0D6E0D6E0D9D
:100223006E0D6E0D6E0D6E0D6E0D6E0D6E0D6E0DF3
:100233006E0D44105C103E10FFFF0200E2FF02004F
:10024300E7FF0200F3FF0200F3FFFAFF07000300DA
:10025300F9FFFBFF07000400F7FF07000300090095
:1002630003000A000E0005000D0005000E00020247
:1002730002020202020202010D000000100102ABA1
:10028300900100009A9002B390010000EC0E02C7A7
:10029300900100009B0702B390010000ED0E02C322
:1002A300900100006B8F02B390010000EE0E02C1BB
:1002B300900100005D8F02B390010000EF0E02BFBA
:1002C30090010000B98E02B390010000F00E02BD50
:1002D30090010000A78E02B390010000F10E02BB53
:1002E30090010000958E02B390010000F20E02B956
:1002F30090010000CB8E02B390010000F30E02B711
:10030300900100004F8F02B390010000F40E02B57C
:1003130090010000F50E01E803053F100AFF0001FC
:100323003075030201060000000000000000000019
:1003330000000000000000000000000000000000BA
:100343000000FFFF0600800CE80384030F0013097D
:100353004F666669636577656C6C20233030303097
:100363006666051208000800020A0002010603027D
:10037300F1FF53696D706C6520424C4520506572E6
:100383006970686572616C9C150000A8150A486164
:1003930072647761726520496E666F726D6174690C
:1003A3006F6E000A507265736574204865696768EB
:1003B300740002506F7374757265204A75646765C3
:1003C3006D656E74000A416374696F6E2052616ECD
:1003D30067650008436F6E74726F6C20436F6D6DB9
:1003E300616E6400125065736B205374617475738E
:1003F300000A4C6F636B2053746174757300025071
:100403006F77657275702054696D657374616D7073
:100413000000104865616C74682044617461000ACF
:100423004175746F6D61746963204D6F7665204407
:10043300617461000002AB90010000B98F02B390B8
:100443000100000B1002CF90030000740D02A39073
:100453000100000C1002B390010000211002D190A2
:10046300030000780D02A390010000221002B39054
:10047300010000301002D390010000800D02A39010
:10048300010000311002B390010000431002D59027
:10049300030000820D02A390010000441002B390F8
:1004A300010000511002D790020000860D02A390B4
:1004B300010000521002B390010000621002D990B3
:1004C300010000870D02A1900300008B0D02A39091
:1004D300010000631002B3900100006F1002DB9073
:1004E300030000910D02A390010000701002B3906D
:1004F3000100007C1002DD90010000960D02A39024
:100503000100007D1002B390010000901002DF9003
:100513000000009A0D02A190030000AA0D02A3900F
:10052300010000911002B3900100009D1002CB90D6
:10053300030000B00D02A3900100009E10120125DC
:100543002CB30312012543B30312012574B3031221
:100553000125AFB303120125D9B30312012503B457
:10056300031201251AB40312012531B40312012524
:1005730048B40312012571B40312012584B4031294
:1005830001259AB403120125ADB403120125D4B495
:100593000312012538B6021201253CB702120125C8
:1005A30074B70212012597B702120125A2B70212EE
:1005B3000125C5B702120125D4B802120125A9B934
:1005C3000212012524BA02120125ACBA0212012536
:1005D300E7BA021201251EBB02120125ACBB0212AF
:1005E300012585BC02120125E5BC02120125F0BCE0
:1005F300021201256FBD0212012572BD02120125EF
:1006030075BD0212012504BE0212012507BE0212A6
:10061300012537BE0212012561BE021201254FBF1B
:100623000212012501C002120125EA8903120125E4
:10063300128A03120125408A03120125778A0312C5
:100643000125D58A03120125208B031201256B8B0B
:1006530003120125AB8B03120125F18B0312012534
:100663001F8C03120125DC8C03120125E68C031277
:100673000125F38C03120125268D03120125F28D2A
:1006830003120125FE8D03120125168E0312012587
:10069300208E0312012549BC0312012557BC031206
:1006A30001256FBC0312012587BC0312012502D665
:1006B30001120125AED60112012529D70112012508
:1006C3004AD80112012586D8011201252FD901121A
:1006D300012516DA011201257ADB01120125D1DB8E
:1006E3000112012552DC0112012542DD011201250F
:1006F3008FDD0112012515DE0112012547DE0112EE
:1007030001255BE0011201259DE001120125BBE0FB
:10071300011201253EE10112012512E20112012518
:10072300DAE201120125DAEB02120125ADEC021225
:10073300012556ED02120125A9ED0212012559EEFC
:1007430002120125E5EE02120125D1EF0212012565
:1007530000F00212012513F1021201255BF10212CE
:10076300012530F2021201256CF20212012588F2F2
:1007730002120125AEBF03120125E59B03120125D9
:10078300FB9B03120125219C031201253D9D0312AE
:100793000125479D031201257C9E03120125749FA9
:1007A3000312012500800312012530810312012564
:1007B300638103120125AD810312012574830312A2
:1007C300012513C6011201257DC601120125DCC7CF
:1007D30001120125ECC70112012519C801120125D7
:1007E30070C80112012519C90112012520CA01127D
:1007F3000125EACA011201254ACC011201258DCC3B
:100803000112012532CD011201257FCD01120125EF
:10081300A5CD01120125B3CF01120125B8CF0112D5
:100823000125BDD1011201250AD2011201257DD274
:1008330001120125B0D20112012552D30112012563
:10084300FBD30112012533D40112012536D4011241
:1008530001257ED401120125BED40112012515D52F
:1008630001120125D6A803120125EEA803120125C2
:1008730036A9031201254CA90312012593A90312DA
:100883000125A7AA0312012534AB031201257FAB6F
:10089300031201254543001201255143001201258E
:1008A3008C4300120125D14300120125914400120B
:1008B30001251745001201257C4500120125A84595
:1008C30000120125E145001201251F4800120125F0
:1008D300034A00120125E94B001201252C4D001299
:1008E30001257A4F001201258C5000120125D751A2
:1008F30000120125E75200120125045300120125BD
:100903003F5300120125615300120125C453001205
:1009130001258558001201251A59001201256B592A
:1009230000120125925900120125E45900120125F4
:10093300025A001201255C5A00120125455B001280
:100943000125BB5C001201253F5D00120125A78E26
:1009530003120125B18E03120125F48E0312012522
:100963000F8F031201259F8F03120125C78F0312D7
:1009730001250490031201253B9003120125649085
:1009830003120125D99003120125EE9003120125CC
:100993000391031201253491031201254891031297
:1009A30001256D9103120125A79103120125D3910E
:1009B300031201255F92031201258A920312012576
:1009C300D39203120125FD920312012528930312EA
:1009D30001252DB80312012565A90212012593A94A
:1009E30002120125E1AA02120125C1AB021201255F
:1009F300E0AB021201255DAC02120125A0AC02128C
:100A03000125F6AD02120125B7AE021201253EB152
:100A130002120125DFB102120125D5B2021201250E
:100A2300D2B3021201252CB502120125B7B5021269
:100A3300012572FE02120125DBFE021201252FFFA2
:100A43000212012556FF0212012587FF021201251A
:100A5300509303120125BD9303120125049403123D
:100A630001251C9503120125189603120125FB96F7
:100A730003120125B5D302120125F7D30212012572
:100A8300C9D402120125A2D5021201259CD6021255
:100A930001257ED702120125E7D7021201259DD831
:100AA3000212012511D9021201257DD90212012555
:100AB300A6D90212012520DA02120125B9DA02129F
:100AC30001251EDB0212012533DB0212012579DB2E
:100AD3000212012592DB02120125F7DB0212012526
:100AE300FADB02120125DDA50312012505A6031277
:100AF300012543A60312012501A70312012568A7B7
:100B03000312012584A703120125ACA703120125B3
:100B1300DCA703120125EBA70312012568A8031222
:100B230001258EA8031201250BB601120125A9B7D1
:100B330001120125C4B90112012500BA01120125D0
:100B43002DBA0112012512BB0112012559BB011255
:100B530001259DBB01120125AFBB01120125EFBB8E
:100B6300011201251CBC0112012567BC01120125DC
:100B7300A7BC01120125D5BC0112012527BD011215
:100B83000125B7BD0112012555C0011201256BC214
:100B930001120125A9C2011201253AC4011201253E
:100BA3007FC401120125F6C40112012540C50112BB
:100BB3000125E8C5011201253CCA02120125BBCA61
:100BC300021201257DD0021201258CD102120125CA
:100BD300F4D2021201258BD302120125E5900112F2
:100BE30001252E91011201255B91011201258E91A0
:100BF300011201259B9101120125A79101120125E3
:100C0300B99101120125A09201120125FE92011250
:100C13000125339301120125769401120125C39412
:100C230001120125E79401120125549501120125B2
:100C3300129601120125CB96011201253897011254
:100C43000125EA9701120125FA97011201258198DE
:100C5300011201254099011201256D990112012507
:100C6300E69901120125439A011201258D9A011279
:100C73000125239B01120125EE9B01120125A39C53
:100C830001120125189D01120125799D01120125EB
:100C9300E39D011201251C9E01120125BE9E011236
:100CA3000125CE9F011201250EA0011201252BA0C3
:100CB300011201254AA00112012591A0011201256B
:100CC300B6A001120125E3A0011201255DA10112C5
:100CD30001259EA101120125C2A20112012572A3C1
:100CE30001120125C9A30112012533A40112012513
:100CF3004CA40112012572C002120125C5C00212C3
:100D03000125D1C002120125A6C102120125CDC1C0
:100D13000212012508C20212012574C20212012522
:100D2300B0C202120125E9C20212012501C3021257
:100D3300012556C3021201256FC302120125B8C350
:100D430002120125CBC302120125E5C302120125BC
:100D5300FBC3021201252EC50212012575C602121C
:100D6300012577C70212012571C802120125F77FF9
:100D7300001201252E9C021201255E9C0212012500
:100D830026A0021201257DA10212012546A202120C
:100D93000125C6A30212012597A402120125D4A49A
:100DA30002120125F7A40212012535A5021201251D
:100DB3003EA50212012588A50212012592A5021261
:100DC30001253CA60212012515A70212012569A7D8
:100DD30002120125CBA7021201251EA8021201252A
:100DE3004DA8021201258AA8021201257EA4011230
:100DF3000125E5A701120125EBA7011201256DAD20
:100E030001120125E6B101120125BCB5011201252C
:100E13007E9F03120125F49F031201250AA00312EA
:100E230001254BA00312012585A003120125FEA075
:100E33000312012539A103120125ACA103120125D7
:100E4300EAA103120125F3A103120125FFA1031255
:100E530001251BA20312012546A2031201255CA250
:100E630003120125A0A203120125278503120125E0
:100E73003A85031201255485031201257D8503124A
:100E83000125C08503120125FF85031201253D8637
:100E930003120125A28603120125B7860312012539
:100EA300C28603120125CF8603120125E6860312AB
:100EB3000125F48603120125FF86031201250B8702
:100EC300031201251E870312012529870312012519
:100ED3004C8703120125F3870312012503880312AC
:100EE30001251D88031201253A880312012556881E
:100EF300031201257B88031201258688031201252D
:100F03009B8803120125AF88031201251089031260
:100F130001251689031201251C8903120125228943
:100F2300031201253A89031201256D890312012554
:100F330005800212012589800212012538810212DF
:100F43000125978202120125B88402120125A48586
:100F530002120125D98502120125FB850212012502
:100F6300AA8602120125A28802120125CB88021249
:100F730001255D89021201258F89021201259C89B1
:100F830002120125F38902120125198A0212012591
:100F9300868C02120125898D02120125E18D021230
:100FA3000125F3E401120125FDE501120125E4E623
:100FB30001120125EEE60112012510E701120125B8
:100FC3001CE701120125B5E801120125E4E801122D
:100FD300012500EA0112012559EA01120125BFEB9F
:100FE300011201259EEC01120125FAEC01120125E3
:100FF30067ED01120125A2ED01120125E1ED0112B8
:1010030001259AF001120125B4F00112012540F1E6
:10101300011201254EF101120125A7F1011201254B
:10102300B5F10112012528F2011201258CF20112FA
:101033000125D6F2011201253C73001201255E73CE
:1010430000120125847500120125997800120125EB
:10105300B17900120125647A00120125467B001242
:101063000125E6B4031201250BB5031201257DB555
:101073000312012560E40212012569E4021201252D
:1010830072E40212012549E502120125FAE6021271
:10109300012530E7021201256AE702120125A0E7C4
:1010A30002120125DAE7021201250EE802120125D8
:1010B3003AE80212012583E802120125BDE8021273
:1010C300012506E9021201255EE90212012593E9D1
:1010D30002120125EEE90212012528EA0212012576
:1010E30079EA02120125AFEA02120125E9EA0212A6
:1010F300012517EB021201253AEB02120125D6BD99
:101103000312012502BE031201255DBE0312012550
:1011130067BE0312012577BE03120125F1F80212FF
:101123000125FBF80212012539F90212012582F982
:1011330002120125BCF90212012516FA0212012539
:1011430037FA0212012540FA021201258DFA021222
:101153000125B6FA02120125C0FA021201252CFB61
:1011630002120125BEFB0212012508FC0212012511
:101173003EFC02120125CAFC021201250BFD0212DC
:10118300012542FD0212012554FD0212012573FDC2
:10119300021201257CFD0212012544FE02120125E3
:1011A30046B9031201253DBA031201253BB10312CF
:1011B300012571B103120125A7B103120125F2B272
:1011C3000312012532C00312012548C00312012571
:1011D30052C0031201259CC003120125BD970312BF
:1011E3000125D29703120125859803120125C5987D
:1011F30003120125DE980312012519990312012513
:10120300669903120125989903120125DA990312AD
:10121300012552BB031201257BBB03120125AABB87
:1012230003120125C2BB0312012504BC03120125CD
:10123300EC27001201253E2800120125EB2800129D
:101243000125E42900120125A62A00120125AD2B50
:1012530000120125C42B001201259C2C001201252C
:10126300BB2C00120125532D001201253A2E00122A
:1012730001256C2E00120125BC2E00120125B82F6A
:10128300001201250D3400120125A5340012012599
:10129300773500120125D1350012012507360012DA
:1012A30001259636001201252237001201259337B6
:1012B30000120125FB370012012512380012012507
:1012C3003F38001201258838001201258D3900129C
:1012D3000125D83B00120125373E00120125853F29
:1012E300001201259D4000120125AB40001201258B
:1012F3006641001201259B4100120125D8420012CC
:101303000125024300120125A9AB03120125CEAB2F
:1013130003120125F8AB03120125FBC003120125BB
:10132300A65D001201250B6000120125AC610012BD
:101333000125606200120125F36200120125786322
:10134300001201259D6300120125F3660012012599
:10135300796700120125AC6800120125E6680012C6
:1013630001251B6900120125DB6A00120125386B78
:1013730000120125816B00120125EC6B001201257F
:101383005D6C001201258F6C00120125A76C001201
:101393000125F06D00120125006E001201251B6F5F
:1013A300001201253D6F00120125736F0012012504
:1013B300277100120125B47100120125F371001287
:1013C300012517730012012520BD0312012531BD2C
:1013D30003120125A4C103120125E3C10312012550
:1013E300E47F0012012581BE0312012591BE031281
:1013F3000125A9BE031201250FBF031201254EBA11
:1014030003120125D3BA0312012539BB03120125A7
:101413006A7E00120125937E00120125FE7E0012D2
:1014230001254F7F00120125AA7F0012012575AE09
:10143300031201258AAE03120125A6AF031201256B
:101443001AB00312012534B0031201254BB0031265
:1014530001255EB00312012578B0031201258FB078
:1014630003120125B5B00312012506B103120125AC
:10147300EAFF01120125D0A20312012560A3031282
:101483000125D0A30312012561A4031201256AA437
:1014930003120125E8A403120125FBA4031201256D
:1014A30067A503120125C7A503120125DAA50312B7
:1014B300012519BF0312012588BF0312012593BF1C
:1014C30003120125A3BF031201258BB603120125C5
:1014D300DDB60312012567B703120125CEB7031248
:1014E3000125A5FD01120125CFFD011201259DFE58
:1014F3000112012578FF011201251EDC02120125CC
:10150300E5DC021201251CDD0212012546DD021273
:101513000125A6DD02120125FCDD0212012561DE93
:1015230002120125F9DE0212012508E0021201254B
:101533009FE1021201252CE20212012593E202121D
:101543000125AAE202120125C4E30212012502E4E5
:10155300021201252F8E02120125B09102120125DC
:101563003893021201258F9302120125AE930212C2
:1015730001252C9402120125C29502120125A7967A
:1015830002120125B59A021201258B9B0212012535
:101593005FF301120125F2F601120125C5F70112CD
:1015A3000125F9F801120125A7FB011201250AFD06
:1015B3000112012591FD01120125FDF202120125FF
:1015C3004DF3021201256AF30212012501F50212FD
:1015D30001258BF50212012587F602120125B8F8C1
:1015E30002120125CDFF02120125EDC103E0667051
:1015F3001008A3E066700A08A3E066700408A3E07D
:101603006622C3E7960809E7960809E7960809E7FB
:101613009622C3E09608A3E09608A3E09608A3E009
:101623009622C008C3E096F50808A3E0964208088E
:10163300A3E096420808A3E09645087001D3D008BA
:1016430022080808E630E7111217BD12165C0808D5
:1016530008C64480C618181822181818E9799EC6B7
:1016630008CAC608CBC608CCC6C370207996CACBB5
:10167300CC7019798ECBCC70137986CC700EF9802F
:101683002ACA33CACB33CBCC33CC331930E7F2CCB1
:10169300CBCA3350147004EA30E00DE4CA3ACACB23
:1016A3003BCBCC3CCC500209C3E913C6CC18231363
:1016B300C6CB18C6CA18C6F922E6C333184618465D
:1016C300184622E7C33319471947194722E6084644
:1016D30008C3134608336002E633F422E7094709D7
:1016E300C3134709336002E733F4221216D0601C98
:1016F3001216DF60171216BC70071216C67001D3DC
:1017030022C0D01216C67006D0D0B322C32233D063
:10171300D0501430E0F6C3E7960809E7960809E7C6
:10172300960809E796B32220E0D5E6970809E697DD
:101733000809E6970809E697B322080808EAC0E013
:10174300EBC0E086F0E7A4FA180986F0E7A42AFACA
:10175300180986F0E7A42AFA180986F0E7A42AFAFA
:101763001986F0E7A4FBE5F02AFA190886F0E7A446
:101773002BFBE5F03AFA190886F0E7A42BFBE5F01A
:101783003AFA18180986F0E7A4C5F02BFBE43AFAF5
:101793001908E7C5F0C6A426F6E5F03BFBE43AFAE0
:1017A3001886F0E7A4F6E5F00826F6E43B08F6E42D
:1017B3003A08F6D0E0FBD0E0FA22181818E4C396F2
:1017C300F608E496F608E496F608E496F622601620
:1017D300080808C6C313C618C613C618C613C61806
:1017E300C613C6D5E0EA2270090808082260161855
:1017F3001818C6C333C608C633C608C633C608C6D8
:1018030033C6D5E0EA22E627F60809E637F60809E3
:10181300E637F60809E637F622E026F608A3E036AF
:10182300F608A3E036F608A3E036F622E026F00831
:10183300A3E036F008A3E036F008A3E036F022C3B5
:10184300E697F60809E697F60809E697F60809E623
:1018530097F622C3E096F008A3E096F008A3E0967B
:10186300F008A3E096F022E056F608A3E056F60847
:10187300A3E056F608A3E056F622E056F008A3E0EC
:1018830056F008A3E056F008A3E056F022E647F628
:101893000809E647F60809E647F60809E647F62287
:1018A300E0F608A3E0F608A3E0F608A3E0F622E6D4
:1018B300F008A3E6F008A3E6F008A3E6F022E0FAB6
:1018C300A3E0FBA3E0FCA3E0FD22EAF0A3EBF0A37B
:1018D300ECF0A3EDF022CAC0E0E6F0A308DAFAD0F8
:1018E300E0FA22CAC0E0E0A3C582CCC582C583CD9D
:1018F300C583F0A3C582CCC582C583CDC583DAE693
:10190300D0E0CA22C3E498F8E499F9121948802672
:10191300C3E49AFAE49BFBE920E7E9121948E49847
:10192300F8E499F922C3E498F8E499F9121948E420
:1019330098F8E499F9C3E49AFAE49BFB22EB20E7D5
:10194300CFE920E7E0B90010BB0008E88AF084F88B
:10195300AAF022E4FBC8FA22EB70227B10C833C83A
:10196300C933C9335007C39AC3DBF280069A5001C7
:101973002ADBEAC833F4C8C933F4C9FA2275F0087C
:10198300E4C833C8C933C933C99AC99B5004C92AA7
:10199300C93BD5F0ECFBC833F4C8E4C9FA22600DA7
:1019A30008C6A2E713C618C613C6D5E0F322600C17
:1019B30008C6C313C618C613C6D5E0F422700422A2
:1019C300600D18C6C333C608C633C6D5E0F4182263
:1019D300251810AF08F518400215198008F51840AE
:1019E300021519D2AF22C0D0251810AF08F5185030
:1019F3000205198008F51850020519D2AFD0D0227C
:101A03002518F58210AF08F518400215198008F55E
:101A13001840021519D2AF851983222518F582E4DF
:101A23003519F58322E4732518C582C0E0E519341E
:101A3300FFC583C0E0E518C3958224F810AF08857D
:101A430083198582188008858319858218D2AFCEC1
:101A5300F0A3E520F0A37808E608F0A3DEFAEFF0A0
:101A6300A3E58124FAF8E608F0A3E608F0A3E60864
:101A7300F0A30808E608F0A3E608F0A31581158192
:101A8300D0E0FED0E0F8158115811581E8C0E0EEC5
:101A9300C0E0222518C582C0E0E51934FFC583C024
:101AA300E0E518C3958224F910AF08858319858270
:101AB300188008858319858218D2AFCEF0A3E5205C
:101AC300F0A37808E608F0A3DEFAEFF0A3E581249B
:101AD300FBF8E608F0A3E608F0A30808E608F0A37D
:101AE300E608F0A315811581D0E0FED0E0F815815A
:101AF3001581E8C0E0EEC0E022851983851882E0F5
:101B0300A3FEE0A3F5207808E0A3F608DFFAE0A33C
:101B1300FFE0A3C0E0E0A3C0E0E0A3C0E0E0A3C017
:101B2300E0E0A3C0E010AF08858218858319800820
:101B3300858218858319D2AFD083D0820201228592
:101B43001983851882E0A3FEE0A3F5207808E0A3BB
:101B5300F608DFFAE0A3FFE0A3C0E0E0A3C0E0E003
:101B6300A3C0E0E0A3C0E010AF0885821885831905
:101B73008008858218858319D2AFD083D08222C092
:101B8300D02518C582C0E0E51934FFC583C0E0E560
:101B930018C3958224F310AF0885831985821880B2
:101BA30008858319858218D2AFC8F0A3E9F0A3EAA8
:101BB300F0A3EBF0A37908E709F0A3D8FAECF0A3BC
:101BC300EDF0A3EEF0A3EFF0A3D0E0F0A3D0E0F0AC
:101BD300A3D0E0F0A3E520F0A3E5F0F0A32285195C
:101BE30083851882E0C0E0A3E0F9A3E0FAA3E0FB59
:101BF300A37808E0F608A3DFFAE0FCA3E0FDA3E086
:101C0300FEA3E0FFA3E0C0E0A3E0C0E0A3E0F5D0C3
:101C1300A3E0F520A3E0A3F5F010AF0885831985B1
:101C230082188008858319858218D2AFD082D08329
:101C3300D0E0F8D0E03274048006740280027401AC
:101C4300C0E0F404121A03D0E01218D922740480FD
:101C53000474028000CCC0E0EDC0E0E518C39CCC66
:101C6300AD1950011D10AF068C188D1980068C1804
:101C73008D19D2AF1218E6D0E0FDD0E0FC22D0835C
:101C8300D082E9C0E0E493A3C386F0C5F095F0F9F0
:101C930008E493A386F0C5F095F0700BE493A3C317
:101CA300994005E9048002A3E475F002A42582F5B6
:101CB30082E5F03583F583D0E0F9E493A3C0E0E453
:101CC30093C0E022D083D082ECC0E0EDC0E0E49387
:101CD300A3FCE493A3FDED4C600D121D13EC24FF54
:101CE300FCED34FFFD80EFE493A3FCE493A3FDED4F
:101CF3004C600D121D52EC24FFFCED34FFFD80EF10
:101D0300D0E0FDD0E0FCE493A3C0E0E493C0E02284
:101D1300C0E0C3E49396087401939618400FE493CC
:101D230066700808740193661870007019A3A3C342
:101D3300E49396087401939618A3A3400DD0E0D0C2
:101D4300E0D0E0021D03A3A3A3A3A3A3D0E022C07A
:101D5300E0C0F088F0E49366700808740193661895
:101D63007000A8F0A3A3700BD0F0D0E0D0E0D0E0D7
:0A1D7300021D03A3A3D0F0D0E0226C
:101D800074F5121A96EAFEEBFFEE2434F8EF3400F5
:101D9000F988088909EE2435121EACF8EE243712B2
:101DA0001EACF50AEC850AF0A4FCAAF0850AF0ED59
:101DB000A42AFDE82CF8E43DF97A257B00121948A5
:101DC000EA850882850983F074075AF87401B8001F
:101DD000028004C333D8FCFBEA131313541FF8EE3C
:101DE00028F8EF3400F9E8245DF582E9121EAF5BB4
:101DF0006003EA801CEE2436121EACF5F0EA84A8DB
:101E0000F0EE28F8EF3400F9E82438F582E9121EE4
:101E1000AFF97F04021B4274F5121A96EAFEEBFF3B
:101E2000EE2434121EACC0E0EE2435F582EF34000F
:101E3000F583D0E0F08E828F83A3A3A3A3A3E0FA5F
:101E4000A3E0FB8E828F83A3A3A3A3A3A3A3E0FCA1
:101E5000A3E0FDECC39AF50AED9BF50BEE247FF5AC
:101E600008EF3400F509850882F583E06401702BE2
:101E7000EE2480F582EF3400F583121C54121EB557
:101E800074021219E9E960137CDC7D04EEFAEFFBC1
:101E9000120C96850882850983E4F0AC0AAD0BEE3E
:101EA000FAEFFB121D801226DB021E12F582EF34C0
:101EB00000F583E022C082C083851882851983E003
:101EC000F8A3E0F9C3EA9CEB9D5010C3EC98ED99A0
:101ED000401BC3EA98EB995014800EC3EA98EB9923
:101EE0004007C3EC98ED994004790180027900D055
:101EF00083D08222EAC39CFAEB9DFB2274ED121A76
:101F0000969003A2E064086005E06407702C90617D
:101F1000C8E060269003D0E0F874FF68601CE875A4
:101F2000F003A4C8AAF02AF974D228FE740339FF7A
:101F30008E828F83A3A3A3E07005790002209CEE1C
:101F40002468F510EF3400F511906060E085108290
:101F5000851183F0750A45750B0575080075090034
:101F6000E5D914F50EE5D95403F50F601CEE248273
:101F7000F50CEF3400F50D7403650F6058E50E6045
:101F800013EE2467121EAC700B793DEEFAEFFB12D4
:101F90000CBA80A6900540E064016026850C82851D
:101FA0000D83E06004780480027800850E08E5085F
:101FB000C398FA95E0FB120B3A8A088B09EA4509A7
:101FC0007006120F12021F3A850C82850D83E07095
:101FD000048A0A8B0B78008016E5D9C0E08812E5E8
:101FE0000A2512F582E50B3400F583D0E0F008E80D
:101FF000C3950E40E4850C82850D83E0602874FC57
:10200000250EF50E780A121C3DAC0EA90FEEFAEF64
:10201000FB120D6874021219E9E9700AAA08AB09EB
:102020001214D0021F897403650F6058850E0C7559
:102030000D00780C121C3DAC0AAD0BAA08AB0912BE
:102040000D2C74021219E9851082851183E0F87451
:1020500080687005750C7F8002880CE50CF50A78A5
:102060000A121C41E50FF50A780A121C41A90EACB0
:1020700008AD099003D0E0FA7B001209D274021275
:1020800019E980139003A2E06408600BAC0AAD0B61
:10209000EEFAEFFB120DFE120F1E79017F0C021BF0
:1020A0004274F3121A9674FC1219D3EAFEEBFF89FC
:1020B00008A2AFE433F509C2AFEE2463F50AEF34AA
:1020C00000F50B8010AA0AAB0B120CE41214D0908E
:1020D00004E3E004F0850A82850B83E0F8A3E0F9CD
:1020E000E849602FE82402FAE93400FBEA2402F50B
:1020F0000CEB3400F50D780C121C3D8A828B83E0CA
:10210000FCA3E0F9EEFAEFFB120CD874021219E905
:10211000E960B29004E3E060579004E4E0F89004D2
:10212000E3E0C398500C7402650870449004E5E045
:10213000603E8E828F83A3A3A3A3E08518828519B6
:10214000831221807402121A1EE81221809004E288
:10215000E028F07402121A1EAC82AD8385188285C5
:102160001983AA82AB8379011209DE9004E3E4F0BB
:10217000E509A2E092AF74041219E97F06021B423E
:10218000F0A3E4F09004E3E0F822000085218785C5
:1021900022C622C0E074EF121B82A2AFE433FEC25B
:1021A000AF759B00906182E0A2E05012E591A2E041
:1021B000500C7591FE740165217003121EFCE0A2A3
:1021C000E55051E591A2E5504B7591DF9003A2E0F7
:1021D00064076005E0640870237401652170357937
:1021E000019003D0E0FA75F003A4CAA8F028FB74AC
:1021F000D22AFA74033BFB1220A18018E0640D7010
:10220000139003C4E004F064287002E4F07A00E064
:10221000F9120F24906182E0A2E640030222BAE59F
:1022200091A2E640030222BA7591BF9003A2E06436
:10223000057008120E40120E4C8003120E467521D6
:1022400000120EB2E99003A3F07900120EA6120C50
:10225000007A017B009003A1E0F9121176907803D7
:10226000E064427055900544E014F0704DC2AF1226
:10227000227200782AD0E0F618D0E0F6E59F5407E5
:1022800070057509FF800375097FC4C0E07829E6F1
:10229000F50808E65509F509740B78081219B1D04C
:1022A000E02508F8906270E0A2E740F8E8C33390B8
:1022B0006272F0906270E0D2E0F0906181E0A2E39F
:1022C0005009E5E9A2E3500375E9F7A3E0A2E7505E
:1022D00009E591A2E7500375917FEEA2E092AF7FEE
:1022E00004021BE1C0E0C0D0C082C083906183E0E3
:1022F000A2E05009E5BFA2E0500375BFFEE0A2E1F5
:102300005009E5BFA2E1500375BFFDE0A2E250090C
:10231000E5BFA2E2500375BFFBE0A2E35009E5BFB1
:10232000A2E3500375BFF7E0A2E45009E5BFA2E4C1
:10233000500375BFEFE0A2E55009E5BFA2E55003E9
:1023400075BFDFE0A2E65009E5BFA2E6500375BF06
:10235000BFD083D082D0D0D0E032C0E074F2121B64
:1023600082E5A7A2E4500FE5A1A2E4500953A7EF2C
:1023700075A1EF1223AEE5A7A2E5500CE5A1A2E5F9
:10238000500653A7DF75A1DFE5A7A2E15009E5A13B
:10239000A2E1500375A1FDE5A7A2E2500CE5A1A2C0
:1023A000E2500653A7FB75A1FB7F01021BE174F805
:1023B000121A967521019003A2E0640670077A0054
:1023C0007B00120E28A2AFE433FED2AF9003A8E048
:1023D000640170187A207B009003A1E0F9121200CA
:1023E0007A207B009003A1E0F912117C906182E0D9
:1023F000D2E6F0900541E0602185C6228016900368
:10240000A7E064017008E5C654F84405F5C653BE5C
:10241000FC12218C7401652160E4EEA2E092AF7F92
:1024200001021B428E238F248582288583278518ED
:1024300082851983E0CEA3E0CF852882852783EBB0
:10244000C9EAC8EDCBECCA75F010C3E833C8E9336C
:10245000C9EA33CAEB33CBC3EA9EF526EB9FF525D9
:10246000B35004AB25AA26EC33CCED33CDD5F0DA4E
:10247000AE23AF242274F1121A968A088B098C0AB3
:102480008D0B90904C780812186A740F121A1E78EF
:102490000C1218A390904C780C12186A7808790CDA
:1024A00012160590903850107808790C121842785E
:1024B000081216254014800E780C790812184278FC
:1024C0000C12162550047901800279007F08021B46
:1024D0004274ED121A968A088B098C0A8D0B909023
:1024E0004C780812186A7413121A1E780C1218A36A
:1024F00090904C780C12186A780C790812160540E6
:10250000117808790C121842AA08AB09AC0AAD0B75
:102510008022751000751100751200751301781076
:10252000790C12184278107908121809AA10AB1108
:10253000AC12AD137F0C021B4290904C780812181D
:10254000A38A828B83780812187D7F04021B427451
:10255000F5121A968C828D8378081218A38A828BC2
:102560008378081218561225A3C3E098F0A3E099C7
:10257000122595401E90904078081218A38A828BED
:1025800083780812182F8E828F83E02420F0A3E036
:10259000344EF080A4F08E828F83C3E09420A3E0B9
:1025A000944E22EA2404F8EB3400F9E8FEE9FF8CAB
:1025B000828D83A3A3A3A3E0F8A3E0F98E828F8387
:1025C0002274F5121A96E9FE9004F7E0FAA3E0FBF4
:1025D000EEC333F8E433F9741028F582748F39F5BB
:1025E00083E02AF508A3E03BF5097808121C3D902A
:1025F00090681218C112242474021219E98A088BF7
:10260000098C0A8D0B741078081217D1AA08AB092F
:102610007F04021B4274F1121A968A0C8B0D8C0EE9
:102620008D0F740F121A1EE0FAA3E0FB7411121A38
:102630001EE0F508A3E0F5097808121C3DEA240124
:10264000F508EB3400F509E4F50AF50B780C790888
:1026500012173D90903078081218A3780C79081260
:10266000173DAA0CAB0DAC0EAD0F12242474021250
:1026700019E98B09EA450960047A0180027A00ECC5
:102680002AFCED3400FD7413121A1EE0F8A3E0F9E1
:10269000E8FEE9FFECF8EDF97A717B02121948883F
:1026A000088909E4F50AF50B8E828F8378081218E1
:1026B000B2ECF8EDF97A717B021219488A088B099D
:1026C000740578081219C08E828F83A3A3A3A3E593
:1026D00008F0A3E509F07F08021B42C082C083E92D
:1026E000906000F0D083D08222C2AF02000022C0EE
:1026F000E074F2121B82A2AFE433FED2AFC2C0E597
:10270000D1A2E4500653D1EF1214ACEEA2E092AF86
:102710007F01021BE1C0E074F2121B82A2AFE4331E
:10272000FED2AFE589A2E15003121428758900C2D8
:10273000C5EEA2E092AF7F01021BE1C0E074F2128D
:102740001B82A2AFE433FED2AFE58BA2E0500312AE
:102750001428758B00C2E880D8C0E0C0D0E8C0E083
:10276000E9C0E0E5A8D2AFC2C7A2E7A2E792AFD026
:10277000E0F9D0E0F8D0D0D0E032C0E0C0D0E8C07E
:10278000E0E9C0E0C008C009C082C083A2AFE43362
:10279000F9D2AF90089DE0F8A3E0687008539AFB67
:1027A000A374018026C2E990089DE0F50874012514
:1027B00008F074992508F58274083400F583E0F573
:1027C000C190089DE0C394044002E4F0E9A2E092C5
:1027D000AFD083D082D009D008D0E0F9D0E0F8D0D3
:1027E000D0D0E032FFFFFFFFFFFFFFFFC082C083BA
:1027F00090075FE0F8E94A6890075D603C7403F079
:102800007410697013EAC333FCE433FD74682CF56B
:102810008274073DF5838015E9702074016A7005A4
:1028200090095B800874026A701190095D124097EC
:10283000900762ECF0A3ED8001E4F00237F474F04D
:10284000121A2A74FE1219D38A088B097E007F009F
:10285000EEF8EFF97A027B00121940E8C333F50E67
:10286000E933F50F7468250EF50C7407350FF50D77
:10287000850C82F583A385820A85830B8518828562
:102880001983AC82AD837A02EE248DF9121548E9E2
:10289000601B74C2250EF582748F350FF583123BD1
:1028A000A3850C82850D83E8F0A3E9801A85188240
:1028B000851983E0850A82850B83F07401121A1E44
:1028C000E0850C82850D83F0E5082EF8E5091235C8
:1028D00057EE2402FEEF3400FFC3EE9408EF1237E8
:1028E0008F500302285074020242C974F7121A2A48
:1028F00074FE1219D3EAFEEBFF851882851983ACAA
:1029000082AD837A027995121548E9604590077087
:10291000E0600C1460142481601B14601F802890F8
:10292000095B74BDF0A37404803C90095B7403F0F0
:10293000A37405803190095B74E0800590095B7495
:10294000F5F0A37401801F90095B74FFF0A3743F3E
:102950008014851882851983E0F97401121A1EE02B
:1029600090095BF0A3E912354D7997121548E9609B
:1029700041900770E0600C146010248160171460AF
:102980001F802790095D74C6800590095D7465F00D
:10299000A37402803190095D7416F0A3740180263F
:1029A00090095D74F5F0A3E4801C90095DE4F0A348
:1029B0008014851882851983E0F97401121A1EE0CB
:1029C00090095DF0A3E9F090095C12368B90095BE9
:1029D000122A8C90095E122A9190095D122A9B742A
:1029E0000202398574F7121A2A74FC1219D3EAFE0E
:1029F000EBFF851882851983AC82AD837A047989CF
:102A0000121548E9602D9007707401F0900954C3C5
:102A1000E09458A3E09402500E900764E0640170C3
:102A2000069007707481F09007717402F0A3E4F0CF
:102A3000A38028851882851983E0900771F07401BE
:102A4000121A1EE0900770F07402121A1EE0F97458
:102A500003121A1EE0900772F0A3E9F0900770E0ED
:102A6000547F900FCA700474148002740FF0A3E4B2
:102A7000F090077112368B900770122A8C900773B2
:102A8000122A91900772122A9B023983122EB3F0F8
:102A900022122A9522122EB7A3F022122A9F221266
:102AA0002EB7A3A3F02274E8121A2AEAFEEBFF8CD9
:102AB0000A8D0B7418121A1E78101218A38E168F16
:102AC000178E088F09EE4F702F7A057B001211B810
:102AD0008A088B09AE08AF098E828F83A3A3A3A3B4
:102AE000E4F08E828F83A3A3E50AF0A3E50BF08EBA
:102AF000828F83E4F0A3804EEA2404F514EB3400C3
:102B0000F515909040781012181C85148285158355
:102B1000E0F50CE4F50DF50EF50F7810790C1216B2
:102B200005502A800488088909850882850983124E
:102B30003BD270F17A057B001211B8122B848514F8
:102B400082851583E004F08032880889098508822F
:102B5000850983123BD270F17A057B001211B812FD
:102B60002B848E828F83E0FEA3E0FF85148285157F
:102B70008312415EAA16AB171211BEEEFAEFFB7F6D
:102B800010021AFC8A0C8B0DA80CA90D888289836F
:102B9000A3A3E50AF0A3E50BF088828983E4F0A300
:102BA000F0850882850983E8F0A3E9F022C082C09D
:102BB0008312386E8A828B83F0900FC8E08A828BF2
:102BC000830237F274F4121A2A74FC1219D389089A
:102BD000900778E065087003022C928518828519A9
:102BE00083AA82AB83121296900956E0F50A75F01B
:102BF00005A4F8A9F0745F28FE740939FFE0C394B6
:102C0000C950198E828F831239751218C18E828F26
:102C100083A31218CD900956E004806B78007900E8
:102C2000E8FAE9FBEA75F005A4FAACF075F005EBFB
:102C3000A42CFB745F2AFC74093BFD8C828D83A35A
:102C4000A3A3A3A374051218E6E8240108E934003D
:102C5000F9E50A24FFFAE434FFFBC3E89AE99BA2F2
:102C6000D265D03340BAEE24FBF582EF34FFF58312
:102C70001239751218C1EE24FCF582EF34FFF5838A
:102C80001218CD900956E4F0E508900778F0790124
:102C90008002790074041219E9023F80C082C08367
:102CA000900760C3E09489A3E09413900760400507
:102CB000E4F0A38003123B930237F374F7121A2A4D
:102CC0008908740F5508F874F05508600A24F060FC
:102CD0003424F06067806F900957E070699009585C
:102CE000E0640260617401F07EF4FFE86012146039
:102CF0000514600680507A0180027A0279008037DC
:102D00001212B48041900957E0703B900958E0647A
:102D1000026033E4F07EF47F01E8600B14600C1471
:102D2000600D14600E801F7A00800A7A0180067A96
:102D30000280027A037910121230800A90095974C5
:102D400001F07E007F00E50890075FF0EEFAEFFBF0
:102D500002398874F0121A2AEAFEEBFF90903412BE
:102D60001C5090077D123BA3758307758266E0C3F4
:102D700098FCA3E099FD900779123BC912124874A0
:102D8000041219E9900779EAF0A3EBF07C007D00CA
:102D9000900779123BA38007E02CFCA3E03DFD885F
:102DA000828983E5822402F8E5833400F9E8FAE9B0
:102DB000FB123BD28A828B8370DEE02CF508A3E005
:102DC0003DF509900764780C1218A390077B780CE6
:102DD0001215F0600C9007647C7B7D077404121858
:102DE000E6900764780C1218A390077F780C1215F0
:102DF000F0603A900783123BA3C3EE98EF99502DF1
:102E00009007647C7F7D0774041218E6900783F0B6
:102E1000A3F07A04FB1211B88A0A8B0BAE0AAF0B2F
:102E2000122E901215C6EEFAEFFB1211BE90078318
:102E3000123E32AA08AB090242CC74F7121A2AECED
:102E4000FEEDFFEAC39EFAEB9FFB1212E4E9F508E0
:102E500090076AE0C39EFAA3E09FFB1212E4E965C3
:102E600008700479028002790102398874F6121A16
:102E70002A7A047B001211B88A088B09AE08AF09C0
:102E8000122E901215C6EEFAEFFB1211BE02371188
:102E9000900764123690F0900765122EB3F09007F9
:102EA00067122A95900766122A9FEEFCEFFD7A04BE
:102EB000790522122EB722123690A32274F6121A26
:102EC0002A7A087B001211B88A088B09AE08AF096C
:102ED000121236EEFCEFFD7A0879011215C6EEFAF1
:102EE000EFFB1211BE7A057B001211B88A088B091C
:102EF000AE08AF097C4C7D0D7A01799B121548E92B
:102F00006005900D4CE4F0900D4C12368BEEFCEF0A
:102F1000FD7A0579061215C6EEFAEFFB1211BE7A9C
:102F2000047B001211B88A088B09AE08AF0912128F
:102F300042EEFCEFFD7A0479001215C6EEFAEFFBC3
:102F40001211BE7A047B001211B88A088B09AE08F0
:102F5000AF0912123CEEFCEFFD7A0479031215C69C
:102F6000EEFAEFFB1211BE7A027B001211B88A084A
:102F70008B09AE08AF0912124EEEFCEFFD7A027912
:102F8000021215C6EEFAEFFB1211BE7A057B001293
:102F900011B88A088B09AE08AF091212EAEEFCEFED
:102FA000FD7A05790F1215C6EEFAEFFB1211BE7508
:102FB000C90043C90802371174EA121A2A89107528
:102FC0000A00750B007C007D0079008911E5106016
:102FD000351460142481601B1470407512F575134C
:102FE000017514F58915801775120375130575148D
:102FF00065801C7512E07513017514167515019026
:103000000785740280117512BD7513047514C67599
:1030100015029007857404F0A3E4F090095AE0F5D6
:10302000088909740378081219C085080E85090FEC
:1030300074C8250EF50C740E350FF50D74B8250EF9
:10304000F50E740E350FF50FEAC333F508EB33F5C3
:1030500009C3EA940112378E50030231919007623E
:10306000E0F514A3E0F515E512C39514F514E51386
:103070009515F515C3E5149414E515940050300921
:10308000900762E0C39512F50AA3E09513F50BE5EE
:103090000A2414F50AE50B3400123356E5129401A4
:1030A000E51312378F4006AC12AD1380028911125E
:1030B0003401EA9512EB9513A2D265D03350030286
:1030C000333DE50C2402F512E50D3400F513E50E51
:1030D0002402F582E50F3400F583E9A2E04049E5DA
:1030E00010700302328C14601B248160381460035A
:1030F00002334112337D121940123BBE12194012A5
:10310000334A8017EAF8EBF9123BC9121940880AD2
:10311000890BE508250AF8E509350BF98512828542
:1031200013830232B002326A12339570030232FA0C
:103130001460232481605714600302334112336505
:10314000121940123BBE121940880A890BEC250A5D
:10315000FAED350B8017ECF8EDF9123BC912194066
:10316000880E890FE50A250EFAE50B350FFB85124F
:1031700082851383123BA3E8850CF0A4F8ACF0859C
:103180000CF0E9A42CF9EA28F8EB390233320232C8
:10319000CA12378D400302333D900762E0C3951495
:1031A000F512A3E09515F513C3E5129414E51394F5
:1031B00000501B09E51224ECF50AE51334FF123325
:1031C0005612378F5006AC12AD138002891112349B
:1031D00001E49512F512E49513F513C3E5129AE58F
:1031E000139BA2D265D033500302333DE50E240673
:1031F000F582E50F3400F583E50E2404F50EE50FA6
:103200003400F50FE9A2E050030232B9E50C2406C0
:10321000F8E50D3400F9880A890BE50C2404F8E57B
:103220000D3400F9880C890DE510606014601B24D2
:1032300081603714600302334112337D121940124A
:103240003BBE12194012334A8017EAF8EBF9123BE1
:10325000C9121940880C890DE508250CF8E50935D7
:103260000DF9850A82850B83804612337D12194041
:10327000E8FCE9FDECC333FCED33FD850E82850FE0
:1032800083123BC912194012334A801DEAF8EBF948
:10329000850E82850F83123BC9121940880A890B5B
:1032A000E508250AF8E509350BF9850C82850D83BB
:1032B000E028FEA3E03902333A123395603C1460F3
:1032C0003F248160051470798006850E82850F8306
:1032D000E0FEA3E0FF123365121940E8FCE9FDECC3
:1032E000C333FCED33FDEEFAEFFB121940880A8977
:1032F0000BEC250AF8ED350B8023850E82850F83B4
:10330000E0FEA3E0FFECF8EDF9EEFAEFFB12194056
:10331000880E890FE50A250EF8E50B350FF9EE85C5
:103320000CF0A4FEAAF0850CF0EFA42AFFE82EF81A
:10333000E93FF9E82508FEE93509FF80047E007FB2
:1033400000EEFAEFFB7F0E021AFC88088909EC25D3
:1033500008F8ED350922F50BEAC3950AF512EB954D
:103360000BF513C322EC75F07FA4FCA8F075F07F79
:10337000EDA428FDECF8EDF97A327B0022EA75F035
:103380007FA4FAA8F075F07FEBA428FBEAF8EBF92C
:103390007A327B0022E511A2E0B3E433F50CE50AB2
:1033A0009AF8E50B9BF9851108E88508F0A4F885E3
:1033B000F0118508F0E9A42511F9EAC3950AFAEBA2
:1033C000950BFBEA850CF0A4FA85F008850CF0EB70
:1033D000A42508FBE82AF508E93BF509E50875F09E
:1033E00003A4F508A8F075F003E509A428F5098CF5
:1033F0000A8D0BE50AC333F50AE50B33F50BE5102F
:1034000022900785E0F512A3E0F513C32274F712AA
:103410001A2A74F61219D3E9FEEAC333FAEB33FB26
:1034200074682AF874073BF988828983ECF0A3ED6D
:10343000123977F088828983E0C0E07401121A1E85
:10344000D0E012354DEEF91215427A007B00EAF811
:10345000EBF9E8C333F8E933F97402121A1EE58276
:1034600028FCE58339FD746828F8740739F98882E7
:103470008983A3E08C828D83F088828983E08C82AB
:103480008D83A3123716940412378E40C174021232
:103490001A1EAC82AD837A0879011215C61212C0C9
:1034A000740A02398574F0121A2A74F61219D38A32
:1034B000088B09750E00750F00E50EC333FEE50F8E
:1034C00033FF74682EF50C74073FF50D850C82F5FB
:1034D00083A385820A85830BE5082EF582E5093FE3
:1034E000F583123BD26028850C82850D83123B88C0
:1034F00085188285198312356EC0E07401121A1E78
:10350000D0E012354DE50EC333248DF91215427407
:1035100002121A1EE5822EF8E583123557E50E24B5
:1035200001F50EE50F3400F50FC3E50E9404E50F29
:1035300012378F40847402121A1EAC82AD837A084F
:1035400079011215C61212C0740A0242C912397BDF
:10355000AC82AD837A02223FF9850A82850B83E033
:103560008882898312356E88828983A3F022F08550
:103570000C82850D83E02274EC121A2A8A0C7510D5
:10358000007511007512007513007A00850C088B08
:10359000098C0A8D0BEA33333354F878081217D1AB
:1035A000909000780812186A7403C39A3333335426
:1035B000F878081217EA781079081218900AEAC306
:1035C000940440C8AA10AB11AC12AD137F0C021AC0
:1035D000FC74F7121A2A74FC1219D3EAFEEBFF12DC
:1035E00011A01211A6121290851882851983121843
:1035F000CD851882851983EEFCEFFDECFAEDFB74A6
:10360000041218E602398374F4121A2A7A057B0030
:103610001211B88A088B09AE08AF09740C121A1E71
:1036200012368B78017900C3E498FAE499FB740CA4
:10363000121A1EE5822AF582E5833BF583A3A3A334
:10364000A3A3E0C0E0EE28F582EF39F583D0E012C5
:1036500037D440D3EEFCEFFD7A0579061215C6EE9D
:10366000FAEFFB1211BE740C121A1EE06018740DF2
:10367000121A1E78081218A3E5084509450A450BD9
:103680007004790180027900023F80123690F022A6
:10369000E08E828F832274F6121A2A900959E06014
:1036A000707A107B001211B88A088B09AE08AF0936
:1036B000900787E075F00FA4F8A9F0745F28F874FC
:1036C0000939F912368B900787E004F07A007B0005
:1036D000E82AF582E93BF583E0C0E0EE2AF582EFC7
:1036E0003BF583A3D0E0123716940F12378E40E0DB
:1036F000EEFCEFFD7A1079081215C6EEFAEFFB1218
:1037000011BE900787E0C394434006E4F090095946
:10371000F07F02021AFCF0EA24010AEB3400FBC33A
:10372000EA2274F6121A2A74FC1219D385188285BB
:103730001983AA82AB831212967A047B001211B805
:103740008A088B09AE08AF09780079008518828550
:103750001983E58228F582E58339F583E0C0E0EE40
:1037600028F582EF39F583D0E01237E69404E912A8
:10377000378F40D8EEFCEFFD7A0479071215C6EEBC
:10378000FAEFFB1211BE74041219E98084C3EB1224
:1037900037DE22C082C0838A828B83E0900D4CF09A
:1037A00078017900EA28F582EB39F583E0C0E0C3BF
:1037B000E498FCE499FD74512CF582740D3DF58379
:1037C000D0E01237D440DD7C4C7D0D7A01799B121C
:1037D000154280201237E69405E91237DE22940064
:1037E000A2D265D03322F0E8240108E93400F9C3FD
:1037F000E822A3F0D083D082020122C082C083904D
:103800000958E4F090075DF090075FF0900952F0DE
:1038100080E0C082C0838A828B83A3E0F8748168D1
:10382000600D74016860087480686003E8700BEADA
:10383000FCEBFD7A04798912154212127880B5C02A
:1038400082C08374FE1219D312386E8518828519CE
:1038500083F0900FC8E0C0E07401121A1ED0E0128D
:10386000354D79021215C674021219E98086900747
:1038700068123BA7A3E028F8A3E039C313F9E813C3
:10388000900FC8F0A3E9F02274F7121A2A74F81204
:1038900019D3EAFCEBFD8C828D83E0C0E074011249
:1038A0001A1ED0E0F08C828D83A3E08518828519E2
:1038B00083F0EC2402FEED3400FF8E828F83E0C0A3
:1038C000E07403121A1ED0E0F08C828D83A3A3A3B0
:1038D000E0C0E07402121A1ED0E0123977123BD217
:1038E00090095B600C123B887A0279951215428030
:1038F0000C123BA3851882851983123B887402122F
:103900001A1E123BD290095D6010123B88EEFCEF4C
:10391000FD7A027997121542800B123BA3740212B2
:103920001A1E123B887401121A1EE0C0E0740412C1
:103930001A1ED0E0124159C0E07405121A1ED0E0E0
:10394000F07403121A1EE0C0E07406121A1ED0E0D2
:10395000F07402121A1EE0C0E07407121A1ED0E0C2
:10396000F07404121A1EAC82AD837A047903121526
:10397000C674088010E50812397B22F0851882850C
:1039800019832274041219E97F01021AFC74F012DF
:103990001A2A900764E06401705D900766123BB7D5
:1039A000123B88900788123BB7E0687003A3E06978
:1039B0006039E8496039900954E0C398F508A3E0FC
:1039C00099F5093395E0F50AF50B7808121644E5E8
:1039D0000BC2E7F50B909004780C1218A3780879C5
:1039E0000C1216EE50099007888014E849701F12D7
:1039F0003BA0900788800BE06406600C90095B1286
:103A00003BB7E8F0A3E980059009587402F09007ED
:103A10005DE0703F90075EE064037027C390095338
:103A2000123B8E5003023B64900952C3E09401A301
:103A3000123B8E4003023B3975800053FD0F900707
:103A40005E800CE07003023B8575800053FD0FE43F
:103A5000023B84F890075EE0687003023B00900729
:103A60005DE0146009146017146026023AF69009AC
:103A700054C082123BADD0821242D15079802D9039
:103A8000095D123BC9123BA0C3EA98EB99506780CD
:103A90003590095BC082900762123BA3758309D001
:103AA000821242D1500F90095B123BA3900762E84B
:103AB000F0A3E9801890095D123BC9900762C3E04A
:103AC0009AA3E09B5008900762EAF0A3EBF09007FE
:103AD00070E0F9900762C082900954123BC9758367
:103AE00007D082E0C39AFAA3E09BFB12127E9009F2
:103AF00052EAF0A3EBF090075DE090075E023B8492
:103B0000900952123BD2701675800053FD0F90073A
:103B10005DE4F090075FF0900958740280669007AA
:103B20005DE014600514602A805B900954C0821225
:103B30003BADD0821242D1503F900957E07006430E
:103B4000FDF0758040900952E024FFF0A3E034FFBF
:103B5000803290095DC082123BA0758309D0821229
:103B600042D15014900957E0700643FDF0758080F3
:103B7000900952123B93800C75800053FD0F900901
:103B800052E4F0A3F00242CCE8F0A3E9F022E01204
:103B900037DE22123B9722E02401F0A3E03400221A
:103BA000900954123BA722E0F8A3E0F92290095BA8
:103BB000123BA775830922123BA790095422E8FC07
:103BC000E9FDECC333FCED33FDE0FAA3E0FB22900A
:103BD0000766123BA7E84922C082C083E590540FD4
:103BE00090078AF0900958E064017003023E289023
:103BF000078AE0640F900958702BE4F090075DF09D
:103C000090078B740FF090078CE4F090075EE064EF
:103C1000037009900957E07003023E287580005335
:103C2000FD0F023E287402F0900957E06003023E47
:103C30002890078BE0F890078AE0687003023DC582
:103C400090075EE064037003023DAD90078AE024B4
:103C5000FD7003023D3124FE605024FE603024FEDE
:103C60007003023D5D24FE7003023CF624FE6009F1
:103C7000147003023DA0023DBC900764E06406702E
:103C800005123BCF701590075D7401023DBB900794
:103C900064E06406700C123BCF600790075DE4029D
:103CA0003DBB90075D7402023DBB900764E0640673
:103CB000601E900768E0F47003A3E0F47003023D17
:103CC000BC90075D7403F0900768123BA3023D7837
:103CD000123BCF6003023DBC124094798D7A007B89
:103CE00000121284900957E06003023DBC43FDF0CE
:103CF0007580C0023DBC900764E06406600D9007CB
:103D00006A123E2B706A74FF698065123BCF6003B4
:103D1000023DBC124094798F7A017B00121284908C
:103D20000957E06003023DBC43FDF0758020023D71
:103D3000BC900764E06406600590076C802A123B23
:103D4000CF707912409479917A027B00121284909C
:103D50000957E0706743FDF07580A0805F900764AD
:103D6000E06406601C90076E123E2B700374FF69BE
:103D7000604A90075D7403F0900762E8F0A3E98061
:103D80003A123BCF703612409479937A037B00123B
:103D90001284900957E0702443FDF0758060801C08
:103DA00090075DE4F043FDF0758010800F90075D93
:103DB000E4F090075EF0900952F0A3F090078AE0DB
:103DC00090078B8062E0640E705E75800053FD0F7B
:103DD00090078DC3E09410A3E094004022900D5111
:103DE000E090075D70117401F0900D51F09007653F
:103DF000E0F91212F080087402F0900D51E4F09096
:103E0000078CE0702390078D123E3290078DC3E03F
:103E10009419A3E09400401090075DE4F090078DA2
:103E2000F0A3F090078C04F00237F4123BA774FF64
:103E30006822123B97F02274F4121A2AE9FE7404E5
:103E40006E6003023F6A900760123BD27003023F2C
:103E500079900760C3E0941EA3E09400500D7C04A9
:103E60007D007A8F7B071214B880077A047B0012DA
:103E700014BE90078FE0900797F0900790E0F990BC
:103E80000798F0900791E0FA900799F0900792E078
:103E9000FB90079AF090900878081218A390079367
:103EA00078081215F0707290900C78081218A39090
:103EB000079778081215F0604C9007977808121849
:103EC000A374016508700474026509601490079773
:103ED00078081218A37401650870047401650970EC
:103EE0002490901078081218A3900797780812155C
:103EF000F0601290901478081218A3900797780831
:103F00001215F070149007977401F0A37404F0A3D5
:103F10007401F0A374AAF0806090079778081218D3
:103F2000A374016508700474056509700E90079309
:103F30007C977D0774041218E6800FE9900764F0FF
:103F4000EA900767F0EB900766F090079778081201
:103F500018A390079378081215F0601D9007977CBE
:103F6000937D0774041218E6800FEEC39405400990
:103F70008E08AA087B001214BE900760E4F0A3F03C
:103F80007F04021AFC74F4121A2AEAFEEBFFEEF820
:103F9000EFF9E8C333F8E933F9900770E0600C14E7
:103FA00060112481601514601A80227508D8750983
:103FB0000E801A7508E275090E80127508D8750909
:103FC0000E80067508E275090EE8FEE9FF123BA0B7
:103FD000758307758262E0C398FAA3E099FB8508B0
:103FE00082850983124097C3EC9EED9FA2D265D0D3
:103FF00033502E900770E0F912127E8A0A8B0BACB8
:104000000AAD0BEEF8EFF9850882850983A3A312A8
:104010003BC9121940880A890B850882850983806B
:1040200047C3E49CF8E49DF9C3EE98EF99A2D265EA
:10403000D033505D900770E0F912127E8A0A8B0B24
:10404000AC0AAD0BEEF8EFF9850882850983A3A3CE
:10405000A3A3A3A3123BC9121940880A890B8508A0
:1040600082850983A3A3A3A3A3A3A3A3123BA3E8CD
:10407000850AF0A4C8AAF0850BF0A42AFA850AF0F4
:10408000E9A42AF9ECC398F8ED99F9900952123B8A
:1040900088023F80900954E0FCA3E0FD2212378D96
:1040A000500479008002790102012274F7121A2A61
:1040B00074FB1219D3EAFEEBFF851882851983ACD5
:1040C00082AD837A05799C121548E96026851882AD
:1040D000851983E4F004121A1E7403F014121A1ED8
:1040E0007484F07403121A1E7407F07404121A1EFA
:1040F0007408F07402121A1EE0FA7401121A1EE01B
:10410000F9EA900776123B897404121A1EE0FA74D9
:1041100003121A1EE0F9EA900774F0A3E91241595C
:10412000900D53F0900D51E4F0900D54741EF0A3D7
:10413000E4F0A3F0A3F0900D5312368B90077712A2
:104140002A8C900776122A91900775122A9B900765
:104150007412415E740502398512397BE022122EF9
:10416000B3A3A3A3F022C082C083E9602B740269C9
:104170007004740180027402900D52F064017005A5
:104180009007768003900774123BC9900D54EAF0B3
:10419000A3EBF0A3E4F0A3F00237F474F0121A2AB0
:1041A00074FC1219D38A828B83A3A882A983E0F5B9
:1041B0000CEA2402FCEB3400FD850C088C828D8314
:1041C000E0FFE508851882851983F0A3EFF0EA2463
:1041D00004FEEB3400FFEA2403F508EB3400F50994
:1041E000850882F583E0F50E8E828F83E0F50BE57E
:1041F0000EF50A7402121A1EE50AF0A3E50B12412D
:1042000059F50AA3E0F50BE50A450B6010E50C90A3
:104210000777F08C828D83E0900776801190077786
:10422000E088828983F0900776E08C828D83F07439
:1042300002121A1E123BD26015850882850983E09E
:10424000900775F08E828F83E0900774801190073D
:1042500075E0850882850983F0900774123690F026
:104260008A828B83E0F8740F58640F6008747F585B
:10427000900D538008900D53E08A828B83F08A82E0
:104280008B83E0A2E7502A900768123BA375830F47
:104290007582C81242D14011900FC8123BA375839A
:1042A0000775826A1242D150088A828B83E0C2E786
:1042B000F08A828B83E05480900D51F01C1CEBFD42
:1042C0007A05799C12154274041219E97F08021AC2
:1042D000FCC3E098A3E09922C082C083900D52E015
:1042E000640190075D70087403F09007688006749D
:1042F00003F090076A123BA3900762E8F0A3E9027B
:1043000037F3C082C083900958E07034900D52E0BA
:10431000640190075D70107403F0900954E024FB71
:10432000F8A3E034FF800E7403F0900954E02405F4
:10433000F8A3E03400F9900762123B88790180020B
:1043400079000237F4C082C083E9900E74F0024510
:10435000D474F7121A2AE99002E1F07C197D037AED
:10436000FF7BFF1209249002E274FFF0A3F0A3E4A4
:10437000F0A3F079051208AC9002E1E0F91207CE43
:104380007A427B09120AEC7F01021AFC74F4121AB9
:104390002A8A088B09EB548060309002E1E0F91220
:1043A000115E8A0A8B0BAE0AAF0BEE4F60138E8242
:1043B0008F83E064B070031208C4EEFAEFFB1211B1
:1043C0004CAA08E5096480FB80047A007B00024562
:1043D000A374F2121A2A74FC1219D3EAFEEBFFEE50
:1043E0004F60387402121A1EEEF0A3EF124808EC68
:1043F000F0A3ED124808AA82AB831207C8E9F508BA
:1044000070737412121A1E1253BCE50A450B6065D4
:104410008E828F8312447FEE4F700575080280559F
:104420007A067B001211B88A0C8B0DA80CA90DE836
:10443000497005750813803D88828983E412448998
:10444000A3A3EEF0A3EF125855E50AF0A3E50BF095
:104450009002E71245119002E76017E0FCA3E080AC
:1044600003EAFCEBFD8C828D8312451170F38C8284
:104470008D831252E1A90874041219E9025A57A354
:10448000A3A3A3E0FEA3E0FF22F0A3F08882898328
:104490002274F2121A2A890AE975F017A4FEAFF005
:1044A0009002E6E4F09002E4124511600A1211BE97
:1044B0009002E4E4F0A3F0EEFAEFFB1211B88A08E0
:1044C0008B09EA4509602FEEFCEFFD790012113AE5
:1044D0009002E4E508F0A3E509F07B0080081244AF
:1044E000FBE4F0A3F00BEBC3950A40F2E50A90025F
:1044F000E6F0790080027913025A57EB75F017A4A1
:10450000F8A9F09002E4E028FAA3E0398A82F58362
:1045100022125077EA4B2274F4121A2A7508007599
:104520000900740C121A1E125829FEE9FF800CE5CE
:10453000082401F508E5093400F509C3E5089CE500
:10454000099D503285080A85090B7403780A1219EF
:10455000C0EA250AF8EB350BF988828983A3A3A367
:10456000A3A3A31253BCEE650A7003EF650B70BFE3
:10457000E8FAE9FB80047A007B00802774F4121AC1
:104580002A7900EAA2E0501B7508F075098F7808B7
:10459000121C3D7C047D007A767B0E1208A6740204
:1045A0001219E97F04021AFCC082C0839002E7124C
:1045B00045DB601C88828983A3A3E06A7003A3E0C3
:1045C0006B8882898370E8A3A3A3A312507380042D
:1045D0007A007B00D083D082020122125B2AE84954
:1045E0002274EE121A2A74FC1219D3EAFEEBFF852C
:1045F0001882851983E4F0A3F0EE24021252C5EE6E
:1046000024051247F6EE2404F50EEF124BDBE024EE
:10461000FE603924FC604624FE605224FE605E2465
:10462000FE70030246FB24FE700302477324FE70F3
:104630000302478224FE700302479124FC700302A8
:1046400047A024FE70030247AF0247EC90030074BA
:1046500017F0A3E41248101205460247EC851882B1
:10466000851983AC82AD831208CA0247BC851882C3
:10467000851983AC82AD831208D00247BC850C0833
:10468000850D097402121A1EAC82AD8385088285DD
:1046900009831250731207EC8A0C8B0DAC0CAD0D14
:1046A000EC4D6042E4F50CF50D780C121C3D750CD8
:1046B00000750D03780C121C3D750C01750D037807
:1046C0000C121C3D7408121A1E121C54791612503A
:1046D0006D12090C74081219E9E9F50C700B1250EF
:1046E0006912055E800F750C0185088285098312A9
:1046F00047FE1252E1850C080247BF7402121A1ECF
:10470000AC82AD83850C82850D831250731207EC49
:104710008A108B11AC10AD11EC4D6043850C828575
:104720000D83A3A3121C5475100075110378101289
:104730001C3D7510017511037810121C3D74081290
:104740001A1E121C54791612506D12090C7408129C
:1047500019E9E9F509700B125069120564800F75AB
:104760000901850C82850D831247FE1252E18509ED
:1047700008804C851882851983AC82AD831208D6D7
:10478000803A851882851983AC82AD831208DC805B
:104790002B851882851983AC82AD831208E2801CB8
:1047A000851882851983AC82AD831208E8800D8557
:1047B0001882851983AC82AD831208EEE9F508E50D
:1047C0000860298E828F83A3E06414601F850E82A7
:1047D000850F83E0900300124808125B26900301C6
:1047E0001252E1E508A3124810120540EEFAEFFB61
:1047F00012086A0251CDF50CEF3400F50D22125B60
:104800002A85188285198322F085188285198322CA
:10481000F07C007D03850A82850B83125077227419
:10482000EE121A2A74FC1219D38A0A8B0B8C0E8D85
:104830000FEA2405F508EB3400F5097C157D0079B5
:10484000007A007B0312113AE5082402F50CE50911
:104850001247F9851882851983858210858311781E
:1048600010121C3D850882850983A3A3A3A3124DC2
:1048700023121C3DE5082405F510E5093400F51167
:104880007810121C3D850C82850D8312507D120715
:10489000E674061219E98A108B11AE10AF11E50A01
:1048A0002402F50AE50B1252C8EE4F70030249E5E7
:1048B00080177402121A1E12507388828983EAF0DC
:1048C000A3EBF0900300E004F0900300E0C3940534
:1048D00040030249E5E4F510F5117810121C3D750E
:1048E00010E97511027810121C3D7510EA7511025D
:1048F0007810121C3D7406121A1E121C547910EE08
:10490000FCEFFD12506D12090C74081219E9E970E0
:104910005E850882850983A3A3A3A3A3A3A3E0F8CC
:104920009002E9E0687048124D23121C3D7CEA7D3C
:1049300002E5082408FAE5093400FB121134740278
:104940001219E9E960298E828F83A3A3A3A31250D1
:1049500073900300E0F510740278101219C074010E
:104960002510F58274033511F583EAF0A3EBF0749A
:1049700002121A1E8582108583117810121C3D7454
:1049800002121A1E121C54850C82850D83125B3B89
:104990001207F274041219E98A108B11AE10AF11CC
:1049A000900300E0F510751100740278101219C020
:1049B00074002510F874033511F988828983A312D5
:1049C000451170030248A9E82403F8E93400F9EE20
:1049D0004F60030248B28882898374FFF0A3F0908D
:1049E0000300E004F0900300E0600A125069120531
:1049F000527900800B8508828509831252D8790A82
:104A00000251CD74EA121A2A74FE1219D38C128D37
:104A100013EA2405F50CEB125CA51244837508001B
:104A2000750900EA2402F510EB3400F511851882AF
:104A300085198385820A85830B780A121C3D850CB3
:104A400082850D83A3A3A3A3124BE5121C3DE50CA5
:104A50002405F50AE50D1252C8780A121C3D850C92
:104A600082850D83125B391207E674061219E98AF2
:104A70000A8B0BEA450B7003024B96EA2404F50EF1
:104A8000EB124BDB1244838A828B83A3A3A3E0F94E
:104A90008510828511831250731207D4E9F50960DD
:104AA00003024B96E4F514F5157814121C3D7514A9
:104AB000E97515027814121C3D7514EA7515027813
:104AC00014121C3D7406121A1E121C547913AC0ADF
:104AD000AD0B85108285118312507312090C740876
:104AE0001219E9E9F5096003024B969002E9E0F832
:104AF000E5087009E02402900301F080179003019B
:104B0000E0FCE82402FAE43400FBEA6C7001EB609C
:104B100003024B9A850882AA82124D1A9414124DF0
:104B2000125073850E82850F83E0C0E074022A1252
:104B30004BD2D0E0F00508850E82850F83A3E0C03C
:104B4000E085080A7402250A124BD2D0E0F005086D
:104B50009002E9124BE5121C3D7CEA7D0285080AB1
:104B60007402250AFA74033400FB12112274021233
:104B700019E99002E9E02508F50874FF6E700374E6
:104B8000FF6F6012EE24010EEF3400FFE508C394BE
:104B9000145003024A2DE5086013124F5E851082FF
:104BA00085118312507312055879008014E509703D
:104BB0000375090A851282851383EEF0A3EFF0A92D
:104BC0000974021219E97F0E021AFC85080C74029E
:104BD000250CF58274033400F583223400F50F852B
:104BE0000E82F583221258682274EE121A2A74FE7D
:104BF0001219D38C0E8D0FEA2405F50CEB1247F930
:104C0000750B00900300E4F0F50AEA2402F508EBC6
:104C10003400F5098049900300E0FA9002E9E0F8D9
:104C2000124D1A9417124D12400D900300E0F874C3
:104C300016C3989002E9F0124D23121C3D7CEA7DC8
:104C40000274012AFA74033400FB12112274021256
:104C500019E99002E9E0F8900300E028F0050AE580
:104C60000C2416F582E50D124BD6E0F8E50AC39840
:104C70004003024CFB900300E0C39416507DE50A0C
:104C8000C333F8E433F9E50C28FEE50D39FF851848
:104C900082851983AC82AD838E828F83125073120A
:104CA00007EC8A108B11AC10AD11EC4D7005750B33
:104CB000018043E4F510F5117810121C3D7510E9E0
:104CC0007511027810121C3D7510EA7511027810EA
:104CD000121C3D7406121A1E121C54791685088285
:104CE00085098312507312090C74081219E9E9F549
:104CF0000B7003024C161252D480107C007D038589
:104D0000088285098312507312056AA90B74020286
:104D100051CFE99400C365D03322EA28F8E4340087
:104D2000F9E822E0F51075110078102274EA121AE1
:104D30002A74FC1219D38A0C8B0D8C128D13EA2461
:104D400005F50AEB1252C8750800750900E50A243A
:104D500002F510E50B3400F5117402121A1E85825B
:104D60000E85830F780E121C3D850A82850B83A366
:104D7000A3A3A3125814121C3DE50A2405F50EE561
:104D80000B3400F50F780E121C3D851082851183BF
:104D90001252CE12506D1207E674061219E98A0EED
:104DA0008B0FAE0EAF0FE50C2402F50EE50D3400AF
:104DB000F50F80408882898374FFF00508124BCB81
:104DC00074FFF005089002E9E0F50C750D00780C11
:104DD000121C3D7CEA7D0285080C7402250CFA74D5
:104DE000033400FB12112274021219E99002E9E067
:104DF0002508F508EE4F60718E828F83A3A3A3E090
:104E0000F9850E82850F831250731207D4E9F509D4
:104E1000EE24041247F6E97044E4F514F51578140D
:104E2000121C3D7514E97515027814121C3D751499
:104E3000EA7515027814121C3D7408121A1E121C11
:104E4000547911EEFCEFFD850E82850F83125073AD
:104E500012090C74081219E9E9F5096027850C821A
:104E6000850D83124F541252E1E5087003024F3A48
:104E7000124F5E850E82850F831250731205707972
:104E800000024F4F850882AA82EA9002E97009E089
:104E90002404900301F08022E0F8900301E0F5146F
:104EA000E82404FCE43400FDEC65147001ED70C0EE
:104EB000124D1A9412124D1250B6850C82850D8334
:104EC000E0C0E074022A124BD2D0E0F00508850C55
:104ED00082850D83A3E0C0E0124BCBD0E0124F706F
:104EE00085820C85830D780C121C3D7404121A1EE9
:104EF000121C54851082851183125B3B1207F274D9
:104F0000041219E98A0C8B0DAE0CAF0D85080C74D8
:104F100002250CF874033400F9EE4F7003024DB40F
:104F2000851882851983E088828983124F70A3E0F7
:104F3000C0E0124BCBD0E0024DC2E5097003750909
:104F40000A850A82850B83124F541252E1A9097413
:104F500004024BC3125B2A851282851383229003BD
:104F600001E0F5F0E50884900300F07C007D032269
:104F7000F005088518828519832274EC121A2A74A8
:104F8000FE1219D38A088B098C0E8D0FEA2405FEB8
:104F9000EB3400FF851882851983AC82AD838E8245
:104FA0008F831250731207EC8A0A8B0BEE241812AF
:104FB00047F6EA450B70030250441251B650328551
:104FC00018828519831250731209008A108B11EA16
:104FD0004511606B7912AC0AAD0B85088285098397
:104FE000125073851082851183121A28E9F50A7010
:104FF00058E4F50AF50B780A121C3D8E828F83A3C4
:10500000A3E0F50A780A121C3DEE24031252C5787B
:105010000A121C3D8E828F8312507D120912740673
:105020001219E9E9F50A7021850C82850D83E0707B
:105030001F850882850983125073120576801175C9
:105040000A0E8009750A018004E50A60031252D431
:10505000850C82850D83E0600479008002A90A74C2
:10506000021219E97F0C021AFC7C007D03850A827A
:10507000850B8312507722E0FAA3E0FB22E0FCA329
:10508000E0FD8508828509831250772274EE121A9A
:105090002A74FE1219D38A088B098C0C8D0DEA2410
:1050A00005FEEB3400FF750E00851882851983AC70
:1050B00082AD838E828F831250731207EC8A0A8B23
:1050C0000BEA450B70030251A21251B650358518F8
:1050D000828519831250731209008A0E8B0FEA45DC
:1050E0000F605E7912AC0AAD0B85088285098312C8
:1050F0005073850E82850F83121A28E9F50E60031E
:105100000251A58508828509831253BCAA0AFB12A5
:1051100008F48A108B11A810A911E849701E7AFFB3
:105120007BFF1208F48A108B11A810A911E84960BE
:105130006C88828983E50AF0A3E50BF0750A00808C
:1051400007750E0E805F050A9002E6E0FAE50AC3D5
:105150009A504AE50A75F017A4FAABF08882898361
:10516000A3A3E02AFAA3E03BFB8A828B831252CEF0
:10517000EC4D70D2750A17750B00780A121C3DEEC3
:10518000FCEFFD12112274021219E9EEFCEFFD850D
:10519000088285098312507312057C8014750E09EC
:1051A0008003750E01125B22850C82850D831252DD
:1051B000E1A90E024D0DE5082402F508E5093400C9
:1051C000F5098A828B83A3A3A3E0A2E522740412CB
:1051D00019E97F0A021AFC74EC121A2A8C108D113C
:1051E000EA2405F50CEB1247F9750F00EA2402F5E5
:1051F0000AEB1252C8850A82F5831250731208F422
:105200008A088B09EA450970030252BA750E0080BC
:1052100071850C82850D83E06401704F8E828F83CF
:10522000A3A3121C548E828F83A3A3A3A3E0F51221
:105230007513007812121C3DEE2405F512EF3400B0
:10524000F5137812121C3D12506D120912740612D9
:1052500019E9E9F50F6014850C82850D83E4F012DD
:105260005B228510828511831252E17C177D0079C3
:1052700000EEFAEFFB12113A8E828F83E4F0A3F076
:10528000050E9002E6E0F8E50EC398501EE50E7597
:10529000F017A4F8A9F0850882850983A3A3125CFE
:1052A000AF1252CEEC4D600302521185088285097F
:1052B0008374FFF0A3F0E50F700612506D120582A3
:1052C000A90F025064F50AEF3400F50B22A3E0FCAD
:1052D000A3E0FD228E828F83125B2A850E82850FCA
:1052E00083E8F0A3E9F022C082C0839002E2E06A82
:1052F0007003A3E06B70067AE27B0280047A007B85
:10530000000245D4C082C08378008C828D83E06A1D
:105310007003A3E06B7010E875F003A4F8A9F0EC3B
:1053200028FAED39FB8015088C828D83A3A3A3E0B6
:105330006A7003A3E06B60DF7A007B000245D474DF
:10534000F6121A2A1208BE8A828B83E58245837080
:10535000067A007B008007A3A3A3A312507302590F
:10536000D374F2121A2AE9FE740E121A1E1253BCDA
:105370007410121A1E1258348C828D83E0640270ED
:1053800036A3125B30F50CA3E0F9A80C7402687028
:10539000037429697021750C02750D00780C121CBC
:1053A0003D7808121C3D780A121C3DEEF9120936B0
:1053B00074061219E980027901025A57E0F50AA32E
:1053C000E0F50B2274E8121A2A74FB1219D3E9854E
:1053D0001882851983F08A168B17ECFEEDFF751085
:1053E00000741D121A1E125B26741D121A1E125210
:1053F000E18E828F83A3A3A3E0A2E4502D741D123B
:105400001A1E1250731209008A828B83E58245832B
:105410007003025805790AEEFCEFFDAA16AB1712CD
:105420001A28E9F5106003025808741F121A1E1298
:1054300058347421121A1E1253BC7423121A1EE01F
:10544000F50EA3E0F50F8E828F83E0640260030205
:1054500057B3A3125B26850882850983A385821230
:10546000858313EE24061247F688828983E0FAA327
:10547000E0F9EA2400F514E439F5157814121CC794
:10548000010000280128A854070002286D550328B0
:10549000DA540029A4560129CF560229705603294F
:1054A000A45604294E57B357E50E450F6003025723
:1054B000AE850C82850D83125829FAE9FB8A828B0E
:1054C00083E0850A82850B8312585F121C3D8A8215
:1054D0008B83A3E0FCA3E0025738E50E450F600381
:1054E0000257AE850A82850B837401F012583C8501
:1054F0000882850983F07C007D008E828F83A3A3C0
:10550000A3A3E02401FAA3E03400FB1207ECEA4B6A
:1055100060418A828B83E02402F8850A82850B83AE
:10552000E028F0EA2404F8EB3400F988828983E06B
:1055300085128285138312587112585F121C3D8A9E
:10554000828B831252CDE5082403FAE5093400FB6F
:1055500002573D850A82850B83E02404F07C047D9C
:10556000007900AA12AB1312113A025808E50E4551
:105570000F60030257AE12583CFEA3E0FF850A827B
:10558000850B837404F0EE850882850983F0EF852E
:105590001282851383F07403121A1EAC82AD83EE5F
:1055A000FAEFFB1207EC8A0C8B0DEA450D70030233
:1055B00056518A828B83A3A312447F7401121A1E50
:1055C00085820E85830F780E121C3D7405121A1EFB
:1055D000121C547CFF7DFF1207F274041219E98B30
:1055E0000FEA450F7033850C82850D831258141213
:1055F0001C3D850C82850D83A3121C547C027D000A
:105600007AA97B9012061E74041219E9E9700A74D3
:1056100001121A1E74FFF0A3F08E828F83E06402E1
:105620007039750C02750D00780C121C3D8E828F3E
:10563000831252CDE5082404FAE5093400FB121167
:105640002274021219E9850A82850B83E024028004
:10565000097401121A1EEEF0A3EFF07401121A1E63
:10566000125825F07401121A1EA312581D0257A8D1
:10567000E50E450F60030257AE850C82850D83123F
:1056800052CEAA16AB1712092A850A82850B83749B
:1056900002F0EA850882850983F0851282851383EA
:1056A000EB0257ABE50E450F60030257AE12583CB4
:1056B000F8A3E0F9850A82850B837402F0E8850877
:1056C00082850983F0E98512828513830257AB85B1
:1056D0000C82850D8312507312111CEAFC8C82A877
:1056E00082C3950EE4950F405FE8650E7002E50FEA
:1056F00070047C008022851882851983E0FAE50E0B
:105700002AFAE50F3400FBC3EA98EB94005003E05B
:105710008005E50ECCC39CFCEC850A82850B83F0EA
:105720008C0A750B00780A121C3D850C82850D834E
:10573000E0250EFCA3E0350FFDAA08AB09121122EB
:1057400074021219E9025808751007025808E50E8C
:10575000450F705A850C82850D83125B26850A825F
:10576000850B83740712448B12581D12448BA3E0DF
:10577000851282851383F0E82402FAE93400FB8A5B
:10578000828B8312581D12584C125825A31258555B
:1057900012582EF0E82405F8E93400F9888289834C
:1057A00012582EA3125871A3A3A3A3F0805A751008
:1057B0000B8055741D121A1E1250731208BE8A8275
:1057C0008B83E5824583603D125B26880C890DE85A
:1057D000450D6031780E121C3D780A121C3D780888
:1057E000121C3D7406121A1EE0F9EEFCEFFDAA161B
:1057F000AB17850C82850D83121A2874061219E9DD
:10580000E9F510800375100EA91074051219E97FCF
:1058100010021AFCE0F50E750F00780E22E08508E4
:10582000828509832212587B22125B2AE8221258B1
:105830007BA3A322E0F508A3E0F50922850C82856D
:105840000D83E0F8A3E0F5838882E022A3A3F08A29
:10585000828B83A322F088828983A3A3A3A322F04F
:105860008A828B8312586822E0F50A750B00780A49
:1058700022F088828983A312587B22E085088285E2
:105880000983A3A32274EE121A2A74FE1219D38A72
:105890000A8B0BECFAEDFB7414121A1EE0F510A340
:1058A000E0F5117416121A1EE0FE7418121A1EE0AA
:1058B000F50EA3E0F50F851882851983AC82AD83C0
:1058C0001207EC8A0C8B0DEA450D6049851882851C
:1058D00019831250731208BE8A828B83E582458336
:1058E000602FA3A3125834E50845096024780E12EE
:1058F0001C3D7810121C3DEEF9AC0CAD0DAA0AABA4
:105900000B850882850983121A2874041219E9800C
:1059100006790E80027901024D0D74F6121A2A746E
:10592000FE1219D3740C121A1E125829851882857A
:105930001983F07401121A1EE9F0E4F508F50978EC
:1059400008121C3D7508027808121C3D7404121AD6
:105950001E8582088583097808121C3D120912747D
:10596000061219E974021219E9806874F7121A2AEA
:10597000EAFEEBFF89087C197D0312092AEA54022A
:10598000600BA908EEFAEFFB1207E0800279010232
:10599000438774F6121A2A74FF6A700374FF6B70DF
:1059A000168C828D831259D8E4F08C828D83A3A348
:1059B000A31259D8A380181208FA8A088B09A808DC
:1059C000A909E849600D8882898374FF124489A37C
:1059D000A3E4F07F02021AFC74FFF0A3F08C828D26
:1059E00083A3A32274F6121A2A1208FA8A828B83DE
:1059F000E58245836006A3A3E0FA80027A007B007B
:105A000080D174F2121A2A8A088B09ECFEEDFF7419
:105A10000E121A1EE0F50A1208FA8A0C8B0DA80C59
:105A2000A90DE8497026EEFCEFFD7AFF7BFF120816
:105A3000FA8A0C8B0DA80CA90DE849700479118025
:105A40001688828983E508F0A3E509F088828983B6
:105A5000A3A3E50AF079007F06021AFC74EE121A7D
:105A60002AEAFEEBFF8C088D09890C7414121A1EA9
:105A7000125B267416121A1E125073750D00E84937
:105A80006003025B1A7402650C6003025B157412FA
:105A9000121A1E125B30FCA3E0F9EC2400F50EE4B0
:105AA00039F50FEAF4F8EBF4F9EC58F8E50F59F989
:105AB000E849705CE5082406F8ED3400F9880A89A5
:105AC0000B8882F583125B3B12092A8A108B11E541
:105AD0000E65107004E50F65116042780E121C3DD2
:105AE000850A82850B83125B3B12093074021219FE
:105AF000E9E9F50D7027780E121C3D8508828509AD
:105B000083A3A3125B3912094874021219E9800DAC
:105B1000750D808008750D0D8003750D0BA90D02A4
:105B200051D28E828F83125B2A22E0F8A3E0F92201
