:020000040000FA
:0600000002010A02217C4E
:03002B000225F1BA
:030033000225D3D0
:03003B0002261288
:030043000225870C
:030053000221F295
:03006B000225ADBE
:1000830002202BE5C754F84401F5C779012200008B
:100093000080FB120086B900030200F4E4792178A2
:1000A30008B800028004F709D8FCE479297802B87B
:1000B30000028004F709D8FCE49002817820790CCF
:1000C3008002F0A3D8FCD9FA900DA0AA82AB83904A
:1000D300013A78D979048015E493A3AC82AD838A7D
:1000E300828B83F0A3AA82AB838C828D83D8E9D9D8
:1000F300E77582B97583B9740312011C7582917512
:100103008300740012011C75D00075813F7518813E
:10011300751902759F00020096C09FF59FE473D086
:100123009F22D083D082C09FE493C0E0740193C028
:10013300E0740293F59F22FF0000B400002800281A
:1001430000283075A000A000A000A000000800084F
:10015300E001F0001000100010001000100010006B
:1001630050005000500010001000D00700000000A5
:1001730000000F00010005003075070010000100AA
:1001830081FF00000000FF10072E071607FF020281
:100193000208025000A0000000E80302A290010040
:1001A30000919002AA90010000F70D0296900100C1
:1001B30000B30202AA90010000F80D02949001001E
:1001C30000C90202AA90010000F90D02BC900100CF
:1001D30000CB0202AA90010000FA0D02A8900800C9
:1001E30000CC0202AA90010000FB0D02A6900100C0
:1001F30000FC0DFF0100FF2002A2900100008E9081
:1002030002AA90010000600E029C90000000000012
:100213000298900300001903400D400D400D400D5E
:10022300400D400D400D400D400D400D400D400D63
:10023300400D16102E101010FFFF0200E2FF020007
:10024300E7FF0200F3FF0200F3FFFAFF07000300DA
:10025300F9FFFBFF07000400F7FF07000300090095
:1002630003000A000E0005000D0005000E00020247
:1002730002020202020202010D000000100102A2AA
:10028300900100008B9002AA90010000D70E02BEDD
:1002930090010000920702AA90010000D80E02BA52
:1002A300900100006B8F02AA90010000D90E02B8E2
:1002B300900100005D8F02AA90010000DA0E02B6E1
:1002C30090010000B98E02AA90010000DB0E02B477
:1002D30090010000A78E02AA90010000DC0E02B27A
:1002E30090010000958E02AA90010000DD0E02B07D
:1002F30090010000CB8E02AA90010000DE0E02AE38
:10030300900100004F8F02AA90010000DF0E02ACA3
:1003130090010000E00E01E803053F100AFF000111
:100323003075030201060000000000000000000019
:1003330000000000000000000000000000000000BA
:100343000000FFFF0600800CE80384030F0013097D
:100353004F666669636577656C6C20233030303097
:100363003132051208000800020A000201060302E6
:10037300F1FF53696D706C6520424C4520506572E6
:100383006970686572616C4415000050150A486114
:1003930072647761726520496E666F726D6174690C
:1003A3006F6E000A507265736574204865696768EB
:1003B30074000A506F7374757265204A75646765BB
:1003C3006D656E74000A416374696F6E2052616ECD
:1003D30067650008436F6E74726F6C20436F6D6DB9
:1003E300616E6400125065736B205374617475738E
:1003F300000A4C6F636B2053746174757300025071
:100403006F77657275702054696D657374616D7073
:100413000000104865616C746820446174610002D7
:10042300A290010000B98F02AA90010000F60F020A
:10043300C690030000640D029A90010000F70F02BA
:10044300AA900100000C1002C890030000680D027E
:100453009A900100000D1002AA900100001B1002E7
:10046300CA90030000700D029A900100001C100254
:10047300AA900100002E1002CC90030000720D021E
:100483009A900100002F1002AA900100003C100274
:10049300CE90020000760D029A900100003D1002FA
:1004A300AA900100004D1002D090010000770D02C8
:1004B30098900300007B0D029A900100004E1002F9
:1004C300AA900100005A1002D290030000810D028D
:1004D3009A900100005B1002AA90010000671002CD
:1004E300D490010000860D029A900100006810026A
:1004F300AA900100007B1002C2900000008A0D0246
:1005030098900300009A0D029A900100007C10124B
:10051300012596A903120125ADA903120125DEA920
:100523000312012519AA0312012543AA0312012567
:100533006DAA0312012584AA031201259BAA0312A3
:100543000125B2AA03120125DBAA03120125EEAA93
:100553000312012504AB0312012517AB0312012576
:100563003EAB0312012538A5021201253CA6021257
:10057300012574A60212012597A602120125A2A63F
:1005830002120125C5A602120125D4A702120125D4
:10059300A9A80212012524A902120125ACA902125D
:1005A3000125E7A9021201251EAA02120125ACAA00
:1005B3000212012585AB02120125E5AB02120125CA
:1005C300F0AB021201256FAC0212012572AC0212CC
:1005D300012575AC0212012504AD0212012507ADF8
:1005E3000212012537AD0212012561AD0212012568
:1005F3004FAE0212012501AF021201250080031242
:1006030001252880031201255680031201258D80C0
:1006130003120125EB800312012536810312012504
:10062300818103120125C18103120125078203126F
:100633000125358203120125F28203120125FC8272
:10064300031201250983031201253C8303120125AB
:100653000884031201251484031201252C84031238
:1006630001253684031201251D7F001201252B7FEE
:1006730000120125437F001201255B7F0012012533
:100683006AC40112012516C50112012591C5011283
:100693000125B2C601120125EEC60112012597C735
:1006A300011201257EC801120125E2C901120125AB
:1006B30039CA01120125BACA01120125AACB0112B6
:1006C3000125F7CB011201257DCC01120125AFCC09
:1006D30001120125C3CE0112012505CF0112012507
:1006E30023CF01120125A6CF011201257AD00112D1
:1006F300012542D10112012563E30212012536E4EB
:1007030002120125DFE40212012532E5021201255E
:10071300E2E5021201256EE6021201255AE70212F2
:10072300012589E7021201259CE802120125E4E86C
:1007330002120125B9E902120125F5E90212012588
:1007430011EA0212012516B803120125FB910312C7
:1007530001251192031201253792031201255393A8
:10076300031201255D9303120125929403120125BF
:100773008A9503120125C9F502120125F9F6021221
:1007830001252CF70212012576F7021201253DF906
:10079300021201257BB401120125E5B401120125E2
:1007A30044B60112012554B60112012581B6011286
:1007B3000125D8B60112012581B70112012588B898
:1007C3000112012552B901120125B2BA0112012504
:1007D300F5BA011201259ABB01120125E7BB0112EB
:1007E30001250DBC011201251BBE0112012520BEEE
:1007F3000112012525C00112012572C00112012534
:10080300E5C00112012518C101120125BAC1011267
:10081300012563C2011201259BC2011201259EC25B
:1008230001120125E6C20112012526C30112012589
:100833007DC301120125EC9E03120125049F0312BF
:1008430001254C9F03120125629F03120125A99FD5
:1008530003120125BDA0031201254AA1031201259C
:1008630095A103120125842600120125902600126A
:100873000125CB2600120125102700120125D027C0
:1008830000120125562800120125BB28001201255C
:10089300E728001201252029001201255E2B0012F2
:1008A3000125422D00120125282F001201256B304E
:1008B30000120125B93200120125CB3300120125A4
:1008C3001635001201252636001201254336001283
:1008D30001257E3600120125A036001201250337BB
:1008E30000120125C43B00120125593C00120125C9
:1008F300AA3C00120125D13C00120125233D001220
:100903000125413D001201259B3D00120125843E36
:1009130000120125FA3F001201257E400012012535
:10092300BD8403120125C784031201250A8503121E
:100933000125258503120125B58503120125DD85D2
:10094300031201251A86031201255186031201257C
:100953007A8603120125EF86031201250487031209
:1009630001251987031201254A87031201255E8792
:1009730003120125838703120125BD870312012575
:10098300E98703120125758803120125A088031244
:100993000125E988031201251389031201253E89E4
:1009A300031201256CB103120125378D02120125B3
:1009B300658D02120125B38E02120125938F021257
:1009C3000125B28F021201252F9002120125729088
:1009D30002120125C89102120125899202120125F2
:1009E300109502120125B19502120125A796021254
:1009F3000125A49702120125FE9802120125899967
:100A03000212012511B0031201257AB00312012548
:100A1300CEB003120125F5B00312012526B103124E
:100A23000125668903120125D389031201251A8A38
:100A330003120125328B031201252E8C031201258B
:100A4300118D031201253ECB0212012580CB021228
:100A5300012552CC021201252BCD0212012525CEF0
:100A63000212012507CF0212012570CF02120125C0
:100A730026D0021201259AD00212012506D10212B4
:100A830001252FD102120125A9D10212012542D23B
:100A930002120125A7D202120125BCD2021201259E
:100AA30002D3021201251BD30212012580D30212A5
:100AB300012583D302120125F39B031201251B9CFD
:100AC30003120125599C03120125179D03120125C9
:100AD3007E9D031201259A9D03120125C29D0312D7
:100AE3000125F29D03120125019E031201257E9E1D
:100AF30003120125A49E0312012573A401120125EB
:100B030011A6011201252CA80112012568A80112C2
:100B1300012595A8011201257AA901120125C1A970
:100B23000112012505AA0112012517AA01120125A7
:100B330057AA0112012584AA01120125CFAA011285
:100B430001250FAB011201253DAB011201258FAB2E
:100B5300011201251FAC01120125BDAE01120125B1
:100B6300D3B00112012511B101120125A2B2011264
:100B73000125E7B2011201255EB301120125A8B3D5
:100B83000112012550B4011201253CB902120125BD
:100B9300BBB9021201257DBF021201258CC00212CE
:100BA3000125F4C1021201258BC202120125DA903C
:100BB30001120125239101120125509101120125F2
:100BC3008391011201259091011201259C9101123B
:100BD3000125AE9101120125959201120125F3928F
:100BE300011201252893011201256B94011201259D
:100BF300B89401120125DC940112012549950112D3
:100C03000125079601120125C096011201252D9792
:100C130001120125DF9701120125EF97011201252A
:100C23007698011201253599011201256299011265
:100C33000125DB9901120125389A01120125829AB7
:100C430001120125189B01120125E39B01120125C5
:100C5300989C011201250D9D011201256E9D011223
:100C63000125D89D01120125119E01120125B39E74
:100C730001120125C39F0112012503A001120125C1
:100C830020A0011201253FA00112012586A0011217
:100C93000125ABA001120125D8A00112012552A103
:100CA3000112012593A101120125B7A20112012509
:100CB30067A301120125BEA30112012528A4011275
:100CC300012541A40112012572AF02120125C5AF0E
:100CD30002120125D1AF02120125A6B0021201258D
:100CE300CDB00212012508B10212012574B102121E
:100CF3000125B0B102120125E9B10212012501B2A9
:100D03000212012556B2021201256FB20212012509
:100D1300B8B202120125CBB202120125E5B20212CA
:100D23000125FBB2021201252EB40212012575B56D
:100D33000212012577B60212012571B702120125AD
:100D4300F47F001201250080021201253080021277
:100D53000125F883021201254F8502120125188609
:100D630002120125988702120125698802120125C2
:100D7300A68802120125C9880212012507890212D9
:100D830001251089021201255A890212012564895D
:100D9300021201250E8A02120125E78A0212012599
:100DA3003B8B021201259D8B02120125F08B02124F
:100DB30001251F8C021201255C8C02120125906D06
:100DC30000120125F77000120125FD7000120125A4
:100DD3007F7600120125F87A00120125CE7E0012DB
:100DE30001259495031201250A96031201252096E5
:100DF300031201256196031201259B960312012517
:100E03001497031201254F9703120125C29703126A
:100E1300012500980312012509980312012515984D
:100E2300031201253198031201255C980312012551
:100E3300729803120125B69803120125F0FA0212E3
:100E4300012503FB021201251DFB0212012546FBAE
:100E53000212012589FB02120125C8FB021201259A
:100E630006FC021201256BFC0212012580FC021212
:100E730001258BFC0212012598FC02120125AFFC0F
:100E830002120125BDFC02120125C8FC0212012534
:100E9300D4FC02120125E7FC02120125F2FC021226
:100EA300012515FD02120125BCFD02120125CCFD11
:100EB30002120125E6FD0212012503FE021201259D
:100EC3001FFE0212012544FE021201254FFE0212EB
:100ED300012564FE0212012578FE02120125D9FEC6
:100EE30002120125DFFE02120125E5FE0212012591
:100EF300EBFE0212012503FF0212012536FF021247
:100F03000125CCE10112012550E201120125FFE286
:100F1300011201255EE4011201257FE6011201257C
:100F23006BE701120125A0E701120125C2E70112B7
:100F3300012571E80112012569EA0112012592EAEE
:100F43000112012524EB0112012556EB01120125A3
:100F530063EB01120125BAEB01120125E0EB01124B
:100F630001254DEE0112012550EF01120125A8EFD5
:100F7300011201255BD30112012565D4011201255C
:100F83004CD50112012556D50112012578D5011240
:100F9300012584D5011201251DD7011201254CD746
:100FA3000112012568D801120125C1D801120125BA
:100FB30027DA0112012506DB0112012562DB01128A
:100FC3000125CFDB011201250ADC0112012549DCD1
:100FD3000112012502DF011201251CDF0112012587
:100FE300A8DF01120125B6DF011201250FE001126E
:100FF30001251DE00112012590E001120125F4E015
:10100300011201253EE1011201250A9A021201256E
:101013002C9A02120125529C02120125679F02128B
:1010230001257FA00212012532A10212012514A27B
:101033000212012550AB0312012575AB03120125E2
:10104300E7AB03120125E9DB02120125F2DB0212F1
:101053000125FBDB02120125D2DC0212012583DE0E
:1010630002120125B9DE02120125F3DE0212012567
:1010730029DF0212012563DF0212012597DF021225
:101083000125C3DF021201250CE00212012546E00F
:10109300021201258FE002120125E7E00212012569
:1010A3001CE10212012577E102120125B1E10212CE
:1010B300012502E20212012538E20212012572E241
:1010C30002120125A0E202120125C3E20212012548
:1010D3003EB6031201256AB603120125C5B60312F3
:1010E3000125CFB603120125DFB60312012548F00F
:1010F3000212012552F00212012590F0021201257D
:10110300D9F00212012513F1021201256DF1021229
:1011130001258EF10212012597F102120125E4F156
:10112300021201250DF20212012517F20212012506
:1011330083F20212012515F3021201255FF3021255
:10114300012595F30212012521F40212012562F40F
:101153000212012599F402120125ABF402120125B2
:10116300CAF402120125D3F4021201259BF50212DF
:10117300012585B2031201257CB303120125F5FD78
:10118300011201252BFE0112012561FE0112012529
:10119300ACFF011201259AB803120125B0B803125E
:1011A3000125BAB80312012504B903120125D38D11
:1011B30003120125E88D031201259B8E03120125DD
:1011C300DB8E03120125F48E031201252F8F0312E8
:1011D30001257C8F03120125AE8F03120125F08FA9
:1011E3000312012591B403120125BAB40312012598
:1011F300E9B40312012501B50312012543B5031216
:101203000125E54000120125374100120125E9417E
:1012130000120125E24200120125A3430012012519
:10122300AD4400120125854500120125A445001295
:1012330001253C46001201252D47001201253D479B
:101243000012012586470012012596480012012548
:10125300EC4C00120125984D001201255D4E001241
:101263000125B74E00120125ED4E00120125714FE5
:1012730000120125FD4F001201256D5000120125BA
:10128300D45000120125EC5000120125195100120F
:1012930001254351001201254B5200120125175419
:1012A30000120125945500120125E2560012012572
:1012B300BFA103120125E4A1031201250EA203120B
:1012C300012563B903120125FA57001201255F5A5C
:1012D30000120125005C00120125B45C00120125F7
:1012E300475D00120125CC5D00120125F15D00125E
:1012F3000125476100120125CD610012012500631C
:10130300001201253A63001201256F6300120125C3
:101313002F65001201258C6500120125D565001289
:101323000125406600120125B16600120125E3661E
:1013330000120125FB6600120125446800120125F5
:101343005468001201256F6900120125916900128A
:101353000125C769001201257B6B00120125086C6A
:1013630000120125476C001201256B6D0012012547
:1013730088B50312012599B503120125B3FF0212A3
:101383000125F2FF02120125E6FF01120125E9B64C
:1013930003120125F9B60312012511B70312012522
:1013A30077B7031201258DB30312012512B403127B
:1013B300012578B40312012597AE03120125C0AEAF
:1013C300031201252BAF031201257CAF0312012564
:1013D300D7AF031201258BA403120125A0A4031286
:1013E3000125BCA50312012530A6031201254AA637
:1013F3000312012561A60312012574A60312012518
:101403008EA603120125A5A603120125CBA603125E
:1014130001251CA70312012556BA03120125E698DC
:1014230003120125769903120125E699031201257A
:10143300779A03120125809A03120125FE9A03125B
:101443000125119B031201257D9B03120125DD9BC1
:1014530003120125F09B0312012581B70312012515
:10146300F0B703120125FBB7031201250BB80312D2
:101473000125F5AC0312012547AD03120125D1ADBA
:101483000312012538AE0312012551A703120125CA
:101493007BA70312012549A80312012524A90312DE
:1014A3000125A7D3021201256ED402120125A5D46A
:1014B30002120125CFD4021201252FD502120125D4
:1014C30085D502120125EAD50212012582D6021220
:1014D300012591D70212012528D902120125B5D978
:1014E300021201251CDA0212012533DA0212012548
:1014F3004DDB021201258BDB02120125F6EF0112EF
:10150300012577F301120125FFF40112012556F598
:101513000112012575F501120125F3F501120125CB
:1015230089F7011201256EF8011201257CFC0112D5
:10153300012552FD01120125B5C20212012520C663
:1015430002120125F3C60212012527C80212012542
:101553004AC902120125A3CA021201252ACB02128B
:10156300012586EA02120125D6EA02120125F3EAD1
:101573000212012568EC02120125F0EC021201258A
:10158300DEED021201250FF0021201250CBA03123F
:10159300012538BA03E066701008A3E066700A08F4
:1015A300A3E066700408A3E06622C3E7960809E790
:1015B300960809E7960809E79622C3E09608A3E090
:1015C3009608A3E09608A3E09622C008C3E096F528
:1015D3000808A3E096420808A3E096420808A3E09F
:1015E3009645087001D3D00822080808EAC0E0EB4A
:1015F300C0E086F0E7A4FA180986F0E7A42AFA18EF
:101603000986F0E7A42AFA180986F0E7A42AFA194A
:1016130086F0E7A4FBE5F02AFA190886F0E7A42B85
:10162300FBE5F03AFA190886F0E7A42BFBE5F03A5C
:10163300FA18180986F0E7A4C5F02BFBE43AFA1967
:1016430008E7C5F0C6A426F6E5F03BFBE43AFA1832
:1016530086F0E7A4F6E5F00826F6E43B08F6E43A5C
:1016630008F6D0E0FBD0E0FA226016080808C6C3EB
:1016730013C618C613C618C613C618C613C6D5E0B4
:10168300EA227009080808226016181818C6C3331E
:10169300C608C633C608C633C608C633C6D5E0EA8D
:1016A30022E627F60809E637F60809E637F60809B9
:1016B300E637F622E026F608A3E036F608A3E0367E
:1016C300F608A3E036F622E026F008A3E036F00899
:1016D300A3E036F008A3E036F022C3E697F6080944
:1016E300E697F60809E697F60809E697F622C3E0B7
:1016F30096F008A3E096F008A3E096F008A3E0961E
:10170300F022E056F608A3E056F608A3E056F608E2
:10171300A3E056F622E056F008A3E056F008A3E053
:1017230056F008A3E056F022E647F60809E647F626
:101733000809E647F60809E647F622E0F608A3E0BB
:10174300F608A3E0F608A3E0F622E6F008A3E6F025
:1017530008A3E6F008A3E6F022E0FAA3E0FBA3E087
:10176300FCA3E0FD22EAF0A3EBF0A3ECF0A3EDF081
:1017730022CAC0E0E6F0A308DAFAD0E0FA22CAC02F
:10178300E0E0A3C582CCC582C583CDC583F0A3C5E4
:1017930082CCC582C583CDC583DAE6D0E0CA22C335
:1017A300E498F8E499F91217E38026C3E49AFAE47B
:1017B3009BFBE920E7E91217E3E498F8E499F9229F
:1017C300C3E498F8E499F91217E3E498F8E499F973
:1017D300C3E49AFAE49BFB22EB20E7CFE920E7E09E
:1017E300B90010BB0008E88AF084F8AAF022E4FBF1
:1017F300C8FA22EB70227B10C833C8C933C93350EF
:1018030007C39AC3DBF280069A50012ADBEAC83386
:10181300F4C8C933F4C9FA2275F008E4C833C8C957
:1018230033C933C99AC99B5004C92AC93BD5F0ECC3
:10183300FBC833F4C8E4C9FA22600D08C6A2E71353
:10184300C618C613C6D5E0F322600C08C6C313C678
:1018530018C613C6D5E0F422700422600D18C6C35F
:1018630033C608C633C6D5E0F41822251810AF08CE
:10187300F518400215198008F51840021519D2AF62
:1018830022C0D0251810AF08F5185002051980089A
:10189300F51850020519D2AFD0D0222518F58210C1
:1018A300AF08F518400215198008F51840021519FC
:1018B300D2AF851983222518F582E43519F58322E1
:1018C300E4732518C582C0E0E51934FFC583C0E081
:1018D300E518C3958224F810AF088583198582180B
:1018E3008008858319858218D2AFCEF0A3E520F056
:1018F300A37808E608F0A3DEFAEFF0A3E58124FA63
:10190300F8E608F0A3E608F0A3E608F0A30808E663
:1019130008F0A3E608F0A315811581D0E0FED0E01E
:10192300F8158115811581E8C0E0EEC0E022251885
:10193300C582C0E0E51934FFC583C0E0E518C3954F
:101943008224F910AF08858319858218800885835E
:1019530019858218D2AFCEF0A3E520F0A37808E66C
:1019630008F0A3DEFAEFF0A3E58124FBF8E608F024
:10197300A3E608F0A30808E608F0A3E608F0A31519
:10198300811581D0E0FED0E0F815811581E8C0E033
:10199300EEC0E022851983851882E0A3FEE0A3F55B
:1019A300207808E0A3F608DFFAE0A3FFE0A3C0E095
:1019B300E0A3C0E0E0A3C0E0E0A3C0E0E0A3C0E098
:1019C30010AF08858218858319800885821885835E
:1019D30019D2AFD083D08202012285198385188260
:1019E300E0A3FEE0A3F5207808E0A3F608DFFAE021
:1019F300A3FFE0A3C0E0E0A3C0E0E0A3C0E0E0A356
:101A0300C0E010AF08858218858319800885821885
:101A1300858319D2AFD083D08222C0D02518C58246
:101A2300C0E0E51934FFC583C0E0E518C3958224FF
:101A3300F310AF088583198582188008858319857B
:101A43008218D2AFC8F0A3E9F0A3EAF0A3EBF0A3A6
:101A53007908E709F0A3D8FAECF0A3EDF0A3EEF0D0
:101A6300A3EFF0A3D0E0F0A3D0E0F0A3D0E0F0A385
:101A7300E520F0A3E5F0F0A322851983851882E021
:101A8300C0E0A3E0F9A3E0FAA3E0FBA37808E0F643
:101A930008A3DFFAE0FCA3E0FDA3E0FEA3E0FFA3BD
:101AA300E0C0E0A3E0C0E0A3E0F5D0A3E0F520A30D
:101AB300E0A3F5F010AF08858319858218800885A7
:101AC3008319858218D2AFD082D083D0E0F8D0E0DA
:101AD3003274048006740280027401C0E0F40412BC
:101AE300189ED0E0121774227404800474028000DC
:101AF300CCC0E0EDC0E0E518C39CCCAD1950011D8E
:101B030010AF068C188D1980068C188D19D2AF1260
:101B13001781D0E0FDD0E0FC22D083D082E9C0E081
:101B2300E493A3C386F0C5F095F0F908E493A38684
:101B3300F0C5F095F0700BE493A3C3994005E90455
:101B43008002A3E475F002A42582F582E5F03583D3
:101B5300F583D0E0F9E493A3C0E0E493C0E022D09E
:101B630083D082ECC0E0EDC0E0E493A3FCE493A354
:101B7300FDED4C600D121BAEEC24FFFCED34FFFDBC
:101B830080EFE493A3FCE493A3FDED4C600D121BE3
:101B9300EDEC24FFFCED34FFFD80EFD0E0FDD0E061
:101BA300FCE493A3C0E0E493C0E022C0E0C3E49369
:101BB30096087401939618400FE4936670080874AE
:101BC3000193661870007019A3A3C3E49396087475
:101BD30001939618A3A3400DD0E0D0E0D0E0021B00
:101BE3009EA3A3A3A3A3A3D0E022C0E0C0F088F0E8
:101BF300E4936670080874019366187000A8F0A354
:101C0300A3700BD0F0D0E0D0E0D0E0021B9EA3A3E2
:101C1300D0F0D0E02274F5121931EAFEEBFFEE2486
:101C230034F8EF3400F988088909EE2435121D448D
:101C3300F8EE2437121D44F50AEC850AF0A4FCAA39
:101C4300F0850AF0EDA42AFDE82CF8E43DF97A25A5
:101C53007B001217E3EA850882850983F074075A2B
:101C6300F87401B800028004C333D8FCFBEA1313F1
:101C730013541FF8EE28F8EF3400F9E8245DF582D9
:101C8300E9121D475B6003EA801CEE2436121D44F3
:101C9300F5F0EA84A8F0EE28F8EF3400F9E82438E8
:101CA300F582E9121D47F97F040219DD74F5121953
:101CB30031EAFEEBFFEE2434121D44C0E0EE24357E
:101CC300F582EF3400F583D0E0F08E828F83A3A3F7
:101CD300A3A3A3E0FAA3E0FB8E828F83A3A3A3A312
:101CE300A3A3A3E0FCA3E0FDECC39AF50AED9BF5E7
:101CF3000BEE247FF508EF3400F509850882F583A0
:101D0300E06401702BEE2480F582EF3400F583123A
:101D13001AEF121D4D7402121884E960137CDC7DE6
:101D230004EEFAEFFB120C68850882850983E4F060
:101D3300AC0AAD0BEEFAEFFB121C18122573021C52
:101D4300AAF582EF3400F583E022C082C0838518B0
:101D530082851983E0F8A3E0F9C3EA9CEB9D501058
:101D6300C3EC98ED99401BC3EA98EB995014800E8D
:101D7300C3EA98EB994007C3EC98ED9940047901C5
:101D830080027900D083D08222EAC39CFAEB9DFBC8
:101D93002274ED1219319003A2E064086005E06437
:101DA30007702C9061C8E060269003D0E0F874FFC0
:101DB30068601CE875F003A4C8AAF02AF974D22855
:101DC300FE740339FF8E828F83A3A3A3E07005798A
:101DD30000021F34EE2468F510EF3400F511906013
:101DE30060E0851082851183F0750A45750B0575D2
:101DF3000800750900E5D914F50EE5D95403F50F6C
:101E0300601CEE2482F50CEF3400F50D7403650FAE
:101E13006058E50E6013EE2467121D44700B793D84
:101E2300EEFAEFFB120C8C80A6900540E064016093
:101E330026850C82850D83E0600478048002780097
:101E4300850E08E508C398FA95E0FB120B0C8A0887
:101E53008B09EA45097006120EE4021DD2850C8235
:101E6300850D83E070048A0A8B0B78008016E5D910
:101E7300C0E08812E50A2512F582E50B3400F583EC
:101E8300D0E0F008E8C3950E40E4850C82850D830D
:101E9300E0602874FC250EF50E780A121AD8AC0EF1
:101EA300A90FEEFAEFFB120D3A7402121884E970CF
:101EB3000AAA08AB09121478021E217403650F6085
:101EC30058850E0C750D00780C121AD8AC0AAD0BA0
:101ED300AA08AB09120CFE740212188485108285BD
:101EE3001183E0F87480687005750C7F8002880C9C
:101EF300E50CF50A780A121ADCE50FF50A780A12DE
:101F03001ADCA90EAC08AD099003D0E0FA7B0012ED
:101F130009A4740212188480139003A2E064086079
:101F23000BAC0AAD0BEEFAEFFB120DD0120EF079EB
:101F3300017F0C0219DD74F312193174FC12186E4F
:101F4300EAFEEBFF8908A2AFE433F509C2AFEE2442
:101F530063F50AEF3400F50B8010AA0AAB0B120CE1
:101F6300B61214789004E3E004F0850A82850B83AB
:101F7300E0F8A3E0F9E849602FE82402FAE9340025
:101F8300FBEA2402F50CEB3400F50D780C121AD899
:101F93008A828B83E0FCA3E0F9EEFAEFFB120CAA32
:101FA3007402121884E960B29004E3E0605790046D
:101FB300E4E0F89004E3E0C398500C740265087001
:101FC300449004E5E0603E8E828F83A3A3A3A3E045
:101FD30085188285198312201874021218B9E81221
:101FE30020189004E2E028F074021218B9AC82AD14
:101FF30083851882851983AA82AB8379011209B07C
:102003009004E3E4F0E509A2E092AF7404121884AB
:102013007F060219DDF0A3E4F09004E3E0F8220068
:10202300008521878522C622C0E074EF121A1DA203
:10203300AFE433FEC2AF759B00906182E0A2E05033
:1020430012E591A2E0500C7591FE740165217003B5
:10205300121D94E0A2E55051E591A2E5504B759114
:10206300DF9003A2E064076005E064087023740155
:102073006521703579019003D0E0FA75F003A4CAA5
:10208300A8F028FB74D22AFA74033BFB121F398091
:1020930018E0640D70139003C4E004F06428700228
:1020A300E4F07A00E0F9120EF6906182E0A2E640D5
:1020B30003022152E591A2E640030221527591BF2A
:1020C3009003A2E064057008120E12120E1E800324
:1020D300120E18752100120E84E99003A3F0790003
:1020E300120E78120BD27A017B009003A1E0F91251
:1020F3001148907803E064427055900544E014F071
:10210300704DC2AF12210A00782AD0E0F618D0E051
:10211300F6E59F540770057509FF800375097FC4B1
:10212300C0E07829E6F50808E65509F509740B7847
:102133000812184CD0E02508F8906270E0A2E7403E
:10214300F8E8C333906272F0906270E0D2E0F090EE
:102153006181E0A2E35009E5E9A2E3500375E9F7E1
:10216300A3E0A2E75009E591A2E7500375917FEE42
:10217300A2E092AF7F04021A7CC0E0C0D0C082C04C
:1021830083906183E0A2E05009E5BFA2E0500375AC
:10219300BFFEE0A2E15009E5BFA2E1500375BFFD18
:1021A300E0A2E25009E5BFA2E2500375BFFBE0A243
:1021B300E35009E5BFA2E3500375BFF7E0A2E45083
:1021C30009E5BFA2E4500375BFEFE0A2E55009E5BE
:1021D300BFA2E5500375BFDFE0A2E65009E5BFA249
:1021E300E6500375BFBFD083D082D0D0D0E032C0D9
:1021F300E074F2121A1DE5A7A2E4500FE5A1A2E4D0
:10220300500953A7EF75A1EF122246E5A7A2E550A7
:102213000CE5A1A2E5500653A7DF75A1DFE5A7A250
:10222300E15009E5A1A2E1500375A1FDE5A7A2E2F2
:10223300500CE5A1A2E2500653A7FB75A1FB7F0159
:10224300021A7C74F81219317521019003A2E0641B
:102253000670077A007B00120DFAA2AFE433FED2B8
:10226300AF9003A8E0640170187A207B009003A16B
:10227300E0F91211D27A207B009003A1E0F9121148
:102283004E906182E0D2E6F0900541E0602185C680
:102293002280169003A7E064017008E5C654F84451
:1022A30005F5C653BEFC1220247401652160E4EEDB
:1022B300A2E092AF7F010219DD8E238F248582284D
:1022C300858327851882851983E0CEA3E0CF8528EF
:1022D30082852783EBC9EAC8EDCBECCA75F010C33E
:1022E300E833C8E933C9EA33CAEB33CBC3EA9EF513
:1022F30026EB9FF525B35004AB25AA26EC33CCED92
:1023030033CDD5F0DAAE23AF242274F11219318A1A
:10231300088B098C0A8D0B90904778081217057467
:102323000F1218B9780C12173E909047780C1217B9
:10233300057808790C1215AD909033501078087910
:102343000C1216DD78081215CD4014800E780C7926
:10235300081216DD780C1215CD500479018002792C
:10236300007F080219DD74ED1219318A088B098C7C
:102373000A8D0B909047780812170574131218B939
:10238300780C12173E909047780C121705780C7949
:10239300081215AD40117808790C1216DDAA08ABA6
:1023A30009AC0AAD0B80227510007511007512007F
:1023B3007513017810790C1216DD7810790812164E
:1023C300A4AA10AB11AC12AD137F0C0219DD9090CF
:1023D30047780812173E8A828B8378081217187F72
:1023E300040219DD74F51219318C828D8378081279
:1023F300173E8A828B8378081216F112243BC3E0BE
:1024030098F0A3E09912242D401E9090537808125F
:10241300173E8A828B8378081216CA8E828F83E0D6
:102423002420F0A3E0344EF080A4F08E828F83C387
:10243300E09420A3E0944E22EA2404F8EB3400F95C
:10244300E8FEE9FF8C828D83A3A3A3A3E0F8A3E0B6
:10245300F98E828F832274F5121931E9FE9004F705
:10246300E0FAA3E0FBEEC333F8E433F9741028F584
:1024730082748F39F583E02AF508A3E03BF50978E8
:1024830008121AD890906312175C1222BC740212BD
:1024930018848A088B098C0A8D0B7410780812161D
:1024A3006CAA08AB097F040219DD74F11219318A91
:1024B3000C8B0D8C0E8D0F740F1218B9E0FAA3E07C
:1024C300FB74111218B9E0F508A3E0F509780812B6
:1024D3001AD8EA2401F508EB3400F509E4F50AF506
:1024E3000B780C79081215EC90902B780812173E94
:1024F300780C79081215ECAA0CAB0DAC0EAD0F12CB
:1025030022BC74021218848B09EA450960047A011B
:1025130080027A00EC2AFCED3400FD74131218B922
:10252300E0F8A3E0F9E8FEE9FFECF8EDF97A717B56
:10253300021217E388088909E4F50AF50B8E828FE6
:1025430083780812174DECF8EDF97A717B021217B4
:10255300E38A088B097405780812185B8E828F83CF
:10256300A3A3A3A3E508F0A3E509F07F080219DDFF
:10257300C082C083E9906000F0D083D08222C2AFD2
:1025830002000022C0E074F2121A1DA2AFE433FE6F
:10259300D2AFC2C0E5D1A2E4500653D1EF12145416
:1025A300EEA2E092AF7F01021A7CC0E074F2121A2D
:1025B3001DA2AFE433FED2AFE589A2E150031213AB
:1025C300D0758900C2C5EEA2E092AF7F01021A7CEA
:1025D300C0E074F2121A1DA2AFE433FED2AFE58B52
:1025E300A2E050031213D0758B00C2E880D8C0E07C
:1025F300C0D0E8C0E0E9C0E0E5A8D2AFC2C7A2E717
:10260300A2E792AFD0E0F9D0E0F8D0D0D0E032C06A
:10261300E0C0D0E8C0E0E9C0E0C008C009C082C0A3
:1026230083A2AFE433F9D2AF900894E0F8A3E06853
:102633007008539AFBA374018026C2E9900894E0C2
:10264300F50874012508F074902508F582740834A0
:1026530000F583E0F5C1900894E0C394044002E4DC
:10266300F0E9A2E092AFD083D082D009D008D0E0C5
:10267300F9D0E0F8D0D0D0E032FFFFFFFFFFFFFF3B
:10268300FFC082C083E9900E5FF002291374F71232
:1026930018C5E99002E1F07C197D037AFF7BFF12F4
:1026A30008F69002E274FFF0A3F0A3E4F0A3F0793C
:1026B3000512087E9002E1E0F91207A07A147B0963
:1026C300120ABE7F0102199774F41218C58A088B87
:1026D30009EB548060309002E1E0F91211308A0A6C
:1026E3008B0BAE0AAF0BEE4F60138E828F83E064C9
:1026F300B07003120896EEFAEFFB12111EAA08E55A
:10270300096480FB80047A007B000228E274F212E1
:1027130018C574FC12186EEAFEEBFFEE4F603874B6
:10272300021218B9EEF0A3EF122B47ECF0A3ED124F
:102733002B47AA82AB8312079AE9F50870737412C8
:102743001218B91236FBE50A450B60658E828F833A
:102753001227BEEE4F700575080280557A067B007E
:1027630012118A8A0C8B0DA80CA90DE84970057506
:102773000813803D88828983E41227C8A3A3EEF05F
:10278300A3EF123B94E50AF0A3E50BF09002E712E6
:1027930028509002E76017E0FCA3E08003EAFCEB1B
:1027A300FD8C828D8312285070F38C828D831236B8
:1027B30020A9087404121884023D96A3A3A3A3E0DE
:1027C300FEA3E0FF22F0A3F0888289832274F21231
:1027D30018C5890AE975F017A4FEAFF09002E6E484
:1027E300F09002E4122850600A1211909002E4E47F
:1027F300F0A3F0EEFAEFFB12118A8A088B09EA457F
:1028030009602FEEFCEFFD790012110C9002E4E554
:1028130008F0A3E509F07B00800812283AE4F0A34E
:10282300F00BEBC3950A40F2E50A9002E6F079005B
:1028330080027913023D96EB75F017A4F8A9F09086
:1028430002E4E028FAA3E0398A82F583221233B640
:10285300EA4B2274F41218C5750800750900740C4C
:102863001218B9123B68FEE9FF800CE5082401F554
:1028730008E5093400F509C3E5089CE5099D5032D4
:1028830085080A85090B7403780A12185BEA250A7E
:10289300F8EB350BF988828983A3A3A3A3A3A3121F
:1028A30036FBEE650A7003EF650B70BFE8FAE9FBD0
:1028B30080047A007B00802774F41218C57900EA3B
:1028C300A2E0501B7508F075098F7808121AD87C9E
:1028D300047D007A617B0E12087874021218847FDB
:1028E30004021997C082C0839002E712291A601C60
:1028F30088828983A3A3E06A7003A3E06B8882893B
:102903008370E8A3A3A3A31233B280047A007B00ED
:10291300D083D082020122123E69E8492274EE126A
:1029230018C574FC12186EEAFEEBFF851882851930
:1029330083E4F0A3F0EE2402123604EE2405122BF6
:1029430035EE2404F50EEF122F1AE024FE6039242D
:10295300FC604624FE605224FE605E24FE70030287
:102963002A3A24FE7003022AB224FE7003022AC10B
:1029730024FE7003022AD024FC7003022ADF24FE03
:102983007003022AEE022B2B9003007417F0A3E4CA
:10299300122B4F120518022B2B851882851983AC35
:1029A30082AD8312089C022AFB851882851983ACA9
:1029B30082AD831208A2022AFB850C08850D0974D7
:1029C300021218B9AC82AD8385088285098312335C
:1029D300B21207BE8A0C8B0DAC0CAD0DEC4D6042F0
:1029E300E4F50CF50D780C121AD8750C00750D036F
:1029F300780C121AD8750C01750D03780C121AD8BD
:102A030074081218B9121AEF79161233AC1208DED1
:102A13007408121884E9F50C700B1233A8120530F0
:102A2300800F750C01850882850983122B3D1236B0
:102A330020850C08022AFE74021218B9AC82AD83F9
:102A4300850C82850D831233B21207BE8A108B1157
:102A5300AC10AD11EC4D6043850C82850D83A3A3AF
:102A6300121AEF7510007511037810121AD8751029
:102A7300017511037810121AD874081218B9121AB2
:102A8300EF79161233AC1208DE7408121884E9F5D4
:102A930009700B1233A8120536800F750901850CD6
:102AA30082850D83122B3D123620850908804C85C3
:102AB3001882851983AC82AD831208A8803A8518E1
:102AC30082851983AC82AD831208AE802B85188270
:102AD300851983AC82AD831208B4801C8518828566
:102AE3001983AC82AD831208BA800D8518828519CB
:102AF30083AC82AD831208C0E9F508E50860298E2E
:102B0300828F83A3E06414601F850E82850F83E0A8
:102B1300900300122B47123E65900301123620E505
:102B230008A3122B4F120512EEFAEFFB12083C0218
:102B3300350CF50CEF3400F50D22123E6985188231
:102B430085198322F085188285198322F07C007D04
:102B530003850A82850B831233B62274EE1218C5DD
:102B630074FC12186E8A0A8B0B8C0E8D0FEA2405E7
:102B7300F508EB3400F5097C157D0079007A007BBC
:102B83000312110CE5082402F50CE509122B388514
:102B930018828519838582108583117810121AD8BB
:102BA300850882850983A3A3A3A3123062121AD8CE
:102BB300E5082405F510E5093400F5117810121A1B
:102BC300D8850C82850D831233BC1207B8740612A4
:102BD30018848A108B11AE10AF11E50A2402F50A8E
:102BE300E50B123607EE4F7003022D248017740293
:102BF3001218B91233B288828983EAF0A3EBF090FA
:102C03000300E004F0900300E0C394054003022DA9
:102C130024E4F510F5117810121AD87510E975111E
:102C2300027810121AD87510EA7511027810121A68
:102C3300D874061218B9121AEF7910EEFCEFFD12D0
:102C430033AC1208DE7408121884E9705E850882BA
:102C5300850983A3A3A3A3A3A3A3E0F89002E9E0B8
:102C6300687048123062121AD87CEA7D02E50824A3
:102C730008FAE5093400FB1211067402121884E9FC
:102C830060298E828F83A3A3A3A31233B290030080
:102C9300E0F5107402781012185B74012510F582A8
:102CA30074033511F583EAF0A3EBF074021218B93B
:102CB3008582108583117810121AD874021218B9FC
:102CC300121AEF850C82850D83123E7A1207C474A3
:102CD300041218848A108B11AE10AF11900300E018
:102CE300F5107511007402781012185B740025102A
:102CF300F874033511F988828983A312285070036D
:102D0300022BE8E82403F8E93400F9EE4F600302EC
:102D13002BF18882898374FFF0A3F0900300E00411
:102D2300F0900300E0600A1233A8120524790080B2
:102D33000B850882850983123617790A02350C74CC
:102D4300EA1218C574FE12186E8C128D13EA24054C
:102D5300F50CEB123FE41227C2750800750900EA6F
:102D63002402F510EB3400F511851882851983854B
:102D7300820A85830B780A121AD8850C82850D8303
:102D8300A3A3A3A3122F24121AD8E50C2405F50A32
:102D9300E50D123607780A121AD8850C82850D8341
:102DA300123E781207B874061218848A0A8B0BEA4B
:102DB300450B7003022ED5EA2404F50EEB122F1AED
:102DC3001227C28A828B83A3A3A3E0F9851082858D
:102DD30011831233B21207A6E9F5096003022ED557
:102DE300E4F514F5157814121AD87514E97515025B
:102DF3007814121AD87514EA7515027814121AD8B1
:102E030074061218B9121AEF7913AC0AAD0B8510B8
:102E1300828511831233B21208DE7408121884E912
:102E2300F5096003022ED59002E9E0F8E508700980
:102E3300E02402900301F08017900301E0FCE824F2
:102E430002FAE43400FBEA6C7001EB6003022ED952
:102E5300850882AA82123059941412305150738516
:102E63000E82850F83E0C0E074022A122F11D0E096
:102E7300F00508850E82850F83A3E0C0E085080A6C
:102E83007402250A122F11D0E0F005089002E9120E
:102E93002F24121AD87CEA7D0285080A7402250AB7
:102EA300FA74033400FB1210F474021218849002B3
:102EB300E9E02508F50874FF6E700374FF6F601274
:102EC300EE24010EEF3400FFE508C394145003020F
:102ED3002D6CE508601312329D85108285118312D3
:102EE30033B212052A79008014E509700375090AC3
:102EF300851282851383EEF0A3EFF0A90974021201
:102F030018847F0E02199785080C7402250CF5822C
:102F130074033400F583223400F50F850E82F583A4
:102F230022123BA72274EE1218C574FE12186E8C7F
:102F33000E8D0FEA2405F50CEB122B38750B009060
:102F43000300E4F0F50AEA2402F508EB3400F5097E
:102F53008049900300E0FA9002E9E0F812305994B6
:102F630017123051400D900300E0F87416C3989087
:102F730002E9F0123062121AD87CEA7D0274012A47
:102F8300FA74033400FB1210F474021218849002D2
:102F9300E9E0F8900300E028F0050AE50C2416F5B3
:102FA30082E50D122F15E0F8E50AC39840030230BD
:102FB3003A900300E0C39416507DE50AC333F8E466
:102FC30033F9E50C28FEE50D39FF85188285198351
:102FD300AC82AD838E828F831233B21207BE8A1006
:102FE3008B11AC10AD11EC4D7005750B018043E4F2
:102FF300F510F5117810121AD87510E975110278C9
:1030030010121AD87510EA7511027810121AD874B2
:10301300061218B9121AEF791685088285098312E8
:1030230033B21208DE7408121884E9F50B70030238
:103033002F5512361380107C007D03850882850985
:10304300831233B212053CA90B740202350EE994C4
:1030530000C365D03322EA28F8E43400F9E822E01B
:10306300F51075110078102274EA1218C574FC1259
:10307300186E8A0C8B0D8C128D13EA2405F50AEB5E
:10308300123607750800750900E50A2402F510E5F4
:103093000B3400F51174021218B985820E85830F63
:1030A300780E121AD8850A82850B83A3A3A3A312D1
:1030B3003B53121AD8E50A2405F50EE50B3400F547
:1030C3000F780E121AD885108285118312360D12CD
:1030D30033AC1207B874061218848A0E8B0FAE0E27
:1030E300AF0FE50C2402F50EE50D3400F50F80401B
:1030F3008882898374FFF00508122F0A74FFF00594
:10310300089002E9E0F50C750D00780C121AD87CD2
:10311300EA7D0285080C7402250CFA74033400FB63
:103123001210F474021218849002E9E02508F508DD
:10313300EE4F60718E828F83A3A3A3E0F9850E8285
:10314300850F831233B21207A6E9F509EE240412A0
:103153002B35E97044E4F514F5157814121AD87573
:1031630014E97515027814121AD87514EA75150244
:103173007814121AD874081218B9121AEF7911EECA
:10318300FCEFFD850E82850F831233B21208DE74C5
:1031930008121884E9F5096027850C82850D8312CE
:1031A3003293123620E508700302327912329D857C
:1031B3000E82850F831233B2120542790002328EDA
:1031C300850882AA82EA9002E97009E02404900348
:1031D30001F08022E0F8900301E0F514E82404FCF8
:1031E300E43400FDEC65147001ED70C012305994A5
:1031F3001212305150B6850C82850D83E0C0E07405
:10320300022A122F11D0E0F00508850C82850D8368
:10321300A3E0C0E0122F0AD0E01232AF85820C8502
:10322300830D780C121AD874041218B9121AEF8588
:103233001082851183123E7A1207C4740412188413
:103243008A0C8B0DAE0CAF0D85080C7402250CF89F
:1032530074033400F9EE4F70030230F3851882854E
:103263001983E0888289831232AFA3E0C0E0122F72
:103273000AD0E0023101E509700375090A850A8263
:10328300850B83123293123620A9097404022F028C
:10329300123E6985128285138322900301E0F5F0C3
:1032A300E50884900300F07C007D0322F005088587
:1032B30018828519832274EC1218C574FE12186ED5
:1032C3008A088B098C0E8D0FEA2405FEEB3400FF70
:1032D300851882851983AC82AD838E828F831233E6
:1032E300B21207BE8A0A8B0BEE2418122B35EA455D
:1032F3000B70030233831234F5503285188285191B
:10330300831233B21208D28A108B11EA4511606B13
:103313007912AC0AAD0B8508828509831233B28515
:1033230010828511831218C3E9F50A7058E4F50A6F
:10333300F50B780A121AD88E828F83A3A3E0F50ABD
:10334300780A121AD8EE2403123604780A121AD80D
:103353008E828F831233BC1208E47406121884E938
:10336300F50A7021850C82850D83E0701F85088224
:103373008509831233B21205488011750A0E80093C
:10338300750A018004E50A6003123613850C8285F1
:103393000D83E0600479008002A90A740212188484
:1033A3007F0C0219977C007D03850A82850B8312AB
:1033B30033B622E0FAA3E0FB22E0FCA3E0FD85089C
:1033C300828509831233B62274EE1218C574FE1275
:1033D300186E8A088B098C0C8D0DEA2405FEEB34DC
:1033E30000FF750E00851882851983AC82AD838E2C
:1033F300828F831233B21207BE8A0A8B0BEA450B04
:1034030070030234E11234F550358518828519832F
:103413001233B21208D28A0E8B0FEA450F605E791F
:1034230012AC0AAD0B8508828509831233B2850E6F
:1034330082850F831218C3E9F50E60030234E48515
:1034430008828509831236FBAA0AFB1208C68A1072
:103453008B11A810A911E849701E7AFF7BFF12088F
:10346300C68A108B11A810A911E849606C8882895B
:1034730083E50AF0A3E50BF0750A008007750E0ECD
:10348300805F050A9002E6E0FAE50AC39A504AE52E
:103493000A75F017A4FAABF088828983A3A3E02A04
:1034A300FAA3E03BFB8A828B8312360DEC4D70D27C
:1034B300750A17750B00780A121AD8EEFCEFFD1285
:1034C30010F47402121884EEFCEFFD85088285095E
:1034D300831233B212054E8014750E098003750EE4
:1034E30001123E61850C82850D83123620A90E02DE
:1034F300304CE5082402F508E5093400F5098A8211
:103503008B83A3A3A3E0A2E52274041218847F0A89
:1035130002199774EC1218C58C108D11EA2405F565
:103523000CEB122B38750F00EA2402F50AEB123666
:1035330007850A82F5831233B21208C68A088B09FB
:10354300EA450970030235F9750E008071850C8216
:10355300850D83E06401704F8E828F83A3A3121ABB
:10356300EF8E828F83A3A3A3A3E0F51275130078D4
:1035730012121AD8EE2405F512EF3400F51378125F
:10358300121AD81233AC1208E47406121884E9F53F
:103593000F6014850C82850D83E4F0123E61851063
:1035A300828511831236207C177D007900EEFAEFB5
:1035B300FB12110C8E828F83E4F0A3F0050E9002B0
:1035C300E6E0F8E50EC398501EE50E75F017A4F873
:1035D300A9F0850882850983A3A3123FEE12360D55
:1035E300EC4D600302355085088285098374FFF032
:1035F300A3F0E50F70061233AC120554A90F023382
:10360300A3F50AEF3400F50B22A3E0FCA3E0FD22AF
:103613008E828F83123E69850E82850F83E8F0A325
:10362300E9F022C082C0839002E2E06A7003A3E063
:103633006B70067AE27B0280047A007B0002291316
:10364300C082C08378008C828D83E06A7003A3E01C
:103653006B7010E875F003A4F8A9F0EC28FAED39C3
:10366300FB8015088C828D83A3A3A3E06A7003A358
:10367300E06B60DF7A007B0002291374F61218C531
:103683001208908A828B83E582458370067A007BD9
:10369300008007A3A3A3A31233B2023D1274F21254
:1036A30018C5E9FE740E1218B91236FB74101218FD
:1036B300B9123B738C828D83E064027036A3123E91
:1036C3006FF50CA3E0F9A80C740268700374296900
:1036D3007021750C02750D00780C121AD878081237
:1036E3001AD8780A121AD8EEF912090874061218B1
:1036F3008480027901023D96E0F50AA3E0F50B22EE
:1037030074E81218C574FB12186EE98518828519BE
:1037130083F08A168B17ECFEEDFF751000741D12F3
:1037230018B9123E65741D1218B91236208E828F95
:1037330083A3A3A3E0A2E4502D741D1218B912337E
:10374300B21208D28A828B83E58245837003023BDF
:1037530044790AEEFCEFFDAA16AB171218C3E9F57C
:10376300106003023B47741F1218B9123B73742194
:103773001218B91236FB74231218B9E0F50EA3E040
:10378300F50F8E828F83E064026003023AF2A31284
:103793003E65850882850983A3858212858313EE9E
:1037A3002406122B3588828983E0FAA3E0F9EA2400
:1037B30000F514E439F5157814121B620100002892
:1037C3000128E73707000228AC38032819380029F5
:1037D300E33901290E3A0229AF390329E3390429D0
:1037E3008D3AF23AE50E450F6003023AED850C82FD
:1037F300850D83123B68FAE9FB8A828B83E0850A95
:1038030082850B83123B9E121AD88A828B83A3E094
:10381300FCA3E0023A77E50E450F6003023AED851B
:103823000A82850B837401F0123B7B85088285092C
:1038330083F07C007D008E828F83A3A3A3A3E02467
:1038430001FAA3E03400FB1207BEEA4B60418A820F
:103853008B83E02402F8850A82850B83E028F0EA53
:103863002404F8EB3400F988828983E08512828589
:103873001383123BB0123B9E121AD88A828B831297
:10388300360CE5082403FAE5093400FB023A7C858B
:103893000A82850B83E02404F07C047D007900AA6E
:1038A30012AB1312110C023B47E50E450F600302E6
:1038B3003AED123B7BFEA3E0FF850A82850B8374FE
:1038C30004F0EE850882850983F0EF851282851363
:1038D30083F074031218B9AC82AD83EEFAEFFB12D6
:1038E30007BE8A0C8B0DEA450D70030239908A825C
:1038F3008B83A3A31227BE74011218B985820E8588
:10390300830F780E121AD874051218B9121AEF7CA5
:10391300FF7DFF1207C474041218848B0FEA450F4E
:103923007033850C82850D83123B53121AD8850C94
:1039330082850D83A3121AEF7C027D007A9E7B9011
:103943001205F07404121884E9700A74011218B98C
:1039530074FFF0A3F08E828F83E064027039750CDC
:1039630002750D00780C121AD88E828F8312360CD2
:10397300E5082404FAE5093400FB1210F47402127A
:103983001884850A82850B83E0240280097401125E
:1039930018B9EEF0A3EFF074011218B9123B64F0FA
:1039A30074011218B9A3123B5C023AE7E50E450F06
:1039B3006003023AED850C82850D8312360DAA163B
:1039C300AB171208FC850A82850B837402F0EA8523
:1039D3000882850983F0851282851383EB023AEA14
:1039E300E50E450F6003023AED123B7BF8A3E0F9C5
:1039F300850A82850B837402F0E885088285098332
:103A0300F0E9851282851383023AEA850C82850DDB
:103A1300831233B21210EEEAFC8C82A882C3950E95
:103A2300E4950F405FE8650E7002E50F70047C00BB
:103A33008022851882851983E0FAE50E2AFAE50FBC
:103A43003400FBC3EA98EB94005003E08005E50ED5
:103A5300CCC39CFCEC850A82850B83F08C0A750B26
:103A630000780A121AD8850C82850D83E0250EFC96
:103A7300A3E0350FFDAA08AB091210F47402121863
:103A830084023B47751007023B47E50E450F705A0A
:103A9300850C82850D83123E65850A82850B8374AE
:103AA300071227CA123B5C1227CAA3E0851282853C
:103AB3001383F0E82402FAE93400FB8A828B831231
:103AC3003B5C123B8B123B64A3123B94123B6DF0A5
:103AD300E82405F8E93400F988828983123B6DA351
:103AE300123BB0A3A3A3A3F0805A75100B805574A7
:103AF3001D1218B91233B21208908A828B83E582A1
:103B03004583603D123E65880C890DE8450D6031A3
:103B1300780E121AD8780A121AD87808121AD8749A
:103B2300061218B9E0F9EEFCEFFDAA16AB17850CE7
:103B330082850D831218C37406121884E9F5108068
:103B43000375100EA91074051218847F10021997BB
:103B5300E0F50E750F00780E22E085088285098353
:103B630022123BBA22123E69E822123BBAA3A322D5
:103B7300E0F508A3E0F50922850C82850D83E0F8C2
:103B8300A3E0F5838882E022A3A3F08A828B83A338
:103B930022F088828983A3A3A3A322F08A828B8342
:103BA300123BA722E0F50A750B00780A22F08882FF
:103BB3008983A3123BBA22E0850882850983A3A3E4
:103BC3002274EE1218C574FE12186E8A0A8B0BEC5F
:103BD300FAEDFB74141218B9E0F510A3E0F51174B3
:103BE300161218B9E0FE74181218B9E0F50EA3E026
:103BF300F50F851882851983AC82AD831207BE8ABF
:103C03000C8B0DEA450D60498518828519831233A3
:103C1300B21208908A828B83E5824583602FA3A327
:103C2300123B73E50845096024780E121AD8781000
:103C3300121AD8EEF9AC0CAD0DAA0AAB0B850882AB
:103C43008509831218C374041218848006790E80C0
:103C530002790102304C74F61218C574FE12186E04
:103C6300740C1218B9123B68851882851983F07495
:103C7300011218B9E9F0E4F508F5097808121AD821
:103C83007508027808121AD874041218B9858208C4
:103C93008583097808121AD81208E4740612188466
:103CA3007402121884806874F71218C5EAFEEBFFD9
:103CB30089087C197D031208FCEA5402600BA908E9
:103CC300EEFAEFFB1207B2800279010226C674F600
:103CD3001218C574FF6A700374FF6B70168C828DA3
:103CE30083123D17E4F08C828D83A3A3A3123D17A7
:103CF300A380181208CC8A088B09A808A909E849E7
:103D0300600D8882898374FF1227C8A3A3E4F07F20
:103D13000202199774FFF0A3F08C828D83A3A32270
:103D230074F61218C51208CC8A828B83E582458308
:103D33006006A3A3E0FA80027A007B0080D174F2CC
:103D43001218C58A088B09ECFEEDFF740E1218B920
:103D5300E0F50A1208CC8A0C8B0DA80CA90DE849D2
:103D63007026EEFCEFFD7AFF7BFF1208CC8A0C8BEA
:103D73000DA80CA90DE84970047911801688828971
:103D830083E508F0A3E509F088828983A3A3E50A04
:103D9300F079007F0602199774EE1218C5EAFEEB5C
:103DA300FF8C088D09890C74141218B9123E6574BE
:103DB300161218B91233B2750D00E8496003023EBA
:103DC300597402650C6003023E5474121218B9123E
:103DD3003E6FFCA3E0F9EC2400F50EE439F50FEA9D
:103DE300F4F8EBF4F9EC58F8E50F59F9E849705C8D
:103DF300E5082406F8ED3400F9880A890B8882F572
:103E030083123E7A1208FC8A108B11E50E6510703E
:103E130004E50F65116042780E121AD8850A82856F
:103E23000B83123E7A1209027402121884E9F50D0B
:103E33007027780E121AD8850882850983A3A312E6
:103E43003E7812091A7402121884800D750D808051
:103E530008750D0D8003750D0BA90D0235118E82AA
:103E63008F83123E6922E0F8A3E0F922123E6988AB
:103E7300828983E022A3A3E0FCA3E0FDEEFAEFFB3B
:103E83002274E81218C574E712186E851882851912
:103E930083EAF0A3EBF08C168D17890E7508007575
:103EA300090074311218B9E0F512A3E0F513743365
:103EB3001218B9E0F514A3E0F51574351218B9E03A
:103EC300F50FE50975F003A4F8A9F08518828519A3
:103ED30083123FEEE0F47003A3E0F47003023FD1DA
:103EE300EE2402F50CEF123FE4E07003023FD185AC
:103EF300160A85170B780A121AD8AC14AD15AA1234
:103F0300AB1312088474021218848A0A8B0BEA45D5
:103F13000B7003023FD1E4F510F5117810121AD893
:103F230074061218B98582108583117810121AD875
:103F330074091218B98582108583117810121AD862
:103F4300851282851383A3A3A3A3121AEF7914AC5A
:103F53000AAD0B8E828F831233B21208DE740812FD
:103F63001884E97069850A82850B83A3A3A3A3122E
:103F73003E6574021218B9123620850C82850D83B2
:103F8300E0A2E05018A90E74021218B9AC82AD83F6
:103F93008E828F831233B21207D6E94208850C82D0
:103FA300850D83E0A2E15026E50FF50A780A121A7F
:103FB300DCA90E74031218B9AC82AD838E828F8391
:103FC3001233B21207D07401121884E942080509AA
:103FD300E509C394025003023EC5A9087419023BC4
:103FE3004B3400F50D850C82F58322E028FEA3E017
:103FF30039FF8E828F832274F21218C5EAFEEBFF1B
:10400300890B7401650B600E7402650B706A79018C
:10401300120ADCE97062EEFAEFFB1208C68A088B1B
:1040230009EA45096047750A00800B7C177D007912
:104033000012110C050A9002E6E0F8E50AC3985055
:1040430021E50A75F017A4F8A9F08508828509838C
:10405300A3A3E028FAA3E039FB8A828B8312291AEF
:1040630070C985088285098374FFF0A3F07C197DEC
:1040730003EEFAEFFB1208F6023D9674F21218C52E
:104083008A088B09ECFEEDFF740E1218B91236FB89
:10409300900E5FE0F4603D7A097B00121118EA4B41
:1040A30060328A828B8374B1F0A3E4123B8DA31236
:1040B3003B8BA3E508F0A3E5091240DAEEF0A3EF8A
:1040C3001240DAA3A3E50AF0A3E50BF0900E5FE03C
:1040D300F9121124023D96F08A828B83A3A3A3A332
:1040E300A322C082C08390075FE0F8E94A68900783
:1040F3005D603C7403F07410697013EAC333FCE42D
:1041030033FD74682CF58274073DF5838015E970DF
:104113002074016A7005900952800874026A701154
:104123009009541257F4900762ECF0A3ED8001E478
:10413300F00250CD74F01218C574FE12186E8A087E
:104143008B097E007F00EEF8EFF97A027B001217ED
:10415300DBE8C333F50EE933F50F7468250EF50C70
:104163007407350FF50D850C82F583A385820A85C7
:10417300830B851882851983AC82AD837A02EE2482
:104183008DF91214F0E9601B74C2250EF582748F49
:10419300350FF583125245850C82850D83E8F0A314
:1041A300E9801A851882851983E0850A82850B8345
:1041B300F074011218B9E0850C82850D83F0E508CF
:1041C3002EF8E509124E3DEE2402FEEF3400FFC344
:1041D300EE9408EF12506950030241497402121819
:1041E300847F0802199774F71218C574FE12186EAB
:1041F300EAFEEBFF851882851983AC82AD837A02D0
:1042030079951214F0E96045900770E0600C146032
:10421300142481601B14601F802890095274BDF020
:10422300A37404803C9009527403F0A37405803195
:1042330090095274E0800590095274F5F0A374015B
:10424300801F90095274FFF0A3743F801485188275
:10425300851983E0F974011218B9E0900952F0A3AB
:10426300E9124D8079971214F0E96041900770E0EC
:10427300600C1460102481601714601F802790095C
:104283005474C680059009547465F0A37402803198
:104293009009547416F0A37401802690095474F5A0
:1042A300F0A3E4801C900954E4F0A38014851882E1
:1042B300851983E0F974011218B9E0900954F0A349
:1042C300E9F090095312488F90095212439E9009C6
:1042D300551243899009541243937402024D90740A
:1042E300F71218C574FC12186EEAFEEBFF851882EC
:1042F300851983AC82AD837A0479891214F0E9605D
:104303002C900770E4F090094BC3E09458A3E09419
:1043130002500E900764E064017006900770748089
:10432300F09007717402F0A3E4F0A380288518824B
:10433300851983E0900771F074011218B9E09007B2
:1043430070F074021218B9E0F974031218B9E0900E
:104353000772F0A3E9F0900770E0547F900FB570F7
:104363000474148002740FF0A3E4F09007711248F0
:104373008F90077012439E900773124389900772C0
:10438300124393024D8E12438D2212447DA3F022D9
:104393001243972212447DA3A3F022124479F02200
:1043A30074E81218C5EAFEEBFF8C0A8D0B74181221
:1043B30018B9781012173E8E168F178E088F09EED4
:1043C3004F702F7A057B0012118A8A088B09AE0879
:1043D300AF098E828F83A3A3A3A3E4F08E828F837E
:1043E300A3A3E50AF0A3E50BF08E828F83E4F0A389
:1043F3008048EA2404F514EB3400F51590905378C3
:10440300101216B7851482851583E0F50CE4F50DBB
:10441300F50EF50F7810790C1215AD502480048831
:1044230008890912540970F77A057B0012118A1260
:104433004484851482851583E004F08030880889DC
:104443000912540970F77A057B0012118A12448409
:104453008E828F83E0FEA3E0FF851482851583128D
:104463004479A3A3A3F0AA16AB17121190EEFAEFA7
:10447300FB7F1002199712447D22E08E828F83A363
:10448300228A0C8B0DA80CA90D88828983A3A3E52E
:104493000AF0A3E50BF088828983E4F0A3F0850892
:1044A30082850983E8F0A3E9F02274F41218C57435
:1044B300FC12186E8908900774E0650870030245C2
:1044C3007B851882851983AA82AB831212629009B5
:1044D3004DE0F50A75F005A4F8A9F0745628FE74AA
:1044E3000939FFE0C394C950198E828F8312522D6C
:1044F30012175C8E828F83A312176890094DE00414
:10450300806B78007900E8FAE9FBEA75F005A4FA14
:10451300ACF075F005EBA42CFB74562AFC74093B34
:10452300FD8C828D83A3A3A3A3A37405121781E833
:10453300240108E93400F9E50A24FFFAE434FFFB17
:10454300C3E89AE99BA2D265D03340BAEE24FBF5C7
:1045530082EF34FFF58312522D12175CEE24FCF523
:1045630082EF34FFF58312176890094DE4F0E508F4
:10457300900774F0790180027900740412188402A0
:1045830056DDC082C083900760C3E09489A3E094A2
:10459300139007604005E4F0A38003124724025000
:1045A300CC74F71218C58908740F5508F874F055C0
:1045B30008600A24F0603424F06067806F90094E2D
:1045C300E0706990094FE0640260617401F07EF469
:1045D300FFE8601214600514600680507A018002BF
:1045E3007A0279008037121280804190094EE07080
:1045F3003B90094FE064026033E4F07EF47F01E80E
:10460300600B14600C14600D14600E801F7A008020
:104613000A7A0180067A0280027A03791012120262
:10462300800A9009507401F07E007F00E50890072E
:104633005FF0EEFAEFFB024D9374F01218C5EAFE39
:10464300EBFF908FFB121AEB90077912524575839B
:1046530007758266E0C398FCA3E099FD9007751285
:10466300540312121A7404121884900775EAF0A303
:10467300EBF07C007D009007751252458007E02C1B
:10468300FCA3E03DFD88828983E5822402F8E5836B
:104693003400F9E8FAE9FB12540F8A828B8370DE47
:1046A300E02CF508A3E03DF509900764780C121798
:1046B3003E900777780C121598600C9007647C770E
:1046C3007D077404121781900764780C12173E90CB
:1046D300077B780C121598603A90077F125245C3F6
:1046E300EE98EF99502D9007647C7B7D077404123C
:1046F300178190077FF0A3F07A04FB12118A8A0ACC
:104703008B0BAE0AAF0B12476112156EEEFAEFFB7D
:1047130012119090077F124724F0AA08AB090241B7
:10472300E4E02401F0A3E0340022C3EA9CEB9D40C3
:104733000479028002790102012274F61218C57A03
:10474300047B0012118A8A088B09AE08AF0912474D
:104753006112156EEEFAEFFB121190024FEC900707
:1047630064E08E828F83F0900765124479F090079E
:104773006712438D900766124397EEFCEFFD7A04B0
:1047830079052274F61218C57A087B0012118A8AF9
:10479300088B09AE08AF09121208EEFCEFFD7A0888
:1047A300790112156EEEFAEFFB1211907A057B0078
:1047B30012118A8A088B09AE08AF097C437D0D7AF2
:1047C30001799B1214F0E96005900D43E4F0900D1C
:1047D3004312488FEEFCEFFD7A05790612156EEE53
:1047E300FAEFFB1211907A047B0012118A8A088B6C
:1047F30009AE08AF09121214EEFCEFFD7A0479003A
:1048030012156EEEFAEFFB1211907A047B0012116F
:104813008A8A088B09AE08AF0912120EEEFCEFFD6F
:104823007A04790312156EEEFAEFFB1211907A02F5
:104833007B0012118A8A088B09AE08AF097CB37D0D
:104843000F7A0279991214F0E9601A900770E0A2C6
:10485300E7900FB340087484F0A374038006746276
:10486300F0A37401F0900FB412488F900FB312436A
:104873009EEEFCEFFD7A02790212156EEEFAEFFB63
:1048830012119075C90043C908024FECE08E828F64
:1048930083F02274EA1218C58910750A00750B009B
:1048A3007C007D0079008911E510603514601424C3
:1048B30081601B1470407512F57513017514F58929
:1048C300158017751203751305751465801C751211
:1048D300E075130175141675150190078174028034
:1048E300117512BD7513047514C6751502900781F1
:1048F3007404F0A3E4F0900951E0F5088909740306
:10490300780812185B85080E85090F74B3250EF518
:104913000C740E350FF50D74A3250EF50E740E35BC
:104923000FF50FEAC333F508EB33F509C3EA940136
:104933001250685003024A6F900762E0F514A3E037
:10494300F515E512C39514F514E5139515F515C37F
:10495300E5149414E5159400503009900762E0C300
:104963009512F50AA3E09513F50BE50A2414F50A4D
:10497300E50B3400124C35E5129401E5131250692E
:104983004006AC12AD1380028911124CE0EA951275
:10499300EB9513A2D265D0335003024C1CE50C24D3
:1049A30002F512E50D3400F513E50E2402F582E558
:1049B3000F3400F583E9A2E04049E5107003024B90
:1049C3006B14601B24816038146003024C20124C6A
:1049D3005C1217DB1253F81217DB124C298017EA0B
:1049E300F8EBF91254031217DB880A890BE5082543
:1049F3000AF8E509350BF9851282851383024B8F7B
:104A0300024B49124C747003024BD9146023248166
:104A13006057146003024C20124C441217DB1253EC
:104A2300F81217DB880A890BEC250AFAED350B809F
:104A330017ECF8EDF91254031217DB880E890FE512
:104A43000A250EFAE50B350FFB85128285138312B7
:104A53005245E8850CF0A4F8ACF0850CF0E9A42CE1
:104A6300F9EA28F8EB39024C11024BA9C31250683A
:104A73004003024C1C900762E0C39514F512A3E0B7
:104A83009515F513C3E5129414E5139400501B090F
:104A9300E51224ECF50AE51334FF124C3512506984
:104AA3005006AC12AD1380028911124CE0E495124A
:104AB300F512E49513F513C3E5129AE5139BA2D2FD
:104AC30065D0335003024C1CE50E2406F582E50F36
:104AD3003400F583E50E2404F50EE50F3400F50FDD
:104AE300E9A2E05003024B98E50C2406F8E50D34E7
:104AF30000F9880A890BE50C2404F8E50D3400F964
:104B0300880C890DE510606014601B2481603714E4
:104B13006003024C20124C5C1217DB1253F812177D
:104B2300DB124C298017EAF8EBF91254031217DB56
:104B3300880C890DE508250CF8E509350DF9850A7A
:104B430082850B838046124C5C1217DBE8FCE9FD7F
:104B5300ECC333FCED33FD850E82850F83125403C2
:104B63001217DB124C29801DEAF8EBF9850E8285BA
:104B73000F831254031217DB880A890BE508250AF1
:104B8300F8E509350BF9850C82850D83E028FEA332
:104B9300E039024C19124C74603C14603F2481606C
:104BA300051470798006850E82850F83E0FEA3E0ED
:104BB300FF124C441217DBE8FCE9FDECC333FCEDB8
:104BC30033FDEEFAEFFB1217DB880A890BEC250A9B
:104BD300F8ED350B8023850E82850F83E0FEA3E07D
:104BE300FFECF8EDF9EEFAEFFB1217DB880E890FF5
:104BF300E50A250EF8E50B350FF9EE850CF0A4FE5A
:104C0300AAF0850CF0EFA42AFFE82EF8E93FF9E8B3
:104C13002508FEE93509FF80047E007F00EEFAEFE8
:104C2300FB7F0E02199788088909EC2508F8ED35F2
:104C33000922F50BEAC3950AF512EB950BF513C39D
:104C430022EC75F07FA4FCA8F075F07FEDA428FD9D
:104C5300ECF8EDF97A327B0022EA75F07FA4FAA82A
:104C6300F075F07FEBA428FBEAF8EBF97A327B00CE
:104C730022E511A2E0B3E433F50CE50A9AF8E50B5B
:104C83009BF9851108E88508F0A4F885F0118508DB
:104C9300F0E9A42511F9EAC3950AFAEB950BFBEAAF
:104CA300850CF0A4FA85F008850CF0EBA42508FB2D
:104CB300E82AF508E93BF509E50875F003A4F508CA
:104CC300A8F075F003E509A428F5098C0A8D0BE516
:104CD3000AC333F50AE50B33F50BE5102290078180
:104CE300E0F512A3E0F513C32274F71218C574F6A6
:104CF30012186EE9FEEAC333FAEB33FB74682AF841
:104D030074073BF988828983ECF0A3ED12522FF0EC
:104D130088828983E0C0E074011218B9D0E0124D93
:104D230080EEF91214EA7A007B00EAF8EBF9E8C3A3
:104D330033F8E933F974021218B9E58228FCE583E4
:104D430039FD746828F8740739F988828983A3E0E8
:104D53008C828D83F088828983E08C828D83A31279
:104D63004FF1940412506840C174021218B9AC8216
:104D7300AD837A08790112156E740A8010F08518D4
:104D830082851983AC82AD837A022274041218845B
:104D93007F0102199774F01218C574F612186E8AFF
:104DA300088B09750E00750F00E50EC333FEE50F82
:104DB30033FF74682EF50C74073FF50D850C82F5EF
:104DC30083A385820A85830BE5082EF582E5093FD7
:104DD300F58312540F6028850C82850D831253DAF4
:104DE300851882851983124E54C0E074011218B9D4
:104DF300D0E0124D80E50EC333248DF91214EA740A
:104E0300021218B9E5822EF8E583124E3DE50E2411
:104E130001F50EE50F3400F50FC3E50E9404E50F1D
:104E2300125069408474021218B9AC82AD837A08B7
:104E3300790112156E740A0241E13FF9850A8285F0
:104E43000B83E088828983124E5488828983A3F07E
:104E530022F0850C82850D83E02274EC1218C58A3A
:104E63000C7510007511007512007513007A00851A
:104E73000C088B098C0A8D0BEA33333354F878080A
:104E830012166C908FFF78081217057403C39A33B8
:104E9300333354F878081216857810790812172BD3
:104EA3000AEAC3940440C8AA10AB11AC12AD137F35
:104EB3000C02199774F71218C574FC12186EEAFEE7
:104EC300EBFF12117212117812125C851882851988
:104ED30083121768851882851983EEFCEFFDECFABF
:104EE300EDFB7404121781024D8E74F41218C57A07
:104EF300057B0012118A8A088B09AE08AF09740C6E
:104F03001218B912488F78017900C3E498FAE4992A
:104F1300FB740C1218B9E5822AF582E5833BF5830D
:104F2300A3A3A3A3A3E0C0E0EE28F582EF39F583A2
:104F3300D0E01250AE40D3EEFCEFFD7A05790612B5
:104F4300156EEEFAEFFB121190740C1218B9E060B3
:104F530018740D1218B9780812173EE5084509456B
:104F63000A450B70047901800279000256DD74F65C
:104F73001218C5900950E060707A107B0012118AF4
:104F83008A088B09AE08AF09900783E075F00FA478
:104F9300F8A9F0745628F8740939F912488F900764
:104FA30083E004F07A007B00E82AF582E93BF5838D
:104FB300E0C0E0EE2AF582EF3BF583A3D0E0124F89
:104FC300F1940F12506840E0EEFCEFFD7A1079087F
:104FD30012156EEEFAEFFB121190900783E0C39463
:104FE300434006E4F0900950F07F02021997F0EA7B
:104FF30024010AEB3400FBC3EA2274F61218C574C9
:10500300FC12186E851882851983AA82AB8312124B
:10501300627A047B0012118A8A088B09AE08AF09F1
:1050230078007900851882851983E58228F582E561
:105033008339F583E0C0E0EE28F582EF39F583D0BC
:10504300E01250C09404E912506940D8EEFCEFFD21
:105053007A04790712156EEEFAEFFB1211907404BD
:105063001218848084EB1250B822C082C0838A82D3
:105073008B83E0900D43F078017900EA28F582EB09
:1050830039F583E0C0E0C3E498FCE499FD74482C4F
:10509300F582740D3DF583D0E01250AE40DD7C43C4
:1050A3007D0D7A01799B1214EA801F1250C094057A
:1050B300E91250B8229400A2D265D03322F0E8243A
:1050C3000108E93400F9C3E822F0D083D082020159
:1050D30022C082C08390094FE4F090075DF09007EF
:1050E3005FF0900949F0A380E0C082C0838A828B7D
:1050F30083A3E0F8748168600D74016860087480AC
:10510300686003E8700BEAFCEBFD7A0479891214FA
:10511300EA12124480B474F71218C5EAFEEBFF8E4C
:10512300828F83E0F9A3E0900FB31252377999127B
:1051330014EAEEFCEFFD7A02790212156E024D932A
:1051430074F71218C574F812186EEAFCEBFD8C8222
:105153008D83E0C0E074011218B9D0E0F08C828D29
:1051630083A3E0851882851983F0EC2402FEED34D5
:1051730000FF8E828F83E0C0E074031218B9D0E081
:10518300F08C828D83A3A3A3E0C0E074021218B94C
:10519300D0E012522F12540F900952600C1253DABE
:1051A3007A0279951214EA800C1252458518828589
:1051B30019831253DA74021218B912540F90095456
:1051C300600BE812523779971214EA800B1252459A
:1051D30074021218B91253DA74011218B9E0C0E05C
:1051E30074041218B9D0E012522FE0C0E074051213
:1051F30018B9D0E0F074031218B9E0C0E0740612D5
:1052030018B9D0E0F074021218B9E0C0E0740712C4
:1052130018B9D0E0F074041218B9AC82AD837A04E3
:10522300790312156E7408024D90E508F085188213
:1052330085198322F0A3E9F0EEFCEFFD7A022290B8
:10524300094BE0F8A3E0F922C082C083900764E031
:10525300640170059007668008E06406600C90099D
:105263005212524590094B1253DA90075DE0703F9A
:1052730090075EE064037027C390094A1253E0501D
:10528300030253BC900949C3E09401A31253E040C5
:105293000302539775800053FD0F90075E800CE067
:1052A30070030253D775800053FD0FE40253D6F801
:1052B30090075EE068700302535E90075DE0146040
:1052C3000914601714602602535590094BC08212CB
:1052D30053E5D0821253F15079802D900954125422
:1052E30003125242C3EA98EB9950678035900952F2
:1052F300C082900762125245758309D0821253F11E
:10530300500F900952125245900762E8F0A3E980CA
:1053130018900954125403900762C3E09AA3E09BC8
:105323005008900762EAF0A3EBF0900770E0F99061
:105333000762C08290094B125403758307D082E041
:10534300C39AFAA3E09BFB12124A900949EAF0A31D
:10535300EBF090075DE090075E8078900949125466
:105363000F701675800053FD0F90075DE4F09007F2
:105373005FF090094F7402805A90075DE014600556
:10538300146024804F90094BC0821253E5D08212DF
:1053930053F1503343FDF0758040900949E024FFF9
:1053A300F0A3E034FF802C900954C082125242755E
:1053B3008309D0821253F1500E43FDF07580809023
:1053C3000949124724800C75800053FD0F90094949
:1053D300E4F0A3F00250CDE8F0A3E9F022E012508C
:1053E300B822900952E0F8A3E0F975830922C3E0DB
:1053F30098A3E09922E8FCE9FDECC333FCED33FD0F
:10540300E0FAA3E0FB22850882850983E0F8A3E0A4
:10541300F9E84922C082C083E590540F900784F0D5
:1054230090094FE064017003025591900784E06492
:105433000F90094F7020E4F090075DF0900785749A
:105443000FF090075EE064037003025591758000CE
:1054530053FD0F0255917402F090094EE060030270
:105463005591900785E0F8900784E0687003025532
:105473009190075EE06403700302557E900784E019
:1054830024FD700302551524FE602C24FE602024A5
:10549300FE700302553624FE605724FE6009147023
:1054A3000302557102558990075D74010255889076
:1054B300075D7402025588900764E06406601D90DE
:1054C3000768E0F47003A3E0F470030255899007C2
:1054D3005D7403F090076812524580751257F17995
:1054E3008D7A007B0012125043FDF07580C0025587
:1054F30089900764E06406600590076A804012574C
:10550300F1798F7A017B0012125043FDF0758020F0
:105513008074900764E06406600590076C801F1236
:1055230057F179917A027B0012125043FDF0758096
:10553300A08053900764E06406601F90076E1252C8
:105543004574FF68700374FF69603B90075D7403E3
:10555300F0900762E8F0A3E9802B1257F179937A70
:10556300037B0012125043FDF07580608018900792
:105573005DE4F043FDF0758010800B90075DE4F06F
:10558300900949F0A3F0900784E0900785F002505A
:10559300CD74F41218C5E9FE74046E60030256C795
:1055A30090076012540F70030256D6900760C3E051
:1055B300941EA3E09400500D7C047D007A867B0743
:1055C30012146080077A047B00121466900786E049
:1055D30090078EF0900787E0F990078FF090078887
:1055E300E0FA900790F0900789E0FB900791F09024
:1055F3009003780812173E90078A7808121598705E
:1056030072909007780812173E90078E780812154B
:1056130098604C90078E780812173E7401650870E5
:105623000474026509601490078E780812173E749B
:10563300016508700474016509702490900B780863
:1056430012173E90078E7808121598601290900FEB
:10565300780812173E90078E7808121598701490E8
:10566300078E7401F0A37404F0A37401F0A374AA69
:10567300F0806090078E780812173E7401650870F9
:105683000474056509700E90078A7C8E7D07740487
:10569300121781800FE9900764F0EA900767F0EB37
:1056A300900766F090078E780812173E90078A7865
:1056B30008121598601D90078E7C8A7D077404126A
:1056C3001781800FEEC3940540098E08AA087B005A
:1056D300121466900760E4F0A3F07F040219977434
:1056E300F41218C5EAFEEBFFEEF8EFF9E8C333F85E
:1056F300E933F9900770E0600C14601124816015A0
:1057030014601A80227508C375090E801A7508CDB6
:1057130075090E80127508C375090E80067508CDCC
:1057230075090EE8FEE9FF1252427583077582621E
:10573300E0C398FAA3E099FB850882850983125791
:10574300F4C3EC9EED9FA2D265D033502E90077028
:10575300E0F912124A8A0A8B0BAC0AAD0BEEF8EF92
:10576300F9850882850983A3A31254031217DB88E2
:105773000A890B8508828509838047C3E49CF8E482
:105783009DF9C3EE98EF99A2D265D033505D90078F
:1057930070E0F912124A8A0A8B0BAC0AAD0BEEF8D1
:1057A300EFF9850882850983A3A3A3A3A3A31254B6
:1057B300031217DB880A890B850882850983A3A353
:1057C300A3A3A3A3A3A3125245E8850AF0A4C8AADE
:1057D300F0850BF0A42AFA850AF0E9A42AF9ECC3B0
:1057E30098F8ED99F99009491253DA0256DD9009B8
:1057F3004BE0FCA3E0FD2274F01218C574FA1218F2
:105803006E890BECFEEDFF750A008A088B09780898
:10581300121B1C0004102D5A3D585B5875588D58A7
:10582300AB58C358E658FE5812593C59C459D55978
:10583300EC59075A2D5A2D5A52597401650B6003BE
:10584300025A288E828F83E0F8C394034003025ADE
:1058530028E8900F7F025A047402650B6003025A12
:10586300288E828F8312612A900F80E8F0A3E902C9
:105873005A047401650B6003025A28125A554003F7
:10588300025A28E890079B025A047401650B6003CF
:10589300025A288E828F83E0F8C394054003025A8C
:1058A30028E890079C025A047401650B6003025AAE
:1058B30028125A554003025A28E890079D025A04B9
:1058C3007410650B6003025A287508107509007877
:1058D30008121AD87A9E7B071210F47402121884E5
:1058E300025A4E7401650B6003025A28125A55403E
:1058F30003025A28E89007AE025A047401650B604C
:1059030003025A288E828F83E0900F83025A047415
:1059130004650B6003025A288E828F83780C12175A
:105923003E909063780C1215CD5003025A289007CD
:10593300B0780C12174D025A4EE96003025A28122E
:10594300075EE9700512132E8060900843806E7421
:1059530007650B6003025A28750806750900780865
:10596300121AD88E828F83A3AC82AD83740212186D
:10597300B9AA82AB831210FA74021218847C007DD8
:1059830000851882851983AA82AB838E828F83E078
:10599300F91212D4E9F508C3940A4003025A4B12D0
:1059A300075EE9700CA90812133479501214F680BB
:1059B3006F74442508F58274083400F583740180FC
:1059C300407401650B705E125A555059E89007AF49
:1059D300802F7401650B704D8E828F83E0F8C39422
:1059E3000A5042E8900F8280187401650B70368E5E
:1059F300828F83E0F874F928C3940A5028E8900F43
:105A030084F080477401650B701B900842E0F88EA8
:105A1300828F83E0900842F0E87030E06401702BDD
:105A23001213228026750A188021C3EA9427EB9467
:105A33000050157402650B700F8E828F83126529D7
:105A43001205FCE9F50A8003750A02A90A74060225
:105A5300611F8E828F83E0F8C394022274F01218C0
:105A6300C574CC12186E8C0A8D0B74201218B9AC45
:105A730082AD8375838F7582D87406121781742063
:105A83001218B9AC82AD831212D4E9F5087444122A
:105A930018B9E0FEE9C3940A4003025BCD75F00632
:105AA300E9A4F50974261218B9AC82AD837A0E7491
:105AB300202509F91214F0E9700974321218B9E0BB
:105AC300FF80027F00900F7FE06402700474018006
:105AD30001E4F50D780D121ADCEEFDEFFCA908AA1E
:105AE3000AAB0B12135874011218847C147D0079CD
:105AF30000740C1218B9AA82AB8312110C740C1225
:105B030018B9AC82AD837A1074242509F91214F004
:105B1300E9703C7C1079FF740C1218B9AA82AB832C
:105B230012116CE97029741C1218B9AC82AD837A16
