:020000040000FA
:0600000002010A02237850
:03002B000227EDBC
:030033000227CFD2
:03003B0002280E8A
:030043000227830E
:030053000223EE97
:03006B000227A9C0
:10008300022227E5C754F84401F5C779012200008D
:100093000080FB120086B900030200F4E4792178A2
:1000A30008B800028004F709D8FCE479297802B87B
:1000B30000028004F709D8FCE49002817863790C8C
:1000C3008002F0A3D8FCD9FA900DE3AA82AB839007
:1000D300013A780779058015E493A3AC82AD838A4E
:1000E300828B83F0A3AA82AB838C828D83D8E9D9D8
:1000F300E77582C37583C6740312011C75829175FB
:100103008300740012011C75D00075813F7518813E
:10011300751902759F00020096C09FF59FE473D086
:100123009F22D083D082C09FE493C0E0740193C028
:10013300E0740293F59F22FF0000B400002800281A
:1001430000283075A000A000A000A000000800084F
:10015300E001F0001000100010001000100010006B
:1001630050005000500010001000D00700000000A5
:1001730000000F00010005003075070010000100AA
:1001830081FF00000000FF3E075C074407FF0202F7
:100193000208025000A0000000E80302AB90010037
:1001A30000949002B3900100003A0E029F90010068
:1001B30000B30202B3900100003B0E029D900100C8
:1001C30000C90202B3900100003C0E02A590010099
:1001D30000CB0202B3900100003D0E02C59008005F
:1001E30000CC0202B3900100003E0E02B190010068
:1001F300003F0EFF0100FF2002AB9001000097902B
:1002030002B390010000A30E02AF900000000000B3
:1002130002A19003000019036E0D6E0D6E0D6E0D9D
:100223006E0D6E0D6E0D6E0D6E0D6E0D6E0D6E0DF3
:100233006E0D44105C103E10FFFF0200E2FF02004F
:10024300E7FF0200F3FF0200F3FFFAFF07000300DA
:10025300F9FFFBFF07000400F7FF07000300090095
:1002630003000A000E0005000D0005000E00020247
:1002730002020202020202010D000000100102ABA1
:10028300900100009A9002B3900100001A0F02C778
:10029300900100009B0702B3900100001B0F02C3F3
:1002A300900100006B8F02B3900100001C0F02C18C
:1002B300900100005D8F02B3900100001D0F02BF8B
:1002C30090010000B98E02B3900100001E0F02BD21
:1002D30090010000A78E02B3900100001F0F02BB24
:1002E30090010000958E02B390010000200F02B927
:1002F30090010000CB8E02B390010000210F02B7E2
:10030300900100004F8F02B390010000220F02B54D
:1003130090010000230F01E803053F100AFF0001CD
:100323003075030201060000000000000000000019
:1003330000000000000000000000000000000000BA
:100343000000FFFF0600800CE80384030F0013097D
:100353004F666669636577656C6C20233030303097
:100363006666051208000800020A0002010603027D
:10037300F1FF53696D706C6520424C4520506572E6
:100383006970686572616CC0150000CC150A48611C
:1003930072647761726520496E666F726D6174690C
:1003A3006F6E000A507265736574204865696768EB
:1003B300740002506F7374757265204A75646765C3
:1003C3006D656E74000A416374696F6E2052616ECD
:1003D30067650008436F6E74726F6C20436F6D6DB9
:1003E300616E6400125065736B205374617475738E
:1003F300000A4C6F636B2053746174757300025071
:100403006F77657275702054696D657374616D7073
:100413000000104865616C74682044617461000ACF
:100423004175746F6D61746963204D6F7665204407
:10043300617461000002AB90010000B98F02B390B8
:10044300010000391002CF90030000A20D02A39017
:100453000100003A1002B3900100004F1002D19046
:10046300030000A60D02A390010000501002B390F8
:100473000100005E1002D390010000AE0D02A390B4
:100483000100005F1002B390010000711002D590CB
:10049300030000B00D02A390010000721002B3909C
:1004A3000100007F1002D790020000B40D02A39058
:1004B300010000801002B390010000901002D99057
:1004C300010000B50D02A190030000B90D02A39035
:1004D300010000911002B3900100009D1002DB9017
:1004E300030000BF0D02A3900100009E1002B39011
:1004F300010000AA1002DD90010000C40D02A390C8
:10050300010000AB1002B390010000BE1002DF90A7
:10051300000000C80D02A190030000D80D02A390B3
:10052300010000BF1002B390010000CB1002CB907A
:10053300030000DE0D02A390010000CC1012012580
:100543003EB70312012555B70312012586B70312DF
:100553000125C1B703120125EBB70312012515B815
:10056300031201252CB80312012543B803120125F8
:100573005AB80312012583B80312012596B8031252
:100583000125ACB803120125BFB803120125E6B853
:100593000312012538B6021201253CB702120125C8
:1005A30074B70212012597B702120125A2B70212EE
:1005B3000125C5B702120125D4B802120125A9B934
:1005C3000212012524BA02120125ACBA0212012536
:1005D300E7BA021201251EBB02120125ACBB0212AF
:1005E300012585BC02120125E5BC02120125F0BCE0
:1005F300021201256FBD0212012572BD02120125EF
:1006030075BD0212012504BE0212012507BE0212A6
:10061300012537BE0212012561BE021201254FBF1B
:100623000212012501C002120125EA8903120125E4
:10063300128A03120125408A03120125778A0312C5
:100643000125D58A03120125208B031201256B8B0B
:1006530003120125AB8B03120125F18B0312012534
:100663001F8C03120125DC8C03120125E68C031277
:100673000125F38C03120125268D03120125F28D2A
:1006830003120125FE8D03120125168E0312012587
:10069300208E03120125B6C103120125C4C1031222
:1006A3000125DCC103120125F4C10312012502D681
:1006B30001120125AED60112012529D70112012508
:1006C3004AD80112012586D8011201252FD901121A
:1006D300012516DA011201257ADB01120125D1DB8E
:1006E3000112012552DC0112012542DD011201250F
:1006F3008FDD0112012515DE0112012547DE0112EE
:1007030001255BE0011201259DE001120125BBE0FB
:10071300011201253EE10112012512E20112012518
:10072300DAE201120125DAEB02120125ADEC021225
:10073300012556ED02120125A9ED0212012559EEFC
:1007430002120125E5EE02120125D1EF0212012565
:1007530000F00212012513F1021201255BF10212CE
:10076300012530F2021201256CF20212012588F2F2
:100773000212012520C503120125A39F031201259F
:10078300B99F03120125DF9F03120125FBA003126A
:10079300012505A1031201253AA20312012532A363
:1007A3000312012500800312012530810312012564
:1007B300638103120125AD810312012574830312A2
:1007C300012513C6011201257DC601120125DCC7CF
:1007D30001120125ECC70112012519C801120125D7
:1007E30070C80112012519C90112012520CA01127D
:1007F3000125EACA011201254ACC011201258DCC3B
:100803000112012532CD011201257FCD01120125EF
:10081300A5CD01120125B3CF01120125B8CF0112D5
:100823000125BDD1011201250AD2011201257DD274
:1008330001120125B0D20112012552D30112012563
:10084300FBD30112012533D40112012536D4011241
:1008530001257ED401120125BED40112012515D52F
:100863000112012594AC03120125ACAC031201253E
:10087300F4AC031201250AAD0312012551AD031295
:10088300012565AE03120125F2AE031201253DAF2A
:10089300031201259144001201259D4400120125F4
:1008A300D844001201251D4500120125DD45001223
:1008B3000125634600120125C84600120125F446AE
:1008C300001201252D47001201256B490012012555
:1008D3004F4B00120125354D00120125784E0012B1
:1008E3000125C65000120125D851001201252353BA
:1008F3000012012533540012012550540012012522
:100903008B5400120125AD5400120125105500121D
:100913000125D15900120125665A00120125B75A43
:1009230000120125DE5A00120125305B0012012559
:100933004E5B00120125A85B00120125915C001299
:100943000125075E001201258B5E00120125A78E8B
:1009530003120125B18E03120125F48E0312012522
:100963000F8F031201259F8F03120125C78F0312D7
:1009730001250490031201253B9003120125649085
:1009830003120125D99003120125EE9003120125CC
:100993000391031201253491031201254891031297
:1009A30001256D9103120125A79103120125D3910E
:1009B300031201255F92031201258A920312012576
:1009C300D39203120125FD920312012528930312EA
:1009D30001259ABD0312012565A90212012593A9D8
:1009E30002120125E1AA02120125C1AB021201255F
:1009F300E0AB021201255DAC02120125A0AC02128C
:100A03000125F6AD02120125B7AE021201253EB152
:100A130002120125DFB102120125D5B2021201250E
:100A2300D2B3021201252CB502120125B7B5021269
:100A330001253FBC03120125A8BC03120125FCBC00
:100A43000312012523BD0312012554BD0312012501
:100A5300509303120125BD9303120125049403123D
:100A630001251C9503120125189603120125FB96F7
:100A730003120125B5D302120125F7D30212012572
:100A8300C9D402120125A2D5021201259CD6021255
:100A930001257ED702120125E7D7021201259DD831
:100AA3000212012511D9021201257DD90212012555
:100AB300A6D90212012520DA02120125B9DA02129F
:100AC30001251EDB0212012533DB0212012579DB2E
:100AD3000212012592DB02120125F7DB0212012526
:100AE300FADB021201259BA903120125C3A90312F4
:100AF300012501AA03120125BFAA0312012526AB72
:100B03000312012542AB031201256AAB031201252F
:100B13009AAB03120125A9AB0312012526AC0312DC
:100B230001254CAC031201250BB601120125A9B70F
:100B330001120125C4B90112012500BA01120125D0
:100B43002DBA0112012512BB0112012559BB011255
:100B530001259DBB01120125AFBB01120125EFBB8E
:100B6300011201251CBC0112012567BC01120125DC
:100B7300A7BC01120125D5BC0112012527BD011215
:100B83000125B7BD0112012555C0011201256BC214
:100B930001120125A9C2011201253AC4011201253E
:100BA3007FC401120125F6C40112012540C50112BB
:100BB3000125E8C5011201253CCA02120125BBCA61
:100BC300021201257DD0021201258CD102120125CA
:100BD300F4D2021201258BD302120125E5900112F2
:100BE30001252E91011201255B91011201258E91A0
:100BF300011201259B9101120125A79101120125E3
:100C0300B99101120125A09201120125FE92011250
:100C13000125339301120125769401120125C39412
:100C230001120125E79401120125549501120125B2
:100C3300129601120125CB96011201253897011254
:100C43000125EA9701120125FA97011201258198DE
:100C5300011201254099011201256D990112012507
:100C6300E69901120125439A011201258D9A011279
:100C73000125239B01120125EE9B01120125A39C53
:100C830001120125189D01120125799D01120125EB
:100C9300E39D011201251C9E01120125BE9E011236
:100CA3000125CE9F011201250EA0011201252BA0C3
:100CB300011201254AA00112012591A0011201256B
:100CC300B6A001120125E3A0011201255DA10112C5
:100CD30001259EA101120125C2A20112012572A3C1
:100CE30001120125C9A30112012533A40112012513
:100CF3004CA40112012572C002120125C5C00212C3
:100D03000125D1C002120125A6C102120125CDC1C0
:100D13000212012508C20212012574C20212012522
:100D2300B0C202120125E9C20212012501C3021257
:100D3300012556C3021201256FC302120125B8C350
:100D430002120125CBC302120125E5C302120125BC
:100D5300FBC3021201252EC50212012575C602121C
:100D6300012577C70212012571C802120125F5FF7B
:100D7300011201252E9C021201255E9C02120125FF
:100D830026A0021201257DA10212012546A202120C
:100D93000125C6A30212012597A402120125D4A49A
:100DA30002120125F7A40212012535A5021201251D
:100DB3003EA50212012588A50212012592A5021261
:100DC30001253CA60212012515A70212012569A7D8
:100DD30002120125CBA7021201251EA8021201252A
:100DE3004DA8021201258AA8021201257EA4011230
:100DF3000125E5A701120125EBA7011201256DAD20
:100E030001120125E6B101120125BCB5011201252C
:100E13003CA303120125B2A303120125C8A30312A5
:100E2300012509A40312012543A403120125BCA42F
:100E330003120125F7A4031201256AA50312012554
:100E4300A8A503120125B1A503120125BDA503120F
:100E53000125D9A50312012504A6031201251AA60B
:100E6300031201255EA6031201252785031201251E
:100E73003A85031201255485031201257D8503124A
:100E83000125C08503120125FF85031201253D8637
:100E930003120125A28603120125B7860312012539
:100EA300C28603120125CF8603120125E6860312AB
:100EB3000125F48603120125FF86031201250B8702
:100EC300031201251E870312012529870312012519
:100ED3004C8703120125F3870312012503880312AC
:100EE30001251D88031201253A880312012556881E
:100EF300031201257B88031201258688031201252D
:100F03009B8803120125AF88031201251089031260
:100F130001251689031201251C8903120125228943
:100F2300031201253A89031201256D890312012554
:100F330005800212012589800212012538810212DF
:100F43000125978202120125B88402120125A48586
:100F530002120125D98502120125FB850212012502
:100F6300AA8602120125A28802120125CB88021249
:100F730001255D89021201258F89021201259C89B1
:100F830002120125F38902120125198A0212012591
:100F9300868C02120125898D02120125E18D021230
:100FA3000125F3E401120125FDE501120125E4E623
:100FB30001120125EEE60112012510E701120125B8
:100FC3001CE701120125B5E801120125E4E801122D
:100FD300012500EA0112012559EA01120125BFEB9F
:100FE300011201259EEC01120125FAEC01120125E3
:100FF30067ED01120125A2ED01120125E1ED0112B8
:1010030001259AF001120125B4F00112012540F1E6
:10101300011201254EF101120125A7F1011201254B
:10102300B5F10112012528F2011201258CF20112FA
:101033000125D6F201120125887400120125AA7434
:1010430000120125D07600120125E5790012012551
:10105300FD7A00120125B07B00120125927C00125B
:101063000125F8B8031201251DB9031201258FB913
:101073000312012560E40212012569E4021201252D
:1010830072E40212012549E502120125FAE6021271
:10109300012530E7021201256AE702120125A0E7C4
:1010A30002120125DAE7021201250EE802120125D8
:1010B3003AE80212012583E802120125BDE8021273
:1010C300012506E9021201255EE90212012593E9D1
:1010D30002120125EEE90212012528EA0212012576
:1010E30079EA02120125AFEA02120125E9EA0212A6
:1010F300012517EB021201253AEB0212012543C326
:10110300031201256FC303120125CAC3031201256C
:10111300D4C303120125E4C303120125F1F802121B
:101123000125FBF80212012539F90212012582F982
:1011330002120125BCF90212012516FA0212012539
:1011430037FA0212012540FA021201258DFA021222
:101153000125B6FA02120125C0FA021201252CFB61
:1011630002120125BEFB0212012508FC0212012511
:101173003EFC02120125CAFC021201250BFD0212DC
:10118300012542FD0212012554FD0212012573FDC2
:10119300021201257CFD0212012544FE02120125E3
:1011A300B3BE03120125AABF03120125D8FD011204
:1011B30001250EFE0112012544FE011201258FFFB8
:1011C30001120125A4C503120125BAC50312012585
:1011D300C4C5031201250EC603120125BD970312D0
:1011E3000125D29703120125859803120125C5987D
:1011F30003120125DE980312012519990312012513
:10120300669903120125989903120125DA990312AD
:101213000125E59B03120125BFC003120125E8C088
:101223000312012517C1031201252FC10312012542
:1012330071C103120125802800120125DA2800124A
:101243000125872900120125802A00120125282B58
:10125300001201252F2C00120125442C0012012518
:101263001C2D001201253B2D00120125D32D001248
:101273000125DE2E00120125102F00120125632FF8
:10128300001201256A3000120125BE340012012527
:101293005635001201252836001201258236001228
:1012A3000125B83600120125373700120125C3374F
:1012B30000120125383800120125E13800120125FA
:1012C300F93800120125273900120125713900125E
:1012D3000125763A00120125B43C00120125203F76
:1012E300001201256E40001201258A4100120125DA
:1012F300984100120125D841001201259A4200129B
:101303000125F342001201252444001201254E4415
:101313000012012567AF031201258CAF03120125CB
:10132300B6AF031201256DC603120125F25E00124A
:101333000125576100120125F86200120125AC63F3
:10134300001201253F6400120125C4640012012527
:10135300E964001201253F6800120125C5680012E7
:101363000125F86900120125326A00120125676A16
:1013730000120125276C00120125846C001201253F
:10138300CD6C00120125386D00120125A96D0012E4
:101393000125DB6D00120125F36D001201253C6F61
:1013A300001201254C6F0012012567700012012500
:1013B300897000120125BF7000120125737200129B
:1013C30001250073001201253F7300120125637488
:1013D300001201258DC2031201259EC203120125AD
:1013E300B67F00120125F57F00120125ECFF0212E2
:1013F3000125EEC303120125FEC30312012519C4FF
:101403000312012581C403120125BBBF0312012569
:1014130040C003120125A6C00312012572FE021269
:1014230001259BFE0212012506FF0212012557FF2B
:1014330002120125B2FF0212012533B20312012564
:1014430048B20312012564B303120125D8B3031272
:101453000125F2B30312012509B4031201251CB4BB
:101463000312012536B4031201254DB403120125DD
:1014730073B403120125C4B403120125F29B0312B2
:101483000125099C03120125839C03120125679DF5
:10149300031201253E9F031201258EA60312012587
:1014A3001EA7031201258EA7031201251FA80312ED
:1014B300012528A803120125A6A803120125B9A80E
:1014C3000312012525A90312012585A9031201256C
:1014D30098A9031201258BC403120125FAC4031230
:1014E300012505C50312012515C5031201259DBA62
:1014F30003120125EFBA0312012579BB031201255B
:10150300E0BB03120125F9B40312012523B503122D
:101513000125F1B503120125CCB6031201251EDC0A
:1015230002120125E5DC021201251CDD0212012550
:1015330046DD02120125A6DD02120125FCDD0212A1
:10154300012561DE02120125F9DE0212012508E000
:10155300021201259FE1021201252CE2021201254C
:1015630093E202120125AAE202120125C4E3021248
:10157300012502E4021201252F8E02120125B091EA
:10158300021201253893021201258F9302120125BD
:10159300AE93021201252C9402120125C295021268
:1015A3000125A79602120125B59A021201258B9BEC
:1015B300021201255FF301120125F2F60112012542
:1015C300C5F701120125F9F801120125DAFB011211
:1015D30001253DFD01120125C4FD01120125FDF286
:1015E300021201254DF3021201256AF302120125AD
:1015F30001F5021201258BF50212012587F602126D
:101603000125B8F802120125C9FF0112012516C7E9
:1016130003E066701008A3E066700A08A3E0667032
:101623000408A3E06622C3E7960809E7960809E7DA
:10163300960809E79622C3E09608A3E09608A3E07C
:101643009608A3E09622C008C3E096F50808A3E035
:1016530096420808A3E096420808A3E0964508705E
:1016630001D3D00822080808E630E71112185112F6
:101673001680080808C64480C618181822181818B7
:10168300E9799EC608CAC608CBC608CCC6C3702073
:101693007996CACBCC7019798ECBCC70137986CC62
:1016A300700EF9802ACA33CACB33CBCC33CC33196F
:1016B30030E7F2CCCBCA3350147004EA30E00DE4C7
:1016C300CA3ACACB3BCBCC3CCC500209C3E913C6C4
:1016D300CC182313C6CB18C6CA18C6F922E6C333DF
:1016E30018461846184622E7C333194719471947BE
:1016F30022E6084608C3134608336002E633F422A1
:10170300E7094709C3134709336002E733F4221299
:1017130016F4601C12170360171216E070071216F6
:10172300EA7001D322C0D01216EA7006D0D0B322D9
:10173300C32233D0D0501430E0F6C3E7960809E74C
:10174300960809E7960809E796B32220E0D5E697BD
:101753000809E6970809E6970809E697B3220808F7
:1017630008EAC0E0EBC0E086F0E7A4FA180986F0C7
:10177300E7A42AFA180986F0E7A42AFA180986F0DA
:10178300E7A42AFA1986F0E7A4FBE5F02AFA190878
:1017930086F0E7A42BFBE5F03AFA190886F0E7A4F4
:1017A3002BFBE5F03AFA18180986F0E7A4C5F02BED
:1017B300FBE43AFA1908E7C5F0C6A426F6E5F03BC0
:1017C300FBE43AFA1886F0E7A4F6E5F00826F6E417
:1017D3003B08F6E43A08F6D0E0FBD0E0FA22E4CF87
:1017E300C0E0E4CEC0E0E4CDC0E0E4CCC0E075F0FE
:1017F30020C3E633F608E633F608E633F608E633A5
:10180300F6181818EC33FCED33FDEE33FEEF33FF1F
:10181300C3EC9709ED9709EE9709EF97191919404A
:101823000FFFEC97FC09ED97FD09EE97FE191906DA
:10183300D5F0BEECF709EDF709EEF709EFF7191943
:1018430019D0E0FCD0E0FDD0E0FED0E0FF22181874
:1018530018E4C396F608E496F608E496F608E496C8
:10186300F6226016080808C6C313C618C613C6189E
:10187300C613C618C613C6D5E0EA227009080808BD
:10188300226016181818C6C333C608C633C608C65E
:1018930033C608C633C6D5E0EA22E627F60809E6CA
:1018A30037F60809E637F60809E637F622E026F6A2
:1018B30008A3E036F608A3E036F608A3E036F622DE
:1018C300E026F008A3E036F008A3E036F008A3E032
:1018D30036F022C3E697F60809E697F60809E69775
:1018E300F60809E697F622C3E096F008A3E096F01F
:1018F30008A3E096F008A3E096F022E056F608A3CA
:10190300E056F608A3E056F608A3E056F622E056A2
:10191300F008A3E056F008A3E056F008A3E056F061
:1019230022E647F60809E647F60809E647F60809F6
:10193300E647F622E0F608A3E0F608A3E0F608A3DC
:10194300E0F622E6F008A3E6F008A3E6F008A3E633
:10195300F022E0FAA3E0FBA3E0FCA3E0FD22EAF01F
:10196300A3EBF0A3ECF0A3EDF022CAC0E0E6F0A3F2
:1019730008DAFAD0E0FA22CAC0E0E0A3C582CCC5F7
:1019830082C583CDC583F0A3C582CCC582C583CD73
:10199300C583DAE6D0E0CA22C3E498F8E499F912E1
:1019A30019DC8026C3E49AFAE49BFBE920E7E912F9
:1019B30019DCE498F8E499F922C3E498F8E499F976
:1019C3001219DCE498F8E499F9C3E49AFAE49BFB6E
:1019D30022EB20E7CFE920E7E0B90010BB0008E8DD
:1019E3008AF084F8AAF022E4FBC8FA22EB70227B87
:1019F30010C833C8C933C9335007C39AC3DBF28055
:101A0300069A50012ADBEAC833F4C8C933F4C9FA89
:101A13002275F008E4C833C8C933C933C99AC99BCE
:101A23005004C92AC93BD5F0ECFBC833F4C8E4C958
:101A3300FA22600D08C6A2E713C618C613C6D5E07E
:101A4300F322600C08C6C313C618C613C6D5E0F448
:101A530022700422600D18C6C333C608C633C6D528
:101A6300E0F41822251810AF08F518400215198064
:101A730008F51840021519D2AF22C0D0251810AFAF
:101A830008F518500205198008F51850020519D2F7
:101A9300AFD0D0222518F58210AF08F518400215F3
:101AA300198008F51840021519D2AF85198322252C
:101AB30018F582E43519F58322E4732518C582C02D
:101AC300E0E51934FFC583C0E0E518C3958224F827
:101AD30010AF08858319858218800885831985824C
:101AE30018D2AFCEF0A3E520F0A37808E608F0A360
:101AF300DEFAEFF0A3E58124FAF8E608F0A3E6089E
:101B0300F0A3E608F0A30808E608F0A3E608F0A3AC
:101B130015811581D0E0FED0E0F81581158115817E
:101B2300E8C0E0EEC0E0222518C582C0E0E5193424
:101B3300FFC583C0E0E518C3958224F910AF08857B
:101B430083198582188008858319858218D2AFCEC0
:101B5300F0A3E520F0A37808E608F0A3DEFAEFF09F
:101B6300A3E58124FBF8E608F0A3E608F0A3080840
:101B7300E608F0A3E608F0A315811581D0E0FED0B6
:101B8300E0F815811581E8C0E0EEC0E022851983F5
:101B9300851882E0A3FEE0A3F5207808E0A3F60809
:101BA300DFFAE0A3FFE0A3C0E0E0A3C0E0E0A3C04E
:101BB300E0E0A3C0E0E0A3C0E010AF088582188591
:101BC30083198008858218858319D2AFD083D08288
:101BD300020122851983851882E0A3FEE0A3F52084
:101BE3007808E0A3F608DFFAE0A3FFE0A3C0E0E093
:101BF300A3C0E0E0A3C0E0E0A3C0E010AF0885828B
:101C0300188583198008858218858319D2AFD083FC
:101C1300D08222C0D02518C582C0E0E51934FFC5A3
:101C230083C0E0E518C3958224F310AF08858319B8
:101C33008582188008858319858218D2AFC8F0A3DE
:101C4300E9F0A3EAF0A3EBF0A37908E709F0A3D83E
:101C5300FAECF0A3EDF0A3EEF0A3EFF0A3D0E0F0E5
:101C6300A3D0E0F0A3D0E0F0A3E520F0A3E5F0F0EB
:101C7300A322851983851882E0C0E0A3E0F9A3E0DD
:101C8300FAA3E0FBA37808E0F608A3DFFAE0FCA3DD
:101C9300E0FDA3E0FEA3E0FFA3E0C0E0A3E0C0E01B
:101CA300A3E0F5D0A3E0F520A3E0A3F5F010AF087F
:101CB3008583198582188008858319858218D2AF98
:101CC300D082D083D0E0F8D0E0327404800674026E
:101CD30080027401C0E0F404121A97D0E012196D67
:101CE300227404800474028000CCC0E0EDC0E0E5FF
:101CF30018C39CCCAD1950011D10AF068C188D195B
:101D030080068C188D19D2AF12197AD0E0FDD0E07D
:101D1300FC22D083D082E9C0E0E493A3C386F0C55C
:101D2300F095F0F908E493A386F0C5F095F0700BF5
:101D3300E493A3C3994005E9048002A3E475F00288
:101D4300A42582F582E5F03583F583D0E0F9E493A9
:101D5300A3C0E0E493C0E022D083D082ECC0E0EDE6
:101D6300C0E0E493A3FCE493A3FDED4C600D121DCE
:101D7300A7EC24FFFCED34FFFD80EFE493A3FCE428
:101D830093A3FDED4C600D121DE6EC24FFFCED3436
:101D9300FFFD80EFD0E0FDD0E0FCE493A3C0E0E4DE
:101DA30093C0E022C0E0C3E49396087401939618AD
:101DB300400FE4936670080874019366187000700E
:101DC30019A3A3C3E49396087401939618A3A3409D
:101DD3000DD0E0D0E0D0E0021D97A3A3A3A3A3A35B
:101DE300D0E022C0E0C0F088F0E493667008087485
:101DF300019366187000A8F0A3A3700BD0F0D0E095
:0E1E0300D0E0D0E0021D97A3A3D0F0D0E022E3
:101E140074F5121B2AEAFEEBFFEE2434F8EF3400CB
:101E2400F988088909EE2435121F40F8EE24371288
:101E34001F40F50AEC850AF0A4FCAAF0850AF0ED2F
:101E4400A42AFDE82CF8E43DF97A257B001219DC7C
:101E5400EA850882850983F074075AF87401B8008A
:101E6400028004C333D8FCFBEA131313541FF8EEA7
:101E740028F8EF3400F9E8245DF582E9121F435B8A
:101E84006003EA801CEE2436121F40F5F0EA84A8B1
:101E9400F0EE28F8EF3400F9E82438F582E9121F4F
:101EA40043F97F04021BD674F5121B2AEAFEEBFFEA
:101EB400EE2434121F40C0E0EE2435F582EF3400E6
:101EC400F583D0E0F08E828F83A3A3A3A3A3E0FACB
:101ED400A3E0FB8E828F83A3A3A3A3A3A3A3E0FC0D
:101EE400A3E0FDECC39AF50AED9BF50BEE247FF518
:101EF40008EF3400F509850882F583E06401702B4E
:101F0400EE2480F582EF3400F583121CE8121F4999
:101F14007402121A7DE960137CDC7D04EEFAEFFB97
:101F2400120C96850882850983E4F0AC0AAD0BEEA9
:101F3400FAEFFB121E1412276F021EA6F582EF346D
:101F440000F583E022C082C083851882851983E06E
:101F5400F8A3E0F9C3EA9CEB9D5010C3EC98ED990B
:101F6400401BC3EA98EB995014800EC3EA98EB998E
:101F74004007C3EC98ED994004790180027900D0C0
:101F840083D08222EAC39CFAEB9DFB2274ED121BE0
:101F94002A9003A2E064086005E06407702C906155
:101FA400C8E060269003D0E0F874FF68601CE87510
:101FB400F003A4C8AAF02AF974D228FE740339FFE6
:101FC4008E828F83A3A3A3E070057900022130EEF3
:101FD4002468F510EF3400F511906060E0851082FC
:101FE400851183F0750A45750B05750800750900A0
:101FF400E5D914F50EE5D95403F50F601CEE2482DF
:10200400F50CEF3400F50D7403650F6058E50E60B0
:1020140013EE2467121F40700B793DEEFAEFFB12AA
:102024000CBA80A6900540E064016026850C828588
:102034000D83E06004780480027800850E08E508CA
:10204400C398FA95E0FB120B3A8A088B09EA450912
:102054007006120F12021FCE850C82850D83E0706C
:10206400048A0A8B0B78008016E5D9C0E08812E553
:102074000A2512F582E50B3400F583D0E0F008E878
:10208400C3950E40E4850C82850D83E0602874FCC2
:10209400250EF50E780A121CD1AC0EA90FEEFAEF3C
:1020A400FB120D687402121A7DE9700AAA08AB09C2
:1020B4001214F402201D7403650F6058850E0C750C
:1020C4000D00780C121CD1AC0AAD0BAA08AB091296
:1020D4000D2C7402121A7D851082851183E0F87428
:1020E40080687005750C7F8002880CE50CF50A7811
:1020F4000A121CD5E50FF50A780A121CD5A90EACF4
:1021040008AD099003D0E0FA7B001209D2740212E0
:102114001A7D80139003A2E06408600BAC0AAD0B37
:10212400EEFAEFFB120DFE120F1E79017F0C021B5B
:10213400D674F3121B2A74FC121A67EAFEEBFF89A9
:1021440008A2AFE433F509C2AFEE2463F50AEF3415
:1021540000F50B8010AA0AAB0B120CE41214F490D5
:1021640004E3E004F0850A82850B83E0F8A3E0F938
:10217400E849602FE82402FAE93400FBEA2402F576
:102184000CEB3400F50D780C121CD18A828B83E0A1
:10219400FCA3E0F9EEFAEFFB120CD87402121A7DDC
:1021A400E960B29004E3E060579004E4E0F890043E
:1021B400E3E0C398500C7402650870449004E5E0B1
:1021C400603E8E828F83A3A3A3A3E0851882851922
:1021D400831222147402121AB2E81222149004E236
:1021E400E028F07402121AB2AC82AD83851882859D
:1021F4001983AA82AB8379011209DE9004E3E4F027
:10220400E509A2E092AF7404121A7D7F06021BD680
:10221400F0A3E4F09004E3E0F82200008521878530
:1022240022C622C0E074EF121C16A2AFE433FEC231
:10223400AF759B00906182E0A2E05012E591A2E0AC
:10224400500C7591FE740165217003121F90E0A279
:10225400E55051E591A2E5504B7591DF9003A2E062
:1022640064076005E06408702374016521703579A2
:10227400019003D0E0FA75F003A4CAA8F028FB7417
:10228400D22AFA74033BFB1221358018E0640D70E6
:10229400139003C4E004F064287002E4F07A00E0D0
:1022A400F9120F24906182E0A2E6400302234EE576
:1022B40091A2E6400302234E7591BF9003A2E0640D
:1022C400057008120E40120E4C8003120E46752142
:1022D40000120EB2E99003A3F07900120EA6120CBC
:1022E400007A017B009003A1E0F912117690780343
:1022F400E064427055900544E014F0704DC2AF1292
:10230400230600782AD0E0F618D0E0F6E59F5407BB
:1023140070057509FF800375097FC4C0E07829E65C
:10232400F50808E65509F509740B7808121A45D022
:10233400E02508F8906270E0A2E740F8E8C3339023
:102344006272F0906270E0D2E0F0906181E0A2E30A
:102354005009E5E9A2E3500375E9F7A3E0A2E750C9
:1023640009E591A2E7500375917FEEA2E092AF7F59
:1023740004021C75C0E0C0D0C082C083906183E0B9
:10238400A2E05009E5BFA2E0500375BFFEE0A2E160
:102394005009E5BFA2E1500375BFFDE0A2E2500978
:1023A400E5BFA2E2500375BFFBE0A2E35009E5BF1D
:1023B400A2E3500375BFF7E0A2E45009E5BFA2E42D
:1023C400500375BFEFE0A2E55009E5BFA2E5500355
:1023D40075BFDFE0A2E65009E5BFA2E6500375BF72
:1023E400BFD083D082D0D0D0E032C0E074F2121CCF
:1023F40016E5A7A2E4500FE5A1A2E4500953A7EF04
:1024040075A1EF122442E5A7A2E5500CE5A1A2E5CF
:10241400500653A7DF75A1DFE5A7A2E15009E5A1A6
:10242400A2E1500375A1FDE5A7A2E2500CE5A1A22B
:10243400E2500653A7FB75A1FB7F01021C7574F8DB
:10244400121B2A7521019003A2E0640670077A002A
:102454007B00120E28A2AFE433FED2AF9003A8E0B3
:10246400640170187A207B009003A1E0F912120035
:102474007A207B009003A1E0F912117C906182E044
:10248400D2E6F0900541E0602185C62280169003D3
:10249400A7E064017008E5C654F84405F5C653BEC8
:1024A400FC1222207401652160E4EEA2E092AF7F69
:1024B40001021BD68E238F248582288583278518C5
:1024C40082851983E0CEA3E0CF852882852783EB1C
:1024D400C9EAC8EDCBECCA75F010C3E833C8E933D8
:1024E400C9EA33CAEB33CBC3EA9EF526EB9FF52545
:1024F400B35004AB25AA26EC33CCED33CDD5F0DABA
:10250400AE23AF242274F1121B2A8A088B098C0A89
:102514008D0B90904C78081218FE740F121AB27832
:102524000C12193790904C780C1218FE7808790C1C
:1025340012162990903850107808790C1218D67811
:10254400081216494014800E780C79081218D678AF
:102554000C12164950047901800279007F08021B8D
:10256400D674ED121B2A8A088B098C0A8D0B909065
:102574004C78081218FE7413121AB2780C12193718
:1025840090904C780C1218FE780C79081216294099
:10259400117808790C1218D6AA08AB09AC0AAD0B4D
:1025A40080227510007511007512007513017810E2
:1025B400790C1218D67810790812189DAA10AB114C
:1025C400AC12AD137F0C021BD690904C78081219F4
:1025D400378A828B8378081219117F04021BD67400
:1025E400F5121B2A8C828D8378081219378A828B04
:1025F4008378081218EA122637C3E098F0A3E0990A
:10260400122629401E90904078081219378A828B2E
:102614008378081218C38E828F83E02420F0A3E00D
:10262400344EF080A4F08E828F83C3E09420A3E024
:10263400944E22EA2404F8EB3400F9E8FEE9FF8C16
:10264400828D83A3A3A3A3E0F8A3E0F98E828F83F2
:102654002274F5121B2AE9FE9004F7E0FAA3E0FBCA
:10266400EEC333F8E433F9741028F582748F39F526
:1026740083E02AF508A3E03BF5097808121CD19001
:1026840090681219551224B87402121A7D8A088BA4
:10269400098C0A8D0B74107808121865AA08AB0906
:1026A4007F04021BD674F1121B2A8A0C8B0D8C0E2C
:1026B4008D0F740F121AB2E0FAA3E0FB7411121A10
:1026C400B2E0F508A3E0F5097808121CD1EA240168
:1026D400F508EB3400F509E4F50AF50B780C7908F4
:1026E4001217619090307808121937780C79081213
:1026F4001761AA0CAB0DAC0EAD0F1224B874021204
:102704001A7D8B09EA450960047A0180027A00EC9B
:102714002AFCED3400FD7413121AB2E0F8A3E0F9B8
:10272400E8FEE9FFECF8EDF97A717B021219DC8816
:10273400088909E4F50AF50B8E828F83780812194B
:1027440046ECF8EDF97A717B021219DC8A088B09E0
:1027540074057808121A548E828F83A3A3A3A3E569
:1027640008F0A3E509F07F08021BD6C082C083E904
:10277400906000F0D083D08222C2AF02000022C059
:10278400E074F2121C16A2AFE433FED2AFC2C0E56D
:10279400D1A2E4500653D1EF1214D0EEA2E092AFCE
:1027A4007F01021C75C0E074F2121C16A2AFE43360
:1027B400FED2AFE589A2E15003121434758900C238
:1027C400C5EEA2E092AF7F01021C75C0E074F21264
:1027D4001C16A2AFE433FED2AFE58BA2E050031285
:1027E4001434758B00C2E880D8C0E0C0D0E8C0E0E3
:1027F400E9C0E0E5A8D2AFC2C7A2E7A2E792AFD092
:10280400E0F9D0E0F8D0D0D0E032C0E0C0D0E8C0E9
:10281400E0E9C0E0C008C009C082C083A2AFE433CD
:10282400F9D2AF9008C3E0F8A3E0687008539AFBAC
:10283400A374018026C2E99008C3E0F50874012559
:1028440008F074BF2508F58274083400F583E0F5B8
:10285400C19008C3E0C394044002E4F0E9A2E0920A
:10286400AFD083D082D009D008D0E0F9D0E0F8D03E
:10287400D0D0E032FFFFFFFFFFFFFFFFC082C08325
:1028840090075FE0F8E94A6890075D603C7403F0E4
:102894007410697013EAC333FCE433FD74682CF5D7
:1028A4008274073DF5838015E9702074016A700510
:1028B400900981800874026A70119009831241841E
:1028C400900762ECF0A3ED8001E4F08002A3F0D065
:1028D40083D08202012274F0121ABE74FE121A67A7
:1028E4008A088B097E007F00EEF8EFF97A027B00FC
:1028F4001219D4E8C333F50EE933F50F7468250EC5
:10290400F50C7407350FF50D850C82F583A38582CC
:102914000A85830B851882851983AC82AD837A027C
:10292400EE248DF912156CE9601B74C2250EF58234
:10293400748F350FF583123F0A850C82850D83E869
:10294400F0A3E9801A851882851983E0850A8285B7
:102954000B83F07401121AB2E0850C82850D83F0AA
:10296400E5082EF8E509123608EE2402FEEF3400DD
:10297400FFC3EE9408EF12383450030228EC7402BB
:10298400022ED674F7121ABE74FE121A67EAFEEB10
:10299400FF851882851983AC82AD837A02799512FA
:1029A400156CE96045900770E0600C146014248194
:1029B400601B14601F802890098174BDF0A3740407
:1029C400803C9009817403F0A374058031900981DF
:1029D40074E0800590098174F5F0A37401801F9060
:1029E400098174FFF0A3743F8014851882851983CC
:1029F400E0F97401121AB2E0900981F0A3E91235EA
:102A0400FE799712156CE96041900770E0600C1430
:102A140060102481601714601F802790098374C696
:102A240080059009837465F0A37402803190098352
:102A34007416F0A37401802690098374F5F0A3E45E
:102A4400801C900983E4F0A380148518828519837F
:102A5400E0F97401121AB2E0900983F0A3E9F0904E
:102A6400098212305F900981122F51900984122F2C
:102A740057900983122F5E7402023A6E74F7121A89
:102A8400BE74FC121A67EAFEEBFF8518828519836F
:102A9400AC82AD837A04798912156CE9602D9007B4
:102AA400707401F090097AC3E09458A3E094025042
:102AB4000E900764E0640170069007707481F090D2
:102AC40007717402F0A3E4F0A380288518828519A5
:102AD40083E0900771F07401121AB2E0900770F06D
:102AE4007402121AB2E0F97403121AB2E090077277
:102AF400F0A3E9F0900770E0547F900FF87004742D
:102B0400148002740FF0A3E4F090077112305F9008
:102B14000770122F51900773122F57900772122FBC
:102B24005E023A6C74E8121ABEEAFEEBFF8C0A8D60
:102B34000B7418121AB278101219378E168F178E5A
:102B4400088F09EE4F702F7A057B001211B88A089E
:102B54008B09AE08AF098E828F83A3A3A3A3E4F0ED
:102B64008E828F83A3A3E50AF0A3E50BF08E828FF8
:102B740083E4F0A3804EEA2404F514EB3400F51545
:102B840090904078101218B0851482851583E0F572
:102B94000CE4F50DF50EF50F7810790C121629508A
:102BA4002A800488088909850882850983123CAE35
:102BB40070F17A057B001211B8122C0685148285F7
:102BC4001583E004F0803288088909850882850924
:102BD40083123CAE70F17A057B001211B8122C06F8
:102BE4008E828F83E0FEA3E0FF8514828515831215
:102BF400428BAA16AB171211BEEEFAEFFB7F10023E
:102C04001B908A0C8B0DA80CA90D88828983A3A321
:102C1400E50AF0A3E50BF088828983E4F0A3F0854C
:102C24000882850983E8F0A3E9F022C082C08312F8
:102C340039578A828B83F0900FF6122ECB0228D15B
:102C440074F4121ABE74FC121A678908900778E0AB
:102C540065087003022D12851882851983AA82AB38
:102C64008312129C90097CE0F50A75F005A4F8A97A
:102C7400F0748528FE740939FFE0C394C950198E95
:102C8400828F83123A5E1219558E828F83A3121992
:102C94006190097CE004806B78007900E8FAE9FB34
:102CA400EA75F005A4FAACF075F005EBA42CFB74FE
:102CB400852AFC74093BFD8C828D83A3A3A3A3A363
:102CC400740512197AE8240108E93400F9E50A24A4
:102CD400FFFAE434FFFBC3E89AE99BA2D265D03340
:102CE40040BAEE24FBF582EF34FFF583123A5E120C
:102CF4001955EE24FCF582EF34FFF5831219619027
:102D0400097CE4F0E508900778F079018002790005
:102D14007404121A7D024069C082C083900760C3A4
:102D2400E09489A3E094139007604005E4F0A38045
:102D340003123C7C0228D274F7121ABE8908740F5D
:102D44005508F874F05508600A24F0603424F060E3
:102D540067806F90097DE0706990097EE06402608D
:102D6400617401F07EF4FFE86012146005146006DB
:102D740080507A0180027A02790080371212BA8078
:102D84004190097DE0703B90097EE064026033E489
:102D9400F07EF47F01E8600B14600C14600D146085
:102DA4000E801F7A00800A7A0180067A0280027AF5
:102DB400037910121236800A90097F7401F07E00A4
:102DC4007F00E50890075FF0EEFAEFFB023A7174BA
:102DD400F0121ABEEAFEEBFF909034121CE4900746
:102DE4007D123F0A758307758266E0C398FCA3E0F1
:102DF40099FD900779123CA512124E7404121A7DA3
:102E0400900779EAF0A3EBF07C007D00900779123B
:102E14003F0A8007E02CFCA3E03DFD88828983E51E
:102E2400822402F8E5833400F9E8FAE9FB123CAEA7
:102E34008A828B8370DEE02CF508A3E03DF50990CF
:102E44000764780C12193790077B780C12161460FB
:102E54000C9007647C7B7D07740412197A900764D4
:102E6400780C12193790077F780C1216146047906B
:102E74000783123F0AC3EE98EF99503A9007647C97
:102E84007F7D07740412197A900783F0A3F07A0403
:102E9400FB1211B8900764122ECBF0900765122E26
:102EA400C6F0900767122EC6A3F0900766122EC6CE
:102EB400A3A3F01211BE900783123F1BAA08AB090B
:102EC4008013122ECBA322E08A828B8322121566F2
:102ED4007404121A7D7F08021B9074F7121ABEEC58
:102EE400FEEDFFEAC39EFAEB9FFB1212EAE9F50836
:102EF40090076AE0C39EFAA3E09FFB1212EAE96519
:102F0400087004790280027901023A7174F6121A87
:102F1400BE7A047B001211B88A088B09AE08AF0987
:102F240090076412305F900765122F519007671263
:102F34002F57900766122F5EEEFCEFFD7A04790599
:102F44001215EAEEFAEFFB1211BE0237B212306428
:102F5400A3F022123064A3A3F022124291F022744F
:102F6400F6121ABE7A087B001211B88A088B09AED1
:102F740008AF0912123CEEFCEFFD7A087901121534
:102F8400EAEEFAEFFB1211BE7A057B001211B88A41
:102F9400088B09AE08AF097C727D0D7A01799B120A
:102FA400156CE96005900D72E4F0900D7212305FBB
:102FB400EEFCEFFD7A0579061215EAEEFAEFFB1244
:102FC40011BE7A047B001211B88A088B09AE08AFCF
:102FD40009121248EEFCEFFD7A0479001215EAEEAC
:102FE400FAEFFB1211BE7A047B001211B88A088B27
:102FF40009AE08AF09121242EEFCEFFD7A04790320
:103004001215EAEEFAEFFB1211BE7A027B001211DE
:10301400B88A088B09AE08AF09121254EEFCEFFD12
:103024007A0279021215EAEEFAEFFB1211BE7A0562
:103034007B001211B88A088B09AE08AF091212F688
:10304400EEFCEFFD7A05790F1215EAEEFAEFFB12AA
:1030540011BE75C90043C9080237B2123064F022A8
:10306400E08E828F832274EA121ABE8910750A00D8
:10307400750B007C007D0079008911E51060351422
:1030840060142481601B1470407512F5751301756A
:1030940014F5891580177512037513057514658069
:1030A4001C7512E0751301751416751501900785CA
:1030B400740280117512BD7513047514C67515025A
:1030C4009007857404F0A3E4F0900980E0F5088982
:1030D4000974037808121A5485080E85090F74F6CA
:1030E400250EF50C740E350FF50D74E6250EF50E50
:1030F400740E350FF50FEAC333F508EB33F509C346
:10310400EA94011238335003023242900762E0F528
:1031140014A3E0F515E512C39514F514E5139515FC
:10312400F515C3E5149414E515940050300990077F
:1031340062E0C39512F50AA3E09513F50BE50A24A2
:1031440014F50AE50B3400123407E5129401E51373
:103154001238344006AC12AD13800289111234B215
:10316400EA9512EB9513A2D265D03350030233EEE5
:10317400E50C2402F512E50D3400F513E50E2402E6
:10318400F582E50F3400F583E9A2E04049E51070CB
:103194000302333D14601B2481603814600302333E
:1031A400F212342E1219D4123C9A1219D41233FB8F
:1031B4008017EAF8EBF9123CA51219D4880A890B96
:1031C400E508250AF8E509350BF98512828513838C
:1031D40002336102331B12344670030233AB1460B2
:1031E40023248160561460030233F2123416121938
:1031F400D4123C9A1219D4880A890BEC250AFAEDE8
:10320400350B8017ECF8EDF9123CA51219D4880E91
:10321400890FE50A250EFAE50B350FFB8512828529
:10322400138312417C850CF0A4F8ACF0850CF0E912
:10323400A42CF9EA28F8EB390233E302337B123881
:103244003240030233EE900762E0C39514F512A3F3
:10325400E09515F513C3E5129414E5139400501B7F
:1032640009E51224ECF50AE51334FF123407123889
:10327400345006AC12AD13800289111234B2E495B5
:1032840012F512E49513F513C3E5129AE5139BA204
:10329400D265D03350030233EEE50E2406F582E501
:1032A4000F3400F583E50E2404F50EE50F3400F524
:1032B4000FE9A2E0500302336AE50C2406F8E50D99
:1032C4003400F9880A890BE50C2404F8E50D340070
:1032D400F9880C890DE510606014601B2481603747
:1032E4001460030233F212342E1219D4123C9A12CF
:1032F40019D41233FB8017EAF8EBF9123CA5121922
:10330400D4880C890DE508250CF8E509350DF985F7
:103314000A82850B83804612342E1219D4E8FCE904
:10332400FDECC333FCED33FD850E82850F83123C27
:10333400A51219D41233FB801DEAF8EBF9850E822D
:10334400850F83123CA51219D4880A890BE5082538
:103354000AF8E509350BF9850C82850D83E028FE12
:10336400A3E0390233EB123446603C14603F2481FD
:1033740060051470798006850E82850F83E0FEA3B4
:10338400E0FF1234161219D4E8FCE9FDECC333FC57
:10339400ED33FDEEFAEFFB1219D4880A890BEC2504
:1033A4000AF8ED350B8023850E82850F83E0FEA39A
:1033B400E0FFECF8EDF9EEFAEFFB1219D4880E8970
:1033C4000FE50A250EF8E50B350FF9EE850CF0A490
:1033D400FEAAF0850CF0EFA42AFFE82EF8E93FF9E5
:1033E400E82508FEE93509FF80047E007F00EEFA37
:1033F400EFFB7F0E021B9088088909EC2508F8ED85
:10340400350922F50BEAC3950AF512EB950BF51372
:10341400C322EC75F07FA4FCA8F075F07FEDA4281E
:10342400FDECF8EDF97A327B0022EA75F07FA4FA1C
:10343400A8F075F07FEBA428FBEAF8EBF97A327B6D
:103444000022E511A2E0B3E433F50CE50A9AF8E5AD
:103454000B9BF9851108E88508F0A4F885F011851F
:1034640008F0E9A42511F9EAC3950AFAEB950BFBD8
:10347400EA850CF0A4FA85F008850CF0EBA4250885
:10348400FBE82AF508E93BF509E50875F003A4F51E
:1034940008A8F075F003E509A428F5098C0A8D0B3A
:1034A400E50AC333F50AE50B33F50BE51022900763
:1034B40085E0F512A3E0F513C32274F7121ABE7463
:1034C400F6121A67E9FEEAC333FAEB33FB74682A8F
:1034D400F874073BF988828983ECF0A3ED123A6013
:1034E400F088828983E0C0E07401121AB2D0E0123D
:1034F40035FEEEF91215667A007B00EAF8EBF9E87E
:10350400C333F8E933F97402121AB2E58228FCE5F0
:103514008339FD746828F8740739F988828983A38C
:10352400E08C828D83F088828983E08C828D83A3F2
:103534001237B7940412383340C17402121AB2AC71
:1035440082AD837A0879011215EA1212C6740A024E
:103554003A6E74F0121ABE74F6121A678A088B094E
:10356400750E00750F00E50EC333FEE50F33FF74CF
:10357400682EF50C74073FF50D850C82F583A38541
:10358400820A85830BE5082EF582E5093FF583124F
:103594003CAE6028850C82850D83123C71851882AF
:1035A40085198312361FC0E07401121AB2D0E012DA
:1035B40035FEE50EC333248DF91215667402121A12
:1035C400B2E5822EF8E583123608E50E2401F50EE5
:1035D400E50F3400F50FC3E50E9404E50F123834FB
:1035E40040847402121AB2AC82AD837A0879011253
:1035F40015EA1212C6740A022ED6123A64AC82ADCF
:10360400837A02223FF9850A82850B83E0888289C6
:103614008312361F88828983A3F022F0850C828569
:103624000D83E02274EC121ABE8A0C751000751119
:10363400007512007513007A00850C088B098C0A3A
:103644008D0BEA33333354F87808121865909000E0
:1036540078081218FE7403C39A33333354F8780885
:1036640012187E781079081219240AEAC3940440C7
:10367400C8AA10AB11AC12AD137F0C021B9074F7E7
:10368400121ABE74FC121A67EAFEEBFF1211A012A2
:1036940011A612129685188285198312196185184C
:1036A40082851983EEFCEFFDECFAEDFB740412192C
:1036B4007A023A6C74F4121ABE7A057B001211B8BD
:1036C4008A088B09AE08AF09740C121AB212305F63
:1036D40078017900C3E498FAE499FB740C121AB2E5
:1036E400E5822AF582E5833BF583A3A3A3A3A3E0A4
:1036F400C0E0123829D0E01238C340D8EEFCEFFD08
:103704007A0579061215EAEEFAEFFB1211BE740C73
:10371400121AB2E06018740D121AB278081219372E
:10372400E5084509450A450B7004790180027900D2
:1037340002406974F6121ABE90097FE060707A1034
:103744007B001211B88A088B09AE08AF099007876D
:10375400E075F00FA4F8A9F0748528F8740939F914
:1037640012305F900787E004F07A007B00E82AF5C6
:1037740082E93BF583E0C0E0EE2AF582EF3BF58376
:10378400A3D0E01237B7940F12383340E0EEFCEFC9
:10379400FD7A1079081215EAEEFAEFFB1211BE90C9
:1037A4000787E0C394434006E4F090097FF07F026A
:1037B400021B90F0EA24010AEB3400FBC3EA2274F2
:1037C400F6121ABE74FC121A67851882851983AA28
:1037D40082AB8312129C7A047B001211B88A088B84
:1037E40009AE08AF0978007900851882851983E548
:1037F4008228F582E58339F583E0C0E0123829D0C8
:10380400E01238D59404E912383440DDEEFCEFFDC3
:103814007A0479071215EAEEFAEFFB1211BE74046A
:10382400121A7D8089EE28F582EF39F58322C3EBE5
:103834001238CD2274F0121ABE74FC121A67EAFE12
:10384400EBFF8E828F83E0900D72F01211A078014D
:103854007900123829E0C0E0851882851983E58251
:1038640028FAE58339FBEA24FFF582EB34FFF5837C
:10387400D0E01238C340DB851882851983121955AC
:103884001212968A088B098C0A8D0B1211A68A0CC7
:103894008B0D8C0E8D0F7808790C12189D900D7776
:1038A4007808121946851882851983121955900DC6
:1038B400731219617C727D0D7A01799B022ED112EB
:1038C40038D59405E91238CD229400A2D265D033BC
:1038D40022F0E8240108E93400F9C3E822C082C0D8
:1038E4008390097EE4F090075DF090075FF0900903
:1038F40078F00228D1C082C0838A828B83A3E0F847
:10390400748168600D74016860087480686003E8FD
:10391400700BEAFCEBFD7A04798912156612127EAB
:103924000228D3C082C08374FE121A6712395785E5
:103934001882851983F0900FF6E0C0E07401121A22
:10394400B2D0E01235FE79021215EA7402121A7D21
:103954000228D3900768123F0EA3E028F8A3E039A9
:10396400C313F9E813900FF6F0A3E9F02274F712E9
:103974001ABE74F8121A67EAFCEBFD8C828D83E0A0
:10398400C0E07401121AB2D0E0F08C828D83A3E0FF
:10399400851882851983F0EC2402FEED3400FF8E35
:1039A400828F83E0C0E07403121AB2D0E0F08C82FC
:1039B4008D83A3A3A3E0C0E07402121AB2D0E01274
:1039C4003A60123CAE900981600C123C717A027923
:1039D40095121566800C123F0A8518828519831288
:1039E4003C717402121AB2123CAE90098360101238
:1039F4003C71EEFCEFFD7A027997121566800B128A
:103A04003F0A7402121AB2123C717401121AB2E023
:103A1400C0E07404121AB2D0E0124286C0E0740509
:103A2400121AB2D0E0F07403121AB2E0C0E07406C5
:103A3400121AB2D0E0F07402121AB2E0C0E07407B5
:103A4400121AB2D0E0F07404121AB2AC82AD837AC6
:103A54000479031215EA74088010E508123A642206
:103A6400F0851882851983227404121A7D7F01025D
:103A74001B9074F0121ABE900764E06401705D90AC
:103A84000766123C93123C71900788123C93E068DD
:103A94007003A3E0696039E849603990097AE0C3AA
:103AA40098F508A3E099F5093395E0F50AF50B7844
:103AB40008121668E50BC2E7F50B909004780C1217
:103AC40019377808790C1217125009900788801456
:103AD400E849701F123F07900788800BE064066076
:103AE4000C900981123C93E8F0A3E9800590097ECB
:103AF4007402F090075DE0703F90075EE06403702D
:103B040027C3900979123C775003023C4D90097801
:103B1400C3E09401A3123C774003023C2275800069
:103B240053FD0F90075E800CE07003023C6E7580BD
:103B34000053FD0FE4023C6DF890075EE0687003EB
:103B4400023BE990075DE0146009146017146026D5
:103B5400023BDF90097AC082123C89D08212441D54
:103B64005079802D900983123CA5123F07C3EA982F
:103B7400EB9950678035900981C082900762123FAB
:103B84000A758309D08212441D500F900981123F97
:103B94000A900762E8F0A3E98018900983123CA513
:103BA400900762C3E09AA3E09B5008900762EAF092
:103BB400A3EBF0900770E0F9900762C08290097A55
:103BC400123CA5758307D082E0C39AFAA3E09BFB5D
:103BD400121284900978EAF0A3EBF090075DE0906C
:103BE400075E023C6D900978123CAE701675800039
:103BF40053FD0F90075DE4F090075FF090097E7429
:103C040002806690075DE014600514602A805B9072
:103C1400097AC082123C89D08212441D503F900917
:103C24007DE0700643FDF0758040900978E024FF44
:103C3400F0A3E034FF8032900983C082123F0775FD
:103C44008309D08212441D501490097DE07006430C
:103C5400FDF0758080900978123C7C800C758000A2
:103C640053FD0F900978E4F0A3F0022ED9E8F0A3F5
:103C7400E9F022E01238CD22123C8022E02401F047
:103C8400A3E0340022900981123F0E7583092212A9
:103C94003F0E90097A22E8FCE9FDECC333FCED33D6
:103CA400FDE0FAA3E0FB22900766123F0EE84922EA
:103CB400C082C083E590540F90078AF090097EE09B
:103CC40064017003023F0490078AE0640F90097E48
:103CD400702BE4F090075DF090078B740FF0900761
:103CE4008CE4F090075EE06403700990097DE07055
:103CF40003023F0475800053FD0F023F047402F079
:103D040090097DE06003023F0490078BE0F8900780
:103D14008AE0687003023EA190075EE064037003CA
:103D2400023E8990078AE024FD7003023E0D24FEC2
:103D3400605024FE603024FE7003023E3924FE707D
:103D440003023DD224FE6009147003023E7C023E4D
:103D540098900764E064067005123CAB70159007F8
:103D64005D7401023E97900764E06406700C123C97
:103D7400AB600790075DE4023E9790075D74020212
:103D84003E97900764E06406601E900768E0F47054
:103D940003A3E0F47003023E9890075D7403F0906F
:103DA4000768123F0A023E54123CAB6003023E987D
:103DB400124181798D7A007B0012128A90097DE08C
:103DC4006003023E9843FDF07580C0023E98900760
:103DD40064E06406600D90076A123F14706A74FF11
:103DE400698065123CAB6003023E98124181798F71
:103DF4007A017B0012128A90097DE06003023E98EA
:103E040043FDF0758020023E98900764E0640660EC
:103E14000590076C802A123CAB707912418179912C
:103E24007A027B0012128A90097DE0706743FDF0EC
:103E34007580A0805F900764E06406601C90076E44
:103E4400123F14700374FF69604A90075D7403F0B5
:103E5400900762E8F0A3E9803A123CAB7036124155
:103E64008179937A037B0012128A90097DE0702491
:103E740043FDF0758060801C90075DE4F043FDF025
:103E8400758010800F90075DE4F090075EF0900954
:103E940078F0A3F090078AE090078B8062E0640ECC
:103EA400705E75800053FD0F90078DC3E09410A3DE
:103EB400E094004022900D7BE090075D7011740146
:103EC400F0900D7BF0900765E0F91212FC80087405
:103ED40002F0900D7BE4F090078CE0702390078D46
:103EE400123F1B90078DC3E09419A3E09400401087
:103EF40090075DE4F090078DF0A3F090078C04F038
:103F04000228D390097A123F0E22E0F8A3E0F922A6
:103F1400123F0E74FF6822123C80F02274F4121ACD
:103F2400BEE9FE74046E6003024053900760123CC5
:103F3400AE7003024062900760C3E0941EA3E09455
:103F440000500D7C047D007A8F7B071214DC8007FF
:103F54007A047B001214E290078FE0900797F090A8
:103F64000790E0F9900798F0900791E0FA9007998C
:103F7400F0900792E0FB90079AF09090087808126E
:103F840019379007937808121614707290900C7871
:103F9400081219379007977808121614604C900786
:103FA400977808121937740165087004740265095A
:103FB4006014900797780812193774016508700423
:103FC40074016509702490901078081219379007CD
:103FD4009778081216146012909014780812193702
:103FE400900797780812161470149007977401F0CC
:103FF400A37404F0A37401F0A374AAF08060900782
:1040040097780812193774016508700474056509F6
:10401400700E9007937C977D07740412197A800FB1
:10402400E9900764F0EA900767F0EB900766F09078
:1040340007977808121937900793780812161460B6
:104044001D9007977C937D07740412197A800FEEF4
:10405400C3940540098E08AA087B001214E2900755
:1040640060E4F0A3F07F04021B9074F4121ABEEA19
:10407400FEEBFFEEF8EFF9E8C333F8E933F9900704
:1040840070E0600C1460112481601514601A8022A1
:1040940075080675090F801A75081075090F8012C6
:1040A40075080675090F800675081075090FE8FE76
:1040B400E9FF123F07758307758262E0C398FAA38C
:1040C400E099FB850882850983124184C3EC9EED47
:1040D4009FA2D265D033502E900770E0F91212845B
:1040E4008A0A8B0BAC0AAD0BEEF8EFF985088285D2
:1040F4000983A3A3123CA51219D4880A890B850845
:10410400828509838047C3E49CF8E49DF9C3EE9853
:10411400EF99A2D265D033505C900770E0F9121287
:10412400848A0A8B0BAC0AAD0BEEF8EFF985088292
:10413400850983A3A3A3A3A3A3123CA51219D4881E
:104144000A890B850882850983A3A3A3A3A3A3A338
:10415400A312417C850AF0A4C8AAF0850BF0A42A16
:10416400FA850AF0E9A42AF9ECC398F8ED99F990D4
:104174000978123C71024069123F0EE82290097AD4
:10418400E0FCA3E0FD221238325004790080027969
:104194000102012274F0121ABE8A088B098C0A8D5E
:1041A4000B1211A01211A68A0C8B0D8C0E8D0F7898
:1041B40008790C12162950117808790C1218D6AA0D
:1041C40008AB09AC0AAD0B80087A007B007C007D4B
:1041D40000022ED974F7121ABE74FB121A67EAFE93
:1041E400EBFF851882851983AC82AD837A05799CAF
:1041F40012156CE96026851882851983E4F004128F
:104204001AB27403F014121AB27484F07403121AFA
:10421400B27407F07404121AB27408F07402121A19
:10422400B2E0FA7401121AB2E0F9EA900776123C8D
:10423400727404121AB2E0FA7403121AB2E0F9EAC0
:10424400900774F0A3E9124286900D7DF0900D7BE7
:10425400E4F0900D7E741EF0A3E4F0A3F0A3F090BC
:104264000D7D12305F900777122F51900776122F31
:1042740057900775122F5E90077412428B740502D3
:104284003A6E123A64E022124291A3F022E08E8246
:104294008F83A3A3A32274F0121ABE89081211A05B
:1042A400E5086048740265087004740180027402B1
:1042B400900D7CF06401700590077680039007747C
:1042C40012417CFCE9FD900D7EECF0A3EDF0A3E43B
:1042D400F0A3F01211A68A0C8B0D8C0E8D0F900D8D
:1042E4007E780C1218B0A3780C121946022ED974D9
:1042F400F0121ABE74FC121A678A828B83A3A882F6
:10430400A983E0F50CEA2402FCEB3400FD850C08DB
:104314008C828D83E0FFE508851882851983F0A3DC
:10432400EFF0EA2404FEEB3400FFEA2403F508EB83
:104334003400F509850882F583E0F50E8E828F83BB
:10434400E0F50BE50EF50A7402121AB2E50AF0A3C1
:10435400E50B124286F50AA3E0F50BE50A450B606E
:1043640010E50C900777F08C828D83E090077680BF
:1043740011900777E088828983F0900776E08C8239
:104384008D83F07402121AB2123CAE601585088255
:10439400850983E0900775F08E828F83E09007741F
:1043A4008011900775E0850882850983F090077471
:1043B400123064F08A828B83E0F8740F58640F60C3
:1043C40008747F58900D7D8006900D7D122ECBF0E1
:1043D4008A828B83E0A2E7502A900768123F0A750D
:1043E400830F7582F612441D4011900FF6123F0A96
:1043F40075830775826A12441D50088A828B83E094
:10440400C2E7F08A828B83E05480900D7BF01C1C01
:10441400EBFD7A05799C022ED1C3E098A3E09922A2
:10442400C082C083900D7CE0640190075D700874C5
:1044340003F090076880067403F090076A123F0A3D
:10444400900762E8F0A3E90228D2C082C0839009F1
:104454007EE07034900D7CE0640190075D70107410
:1044640003F090097AE024FBF8A3E034FF800E7493
:1044740003F090097AE02405F8A3E03400F99007EA
:1044840062123C717901800279000228D3C082C093
:1044940083E9900EA2F002472074F7121ABEE99045
:1044A40002E1F07C197D037AFF7BFF12092490025C
:1044B400E274FFF0A3F0A3E4F0A3F079051208ACD2
:1044C4009002E1E0F91207CE7A427B09120AEC7FEE
:1044D40001021B9074F4121ABE8A088B09EB5480F3
:1044E40060309002E1E0F912115E8A0A8B0BAE0A89
:1044F400AF0BEE4F60138E828F83E064B0700312B3
:1045040008C4EEFAEFFB12114CAA08E5096480FB1B
:1045140080047A007B000246EF74F2121ABE74FC27
:10452400121A67EAFEEBFFEE4F60387402121AB2F9
:10453400EEF0A3EF124954ECF0A3ED124954AA8211
:10454400AB831207C8E9F50870737412121AB21219
:104554005508E50A450B60658E828F831245CBEEC4
:104564004F700575080280557A067B001211B88ACF
:104574000C8B0DA80CA90DE8497005750813803D36
:1045840088828983E41245D5A3A3EEF0A3EF1259E0
:10459400A1E50AF0A3E50BF09002E712465D900254
:1045A400E76017E0FCA3E08003EAFCEBFD8C828D5E
:1045B4008312465D70F38C828D8312542DA9087486
:1045C40004121A7D025BA3A3A3A3A3E0FEA3E0FF4E
:1045D40022F0A3F0888289832274F2121ABE890A17
:1045E400E975F017A4FEAFF09002E6E4F09002E45F
:1045F40012465D600A1211BE9002E4E4F0A3F0EEEC
:10460400FAEFFB1211B88A088B09EA4509602FEE0C
:10461400FCEFFD790012113A9002E4E508F0A3E5FD
:1046240009F07B008008124647E4F0A3F00BEBC3CB
:10463400950A40F2E50A9002E6F0790080027913C7
:10464400025BA3EB75F017A4F8A9F09002E4E0284C
:10465400FAA3E0398A82F583221251C3EA4B227409
:10466400F4121ABE750800750900740C121AB212FD
:104674005975FEE9FF800CE5082401F508E50934C5
:1046840000F509C3E5089CE5099D503285080A85B3
:10469400090B7403780A121A54EA250AF8EB350B4D
:1046A400F988828983A3A3A3A3A3A3125508EE6563
:1046B4000A7003EF650B70BFE8FAE9FB80047A0027
:1046C4007B00802774F4121ABE7900EAA2E0501B22
:1046D4007508F075098F7808121CD17C047D007A66
:1046E400A47B0E1208A67402121A7D7F04021B908A
:1046F400C082C0839002E7124727601C88828983A6
:10470400A3A3E06A7003A3E06B8882898370E8A3A3
:10471400A3A3A31251BF80047A007B00D083D0826C
:10472400020122125C76E8492274EE121ABE74FC6D
:10473400121A67EAFEEBFF851882851983E4F0A359
:10474400F0EE2402125411EE2405124942EE240420
:10475400F50EEF124D27E024FE603924FC60462458
:10476400FE605224FE605E24FE700302484724FE6D
:1047740070030248BF24FE70030248CE24FE700377
:104784000248DD24FC70030248EC24FE7003024856
:10479400FB0249389003007417F0A3E412495C1239
:1047A4000546024938851882851983AC82AD831287
:1047B40008CA024908851882851983AC82AD831220
:1047C40008D0024908850C08850D097402121AB232
:1047D400AC82AD838508828509831251BF1207EC30
:1047E4008A0C8B0DAC0CAD0DEC4D6042E4F50CF570
:1047F4000D780C121CD1750C00750D03780C121C6D
:10480400D1750C01750D03780C121CD17408121AA1
:10481400B2121CE879161251B912090C7408121A52
:104824007DE9F50C700B1251B512055E800F750C05
:104834000185088285098312494A12542D850C0882
:1048440002490B7402121AB2AC82AD83850C8285C4
:104854000D831251BF1207EC8A108B11AC10AD11ED
:10486400EC4D6043850C82850D83A3A3121CE8756F
:1048740010007511037810121CD175100175110305
:104884007810121CD17408121AB2121CE87916128C
:1048940051B912090C7408121A7DE9F509700B124A
:1048A40051B5120564800F750901850C82850D834D
:1048B40012494A12542D850908804C85188285199D
:1048C40083AC82AD831208D6803A85188285198319
:1048D400AC82AD831208DC802B851882851983ACE9
:1048E40082AD831208E2801C851882851983AC820C
:1048F400AD831208E8800D851882851983AC82ADDA
:10490400831208EEE9F508E50860298E828F83A3F7
:10491400E06414601F850E82850F83E0900300120B
:104924004954125C7290030112542DE508A31249F4
:104934005C120540EEFAEFFB12086A025319F50CFB
:10494400EF3400F50D22125C7685188285198322D6
:10495400F085188285198322F07C007D03850A8204
:10496400850B831251C32274EE121ABE74FC121A00
:10497400678A0A8B0B8C0E8D0FEA2405F508EB343D
:1049840000F5097C157D0079007A007B0312113A49
:10499400E5082402F50CE5091249458518828519B4
:1049A400838582108583117810121CD18508828535
:1049B4000983A3A3A3A3124E6F121CD1E5082405F7
:1049C400F510E5093400F5117810121CD1850C821C
:1049D400850D831251C91207E67406121A7D8A10D6
:1049E4008B11AE10AF11E50A2402F50AE50B12543F
:1049F40014EE4F7003024B3180177402121AB21274
:104A040051BF88828983EAF0A3EBF0900300E004AD
:104A1400F0900300E0C394054003024B31E4F51029
:104A2400F5117810121CD17510E975110278101265
:104A34001CD17510EA7511027810121CD17406127B
:104A44001AB2121CE87910EEFCEFFD1251B91209EA
:104A54000C7408121A7DE9705E850882850983A3A7
:104A6400A3A3A3A3A3A3E0F89002E9E0687048120B
:104A74004E6F121CD17CEA7D02E5082408FAE50990
:104A84003400FB1211347402121A7DE960298E82FB
:104A94008F83A3A3A3A31251BF900300E0F5107466
:104AA400027810121A5474012510F582740335111A
:104AB400F583EAF0A3EBF07402121AB28582108532
:104AC40083117810121CD17402121AB2121CE885D8
:104AD4000C82850D83125C871207F27404121A7D0E
:104AE4008A108B11AE10AF11900300E0F510751110
:104AF4000074027810121A5474002510F8740335E7
:104B040011F988828983A312465D70030249F5E88E
:104B14002403F8E93400F9EE4F60030249FE888269
:104B2400898374FFF0A3F0900300E004F090030085
:104B3400E0600A1251B51205527900800B85088293
:104B4400850983125424790A02531974EA121ABE8D
:104B540074FE121A678C128D13EA2405F50CEB12FD
:104B64005DF11245CF750800750900EA2402F510BD
:104B7400EB3400F51185188285198385820A8583B3
:104B84000B780A121CD1850C82850D83A3A3A3A3E1
:104B9400124D31121CD1E50C2405F50AE50D125411
:104BA40014780A121CD1850C82850D83125C85123F
:104BB40007E67406121A7D8A0A8B0BEA450B70030A
:104BC400024CE2EA2404F50EEB124D271245CF8A7B
:104BD400828B83A3A3A3E0F98510828511831251EC
:104BE400BF1207D4E9F5096003024CE2E4F514F5B9
:104BF400157814121CD17514E97515027814121C59
:104C0400D17514EA7515027814121CD17406121A9F
:104C1400B2121CE87913AC0AAD0B8510828511839E
:104C24001251BF12090C7408121A7DE9F5096003C8
:104C3400024CE29002E9E0F8E5087009E0240290F1
:104C44000301F08017900301E0FCE82402FAE43445
:104C540000FBEA6C7001EB6003024CE6850882AA53
:104C640082124E669414124E5E5073850E82850F26
:104C740083E0C0E074022A124D1ED0E0F0050885DE
:104C84000E82850F83A3E0C0E085080A7402250A1A
:104C9400124D1ED0E0F005089002E9124D31121CAD
:104CA400D17CEA7D0285080A7402250AFA74033469
:104CB40000FB1211227402121A7D9002E9E0250809
:104CC400F50874FF6E700374FF6F6012EE24010E1A
:104CD400EF3400FFE508C394145003024B79E50850
:104CE40060131250AA8510828511831251BF1205D8
:104CF4005879008014E509700375090A85128285C4
:104D04001383EEF0A3EFF0A9097402121A7D7F0E4B
:104D1400021B9085080C7402250CF5827403340080
:104D2400F583223400F50F850E82F583221259B4DF
:104D34002274EE121ABE74FE121A678C0E8D0FEADC
:104D44002405F50CEB124945750B00900300E4F0C3
:104D5400F50AEA2402F508EB3400F50980499003CA
:104D640000E0FA9002E9E0F8124E669417124E5EE3
:104D7400400D900300E0F87416C3989002E9F01215
:104D84004E6F121CD17CEA7D0274012AFA7403343A
:104D940000FB1211227402121A7D9002E9E0F890CD
:104DA4000300E028F0050AE50C2416F582E50D124F
:104DB4004D22E0F8E50AC3984003024E47900300F1
:104DC400E0C39416507DE50AC333F8E433F9E50CE7
:104DD40028FEE50D39FF851882851983AC82AD83E1
:104DE4008E828F831251BF1207EC8A108B11AC1084
:104DF400AD11EC4D7005750B018043E4F510F51110
:104E04007810121CD17510E97511027810121CD19A
:104E14007510EA7511027810121CD17406121AB2B8
:104E2400121CE879168508828509831251BF12097C
:104E34000C7408121A7DE9F50B7003024D621254CA
:104E44002080107C007D038508828509831251BF70
:104E540012056AA90B740202531BE99400C365D0BE
:104E64003322EA28F8E43400F9E822E0F510751159
:104E74000078102274EA121ABE74FC121A678A0CA3
:104E84008B0D8C128D13EA2405F50AEB125414755C
:104E94000800750900E50A2402F510E50B3400F555
:104EA400117402121AB285820E85830F780E121CB9
:104EB400D1850A82850B83A3A3A3A3125960121C74
:104EC400D1E50A2405F50EE50B3400F50F780E1232
:104ED4001CD185108285118312541A1251B91207FC
:104EE400E67406121A7D8A0E8B0FAE0EAF0FE50C18
:104EF4002402F50EE50D3400F50F80408882898385
:104F040074FFF00508124D1774FFF005089002E9CC
:104F1400E0F50C750D00780C121CD17CEA7D02853D
:104F2400080C7402250CFA74033400FB1211227469
:104F340002121A7D9002E9E02508F508EE4F60712F
:104F44008E828F83A3A3A3E0F9850E82850F83123B
:104F540051BF1207D4E9F509EE2404124942E9705D
:104F640044E4F514F5157814121CD17514E975157B
:104F7400027814121CD17514EA7515027814121CE7
:104F8400D17408121AB2121CE87911EEFCEFFD85F7
:104F94000E82850F831251BF12090C7408121A7DF8
:104FA400E9F5096027850C82850D831250A01254FF
:104FB4002DE50870030250861250AA850E82850FD3
:104FC400831251BF120570790002509B850882AA92
:104FD40082EA9002E97009E02404900301F080223F
:104FE400E0F8900301E0F514E82404FCE43400FD47
:104FF400EC65147001ED70C0124E669412124E5E90
:1050040050B6850C82850D83E0C0E074022A124DEF
:105014001ED0E0F00508850C82850D83A3E0C0E076
:10502400124D17D0E01250BC85820C85830D780C8C
:10503400121CD17404121AB2121CE8851082851154
:1050440083125C871207F27404121A7D8A0C8B0D8A
:10505400AE0CAF0D85080C7402250CF874033400F3
:10506400F9EE4F7003024F00851882851983E0889A
:105074008289831250BCA3E0C0E0124D17D0E00235
:105084004F0EE509700375090A850A82850B8312A0
:1050940050A012542DA9097404024D0F125C768598
:1050A400128285138322900301E0F5F0E5088490D1
:1050B4000300F07C007D0322F00508851882851921
:1050C400832274EC121ABE74FE121A678A088B09C2
:1050D4008C0E8D0FEA2405FEEB3400FF85188285C3
:1050E4001983AC82AD838E828F831251BF1207EC79
:1050F4008A0A8B0BEE2418124942EA450B7003020C
:10510400519012530250328518828519831251BF6F
:105114001209008A108B11EA4511606B7912AC0AEE
:10512400AD0B8508828509831251BF8510828511D4
:1051340083121ABCE9F50A7058E4F50AF50B780AEB
:10514400121CD18E828F83A3A3E0F50A780A121C65
:10515400D1EE2403125411780A121CD18E828F834B
:105164001251C91209127406121A7DE9F50A702146
:10517400850C82850D83E0701F8508828509831262
:1051840051BF1205768011750A0E8009750A0180D7
:1051940004E50A6003125420850C82850D83E060C7
:1051A4000479008002A90A7402121A7D7F0C021B82
:1051B400907C007D03850A82850B831251C322E013
:1051C400FAA3E0FB22E0FCA3E0FD850882850983C5
:1051D4001251C32274EE121ABE74FE121A678A08A0
:1051E4008B098C0C8D0DEA2405FEEB3400FF750E43
:1051F40000851882851983AC82AD838E828F8312D9
:1052040051BF1207EC8A0A8B0BEA450B700302525A
:10521400EE12530250358518828519831251BF123C
:1052240009008A0E8B0FEA450F605E7912AC0AAD55
:105234000B8508828509831251BF850E82850F83F1
:10524400121ABCE9F50E60030252F1850882850941
:1052540083125508AA0AFB1208F48A108B11A810AD
:10526400A911E849701E7AFF7BFF1208F48A108B9B
:1052740011A810A911E849606C88828983E50AF0B5
:10528400A3E50BF0750A008007750E0E805F050A12
:105294009002E6E0FAE50AC39A504AE50A75F01767
:1052A400A4FAABF088828983A3A3E02AFAA3E03BA3
:1052B400FB8A828B8312541AEC4D70D2750A1775CF
:1052C4000B00780A121CD1EEFCEFFD1211227402BD
:1052D400121A7DEEFCEFFD8508828509831251BF09
:1052E40012057C8014750E098003750E01125C6E24
:1052F400850C82850D8312542DA90E024E59E508A2
:105304002402F508E5093400F5098A828B83A3A3F6
:10531400A3E0A2E5227404121A7D7F0A021B907492
:10532400EC121ABE8C108D11EA2405F50CEB12490F
:1053340045750F00EA2402F50AEB125414850A821B
:10534400F5831251BF1208F48A088B09EA450970E3
:1053540003025406750E008071850C82850D83E06E
:105364006401704F8E828F83A3A3121CE88E828FF8
:1053740083A3A3A3A3E0F5127513007812121CD122
:10538400EE2405F512EF3400F5137812121CD11235
:1053940051B91209127406121A7DE9F50F601485C9
:1053A4000C82850D83E4F0125C6E85108285118376
:1053B40012542D7C177D007900EEFAEFFB12113A9E
:1053C4008E828F83E4F0A3F0050E9002E6E0F8E508
:1053D4000EC398501EE50E75F017A4F8A9F08508C1
:1053E40082850983A3A3125DFB12541AEC4D60035A
:1053F40002535D85088285098374FFF0A3F0E50FED
:1054040070061251B9120582A90F0251B0F50AEFC4
:105414003400F50B22A3E0FCA3E0FD228E828F83EF
:10542400125C76850E82850F83E8F0A3E9F022C032
:1054340082C0839002E2E06A7003A3E06B70067A94
:10544400E27B0280047A007B00024720C082C08392
:1054540078008C828D83E06A7003A3E06B7010E89F
:1054640075F003A4F8A9F0EC28FAED39FB801508CF
:105474008C828D83A3A3A3E06A7003A3E06B60DF37
:105484007A007B0002472074F6121ABE1208BE8A04
:10549400828B83E582458370067A007B008007A3B4
:1054A400A3A3A31251BF025B1F74F2121ABEE9FE3A
:1054B400740E121AB21255087410121AB2125980CC
:1054C4008C828D83E064027036A3125C7CF50CA39D
:1054D400E0F9A80C74026870037429697021750CD2
:1054E40002750D00780C121CD17808121CD1780AB0
:1054F400121CD1EEF91209367406121A7D80027953
:1055040001025BA3E0F50AA3E0F50B2274E8121A8A
:10551400BE74FB121A67E9851882851983F08A160E
:105524008B17ECFEEDFF751000741D121AB2125C9D
:1055340072741D121AB212542D8E828F83A3A3A3E8
:10554400E0A2E4502D741D121AB21251BF120900C8
:105554008A828B83E58245837003025951790AEE6E
:10556400FCEFFDAA16AB17121ABCE9F51060030292
:105574005954741F121AB21259807421121AB21299
:1055840055087423121AB2E0F50EA3E0F50F8E82CB
:105594008F83E0640260030258FFA3125C728508E3
:1055A40082850983A3858212858313EE240612491A
:1055B4004288828983E0FAA3E0F9EA2400F514E43E
:1055C40039F5157814121D5B010000280128F455E3
:1055D40007000228B956032826560029F057012946
:1055E4001B580229BC570329F05704299A58FF581D
:1055F400E50E450F60030258FA850C82850D83126F
:105604005975FAE9FB8A828B83E0850A82850B83CC
:105614001259AB121CD18A828B83A3E0FCA3E00253
:105624005884E50E450F60030258FA850A82850BFB
:10563400837401F0125988850882850983F07C00FF
:105644007D008E828F83A3A3A3A3E02401FAA3E0A9
:105654003400FB1207ECEA4B60418A828B83E0241E
:1056640002F8850A82850B83E028F0EA2404F8EB2B
:105674003400F988828983E0851282851383125964
:10568400BD1259AB121CD18A828B83125419E508BE
:105694002403FAE5093400FB025889850A82850B44
:1056A40083E02404F07C047D007900AA12AB131279
:1056B400113A025954E50E450F60030258FA125983
:1056C40088FEA3E0FF850A82850B837404F0EE85CF
:1056D4000882850983F0EF851282851383F07403B1
:1056E400121AB2AC82AD83EEFAEFFB1207EC8A0C0D
:1056F4008B0DEA450D700302579D8A828B83A3A309
:105704001245CB7401121AB285820E85830F780E6E
:10571400121CD17405121AB2121CE87CFF7DFF1210
:1057240007F27404121A7D8B0FEA450F7033850C4F
:1057340082850D83125960121CD1850C82850D83DC
:10574400A3121CE87C027D007AA97B9012061E74C9
:1057540004121A7DE9700A7401121AB274FFF0A3DC
:10576400F08E828F83E064027039750C02750D002F
:10577400780C121CD18E828F83125419E5082404EC
:10578400FAE5093400FB1211227402121A7D850A0B
:1057940082850B83E0240280097401121AB2EEF0B0
:1057A400A3EFF07401121AB2125971F07401121AB3
:1057B400B2A31259690258F4E50E450F600302586A
:1057C400FA850C82850D8312541AAA16AB17120996
:1057D4002A850A82850B837402F0EA85088285098A
:1057E40083F0851282851383EB0258F7E50E450F8B
:1057F40060030258FA125988F8A3E0F9850A8285F1
:105804000B837402F0E8850882850983F0E9851228
:10581400828513830258F7850C82850D831251BF4C
:1058240012111CEAFC8C82A882C3950EE4950F40E9
:105834005FE8650E7002E50F70047C008022851815
:1058440082851983E0FAE50E2AFAE50F3400FBC3DA
:10585400EA98EB94005003E08005E50ECCC39CFC71
:10586400EC850A82850B83F08C0A750B00780A128A
:105874001CD1850C82850D83E0250EFCA3E0350F39
:10588400FDAA08AB091211227402121A7D0259549E
:10589400751007025954E50E450F705A850C828520
:1058A4000D83125C72850A82850B8374071245D7B7
:1058B4001259691245D7A3E0851282851383F0E853
:1058C4002402FAE93400FB8A828B83125969125943
:1058D40098125971A31259A112597AF0E82405F8C3
:1058E400E93400F98882898312597AA31259BDA335
:1058F400A3A3A3F0805A75100B8055741D121AB21D
:105904001251BF1208BE8A828B83E5824583603DB3
:10591400125C72880C890DE8450D6031780E121CFA
:10592400D1780A121CD17808121CD17406121AB24A
:10593400E0F9EEFCEFFDAA16AB17850C82850D830A
:10594400121ABC7406121A7DE9F510800375100E44
:10595400A9107405121A7D7F10021B90E0F50E75D4
:105964000F00780E22E0850882850983221259C728
:1059740022125C76E8221259C7A3A322E0F508A3F9
:10598400E0F50922850C82850D83E0F8A3E0F58318
:105994008882E022A3A3F08A828B83A322F08882E8
:1059A4008983A3A3A3A322F08A828B831259B422EE
:1059B400E0F50A750B00780A22F088828983A31225
:1059C40059C722E0850882850983A3A32274EE12B5
:1059D4001ABE74FE121A678A0A8B0BECFAEDFB747A
:1059E40014121AB2E0F510A3E0F5117416121AB2EB
:1059F400E0FE7418121AB2E0F50EA3E0F50F851854
:105A040082851983AC82AD831207EC8A0C8B0DEA74
:105A1400450D60498518828519831251BF1208BE4D
:105A24008A828B83E5824583602FA3A3125980E584
:105A34000845096024780E121CD17810121CD1EE8E
:105A4400F9AC0CAD0DAA0AAB0B850882850983124B
:105A54001ABC7404121A7D8006790E800279010240
:105A64004E5974F6121ABE74FE121A67740C121A86
:105A7400B2125975851882851983F07401121AB20D
:105A8400E9F0E4F508F5097808121CD175080278E4
:105A940008121CD17404121AB2858208858309780D
:105AA40008121CD11209127406121A7D7402121AF9
:105AB4007D806874F7121ABEEAFEEBFF89087C1930
:105AC4007D0312092AEA5402600BA908EEFAEFFBDF
:105AD4001207E0800279010244D374F6121ABE74EC
:105AE400FF6A700374FF6B70168C828D83125B24C3
:105AF400E4F08C828D83A3A3A3125B24A3801812E9
:105B040008FA8A088B09A808A909E849600D88825F
:105B1400898374FF1245D5A3A3E4F07F02021B908E
:105B240074FFF0A3F08C828D83A3A32274F6121A5F
