:020000040000FA
:0600000002010A02237850
:03002B000227EDBC
:030033000227CFD2
:03003B0002280E8A
:030043000227830E
:030053000223EE97
:03006B000227A9C0
:10008300022227E5C754F84401F5C779012200008D
:100093000080FB120086B900030200F4E4792178A2
:1000A30008B800028004F709D8FCE479297802B87B
:1000B30000028004F709D8FCE49002817864790C8B
:1000C3008002F0A3D8FCD9FA900DE4AA82AB839006
:1000D300013A780779058015E493A3AC82AD838A4E
:1000E300828B83F0A3AA82AB838C828D83D8E9D9D8
:1000F300E775826F7583C6740312011C758291754F
:100103008300740012011C75D00075813F7518813E
:10011300751902759F00020096C09FF59FE473D086
:100123009F22D083D082C09FE493C0E0740193C028
:10013300E0740293F59F22FF0000B400002800281A
:1001430000283075A000A000A000A000000800084F
:10015300E001F0001000100010001000100010006B
:1001630050005000500010001000D00700000000A5
:1001730000000F00010005003075070010000100AA
:1001830081FF00000000FF3E075C074407FF0202F7
:100193000208025000A0000000E80302AB90010037
:1001A30000949002B3900100003B0E029F90010067
:1001B30000B30202B3900100003C0E029D900100C7
:1001C30000C90202B3900100003D0E02A590010098
:1001D30000CB0202B3900100003E0E02C59008005E
:1001E30000CC0202B3900100003F0E02B190010067
:1001F30000400EFF0100FF2002AB9001000097902A
:1002030002B390010000A40E02AF900000000000B2
:1002130002A19003000019036E0D6E0D6E0D6E0D9D
:100223006E0D6E0D6E0D6E0D6E0D6E0D6E0D6E0DF3
:100233006E0D44105C103E10FFFF0200E2FF02004F
:10024300E7FF0200F3FF0200F3FFFAFF07000300DA
:10025300F9FFFBFF07000400F7FF07000300090095
:1002630003000A000E0005000D0005000E00020247
:1002730002020202020202010D000000100102ABA1
:10028300900100009A9002B3900100001B0F02C777
:10029300900100009C0702B3900100001C0F02C3F1
:1002A300900100006B8F02B3900100001D0F02C18B
:1002B300900100005D8F02B3900100001E0F02BF8A
:1002C30090010000B98E02B3900100001F0F02BD20
:1002D30090010000A78E02B390010000200F02BB23
:1002E30090010000958E02B390010000210F02B926
:1002F30090010000CB8E02B390010000220F02B7E1
:10030300900100004F8F02B390010000230F02B54C
:1003130090010000240F01E803053F100AFF0001CC
:100323003075030201060000000000000000000019
:1003330000000000000000000000000000000000BA
:100343000000FFFF0600800CE80384030F0013097D
:100353004F666669636577656C6C20233030303097
:100363003133051208000800020A000201060302E5
:10037300F1FF53696D706C6520424C4520506572E6
:100383006970686572616CC0150000CC150A48611C
:1003930072647761726520496E666F726D6174690C
:1003A3006F6E000A507265736574204865696768EB
:1003B300740002506F7374757265204A75646765C3
:1003C3006D656E74000A416374696F6E2052616ECD
:1003D30067650008436F6E74726F6C20436F6D6DB9
:1003E300616E6400125065736B205374617475738E
:1003F300000A4C6F636B2053746174757300025071
:100403006F77657275702054696D657374616D7073
:100413000000104865616C74682044617461000ACF
:100423004175746F6D61746963204D6F7665204407
:10043300617461000002AB90010000B98F02B390B8
:100443000100003A1002CF90030000A30D02A39015
:100453000100003B1002B390010000501002D19044
:10046300030000A70D02A390010000511002B390F6
:100473000100005F1002D390010000AF0D02A390B2
:10048300010000601002B390010000721002D590C9
:10049300030000B10D02A390010000731002B3909A
:1004A300010000801002D790020000B50D02A39056
:1004B300010000811002B390010000911002D99055
:1004C300010000B60D02A190030000BA0D02A39033
:1004D300010000921002B3900100009E1002DB9015
:1004E300030000C00D02A3900100009F1002B3900F
:1004F300010000AB1002DD90010000C50D02A390C6
:10050300010000AC1002B390010000BF1002DF90A5
:10051300000000C90D02A190030000D90D02A390B1
:10052300010000C01002B390010000CC1002CB9078
:10053300030000DF0D02A390010000CD101201257E
:10054300EAB60312012501B70312012532B70312DC
:1005530001256DB70312012597B703120125C1B712
:1005630003120125D8B703120125EFB703120125A2
:1005730006B8031201252FB80312012542B803124E
:10058300012558B8031201256BB80312012592B84F
:100593000312012538B6021201253CB702120125C8
:1005A30074B70212012597B702120125A2B70212EE
:1005B3000125C5B702120125D4B802120125A9B934
:1005C3000212012524BA02120125ACBA0212012536
:1005D300E7BA021201251EBB02120125ACBB0212AF
:1005E300012585BC02120125E5BC02120125F0BCE0
:1005F300021201256FBD0212012572BD02120125EF
:1006030075BD0212012504BE0212012507BE0212A6
:10061300012537BE0212012561BE021201254FBF1B
:100623000212012501C002120125EA8903120125E4
:10063300128A03120125408A03120125778A0312C5
:100643000125D58A03120125208B031201256B8B0B
:1006530003120125AB8B03120125F18B0312012534
:100663001F8C03120125DC8C03120125E68C031277
:100673000125F38C03120125268D03120125F28D2A
:1006830003120125FE8D03120125168E0312012587
:10069300208E0312012562C10312012570C10312CA
:1006A300012588C103120125A0C10312012502D629
:1006B30001120125AED60112012529D70112012508
:1006C3004AD80112012586D8011201252FD901121A
:1006D300012516DA011201257ADB01120125D1DB8E
:1006E3000112012552DC0112012542DD011201250F
:1006F3008FDD0112012515DE0112012547DE0112EE
:1007030001255BE0011201259DE001120125BBE0FB
:10071300011201253EE10112012512E20112012518
:10072300DAE201120125DAEB02120125ADEC021225
:10073300012556ED02120125A9ED0212012559EEFC
:1007430002120125E5EE02120125D1EF0212012565
:1007530000F00212012513F1021201255BF10212CE
:10076300012530F2021201256CF20212012588F2F2
:1007730002120125CCC403120125A39F03120125F4
:10078300B99F03120125DF9F03120125FBA003126A
:10079300012505A1031201253AA20312012532A363
:1007A3000312012500800312012530810312012564
:1007B300638103120125AD810312012574830312A2
:1007C300012513C6011201257DC601120125DCC7CF
:1007D30001120125ECC70112012519C801120125D7
:1007E30070C80112012519C90112012520CA01127D
:1007F3000125EACA011201254ACC011201258DCC3B
:100803000112012532CD011201257FCD01120125EF
:10081300A5CD01120125B3CF01120125B8CF0112D5
:100823000125BDD1011201250AD2011201257DD274
:1008330001120125B0D20112012552D30112012563
:10084300FBD30112012533D40112012536D4011241
:1008530001257ED401120125BED40112012515D52F
:100863000112012594AC03120125ACAC031201253E
:10087300F4AC031201250AAD0312012551AD031295
:10088300012565AE03120125F2AE031201253DAF2A
:1008930003120125AE4400120125BA4400120125BA
:1008A300F544001201253A4500120125FA450012CC
:1008B3000125804600120125E54600120125114756
:1008C300001201254A47001201258849001201251B
:1008D3006C4B00120125524D00120125954E00125A
:1008E3000125E35000120125F55100120125405363
:1008F300001201255054001201256D5400120125E8
:10090300A85400120125CA54001201252D550012C6
:100913000125EE5900120125835A00120125D45AEC
:1009230000120125FB5A001201254D5B001201251F
:100933006B5B00120125C55B00120125AE5C001242
:100943000125245E00120125A85E00120125A78E51
:1009530003120125B18E03120125F48E0312012522
:100963000F8F031201259F8F03120125C78F0312D7
:1009730001250490031201253B9003120125649085
:1009830003120125D99003120125EE9003120125CC
:100993000391031201253491031201254891031297
:1009A30001256D9103120125A79103120125D3910E
:1009B300031201255F92031201258A920312012576
:1009C300D39203120125FD920312012528930312EA
:1009D300012546BD0312012565A90212012593A92C
:1009E30002120125E1AA02120125C1AB021201255F
:1009F300E0AB021201255DAC02120125A0AC02128C
:100A03000125F6AD02120125B7AE021201253EB152
:100A130002120125DFB102120125D5B2021201250E
:100A2300D2B3021201252CB502120125B7B5021269
:100A33000125EBBB0312012554BC03120125A8BCFD
:100A430003120125CFBC0312012500BD03120125AA
:100A5300509303120125BD9303120125049403123D
:100A630001251C9503120125189603120125FB96F7
:100A730003120125B5D302120125F7D30212012572
:100A8300C9D402120125A2D5021201259CD6021255
:100A930001257ED702120125E7D7021201259DD831
:100AA3000212012511D9021201257DD90212012555
:100AB300A6D90212012520DA02120125B9DA02129F
:100AC30001251EDB0212012533DB0212012579DB2E
:100AD3000212012592DB02120125F7DB0212012526
:100AE300FADB021201259BA903120125C3A90312F4
:100AF300012501AA03120125BFAA0312012526AB72
:100B03000312012542AB031201256AAB031201252F
:100B13009AAB03120125A9AB0312012526AC0312DC
:100B230001254CAC031201250BB601120125A9B70F
:100B330001120125C4B90112012500BA01120125D0
:100B43002DBA0112012512BB0112012559BB011255
:100B530001259DBB01120125AFBB01120125EFBB8E
:100B6300011201251CBC0112012567BC01120125DC
:100B7300A7BC01120125D5BC0112012527BD011215
:100B83000125B7BD0112012555C0011201256BC214
:100B930001120125A9C2011201253AC4011201253E
:100BA3007FC401120125F6C40112012540C50112BB
:100BB3000125E8C5011201253CCA02120125BBCA61
:100BC300021201257DD0021201258CD102120125CA
:100BD300F4D2021201258BD302120125E5900112F2
:100BE30001252E91011201255B91011201258E91A0
:100BF300011201259B9101120125A79101120125E3
:100C0300B99101120125A09201120125FE92011250
:100C13000125339301120125769401120125C39412
:100C230001120125E79401120125549501120125B2
:100C3300129601120125CB96011201253897011254
:100C43000125EA9701120125FA97011201258198DE
:100C5300011201254099011201256D990112012507
:100C6300E69901120125439A011201258D9A011279
:100C73000125239B01120125EE9B01120125A39C53
:100C830001120125189D01120125799D01120125EB
:100C9300E39D011201251C9E01120125BE9E011236
:100CA3000125CE9F011201250EA0011201252BA0C3
:100CB300011201254AA00112012591A0011201256B
:100CC300B6A001120125E3A0011201255DA10112C5
:100CD30001259EA101120125C2A20112012572A3C1
:100CE30001120125C9A30112012533A40112012513
:100CF3004CA40112012572C002120125C5C00212C3
:100D03000125D1C002120125A6C102120125CDC1C0
:100D13000212012508C20212012574C20212012522
:100D2300B0C202120125E9C20212012501C3021257
:100D3300012556C3021201256FC302120125B8C350
:100D430002120125CBC302120125E5C302120125BC
:100D5300FBC3021201252EC50212012575C602121C
:100D6300012577C70212012571C802120125F6FF7A
:100D7300011201252E9C021201255E9C02120125FF
:100D830026A0021201257DA10212012546A202120C
:100D93000125C6A30212012597A402120125D4A49A
:100DA30002120125F7A40212012535A5021201251D
:100DB3003EA50212012588A50212012592A5021261
:100DC30001253CA60212012515A70212012569A7D8
:100DD30002120125CBA7021201251EA8021201252A
:100DE3004DA8021201258AA8021201257EA4011230
:100DF3000125E5A701120125EBA7011201256DAD20
:100E030001120125E6B101120125BCB5011201252C
:100E13003CA303120125B2A303120125C8A30312A5
:100E2300012509A40312012543A403120125BCA42F
:100E330003120125F7A4031201256AA50312012554
:100E4300A8A503120125B1A503120125BDA503120F
:100E53000125D9A50312012504A6031201251AA60B
:100E6300031201255EA6031201252785031201251E
:100E73003A85031201255485031201257D8503124A
:100E83000125C08503120125FF85031201253D8637
:100E930003120125A28603120125B7860312012539
:100EA300C28603120125CF8603120125E6860312AB
:100EB3000125F48603120125FF86031201250B8702
:100EC300031201251E870312012529870312012519
:100ED3004C8703120125F3870312012503880312AC
:100EE30001251D88031201253A880312012556881E
:100EF300031201257B88031201258688031201252D
:100F03009B8803120125AF88031201251089031260
:100F130001251689031201251C8903120125228943
:100F2300031201253A89031201256D890312012554
:100F330005800212012589800212012538810212DF
:100F43000125978202120125B88402120125A48586
:100F530002120125D98502120125FB850212012502
:100F6300AA8602120125A28802120125CB88021249
:100F730001255D89021201258F89021201259C89B1
:100F830002120125F38902120125198A0212012591
:100F9300868C02120125898D02120125E18D021230
:100FA3000125F3E401120125FDE501120125E4E623
:100FB30001120125EEE60112012510E701120125B8
:100FC3001CE701120125B5E801120125E4E801122D
:100FD300012500EA0112012559EA01120125BFEB9F
:100FE300011201259EEC01120125FAEC01120125E3
:100FF30067ED01120125A2ED01120125E1ED0112B8
:1010030001259AF001120125B4F00112012540F1E6
:10101300011201254EF101120125A7F1011201254B
:10102300B5F10112012528F2011201258CF20112FA
:101033000125D6F201120125A57400120125C774FA
:1010430000120125ED7600120125027A0012012516
:101053001A7B00120125CD7B00120125AF7C001203
:101063000125A4B803120125C9B8031201253BB910
:101073000312012560E40212012569E4021201252D
:1010830072E40212012549E502120125FAE6021271
:10109300012530E7021201256AE702120125A0E7C4
:1010A30002120125DAE7021201250EE802120125D8
:1010B3003AE80212012583E802120125BDE8021273
:1010C300012506E9021201255EE90212012593E9D1
:1010D30002120125EEE90212012528EA0212012576
:1010E30079EA02120125AFEA02120125E9EA0212A6
:1010F300012517EB021201253AEB02120125EFC27B
:10110300031201251BC30312012576C30312012514
:1011130080C30312012590C303120125F1F80212C3
:101123000125FBF80212012539F90212012582F982
:1011330002120125BCF90212012516FA0212012539
:1011430037FA0212012540FA021201258DFA021222
:101153000125B6FA02120125C0FA021201252CFB61
:1011630002120125BEFB0212012508FC0212012511
:101173003EFC02120125CAFC021201250BFD0212DC
:10118300012542FD0212012554FD0212012573FDC2
:10119300021201257CFD0212012544FE02120125E3
:1011A3005FBE0312012556BF03120125F9B40312D2
:1011B30001252FB50312012565B503120125B0B62C
:1011C3000312012550C50312012566C5031201252B
:1011D30070C503120125BAC503120125BD97031279
:1011E3000125D29703120125859803120125C5987D
:1011F30003120125DE980312012519990312012513
:10120300669903120125989903120125DA990312AD
:101213000125E59B031201256BC00312012594C030
:1012230003120125C3C003120125DBC003120125EC
:101233001DC103120125802800120125DA2800129E
:101243000125872900120125802A00120125272B59
:10125300001201252E2C00120125432C001201251A
:101263001B2D001201253A2D00120125D22D00124B
:101273000125DD2E001201250F2F00120125622FFB
:1012830000120125693000120125BD340012012529
:10129300553500120125273600120125813600122B
:1012A3000125B73600120125363700120125C23752
:1012B30000120125373800120125E03800120125FC
:1012C300F838001201252639001201257039001261
:1012D30001257B3A00120125D13C001201253D3F37
:1012E300001201258B4000120125A74100120125A0
:1012F300B54100120125F54100120125B742001244
:1013030001251043001201254144001201256B44BD
:101313000012012567AF031201258CAF03120125CB
:10132300B6AF0312012519C6031201250F5F001280
:101333000125746100120125156300120125C9639B
:10134300001201255C6400120125E16400120125ED
:101353000665001201255C6800120125E26800128F
:101363000125156A001201254F6A00120125846ABE
:1013730000120125446C00120125A16C0012012505
:10138300EA6C00120125556D00120125C66D00128D
:101393000125F86D00120125106E00120125596F09
:1013A30000120125696F00120125847000120125C6
:1013B300A67000120125DC70001201259072001244
:1013C30001251D73001201255C7300120125807431
:1013D3000012012539C2031201254AC20312012555
:1013E300C2C60312012501C703120125E3FF01123F
:1013F30001259AC303120125AAC303120125C5C3FC
:10140300031201252DC40312012567BF0312012511
:10141300ECBF0312012552C00312012572FE021212
:1014230001259BFE0212012506FF0212012557FF2B
:1014330002120125B2FF0212012533B20312012564
:1014430048B20312012564B303120125D8B3031272
:101453000125F2B30312012509B4031201251CB4BB
:101463000312012536B4031201254DB403120125DD
:1014730073B403120125C4B403120125F29B0312B2
:101483000125099C03120125839C03120125679DF5
:10149300031201253E9F031201258EA60312012587
:1014A3001EA7031201258EA7031201251FA80312ED
:1014B300012528A803120125A6A803120125B9A80E
:1014C3000312012525A90312012585A9031201256C
:1014D30098A90312012537C403120125A6C40312D8
:1014E3000125B1C403120125C1C40312012549BA60
:1014F300031201259BBA0312012525BB0312012503
:101503008CBB031201259EFD01120125C8FD0112AA
:10151300012596FE0112012571FF011201251EDC32
:1015230002120125E5DC021201251CDD0212012550
:1015330046DD02120125A6DD02120125FCDD0212A1
:10154300012561DE02120125F9DE0212012508E000
:10155300021201259FE1021201252CE2021201254C
:1015630093E202120125AAE202120125C4E3021248
:10157300012502E4021201252F8E02120125B091EA
:10158300021201253893021201258F9302120125BD
:10159300AE93021201252C9402120125C295021268
:1015A3000125A79602120125B59A021201258B9BEC
:1015B300021201255FF301120125F2F60112012542
:1015C300C5F701120125F9F801120125A0FB01124B
:1015D300012503FD011201258AFD01120125FDF2FA
:1015E300021201254DF3021201256AF302120125AD
:1015F30001F5021201258BF50212012587F602126D
:101603000125B8F802120125D37F001201250BC76B
:1016130003E066701008A3E066700A08A3E0667032
:101623000408A3E06622C3E7960809E7960809E7DA
:10163300960809E79622C3E09608A3E09608A3E07C
:101643009608A3E09622C008C3E096F50808A3E035
:1016530096420808A3E096420808A3E0964508705E
:1016630001D3D00822080808E630E71112185112F6
:101673001680080808C64480C618181822181818B7
:10168300E9799EC608CAC608CBC608CCC6C3702073
:101693007996CACBCC7019798ECBCC70137986CC62
:1016A300700EF9802ACA33CACB33CBCC33CC33196F
:1016B30030E7F2CCCBCA3350147004EA30E00DE4C7
:1016C300CA3ACACB3BCBCC3CCC500209C3E913C6C4
:1016D300CC182313C6CB18C6CA18C6F922E6C333DF
:1016E30018461846184622E7C333194719471947BE
:1016F30022E6084608C3134608336002E633F422A1
:10170300E7094709C3134709336002E733F4221299
:1017130016F4601C12170360171216E070071216F6
:10172300EA7001D322C0D01216EA7006D0D0B322D9
:10173300C32233D0D0501430E0F6C3E7960809E74C
:10174300960809E7960809E796B32220E0D5E697BD
:101753000809E6970809E6970809E697B3220808F7
:1017630008EAC0E0EBC0E086F0E7A4FA180986F0C7
:10177300E7A42AFA180986F0E7A42AFA180986F0DA
:10178300E7A42AFA1986F0E7A4FBE5F02AFA190878
:1017930086F0E7A42BFBE5F03AFA190886F0E7A4F4
:1017A3002BFBE5F03AFA18180986F0E7A4C5F02BED
:1017B300FBE43AFA1908E7C5F0C6A426F6E5F03BC0
:1017C300FBE43AFA1886F0E7A4F6E5F00826F6E417
:1017D3003B08F6E43A08F6D0E0FBD0E0FA22E4CF87
:1017E300C0E0E4CEC0E0E4CDC0E0E4CCC0E075F0FE
:1017F30020C3E633F608E633F608E633F608E633A5
:10180300F6181818EC33FCED33FDEE33FEEF33FF1F
:10181300C3EC9709ED9709EE9709EF97191919404A
:101823000FFFEC97FC09ED97FD09EE97FE191906DA
:10183300D5F0BEECF709EDF709EEF709EFF7191943
:1018430019D0E0FCD0E0FDD0E0FED0E0FF22181874
:1018530018E4C396F608E496F608E496F608E496C8
:10186300F6226016080808C6C313C618C613C6189E
:10187300C613C618C613C6D5E0EA227009080808BD
:10188300226016181818C6C333C608C633C608C65E
:1018930033C608C633C6D5E0EA22E627F60809E6CA
:1018A30037F60809E637F60809E637F622E026F6A2
:1018B30008A3E036F608A3E036F608A3E036F622DE
:1018C300E026F008A3E036F008A3E036F008A3E032
:1018D30036F022C3E697F60809E697F60809E69775
:1018E300F60809E697F622C3E096F008A3E096F01F
:1018F30008A3E096F008A3E096F022E056F608A3CA
:10190300E056F608A3E056F608A3E056F622E056A2
:10191300F008A3E056F008A3E056F008A3E056F061
:1019230022E647F60809E647F60809E647F60809F6
:10193300E647F622E0F608A3E0F608A3E0F608A3DC
:10194300E0F622E6F008A3E6F008A3E6F008A3E633
:10195300F022E0FAA3E0FBA3E0FCA3E0FD22EAF01F
:10196300A3EBF0A3ECF0A3EDF022CAC0E0E6F0A3F2
:1019730008DAFAD0E0FA22CAC0E0E0A3C582CCC5F7
:1019830082C583CDC583F0A3C582CCC582C583CD73
:10199300C583DAE6D0E0CA22C3E498F8E499F912E1
:1019A30019DC8026C3E49AFAE49BFBE920E7E912F9
:1019B30019DCE498F8E499F922C3E498F8E499F976
:1019C3001219DCE498F8E499F9C3E49AFAE49BFB6E
:1019D30022EB20E7CFE920E7E0B90010BB0008E8DD
:1019E3008AF084F8AAF022E4FBC8FA22EB70227B87
:1019F30010C833C8C933C9335007C39AC3DBF28055
:101A0300069A50012ADBEAC833F4C8C933F4C9FA89
:101A13002275F008E4C833C8C933C933C99AC99BCE
:101A23005004C92AC93BD5F0ECFBC833F4C8E4C958
:101A3300FA22600D08C6A2E713C618C613C6D5E07E
:101A4300F322600C08C6C313C618C613C6D5E0F448
:101A530022700422600D18C6C333C608C633C6D528
:101A6300E0F41822251810AF08F518400215198064
:101A730008F51840021519D2AF22C0D0251810AFAF
:101A830008F518500205198008F51850020519D2F7
:101A9300AFD0D0222518F58210AF08F518400215F3
:101AA300198008F51840021519D2AF85198322252C
:101AB30018F582E43519F58322E4732518C582C02D
:101AC300E0E51934FFC583C0E0E518C3958224F827
:101AD30010AF08858319858218800885831985824C
:101AE30018D2AFCEF0A3E520F0A37808E608F0A360
:101AF300DEFAEFF0A3E58124FAF8E608F0A3E6089E
:101B0300F0A3E608F0A30808E608F0A3E608F0A3AC
:101B130015811581D0E0FED0E0F81581158115817E
:101B2300E8C0E0EEC0E0222518C582C0E0E5193424
:101B3300FFC583C0E0E518C3958224F910AF08857B
:101B430083198582188008858319858218D2AFCEC0
:101B5300F0A3E520F0A37808E608F0A3DEFAEFF09F
:101B6300A3E58124FBF8E608F0A3E608F0A3080840
:101B7300E608F0A3E608F0A315811581D0E0FED0B6
:101B8300E0F815811581E8C0E0EEC0E022851983F5
:101B9300851882E0A3FEE0A3F5207808E0A3F60809
:101BA300DFFAE0A3FFE0A3C0E0E0A3C0E0E0A3C04E
:101BB300E0E0A3C0E0E0A3C0E010AF088582188591
:101BC30083198008858218858319D2AFD083D08288
:101BD300020122851983851882E0A3FEE0A3F52084
:101BE3007808E0A3F608DFFAE0A3FFE0A3C0E0E093
:101BF300A3C0E0E0A3C0E0E0A3C0E010AF0885828B
:101C0300188583198008858218858319D2AFD083FC
:101C1300D08222C0D02518C582C0E0E51934FFC5A3
:101C230083C0E0E518C3958224F310AF08858319B8
:101C33008582188008858319858218D2AFC8F0A3DE
:101C4300E9F0A3EAF0A3EBF0A37908E709F0A3D83E
:101C5300FAECF0A3EDF0A3EEF0A3EFF0A3D0E0F0E5
:101C6300A3D0E0F0A3D0E0F0A3E520F0A3E5F0F0EB
:101C7300A322851983851882E0C0E0A3E0F9A3E0DD
:101C8300FAA3E0FBA37808E0F608A3DFFAE0FCA3DD
:101C9300E0FDA3E0FEA3E0FFA3E0C0E0A3E0C0E01B
:101CA300A3E0F5D0A3E0F520A3E0A3F5F010AF087F
:101CB3008583198582188008858319858218D2AF98
:101CC300D082D083D0E0F8D0E0327404800674026E
:101CD30080027401C0E0F404121A97D0E012196D67
:101CE300227404800474028000CCC0E0EDC0E0E5FF
:101CF30018C39CCCAD1950011D10AF068C188D195B
:101D030080068C188D19D2AF12197AD0E0FDD0E07D
:101D1300FC22D083D082E9C0E0E493A3C386F0C55C
:101D2300F095F0F908E493A386F0C5F095F0700BF5
:101D3300E493A3C3994005E9048002A3E475F00288
:101D4300A42582F582E5F03583F583D0E0F9E493A9
:101D5300A3C0E0E493C0E022D083D082ECC0E0EDE6
:101D6300C0E0E493A3FCE493A3FDED4C600D121DCE
:101D7300A7EC24FFFCED34FFFD80EFE493A3FCE428
:101D830093A3FDED4C600D121DE6EC24FFFCED3436
:101D9300FFFD80EFD0E0FDD0E0FCE493A3C0E0E4DE
:101DA30093C0E022C0E0C3E49396087401939618AD
:101DB300400FE4936670080874019366187000700E
:101DC30019A3A3C3E49396087401939618A3A3409D
:101DD3000DD0E0D0E0D0E0021D97A3A3A3A3A3A35B
:101DE300D0E022C0E0C0F088F0E493667008087485
:101DF300019366187000A8F0A3A3700BD0F0D0E095
:0E1E0300D0E0D0E0021D97A3A3D0F0D0E022E3
:101E140074F5121B2AEAFEEBFFEE2434F8EF3400CB
:101E2400F988088909EE2435121F40F8EE24371288
:101E34001F40F50AEC850AF0A4FCAAF0850AF0ED2F
:101E4400A42AFDE82CF8E43DF97A257B001219DC7C
:101E5400EA850882850983F074075AF87401B8008A
:101E6400028004C333D8FCFBEA131313541FF8EEA7
:101E740028F8EF3400F9E8245DF582E9121F435B8A
:101E84006003EA801CEE2436121F40F5F0EA84A8B1
:101E9400F0EE28F8EF3400F9E82438F582E9121F4F
:101EA40043F97F04021BD674F5121B2AEAFEEBFFEA
:101EB400EE2434121F40C0E0EE2435F582EF3400E6
:101EC400F583D0E0F08E828F83A3A3A3A3A3E0FACB
:101ED400A3E0FB8E828F83A3A3A3A3A3A3A3E0FC0D
:101EE400A3E0FDECC39AF50AED9BF50BEE247FF518
:101EF40008EF3400F509850882F583E06401702B4E
:101F0400EE2480F582EF3400F583121CE8121F4999
:101F14007402121A7DE960137CDC7D04EEFAEFFB97
:101F2400120C96850882850983E4F0AC0AAD0BEEA9
:101F3400FAEFFB121E1412276F021EA6F582EF346D
:101F440000F583E022C082C083851882851983E06E
:101F5400F8A3E0F9C3EA9CEB9D5010C3EC98ED990B
:101F6400401BC3EA98EB995014800EC3EA98EB998E
:101F74004007C3EC98ED994004790180027900D0C0
:101F840083D08222EAC39CFAEB9DFB2274ED121BE0
:101F94002A9003A2E064086005E06407702C906155
:101FA400C8E060269003D0E0F874FF68601CE87510
:101FB400F003A4C8AAF02AF974D228FE740339FFE6
:101FC4008E828F83A3A3A3E070057900022130EEF3
:101FD4002468F510EF3400F511906060E0851082FC
:101FE400851183F0750A45750B05750800750900A0
:101FF400E5D914F50EE5D95403F50F601CEE2482DF
:10200400F50CEF3400F50D7403650F6058E50E60B0
:1020140013EE2467121F40700B793DEEFAEFFB12AA
:102024000CBA80A6900540E064016026850C828588
:102034000D83E06004780480027800850E08E508CA
:10204400C398FA95E0FB120B3A8A088B09EA450912
:102054007006120F12021FCE850C82850D83E0706C
:10206400048A0A8B0B78008016E5D9C0E08812E553
:102074000A2512F582E50B3400F583D0E0F008E878
:10208400C3950E40E4850C82850D83E0602874FCC2
:10209400250EF50E780A121CD1AC0EA90FEEFAEF3C
:1020A400FB120D687402121A7DE9700AAA08AB09C2
:1020B4001214F402201D7403650F6058850E0C750C
:1020C4000D00780C121CD1AC0AAD0BAA08AB091296
:1020D4000D2C7402121A7D851082851183E0F87428
:1020E40080687005750C7F8002880CE50CF50A7811
:1020F4000A121CD5E50FF50A780A121CD5A90EACF4
:1021040008AD099003D0E0FA7B001209D2740212E0
:102114001A7D80139003A2E06408600BAC0AAD0B37
:10212400EEFAEFFB120DFE120F1E79017F0C021B5B
:10213400D674F3121B2A74FC121A67EAFEEBFF89A9
:1021440008A2AFE433F509C2AFEE2463F50AEF3415
:1021540000F50B8010AA0AAB0B120CE41214F490D5
:1021640004E3E004F0850A82850B83E0F8A3E0F938
:10217400E849602FE82402FAE93400FBEA2402F576
:102184000CEB3400F50D780C121CD18A828B83E0A1
:10219400FCA3E0F9EEFAEFFB120CD87402121A7DDC
:1021A400E960B29004E3E060579004E4E0F890043E
:1021B400E3E0C398500C7402650870449004E5E0B1
:1021C400603E8E828F83A3A3A3A3E0851882851922
:1021D400831222147402121AB2E81222149004E236
:1021E400E028F07402121AB2AC82AD83851882859D
:1021F4001983AA82AB8379011209DE9004E3E4F027
:10220400E509A2E092AF7404121A7D7F06021BD680
:10221400F0A3E4F09004E3E0F82200008521878530
:1022240022C622C0E074EF121C16A2AFE433FEC231
:10223400AF759B00906182E0A2E05012E591A2E0AC
:10224400500C7591FE740165217003121F90E0A279
:10225400E55051E591A2E5504B7591DF9003A2E062
:1022640064076005E06408702374016521703579A2
:10227400019003D0E0FA75F003A4CAA8F028FB7417
:10228400D22AFA74033BFB1221358018E0640D70E6
:10229400139003C4E004F064287002E4F07A00E0D0
:1022A400F9120F24906182E0A2E6400302234EE576
:1022B40091A2E6400302234E7591BF9003A2E0640D
:1022C400057008120E40120E4C8003120E46752142
:1022D40000120EB2E99003A3F07900120EA6120CBC
:1022E400007A017B009003A1E0F912117690780343
:1022F400E064427055900544E014F0704DC2AF1292
:10230400230600782AD0E0F618D0E0F6E59F5407BB
:1023140070057509FF800375097FC4C0E07829E65C
:10232400F50808E65509F509740B7808121A45D022
:10233400E02508F8906270E0A2E740F8E8C3339023
:102344006272F0906270E0D2E0F0906181E0A2E30A
:102354005009E5E9A2E3500375E9F7A3E0A2E750C9
:1023640009E591A2E7500375917FEEA2E092AF7F59
:1023740004021C75C0E0C0D0C082C083906183E0B9
:10238400A2E05009E5BFA2E0500375BFFEE0A2E160
:102394005009E5BFA2E1500375BFFDE0A2E2500978
:1023A400E5BFA2E2500375BFFBE0A2E35009E5BF1D
:1023B400A2E3500375BFF7E0A2E45009E5BFA2E42D
:1023C400500375BFEFE0A2E55009E5BFA2E5500355
:1023D40075BFDFE0A2E65009E5BFA2E6500375BF72
:1023E400BFD083D082D0D0D0E032C0E074F2121CCF
:1023F40016E5A7A2E4500FE5A1A2E4500953A7EF04
:1024040075A1EF122442E5A7A2E5500CE5A1A2E5CF
:10241400500653A7DF75A1DFE5A7A2E15009E5A1A6
:10242400A2E1500375A1FDE5A7A2E2500CE5A1A22B
:10243400E2500653A7FB75A1FB7F01021C7574F8DB
:10244400121B2A7521019003A2E0640670077A002A
:102454007B00120E28A2AFE433FED2AF9003A8E0B3
:10246400640170187A207B009003A1E0F912120035
:102474007A207B009003A1E0F912117C906182E044
:10248400D2E6F0900541E0602185C62280169003D3
:10249400A7E064017008E5C654F84405F5C653BEC8
:1024A400FC1222207401652160E4EEA2E092AF7F69
:1024B40001021BD68E238F248582288583278518C5
:1024C40082851983E0CEA3E0CF852882852783EB1C
:1024D400C9EAC8EDCBECCA75F010C3E833C8E933D8
:1024E400C9EA33CAEB33CBC3EA9EF526EB9FF52545
:1024F400B35004AB25AA26EC33CCED33CDD5F0DABA
:10250400AE23AF242274F1121B2A8A088B098C0A89
:102514008D0B90904C78081218FE740F121AB27832
:102524000C12193790904C780C1218FE7808790C1C
:1025340012162990903850107808790C1218D67811
:10254400081216494014800E780C79081218D678AF
:102554000C12164950047901800279007F08021B8D
:10256400D674ED121B2A8A088B098C0A8D0B909065
:102574004C78081218FE7413121AB2780C12193718
:1025840090904C780C1218FE780C79081216294099
:10259400117808790C1218D6AA08AB09AC0AAD0B4D
:1025A40080227510007511007512007513017810E2
:1025B400790C1218D67810790812189DAA10AB114C
:1025C400AC12AD137F0C021BD690904C78081219F4
:1025D400378A828B8378081219117F04021BD67400
:1025E400F5121B2A8C828D8378081219378A828B04
:1025F4008378081218EA122637C3E098F0A3E0990A
:10260400122629401E90904078081219378A828B2E
:102614008378081218C38E828F83E02420F0A3E00D
:10262400344EF080A4F08E828F83C3E09420A3E024
:10263400944E22EA2404F8EB3400F9E8FEE9FF8C16
:10264400828D83A3A3A3A3E0F8A3E0F98E828F83F2
:102654002274F5121B2AE9FE9004F7E0FAA3E0FBCA
:10266400EEC333F8E433F9741028F582748F39F526
:1026740083E02AF508A3E03BF5097808121CD19001
:1026840090681219551224B87402121A7D8A088BA4
:10269400098C0A8D0B74107808121865AA08AB0906
:1026A4007F04021BD674F1121B2A8A0C8B0D8C0E2C
:1026B4008D0F740F121AB2E0FAA3E0FB7411121A10
:1026C400B2E0F508A3E0F5097808121CD1EA240168
:1026D400F508EB3400F509E4F50AF50B780C7908F4
:1026E4001217619090307808121937780C79081213
:1026F4001761AA0CAB0DAC0EAD0F1224B874021204
:102704001A7D8B09EA450960047A0180027A00EC9B
:102714002AFCED3400FD7413121AB2E0F8A3E0F9B8
:10272400E8FEE9FFECF8EDF97A717B021219DC8816
:10273400088909E4F50AF50B8E828F83780812194B
:1027440046ECF8EDF97A717B021219DC8A088B09E0
:1027540074057808121A548E828F83A3A3A3A3E569
:1027640008F0A3E509F07F08021BD6C082C083E904
:10277400906000F0D083D08222C2AF02000022C059
:10278400E074F2121C16A2AFE433FED2AFC2C0E56D
:10279400D1A2E4500653D1EF1214D0EEA2E092AFCE
:1027A4007F01021C75C0E074F2121C16A2AFE43360
:1027B400FED2AFE589A2E15003121434758900C238
:1027C400C5EEA2E092AF7F01021C75C0E074F21264
:1027D4001C16A2AFE433FED2AFE58BA2E050031285
:1027E4001434758B00C2E880D8C0E0C0D0E8C0E0E3
:1027F400E9C0E0E5A8D2AFC2C7A2E7A2E792AFD092
:10280400E0F9D0E0F8D0D0D0E032C0E0C0D0E8C0E9
:10281400E0E9C0E0C008C009C082C083A2AFE433CD
:10282400F9D2AF9008C4E0F8A3E0687008539AFBAB
:10283400A374018026C2E99008C4E0F50874012558
:1028440008F074C02508F58274083400F583E0F5B7
:10285400C19008C4E0C394044002E4F0E9A2E09209
:10286400AFD083D082D009D008D0E0F9D0E0F8D03E
:10287400D0D0E032FFFFFFFFFFFFFFFFC082C08325
:1028840090075FE0F8E94A6890075D603C7403F0E4
:102894007410697013EAC333FCE433FD74682CF5D7
:1028A4008274073DF5838015E9702074016A700510
:1028B400900982800874026A70119009841241A1FF
:1028C400900762ECF0A3ED8001E4F08002A3F0D065
:1028D40083D08202012274F0121ABE74FE121A67A7
:1028E4008A088B097E007F00EEF8EFF97A027B00FC
:1028F4001219D4E8C333F50EE933F50F7468250EC5
:10290400F50C7407350FF50D850C82F583A38582CC
:102914000A85830B851882851983AC82AD837A027C
:10292400EE248DF912156CE9601B74C2250EF58234
:10293400748F350FF583123F27850C82850D83E84C
:10294400F0A3E9801A851882851983E0850A8285B7
:102954000B83F07401121AB2E0850C82850D83F0AA
:10296400E5082EF8E509123607EE2402FEEF3400DE
:10297400FFC3EE9408EF12383350030228EC7402BC
:10298400022ED574F7121ABE74FE121A67EAFEEB11
:10299400FF851882851983AC82AD837A02799512FA
:1029A400156CE96045900770E0600C146014248194
:1029B400601B14601F802890098274BDF0A3740406
:1029C400803C9009827403F0A374058031900982DD
:1029D40074E0800590098274F5F0A37401801F905F
:1029E400098274FFF0A3743F8014851882851983CB
:1029F400E0F97401121AB2E0900982F0A3E91235E9
:102A0400FD799712156CE96041900770E0600C1431
:102A140060102481601714601F802790098474C695
:102A240080059009847465F0A37402803190098450
:102A34007416F0A37401802690098474F5F0A3E45D
:102A4400801C900984E4F0A380148518828519837E
:102A5400E0F97401121AB2E0900984F0A3E9F0904D
:102A6400098312305E900982122F50900985122F2B
:102A740056900984122F5D7402023A7374F7121A85
:102A8400BE74FC121A67EAFEEBFF8518828519836F
:102A9400AC82AD837A04798912156CE9602C9007B5
:102AA40070E4F090097BC3E09458A3E09402500EC4
:102AB400900764E0640170069007707480F09007DA
:102AC400717402F0A3E4F0A3802885188285198329
:102AD400E0900771F07401121AB2E0900770F0747C
:102AE40002121AB2E0F97403121AB2E0900772F0FB
:102AF400A3E9F0900770E0547F900FF97004741408
:102B04008002740FF0A3E4F090077112305E900716
:102B140070122F50900773122F56900772122F5D68
:102B2400023A7174E8121ABEEAFEEBFF8C0A8D0BAE
:102B34007418121AB278101219378E168F178E085D
:102B44008F09EE4F702F7A057B001211B88A088B1B
:102B540009AE08AF098E828F83A3A3A3A3E4F08EEA
:102B6400828F83A3A3E50AF0A3E50BF08E828F8303
:102B7400E4F0A3804EEA2404F514EB3400F5159038
:102B8400904078101218B0851482851583E0F50CF6
:102B9400E4F50DF50EF50F7810790C121629502A6C
:102BA400800488088909850882850983123CCB70D2
:102BB400F17A057B001211B8122C05851482851553
:102BC40083E004F0803288088909850882850983B6
:102BD400123CCB70F17A057B001211B8122C058ED1
:102BE400828F83E0FEA3E0FF851482851583124261
:102BF400A8AA16AB171211BEEEFAEFFB7F10021B48
:102C0400908A0C8B0DA80CA90D88828983A3A3E557
:102C14000AF0A3E50BF088828983E4F0A3F0850829
:102C240082850983E8F0A3E9F022C082C0831239C7
:102C3400568A828B83F0900FF7122ECA0228D17421
:102C4400F4121ABE74FC121A678908900778E065BA
:102C5400087003022D11851882851983AA82AB831B
:102C640012129C90097DE0F50A75F005A4F8A9F00C
:102C7400748628FE740939FFE0C394C950198E8202
:102C84008F83123A5D1219558E828F83A3121961B4
:102C940090097DE004806B78007900E8FAE9FBEAAA
:102CA40075F005A4FAACF075F005EBA42CFB748662
:102CB4002AFC74093BFD8C828D83A3A3A3A3A37474
:102CC4000512197AE8240108E93400F9E50A24FF19
:102CD400FAE434FFFBC3E89AE99BA2D265D03340FF
:102CE400BAEE24FBF582EF34FFF583123A5D121934
:102CF40055EE24FCF582EF34FFF583121961900937
:102D04007DE4F0E508900778F07901800279007499
:102D140004121A7D024086C082C083900760C3E01B
:102D24009489A3E094139007604005E4F0A3800322
:102D3400123C8A0228D274F7121ABE8908740F55FD
:102D440008F874F05508600A24F0603424F06067D1
:102D5400806F90097EE0706990097FE06402606191
:102D64007401F07EF4FFE8601214600514600680BC
:102D7400507A0180027A02790080371212BA8041B7
:102D840090097EE0703B90097FE064026033E4F0D8
:102D94007EF47F01E8600B14600C14600D14600E67
:102DA400801F7A00800A7A0180067A0280027A0300
:102DB4007910121236800A9009807401F07E007F27
:102DC40000E50890075FF0EEFAEFFB023A7674F044
:102DD400121ABEEAFEEBFF909034121CE490077DB9
:102DE400123F27758307758266E0C398FCA3E099B8
:102DF400FD900779123CC212124E7404121A7D908F
:102E04000779EAF0A3EBF07C007D00900779123F8C
:102E1400278007E02CFCA3E03DFD88828983E582BE
:102E24002402F8E5833400F9E8FAE9FB123CCB8A82
:102E3400828B8370DEE02CF508A3E03DF509900752
:102E440064780C12193790077B780C121614600CF6
:102E54009007647C7B7D07740412197A9007647868
:102E64000C12193790077F780C12161460479007DC
:102E740083123F27C3EE98EF99503A9007647C7F02
:102E84007D07740412197A900783F0A3F07A04FB87
:102E94001211B8900764122ECAF0900765122EC55D
:102EA400F0900767122EC5A3F0900766122EC5A3F3
:102EB400A3F01211BE900783123F38AA08AB098011
:102EC40013122ECAA322E08A828B832212156674FF
:102ED40004121A7D7F08021B9074F7121ABEECFECE
:102EE400EDFFEAC39EFAEB9FFB1212EAE9F50890A4
:102EF400076AE0C39EFAA3E09FFB1212EAE96508A1
:102F04007004790280027901023A7674F6121ABECC
:102F14007A047B001211B88A088B09AE08AF0990B5
:102F2400076412305E900765122F50900767122FC6
:102F340056900766122F5DEEFCEFFD7A04790512B8
:102F440015EAEEFAEFFB1211BE0237B1123063A399
:102F5400F022123063A3A3F0221242AEF02274F6E0
:102F6400121ABE7A087B001211B88A088B09AE08BF
:102F7400AF0912123CEEFCEFFD7A0879011215EA52
:102F8400EEFAEFFB1211BE7A057B001211B88A0823
:102F94008B09AE08AF097C737D0D7A01799B1215FC
:102FA4006CE96005900D73E4F0900D7312305EEEE1
:102FB400FCEFFD7A0579061215EAEEFAEFFB121121
:102FC400BE7A047B001211B88A088B09AE08AF09D7
:102FD400121248EEFCEFFD7A0479001215EAEEFABB
:102FE400EFFB1211BE7A047B001211B88A088B0918
:102FF400AE08AF09121242EEFCEFFD7A0479031217
:1030040015EAEEFAEFFB1211BE7A027B001211B838
:103014008A088B09AE08AF09121254EEFCEFFD7A50
:103024000279021215EAEEFAEFFB1211BE7A057B61
:10303400001211B88A088B09AE08AF091212F6EE15
:10304400FCEFFD7A05790F1215EAEEFAEFFB121187
:10305400BE75C90043C9080237B1123063F022E0DB
:103064008E828F832274EA121ABE8910750A007543
:103074000B007C007D0079008911E5106035146037
:10308400142481601B1470407512F57513017514B6
:10309400F589158017751203751305751465801C61
:1030A4007512E07513017514167515019007857472
:1030B4000280117512BD7513047514C6751502903E
:1030C40007857404F0A3E4F0900981E0F508890908
:1030D40074037808121A5485080E85090F74F725AD
:1030E4000EF50C740E350FF50D74E7250EF50E7400
:1030F4000E350FF50FEAC333F508EB33F509C3EAD0
:1031040094011238325003023241900762E0F51400
:10311400A3E0F515E512C39514F514E5139515F51B
:1031240015C3E5149414E515940050300990076212
:10313400E0C39512F50AA3E09513F50BE50A2414F0
:10314400F50AE50B3400123406E5129401E5131276
:1031540038334006AC12AD13800289111234B1EA3F
:103164009512EB9513A2D265D03350030233EDE5EB
:103174000C2402F512E50D3400F513E50E2402F5D6
:1031840082E50F3400F583E9A2E04049E5107003BD
:1031940002333C14601B248160381460030233F151
:1031A40012342D1219D4123CB71219D41233FA80E6
:1031B40017EAF8EBF9123CC21219D4880A890BE514
:1031C40008250AF8E509350BF9851282851383026F
:1031D400336002331A12344570030233AA14602395
:1031E400248160561460030233F11234151219D489
:1031F400123CB71219D4880A890BEC250AFAED356A
:103204000B8017ECF8EDF9123CC21219D4880E8920
:103214000FE50A250EFAE50B350FFB85128285139F
:1032240083124199850CF0A4F8ACF0850CF0E9A464
:103234002CF9EA28F8EB390233E202337A123831F6
:1032440040030233ED900762E0C39514F512A3E046
:103254009515F513C3E5129414E5139400501B0956
:10326400E51224ECF50AE51334FF12340612383360
:103274005006AC12AD13800289111234B1E49512D8
:10328400F512E49513F513C3E5129AE5139BA2D244
:1032940065D03350030233EDE50E2406F582E50FC5
:1032A4003400F583E50E2404F50EE50F3400F50F24
:1032B400E9A2E05003023369E50C2406F8E50D3475
:1032C40000F9880A890BE50C2404F8E50D3400F9AB
:1032D400880C890DE510606014601B24816037142C
:1032E40060030233F112342D1219D4123CB71219AF
:1032F400D41233FA8017EAF8EBF9123CC21219D44B
:10330400880C890DE508250CF8E509350DF9850AC1
:1033140082850B83804612342D1219D4E8FCE9FD12
:10332400ECC333FCED33FD850E82850F83123CC262
:103334001219D41233FA801DEAF8EBF9850E82854E
:103344000F83123CC21219D4880A890BE508250A96
:10335400F8E509350BF9850C82850D83E028FEA379
:10336400E0390233EA123445603C14603F24816042
:10337400051470798006850E82850F83E0FEA3E034
:10338400FF1234151219D4E8FCE9FDECC333FCED4B
:1033940033FDEEFAEFFB1219D4880A890BEC250AE7
:1033A400F8ED350B8023850E82850F83E0FEA3E0C4
:1033B400FFECF8EDF9EEFAEFFB1219D4880E890F41
:1033C400E50A250EF8E50B350FF9EE850CF0A4FEA1
:1033D400AAF0850CF0EFA42AFFE82EF8E93FF9E8FB
:1033E4002508FEE93509FF80047E007F00EEFAEF30
:1033F400FB7F0E021B9088088909EC2508F8ED353F
:103404000922F50BEAC3950AF512EB950BF513C3E4
:1034140022EC75F07FA4FCA8F075F07FEDA428FDE4
:10342400ECF8EDF97A327B0022EA75F07FA4FAA871
:10343400F075F07FEBA428FBEAF8EBF97A327B0015
:1034440022E511A2E0B3E433F50CE50A9AF8E50BA2
:103454009BF9851108E88508F0A4F885F011850822
:10346400F0E9A42511F9EAC3950AFAEB950BFBEAF6
:10347400850CF0A4FA85F008850CF0EBA42508FB74
:10348400E82AF508E93BF509E50875F003A4F50811
:10349400A8F075F003E509A428F5098C0A8D0BE55D
:1034A4000AC333F50AE50B33F50BE51022900785C3
:1034B400E0F512A3E0F513C32274F7121ABE74F6F2
:1034C400121A67E9FEEAC333FAEB33FB74682AF88D
:1034D40074073BF988828983ECF0A3ED123A5FF01C
:1034E40088828983E0C0E07401121AB2D0E01235F8
:1034F400FDEEF91215667A007B00EAF8EBF9E8C3F1
:1035040033F8E933F97402121AB2E58228FCE58330
:1035140039FD746828F8740739F988828983A3E02F
:103524008C828D83F088828983E08C828D83A312C0
:1035340037B6940412383240C17402121AB2AC8203
:10354400AD837A0879011215EA1212C6740A023A96
:103554007374F0121ABE74F6121A678A088B09750E
:103564000E00750F00E50EC333FEE50F33FF7468DC
:103574002EF50C74073FF50D850C82F583A3858227
:103584000A85830BE5082EF582E5093FF583123C95
:10359400CB6028850C82850D83123A6B8518828551
:1035A400198312361EC0E07401121AB2D0E012352B
:1035B400FDE50EC333248DF91215667402121AB296
:1035C400E5822EF8E583123607E50E2401F50EE5B3
:1035D4000F3400F50FC3E50E9404E50F12383340A1
:1035E400847402121AB2AC82AD837A08790112157E
:1035F400EA1212C6740A022ED5123A63AC82AD8363
:103604007A02223FF9850A82850B83E088828983C6
:1036140012361E88828983A3F022F0850C82850DE0
:1036240083E02274EC121ABE8A0C75100075110026
:103634007512007513007A00850C088B098C0A8DAD
:103644000BEA33333354F8780812186590900078F5
:10365400081218FE7403C39A33333354F8780812EB
:10366400187E781079081219240AEAC3940440C811
:10367400AA10AB11AC12AD137F0C021B9074F7129D
:103684001ABE74FC121A67EAFEEBFF1211A01211A3
:10369400A6121296851882851983121961851882DB
:1036A400851983EEFCEFFDECFAEDFB740412197A34
:1036B400023A7174F4121ABE7A057B001211B88AA8
:1036C400088B09AE08AF09740C121AB212305E7876
:1036D400017900C3E498FAE499FB740C121AB2E578
:1036E400822AF582E5833BF583A3A3A3A3A3E0C0C9
:1036F400E0123828D0E01238C240D8EEFCEFFD7A50
:103704000579061215EAEEFAEFFB1211BE740C12DB
:103714001AB2E06018740D121AB27808121937E55B
:10372400084509450A450B700479018002790002B5
:10373400408674F6121ABE900980E060707A107B9D
:10374400001211B88A088B09AE08AF09900787E008
:1037540075F00FA4F8A9F0748628F8740939F912E1
:10376400305E900787E004F07A007B00E82AF58257
:10377400E93BF583E0C0E0EE2AF582EF3BF583A355
:10378400D0E01237B6940F12383240E0EEFCEFFD71
:103794007A1079081215EAEEFAEFFB1211BE9007BF
:1037A40087E0C394434006E4F0900980F07F02026E
:1037B4001B90F0EA24010AEB3400FBC3EA2274F6FE
:1037C400121ABE74FC121A67851882851983AA829C
:1037D400AB8312129C7A047B001211B88A088B09FD
:1037E400AE08AF0978007900851882851983E582CF
:1037F40028F582E58339F583E0C0E0123828D0E06B
:103804001238D49404E912383340DDEEFCEFFD7A2B
:103814000479071215EAEEFAEFFB1211BE740412D2
:103824001A7D8089EE28F582EF39F58322C3EB12E5
:1038340038CC2274F0121ABE74FC121A67EAFEEB3A
:10384400FF8E828F83E0900D73F01211A0780179BE
:1038540000123828E0C0E0851882851983E58228A3
:10386400FAE58339FBEA24FFF582EB34FFF583D0D4
:10387400E01238C240DB851882851983121955126B
:1038840012968A088B098C0A8D0B1211A68A0C8B4E
:103894000D8C0E8D0F7808790C12189D900D787888
:1038A40008121946851882851983121955900D74CA
:1038B4001219617C737D0D7A01799B022ED0123826
:1038C400D49405E91238CC229400A2D265D03322D4
:1038D400F0E8240108E93400F9C3E822C082C08377
:1038E40090097FE4F090075DF090075FF09009790C
:1038F400F00228D1C082C0838A828B83A3E0F8744B
:103904008168600D74016860087480686003E87001
:103914000BEAFCEBFD7A04798912156612127E0219
:1039240028D3C082C08374FE121A671239568518D0
:1039340082851983F0900FF7E0C0E07401121AB287
:10394400D0E01235FD79021215EA7402121A7D02D2
:1039540028D3900768123F2BA3E028F8A3E039C3CB
:1039640013F9E813900FF7F0A3E9F02274F7121A91
:10397400BE74F8121A67EAFCEBFD8C828D83E0C0FA
:10398400E07401121AB2D0E0F08C828D83A3E0853A
:103994001882851983F0EC2402FEED3400FF8E8238
:1039A4008F83E0C0E07403121AB2D0E0F08C828DF1
:1039B40083A3A3A3E0C0E07402121AB2D0E0123AC7
:1039C4005F123CCB900982600C123A6B7A027995B3
:1039D400121566800C123F27851882851983123AC6
:1039E4006B7402121AB2123CCB9009846010123A22
:1039F4006BEEFCEFFD7A027997121566800B123F8D
:103A0400277402121AB2123A6B7401121AB2E0C08D
:103A1400E07404121AB2D0E01242A3C0E07405129A
:103A24001AB2D0E0F07403121AB2E0C0E0740612C5
:103A34001AB2D0E0F07402121AB2E0C0E0740712B5
:103A44001AB2D0E0F07404121AB2AC82AD837A04D4
:103A540079031215EA74088016E508123A6322F015
:103A640085188285198322E8F0A3E9F022740412F0
:103A74001A7D7F01021B9074F0121ABE900764E055
:103A840064017067900766123CAE900788123CA1EF
:103A9400E0687003A3E0696046E849604690078ADD
:103AA400E0604090097BE0C398F508A3E099F5092C
:103AB4003395E0F50AF50B7808121668E50BC2E7B2
:103AC400F50B909004780C1219377808790C1217BA
:103AD400125010900788123CAE90078AE48027E8C1
:103AE400497024123F24900788800BE06406600C20
:103AF400900982123CA1E8F0A3E9800A90097F743E
:103B040002F090078A14F090075DE0703F90075E22
:103B1400E064037027C390097A123C855003023C89
:103B240061900979C3E09401A3123C854003023CEF
:103B34003675800053FD0F90075E800CE070030221
:103B44003C8275800053FD0FE4023C81F890075ECF
:103B5400E0687003023BFD90075DE01460091460A7
:103B640017146026023BF390097BC082123C97D065
:103B74008212443A5079802D900984123CC2123F3B
:103B840024C3EA98EB9950678035900982C08290EB
:103B94000762123F27758309D08212443A500F906E
:103BA4000982123F27900762E8F0A3E98018900980
:103BB40084123CC2900762C3E09AA3E09B50089031
:103BC4000762EAF0A3EBF0900770E0F9900762C097
:103BD4008290097B123CC2758307D082E0C39AFAB3
:103BE400A3E09BFB121284900979EAF0A3EBF09016
:103BF400075DE090075E023C81900979123CCB702E
:103C04001675800053FD0F90075DE4F090075FF098
:103C140090097F7402806690075DE014600514606B
:103C24002A805B90097BC082123C97D08212443A6E
:103C3400503F90097EE0700643FDF0758040900986
:103C440079E024FFF0A3E034FF8032900984C0823D
:103C5400123F24758309D08212443A501490097E8D
:103C6400E0700643FDF0758080900979123C8A80EB
:103C74000C75800053FD0F900979E4F0A3F0022E37
:103C8400D8E01238CC22123C8E22E02401F0A3E0CA
:103C9400340022900982123F2B75830922123CA51D
:103CA40022E0F8A3E0F990097B22123CA5E8F0A3F6
:103CB400E9F022E8FCE9FDECC333FCED33FDE0FA66
:103CC400A3E0FB22900766123F2BE84922C082C082
:103CD40083E590540F90078BF090097FE0640170A6
:103CE40003023F2190078BE0640F90097F702BE45F
:103CF400F090075DF090078C740FF090078DE4F05E
:103D040090075EE06403700990097EE07003023F4F
:103D14002175800053FD0F023F217402F090097E4B
:103D2400E06003023F2190078CE0F890078BE06885
:103D34007003023EBE90075EE064037003023EA679
:103D440090078BE024FD7003023E2A24FE60502479
:103D5400FE603024FE7003023E5624FE7003023DD2
:103D6400EF24FE6009147003023E99023EB59007E9
:103D740064E064067005123CC8701590075D740118
:103D8400023EB4900764E06406700C123CC86007FD
:103D940090075DE4023EB490075D7402023EB49065
:103DA4000764E06406601E900768E0F47003A3E013
:103DB400F47003023EB590075D7403F09007681237
:103DC4003F27023E71123CC86003023EB512419E79
:103DD400798D7A007B0012128A90097EE0600302DA
:103DE4003EB543FDF07580C0023EB5900764E064C3
:103DF40006600D90076A123F31706A74FF6980652E
:103E0400123CC86003023EB512419E798F7A017B51
:103E14000012128A90097EE06003023EB543FDF071
:103E2400758020023EB5900764E064066005900743
:103E34006C802A123CC8707912419E79917A027B77
:103E44000012128A90097EE0706743FDF07580A02D
:103E5400805F900764E06406601C90076E123F3137
:103E6400700374FF69604A90075D7403F090076201
:103E7400E8F0A3E9803A123CC8703612419E799367
:103E84007A037B0012128A90097EE0702443FDF0CD
:103E9400758060801C90075DE4F043FDF075801030
:103EA400800F90075DE4F090075EF0900979F0A32D
:103EB400F090078BE090078C8062E0640E705E7572
:103EC400800053FD0F90078EC3E09410A3E094008C
:103ED4004022900D7CE090075D70117401F0900D0C
:103EE4007CF0900765E0F91212FC80087402F090EF
:103EF4000D7CE4F090078DE0702390078E123F381C
:103F040090078EC3E09419A3E09400401090075DDD
:103F1400E4F090078EF0A3F090078D04F00228D30C
:103F240090097B123F2B22E0F8A3E0F922123F2BE9
:103F340074FF6822123C8EF02274F4121ABEE9FE59
:103F440074046E6003024070900760123CCB7003EF
:103F540002407F900760C3E0941EA3E09400500DDC
:103F64007C047D007A907B071214DC80077A047B42
:103F7400001214E2900790E0900798F0900791E007
:103F8400F9900799F0900792E0FA90079AF0900759
:103F940093E0FB90079BF0909008780812193790F3
:103FA40007947808121614707290900C78081219FD
:103FB400379007987808121614604C900798780880
:103FC400121937740165087004740265096014904D
:103FD400079878081219377401650870047401652C
:103FE400097024909010780812193790079878086F
:103FF40012161460129090147808121937900798CA
:10400400780812161470149007987401F0A37404BD
:10401400F0A37401F0A374AAF08060900798780864
:1040240012193774016508700474056509700E90DF
:1040340007947C987D07740412197A800FE990071D
:1040440064F0EA900767F0EB900766F090079878C1
:10405400081219379007947808121614601D9007F7
:10406400987C947D07740412197A800FEEC394052A
:1040740040098E08AA087B001214E2900760E4F05D
:10408400A3F07F04021B9074F4121ABEEAFEEBFF45
:10409400EEF8EFF9E8C333F8E933F9900770E0601C
:1040A4000C1460112481601514601A8022750807AD
:1040B40075090F801A75081175090F8012750807A4
:1040C40075090F800675081175090FE8FEE9FF12DE
:1040D4003F24758307758262E0C398FAA3E099FBD5
:1040E4008508828509831241A1C3EC9EED9FA2D26B
:1040F40065D033502E900770E0F91212848A0A8B2F
:104104000BAC0AAD0BEEF8EFF9850882850983A3A1
:10411400A3123CC21219D4880A890B850882850926
:10412400838047C3E49CF8E49DF9C3EE98EF99A219
:10413400D265D033505C900770E0F91212848A0A79
:104144008B0BAC0AAD0BEEF8EFF985088285098379
:10415400A3A3A3A3A3A3123CC21219D4880A890B54
:10416400850882850983A3A3A3A3A3A3A3A31241C0
:1041740099850AF0A4C8AAF0850BF0A42AFA850A46
:10418400F0E9A42AF9ECC398F8ED99F990097912A9
:104194003A6B024086123F2BE82290097BE0FCA395
:1041A400E0FD2212383150047900800279010201C5
:1041B4002274F0121ABE8A088B098C0A8D0B121114
:1041C400A01211A68A0C8B0D8C0E8D0F7808790C19
:1041D40012162950117808790C1218D6AA08AB09BE
:1041E400AC0AAD0B80087A007B007C007D00022EB7
:1041F400D874F7121ABE74FB121A67EAFEEBFF8535
:104204001882851983AC82AD837A05799C12156C6A
:10421400E96026851882851983E4F004121AB274C1
:1042240003F014121AB27484F07403121AB27407ED
:10423400F07404121AB27408F07402121AB2E0FA9A
:104244007401121AB2E0F9EA900776123A6C740417
:10425400121AB2E0FA7403121AB2E0F9EA9007747F
:10426400F0A3E91242A3900D7EF0900D7CE4F0904F
:104274000D7F741EF0A3E4F0A3F0A3F0900D7E1262
:10428400305E900777122F50900776122F569007C2
:1042940075122F5D9007741242A87405023A7312C6
:1042A4003A63E0221242AEA3F022E08E828F83A30F
:1042B400A3A32274F0121ABE89081211A0E50860A3
:1042C40048740265087004740180027402900D7DC4
:1042D400F064017005900776800390077412419989
:1042E400FCE9FD900D7FECF0A3EDF0A3E4F0A3F066
:1042F4001211A68A0C8B0D8C0E8D0F900D7F780CED
:104304001218B0A3780C121946022ED874F0121A9F
:10431400BE74FC121A678A828B83A3A882A983E0E5
:10432400F50CEA2402FCEB3400FD850C088C828D2C
:1043340083E0FFE508851882851983F0A3EFF0EA8E
:104344002404FEEB3400FFEA2403F508EB3400F503
:1043540009850882F583E0F50E8E828F83E0F50BE4
:10436400E50EF50A7402121AB2E50AF0A3E50B127F
:1043740042A3F50AA3E0F50BE50A450B6010E50C32
:10438400900777F08C828D83E090077680119007F8
:1043940077E088828983F0900776E08C828D83F0C1
:1043A4007402121AB2123CCB601585088285098307
:1043B400E0900775F08E828F83E0900774801190EF
:1043C4000775E0850882850983F0900774123063CD
:1043D400F08A828B83E0F8740F58640F6008747F4E
:1043E40058900D7E8006900D7E122ECAF08A828B24
:1043F40083E0A2E7502A900768123F2775830F7560
:1044040082F712443A4011900FF7123F2775830741
:1044140075826A12443A50088A828B83E0C2E7F0BC
:104424008A828B83E05480900D7CF01C1CEBFD7A17
:1044340005799C022ED0C3E098A3E09922C082C0E3
:1044440083900D7DE0640190075D70087403F09023
:10445400076880067403F090076A123F279007628A
:10446400E8F0A3E90228D2C082C08390097FE070FB
:1044740034900D7DE0640190075D70107403F0903A
:10448400097BE024FBF8A3E034FF800E7403F09072
:10449400097BE02405F8A3E03400F9900762123A9E
:1044A4006B7901800279000228D3C082C083E9902D
:1044B4000EA3F002473D74F7121ABEE99002E1F030
:1044C4007C197D037AFF7BFF1209249002E274FFBA
:1044D400F0A3F0A3E4F0A3F079051208AC9002E194
:1044E400E0F91207CE7A427B09120AEC7F01021B23
:1044F4009074F4121ABE8A088B09EB5480603090D1
:1045040002E1E0F912115E8A0A8B0BAE0AAF0BEEE0
:104514004F60138E828F83E064B070031208C4EE80
:10452400FAEFFB12114CAA08E5096480FB80047AB7
:10453400007B0002470C74F2121ABE74FC121A6754
:10454400EAFEEBFFEE4F60387402121AB2EEF0A3EB
:10455400EF124971ECF0A3ED124971AA82AB8312F8
:1045640007C8E9F50870737412121AB2125525E5DA
:104574000A450B60658E828F831245E8EE4F700505
:1045840075080280557A067B001211B88A0C8B0DCF
:10459400A80CA90DE8497005750813803D88828927
:1045A40083E41245F2A3A3EEF0A3EF1259BEE50A89
:1045B400F0A3E50BF09002E712467A9002E7601749
:1045C400E0FCA3E08003EAFCEBFD8C828D831246C1
:1045D4007A70F38C828D8312544AA9087404121AD7
:1045E4007D025BC0A3A3A3A3E0FEA3E0FF22F0A38C
:1045F400F0888289832274F2121ABE890AE975F05E
:1046040017A4FEAFF09002E6E4F09002E412467ABA
:10461400600A1211BE9002E4E4F0A3F0EEFAEFFB9C
:104624001211B88A088B09EA4509602FEEFCEFFDE8
:10463400790012113A9002E4E508F0A3E509F07B51
:10464400008008124664E4F0A3F00BEBC3950A4023
:10465400F2E50A9002E6F0790080027913025BC069
:10466400EB75F017A4F8A9F09002E4E028FAA3E0AF
:10467400398A82F583221251E0EA4B2274F4121A29
:10468400BE750800750900740C121AB2125992FE14
:10469400E9FF800CE5082401F508E5093400F50973
:1046A400C3E5089CE5099D503285080A85090B7409
:1046B40003780A121A54EA250AF8EB350BF98882B2
:1046C4008983A3A3A3A3A3A3125525EE650A7003AC
:1046D400EF650B70BFE8FAE9FB80047A007B008089
:1046E4002774F4121ABE7900EAA2E0501B7508F090
:1046F40075098F7808121CD17C047D007AA57B0E85
:104704001208A67402121A7D7F04021B90C082C094
:10471400839002E7124744601C88828983A3A3E044
:104724006A7003A3E06B8882898370E8A3A3A3A3C0
:104734001251DC80047A007B00D083D082020122F3
:10474400125C93E8492274EE121ABE74FC121A67C2
:10475400EAFEEBFF851882851983E4F0A3F0EE24CA
:104764000212542EEE240512495FEE2404F50EEFD6
:10477400124D44E024FE603924FC604624FE60525D
:1047840024FE605E24FE700302486424FE7003026B
:1047940048DC24FE70030248EB24FE70030248FA4E
:1047A40024FC700302490924FE70030249180249DB
:1047B400559003007417F0A3E412497912054602D8
:1047C4004955851882851983AC82AD831208CA02C3
:1047D4004925851882851983AC82AD831208D002DD
:1047E4004925850C08850D097402121AB2AC82ADF4
:1047F400838508828509831251DC1207EC8A0C8BAD
:104804000DAC0CAD0DEC4D6042E4F50CF50D780CDF
:10481400121CD1750C00750D03780C121CD1750C8B
:1048240001750D03780C121CD17408121AB2121CF3
:10483400E879161251D612090C7408121A7DE9F59A
:104844000C700B1251D212055E800F750C01850895
:104854008285098312496712544A850C0802492843
:104864007402121AB2AC82AD83850C82850D831258
:1048740051DC1207EC8A108B11AC10AD11EC4D60B9
:1048840043850C82850D83A3A3121CE87510007563
:1048940011037810121CD1751001751103781012D0
:1048A4001CD17408121AB2121CE879161251D612CD
:1048B400090C7408121A7DE9F509700B1251D21211
:1048C4000564800F750901850C82850D8312496783
:1048D40012544A850908804C851882851983AC8254
:1048E400AD831208D6803A851882851983AC82ADCF
:1048F400831208DC802B851882851983AC82AD83F2
:104904001208E2801C851882851983AC82AD83125B
:1049140008E8800D851882851983AC82AD8312085E
:10492400EEE9F508E50860298E828F83A3E064141C
:10493400601F850E82850F83E09003001249711277
:104944005C8F90030112544AE508A31249791205B9
:1049540040EEFAEFFB12086A025336F50CEF34000E
:10496400F50D22125C9385188285198322F085182F
:104974008285198322F07C007D03850A82850B835E
:104984001251E02274EE121ABE74FC121A678A0ADB
:104994008B0B8C0E8D0FEA2405F508EB3400F5091A
:1049A4007C157D0079007A007B0312113AE5082416
:1049B40002F50CE5091249628518828519838582FE
:1049C400108583117810121CD1850882850983A370
:1049D400A3A3A3124E8C121CD1E5082405F510E5FF
:1049E400093400F5117810121CD1850C82850D83D1
:1049F4001251E61207E67406121A7D8A108B11AE64
:104A040010AF11E50A2402F50AE50B125431EE4FFA
:104A14007003024B4E80177402121AB21251DC88D2
:104A2400828983EAF0A3EBF0900300E004F09003A2
:104A340000E0C394054003024B4EE4F510F51178F1
:104A440010121CD17510E97511027810121CD17561
:104A540010EA7511027810121CD17406121AB212DF
:104A64001CE87910EEFCEFFD1251D612090C740803
:104A7400121A7DE9705E850882850983A3A3A3A326
:104A8400A3A3A3E0F89002E9E0687048124E8C12E8
:104A94001CD17CEA7D02E5082408FAE5093400FB10
:104AA4001211347402121A7DE960298E828F83A355
:104AB400A3A3A31251DC900300E0F5107402781054
:104AC400121A5474012510F58274033511F583EA22
:104AD400F0A3EBF07402121AB28582108583117868
:104AE40010121CD17402121AB2121CE8850C8285B1
:104AF4000D83125CA41207F27404121A7D8A108BBF
:104B040011AE10AF11900300E0F51075110074029E
:104B14007810121A5474002510F874033511F988AA
:104B2400828983A312467A7003024A12E82403F8A6
:104B3400E93400F9EE4F6003024A1B8882898374CA
:104B4400FFF0A3F0900300E004F0900300E0600A9B
:104B54001251D21205527900800B8508828509838F
:104B6400125441790A02533674EA121ABE74FE12C0
:104B74001A678C128D13EA2405F50CEB125E0E12E3
:104B840045EC750800750900EA2402F510EB3400C1
:104B9400F51185188285198385820A85830B780A25
:104BA400121CD1850C82850D83A3A3A3A3124D4EA1
:104BB400121CD1E50C2405F50AE50D125431780ACE
:104BC400121CD1850C82850D83125CA21207E67437
:104BD40006121A7D8A0A8B0BEA450B7003024CFFFE
:104BE400EA2404F50EEB124D441245EC8A828B83C1
:104BF400A3A3A3E0F98510828511831251DC120767
:104C0400D4E9F5096003024CFFE4F514F5157814B2
:104C1400121CD17514E97515027814121CD175147F
:104C2400EA7515027814121CD17406121AB2121CF9
:104C3400E87913AC0AAD0B8510828511831251DC1F
:104C440012090C7408121A7DE9F5096003024CFF7D
:104C54009002E9E0F8E5087009E02402900301F00D
:104C64008017900301E0FCE82402FAE43400FBEA34
:104C74006C7001EB6003024D03850882AA82124E18
:104C8400839414124E7B5073850E82850F83E0C08B
:104C9400E074022A124D3BD0E0F00508850E8285AF
:104CA4000F83A3E0C0E085080A7402250A124D3B75
:104CB400D0E0F005089002E9124D4E121CD17CEAB6
:104CC4007D0285080A7402250AFA74033400FB1273
:104CD40011227402121A7D9002E9E02508F5087485
:104CE400FF6E700374FF6F6012EE24010EEF340048
:104CF400FFE508C394145003024B96E508601312B1
:104D040050C78510828511831251DC120558790031
:104D14008014E509700375090A851282851383EEF0
:104D2400F0A3EFF0A9097402121A7D7F0E021B9002
:104D340085080C7402250CF58274033400F5832273
:104D44003400F50F850E82F583221259D12274EEB8
:104D5400121ABE74FE121A678C0E8D0FEA2405F522
:104D64000CEB124962750B00900300E4F0F50AEABB
:104D74002402F508EB3400F5098049900300E0FAB9
:104D84009002E9E0F8124E839417124E7B400D9086
:104D94000300E0F87416C3989002E9F0124E8C12E6
:104DA4001CD17CEA7D0274012AFA74033400FB12DC
:104DB40011227402121A7D9002E9E0F8900300E0D7
:104DC40028F0050AE50C2416F582E50D124D3FE0A6
:104DD400F8E50AC3984003024E64900300E0C394CC
:104DE40016507DE50AC333F8E433F9E50C28FEE5F3
:104DF4000D39FF851882851983AC82AD838E828F2D
:104E0400831251DC1207EC8A108B11AC10AD11EC3B
:104E14004D7005750B018043E4F510F511781012FF
:104E24001CD17510E97511027810121CD17510EAA5
:104E34007511027810121CD17406121AB2121CE8F1
:104E440079168508828509831251DC12090C7408CD
:104E5400121A7DE9F50B7003024D7F12543D801048
:104E64007C007D038508828509831251DC12056A62
:104E7400A90B7402025338E99400C365D03322EAC3
:104E840028F8E43400F9E822E0F5107511007810F0
:104E94002274EA121ABE74FC121A678A0C8B0D8CE7
:104EA400128D13EA2405F50AEB12543175080075C6
:104EB4000900E50A2402F510E50B3400F51174022B
:104EC400121AB285820E85830F780E121CD1850AC0
:104ED40082850B83A3A3A3A312597D121CD1E50AD7
:104EE4002405F50EE50B3400F50F780E121CD18560
:104EF40010828511831254371251D61207E67406B4
:104F0400121A7D8A0E8B0FAE0EAF0FE50C2402F53C
:104F14000EE50D3400F50F80408882898374FFF01C
:104F24000508124D3474FFF005089002E9E0F50C11
:104F3400750D00780C121CD17CEA7D0285080C7476
:104F440002250CFA74033400FB1211227402121AA3
:104F54007D9002E9E02508F508EE4F60718E828F9E
:104F640083A3A3A3E0F9850E82850F831251DC127B
:104F740007D4E9F509EE240412495FE97044E4F525
:104F840014F5157814121CD17514E97515027814EA
:104F9400121CD17514EA7515027814121CD1740808
:104FA400121AB2121CE87911EEFCEFFD850E82850F
:104FB4000F831251DC12090C7408121A7DE9F509E9
:104FC4006027850C82850D831250BD12544AE50872
:104FD40070030250A31250C7850E82850F831251AD
:104FE400DC12057079000250B8850882AA82EA9022
:104FF40002E97009E02404900301F08022E0F890B3
:105004000301E0F514E82404FCE43400FDEC651429
:105014007001ED70C0124E839412124E7B50B6850F
:105024000C82850D83E0C0E074022A124D3BD0E06F
:10503400F00508850C82850D83A3E0C0E0124D3491
:10504400D0E01250D985820C85830D780C121CD1C6
:105054007404121AB2121CE8851082851183125C42
:10506400A41207F27404121A7D8A0C8B0DAE0CAFD5
:105074000D85080C7402250CF874033400F9EE4F06
:105084007003024F1D851882851983E08882898305
:105094001250D9A3E0C0E0124D34D0E0024F2BE50A
:1050A40009700375090A850A82850B831250BD12A3
:1050B400544AA9097404024D2C125C93851282850A
:1050C400138322900301E0F5F0E50884900300F0D7
:1050D4007C007D0322F005088518828519832274DB
:1050E400EC121ABE74FE121A678A088B098C0E8D94
:1050F4000FEA2405FEEB3400FF851882851983AC82
:1051040082AD838E828F831251DC1207EC8A0A8B64
:105114000BEE241812495FEA450B70030251AD12DD
:10512400531F50328518828519831251DC120900ED
:105134008A108B11EA4511606B7912AC0AAD0B85AC
:1051440008828509831251DC851082851183121A25
:10515400BCE9F50A7058E4F50AF50B780A121CD17B
:105164008E828F83A3A3E0F50A780A121CD1EE2461
:105174000312542E780A121CD18E828F831251E6A8
:105184001209127406121A7DE9F50A7021850C823F
:10519400850D83E0701F8508828509831251DC1216
:1051A40005768011750A0E8009750A018004E50AE6
:1051B400600312543D850C82850D83E06004790000
:1051C4008002A90A7402121A7D7F0C021B907C00D3
:1051D4007D03850A82850B831251E022E0FAA3E065
:1051E400FB22E0FCA3E0FD8508828509831251E0DF
:1051F4002274EE121ABE74FE121A678A088B098C86
:105204000C8D0DEA2405FEEB3400FF750E008518A5
:1052140082851983AC82AD838E828F831251DC1216
:1052240007EC8A0A8B0BEA450B700302530B1253EB
:105234001F50358518828519831251DC1209008AA2
:105244000E8B0FEA450F605E7912AC0AAD0B850830
:10525400828509831251DC850E82850F83121ABC64
:10526400E9F50E600302530E850882850983125501
:1052740025AA0AFB1208F48A108B11A810A911E8B8
:1052840049701E7AFF7BFF1208F48A108B11A81054
:10529400A911E849606C88828983E50AF0A3E50BCB
:1052A400F0750A008007750E0E805F050A9002E60D
:1052B400E0FAE50AC39A504AE50A75F017A4FAAB76
:1052C400F088828983A3A3E02AFAA3E03BFB8A82C5
:1052D4008B83125437EC4D70D2750A17750B007816
:1052E4000A121CD1EEFCEFFD1211227402121A7D77
:1052F400EEFCEFFD8508828509831251DC12057CE2
:105304008014750E098003750E01125C8B850C8266
:10531400850D8312544AA90E024E76E5082402F53F
:1053240008E5093400F5098A828B83A3A3A3E0A2CC
:10533400E5227404121A7D7F0A021B9074EC121A7F
:10534400BE8C108D11EA2405F50CEB124962750F21
:1053540000EA2402F50AEB125431850A82F583121D
:1053640051DC1208F48A088B09EA450970030254D7
:1053740023750E008071850C82850D83E0640170B5
:105384004F8E828F83A3A3121CE88E828F83A3A3E4
:10539400A3A3E0F5127513007812121CD1EE2405B4
:1053A400F512EF3400F5137812121CD11251D612F3
:1053B40009127406121A7DE9F50F6014850C8285B2
:1053C4000D83E4F0125C8B85108285118312544A9C
:1053D4007C177D007900EEFAEFFB12113A8E828F72
:1053E40083E4F0A3F0050E9002E6E0F8E50EC3981E
:1053F400501EE50E75F017A4F8A9F08508828509FA
:1054040083A3A3125E18125437EC4D600302537A3F
:1054140085088285098374FFF0A3F0E50F700612F6
:1054240051D6120582A90F0251CDF50AEF3400F5C9
:105434000B22A3E0FCA3E0FD228E828F83125C93F7
:10544400850E82850F83E8F0A3E9F022C082C08331
:105454009002E2E06A7003A3E06B70067AE27B02DA
:1054640080047A007B0002473DC082C08378008CB0
:10547400828D83E06A7003A3E06B7010E875F0031B
:10548400A4F8A9F0EC28FAED39FB8015088C828D7C
:1054940083A3A3A3E06A7003A3E06B60DF7A007BBD
:1054A4000002473D74F6121ABE1208BE8A828B832C
:1054B400E582458370067A007B008007A3A3A3A33B
:1054C4001251DC025B3C74F2121ABEE9FE740E1235
:1054D4001AB21255257410121AB212599D8C828D6B
:1054E40083E064027036A3125C99F50CA3E0F9A87A
:1054F4000C74026870037429697021750C02750DAF
:1055040000780C121CD17808121CD1780A121CD114
:10551400EEF91209367406121A7D80027901025BD3
:10552400C0E0F50AA3E0F50B2274E8121ABE74FB7E
:10553400121A67E9851882851983F08A168B17EC8D
:10554400FEEDFF751000741D121AB2125C8F741DEB
:10555400121AB212544A8E828F83A3A3A3E0A2E448
:10556400502D741D121AB21251DC1209008A828B5A
:1055740083E5824583700302596E790AEEFCEFFDE0
:10558400AA16AB17121ABCE9F5106003025971741C
:105594001F121AB212599D7421121AB2125525748F
:1055A40023121AB2E0F50EA3E0F50F8E828F83E08A
:1055B4006402600302591CA3125C8F85088285096A
:1055C40083A3858212858313EE240612495F8882A1
:1055D4008983E0FAA3E0F9EA2400F514E439F51527
:1055E4007814121D5B0100002801281156070002DF
:1055F40028D6560328435600290D58012938580245
:1056040029D95703290D580429B7581C59E50E45C3
:105614000F6003025917850C82850D83125992FA83
:10562400E9FB8A828B83E0850A82850B831259C841
:10563400121CD18A828B83A3E0FCA3E00258A1E56B
:105644000E450F6003025917850A82850B83740186
:10565400F01259A5850882850983F07C007D008EAF
:10566400828F83A3A3A3A3E02401FAA3E03400FB65
:105674001207ECEA4B60418A828B83E02402F885AE
:105684000A82850B83E028F0EA2404F8EB3400F95D
:1056940088828983E08512828513831259DA12592C
:1056A400C8121CD18A828B83125436E5082403FA6B
:1056B400E5093400FB0258A6850A82850B83E024A1
:1056C40004F07C047D007900AA12AB1312113A0293
:1056D4005971E50E450F60030259171259A5FEA32F
:1056E400E0FF850A82850B837404F0EE85088285C9
:1056F4000983F0EF851282851383F07403121AB2C2
:10570400AC82AD83EEFAEFFB1207EC8A0C8B0DEA48
:10571400450D70030257BA8A828B83A3A31245E80E
:105724007401121AB285820E85830F780E121CD171
:105734007405121AB2121CE87CFF7DFF1207F27482
:1057440004121A7D8B0FEA450F7033850C82850D88
:105754008312597D121CD1850C82850D83A3121CE2
:10576400E87C027D007AA97B9012061E7404121A4A
:105774007DE9700A7401121AB274FFF0A3F08E82EC
:105784008F83E064027039750C02750D00780C1279
:105794001CD18E828F83125436E5082404FAE5095D
:1057A4003400FB1211227402121A7D850A82850BC1
:1057B40083E0240280097401121AB2EEF0A3EFF020
:1057C4007401121AB212598EF07401121AB2A31291
:1057D4005986025911E50E450F6003025917850CCD
:1057E40082850D83125437AA16AB1712092A850A2B
:1057F40082850B837402F0EA850882850983F0852B
:105804001282851383EB025914E50E450F600302DF
:1058140059171259A5F8A3E0F9850A82850B8374F8
:1058240002F0E8850882850983F0E98512828513F0
:1058340083025914850C82850D831251DC12111CCC
:10584400EAFC8C82A882C3950EE4950F405FE8655C
:105854000E7002E50F70047C008022851882851981
:1058640083E0FAE50E2AFAE50F3400FBC3EA98EB6D
:1058740094005003E08005E50ECCC39CFCEC850A43
:1058840082850B83F08C0A750B00780A121CD18573
:105894000C82850D83E0250EFCA3E0350FFDAA08DC
:1058A400AB091211227402121A7D02597175100784
:1058B400025971E50E450F705A850C82850D8312CD
:1058C4005C8F850A82850B8374071245F41259860E
:1058D4001245F4A3E0851282851383F0E82402FACA
:1058E400E93400FB8A828B831259861259B5125906
:1058F4008EA31259BE125997F0E82405F8E9340032
:10590400F988828983125997A31259DAA3A3A3A30E
:10591400F0805A75100B8055741D121AB21251DCA6
:105924001208BE8A828B83E5824583603D125C8FB8
:10593400880C890DE8450D6031780E121CD1780A67
:10594400121CD17808121CD17406121AB2E0F9EEB6
:10595400FCEFFDAA16AB17850C82850D83121ABCC9
:105964007406121A7DE9F510800375100EA91074DF
:1059740005121A7D7F10021B90E0F50E750F00785A
:105984000E22E0850882850983221259E422125CE2
:1059940093E8221259E4A3A322E0F508A3E0F50951
:1059A40022850C82850D83E0F8A3E0F5838882E0EC
:1059B40022A3A3F08A828B83A322F088828983A303
:1059C400A3A3A322F08A828B831259D122E0F50A81
:1059D400750B00780A22F088828983A31259E42285
:1059E400E0850882850983A3A32274EE121ABE748B
:1059F400FE121A678A0A8B0BECFAEDFB7414121A66
:105A0400B2E0F510A3E0F5117416121AB2E0FE74B8
:105A140018121AB2E0F50EA3E0F50F851882851965
:105A240083AC82AD831207EC8A0C8B0DEA450D60C2
:105A3400498518828519831251DC1208BE8A828B2B
:105A440083E5824583602FA3A312599DE508450988
:105A54006024780E121CD17810121CD1EEF9AC0C13
:105A6400AD0DAA0AAB0B850882850983121ABC7492
:105A740004121A7D8006790E80027901024E767432
:105A8400F6121ABE74FE121A67740C121AB2125964
:105A940092851882851983F07401121AB2E9F0E430
:105AA400F508F5097808121CD17508027808121C4B
:105AB400D17404121AB28582088583097808121CED
:105AC400D11209127406121A7D7402121A7D8068AA
:105AD40074F7121ABEEAFEEBFF89087C197D0312E3
:105AE400092AEA5402600BA908EEFAEFFB1207E058
:105AF400800279010244F074F6121ABE74FF6A70CF
:105B04000374FF6B70168C828D83125B41E4F08CFE
:105B1400828D83A3A3A3125B41A380181208FA8A7F
:105B2400088B09A808A909E849600D88828983744B
