:020000040000FA
:0600000002010A0221B01A
:03002B0002262585
:030033000226079B
:03003B0002264654
:030043000225BBD8
:0300530002222660
:03006B000225E18A
:1000830002205FE5C754F84401F5C7790122000057
:100093000080FB120086B900030200F4E4792178A2
:1000A30008B800028004F709D8FCE479297802B87B
:1000B30000028004F709D8FCE4900281782B790CC4
:1000C3008002F0A3D8FCD9FA900DABAA82AB83903F
:1000D300013A780779058015E493A3AC82AD838A4E
:1000E300828B83F0A3AA82AB838C828D83D8E9D9D8
:1000F300E775820F7583BB740312011C75829175BA
:100103008300740012011C75D00075813F7518813E
:10011300751902759F00020096C09FF59FE473D086
:100123009F22D083D082C09FE493C0E0740193C028
:10013300E0740293F59F22FF0000B400002800281A
:1001430000283075A000A000A000A000000800084F
:10015300E001F0001000100010001000100010006B
:1001630050005000500010001000D00700000000A5
:1001730000000F00010005003075070010000100AA
:1001830081FF00000000FF3E075C074407FF0202F7
:100193000208025000A0000000E80302DD90010005
:1001A30000909002AF90010000020E029B900100AC
:1001B30000B30202AF90010000030E029990010008
:1001C30000C90202AF90010000040E02A1900100D9
:1001D30000CB0202AF90010000050E02C19008009F
:1001E30000CC0202AF90010000060E02AD900100A8
:1001F30000070EFF0100FF2002DD90010000939035
:1002030002AF900100006B0E02AB900000000000F3
:10021300029D9003000019036E0D6E0D6E0D6E0DA1
:100223006E0D6E0D6E0D6E0D6E0D6E0D6E0D6E0DF3
:100233006E0D44105C103E10FFFF0200E2FF02004F
:10024300E7FF0200F3FF0200F3FFFAFF07000300DA
:10025300F9FFFBFF07000400F7FF07000300090095
:1002630003000A000E0005000D0005000E00020247
:1002730002020202020202010D000000100102DD6F
:1002830090010000969002AF90010000E20E02C3BD
:1002930090010000920702AF90010000E30E02BF3D
:1002A300900100006B8F02AF90010000E40E02BDCD
:1002B300900100005D8F02AF90010000E50E02BBCC
:1002C30090010000CB8E02AF90010000E60E02B950
:1002D30090010000B98E02AF90010000E70E02B753
:1002E30090010000DD8E02AF90010000E80E02B520
:1002F30090010000958E02AF90010000E90E02B359
:10030300900100004F8F02AF90010000EA0E02B18E
:1003130090010000EB0E01E803053F100AFF000106
:100323003075030201060000000000000000000019
:1003330000000000000000000000000000000000BA
:100343000000FFFF0600800CE80384030F0013097D
:100353004F666669636577656C6C20233030303097
:100363003132051208000800020A000201060302E6
:10037300F1FF53696D706C6520424C4520506572E6
:100383006970686572616C7815000084150A4861AC
:1003930072647761726520496E666F726D6174690C
:1003A3006F6E000A507265736574204865696768EB
:1003B30074000A506F7374757265204A75646765BB
:1003C3006D656E74000A416374696F6E2052616ECD
:1003D30067650008436F6E74726F6C20436F6D6DB9
:1003E300616E6400125065736B205374617475738E
:1003F300000A4C6F636B2053746174757300025071
:100403006F77657275702054696D657374616D7073
:100413000000104865616C74682044617461000ACF
:100423004175746F6D61746963204D6F7665204407
:10043300617461000002DD90010000B98F02AF908A
:10044300010000011002CB900300006A0D029F908F
:10045300010000021002AF90010000171002CD90BE
:100463000300006E0D029F90010000181002AF9070
:10047300010000261002CF90030000760D029F902A
:10048300010000271002AF90010000391002D19043
:10049300030000780D029F900100003A1002AF9014
:1004A300010000471002D3900200007C0D029F90D0
:1004B300010000481002AF90010000581002D590CF
:1004C3000100007D0D029D90030000810D029F90AD
:1004D300010000591002AF90010000651002D7908F
:1004E300030000870D029F90010000661002AF9089
:1004F300010000721002D9900100008C0D029F9040
:10050300010000731002AF90010000861002DB901F
:10051300000000900D029D90030000A00D029F902B
:10052300010000871002AF90010000931002C790F2
:10053300030000A60D029F900100009410120125F4
:10054300C0AA03120125D7AA0312012508AB03127F
:10055300012543AB031201256DAB0312012597ABB4
:1005630003120125AEAB03120125C5AB031201250E
:10057300DCAB0312012505AC0312012518AC0312F1
:1005830001252EAC0312012541AC0312012568ACF1
:100593000312012538A5021201253CA602120125EA
:1005A30074A60212012597A602120125A2A6021221
:1005B3000125C5A602120125D4A702120125A9A867
:1005C3000212012524A902120125ACA90212012558
:1005D300E7A9021201251EAA02120125ACAA0212E2
:1005E300012585AB02120125E5AB02120125F0AB13
:1005F300021201256FAC0212012572AC0212012511
:1006030075AC0212012504AD0212012507AD0212D9
:10061300012537AD0212012561AD021201254FAE4E
:100623000212012501AF02120125C3840312012521
:10063300EB8403120125198503120125508503124A
:100643000125AE8503120125F98503120125448690
:1006530003120125848603120125CA86031201258C
:10066300F88603120125B58703120125BF870312FC
:100673000125CC8703120125FF8703120125CB88AF
:1006830003120125D78803120125EF8803120125E0
:10069300F98803120125B2B603120125C0B603126D
:1006A3000125D8B603120125F0B60312012571C442
:1006B300011201251DC50112012598C5011201254D
:1006C300B9C601120125F5C6011201259EC7011203
:1006D300012585C801120125E9C90112012540CA76
:1006E30001120125C1CA01120125B1CB0112012555
:1006F300FECB0112012584CC01120125B6CC0112D7
:100703000125CACE011201250CCF011201252ACFE2
:1007130001120125ADCF0112012581D0011201255E
:1007230049D1011201253DE40212012510E502120F
:100733000125B9E5021201250CE602120125BCE6EA
:100743000212012548E70212012534E802120125AD
:1007530063E80212012576E902120125BEE90212BD
:10076300012593EA02120125CFEA02120125EBEAE1
:10077300021201256CB9031201253FFC0212012567
:1007830055FC021201257BFC0212012597FD021282
:100793000125A1FD02120125D6FE02120125CEFF7D
:1007A3000212012518F70212012548F80212012549
:1007B3007BF802120125C5F8021201258CFA0212F8
:1007C300012582B401120125ECB4011201254BB6B7
:1007D300011201255BB60112012588B6011201251C
:1007E300DFB60112012588B7011201258FB8011266
:1007F300012559B901120125B9BA01120125FCBA23
:1008030001120125A1BB01120125EEBB0112012535
:1008130014BC0112012522BE0112012527BE0112BB
:1008230001252CC00112012579C001120125ECC05C
:10083300011201251FC101120125C1C101120125A8
:100843006AC201120125A2C201120125A5C2011229
:100853000125EDC2011201252DC30112012584C317
:100863000112012516A0031201252EA00312012552
:1008730076A0031201258CA003120125D3A0031235
:100883000125E7A10312012574A203120125BFA2CA
:1008930003120125B82600120125C42600120125E2
:1008A300FF26001201254427001201250428001207
:1008B30001258A2800120125EF28001201251B2992
:1008C30000120125542900120125922B0012012543
:1008D300762D001201255C2F001201259F30001296
:1008E3000125ED3200120125FF33001201254A359F
:1008F300001201255A360012012577360012012510
:10090300B23600120125D436001201253737001202
:100913000125F83B001201258D3C00120125DE3C28
:1009230000120125053D00120125573D0012012546
:10093300753D00120125CF3D00120125B83E00127E
:1009430001252E4000120125B240001201258089A5
:10095300031201258A8903120125CD89031201257A
:10096300E88903120125788A03120125A08A03125C
:100973000125DD8A03120125148B031201253D8B0A
:1009830003120125B28B03120125C78B0312012524
:10099300DC8B031201250D8C03120125218C03121C
:1009A3000125468C03120125808C03120125AC8C92
:1009B30003120125388D03120125638D03120125CE
:1009C300AC8D03120125D68D03120125018E03126E
:1009D300012596B203120125378D02120125658D7B
:1009E30002120125B38E02120125938F02120125F3
:1009F300B28F021201252F9002120125729002126A
:100A03000125C89102120125899202120125109530
:100A130002120125B19502120125A79602120125A2
:100A2300A49702120125FE98021201258999021248
:100A330001253BB103120125A4B103120125F8B12D
:100A4300031201251FB20312012550B2031201251F
:100A5300298E03120125968E03120125DD8E0312C2
:100A63000125F58F03120125F19003120125D4917D
:100A73000312012518CC021201255ACC02120125BA
:100A83002CCD0212012505CE02120125FFCE021242
:100A93000125E1CF021201254AD00212012500D11E
:100AA3000212012574D102120125E0D1021201259F
:100AB30009D20212012583D2021201251CD302128C
:100AC300012581D30212012596D302120125DCD31D
:100AD30002120125F5D3021201255AD4021201256F
:100AE3005DD4021201251D9D03120125459D0312AC
:100AF3000125839D03120125419E03120125A89E12
:100B030003120125C49E03120125EC9E0312012545
:100B13001C9F031201252B9F03120125A89F03127B
:100B23000125CE9F031201257AA40112012518A6DF
:100B33000112012533A8011201256FA80112012515
:100B43009CA80112012581A901120125C8A901123E
:100B530001250CAA011201251EAA011201255EAA74
:100B6300011201258BAA01120125D6AA0112012522
:100B730016AB0112012544AB0112012596AB0112FC
:100B8300012526AC01120125C4AE01120125DAB0FC
:100B93000112012518B101120125A9B20112012583
:100BA300EEB20112012565B301120125AFB30112A3
:100BB300012557B4011201253CB902120125BBB925
:100BC300021201257DBF021201258CC002120125EC
:100BD300F4C1021201258BC202120125E190011218
:100BE30001252A91011201255791011201258A91AC
:100BF30001120125979101120125A39101120125EB
:100C0300B591011201259C9201120125FA9201125C
:100C130001252F9301120125729401120125BF941E
:100C230001120125E39401120125509501120125BA
:100C33000E9601120125C796011201253497011260
:100C43000125E69701120125F697011201257D98EA
:100C5300011201253C99011201256999011201250F
:100C6300E299011201253F9A01120125899A011285
:100C730001251F9B01120125EA9B011201259F9C5F
:100C830001120125149D01120125759D01120125F3
:100C9300DF9D01120125189E01120125BA9E011242
:100CA3000125CA9F011201250AA00112012527A0CF
:100CB3000112012546A0011201258DA00112012573
:100CC300B2A001120125DFA00112012559A10112D1
:100CD30001259AA101120125BEA2011201256EA3CD
:100CE30001120125C5A3011201252FA4011201251B
:100CF30048A40112012572AF02120125C5AF0212E9
:100D03000125D1AF02120125A6B002120125CDB0F3
:100D13000212012508B10212012574B10212012544
:100D2300B0B102120125E9B10212012501B202128A
:100D3300012556B2021201256FB202120125B8B283
:100D430002120125CBB202120125E5B202120125DE
:100D5300FBB2021201252EB40212012575B502124F
:100D6300012577B60212012571B702120125F6FF9C
:100D73000212012500800212012530800212012592
:100D8300F883021201254F850212012518860212EB
:100D93000125988702120125698802120125A68878
:100DA30002120125C98802120125078902120125B1
:100DB3001089021201255A8902120125648902123F
:100DC30001250E8A02120125E78A021201253B8BB7
:100DD300021201259D8B02120125F08B02120125BF
:100DE3001F8C021201255C8C02120125C76D0012B3
:100DF30001252E7100120125347100120125B676EA
:100E0300001201252F7B00120125057F0012012509
:100E1300BE96031201253497031201254A97031244
:100E230001258B9703120125C597031201253E98CF
:100E330003120125799803120125EC980312012569
:100E43002A99031201253399031201253F990312AD
:100E530001255B99031201258699031201259C99AB
:100E630003120125E09903120125008003120125D5
:100E73001380031201252D800312012556800312CE
:100E83000125998003120125D880031201251681BB
:100E9300031201257B810312012590810312012591
:100EA3009B8103120125A88103120125BF8103122F
:100EB3000125CD8103120125D88103120125E48187
:100EC30003120125F7810312012502820312012572
:100ED300258203120125CC8203120125DC82031231
:100EE3000125F682031201251383031201252F83A3
:100EF300031201255483031201255F830312012585
:100F0300748303120125888303120125E9830312E5
:100F13000125EF8303120125F58303120125FB83CA
:100F230003120125138403120125468403120125AC
:100F3300D3E10112012557E20112012506E3011253
:100F4300012565E40112012586E60112012572E7F8
:100F530001120125A7E701120125C9E701120125A5
:100F630078E80112012570EA0112012599EA0112BC
:100F730001252BEB011201255DEB011201256AEB23
:100F830001120125C1EB01120125E7EB0112012535
:100F930054EE0112012557EF01120125AFEF0112A3
:100FA300012562D3011201256CD40112012553D509
:100FB300011201255DD5011201257FD501120125FD
:100FC3008BD50112012524D70112012553D7011214
:100FD30001256FD801120125C8D8011201252EDA87
:100FE300011201250DDB0112012569DB0112012527
:100FF300D6DB0112012511DC0112012550DC01129F
:10100300012509DF0112012523DF01120125AFDFCD
:1010130001120125BDDF0112012516E00112012590
:1010230024E00112012597E001120125FBE00112E2
:10103300012545E1011201250A9A021201252C9A84
:1010430002120125529C02120125679F02120125FB
:101053007FA00212012532A10212012514A202125D
:1010630001257AAC031201259FAC0312012511ADB2
:1010730003120125C3DC02120125CCDC0212012577
:10108300D5DC02120125ACDD021201255DDF02125F
:10109300012593DF02120125CDDF0212012503E0B2
:1010A300021201253DE00212012571E00212012521
:1010B3009DE002120125E6E00212012520E1021261
:1010C300012569E102120125C1E102120125F6E1C0
:1010D3000212012551E2021201258BE202120125BF
:1010E300DCE20212012512E3021201254CE3021293
:1010F30001257AE3021201259DE302120125547FA3
:1011030000120125807F00120125DB7F00120125DB
:10111300E57F00120125F57F0012012597F10212E8
:101123000125A1F102120125DFF10212012528F2A6
:101133000212012562F202120125BCF202120125FC
:10114300DDF202120125E6F20212012533F3021247
:1011530001255CF30212012566F302120125D2F385
:101163000212012564F402120125AEF402120125D4
:10117300E4F40212012570F502120125B1F5021201
:101183000125E8F502120125FAF50212012519F6E7
:101193000212012522F602120125EAF602120125A6
:1011A300AFB303120125A6B403120125FCFD0112FE
:1011B300012532FE0112012568FE01120125B3FF4C
:1011C30001120125F0B90312012506BA0312012504
:1011D30010BA031201255ABA03120125969203127B
:1011E3000125AB92031201255E93031201259E9301
:1011F30003120125B79303120125F293031201256C
:101203003F9403120125719403120125B394031231
:101213000125BBB503120125E4B50312012513B65D
:10122300031201252BB6031201256DB60312012506
:101233001941001201256B41001201251D420012C4
:101243000125164300120125D74300120125E1446D
:1012530000120125B94500120125D84500120125C8
:1012630070460012012561470012012571470012E3
:101273000125BA4700120125CA4800120125204D55
:1012830000120125CC4D00120125914E00120125BB
:10129300EB4E00120125214F00120125A54F00122C
:1012A3000125315000120125A150001201250851DA
:1012B300001201252051001201254D510012012574
:1012C3007751001201257F52001201254B54001261
:1012D3000125C855001201251657001201252E5865
:1012E30000120125E9A2031201250EA30312012511
:1012F30038A303120125B9BA03120125315800128C
:101303000125965A00120125375C00120125EB5C7A
:10131300001201257E5D00120125035E00120125E6
:10132300285E001201257E6100120125046200126D
:101333000125376300120125716300120125A6639D
:1013430000120125666500120125C36500120125FF
:101353000C6600120125776600120125E86600126B
:1013630001251A67001201253267001201257B68E7
:10137300001201258B6800120125A66900120125C0
:10138300C86900120125FE6900120125B26B001223
:1013930001253F6C001201257E6C00120125A26D10
:1013A3000012012589B7031201259AB703120125FB
:1013B30062BB03120125A1BB03120125EDFF01123C
:1013C30001253FB8031201254FB80312012567B861
:1013D30003120125CDB803120125B7B40312012569
:1013E3003CB503120125A2B503120125C1AF0312B7
:1013F3000125EAAF0312012555B003120125A6B05A
:101403000312012501B103120125B5A5031201251C
:10141300CAA503120125E6A6031201255AA7031242
:10142300012574A7031201258BA7031201259EA78B
:1014330003120125B8A703120125CFA70312012523
:10144300F5A70312012546A803120125D7BB0312F2
:101453000125109A03120125A09A03120125109B5E
:1014630003120125A19B03120125AA9B0312012547
:10147300289C031201253B9C03120125A79C031200
:101483000125079D031201251A9D03120125D7B8D3
:101493000312012546B90312012551B9031201258F
:1014A30061B9031201251FAE0312012571AE0312A8
:1014B3000125FBAE0312012562AF031201257BA8B0
:1014C30003120125A5A80312012573A903120125FF
:1014D3004EAA0312012581D40212012548D5021216
:1014E30001257FD502120125A9D50212012509D6AE
:1014F300021201255FD602120125C4D6021201256C
:101503005CD7021201256BD80212012502DA0212FE
:1015130001258FDA02120125F6DA021201250DDB0D
:101523000212012527DC0212012565DC02120125C6
:10153300FDEF011201257EF30112012506F50112CB
:1015430001255DF5011201257CF501120125FAF54E
:101553000112012590F70112012575F801120125E9
:1015630083FC0112012559FD01120125B5C20212A6
:10157300012548C6021201251BC7021201254FC8C7
:101583000212012506CA021201257DCB0212012592
:1015930004CC0212012560EB02120125B0EB02120A
:1015A3000125CDEB0212012564ED0212012500EEA7
:1015B30002120125FCEE021201255EF10212012541
:1015C300ABBB03120125D8FF02E066701008A3E04D
:1015D30066700A08A3E066700408A3E06622C3E706
:1015E300960809E7960809E7960809E79622C3E0F3
:1015F3009608A3E09608A3E09608A3E09622C00805
:10160300C3E096F50808A3E096420808A3E09642D3
:101613000808A3E09645087001D3D00822080808FB
:10162300EAC0E0EBC0E086F0E7A4FA180986F0E729
:10163300A42AFA180986F0E7A42AFA180986F0E71B
:10164300A42AFA1986F0E7A4FBE5F02AFA1908861A
:10165300F0E7A42BFBE5F03AFA190886F0E7A42B90
:10166300FBE5F03AFA18180986F0E7A4C5F02BFB5E
:10167300E43AFA1908E7C5F0C6A426F6E5F03BFB01
:10168300E43AFA1886F0E7A4F6E5F00826F6E43B18
:1016930008F6E43A08F6D0E0FBD0E0FA2260160838
:1016A3000808C6C313C618C613C618C613C618C679
:1016B30013C6D5E0EA227009080808226016181834
:1016C30018C6C333C608C633C608C633C608C633EE
:1016D300C6D5E0EA22E627F60809E637F60809E662
:1016E30037F60809E637F622E026F608A3E036F6D1
:1016F30008A3E036F608A3E036F622E026F008A3B6
:10170300E036F008A3E036F008A3E036F022C3E6A3
:1017130097F60809E697F60809E697F60809E697A3
:10172300F622C3E096F008A3E096F008A3E096F053
:1017330008A3E096F022E056F608A3E056F608A3C5
:10174300E056F608A3E056F622E056F008A3E0566A
:10175300F008A3E056F008A3E056F022E647F608A7
:1017630009E647F60809E647F60809E647F622E0E0
:10177300F608A3E0F608A3E0F608A3E0F622E6F0F5
:1017830008A3E6F008A3E6F008A3E6F022E0FAA334
:10179300E0FBA3E0FCA3E0FD22EAF0A3EBF0A3EC63
:1017A300F0A3EDF022CAC0E0E6F0A308DAFAD0E035
:1017B300FA22CAC0E0E0A3C582CCC582C583CDC5E9
:1017C30083F0A3C582CCC582C583CDC583DAE6D0B9
:1017D300E0CA22C3E498F8E499F91218178026C3E3
:1017E300E49AFAE49BFBE920E7E9121817E498F876
:1017F300E499F922C3E498F8E499F9121817E498E4
:10180300F8E499F9C3E49AFAE49BFB22EB20E7CFCF
:10181300E920E7E0B90010BB0008E88AF084F8AAE1
:10182300F022E4FBC8FA22EB70227B10C833C8C94C
:1018330033C9335007C39AC3DBF280069A50012A97
:10184300DBEAC833F4C8C933F4C9FA2275F008E4F3
:10185300C833C8C933C933C99AC99B5004C92AC9F3
:101863003BD5F0ECFBC833F4C8E4C9FA22600D0899
:10187300C6A2E713C618C613C6D5E0F322600C0848
:10188300C6C313C618C613C6D5E0F422700422607B
:101893000D18C6C333C608C633C6D5E0F4182225CF
:1018A3001810AF08F518400215198008F518400202
:1018B3001519D2AF22C0D0251810AF08F518500261
:1018C30005198008F51850020519D2AFD0D022258A
:1018D30018F58210AF08F518400215198008F5189D
:1018E30040021519D2AF851983222518F582E435F4
:1018F30019F58322E4732518C582C0E0E51934FF86
:10190300C583C0E0E518C3958224F810AF0885832A
:10191300198582188008858319858218D2AFCEF085
:10192300A3E520F0A37808E608F0A3DEFAEFF0A31E
:10193300E58124FAF8E608F0A3E608F0A3E608F048
:10194300A30808E608F0A3E608F0A315811581D0E3
:10195300E0FED0E0F8158115811581E8C0E0EEC006
:10196300E0222518C582C0E0E51934FFC583C0E035
:10197300E518C3958224F910AF0885831985821869
:101983008008858319858218D2AFCEF0A3E520F0B5
:10199300A37808E608F0A3DEFAEFF0A3E58124FBC1
:1019A300F8E608F0A3E608F0A30808E608F0A3E6C3
:1019B30008F0A315811581D0E0FED0E0F81581155C
:1019C30081E8C0E0EEC0E022851983851882E0A398
:1019D300FEE0A3F5207808E0A3F608DFFAE0A3FF12
:1019E300E0A3C0E0E0A3C0E0E0A3C0E0E0A3C0E068
:1019F300E0A3C0E010AF08858218858319800885AD
:101A03008218858319D2AFD083D08202012285192F
:101A130083851882E0A3FEE0A3F5207808E0A3F60F
:101A230008DFFAE0A3FFE0A3C0E0E0A3C0E0E0A387
:101A3300C0E0E0A3C0E010AF088582188583198059
:101A430008858218858319D2AFD083D08222C0D073
:101A53002518C582C0E0E51934FFC583C0E0E51849
:101A6300C3958224F310AF088583198582188008F3
:101A7300858319858218D2AFC8F0A3E9F0A3EAF0F1
:101A8300A3EBF0A37908E709F0A3D8FAECF0A3EDF0
:101A9300F0A3EEF0A3EFF0A3D0E0F0A3D0E0F0A327
:101AA300D0E0F0A3E520F0A3E5F0F0A322851983AD
:101AB300851882E0C0E0A3E0F9A3E0FAA3E0FBA36A
:101AC3007808E0F608A3DFFAE0FCA3E0FDA3E0FE5C
:101AD300A3E0FFA3E0C0E0A3E0C0E0A3E0F5D0A350
:101AE300E0F520A3E0A3F5F010AF08858319858204
:101AF300188008858319858218D2AFD082D083D00D
:101B0300E0F8D0E03274048006740280027401C0ED
:101B1300E0F4041218D2D0E01217A822740480044F
:101B230074028000CCC0E0EDC0E0E518C39CCCADEE
:101B33001950011D10AF068C188D1980068C188D55
:101B430019D2AF1217B5D0E0FDD0E0FC22D083D07C
:101B530082E9C0E0E493A3C386F0C5F095F0F908E9
:101B6300E493A386F0C5F095F0700BE493A3C399B7
:101B73004005E9048002A3E475F002A42582F582FE
:101B8300E5F03583F583D0E0F9E493A3C0E0E49373
:101B9300C0E022D083D082ECC0E0EDC0E0E493A3A8
:101BA300FCE493A3FDED4C600D121BE2EC24FFFC5F
:101BB300ED34FFFD80EFE493A3FCE493A3FDED4C30
:101BC300600D121C21EC24FFFCED34FFFD80EFD0EF
:101BD300E0FDD0E0FCE493A3C0E0E493C0E022C0C6
:101BE300E0C3E49396087401939618400FE4936658
:101BF300700808740193661870007019A3A3C3E4F6
:101C03009396087401939618A3A3400DD0E0D0E0F7
:101C1300D0E0021BD2A3A3A3A3A3A3D0E022C0E0DE
:101C2300C0F088F0E4936670080874019366187036
:101C330000A8F0A3A3700BD0F0D0E0D0E0D0E00276
:101C43001BD2A3A3D0F0D0E02274F5121965EAFEEB
:101C5300EBFFEE2434F8EF3400F988088909EE2409
:101C630035121D78F8EE2437121D78F50AEC850A33
:101C7300F0A4FCAAF0850AF0EDA42AFDE82CF8E410
:101C83003DF97A257B00121817EA850882850983B6
:101C9300F074075AF87401B800028004C333D8FC07
:101CA300FBEA131313541FF8EE28F8EF3400F9E896
:101CB300245DF582E9121D7B5B6003EA801CEE2440
:101CC30036121D78F5F0EA84A8F0EE28F8EF340018
:101CD300F9E82438F582E9121D7BF97F04021A1111
:101CE30074F5121965EAFEEBFFEE2434121D78C079
:101CF300E0EE2435F582EF3400F583D0E0F08E82F8
:101D03008F83A3A3A3A3A3E0FAA3E0FB8E828F8315
:101D1300A3A3A3A3A3A3A3E0FCA3E0FDECC39AF5B1
:101D23000AED9BF50BEE247FF508EF3400F50985EA
:101D33000882F583E06401702BEE2480F582EF3492
:101D430000F583121B23121D8174021218B8E96077
:101D5300137CDC7D04EEFAEFFB120C96850882857A
:101D63000983E4F0AC0AAD0BEEFAEFFB121C4C1244
:101D730025A7021CDEF582EF3400F583E022C08242
:101D8300C083851882851983E0F8A3E0F9C3EA9C30
:101D9300EB9D5010C3EC98ED99401BC3EA98EB9967
:101DA3005014800EC3EA98EB994007C3EC98ED9961
:101DB3004004790180027900D083D08222EAC39C57
:101DC300FAEB9DFB2274ED1219659003A2E06408FF
:101DD3006005E06407702C9061C8E060269003D032
:101DE300E0F874FF68601CE875F003A4C8AAF02A41
:101DF300F974D228FE740339FF8E828F83A3A3A3C1
:101E0300E070057900021F68EE2468F510EF3400D6
:101E1300F511906060E0851082851183F0750A45A5
:101E2300750B05750800750900E5D914F50EE5D99C
:101E33005403F50F601CEE2482F50CEF3400F50D0E
:101E43007403650F6058E50E6013EE2467121D7866
:101E5300700B793DEEFAEFFB120CBA80A6900540A9
:101E6300E064016026850C82850D83E060047804BC
:101E730080027800850E08E508C398FA95E0FB1206
:101E83000B3A8A088B09EA45097006120F12021EE3
:101E930006850C82850D83E070048A0A8B0B78001B
:101EA3008016E5D9C0E08812E50A2512F582E50B14
:101EB3003400F583D0E0F008E8C3950E40E4850CC8
:101EC30082850D83E0602874FC250EF50E780A12D6
:101ED3001B0CAC0EA90FEEFAEFFB120D6874021285
:101EE30018B8E9700AAA08AB091214AC021E55749B
:101EF30003650F6058850E0C750D00780C121B0CD2
:101F0300AC0AAD0BAA08AB09120D2C74021218B857
:101F1300851082851183E0F87480687005750C7FE5
:101F23008002880CE50CF50A780A121B10E50FF500
:101F33000A780A121B10A90EAC08AD099003D0E071
:101F4300FA7B001209D274021218B880139003A20C
:101F5300E06408600BAC0AAD0BEEFAEFFB120DFE6A
:101F6300120F1E79017F0C021A1174F31219657492
:101F7300FC1218A2EAFEEBFF8908A2AFE433F509CD
:101F8300C2AFEE2463F50AEF3400F50B8010AA0A02
:101F9300AB0B120CE41214AC9004E3E004F0850ADA
:101FA30082850B83E0F8A3E0F9E849602FE8240277
:101FB300FAE93400FBEA2402F50CEB3400F50D7862
:101FC3000C121B0C8A828B83E0FCA3E0F9EEFAEF80
:101FD300FB120CD874021218B8E960B29004E3E063
:101FE30060579004E4E0F89004E3E0C398500C7465
:101FF30002650870449004E5E0603E8E828F83A3FF
:10200300A3A3A3E085188285198312204C740212BE
:1020130018EDE812204C9004E2E028F07402121844
:10202300EDAC82AD83851882851983AA82AB83794F
:10203300011209DE9004E3E4F0E509A2E092AF7433
:10204300041218B87F06021A11F0A3E4F09004E317
:10205300E0F82200008521878522C622C0E074EFC4
:10206300121A51A2AFE433FEC2AF759B0090618296
:10207300E0A2E05012E591A2E0500C7591FE7401CC
:1020830065217003121DC8E0A2E55051E591A2E558
:10209300504B7591DF9003A2E064076005E064088C
:1020A300702374016521703579019003D0E0FA75CE
:1020B300F003A4CAA8F028FB74D22AFA74033BFBEA
:1020C300121F6D8018E0640D70139003C4E004F0D8
:1020D30064287002E4F07A00E0F9120F2490618220
:1020E300E0A2E64003022186E591A2E64003022135
:1020F300867591BF9003A2E064057008120E40122A
:102103000E4C8003120E46752100120EB2E99003A5
:10211300A3F07900120EA6120C007A017B00900343
:10212300A1E0F9121176907803E0644270559005AE
:1021330044E014F0704DC2AF12213E00782AD0E083
:10214300F618D0E0F6E59F540770057509FF800384
:1021530075097FC4C0E07829E6F50808E65509F556
:1021630009740B7808121880D0E02508F890627083
:10217300E0A2E740F8E8C333906272F0906270E047
:10218300D2E0F0906181E0A2E35009E5E9A2E350D7
:102193000375E9F7A3E0A2E75009E591A2E750032D
:1021A30075917FEEA2E092AF7F04021AB0C0E0C047
:1021B300D0C082C083906183E0A2E05009E5BFA252
:1021C300E0500375BFFEE0A2E15009E5BFA2E15074
:1021D3000375BFFDE0A2E25009E5BFA2E25003751B
:1021E300BFFBE0A2E35009E5BFA2E3500375BFF7CD
:1021F300E0A2E45009E5BFA2E4500375BFEFE0A2FB
:10220300E55009E5BFA2E5500375BFDFE0A2E65044
:1022130009E5BFA2E6500375BFBFD083D082D0D0FB
:10222300D0E032C0E074F2121A51E5A7A2E4500FD5
:10223300E5A1A2E4500953A7EF75A1EF12227AE5B5
:10224300A7A2E5500CE5A1A2E5500653A7DF75A1AF
:10225300DFE5A7A2E15009E5A1A2E1500375A1FDC5
:10226300E5A7A2E2500CE5A1A2E2500653A7FB7535
:10227300A1FB7F01021AB074F81219657521019050
:1022830003A2E0640670077A007B00120E28A2AF57
:10229300E433FED2AF9003A8E0640170187A207B88
:1022A300009003A1E0F91212007A207B009003A1B1
:1022B300E0F912117C906182E0D2E6F0900541E0F2
:1022C300602185C62280169003A7E064017008E5AB
:1022D300C654F84405F5C653BEFC12205874016574
:1022E3002160E4EEA2E092AF7F01021A118E238FE8
:1022F30024858228858327851882851983E0CEA3C8
:10230300E0CF852882852783EBC9EAC8EDCBECCAE9
:1023130075F010C3E833C8E933C9EA33CAEB33CBEA
:10232300C3EA9EF526EB9FF525B35004AB25AA26F9
:10233300EC33CCED33CDD5F0DAAE23AF242274F1F8
:102343001219658A088B098C0A8D0B9090487808BE
:10235300121739740F1218ED780C121772909048F7
:10236300780C1217397808790C1215E190903450D3
:10237300107808790C12171178081216014014808E
:102383000E780C7908121711780C12160150047983
:1023930001800279007F08021A1174ED1219658A0F
:1023A300088B098C0A8D0B909048780812173974A2
:1023B300131218ED780C121772909048780C1217BC
:1023C30039780C79081215E140117808790C121745
:1023D30011AA08AB09AC0AAD0B8022751000751168
:1023E300007512007513017810790C12171178100B
:1023F30079081216D8AA10AB11AC12AD137F0C02D8
:102403001A1190904878081217728A828B83780881
:1024130012174C7F04021A1174F51219658C828D00
:102423008378081217728A828B8378081217251211
:10243300246FC3E098F0A3E099122461401E9090AA
:102443006878081217728A828B8378081216FE8EB8
:10245300828F83E02420F0A3E0344EF080A4F08E3A
:10246300828F83C3E09420A3E0944E22EA2404F8ED
:10247300EB3400F9E8FEE9FF8C828D83A3A3A3A3C9
:10248300E0F8A3E0F98E828F832274F5121965E9CF
:10249300FE9004F7E0FAA3E0FBEEC333F8E433F96C
:1024A300741028F582748F39F583E02AF508A3E0C8
:1024B3003BF5097808121B0C9090641217901222B6
:1024C300F074021218B88A088B098C0A8D0B7410E9
:1024D30078081216A0AA08AB097F04021A1174F136
:1024E3001219658A0C8B0D8C0E8D0F740F1218ED5B
:1024F300E0FAA3E0FB74111218EDE0F508A3E0F590
:10250300097808121B0CEA2401F508EB3400F509DD
:10251300E4F50AF50B780C790812162090902C78C4
:1025230008121772780C7908121620AA0CAB0DAC9E
:102533000EAD0F1222F074021218B88B09EA450986
:1025430060047A0180027A00EC2AFCED3400FD7409
:10255300131218EDE0F8A3E0F9E8FEE9FFECF8ED5B
:10256300F97A717B0212181788088909E4F50AF5CC
:102573000B8E828F837808121781ECF8EDF97A714C
:102583007B021218178A088B097405780812188FB2
:102593008E828F83A3A3A3A3E508F0A3E509F07FAD
:1025A30008021A11C082C083E9906000F0D083D082
:1025B3008222C2AF02000022C0E074F2121A51A2BA
:1025C300AFE433FED2AFC2C0E5D1A2E4500653D18B
:1025D300EF121488EEA2E092AF7F01021AB0C0E0BE
:1025E30074F2121A51A2AFE433FED2AFE589A2E12D
:1025F3005003121404758900C2C5EEA2E092AF7FA6
:1026030001021AB0C0E074F2121A51A2AFE433FE11
:10261300D2AFE58BA2E05003121404758B00C2E81D
:1026230080D8C0E0C0D0E8C0E0E9C0E0E5A8D2AF00
:10263300C2C7A2E7A2E792AFD0E0F9D0E0F8D0D0CA
:10264300D0E032C0E0C0D0E8C0E0E9C0E0C008C0DC
:1026530009C082C083A2AFE433F9D2AF900894E0FB
:10266300F8A3E0687008539AFBA374018026C2E9BB
:10267300900894E0F50874012508F074902508F596
:102683008274083400F583E0F5C1900894E0C394A4
:10269300044002E4F0E9A2E092AFD083D082D009F3
:1026A300D008D0E0F9D0E0F8D0D0D0E032FFFFFF7F
:1026B300FFFFFFFFFFC082C083E9900E6AF002298B
:1026C3004774F71218F9E99002E1F07C197D037A57
:1026D300FF7BFF1209249002E274FFF0A3F0A3E44E
:1026E300F0A3F079051208AC9002E1E0F91207CEED
:1026F3007A427B09120AEC7F010219CB74F4121897
:10270300F98A088B09EB548060309002E1E0F912FA
:10271300115E8A0A8B0BAE0AAF0BEE4F60138E82EB
:102723008F83E064B070031208C4EEFAEFFB12115A
:102733004CAA08E5096480FB80047A007B00022927
:102743001674F21218F974FC1218A2EAFEEBFFEEEB
:102753004F603874021218EDEEF0A3EF122B7BECEE
:10276300F0A3ED122B7BAA82AB831207C8E9F5080D
:10277300707374121218ED12372FE50A450B60655A
:102783008E828F831227F2EE4F70057508028055F3
:102793007A067B001211B88A0C8B0DA80CA90DE8E0
:1027A300497005750813803D88828983E41227FCEC
:1027B300A3A3EEF0A3EF123BC8E50AF0A3E50BF0E9
:1027C3009002E71228849002E76017E0FCA3E08000
:1027D30003EAFCEBFD8C828D8312288470F38C82D8
:1027E3008D83123654A90874041218B8023DCAA383
:1027F300A3A3A3E0FEA3E0FF22F0A3F088828983D2
:102803002274F21218F9890AE975F017A4FEAFF0E1
:102813009002E6E4F09002E4122884600A1211BEEA
:102823009002E4E4F0A3F0EEFAEFFB1211B88A0889
:102833008B09EA4509602FEEFCEFFD790012113A8E
:102843009002E4E508F0A3E509F07B008008122874
:102853006EE4F0A3F00BEBC3950A40F2E50A900295
:10286300E6F0790080027913023DCAEB75F017A4F4
:10287300F8A9F09002E4E028FAA3E0398A82F5830C
:10288300221233EAEA4B2274F41218F97508007520
:102893000900740C1218ED123B9CFEE9FF800CE555
:1028A300082401F508E5093400F509C3E5089CE5AA
:1028B300099D503285080A85090B7403780A12189A
:1028C3008FEA250AF8EB350BF988828983A3A3A342
:1028D300A3A3A312372FEE650A7003EF650B70BF36
:1028E300E8FAE9FB80047A007B00802774F412186D
:1028F300F97900EAA2E0501B7508F075098F780892
:10290300121B0C7C047D007A6C7B0E1208A67402E9
:102913001218B87F040219CBC082C0839002E71259
:10292300294E601C88828983A3A3E06A7003A3E015
:102933006B8882898370E8A3A3A3A31233E6800480
:102943007A007B00D083D082020122123E9DE849A7
:102953002274EE1218F974FC1218A2EAFEEBFF853A
:102963001882851983E4F0A3F0EE2402123638EEC0
:102973002405122B69EE2404F50EEF122F4EE024EA
:10298300FE603924FC604624FE605224FE605E240F
:10299300FE7003022A6E24FE7003022AE624FE70F0
:1029A30003022AF524FE7003022B0424FC700302A5
:1029B3002B1324FE7003022B22022B5F900300745F
:1029C30017F0A3E4122B83120546022B5F851882AE
:1029D300851983AC82AD831208CA022B2F85188216
:1029E300851983AC82AD831208D0022B2F850C0886
:1029F300850D0974021218EDAC82AD8385088285BA
:102A030009831233E61207EC8A0C8B0DAC0CAD0D67
:102A1300EC4D6042E4F50CF50D780C121B0C750CB3
:102A230000750D03780C121B0C750C01750D0378E2
:102A33000C121B0C74081218ED121B237916123397
:102A4300E012090C74081218B8E9F50C700B123374
:102A5300DC12055E800F750C0185088285098312DF
:102A63002B71123654850C08022B3274021218EDA6
:102A7300AC82AD83850C82850D831233E61207EC9D
:102A83008A108B11AC10AD11EC4D6043850C82851F
:102A93000D83A3A3121B2375100075110378101265
:102AA3001B0C7510017511037810121B0C7408129E
:102AB30018ED121B2379161233E012090C74081255
:102AC30018B8E9F509700B1233DC120564800F7531
:102AD3000901850C82850D83122B711236548509E9
:102AE30008804C851882851983AC82AD831208D681
:102AF300803A851882851983AC82AD831208DC8005
:102B03002B851882851983AC82AD831208E2801C61
:102B1300851882851983AC82AD831208E8800D8500
:102B23001882851983AC82AD831208EEE9F508E5B6
:102B33000860298E828F83A3E06414601F850E8250
:102B4300850F83E0900300122B7B123E99900301C3
:102B5300123654E508A3122B83120540EEFAEFFB5D
:102B630012086A023540F50CEF3400F50D22123ECF
:102B73009D85188285198322F08518828519832201
:102B8300F07C007D03850A82850B831233EA22746D
:102B9300EE1218F974FC1218A28A0A8B0B8C0E8D94
:102BA3000FEA2405F508EB3400F5097C157D00795F
:102BB300007A007B0312113AE5082402F50CE509BB
:102BC300122B6C8518828519838582108583117871
:102BD30010121B0C850882850983A3A3A3A31230BB
:102BE30096121B0CE5082405F510E5093400F511D0
:102BF3007810121B0C850C82850D831233F012079B
:102C0300E674061218B88A108B11AE10AF11E50ADC
:102C13002402F50AE50B12363BEE4F7003022D58E2
:102C2300801774021218ED1233E688828983EAF062
:102C3300A3EBF0900300E004F0900300E0C39405DD
:102C43004003022D58E4F510F5117810121B0C7592
:102C530010E97511027810121B0C7510EA75110238
:102C63007810121B0C74061218ED121B237910EE48
:102C7300FCEFFD1233E012090C74081218B8E97066
:102C83005E850882850983A3A3A3A3A3A3A3E0F876
:102C93009002E9E0687048123096121B0C7CEA7DC2
:102CA30002E5082408FAE5093400FB121134740222
:102CB3001218B8E960298E828F83A3A3A3A31233CA
:102CC300E6900300E0F5107402781012188F740177
:102CD3002510F58274033511F583EAF0A3EBF07444
:102CE300021218ED8582108583117810121B0C7463
:102CF300021218ED121B23850C82850D83123EAE42
:102D03001207F274041218B88A108B11AE10AF11A7
:102D1300900300E0F5107511007402781012188FFB
:102D230074002510F874033511F988828983A3127E
:102D330028847003022C1CE82403F8E93400F9EE1C
:102D43004F6003022C258882898374FFF0A3F090DF
:102D53000300E004F0900300E0600A1233DC120584
:102D6300527900800B85088285098312364B790AD4
:102D730002354074EA1218F974FE1218A28C128DEF
:102D830013EA2405F50CEB1240181227F675080018
:102D9300750900EA2402F510EB3400F51185188259
:102DA30085198385820A85830B780A121B0C850C8F
:102DB30082850D83A3A3A3A3122F58121B0CE50C2A
:102DC3002405F50AE50D12363B780A121B0C850C17
:102DD30082850D83123EAC1207E674061218B88A78
:102DE3000A8B0BEA450B7003022F09EA2404F50E44
:102DF300EB122F4E1227F68A828B83A3A3A3E0F94B
:102E03008510828511831233E61207D4E9F5096030
:102E130003022F09E4F514F5157814121B0C75142D
:102E2300E97515027814121B0C7514EA75150278EE
:102E330014121B0C74061218ED121B237913AC0A1F
:102E4300AD0B8510828511831233E612090C7408C9
:102E53001218B8E9F5096003022F099002E9E0F8B6
:102E6300E5087009E02402900301F0801790030144
:102E7300E0FCE82402FAE43400FBEA6C7001EB6046
:102E830003022F0D850882AA8212308D941412300A
:102E9300855073850E82850F83E0C0E074022A1289
:102EA3002F45D0E0F00508850E82850F83A3E0C08F
:102EB300E085080A7402250A122F45D0E0F00508C0
:102EC3009002E9122F58121B0C7CEA7D0285080A36
:102ED3007402250AFA74033400FB121122740212DD
:102EE30018B89002E9E02508F50874FF6E700374C2
:102EF300FF6F6012EE24010EEF3400FFE508C39468
:102F0300145003022DA0E50860131232D1851082FC
:102F13008511831233E612055879008014E5097090
:102F23000375090A851282851383EEF0A3EFF0A9D6
:102F33000974021218B87F0E0219CB85080C7402AB
:102F4300250CF58274033400F583223400F50F85D4
:102F53000E82F58322123BDB2274EE1218F974FE03
:102F63001218A28C0E8D0FEA2405F50CEB122B6CB4
:102F7300750B00900300E4F0F50AEA2402F508EB70
:102F83003400F5098049900300E0FA9002E9E0F883
:102F930012308D9417123085400D900300E0F874C1
:102FA30016C3989002E9F0123096121B0C7CEA7D4E
:102FB3000274012AFA74033400FB12112274021200
:102FC30018B89002E9E0F8900300E028F0050AE55C
:102FD3000C2416F582E50D122F49E0F8E50AC39893
:102FE300400302306E900300E0C39416507DE50A5F
:102FF300C333F8E433F9E50C28FEE50D39FF8518F2
:1030030082851983AC82AD838E828F831233E6125D
:1030130007EC8A108B11AC10AD11EC4D7005750BDC
:10302300018043E4F510F5117810121B0C7510E9BB
:103033007511027810121B0C7510EA7511027810C5
:10304300121B0C74061218ED121B237916850882C5
:103053008509831233E612090C74081218B8E9F5CE
:103063000B7003022F8912364780107C007D038585
:1030730008828509831233E612056AA90B740202DA
:103083003542E99400C365D03322EA28F8E43400DA
:10309300F9E822E0F51075110078102274EA12188D
:1030A300F974FC1218A28A0C8B0D8C128D13EA246E
:1030B30005F50AEB12363B750800750900E50A248D
:1030C30002F510E50B3400F51174021218ED858238
:1030D3000E85830F780E121B0C850A82850B83A342
:1030E300A3A3A3123B87121B0CE50A2405F50EE5E7
:1030F3000B3400F50F780E121B0C8510828511839B
:103103001236411233E01207E674061218B88A0E1B
:103113008B0FAE0EAF0FE50C2402F50EE50D340058
:10312300F50F80408882898374FFF00508122F3ED3
:1031330074FFF005089002E9E0F50C750D00780CBA
:10314300121B0C7CEA7D0285080C7402250CFA74B0
:10315300033400FB12112274021218B89002E9E042
:103163002508F508EE4F60718E828F83A3A3A3E039
:10317300F9850E82850F831233E61207D4E9F50928
:10318300EE2404122B69E97044E4F514F515781460
:10319300121B0C7514E97515027814121B0C7514A7
:1031A300EA7515027814121B0C74081218ED121B21
:1031B300237911EEFCEFFD850E82850F831233E632
:1031C30012090C74081218B8E9F5096027850C82F6
:1031D300850D831232C7123654E50870030232ADEF
:1031E3001232D1850E82850F831233E61205707970
:1031F300000232C2850882AA82EA9002E97009E0DD
:103203002404900301F08022E0F8900301E0F51418
:10321300E82404FCE43400FDEC65147001ED70C097
:1032230012308D941212308550B6850C82850D8331
:10323300E0C0E074022A122F45D0E0F00508850CA7
:1032430082850D83A3E0C0E0122F3ED0E01232E36B
:1032530085820C85830D780C121B0C74041218EDF7
:10326300121B23851082851183123EAE1207F2745E
:10327300041218B88A0C8B0DAE0CAF0D85080C74B4
:1032830002250CF874033400F9EE4F700302312762
:10329300851882851983E0888289831232E3A3E04B
:1032A300C0E0122F3ED0E0023135E5097003750905
:1032B3000A850A82850B831232C7123654A9097410
:1032C30004022F36123E9D851282851383229003BA
:1032D30001E0F5F0E50884900300F07C007D032213
:1032E300F005088518828519832274EC1218F97485
:1032F300FE1218A28A088B098C0E8D0FEA2405FE94
:10330300EB3400FF851882851983AC82AD838E82EE
:103313008F831233E61207EC8A0A8B0BEE24181202
:103323002B69EA450B70030233B7123529503285F6
:1033330018828519831233E61209008A108B11EA69
:103343004511606B7912AC0AAD0B85088285098340
:103353001233E68510828511831218F7E9F50A7096
:1033630058E4F50AF50B780A121B0C8E828F83A39F
:10337300A3E0F50A780A121B0CEE24031236387800
:103383000A121B0C8E828F831233F01209127406F9
:103393001218B8E9F50A7021850C82850D83E07057
:1033A3001F8508828509831233E61205768011751D
:1033B3000A0E8009750A018004E50A600312364784
:1033C300850C82850D83E0600479008002A90A746C
:1033D300021218B87F0C0219CB7C007D03850A8288
:1033E300850B831233EA22E0FAA3E0FB22E0FCA37D
:1033F300E0FD8508828509831233EA2274EE1218F0
:10340300F974FE1218A28A088B098C0C8D0DEA241C
:1034130005FEEB3400FF750E00851882851983AC19
:1034230082AD838E828F831233E61207EC8A0A8B76
:103433000BEA450B700302351512352950358518F3
:10344300828519831233E61209008A0E8B0FEA452F
:103453000F605E7912AC0AAD0B8508828509831271
:1034630033E6850E82850F831218F7E9F50E6003A4
:1034730002351885088285098312372FAA0AFB12A1
:1034830008F48A108B11A810A911E849701E7AFF5D
:103493007BFF1208F48A108B11A810A911E8496068
:1034A3006C88828983E50AF0A3E50BF0750A008036
:1034B30007750E0E805F050A9002E6E0FAE50AC37F
:1034C3009A504AE50A75F017A4FAABF0888289830B
:1034D300A3A3E02AFAA3E03BFB8A828B8312364143
:1034E300EC4D70D2750A17750B00780A121B0CEE9F
:1034F300FCEFFD12112274021218B8EEFCEFFD85E9
:1035030008828509831233E612057C8014750E093F
:103513008003750E01123E95850C82850D8312364C
:1035230054A90E023080E5082402F508E5093400A9
:10353300F5098A828B83A3A3A3E0A2E52274041274
:1035430018B87F0A0219CB74EC1218F98C108D117C
:10355300EA2405F50CEB122B6C750F00EA2402F537
:103563000AEB12363B850A82F5831233E61208F41E
:103573008A088B09EA4509700302362D750E00800F
:1035830071850C82850D83E06401704F8E828F8379
:10359300A3A3121B238E828F83A3A3A3A3E0F512FD
:1035A3007513007812121B0CEE2405F512EF34008C
:1035B300F5137812121B0C1233E01209127406125F
:1035C30018B8E9F50F6014850C82850D83E4F012B9
:1035D3003E958510828511831236547C177D0079C0
:1035E30000EEFAEFFB12113A8E828F83E4F0A3F020
:1035F300050E9002E6E0F8E50EC398501EE50E7541
:10360300F017A4F8A9F0850882850983A3A31240C3
:1036130022123641EC4D6003023584850882850908
:103623008374FFF0A3F0E50F70061233E0120582F6
:10363300A90F0233D7F50AEF3400F50B22A3E0FC00
:10364300A3E0FD228E828F83123E9D850E82850F1D
:1036530083E8F0A3E9F022C082C0839002E2E06A2B
:103663007003A3E06B70067AE27B0280047A007B2E
:1036730000022947C082C08378008C828D83E06A70
:103683007003A3E06B7010E875F003A4F8A9F0ECE5
:1036930028FAED39FB8015088C828D83A3A3A3E060
:1036A3006A7003A3E06B60DF7A007B000229477432
:1036B300F61218F91208BE8A828B83E5824583705D
:1036C300067A007B008007A3A3A3A31233E6023D7F
:1036D3004674F21218F9E9FE740E1218ED12372F20
:1036E30074101218ED123BA78C828D83E064027074
:1036F30036A3123EA3F50CA3E0F9A80C740268707C
:10370300037429697021750C02750D00780C121B66
:103713000C7808121B0C780A121B0CEEF9120936EE
:1037230074061218B880027901023DCAE0F50AA3B3
:10373300E0F50B2274E81218F974FB1218A2E9855C
:103743001882851983F08A168B17ECFEEDFF75102E
:1037530000741D1218ED123E99741D1218ED1236E5
:10376300548E828F83A3A3A3E0A2E4502D741D1271
:1037730018ED1233E61209008A828B83E5824583B2
:103783007003023B78790AEEFCEFFDAA16AB171221
:1037930018F7E9F5106003023B7B741F1218ED1252
:1037A3003BA774211218ED12372F74231218EDE082
:1037B300F50EA3E0F50F8E828F83E06402600302AF
:1037C3003B26A3123E99850882850983A38582122D
:1037D300858313EE2406122B6988828983E0FAA37A
:1037E300E0F9EA2400F514E439F5157814121B9670
:1037F3000100002801281B3807000228E0380328AD
:103803004D380029173A0129423A0229E33903299D
:10381300173A0429C13A263BE50E450F6003023BE4
:1038230021850C82850D83123B9CFAE9FB8A828BEE
:1038330083E0850A82850B83123BD2121B0C8A829A
:103843008B83A3E0FCA3E0023AABE50E450F6003D4
:10385300023B21850A82850B837401F0123BAF85FD
:103863000882850983F07C007D008E828F83A3A369
:10387300A3A3E02401FAA3E03400FB1207ECEA4B14
:1038830060418A828B83E02402F8850A82850B8358
:10389300E028F0EA2404F8EB3400F988828983E015
:1038A300851282851383123BE4123BD2121B0C8ACE
:1038B300828B83123640E5082403FAE5093400FBC2
:1038C300023AB0850A82850B83E02404F07C047DF0
:1038D300007900AA12AB1312113A023B7BE50E45A5
:1038E3000F6003023B21123BAFFEA3E0FF850A8278
:1038F300850B837404F0EE850882850983F0EF85D8
:103903001282851383F074031218EDAC82AD83EE3B
:10391300FAEFFB1207EC8A0C8B0DEA450D700302DC
:1039230039C48A828B83A3A31227F274011218ED80
:1039330085820E85830F780E121B0C74051218ED09
:10394300121B237CFF7DFF1207F274041218B88B3D
:103953000FEA450F7033850C82850D83123B871266
:103963001B0C850C82850D83A3121B237C027D0017
:103973007AA57B9012061E74041218B8E9700A74B3
:10398300011218ED74FFF0A3F08E828F83E06402BE
:103993007039750C02750D00780C121B0C8E828F1A
:1039A30083123640E5082404FAE5093400FB1211BA
:1039B3002274021218B8850A82850B83E0240280E0
:1039C3000974011218EDEEF0A3EFF074011218ED73
:1039D300123B98F074011218EDA3123B90023B1BAB
:1039E300E50E450F6003023B21850C82850D831292
:1039F3003641AA16AB1712092A850A82850B8374EE
:103A030002F0EA850882850983F085128285138393
:103A1300EB023B1EE50E450F6003023B21123BAF59
:103A2300F8A3E0F9850A82850B837402F0E8850820
:103A330082850983F0E9851282851383023B1E8503
:103A43000C82850D831233E612111CEAFC8C82A8CA
:103A530082C3950EE4950F405FE8650E7002E50F93
:103A630070047C008022851882851983E0FAE50EB4
:103A73002AFAE50F3400FBC3EA98EB94005003E005
:103A83008005E50ECCC39CFCEC850A82850B83F094
:103A93008C0A750B00780A121B0C850C82850D832A
:103AA300E0250EFCA3E0350FFDAA08AB0912112295
:103AB30074021218B8023B7B751007023B7BE50EBC
:103AC300450F705A850C82850D83123E99850A82B3
:103AD300850B8374071227FE123B901227FEA3E087
:103AE300851282851383F0E82402FAE93400FB8A05
:103AF300828B83123B90123BBF123B98A3123BC8AD
:103B0300123BA1F0E82405F8E93400F9888289839F
:103B1300123BA1A3123BE4A3A3A3A3F0805A751005
:103B23000B8055741D1218ED1233E61208BE8A82FB
:103B33008B83E5824583603D123E99880C890DE8AD
:103B4300450D6031780E121B0C780A121B0C780895
:103B5300121B0C74061218EDE0F9EEFCEFFDAA1629
:103B6300AB17850C82850D831218F774061218B8EB
:103B7300E9F510800375100EA91074051218B87FAB
:103B8300100219CBE0F50E750F00780E22E08508C0
:103B93008285098322123BEE22123E9DE822123BCC
:103BA300EEA3A322E0F508A3E0F50922850C8285A4
:103BB3000D83E0F8A3E0F5838882E022A3A3F08AD3
:103BC300828B83A322F088828983A3A3A3A322F0F9
:103BD3008A828B83123BDB22E0F50A750B00780A9D
:103BE30022F088828983A3123BEE22E08508828536
:103BF3000983A3A32274EE1218F974FE1218A28A81
:103C03000A8B0BECFAEDFB74141218EDE0F510A31C
:103C1300E0F51174161218EDE0FE74181218EDE0B9
:103C2300F50EA3E0F50F851882851983AC82AD8369
:103C33001207EC8A0C8B0DEA450D604985188285C5
:103C430019831233E61208BE8A828B83E582458389
:103C5300602FA3A3123BA7E50845096024780E1241
:103C63001B0C7810121B0CEEF9AC0CAD0DAA0AABB1
:103C73000B8508828509831218F774041218B8801B
:103C830006790E8002790102308074F61218F974F5
:103C9300FE1218A2740C1218ED123B9C8518828533
:103CA3001983F074011218EDE9F0E4F508F50978C9
:103CB30008121B0C7508027808121B0C74041218E6
:103CC300ED8582088583097808121B0C120912748A
:103CD300061218B874021218B8806874F71218F92B
:103CE300EAFEEBFF89087C197D0312092AEA5402D4
:103CF300600BA908EEFAEFFB1207E08002790102DC
:103D030026FA74F61218F974FF6A700374FF6B7065
:103D1300168C828D83123D4BE4F08C828D83A3A39A
:103D2300A3123D4BA380181208FA8A088B09A8082E
:103D3300A909E849600D8882898374FF1227FCA3CF
:103D4300A3E4F07F020219CB74FFF0A3F08C828D01
:103D530083A3A32274F61218F91208FA8A828B83BA
:103D6300E58245836006A3A3E0FA80027A007B0024
:103D730080D174F21218F98A088B09ECFEEDFF74F6
:103D83000E1218EDE0F50A1208FA8A0C8B0DA80C36
:103D9300A90DE8497026EEFCEFFD7AFF7BFF1208C0
:103DA300FA8A0C8B0DA80CA90DE8497004791180CF
:103DB3001688828983E508F0A3E509F08882898360
:103DC300A3A3E50AF079007F060219CB74EE12185B
:103DD300F9EAFEEBFF8C088D09890C74141218EDB7
:103DE300123E9974161218ED1233E6750D00E84968
:103DF3006003023E8D7402650C6003023E887412F8
:103E03001218ED123EA3FCA3E0F9EC2400F50EE436
:103E130039F50FEAF4F8EBF4F9EC58F8E50F59F932
:103E2300E849705CE5082406F8ED3400F9880A894E
:103E33000B8882F583123EAE12092A8A108B11E594
:103E43000E65107004E50F65116042780E121B0CAD
:103E5300850A82850B83123EAE1209307402121852
:103E6300B8E9F50D7027780E121B0C8508828509B9
:103E730083A3A3123EAC12094874021218B8800D32
:103E8300750D808008750D0D8003750D0BA90D024E
:103E930035458E828F83123E9D22E0F8A3E0F922FE
:103EA300123E9D88828983E022A3A3E0FCA3E0FD68
:103EB300EEFAEFFB2274E81218F974E71218A285E0
:103EC3001882851983EAF0A3EBF08C168D17890EFF
:103ED30075080075090074311218EDE0F512A3E0BE
:103EE300F51374331218EDE0F514A3E0F5157435EA
:103EF3001218EDE0F50FE50975F003A4F8A9F085B4
:103F03001882851983124022E0F47003A3E0F47051
:103F130003024005EE2402F50CEF124018E0700393
:103F230002400585160A85170B780A121B0CAC1480
:103F3300AD15AA12AB131208B274021218B88A0A8A
:103F43008B0BEA450B7003024005E4F510F511787D
:103F530010121B0C74061218ED85821085831178DC
:103F630010121B0C74091218ED85821085831178C9
:103F730010121B0C851282851383A3A3A3A3121B08
:103F8300237914AC0AAD0B8E828F831233E61209A8
:103F93000C74081218B8E97069850A82850B83A32B
:103FA300A3A3A3123E9974021218ED123654850C82
:103FB30082850D83E0A2E05018A90E74021218ED59
:103FC300AC82AD838E828F831233E6120804E942FA
:103FD30008850C82850D83E0A2E15026E50FF50AE2
:103FE300780A121B10A90E74031218EDAC82AD836C
:103FF3008E828F831233E61207FE74011218B8E91A
:1040030042080509E509C394025003023EF9A908D1
:104013007419023B7F3400F50D850C82F58322E091
:1040230028FEA3E039FF8E828F832274F21218F9DF
:10403300EAFEEBFF890B7401650B600E7402650BDE
:10404300706A7901120B0AE97062EEFAEFFB12084B
:10405300F48A088B09EA45096047750A00800B7CDE
:10406300177D00790012113A050A9002E6E0F8E59F
:104073000AC3985021E50A75F017A4F8A9F085083A
:1040830082850983A3A3E028FAA3E039FB8A828B04
:104093008312294E70C985088285098374FFF0A3B2
:1040A300F07C197D03EEFAEFFB120924023DCA747A
:1040B300F21218F98A088B09ECFEEDFF740E121840
:1040C300ED12372F900E6AE0F4603D7A097B0012FF
:1040D3001146EA4B60328A828B8374B1F0A3E412F7
:1040E3003BC1A3123BBFA3E508F0A3E50912410EB0
:1040F300EEF0A3EF12410EA3A3E50AF0A3E50BF044
:10410300900E6AE0F9121152023DCAF08A828B8343
:10411300A3A3A3A3A322C082C08390075FE0F8E90F
:104123004A6890075D603C7403F07410697013EA89
:10413300C333FCE433FD74682CF58274073DF583C7
:104143008015E9702074016A700590095280087423
:10415300026A7011900954125828900762ECF0A378
:10416300ED8001E4F002510174F01218F974FE12AB
:1041730018A28A088B097E007F00EEF8EFF97A0215
:104183007B0012180FE8C333F50EE933F50F74689B
:10419300250EF50C7407350FF50D850C82F583A3F9
:1041A30085820A85830B851882851983AC82AD834A
:1041B3007A02EE248DF9121524E9601B74C2250ED0
:1041C300F582748F350FF583125279850C82850D34
:1041D30083E8F0A3E9801A851882851983E0850AAC
:1041E30082850B83F074011218EDE0850C82850D36
:1041F30083F0E5082EF8E509124E71EE2402FEEF76
:104203003400FFC3EE9408EF12509D500302417D2A
:1042130074021218B87F080219CB74F71218F974D4
:10422300FE1218A2EAFEEBFF851882851983AC8281
:10423300AD837A027995121524E96045900770E001
:10424300600C1460142481601B14601F8028900983
:104253005274BDF0A37404803C9009527403F0A31C
:104263007405803190095274E0800590095274F509
:10427300F0A37401801F90095274FFF0A3743F8070
:1042830014851882851983E0F974011218EDE09002
:104293000952F0A3E9124DB47997121524E960414C
:1042A300900770E0600C1460102481601714601F85
:1042B300802790095474C680059009547465F0A34F
:1042C300740280319009547416F0A374018026900F
:1042D300095474F5F0A3E4801C900954E4F0A3801E
:1042E30014851882851983E0F974011218EDE090A2
:1042F3000954F0A3E9F09009531248C390095212EC
:1043030043D29009551243BD9009541243C7740216
:10431300024DC474F71218F974FC1218A2EAFEEBEA
:10432300FF851882851983AC82AD837A047989125B
:104333001524E9602C900770E4F090094BC3E094D6
:1043430058A3E09402500E900764E0640170069055
:1043530007707480F09007717402F0A3E4F0A380F7
:1043630028851882851983E0900771F0740112186B
:10437300EDE0900770F074021218EDE0F974031287
:1043830018EDE0900772F0A3E9F0900770E0547F16
:10439300900FC0700474148002740FF0A3E4F090C3
:1043A30007711248C39007701243D29007731243E8
:1043B300BD9007721243C7024DC21243C122124479
:1043C300B1A3F0221243CB221244B1A3A3F02212D1
:1043D30044ADF02274E81218F9EAFEEBFF8C0A8D63
:1043E3000B74181218ED78101217728E168F178E21
:1043F300088F09EE4F702F7A057B001211B88A08D7
:104403008B09AE08AF098E828F83A3A3A3A3E4F025
:104413008E828F83A3A3E50AF0A3E50BF08E828F30
:1044230083E4F0A38048EA2404F514EB3400F51583
:1044330090906878101216EB851482851583E0F549
:104443000CE4F50DF50EF50F7810790C1215E1500B
:104453002480048808890912543D70F77A057B008B
:104463001211B81244B8851482851583E004F080D4
:10447300308808890912543D70F77A057B001211C0
:10448300B81244B88E828F83E0FEA3E0FF851482C6
:104493008515831244ADA3A3A3F0AA16AB1712117B
:1044A300BEEEFAEFFB7F100219CB1244B122E08E6D
:1044B300828F83A3228A0C8B0DA80CA90D88828975
:1044C30083A3A3E50AF0A3E50BF088828983E4F0D4
:1044D300A3F0850882850983E8F0A3E9F02274F448
:1044E3001218F974FC1218A28908900774E0650881
:1044F30070030245AF851882851983AA82AB8312A4
:10450300129090094DE0F50A75F005A4F8A9F0742E
:104513005628FE740939FFE0C394C950198E828F5F
:10452300831252611217908E828F83A312179C906D
:10453300094DE004806B78007900E8FAE9FBEA753D
:10454300F005A4FAACF075F005EBA42CFB74562A25
:10455300FC74093BFD8C828D83A3A3A3A3A37405E1
:104563001217B5E8240108E93400F9E50A24FFFA33
:10457300E434FFFBC3E89AE99BA2D265D03340BA87
:10458300EE24FBF582EF34FFF5831252611217908C
:10459300EE24FCF582EF34FFF58312179C90094D4E
:1045A300E4F0E508900774F079018002790074045F
:1045B3001218B8025711C082C083900760C3E094F9
:1045C30089A3E094139007604005E4F0A3800312ED
:1045D300475802510074F71218F98908740F5508E7
:1045E300F874F05508600A24F0603424F0606780A2
:1045F3006F90094EE0706990094FE0640260617446
:1046030001F07EF4FFE86012146005146006805028
:104613007A0180027A02790080371212AE804190CB
:10462300094EE0703B90094FE064026033E4F07E92
:10463300F47F01E8600B14600C14600D14600E80AD
:104643001F7A00800A7A0180067A0280027A03794F
:1046530010121230800A9009507401F07E007F001E
:10466300E50890075FF0EEFAEFFB024DC774F01216
:1046730018F9EAFEEBFF90901C121B1F90077912AA
:104683005279758307758266E0C398FCA3E099FDB0
:1046930090077512543712124874041218B8900711
:1046A30075EAF0A3EBF07C007D0090077512527958
:1046B3008007E02CFCA3E03DFD88828983E582240A
:1046C30002F8E5833400F9E8FAE9FB1254438A82DD
:1046D3008B8370DEE02CF508A3E03DF509900764B9
:1046E300780C121772900777780C1215CC600C9027
:1046F30007647C777D0774041217B5900764780C00
:1047030012177290077B780C1215CC603A90077FD2
:10471300125279C3EE98EF99502D9007647C7B7DFC
:104723000774041217B590077FF0A3F07A04FB1205
:1047330011B88A0A8B0BAE0AAF0B1247951215A25A
:10474300EEFAEFFB1211BE90077F124758F0AA084A
:10475300AB09024218E02401F0A3E0340022C3EACB
:104763009CEB9D400479028002790102012274F6D8
:104773001218F97A047B001211B88A088B09AE0863
:10478300AF091247951215A2EEFAEFFB1211BE0202
:104793005020900764E08E828F83F0900765124467
:1047A300ADF09007671243C19007661243CBEEFC4E
:1047B300EFFD7A0479052274F61218F97A087B0062
:1047C3001211B88A088B09AE08AF09121236EEFC33
:1047D300EFFD7A0879011215A2EEFAEFFB1211BE72
:1047E3007A057B001211B88A088B09AE08AF097CE1
:1047F300437D0D7A01799B121524E96005900D43E1
:10480300E4F0900D431248C3EEFCEFFD7A05790600
:104813001215A2EEFAEFFB1211BE7A047B001211FD
:10482300B88A088B09AE08AF09121242EEFCEFFDFD
:104833007A0479001215A2EEFAEFFB1211BE7A0484
:104843007B001211B88A088B09AE08AF0912123C1B
:10485300EEFCEFFD7A0479031215A2EEFAEFFB12D8
:1048630011BE7A027B001211B88A088B09AE08AF19
:10487300097CBE7D0F7A027999121524E9601A909A
:104883000770E0A2E7900FBE40087484F0A374039E
:1048930080067462F0A37401F0900FBF1248C390B6
:1048A3000FBE1243D2EEFCEFFD7A0279021215A27B
:1048B300EEFAEFFB1211BE75C90043C9080250207E
:1048C300E08E828F83F02274EA1218F98910750A38
:1048D30000750B007C007D0079008911E5106035BF
:1048E3001460142481601B1470407512F575130154
:1048F3007514F589158017751203751305751465FD
:10490300801C7512E0751301751416751501900757
:1049130081740280117512BD7513047514C6751563
:10492300029007817404F0A3E4F0900951E0F508C4
:1049330089097403780812188F85080E85090F7486
:10494300BE250EF50C740E350FF50D74AE250EF560
:104953000E740E350FF50FEAC333F508EB33F50983
:10496300C3EA940112509C5003024AA3900762E0E9
:10497300F514A3E0F515E512C39514F514E51395A5
:1049830015F515C3E5149414E515940050300990FA
:104993000762E0C39512F50AA3E09513F50BE50A48
:1049A3002414F50AE50B3400124C69E5129401E571
:1049B3001312509D4006AC12AD1380028911124DA3
:1049C30014EA9512EB9513A2D265D0335003024C2F
:1049D30050E50C2402F512E50D3400F513E50E2421
:1049E30002F582E50F3400F583E9A2E04049E510C2
:1049F3007003024B9F14601B248160381460030210
:104A03004C54124C9012180F12542C12180F124CB3
:104A13005D8017EAF8EBF912543712180F880A89E8
:104A23000BE508250AF8E509350BF985128285138C
:104A330083024BC3024B7D124CA87003024C0D142E
:104A4300602324816057146003024C54124C781283
:104A5300180F12542C12180F880A890BEC250AFA26
:104A6300ED350B8017ECF8EDF912543712180F8857
:104A73000E890FE50A250EFAE50B350FFB85128229
:104A8300851383125279E8850CF0A4F8ACF0850CF9
:104A9300F0E9A42CF9EA28F8EB39024C45024BDD86
:104AA300C312509C4003024C50900762E0C395141C
:104AB300F512A3E09515F513C3E5129414E51394C9
:104AC30000501B09E51224ECF50AE51334FF124CE0
:104AD3006912509D5006AC12AD1380028911124D1C
:104AE30014E49512F512E49513F513C3E5129AE550
:104AF300139BA2D265D0335003024C50E50E24061B
:104B0300F582E50F3400F583E50E2404F50EE50F79
:104B13003400F50FE9A2E05003024BCCE50C240668
:104B2300F8E50D3400F9880A890BE50C2404F8E54F
:104B33000D3400F9880C890DE510606014601B24A6
:104B4300816037146003024C54124C9012180F12F8
:104B5300542C12180F124C5D8017EAF8EBF912541B
:104B63003712180F880C890DE508250CF8E509356F
:104B73000DF9850A82850B838046124C9012180F1B
:104B8300E8FCE9FDECC333FCED33FD850E82850FB4
:104B93008312543712180F124C5D801DEAF8EBF99B
:104BA300850E82850F8312543712180F880A890BDA
:104BB300E508250AF8E509350BF9850C82850D838F
:104BC300E028FEA3E039024C4D124CA8603C14606F
:104BD3003F248160051470798006850E82850F83DA
:104BE300E0FEA3E0FF124C7812180FE8FCE9FDEC9D
:104BF300C333FCED33FDEEFAEFFB12180F880A897D
:104C03000BEC250AF8ED350B8023850E82850F8387
:104C1300E0FEA3E0FFECF8EDF9EEFAEFFB12180F5C
:104C2300880E890FE50A250EF8E50B350FF9EE8599
:104C33000CF0A4FEAAF0850CF0EFA42AFFE82EF8EE
:104C4300E93FF9E82508FEE93509FF80047E007F86
:104C530000EEFAEFFB7F0E0219CB88088909EC25D9
:104C630008F8ED350922F50BEAC3950AF512EB9521
:104C73000BF513C322EC75F07FA4FCA8F075F07F4D
:104C8300EDA428FDECF8EDF97A327B0022EA75F009
:104C93007FA4FAA8F075F07FEBA428FBEAF8EBF900
:104CA3007A327B0022E511A2E0B3E433F50CE50A86
:104CB3009AF8E50B9BF9851108E88508F0A4F885B7
:104CC300F0118508F0E9A42511F9EAC3950AFAEB76
:104CD300950BFBEA850CF0A4FA85F008850CF0EB44
:104CE300A42508FBE82AF508E93BF509E50875F072
:104CF30003A4F508A8F075F003E509A428F5098CC9
:104D03000A8D0BE50AC333F50AE50B33F50BE51002
:104D130022900781E0F512A3E0F513C32274F71282
:104D230018F974F61218A2E9FEEAC333FAEB33FB5F
:104D330074682AF874073BF988828983ECF0A3ED41
:104D4300125263F088828983E0C0E074011218ED87
:104D5300D0E0124DB4EEF912151E7A007B00EAF88A
:104D6300EBF9E8C333F8E933F974021218EDE5827D
:104D730028FCE58339FD746828F8740739F98882BB
:104D83008983A3E08C828D83F088828983E08C827F
:104D93008D83A3125025940412509C40C1740212B7
:104DA30018EDAC82AD837A0879011215A2740A80DA
:104DB30010F0851882851983AC82AD837A02227440
:104DC300041218B87F010219CB74F01218F974F6A3
:104DD3001218A28A088B09750E00750F00E50EC321
:104DE30033FEE50F33FF74682EF50C74073FF50DA2
:104DF300850C82F583A385820A85830BE5082EF54E
:104E030082E5093FF5831254436028850C82850DA2
:104E13008312540E851882851983124E88C0E0745C
:104E2300011218EDD0E0124DB4E50EC333248DF911
:104E330012151E74021218EDE5822EF8E583124E48
:104E430071E50E2401F50EE50F3400F50FC3E50EF1
:104E53009404E50F12509D408474021218EDAC8245
:104E6300AD837A0879011215A2740A0242153FF93B
:104E7300850A82850B83E088828983124E88888223
:104E83008983A3F022F0850C82850D83E02274ECE4
:104E93001218F98A0C75100075110075120075133C
:104EA300007A00850C088B098C0A8D0BEA333333A7
:104EB30054F878081216A0909000780812173974E5
:104EC30003C39A33333354F878081216B978107938
:104ED3000812175F0AEAC3940440C8AA10AB11ACC6
:104EE30012AD137F0C0219CB74F71218F974FC126C
:104EF30018A2EAFEEBFF1211A01211A612128A8564
:104F0300188285198312179C851882851983EEFCF4
:104F1300EFFDECFAEDFB74041217B5024DC274F405
:104F23001218F97A057B001211B88A088B09AE08AA
:104F3300AF09740C1218ED1248C378017900C3E469
:104F430098FAE499FB740C1218EDE5822AF582E5D0
:104F5300833BF583A3A3A3A3A3E0C0E0EE28F582DC
:104F6300EF39F583D0E01250E240D3EEFCEFFD7A47
:104F73000579061215A2EEFAEFFB1211BE740C129C
:104F830018EDE06018740D1218ED7808121772E529
:104F9300084509450A450B7004790180027900022E
:104FA300571174F61218F9900950E060707A107B6B
:104FB300001211B88A088B09AE08AF09900783E085
:104FC30075F00FA4F8A9F0745628F8740939F9128A
:104FD30048C3900783E004F07A007B00E82AF58257
:104FE300E93BF583E0C0E0EE2AF582EF3BF583A3CE
:104FF300D0E0125025940F12509C40E0EEFCEFFDE0
:105003007A1079081215A2EEFAEFFB1211BE90077F
:1050130083E0C394434006E4F0900950F07F02021A
:1050230019CBF0EA24010AEB3400FBC3EA2274F63D
:105033001218F974FC1218A2851882851983AA82A2
:10504300AB831212907A047B001211B88A088B0981
:10505300AE08AF0978007900851882851983E58247
:1050630028F582E58339F583E0C0E0EE28F582EF89
:1050730039F583D0E01250F49404E912509D40D8DE
:10508300EEFCEFFD7A0479071215A2EEFAEFFB129C
:1050930011BE74041218B88084EB1250EC22C08243
:1050A300C0838A828B83E0900D43F078017900EA14
:1050B30028F582EB39F583E0C0E0C3E498FCE4997A
:1050C300FD74482CF582740D3DF583D0E01250E257
:1050D30040DD7C437D0D7A01799B12151E801F12E2
:1050E30050F49405E91250EC229400A2D265D03317
:1050F30022F0E8240108E93400F9C3E822F0D08360
:10510300D082020122C082C08390094FE4F090074D
:105113005DF090075FF0900949F0A380E0C082C082
:10512300838A828B83A3E0F8748168600D740168BD
:1051330060087480686003E8700BEAFCEBFD7A0496
:10514300798912151E12127280B474F71218F9EAD3
:10515300FEEBFF8E828F83E0F9A3E0900FBE125225
:105163006B799912151EEEFCEFFD7A027902121586
:10517300A2024DC774F71218F974F81218A2EAFCC8
:10518300EBFD8C828D83E0C0E074011218EDD0E05A
:10519300F08C828D83A3E0851882851983F0EC243B
:1051A30002FEED3400FF8E828F83E0C0E0740312B1
:1051B30018EDD0E0F08C828D83A3A3A3E0C0E0744C
:1051C300021218EDD0E01252631254439009526058
:1051D3000C12540E7A02799512151E800C12527914
:1051E30085188285198312540E74021218ED125415
:1051F30043900954600BE812526B799712151E8085
:105203000B12527974021218ED12540E7401121813
:10521300EDE0C0E074041218EDD0E0125263E0C078
:10522300E074051218EDD0E0F074031218EDE0C03D
:10523300E074061218EDD0E0F074021218EDE0C02D
:10524300E074071218EDD0E0F074041218EDAC828C
:10525300AD837A0479031215A27408024DC4E508DC
:10526300F085188285198322F0A3E9F0EEFCEFFDA7
:105273007A022290094BE0F8A3E0F922C082C083AE
:10528300900764E0640170059007668008E0640697
:10529300600C90095212527990094B12540E9007E8
:1052A3005DE0703F90075EE064037027C390094A96
:1052B30012541450030253F0900949C3E09401A31C
:1052C30012541440030253CB75800053FD0F900713
:1052D3005E800CE0700302540B75800053FD0FE4F5
:1052E30002540AF890075EE0687003025392900735
:1052F3005DE0146009146017146026025389900955
:105303004BC082125419D0821254255079802D90AB
:105313000954125437125276C3EA98EB99506780B6
:1053230035900952C082900762125279758309D071
:1053330082125425500F900952125279900762E855
:10534300F0A3E98018900954125437900762C3E020
:105353009AA3E09B5008900762EAF0A3EBF0900752
:1053630070E0F9900762C08290094B12543775833D
:1053730007D082E0C39AFAA3E09BFB12127890094C
:1053830049EAF0A3EBF090075DE090075E80789028
:105393000949125443701675800053FD0F90075D41
:1053A300E4F090075FF090094F7402805A90075D14
:1053B300E0146005146024804F90094BC08212549E
:1053C30019D082125425503343FDF0758040900963
:1053D30049E024FFF0A3E034FF802C900954C082FD
:1053E300125276758309D082125425500E43FDF074
:1053F300758080900949124758800C75800053FDD1
:105403000F900949E4F0A3F0025101E8F0A3E9F099
:1054130022E01250EC22900952E0F8A3E0F97583E0
:105423000922C3E098A3E09922E8FCE9FDECC33329
:10543300FCED33FDE0FAA3E0FB22850882850983B6
:10544300E0F8A3E0F9E84922C082C083E590540F55
:10545300900784F090094FE0640170030255C590F2
:105463000784E0640F90094F7020E4F090075DF02B
:10547300900785740FF090075EE064037003025594
:10548300C575800053FD0F0255C57402F090094E97
:10549300E060030255C5900785E0F8900784E06853
:1054A30070030255C590075EE0640370030255B2B2
:1054B300900784E024FD700302554924FE602C24E8
:1054C300FE602024FE700302556A24FE605724FE0A
:1054D30060091470030255A50255BD90075D740160
:1054E3000255BC90075D74020255BC900764E064EA
:1054F30006601D900768E0F47003A3E0F4700302F4
:1055030055BD90075D7403F090076812527980755A
:10551300125825798D7A007B0012127E43FDF075B7
:1055230080C00255BD900764E06406600590076A79
:105533008040125825798F7A017B0012127E43FD39
:10554300F07580208074900764E06406600590071E
:105553006C801F12582579917A027B0012127E43C8
:10556300FDF07580A08053900764E06406601F908F
:10557300076E12527974FF68700374FF69603B9081
:10558300075D7403F0900762E8F0A3E9802B1258DB
:105593002579937A037B0012127E43FDF0758060B8
:1055A300801890075DE4F043FDF0758010800B9048
:1055B300075DE4F0900949F0A3F0900784E09007B9
:1055C30085F002510174F41218F9E9FE74046E6057
:1055D300030256FB900760125443700302570A906C
:1055E3000760C3E0941EA3E09400500D7C047D008B
:1055F3007A867B0712149480077A047B0012149A2C
:10560300900786E090078EF0900787E0F990078F68
:10561300F0900788E0FA900790F0900789E0FB90FC
:105623000791F0909004780812177290078A78080F
:105633001215CC7072909008780812177290078E2A
:1056430078081215CC604C90078E78081217727484
:10565300016508700474026509601490078E780868
:10566300121772740165087004740165097024903F
:10567300900C780812177290078E78081215CC6078
:1056830012909010780812177290078E78081215EE
:10569300CC701490078E7401F0A37404F0A374010A
:1056A300F0A374AAF0806090078E780812177274C2
:1056B300016508700474056509700E90078A7C8E75
:1056C3007D0774041217B5800FE9900764F0EA9020
:1056D3000767F0EB900766F090078E780812177251
:1056E30090078A78081215CC601D90078E7C8A7DFE
:1056F3000774041217B5800FEEC3940540098E0892
:10570300AA087B0012149A900760E4F0A3F07F04C8
:105713000219CB74F41218F9EAFEEBFFEEF8EFF975
:10572300E8C333F8E933F9900770E0600C146011B3
:105733002481601514601A80227508CE75090E80C5
:105743001A7508D875090E80127508CE75090E8072
:10575300067508D875090EE8FEE9FF1252767583BF
:1057630007758262E0C398FAA3E099FB85088285F6
:105773000983125828C3EC9EED9FA2D265D0335003
:105783002E900770E0F91212788A0A8B0BAC0AADDF
:105793000BEEF8EFF9850882850983A3A31254372A
:1057A30012180F880A890B8508828509838047C3ED
:1057B300E49CF8E49DF9C3EE98EF99A2D265D03347
:1057C300505D900770E0F91212788A0A8B0BAC0ACD
:1057D300AD0BEEF8EFF9850882850983A3A3A3A394
:1057E300A3A312543712180F880A890B85088285E0
:1057F3000983A3A3A3A3A3A3A3A3125279E8850AAE
:10580300F0A4C8AAF0850BF0A42AFA850AF0E9A44B
:105813002AF9ECC398F8ED99F990094912540E024C
:10582300571190094BE0FCA3E0FD2202012274F022
:105833001218F974FA1218A2890BECFEEDFF750A1F
:10584300008A088B097808121B50000410645A74EC
:10585300589258AC58C458E258FA581D593559490A
:10586300597359FB590C5A235A3E5A645A645A893C
:10587300597401650B6003025A5F8E828F83E0F8CF
:10588300C394034003025A5FE8900F8A025A3B74A1
:1058930002650B6003025A5F8E828F8312616190EF
:1058A3000F8BE8F0A3E9025A3B7401650B60030216
:1058B3005A5F125A8C4003025A5FE890079B025AC0
:1058C3003B7401650B6003025A5F8E828F83E0F89D
:1058D300C394054003025A5FE890079C025A3B7445
:1058E30001650B6003025A5F125A8C4003025A5F30
:1058F300E890079D025A3B7410650B6003025A5FE0
:105903007508107509007808121B0C7A9E7B071224
:10591300112274021218B8025A857401650B6003D0
:10592300025A5F125A8C4003025A5FE89007AE0294
:105933005A3B7401650B6003025A5F8E828F83E0CA
:10594300900F8E025A3B7404650B6003025A5F8EFC
:10595300828F83780C121772909064780C12160160
:105963005003025A5F9007B0780C121781025A85D0
:10597300E96003025A5F12078CE970051213628013
:1059830060900843806E7407650B6003025A5F756D
:1059930008067509007808121B0C8E828F83A3AC4E
:1059A30082AD8374021218EDAA82AB83121128749C
:1059B300021218B87C007D00851882851983AA829B
:1059C300AB838E828F83E0F9121308E9F508C39441
:1059D3000A4003025A8212078CE9700CA9081213B9
:1059E30068795012152A806F74442508F58274086B
:1059F3003400F583740180407401650B705E125AA4
:105A03008C5059E89007AF802F7401650B704D8E51
:105A1300828F83E0F8C3940A5042E8900F8D801878
:105A23007401650B70368E828F83E0F874F928C396
:105A3300940A5028E8900F8FF080477401650B702B
:105A43001B900842E0F88E828F83E0900842F0E8D2
:105A53007030E06401702B1213568026750A18808B
:105A630021C3EA9427EB940050157402650B700F61
:105A73008E828F8312656012062AE9F50A80037508
:105A83000A02A90A74060261568E828F83E0F8C364
:105A930094022274F01218F974CC1218A28C0A8D95
:105AA3000B74201218EDAC82AD8375838F7582D889
:105AB30074061217B574201218EDAC82AD8312135D
:105AC30008E9F50874441218EDE0FEE9C3940A40AE
:105AD30003025C0475F006E9A4F50974261218EDB7
:105AE300AC82AD837A0E74202509F9121524E9706E
:105AF3000974321218EDE0FF80027F00900F8AE0F4
:105B03006402700474018001E4F50D780D121B101A
:105B1300EEFDEFFCA908AA0AAB0B12138C74011259
:105B230018B87C147D007900740C1218EDAA82ABAE
