:020000040000FA
:0600000002010A0221AC1E
:03002B0002262189
:030033000226039F
:03003B0002264258
:030043000225B7DC
:0300530002222264
:03006B000225DD8E
:1000830002205BE5C754F84401F5C779012200005B
:100093000080FB120086B900030200F4E4792178A2
:1000A30008B800028004F709D8FCE479297802B87B
:1000B30000028004F709D8FCE4900281782B790CC4
:1000C3008002F0A3D8FCD9FA900DABAA82AB83903F
:1000D300013A780779058015E493A3AC82AD838A4E
:1000E300828B83F0A3AA82AB838C828D83D8E9D9D8
:1000F300E77582757583BA740312011C7582917555
:100103008300740012011C75D00075813F7518813E
:10011300751902759F00020096C09FF59FE473D086
:100123009F22D083D082C09FE493C0E0740193C028
:10013300E0740293F59F22FF0000B400002800281A
:1001430000283075A000A000A000A000000800084F
:10015300E001F0001000100010001000100010006B
:1001630050005000500010001000D00700000000A5
:1001730000000F00010005003075070010000100AA
:1001830081FF00000000FF3E075C074407FF0202F7
:100193000208025000A0000000E80302DD90010005
:1001A30000909002AF90010000020E029B900100AC
:1001B30000B30202AF90010000030E029990010008
:1001C30000C90202AF90010000040E02A1900100D9
:1001D30000CB0202AF90010000050E02C19008009F
:1001E30000CC0202AF90010000060E02AD900100A8
:1001F30000070EFF0100FF2002DD90010000939035
:1002030002AF900100006B0E02AB900000000000F3
:10021300029D9003000019036E0D6E0D6E0D6E0DA1
:100223006E0D6E0D6E0D6E0D6E0D6E0D6E0D6E0DF3
:100233006E0D44105C103E10FFFF0200E2FF02004F
:10024300E7FF0200F3FF0200F3FFFAFF07000300DA
:10025300F9FFFBFF07000400F7FF07000300090095
:1002630003000A000E0005000D0005000E00020247
:1002730002020202020202010D000000100102DD6F
:1002830090010000969002AF90010000E20E02C3BD
:1002930090010000920702AF90010000E30E02BF3D
:1002A300900100006B8F02AF90010000E40E02BDCD
:1002B300900100005D8F02AF90010000E50E02BBCC
:1002C30090010000CB8E02AF90010000E60E02B950
:1002D30090010000B98E02AF90010000E70E02B753
:1002E30090010000DD8E02AF90010000E80E02B520
:1002F30090010000958E02AF90010000E90E02B359
:10030300900100004F8F02AF90010000EA0E02B18E
:1003130090010000EB0E01E803053F100AFF000106
:100323003075030201060000000000000000000019
:1003330000000000000000000000000000000000BA
:100343000000FFFF0600800CE80384030F0013097D
:100353004F666669636577656C6C20233030303097
:100363003132051208000800020A000201060302E6
:10037300F1FF53696D706C6520424C4520506572E6
:100383006970686572616C721500007E150A4861B8
:1003930072647761726520496E666F726D6174690C
:1003A3006F6E000A507265736574204865696768EB
:1003B30074000A506F7374757265204A75646765BB
:1003C3006D656E74000A416374696F6E2052616ECD
:1003D30067650008436F6E74726F6C20436F6D6DB9
:1003E300616E6400125065736B205374617475738E
:1003F300000A4C6F636B2053746174757300025071
:100403006F77657275702054696D657374616D7073
:100413000000104865616C74682044617461000ACF
:100423004175746F6D61746963204D6F7665204407
:10043300617461000002DD90010000B98F02AF908A
:10044300010000011002CB900300006A0D029F908F
:10045300010000021002AF90010000171002CD90BE
:100463000300006E0D029F90010000181002AF9070
:10047300010000261002CF90030000760D029F902A
:10048300010000271002AF90010000391002D19043
:10049300030000780D029F900100003A1002AF9014
:1004A300010000471002D3900200007C0D029F90D0
:1004B300010000481002AF90010000581002D590CF
:1004C3000100007D0D029D90030000810D029F90AD
:1004D300010000591002AF90010000651002D7908F
:1004E300030000870D029F90010000661002AF9089
:1004F300010000721002D9900100008C0D029F9040
:10050300010000731002AF90010000861002DB901F
:10051300000000900D029D90030000A00D029F902B
:10052300010000871002AF90010000931002C790F2
:10053300030000A60D029F900100009410120125F4
:1005430031AA0312012548AA0312012579AA03122D
:100553000125B4AA03120125DEAA0312012508AB63
:10056300031201251FAB0312012536AB031201252C
:100573004DAB0312012576AB0312012589AB0312A0
:1005830001259FAB03120125B2AB03120125D9ABA1
:100593000312012538A5021201253CA602120125EA
:1005A30074A60212012597A602120125A2A6021221
:1005B3000125C5A602120125D4A702120125A9A867
:1005C3000212012524A902120125ACA90212012558
:1005D300E7A9021201251EAA02120125ACAA0212E2
:1005E300012585AB02120125E5AB02120125F0AB13
:1005F300021201256FAC0212012572AC0212012511
:1006030075AC0212012504AD0212012507AD0212D9
:10061300012537AD0212012561AD021201254FAE4E
:100623000212012501AF02120125C3840312012521
:10063300EB8403120125198503120125508503124A
:100643000125AE8503120125F98503120125448690
:1006530003120125848603120125CA86031201258C
:10066300F88603120125B58703120125BF870312FC
:100673000125CC8703120125FF8703120125CB88AF
:1006830003120125D78803120125EF8803120125E0
:10069300F9880312012523B60312012531B603128B
:1006A300012549B60312012561B60312012571C460
:1006B300011201251DC50112012598C5011201254D
:1006C300B9C601120125F5C6011201259EC7011203
:1006D300012585C801120125E9C90112012540CA76
:1006E30001120125C1CA01120125B1CB0112012555
:1006F300FECB0112012584CC01120125B6CC0112D7
:100703000125CACE011201250CCF011201252ACFE2
:1007130001120125ADCF0112012581D0011201255E
:1007230049D101120125D4E302120125A7E40212E3
:10073300012550E502120125A3E50212012553E626
:1007430002120125DFE602120125CBE70212012581
:10075300FAE7021201250DE90212012555E90212F9
:1007630001252AEA0212012566EA0212012582EA1C
:1007730002120125D2B80312012596920312012514
:10078300AC9203120125D29203120125EE930312B8
:100793000125F893031201252D95031201252596B2
:1007A30003120125AFF602120125DFF7021201251C
:1007B30012F8021201255CF80212012523FA021233
:1007C300012582B401120125ECB4011201254BB6B7
:1007D300011201255BB60112012588B6011201251C
:1007E300DFB60112012588B7011201258FB8011266
:1007F300012559B901120125B9BA01120125FCBA23
:1008030001120125A1BB01120125EEBB0112012535
:1008130014BC0112012522BE0112012527BE0112BB
:1008230001252CC00112012579C001120125ECC05C
:10083300011201251FC101120125C1C101120125A8
:100843006AC201120125A2C201120125A5C2011229
:100853000125EDC2011201252DC30112012584C317
:1008630001120125879F031201259F9F0312012572
:10087300E79F03120125FD9F0312012544A00312E4
:10088300012558A103120125E5A10312012530A278
:1008930003120125B42600120125C02600120125EA
:1008A300FB26001201254027001201250028001213
:1008B3000125862800120125EB280012012517299E
:1008C300001201255029001201258E2B001201254B
:1008D300722D00120125582F001201259B300012A2
:1008E3000125E93200120125FB33001201254635AB
:1008F3000012012556360012012573360012012518
:10090300AE3600120125D03600120125333700120E
:100913000125F43B00120125893C00120125DA3C34
:1009230000120125013D00120125533D001201254E
:10093300713D00120125CB3D00120125B43E00128A
:1009430001252A4000120125AE40001201258089AD
:10095300031201258A8903120125CD89031201257A
:10096300E88903120125788A03120125A08A03125C
:100973000125DD8A03120125148B031201253D8B0A
:1009830003120125B28B03120125C78B0312012524
:10099300DC8B031201250D8C03120125218C03121C
:1009A3000125468C03120125808C03120125AC8C92
:1009B30003120125388D03120125638D03120125CE
:1009C300AC8D03120125D68D03120125018E03126E
:1009D300012507B203120125378D02120125658D0A
:1009E30002120125B38E02120125938F02120125F3
:1009F300B28F021201252F9002120125729002126A
:100A03000125C89102120125899202120125109530
:100A130002120125B19502120125A79602120125A2
:100A2300A49702120125FE98021201258999021248
:100A33000125ACB00312012515B10312012569B1DB
:100A43000312012590B103120125C1B1031201253F
:100A5300298E03120125968E03120125DD8E0312C2
:100A63000125F58F03120125F19003120125D4917D
:100A730003120125AFCB02120125F1CB021201258E
:100A8300C3CC021201259CCD0212012596CE02127F
:100A9300012578CF02120125E1CF0212012597D05B
:100AA300021201250BD10212012577D10212012571
:100AB300A0D1021201251AD202120125B3D20212C9
:100AC300012518D3021201252DD30212012573D358
:100AD300021201258CD302120125F1D30212012542
:100AE300F4D3021201258E9C03120125B69C031236
:100AF3000125F49C03120125B29D03120125199EC1
:100B030003120125359E031201255D9E0312012563
:100B13008D9E031201259C9E03120125199F03122A
:100B230001253F9F031201257AA40112012518A66E
:100B33000112012533A8011201256FA80112012515
:100B43009CA80112012581A901120125C8A901123E
:100B530001250CAA011201251EAA011201255EAA74
:100B6300011201258BAA01120125D6AA0112012522
:100B730016AB0112012544AB0112012596AB0112FC
:100B8300012526AC01120125C4AE01120125DAB0FC
:100B93000112012518B101120125A9B20112012583
:100BA300EEB20112012565B301120125AFB30112A3
:100BB300012557B4011201253CB902120125BBB925
:100BC300021201257DBF021201258CC002120125EC
:100BD300F4C1021201258BC202120125E190011218
:100BE30001252A91011201255791011201258A91AC
:100BF30001120125979101120125A39101120125EB
:100C0300B591011201259C9201120125FA9201125C
:100C130001252F9301120125729401120125BF941E
:100C230001120125E39401120125509501120125BA
:100C33000E9601120125C796011201253497011260
:100C43000125E69701120125F697011201257D98EA
:100C5300011201253C99011201256999011201250F
:100C6300E299011201253F9A01120125899A011285
:100C730001251F9B01120125EA9B011201259F9C5F
:100C830001120125149D01120125759D01120125F3
:100C9300DF9D01120125189E01120125BA9E011242
:100CA3000125CA9F011201250AA00112012527A0CF
:100CB3000112012546A0011201258DA00112012573
:100CC300B2A001120125DFA00112012559A10112D1
:100CD30001259AA101120125BEA2011201256EA3CD
:100CE30001120125C5A3011201252FA4011201251B
:100CF30048A40112012572AF02120125C5AF0212E9
:100D03000125D1AF02120125A6B002120125CDB0F3
:100D13000212012508B10212012574B10212012544
:100D2300B0B102120125E9B10212012501B202128A
:100D3300012556B2021201256FB202120125B8B283
:100D430002120125CBB202120125E5B202120125DE
:100D5300FBB2021201252EB40212012575B502124F
:100D6300012577B60212012571B702120125FD7F15
:100D73000012012500800212012530800212012594
:100D8300F883021201254F850212012518860212EB
:100D93000125988702120125698802120125A68878
:100DA30002120125C98802120125078902120125B1
:100DB3001089021201255A8902120125648902123F
:100DC30001250E8A02120125E78A021201253B8BB7
:100DD300021201259D8B02120125F08B02120125BF
:100DE3001F8C021201255C8C02120125BA6D0012C0
:100DF3000125217100120125277100120125A97611
:100E030000120125227B00120125F87E0012012524
:100E13002F9603120125A59603120125BB960312F3
:100E23000125FC9603120125369703120125AF977E
:100E330003120125EA97031201255D980312012588
:100E43009B9803120125A49803120125B09803125D
:100E53000125CC9803120125F798031201250D995A
:100E63000312012551990312012500800312012564
:100E73001380031201252D800312012556800312CE
:100E83000125998003120125D880031201251681BB
:100E9300031201257B810312012590810312012591
:100EA3009B8103120125A88103120125BF8103122F
:100EB3000125CD8103120125D88103120125E48187
:100EC30003120125F7810312012502820312012572
:100ED300258203120125CC8203120125DC82031231
:100EE3000125F682031201251383031201252F83A3
:100EF300031201255483031201255F830312012585
:100F0300748303120125888303120125E9830312E5
:100F13000125EF8303120125F58303120125FB83CA
:100F230003120125138403120125468403120125AC
:100F3300D3E10112012557E20112012506E3011253
:100F4300012565E40112012586E60112012572E7F8
:100F530001120125A7E701120125C9E701120125A5
:100F630078E80112012570EA0112012599EA0112BC
:100F730001252BEB011201255DEB011201256AEB23
:100F830001120125C1EB01120125E7EB0112012535
:100F930054EE0112012557EF01120125AFEF0112A3
:100FA300012562D3011201256CD40112012553D509
:100FB300011201255DD5011201257FD501120125FD
:100FC3008BD50112012524D70112012553D7011214
:100FD30001256FD801120125C8D8011201252EDA87
:100FE300011201250DDB0112012569DB0112012527
:100FF300D6DB0112012511DC0112012550DC01129F
:10100300012509DF0112012523DF01120125AFDFCD
:1010130001120125BDDF0112012516E00112012590
:1010230024E00112012597E001120125FBE00112E2
:10103300012545E1011201250A9A021201252C9A84
:1010430002120125529C02120125679F02120125FB
:101053007FA00212012532A10212012514A202125D
:101063000125EBAB0312012510AC0312012582AC61
:10107300031201255ADC0212012563DC0212012549
:101083006CDC0212012543DD02120125F4DE02129B
:1010930001252ADF0212012564DF021201259ADFEE
:1010A30002120125D4DF0212012508E002120125F4
:1010B30034E0021201257DE002120125B7E002129D
:1010C300012500E10212012558E1021201258DE1FB
:1010D30002120125E8E10212012522E20212012592
:1010E30073E202120125A9E202120125E3E20212D0
:1010F300012511E30212012534E302120125FAB698
:101103000312012526B70312012581B70312012516
:101113008BB7031201259BB7031201252EF102128F
:10112300012538F10212012576F102120125BFF1E2
:1011330002120125F9F10212012553F202120125CF
:1011430074F2021201257DF202120125CAF2021283
:101153000125F3F202120125FDF20212012569F3C2
:1011630002120125FBF30212012545F402120125A7
:101173007BF40212012507F50212012548F502123C
:1011830001257FF50212012591F502120125B0F523
:1011930002120125B9F50212012581F60212012579
:1011A30020B30312012517B403120125FCFD01121C
:1011B300012532FE0112012568FE01120125B3FF4C
:1011C3000112012556B9031201256CB90312012539
:1011D30076B903120125C0B903120125D6FB021209
:1011E3000125EBFB021201259EFC02120125DEFC08
:1011F30002120125F7FC0212012532FD021201251C
:101203007FFD02120125B1FD02120125F3FD021239
:1012130001252CB50312012555B50312012584B50B
:10122300031201259CB503120125DEB50312012526
:1012330015410012012567410012012519420012D0
:101243000125124300120125D34300120125DD4479
:1012530000120125AF4500120125CE4500120125DC
:101263006646001201255747001201256747001201
:101273000125B04700120125C04800120125164D73
:1012830000120125C24D00120125874E00120125CF
:10129300E14E00120125174F001201259B4F00124A
:1012A3000125275000120125975000120125FE50F9
:1012B3000012012516510012012543510012012588
:1012C3006D5100120125755200120125415400127F
:1012D3000125BE55001201250C57001201255AA203
:1012E300031201257FA203120125A9A203120125DE
:1012F3001FBA03120125245800120125895A00122E
:1013030001252A5C00120125DE5C00120125715DB6
:1013130000120125F65D001201251B5E0012012556
:10132300716100120125F761001201252A63001281
:101333000125646300120125996300120125596593
:1013430000120125B66500120125FF650012012573
:101353006A6600120125DB66001201250D67001283
:1013630001252567001201256E68001201257E689C
:1013730000120125996900120125BB69001201259C
:10138300F16900120125A56B00120125326C0012D0
:101393000125716C00120125956D00120125477F0F
:1013A30000120125587F00120125C8BA0312012536
:1013B30007BB03120125EDFF01120125A5B7031297
:1013C3000125B5B703120125CDB70312012533B8A3
:1013D3000312012528B403120125ADB4031201251C
:1013E30013B50312012532AF031201255BAF0312BC
:1013F3000125C6AF0312012517B00312012572B0F0
:101403000312012526A5031201253BA5031201257D
:1014130057A603120125CBA603120125E5A6031245
:101423000125FCA6031201250FA70312012529A7F5
:101433000312012540A70312012566A70312012504
:10144300B7A7031201255BBB031201258199031280
:101453000125119A03120125819A03120125129B7A
:10146300031201251B9B03120125999B03120125DE
:10147300AC9B03120125189C03120125789C0312CF
:1014830001258B9C031201253DB803120125ACB83D
:1014930003120125B7B803120125C7B803120125AA
:1014A30090AD03120125E2AD031201256CAE0312C8
:1014B3000125D3AE03120125ECA70312012516A8BB
:1014C30003120125E4A803120125BFA90312012574
:1014D30018D402120125DFD40212012516D50212F7
:1014E300012540D502120125A0D502120125F6D50A
:1014F300021201255BD602120125F3D60212012541
:1015030002D80212012599D90212012526DA021204
:1015130001258DDA02120125A4DA02120125BEDBB0
:1015230002120125FCDB02120125FDEF0112012548
:101533007EF30112012506F5011201255DF5011265
:1015430001257CF501120125FAF50112012590F719
:101553000112012575F80112012583FC01120125F1
:1015630059FD01120125B5C20212012548C6021216
:1015730001251BC7021201254FC8021201259DC96F
:101583000212012514CB021201259BCB0212012565
:10159300F7EA0212012547EB0212012564EB02125E
:1015A3000125FBEC0212012597ED0212012593EEB2
:1015B30002120125F5F00212012511BB03120125C8
:1015C3003DBB03E066701008A3E066700A08A3E061
:1015D30066700408A3E06622C3E7960809E7960845
:1015E30009E7960809E79622C3E09608A3E0960860
:1015F300A3E09608A3E09622C008C3E096F5080886
:10160300A3E096420808A3E096420808A3E09645A3
:10161300087001D3D00822080808EAC0E0EBC0E054
:1016230086F0E7A4FA180986F0E7A42AFA180986CF
:10163300F0E7A42AFA180986F0E7A42AFA1986F033
:10164300E7A4FBE5F02AFA190886F0E7A42BFBE5EB
:10165300F03AFA190886F0E7A42BFBE5F03AFA18FA
:10166300180986F0E7A4C5F02BFBE43AFA1908E75A
:10167300C5F0C6A426F6E5F03BFBE43AFA1886F07B
:10168300E7A4F6E5F00826F6E43B08F6E43A08F6A4
:10169300D0E0FBD0E0FA226016080808C6C313C6E0
:1016A30018C613C618C613C618C613C6D5E0EA2251
:1016B3007009080808226016181818C6C333C6082C
:1016C300C633C608C633C608C633C6D5E0EA22E623
:1016D30027F60809E637F60809E637F60809E63774
:1016E300F622E026F608A3E036F608A3E036F6086D
:1016F300A3E036F622E026F008A3E036F008A3E0E4
:1017030036F008A3E036F022C3E697F60809E69719
:10171300F60809E697F60809E697F622C3E096F07D
:1017230008A3E096F008A3E096F008A3E096F02261
:10173300E056F608A3E056F608A3E056F608A3E041
:1017430056F622E056F008A3E056F008A3E056F060
:1017530008A3E056F022E647F60809E647F608092B
:10176300E647F60809E647F622E0F608A3E0F6089E
:10177300A3E0F608A3E0F622E6F008A3E6F008A348
:10178300E6F008A3E6F022E0FAA3E0FBA3E0FCA363
:10179300E0FD22EAF0A3EBF0A3ECF0A3EDF022CA04
:1017A300C0E0E6F0A308DAFAD0E0FA22CAC0E0E02B
:1017B300A3C582CCC582C583CDC583F0A3C582CC26
:1017C300C582C583CDC583DAE6D0E0CA22C3E498D7
:1017D300F8E499F91218118026C3E49AFAE49BFB02
:1017E300E920E7E9121811E498F8E499F922C3E42F
:1017F30098F8E499F9121811E498F8E499F9C3E414
:101803009AFAE49BFB22EB20E7CFE920E7E0B9005B
:1018130010BB0008E88AF084F8AAF022E4FBC8FAB7
:1018230022EB70227B10C833C8C933C9335007C3B6
:101833009AC3DBF280069A50012ADBEAC833F4C864
:10184300C933F4C9FA2275F008E4C833C8C933C9E7
:1018530033C99AC99B5004C92AC93BD5F0ECFBC8CC
:1018630033F4C8E4C9FA22600D08C6A2E713C61808
:10187300C613C6D5E0F322600C08C6C313C618C648
:1018830013C6D5E0F422700422600D18C6C333C614
:1018930008C633C6D5E0F41822251810AF08F5188A
:1018A300400215198008F51840021519D2AF22C05D
:1018B300D0251810AF08F518500205198008F5183F
:1018C30050020519D2AFD0D0222518F58210AF08E7
:1018D300F518400215198008F51840021519D2AF02
:1018E300851983222518F582E43519F58322E473DB
:1018F3002518C582C0E0E51934FFC583C0E0E518AB
:10190300C3958224F810AF0885831985821880084F
:10191300858319858218D2AFCEF0A3E520F0A37892
:1019230008E608F0A3DEFAEFF0A3E58124FAF8E66F
:1019330008F0A3E608F0A3E608F0A30808E608F019
:10194300A3E608F0A315811581D0E0FED0E0F815D9
:101953008115811581E8C0E0EEC0E0222518C5821B
:10196300C0E0E51934FFC583C0E0E518C3958224C0
:10197300F910AF0885831985821880088583198536
:101983008218D2AFCEF0A3E520F0A37808E608F0E2
:10199300A3DEFAEFF0A3E58124FBF8E608F0A3E663
:1019A30008F0A30808E608F0A3E608F0A3158115DC
:1019B30081D0E0FED0E0F815811581E8C0E0EEC0EB
:1019C300E022851983851882E0A3FEE0A3F5207841
:1019D30008E0A3F608DFFAE0A3FFE0A3C0E0E0A37A
:1019E300C0E0E0A3C0E0E0A3C0E0E0A3C0E010AF2C
:1019F300088582188583198008858218858319D202
:101A0300AFD083D082020122851983851882E0A397
:101A1300FEE0A3F5207808E0A3F608DFFAE0A3FFD1
:101A2300E0A3C0E0E0A3C0E0E0A3C0E0E0A3C0E027
:101A330010AF0885821885831980088582188583ED
:101A430019D2AFD083D08222C0D02518C582C0E07E
:101A5300E51934FFC583C0E0E518C3958224F3106C
:101A6300AF088583198582188008858319858218B4
:101A7300D2AFC8F0A3E9F0A3EAF0A3EBF0A379088F
:101A8300E709F0A3D8FAECF0A3EDF0A3EEF0A3EF8F
:101A9300F0A3D0E0F0A3D0E0F0A3D0E0F0A3E520E2
:101AA300F0A3E5F0F0A322851983851882E0C0E056
:101AB300A3E0F9A3E0FAA3E0FBA37808E0F608A308
:101AC300DFFAE0FCA3E0FDA3E0FEA3E0FFA3E0C098
:101AD300E0A3E0C0E0A3E0F5D0A3E0F520A3E0A3FA
:101AE300F5F010AF0885831985821880088583195E
:101AF300858218D2AFD082D083D0E0F8D0E03274A0
:101B0300048006740280027401C0E0F4041218CC4D
:101B1300D0E01217A2227404800474028000CCC0A7
:101B2300E0EDC0E0E518C39CCCAD1950011D10AF2A
:101B3300068C188D1980068C188D19D2AF1217AF29
:101B4300D0E0FDD0E0FC22D083D082E9C0E0E49372
:101B5300A3C386F0C5F095F0F908E493A386F0C516
:101B6300F095F0700BE493A3C3994005E904800258
:101B7300A3E475F002A42582F582E5F03583F583AD
:101B8300D0E0F9E493A3C0E0E493C0E022D083D093
:101B930082ECC0E0EDC0E0E493A3FCE493A3FDED8D
:101BA3004C600D121BDCEC24FFFCED34FFFD80EFD9
:101BB300E493A3FCE493A3FDED4C600D121C1BEC1A
:101BC30024FFFCED34FFFD80EFD0E0FDD0E0FCE42A
:101BD30093A3C0E0E493C0E022C0E0C3E49396087B
:101BE3007401939618400FE4936670080874019388
:101BF300661870007019A3A3C3E493960874019345
:101C03009618A3A3400DD0E0D0E0D0E0021BCCA3F4
:101C1300A3A3A3A3A3D0E022C0E0C0F088F0E49381
:101C23006670080874019366187000A8F0A3A37087
:101C33000BD0F0D0E0D0E0D0E0021BCCA3A3D0F0D7
:031C4300D0E022CC
:101C480074F512195FEAFEEBFFEE2434F8EF340066
:101C5800F988088909EE2435121D74F8EE24371224
:101C68001D74F50AEC850AF0A4FCAAF0850AF0EDCB
:101C7800A42AFDE82CF8E43DF97A257B0012181116
:101C8800EA850882850983F074075AF87401B80058
:101C9800028004C333D8FCFBEA131313541FF8EE75
:101CA80028F8EF3400F9E8245DF582E9121D775B26
:101CB8006003EA801CEE2436121D74F5F0EA84A84D
:101CC800F0EE28F8EF3400F9E82438F582E9121D1F
:101CD80077F97F04021A0B74F512195FEAFEEBFF1D
:101CE800EE2434121D74C0E0EE2435F582EF340082
:101CF800F583D0E0F08E828F83A3A3A3A3A3E0FA99
:101D0800A3E0FB8E828F83A3A3A3A3A3A3A3E0FCDA
:101D1800A3E0FDECC39AF50AED9BF50BEE247FF5E5
:101D280008EF3400F509850882F583E06401702B1B
:101D3800EE2480F582EF3400F583121B1D121D7D01
:101D480074021218B2E960137CDC7D04EEFAEFFB32
:101D5800120C96850882850983E4F0AC0AAD0BEE77
:101D6800FAEFFB121C481225A3021CDAF582EF34A5
:101D780000F583E022C082C083851882851983E03C
:101D8800F8A3E0F9C3EA9CEB9D5010C3EC98ED99D9
:101D9800401BC3EA98EB995014800EC3EA98EB995C
:101DA8004007C3EC98ED994004790180027900D08E
:101DB80083D08222EAC39CFAEB9DFB2274ED1219B0
:101DC8005F9003A2E064086005E06407702C9061EE
:101DD800C8E060269003D0E0F874FF68601CE875DE
:101DE800F003A4C8AAF02AF974D228FE740339FFB4
:101DF8008E828F83A3A3A3E070057900021F64EE8F
:101E08002468F510EF3400F511906060E0851082C9
:101E1800851183F0750A45750B057508007509006D
:101E2800E5D914F50EE5D95403F50F601CEE2482AC
:101E3800F50CEF3400F50D7403650F6058E50E607E
:101E480013EE2467121D74700B793DEEFAEFFB1246
:101E58000CBA80A6900540E064016026850C828556
:101E68000D83E06004780480027800850E08E50898
:101E7800C398FA95E0FB120B3A8A088B09EA4509E0
:101E88007006120F12021E02850C82850D83E07007
:101E9800048A0A8B0B78008016E5D9C0E08812E521
:101EA8000A2512F582E50B3400F583D0E0F008E846
:101EB800C3950E40E4850C82850D83E0602874FC90
:101EC800250EF50E780A121B06AC0EA90FEEFAEFD6
:101ED800FB120D6874021218B2E9700AAA08AB095D
:101EE8001214A6021E517403650F6058850E0C75F6
:101EF8000D00780C121B06AC0AAD0BAA08AB091230
:101F08000D2C74021218B2851082851183E0F874C2
:101F180080687005750C7F8002880CE50CF50A78DE
:101F28000A121B0AE50FF50A780A121B0AA90EAC59
:101F380008AD099003D0E0FA7B001209D2740212AE
:101F480018B280139003A2E06408600BAC0AAD0BD2
:101F5800EEFAEFFB120DFE120F1E79017F0C021A2A
:101F68000B74F312195F74FC12189CEAFEEBFF89DC
:101F780008A2AFE433F509C2AFEE2463F50AEF34E3
:101F880000F50B8010AA0AAB0B120CE41214A690F1
:101F980004E3E004F0850A82850B83E0F8A3E0F906
:101FA800E849602FE82402FAE93400FBEA2402F544
:101FB8000CEB3400F50D780C121B068A828B83E03B
:101FC800FCA3E0F9EEFAEFFB120CD874021218B277
:101FD800E960B29004E3E060579004E4E0F890040C
:101FE800E3E0C398500C7402650870449004E5E07F
:101FF800603E8E828F83A3A3A3A3E08518828519F0
:102008008312204874021218E7E81220489004E26C
:10201800E028F074021218E7AC82AD838518828537
:102028001983AA82AB8379011209DE9004E3E4F0F4
:10203800E509A2E092AF74041218B27F06021A0BE7
:10204800F0A3E4F09004E3E0F822000085218785FE
:1020580022C622C0E074EF121A4BA2AFE433FEC2CC
:10206800AF759B00906182E0A2E05012E591A2E07A
:10207800500C7591FE740165217003121DC4E0A215
:10208800E55051E591A2E5504B7591DF9003A2E030
:1020980064076005E0640870237401652170357970
:1020A800019003D0E0FA75F003A4CAA8F028FB74E5
:1020B800D22AFA74033BFB121F698018E0640D7082
:1020C800139003C4E004F064287002E4F07A00E09E
:1020D800F9120F24906182E0A2E64003022182E512
:1020E80091A2E640030221827591BF9003A2E064A9
:1020F800057008120E40120E4C8003120E46752110
:1021080000120EB2E99003A3F07900120EA6120C89
:10211800007A017B009003A1E0F912117690780310
:10212800E064427055900544E014F0704DC2AF125F
:10213800213A00782AD0E0F618D0E0F6E59F540757
:1021480070057509FF800375097FC4C0E07829E62A
:10215800F50808E65509F509740B780812187AD0BD
:10216800E02508F8906270E0A2E740F8E8C33390F1
:102178006272F0906270E0D2E0F0906181E0A2E3D8
:102188005009E5E9A2E3500375E9F7A3E0A2E75097
:1021980009E591A2E7500375917FEEA2E092AF7F27
:1021A80004021AAAC0E0C0D0C082C083906183E054
:1021B800A2E05009E5BFA2E0500375BFFEE0A2E12E
:1021C8005009E5BFA2E1500375BFFDE0A2E2500946
:1021D800E5BFA2E2500375BFFBE0A2E35009E5BFEB
:1021E800A2E3500375BFF7E0A2E45009E5BFA2E4FB
:1021F800500375BFEFE0A2E55009E5BFA2E5500323
:1022080075BFDFE0A2E65009E5BFA2E6500375BF3F
:10221800BFD083D082D0D0D0E032C0E074F2121A9E
:102228004BE5A7A2E4500FE5A1A2E4500953A7EF9C
:1022380075A1EF122276E5A7A2E5500CE5A1A2E56B
:10224800500653A7DF75A1DFE5A7A2E15009E5A174
:10225800A2E1500375A1FDE5A7A2E2500CE5A1A2F9
:10226800E2500653A7FB75A1FB7F01021AAA74F876
:1022780012195F7521019003A2E0640670077A00C5
:102288007B00120E28A2AFE433FED2AF9003A8E081
:10229800640170187A207B009003A1E0F912120003
:1022A8007A207B009003A1E0F912117C906182E012
:1022B800D2E6F0900541E0602185C62280169003A1
:1022C800A7E064017008E5C654F84405F5C653BE96
:1022D800FC1220547401652160E4EEA2E092AF7F05
:1022E80001021A0B8E238F2485822885832785185F
:1022F80082851983E0CEA3E0CF852882852783EBEA
:10230800C9EAC8EDCBECCA75F010C3E833C8E933A5
:10231800C9EA33CAEB33CBC3EA9EF526EB9FF52512
:10232800B35004AB25AA26EC33CCED33CDD5F0DA87
:10233800AE23AF242274F112195F8A088B098C0A24
:102348008D0B9090487808121733740F1218E7789D
:102358000C12176C909048780C1217337808790C87
:102368001215DB90903450107808790C12170B78FE
:10237800081215FB4014800E780C790812170B7898
:102388000C1215FB50047901800279007F08021AAB
:102398000B74ED12195F8A088B098C0A8D0B9090CB
:1023A80048780812173374131218E7780C12176C50
:1023B800909048780C121733780C79081215DB4086
:1023C800117808790C12170BAA08AB09AC0AAD0BE7
:1023D80080227510007511007512007513017810B0
:1023E800790C12170B781079081216D2AA10AB11B3
:1023F800AC12AD137F0C021A0B9090487808121794
:102408006C8A828B8378081217467F04021A0B7431
:10241800F512195F8C828D83780812176C8A828B6B
:1024280083780812171F12246BC3E098F0A3E09971
:1024380012245D401E909068780812176C8A828B6F
:102448008378081216F88E828F83E02420F0A3E0A8
:10245800344EF080A4F08E828F83C3E09420A3E0F2
:10246800944E22EA2404F8EB3400F9E8FEE9FF8CE4
:10247800828D83A3A3A3A3E0F8A3E0F98E828F83C0
:102488002274F512195FE9FE9004F7E0FAA3E0FB65
:10249800EEC333F8E433F9741028F582748F39F5F4
:1024A80083E02AF508A3E03BF5097808121B06909B
:1024B800906412178A1222EC74021218B28A088BDE
:1024C800098C0A8D0B7410780812169AAA08AB09A1
:1024D8007F04021A0B74F112195F8A0C8B0D8C0E93
:1024E8008D0F740F1218E7E0FAA3E0FB74111218AD
:1024F800E7E0F508A3E0F5097808121B06EA2401CD
:10250800F508EB3400F509E4F50AF50B780C7908C1
:1025180012161A90902C780812176C780C790812F9
:10252800161AAA0CAB0DAC0EAD0F1222EC740212E7
:1025380018B28B09EA450960047A0180027A00EC36
:102548002AFCED3400FD74131218E7E0F8A3E0F953
:10255800E8FEE9FFECF8EDF97A717B0212181188B0
:10256800088909E4F50AF50B8E828F83780812171B
:102578007BECF8EDF97A717B021218118A088B0945
:10258800740578081218898E828F83A3A3A3A3E504
:1025980008F0A3E509F07F08021A0BC082C083E99E
:1025A800906000F0D083D08222C2AF02000022C027
:1025B800E074F2121A4BA2AFE433FED2AFC2C0E508
:1025C800D1A2E4500653D1EF121482EEA2E092AFEA
:1025D8007F01021AAAC0E074F2121A4BA2AFE433C8
:1025E800FED2AFE589A2E150031213FE758900C23D
:1025F800C5EEA2E092AF7F01021AAAC0E074F212FF
:102608001A4BA2AFE433FED2AFE58BA2E05003121F
:1026180013FE758B00C2E880D8C0E0C0D0E8C0E0E7
:10262800E9C0E0E5A8D2AFC2C7A2E7A2E792AFD05F
:10263800E0F9D0E0F8D0D0D0E032C0E0C0D0E8C0B7
:10264800E0E9C0E0C008C009C082C083A2AFE4339B
:10265800F9D2AF900894E0F8A3E0687008539AFBA9
:10266800A374018026C2E9900894E0F50874012556
:1026780008F074902508F58274083400F583E0F5B5
:10268800C1900894E0C394044002E4F0E9A2E09207
:10269800AFD083D082D009D008D0E0F9D0E0F8D00C
:1026A800D0D0E032FFFFFFFFFFFFFFFFC082C083F3
:1026B800E9900E6AF002294374F71218F3E99002C0
:1026C800E1F07C197D037AFF7BFF1209249002E276
:1026D80074FFF0A3F0A3E4F0A3F079051208AC901E
:1026E80002E1E0F91207CE7A427B09120AEC7F0177
:1026F8000219C574F41218F38A088B09EB54806028
:10270800309002E1E0F912115E8A0A8B0BAE0AAF33
:102718000BEE4F60138E828F83E064B07003120853
:10272800C4EEFAEFFB12114CAA08E5096480FB809D
:10273800047A007B0002291274F21218F374FC1256
:10274800189CEAFEEBFFEE4F603874021218E7EEB1
:10275800F0A3EF122B77ECF0A3ED122B77AA82AB44
:10276800831207C8E9F508707374121218E7123754
:102778002BE50A450B60658E828F831227EEEE4F9C
:10278800700575080280557A067B001211B88A0C0C
:102798008B0DA80CA90DE8497005750813803D88B4
:1027A800828983E41227F8A3A3EEF0A3EF123BC4B7
:1027B800E50AF0A3E50BF09002E71228809002E703
:1027C8006017E0FCA3E08003EAFCEBFD8C828D83BC
:1027D80012288070F38C828D83123650A9087404F5
:1027E8001218B2023DC6A3A3A3A3E0FEA3E0FF22F2
:1027F800F0A3F0888289832274F21218F3890AE917
:1028080075F017A4FEAFF09002E6E4F09002E4122F
:102818002880600A1211BE9002E4E4F0A3F0EEFAF8
:10282800EFFB1211B88A088B09EA4509602FEEFC04
:10283800EFFD790012113A9002E4E508F0A3E509EA
:10284800F07B00800812286AE4F0A3F00BEBC39534
:102858000A40F2E50A9002E6F07900800279130254
:102868003DC6EB75F017A4F8A9F09002E4E028FA49
:10287800A3E0398A82F583221233E6EA4B2274F404
:102888001218F3750800750900740C1218E7123B4A
:1028980098FEE9FF800CE5082401F508E5093400F5
:1028A800F509C3E5089CE5099D503285080A8509A4
:1028B8000B7403780A121889EA250AF8EB350BF924
:1028C80088828983A3A3A3A3A3A312372BEE650A47
:1028D8007003EF650B70BFE8FAE9FB80047A007BB0
:1028E80000802774F41218F37900EAA2E0501B75EF
:1028F80008F075098F7808121B067C047D007A6C35
:102908007B0E1208A674021218B27F040219C5C001
:1029180082C0839002E712294A601C88828983A3B7
:10292800A3E06A7003A3E06B8882898370E8A3A39D
:10293800A3A31233E280047A007B00D083D0820202
:102948000122123E99E8492274EE1218F374FC121F
:10295800189CEAFEEBFF851882851983E4F0A3F042
:10296800EE2402123634EE2405122B65EE2404F50B
:102978000EEF122F4AE024FE603924FC604624FE44
:10298800605224FE605E24FE7003022A6A24FE70F0
:1029980003022AE224FE7003022AF124FE700302D5
:1029A8002B0024FC7003022B0F24FE7003022B1E45
:1029B800022B5B9003007417F0A3E4122B7F12051F
:1029C80046022B5B851882851983AC82AD83120879
:1029D800CA022B2B851882851983AC82AD83120815
:1029E800D0022B2B850C08850D0974021218E7AC50
:1029F80082AD838508828509831233E21207EC8A47
:102A08000C8B0DAC0CAD0DEC4D6042E4F50CF50DE6
:102A1800780C121B06750C00750D03780C121B063A
:102A2800750C01750D03780C121B0674081218E753
:102A3800121B1D79161233DC12090C74081218B215
:102A4800E9F50C700B1233D812055E800F750C0176
:102A5800850882850983122B6D123650850C080271
:102A68002B2E74021218E7AC82AD83850C82850D7B
:102A7800831233E21207EC8A108B11AC10AD11EC03
:102A88004D6043850C82850D83A3A3121B1D751011
:102A9800007511037810121B067510017511037863
:102AA80010121B0674081218E7121B1D7916123330
:102AB800DC12090C74081218B2E9F509700B12330C
:102AC800D8120564800F750901850C82850D831263
:102AD8002B6D123650850908804C8518828519831C
:102AE800AC82AD831208D6803A851882851983ACEA
:102AF80082AD831208DC802B851882851983AC820D
:102B0800AD831208E2801C851882851983AC82ADDA
:102B1800831208E8800D851882851983AC82AD83FD
:102B28001208EEE9F508E50860298E828F83A3E094
:102B38006414601F850E82850F83E0900300122BBA
:102B480077123E95900301123650E508A3122B7FA9
:102B5800120540EEFAEFFB12086A02353CF50CEF5D
:102B68003400F50D22123E9985188285198322F0CA
:102B780085188285198322F07C007D03850A828569
:102B88000B831233E62274EE1218F374FC12189CAD
:102B98008A0A8B0B8C0E8D0FEA2405F508EB34009E
:102BA800F5097C157D0079007A007B0312113AE55E
:102BB800082402F50CE509122B688518828519830B
:102BC8008582108583117810121B06850882850975
:102BD80083A3A3A3A3123092121B06E5082405F5CC
:102BE80010E5093400F5117810121B06850C828552
:102BF8000D831233EC1207E674061218B28A108B92
:102C080011AE10AF11E50A2402F50AE50B123637AA
:102C1800EE4F7003022D54801774021218E7123316
:102C2800E288828983EAF0A3EBF0900300E004F0E5
:102C3800900300E0C394054003022D54E4F510F519
:102C4800117810121B067510E97511027810121B05
:102C5800067510EA7511027810121B067406121810
:102C6800E7121B1D7910EEFCEFFD1233DC12090C84
:102C780074081218B2E9705E850882850983A3A3D7
:102C8800A3A3A3A3A3E0F89002E9E0687048123078
:102C980092121B067CEA7D02E5082408FAE509344D
:102CA80000FB12113474021218B2E960298E828F67
:102CB80083A3A3A3A31233E2900300E0F5107402E8
:102CC800781012188974012510F58274033511F5EE
:102CD80083EAF0A3EBF074021218E785821085836B
:102CE800117810121B0674021218E7121B1D850CAE
:102CF80082850D83123EAA1207F274041218B28A52
:102D0800108B11AE10AF11900300E0F51075110093
:102D18007402781012188974002510F8740335119C
:102D2800F988828983A31228807003022C18E8246A
:102D380003F8E93400F9EE4F6003022C21888289F8
:102D48008374FFF0A3F0900300E004F0900300E028
:102D5800600A1233D81205527900800B85088285E3
:102D68000983123647790A02353C74EA1218F3745B
:102D7800FE12189C8C128D13EA2405F50CEB1240F8
:102D8800141227F2750800750900EA2402F510EB01
:102D98003400F51185188285198385820A85830B8D
:102DA800780A121B06850C82850D83A3A3A3A312A0
:102DB8002F54121B06E50C2405F50AE50D123637CB
:102DC800780A121B06850C82850D83123EA812070D
:102DD800E674061218B28A0A8B0BEA450B700302D6
:102DE8002F05EA2404F50EEB122F4A1227F28A82E5
:102DF8008B83A3A3A3E0F98510828511831233E2A4
:102E08001207D4E9F5096003022F05E4F514F51556
:102E18007814121B067514E97515027814121B062E
:102E28007514EA7515027814121B0674061218E751
:102E3800121B1D7913AC0AAD0B8510828511831204
:102E480033E212090C74081218B2E9F5096003029A
:102E58002F059002E9E0F8E5087009E024029003E4
:102E680001F08017900301E0FCE82402FAE4340042
:102E7800FBEA6C7001EB6003022F09850882AA82C5
:102E880012308994141230815073850E82850F8315
:102E9800E0C0E074022A122F41D0E0F00508850E48
:102EA80082850F83A3E0C0E085080A7402250A1210
:102EB8002F41D0E0F005089002E9122F54121B06AA
:102EC8007CEA7D0285080A7402250AFA7403340034
:102ED800FB12112274021218B29002E9E02508F5DB
:102EE8000874FF6E700374FF6F6012EE24010EEF1A
:102EF8003400FFE508C394145003022D9CE50860D4
:102F0800131232CD8510828511831233E2120558CF
:102F180079008014E509700375090A851282851302
:102F280083EEF0A3EFF0A90974021218B27F0E0223
:102F380019C585080C7402250CF58274033400F554
:102F480083223400F50F850E82F58322123BD722A7
:102F580074EE1218F374FE12189C8C0E8D0FEA246E
:102F680005F50CEB122B68750B00900300E4F0F5E7
:102F78000AEA2402F508EB3400F5098049900300B9
:102F8800E0FA9002E9E0F812308994171230814093
:102F98000D900300E0F87416C3989002E9F012301F
:102FA80092121B067CEA7D0274012AFA740334002B
:102FB800FB12112274021218B29002E9E0F8900391
:102FC80000E028F0050AE50C2416F582E50D122F1D
:102FD80045E0F8E50AC398400302306A900300E030
:102FE800C39416507DE50AC333F8E433F9E50C2899
:102FF800FEE50D39FF851882851983AC82AD838E75
:10300800828F831233E21207EC8A108B11AC10AD59
:1030180011EC4D7005750B018043E4F510F511783E
:1030280010121B067510E97511027810121B06752F
:1030380010EA7511027810121B0674061218E712AE
:103048001B1D79168508828509831233E212090C43
:1030580074081218B2E9F50B7003022F8512364373
:1030680080107C007D038508828509831233E21273
:10307800056AA90B740202353EE99400C365D03392
:1030880022EA28F8E43400F9E822E0F51075110086
:1030980078102274EA1218F374FC12189C8A0C8BAC
:1030A8000D8C128D13EA2405F50AEB1236377508D4
:1030B80000750900E50A2402F510E50B3400F51146
:1030C80074021218E785820E85830F780E121B068C
:1030D800850A82850B83A3A3A3A3123B83121B0635
:1030E800E50A2405F50EE50B3400F50F780E121BE2
:1030F8000685108285118312363D1233DC1207E6ED
:1031080074061218B28A0E8B0FAE0EAF0FE50C24A0
:1031180002F50EE50D3400F50F804088828983742E
:10312800FFF00508122F3A74FFF005089002E9E055
:10313800F50C750D00780C121B067CEA7D028508DB
:103148000C7402250CFA74033400FB121122740269
:103158001218B29002E9E02508F508EE4F60718E6A
:10316800828F83A3A3A3E0F9850E82850F83123390
:10317800E21207D4E9F509EE2404122B65E970443C
:10318800E4F514F5157814121B067514E975150283
:103198007814121B067514EA7515027814121B06AA
:1031A80074081218E7121B1D7911EEFCEFFD850E4D
:1031B80082850F831233E212090C74081218B2E9DF
:1031C800F5096027850C82850D831232C3123650AB
:1031D800E50870030232A91232CD850E82850F836D
:1031E8001233E212057079000232BE850882AA8283
:1031F800EA9002E97009E02404900301F08022E0DB
:10320800F8900301E0F514E82404FCE43400FDEC34
:1032180065147001ED70C01230899412123081501B
:10322800B6850C82850D83E0C0E074022A122F4116
:10323800D0E0F00508850C82850D83A3E0C0E0127C
:103248002F3AD0E01232DF85820C85830D780C127C
:103258001B0674041218E7121B1D85108285118342
:10326800123EAA1207F274041218B28A0C8B0DAE21
:103278000CAF0D85080C7402250CF874033400F9A2
:10328800EE4F7003023123851882851983E0888206
:1032980089831232DFA3E0C0E0122F3AD0E0023176
:1032A80031E509700375090A850A82850B83123294
:1032B800C3123650A9097404022F32123E9985129E
:1032C8008285138322900301E0F5F0E508849003DA
:1032D80000F07C007D0322F005088518828519839B
:1032E8002274EC1218F374FE12189C8A088B098C4D
:1032F8000E8D0FEA2405FEEB3400FF851882851930
:1033080083AC82AD838E828F831233E21207EC8AFC
:103318000A8B0BEE2418122B65EA450B7003023357
:10332800B312352550328518828519831233E2127B
:1033380009008A108B11EA4511606B7912AC0AAD4D
:103348000B8508828509831233E2851082851183F3
:103358001218F1E9F50A7058E4F50AF50B780A1223
:103368001B068E828F83A3A3E0F50A780A121B0638
:10337800EE2403123634780A121B068E828F8312CB
:1033880033EC12091274061218B2E9F50A70218595
:103398000C82850D83E0701F8508828509831233AE
:1033A800E21205768011750A0E8009750A018004FB
:1033B800E50A6003123643850C82850D83E06004BC
:1033C80079008002A90A74021218B27F0C0219C58A
:1033D8007C007D03850A82850B831233E622E0FA9E
:1033E800A3E0FB22E0FCA3E0FD85088285098312A7
:1033F80033E62274EE1218F374FE12189C8A088BB6
:10340800098C0C8D0DEA2405FEEB3400FF750E00C7
:10341800851882851983AC82AD838E828F8312339F
:10342800E21207EC8A0A8B0BEA450B70030235118E
:1034380012352550358518828519831233E2120911
:10344800008A0E8B0FEA450F605E7912AC0AAD0B4D
:103458008508828509831233E2850E82850F8312DF
:1034680018F1E9F50E600302351485088285098391
:1034780012372BAA0AFB1208F48A108B11A810A97C
:1034880011E849701E7AFF7BFF1208F48A108B112D
:10349800A810A911E849606C88828983E50AF0A31D
:1034A800E50BF0750A008007750E0E805F050A901F
:1034B80002E6E0FAE50AC39A504AE50A75F017A44D
:1034C800FAABF088828983A3A3E02AFAA3E03BFB46
:1034D8008A828B8312363DEC4D70D2750A17750BB4
:1034E80000780A121B06EEFCEFFD1211227402127C
:1034F80018B2EEFCEFFD8508828509831233E212CB
:10350800057C8014750E098003750E01123E9185A5
:103518000C82850D83123650A90E02307CE50824F2
:1035280002F508E5093400F5098A828B83A3A3A371
:10353800E0A2E52274041218B27F0A0219C574ECDD
:103548001218F38C108D11EA2405F50CEB122B6878
:10355800750F00EA2402F50AEB123637850A82F560
:10356800831233E21208F48A088B09EA45097003CA
:10357800023629750E008071850C82850D83E06402
:1035880001704F8E828F83A3A3121B1D8E828F839F
:10359800A3A3A3A3E0F5127513007812121B06EE7D
:1035A8002405F512EF3400F5137812121B061233B6
:1035B800DC12091274061218B2E9F50F6014850CB2
:1035C80082850D83E4F0123E918510828511831265
:1035D80036507C177D007900EEFAEFFB12113A8E17
:1035E800828F83E4F0A3F0050E9002E6E0F8E50E82
:1035F800C398501EE50E75F017A4F8A9F085088247
:10360800850983A3A312401E12363DEC4D600302C8
:10361800358085088285098374FFF0A3F0E50F7073
:10362800061233DC120582A90F0233D3F50AEF34F0
:1036380000F50B22A3E0FCA3E0FD228E828F83120B
:103648003E99850E82850F83E8F0A3E9F022C082B7
:10365800C0839002E2E06A7003A3E06B70067AE22E
:103668007B0280047A007B00022943C082C08378F1
:10367800008C828D83E06A7003A3E06B7010E8759C
:10368800F003A4F8A9F0EC28FAED39FB8015088CB2
:10369800828D83A3A3A3E06A7003A3E06B60DF7A43
:1036A800007B0002294374F61218F31208BE8A82BE
:1036B8008B83E582458370067A007B008007A3A38D
:1036C800A3A31233E2023D4274F21218F3E9FE7426
:1036D8000E1218E712372B74101218E7123BA38C3E
:1036E800828D83E064027036A3123E9FF50CA3E03E
:1036F800F9A80C74026870037429697021750C02AA
:10370800750D00780C121B067808121B06780A1231
:103718001B06EEF912093674061218B280027901F6
:10372800023DC6E0F50AA3E0F50B2274E81218F38F
:1037380074FB12189CE9851882851983F08A168B08
:1037480017ECFEEDFF751000741D1218E7123E9578
:10375800741D1218E71236508E828F83A3A3A3E03C
:10376800A2E4502D741D1218E71233E21209008AE0
:10377800828B83E58245837003023B74790AEEFCF1
:10378800EFFDAA16AB171218F1E9F5106003023B1A
:1037980077741F1218E7123BA374211218E7123727
:1037A8002B74231218E7E0F50EA3E0F50F8E828F35
:1037B80083E064026003023B22A3123E95850882DF
:1037C800850983A3858212858313EE2406122B654F
:1037D80088828983E0FAA3E0F9EA2400F514E43941
:1037E800F5157814121B90010000280128173807D6
:1037F800000228DC38032849380029133A01293EF9
:103808003A0229DF390329133A0429BD3A223BE554
:103818000E450F6003023B1D850C82850D83123B0C
:1038280098FAE9FB8A828B83E0850A82850B8312EA
:103838003BCE121B068A828B83A3E0FCA3E0023AEC
:10384800A7E50E450F6003023B1D850A82850B83A1
:103858007401F0123BAB850882850983F07C007DFA
:10386800008E828F83A3A3A3A3E02401FAA3E034EC
:1038780000FB1207ECEA4B60418A828B83E024024A
:10388800F8850A82850B83E028F0EA2404F8EB34F3
:1038980000F988828983E0851282851383123BE0D0
:1038A800123BCE121B068A828B8312363CE5082413
:1038B80003FAE5093400FB023AAC850A82850B83DA
:1038C800E02404F07C047D007900AA12AB131211E5
:1038D8003A023B77E50E450F6003023B1D123BABF6
:1038E800FEA3E0FF850A82850B837404F0EE850849
:1038F80082850983F0EF851282851383F0740312A1
:1039080018E7AC82AD83EEFAEFFB1207EC8A0C8B5A
:103918000DEA450D70030239C08A828B83A3A31276
:1039280027EE74011218E785820E85830F780E1230
:103938001B0674051218E7121B1D7CFF7DFF12077A
:10394800F274041218B28B0FEA450F7033850C829B
:10395800850D83123B83121B06850C82850D83A37C
:10396800121B1D7C027D007AA57B9012061E740432
:103978001218B2E9700A74011218E774FFF0A3F084
:103988008E828F83E064027039750C02750D0078A1
:103998000C121B068E828F8312363CE5082404FA2B
:1039A800E5093400FB12112274021218B2850A824A
:1039B800850B83E02402800974011218E7EEF0A356
:1039C800EFF074011218E7123B94F074011218E733
:1039D800A3123B8C023B17E50E450F6003023B1D0B
:1039E800850C82850D8312363DAA16AB1712092A5B
:1039F800850A82850B837402F0EA8508828509832B
:103A0800F0851282851383EB023B1AE50E450F60A1
:103A180003023B1D123BABF8A3E0F9850A82850B34
:103A2800837402F0E8850882850983F0E9851282AB
:103A3800851383023B1A850C82850D831233E212AB
:103A4800111CEAFC8C82A882C3950EE4950F405F96
:103A5800E8650E7002E50F70047C008022851882EC
:103A6800851983E0FAE50E2AFAE50F3400FBC3EA6C
:103A780098EB94005003E08005E50ECCC39CFCEC69
:103A8800850A82850B83F08C0A750B00780A121B55
:103A980006850C82850D83E0250EFCA3E0350FFD1D
:103AA800AA08AB0912112274021218B2023B7775E8
:103AB8001007023B77E50E450F705A850C82850D7D
:103AC80083123E95850A82850B8374071227FA12A2
:103AD8003B8C1227FAA3E0851282851383F0E82431
:103AE80002FAE93400FB8A828B83123B8C123BBBBF
:103AF800123B94A3123BC4123B9DF0E82405F8E95D
:103B08003400F988828983123B9DA3123BE0A3A36A
:103B1800A3A3F0805A75100B8055741D1218E71274
:103B280033E21208BE8A828B83E5824583603D12A8
:103B38003E95880C890DE8450D6031780E121B06FC
:103B4800780A121B067808121B0674061218E7E09A
:103B5800F9EEFCEFFDAA16AB17850C82850D8312D2
:103B680018F174061218B2E9F510800375100EA941
:103B78001074051218B27F100219C5E0F50E750F02
:103B880000780E22E085088285098322123BEA220A
:103B9800123E99E822123BEAA3A322E0F508A3E02B
:103BA800F50922850C82850D83E0F8A3E0F583886A
:103BB80082E022A3A3F08A828B83A322F0888289E1
:103BC80083A3A3A3A322F08A828B83123BD722E08C
:103BD800F50A750B00780A22F088828983A3123BC4
:103BE800EA22E0850882850983A3A32274EE1218CD
:103BF800F374FE12189C8A0A8B0BECFAEDFB741412
:103C08001218E7E0F510A3E0F51174161218E7E0B2
:103C1800FE74181218E7E0F50EA3E0F50F85188278
:103C2800851983AC82AD831207EC8A0C8B0DEA45AB
:103C38000D60498518828519831233E21208BE8AFD
:103C4800828B83E5824583602FA3A3123BA3E508FB
:103C580045096024780E121B067810121B06EEF92F
:103C6800AC0CAD0DAA0AAB0B850882850983121826
:103C7800F174041218B28006790E800279010230BC
:103C88007C74F61218F374FE12189C740C1218E760
:103C9800123B98851882851983F074011218E7E998
:103CA800F0E4F508F5097808121B0675080278088B
:103CB800121B0674041218E78582088583097808A0
:103CC800121B0612091274061218B274021218B2E4
:103CD800806874F71218F3EAFEEBFF89087C197DF7
:103CE8000312092AEA5402600BA908EEFAEFFB1244
:103CF80007E0800279010226F674F61218F374FFC1
:103D08006A700374FF6B70168C828D83123D47E4D2
:103D1800F08C828D83A3A3A3123D47A380181208B9
:103D2800FA8A088B09A808A909E849600D888289D8
:103D38008374FF1227F8A3A3E4F07F020219C57465
:103D4800FFF0A3F08C828D83A3A32274F61218F3DC
:103D58001208FA8A828B83E58245836006A3A3E072
:103D6800FA80027A007B0080D174F21218F38A0874
:103D78008B09ECFEEDFF740E1218E7E0F50A120845
:103D8800FA8A0C8B0DA80CA90DE8497026EEFCEFF9
:103D9800FD7AFF7BFF1208FA8A0C8B0DA80CA90D7F
:103DA800E84970047911801688828983E508F0A3B0
:103DB800E509F088828983A3A3E50AF079007F06E4
:103DC8000219C574EE1218F3EAFEEBFF8C088D0990
:103DD800890C74141218E7123E9574161218E7121B
:103DE80033E2750D00E8496003023E897402650CF0
:103DF8006003023E8474121218E7123E9FFCA3E08F
:103E0800F9EC2400F50EE439F50FEAF4F8EBF4F9CF
:103E1800EC58F8E50F59F9E849705CE5082406F80C
:103E2800ED3400F9880A890B8882F583123EAA12BC
:103E3800092A8A108B11E50E65107004E50F6511CB
:103E48006042780E121B06850A82850B83123EAAF1
:103E580012093074021218B2E9F50D7027780E12A3
:103E68001B06850882850983A3A3123EA812094868
:103E780074021218B2800D750D808008750D0D80C2
:103E880003750D0BA90D0235418E828F83123E9961
:103E980022E0F8A3E0F922123E9988828983E02281
:103EA800A3A3E0FCA3E0FDEEFAEFFB2274E81218EE
:103EB800F374E712189C851882851983EAF0A3EB3E
:103EC800F08C168D17890E7508007509007431126B
:103ED80018E7E0F512A3E0F51374331218E7E0F5DC
:103EE80014A3E0F51574351218E7E0F50FE5097528
:103EF800F003A4F8A9F085188285198312401EE002
:103F0800F47003A3E0F47003024001EE2402F50C00
:103F1800EF124014E0700302400185160A85170B62
:103F2800780A121B06AC14AD15AA12AB131208B20C
:103F380074021218B28A0A8B0BEA450B700302400E
:103F480001E4F510F5117810121B0674061218E733
:103F58008582108583117810121B0674091218E7E0
:103F68008582108583117810121B068512828513AD
:103F780083A3A3A3A3121B1D7914AC0AAD0B8E82D5
:103F88008F831233E212090C74081218B2E97069AF
:103F9800850A82850B83A3A3A3A3123E95740212FC
:103FA80018E7123650850C82850D83E0A2E0501880
:103FB800A90E74021218E7AC82AD838E828F831229
:103FC80033E2120804E94208850C82850D83E0A2D9
:103FD800E15026E50FF50A780A121B0AA90E7403A8
:103FE8001218E7AC82AD838E828F831233E21207F8
:103FF800FE74011218B2E942080509E509C39402E2
:104008005003023EF5A9087419023B7B3400F50DF4
:10401800850C82F58322E028FEA3E039FF8E828F8B
:10402800832274F21218F3EAFEEBFF890B74016520
:104038000B600E7402650B706A7901120B0AE97045
:1040480062EEFAEFFB1208F48A088B09EA45096068
:1040580047750A00800B7C177D00790012113A051C
:104068000A9002E6E0F8E50AC3985021E50A75F0DF
:1040780017A4F8A9F0850882850983A3A3E028FA84
:10408800A3E039FB8A828B8312294A70C98508828A
:1040980085098374FFF0A3F07C197D03EEFAEFFB2A
:1040A800120924023DC674F21218F38A088B09EC2F
:1040B800FEEDFF740E1218E712372B900E6AE0F42B
:1040C800603D7A097B00121146EA4B60328A828B86
:1040D8008374B1F0A3E4123BBDA3123BBBA3E50874
:1040E800F0A3E50912410AEEF0A3EF12410AA3A3D7
:1040F800E50AF0A3E50BF0900E6AE0F912115202FE
:104108003DC6F08A828B83A3A3A3A3A322C082C047
:104118008390075FE0F8E94A6890075D603C7403A4
:10412800F07410697013EAC333FCE433FD74682C2F
:10413800F58274073DF5838015E9702074016A7073
:1041480005900952800874026A7011900954125837
:104158001E900762ECF0A3ED8001E4F00250F774C2
:10416800F01218F374FE12189C8A088B097E007FDF
:1041780000EEF8EFF97A027B00121809E8C333F56C
:104188000EE933F50F7468250EF50C7407350FF535
:104198000D850C82F583A385820A85830B85188299
:1041A800851983AC82AD837A02EE248DF912151E2F
:1041B800E9601B74C2250EF582748F350FF58312E2
:1041C800526F850C82850D83E8F0A3E9801A851863
:1041D80082851983E0850A82850B83F074011218A1
:1041E800E7E0850C82850D83F0E5082EF8E50912D5
:1041F8004E67EE2402FEEF3400FFC3EE9408EF1280
:104208005093500302417974021218B27F080219C0
:10421800C574F71218F374FE12189CEAFEEBFF85BA
:104228001882851983AC82AD837A02799512151E9E
:10423800E96045900770E0600C1460142481601BED
:1042480014601F802890095274BDF0A37404803C48
:104258009009527403F0A37405803190095274E0F8
:10426800800590095274F5F0A37401801F900952DB
:1042780074FFF0A3743F8014851882851983E0F9D0
:1042880074011218E7E0900952F0A3E9124DAA79D7
:104298009712151EE96041900770E0600C146010D9
:1042A8002481601714601F802790095474C6800504
:1042B8009009547465F0A3740280319009547416FF
:1042C800F0A37401802690095474F5F0A3E4801CCF
:1042D800900954E4F0A38014851882851983E0F9C5
:1042E80074011218E7E0900954F0A3E9F09009531B
:1042F8001248B99009521243CE9009551243B99009
:1043080009541243C37402024DBA74F71218F374B5
:10431800FC12189CEAFEEBFF851882851983AC8293
:10432800AD837A04798912151EE9602C900770E430
:10433800F090094BC3E09458A3E09402500E900704
:1043480064E0640170069007707480F090077174DF
:1043580002F0A3E4F0A38028851882851983E090F1
:104368000771F074011218E7E0900770F0740212F8
:1043780018E7E0F974031218E7E0900772F0A3E970
:10438800F0900770E0547F900FC07004741480029E
:10439800740FF0A3E4F09007711248B990077012F7
:1043A80043CE9007731243B99007721243C3024D6C
:1043B800B81243BD221244ADA3F0221243C7221201
:1043C80044ADA3A3F0221244A9F02274E81218F312
:1043D800EAFEEBFF8C0A8D0B74181218E77810129E
:1043E800176C8E168F178E088F09EE4F702F7A056F
:1043F8007B001211B88A088B09AE08AF098E828F2C
:1044080083A3A3A3A3E4F08E828F83A3A3E50AF07A
:10441800A3E50BF08E828F83E4F0A38048EA24049E
:10442800F514EB3400F51590906878101216E585B0
:104438001482851583E0F50CE4F50DF50EF50F787B
:1044480010790C1215DB502480048808890912544D
:104458003370F77A057B001211B81244B4851482C0
:10446800851583E004F08030880889091254337078
:10447800F77A057B001211B81244B48E828F83E05C
:10448800FEA3E0FF8514828515831244A9A3A3A384
:10449800F0AA16AB171211BEEEFAEFFB7F10021945
:1044A800C51244AD22E08E828F83A3228A0C8B0D25
:1044B800A80CA90D88828983A3A3E50AF0A3E50BBC
:1044C800F088828983E4F0A3F0850882850983E86F
:1044D800F0A3E9F02274F41218F374FC12189C8902
:1044E80008900774E0650870030245A7851882855F
:1044F8001983AA82AB8312129090094DE0F50A75D0
:10450800F005A4F8A9F0745628FE740939FFE0C331
:1045180094C950198E828F8312525712178A8E822D
:104528008F83A312179690094DE004806B78007969
:1045380000E8FAE9FBEA75F005A4FAACF075F005B5
:10454800EBA42CFB74562AFC74093BFD8C828D83EA
:10455800A3A3A3A3A374051217AFE8240108E934A1
:1045680000F9E50A24FFFAE434FFFBC3E89AE99B63
:10457800A2D265D03340BAEE24FBF582EF34FFF5C2
:104588008312525712178AEE24FCF582EF34FFF596
:104598008312179690094DE4F0E508900774F074BB
:1045A800041218B2025707C082C083900760C3E0A4
:1045B8009489A3E094139007604005E4F0A3800376
:1045C80012474E0250F674F71218F38908740F5503
:1045D80008F874F05508600A24F0603424F0606725
:1045E800806F90094EE0706990094FE06402606145
:1045F8007401F07EF4FFE860121460051460068010
:10460800507A0180027A02790080371212AE804116
:1046180090094EE0703B90094FE064026033E4F08B
:104628007EF47F01E8600B14600C14600D14600EBA
:10463800801F7A00800A7A0180067A0280027A0353
:104648007910121230800A9009507401F07E007FB0
:1046580000E50890075FF0EEFAEFFB024DBD74F03D
:104668001218F3EAFEEBFF90901C121B19900779C1
:1046780012526F758307758266E0C398FCA3E099B0
:10468800FD90077512542D12124874041218B29036
:104698000775EAF0A3EBF07C007D009007751252D5
:1046A8006F8007E02CFCA3E03DFD88828983E582CA
:1046B8002402F8E5833400F9E8FAE9FB1254398A50
:1046C800828B8370DEE02CF508A3E03DF5099007A6
:1046D80064780C12176C900777780C1215C6600C6A
:1046E8009007647C777D0774041217AF900764788D
:1046F8000C12176C90077B780C1215C6603A90075D
:104708007F12526FC3EE98EF99502D9007647C7B0F
:104718007D0774041217AF90077FF0A3F07A04FBAB
:104728001211B88A0A8B0BAE0AAF0B12478B1215FF
:104738009CEEFAEFFB1211BE90077F12474EF0AACB
:1047480008AB09024214E02401F0A3E0340022C3BC
:10475800EA9CEB9D400479028002790102012274EF
:10476800F61218F37A047B001211B88A088B09AE86
:1047780008AF0912478B12159CEEFAEFFB1211BE17
:10478800025016900764E08E828F83F090076512BE
:1047980044A9F09007671243BD9007661243C7EE1D
:1047A800FCEFFD7A0479052274F61218F37A087B77
:1047B800001211B88A088B09AE08AF09121236EE3A
:1047C800FCEFFD7A08790112159CEEFAEFFB121145
:1047D800BE7A057B001211B88A088B09AE08AF09AA
:1047E8007C437D0D7A01799B12151EE96005900DB9
:1047F80043E4F0900D431248B9EEFCEFFD7A0579D9
:104808000612159CEEFAEFFB1211BE7A047B001219
:1048180011B88A088B09AE08AF09121242EEFCEFF4
:10482800FD7A04790012159CEEFAEFFB1211BE7A9C
:10483800047B001211B88A088B09AE08AF0912125E
:104848003CEEFCEFFD7A04790312159CEEFAEFFBBF
:104858001211BE7A027B001211B88A088B09AE08C1
:10486800AF097CBE7D0F7A02799912151EE9601A8C
:10487800900770E0A2E7900FBE40087484F0A3741C
:104888000380067462F0A37401F0900FBF1248B958
:10489800900FBE1243CEEEFCEFFD7A02790212159C
:1048A8009CEEFAEFFB1211BE75C90043C90802500D
:1048B80016E08E828F83F02274EA1218F38910753D
:1048C8000A00750B007C007D0079008911E51060F5
:1048D800351460142481601B1470407512F575132B
:1048E800017514F58915801775120375130575146C
:1048F80065801C7512E07513017514167515019005
:104908000781740280117512BD7513047514C6757C
:1049180015029007817404F0A3E4F0900951E0F5C2
:104928000889097403780812188985080E85090F03
:1049380074BE250EF50C740E350FF50D74AE250EEC
:10494800F50E740E350FF50FEAC333F508EB33F5A2
:1049580009C3EA94011250925003024A99900762DF
:10496800E0F514A3E0F515E512C39514F514E51365
:104978009515F515C3E5149414E515940050300900
:10498800900762E0C39512F50AA3E09513F50BE5CD
:104998000A2414F50AE50B3400124C5FE512940161
:1049A800E5131250934006AC12AD13800289111220
:1049B8004D0AEA9512EB9513A2D265D03350030243
:1049C8004C46E50C2402F512E50D3400F513E50E0E
:1049D8002402F582E50F3400F583E9A2E04049E5B9
:1049E800107003024B9514601B2481603814600317
:1049F800024C4A124C861218091254221218091233
:104A08004C538017EAF8EBF912542D121809880A4A
:104A1800890BE508250AF8E509350BF98512828521
:104A28001383024BB9024B73124C9E7003024C0362
:104A380014602324816057146003024C4A124C6EA0
:104A4800121809125422121809880A890BEC250A2F
:104A5800FAED350B8017ECF8EDF912542D12180900
:104A6800880E890FE50A250EFAE50B350FFB85122E
:104A78008285138312526FE8850CF0A4F8ACF08598
:104A88000CF0E9A42CF9EA28F8EB39024C3B024B6C
:104A9800D3C31250924003024C46900762E0C3957C
:104AA80014F512A3E09515F513C3E5129414E51354
:104AB8009400501B09E51224ECF50AE51334FF12A3
:104AC8004C5F1250935006AC12AD1380028911123C
:104AD8004D0AE49512F512E49513F513C3E5129AFD
:104AE800E5139BA2D265D0335003024C46E50E2451
:104AF80006F582E50F3400F583E50E2404F50EE58E
:104B08000F3400F50FE9A2E05003024BC2E50C2474
:104B180006F8E50D3400F9880A890BE50C2404F839
:104B2800E50D3400F9880C890DE510606014601BF0
:104B380024816037146003024C4A124C861218090B
:104B4800125422121809124C538017EAF8EBF91282
:104B5800542D121809880C890DE508250CF8E5096B
:104B6800350DF9850A82850B838046124C8612180A
:104B780009E8FCE9FDECC333FCED33FD850E8285C5
:104B88000F8312542D121809124C53801DEAF8EBAA
:104B9800F9850E82850F8312542D121809880A8907
:104BA8000BE508250AF8E509350BF9850C82850D12
:104BB80083E028FEA3E039024C43124C9E603C146B
:104BC800603F248160051470798006850E82850F08
:104BD80083E0FEA3E0FF124C6E121809E8FCE9FD21
:104BE800ECC333FCED33FDEEFAEFFB121809880A2B
:104BF800890BEC250AF8ED350B8023850E82850F8D
:104C080083E0FEA3E0FFECF8EDF9EEFAEFFB1218F3
:104C180009880E890FE50A250EF8E50B350FF9EE20
:104C2800850CF0A4FEAAF0850CF0EFA42AFFE82E6C
:104C3800F8E93FF9E82508FEE93509FF80047E0018
:104C48007F00EEFAEFFB7F0E0219C588088909EC90
:104C58002508F8ED350922F50BEAC3950AF512EB9C
:104C6800950BF513C322EC75F07FA4FCA8F075F042
:104C78007FEDA428FDECF8EDF97A327B0022EA7585
:104C8800F07FA4FAA8F075F07FEBA428FBEAF8EB14
:104C9800F97A327B0022E511A2E0B3E433F50CE5A2
:104CA8000A9AF8E50B9BF9851108E88508F0A4F83D
:104CB80085F0118508F0E9A42511F9EAC3950AFAE7
:104CC800EB950BFBEA850CF0A4FA85F008850CF04F
:104CD800EBA42508FBE82AF508E93BF509E5087582
:104CE800F003A4F508A8F075F003E509A428F50970
:104CF8008C0A8D0BE50AC333F50AE50B33F50BE592
:104D08001022900781E0F512A3E0F513C32274F78F
:104D18001218F374F612189CE9FEEAC333FAEB335F
:104D2800FB74682AF874073BF988828983ECF0A33E
:104D3800ED125259F088828983E0C0E0740112189C
:104D4800E7D0E0124DAAEEF91215187A007B00EAB6
:104D5800F8EBF9E8C333F8E933F974021218E7E518
:104D68008228FCE58339FD746828F8740739F988C6
:104D7800828983A3E08C828D83F088828983E08C8A
:104D8800828D83A312501B940412509240C1740266
:104D98001218E7AC82AD837A08790112159C740A5F
:104DA8008010F0851882851983AC82AD837A02223F
:104DB80074041218B27F010219C574F01218F37442
:104DC800F612189C8A088B09750E00750F00E50EFF
:104DD800C333FEE50F33FF74682EF50C74073FF5F7
:104DE8000D850C82F583A385820A85830BE5082E41
:104DF800F582E5093FF5831254396028850C8285D0
:104E08000D83125404851882851983124E7EC0E0E2
:104E180074011218E7D0E0124DAAE50EC333248DB1
:104E2800F912151874021218E7E5822EF8E58312B4
:104E38004E67E50E2401F50EE50F3400F50FC3E5C6
:104E48000E9404E50F125093408474021218E7ACD4
:104E580082AD837A08790112159C740A0242113FC7
:104E6800F9850A82850B83E088828983124E7E88C1
:104E7800828983A3F022F0850C82850D83E0227459
:104E8800EC1218F38A0C7510007511007512007574
:104E980013007A00850C088B098C0A8D0BEA3333D2
:104EA8003354F8780812169A90900078081217333D
:104EB8007403C39A33333354F878081216B378104E
:104EC80079081217590AEAC3940440C8AA10AB110A
:104ED800AC12AD137F0C0219C574F71218F374FCE9
:104EE80012189CEAFEEBFF1211A01211A612128AE8
:104EF800851882851983121796851882851983EE7D
:104F0800FCEFFDECFAEDFB74041217AF024DB87418
:104F1800F41218F37A057B001211B88A088B09AECF
:104F280008AF09740C1218E71248B978017900C360
:104F3800E498FAE499FB740C1218E7E5822AF582E2
:104F4800E5833BF583A3A3A3A3A3E0C0E0EE28F584
:104F580082EF39F583D0E01250D840D3EEFCEFFD54
:104F68007A05790612159CEEFAEFFB1211BE740C45
:104F78001218E7E06018740D1218E7780812176C19
:104F8800E5084509450A450B700479018002790056
:104F980002570774F61218F3900950E060707A10FF
:104FA8007B001211B88A088B09AE08AF09900783F5
:104FB800E075F00FA4F8A9F0745628F8740939F9C7
:104FC8001248B9900783E004F07A007B00E82AF5DC
:104FD80082E93BF583E0C0E0EE2AF582EF3BF583FA
:104FE800A3D0E012501B940F12509240E0EEFCEF59
:104FF800FD7A10790812159CEEFAEFFB1211BE909B
:105008000783E0C394434006E4F0900950F07F0220
:105018000219C5F0EA24010AEB3400FBC3EA227442
:10502800F61218F374FC12189C851882851983AA45
:1050380082AB831212907A047B001211B88A088B13
:1050480009AE08AF0978007900851882851983E5CB
:105058008228F582E58339F583E0C0E0EE28F58201
:10506800EF39F583D0E01250EA9404E912509340E6
:10507800D8EEFCEFFD7A04790712159CEEFAEFFBE7
:105088001211BE74041218B28084EB1250E222C0CE
:1050980082C0838A828B83E0900D43F07801790087
:1050A800EA28F582EB39F583E0C0E0C3E498FCE434
:1050B80099FD74482CF582740D3DF583D0E01250AB
:1050C800D840DD7C437D0D7A01799B121518801F2D
:1050D8001250EA9405E91250E2229400A2D265D057
:1050E8003322F0E8240108E93400F9C3E822F0D0BB
:1050F80083D082020122C082C08390094FE4F090DD
:10510800075DF090075FF0900949F0A380E0C08246
:10511800C0838A828B83A3E0F8748168600D740170
:105128006860087480686003E8700BEAFCEBFD7A3D
:1051380004798912151812127280B474F71218F3D0
:10514800EAFEEBFF8E828F83E0F9A3E0900FBE1298
:1051580052617999121518EEFCEFFD7A0279021264
:10516800159C024DBD74F71218F374F812189CEAD6
:10517800FCEBFD8C828D83E0C0E074011218E7D04F
:10518800E0F08C828D83A3E0851882851983F0EC8A
:105198002402FEED3400FF8E828F83E0C0E07403AA
:1051A8001218E7D0E0F08C828D83A3A3A3E0C0E0BF
:1051B80074021218E7D0E012525912543990095269
:1051C800600C1254047A027995121518800C125248
:1051D8006F85188285198312540474021218E71215
:1051E8005439900954600BE81252617997121518D6
:1051F800800B12526F74021218E7125404740112D1
:1052080018E7E0C0E074041218E7D0E0125259E041
:10521800C0E074051218E7D0E0F074031218E7E054
:10522800C0E074061218E7D0E0F074021218E7E044
:10523800C0E074071218E7D0E0F074041218E7AC65
:1052480082AD837A04790312159C7408024DBAE57D
:1052580008F085188285198322F0A3E9F0EEFCEFA7
:10526800FD7A022290094BE0F8A3E0F922C082C03F
:1052780083900764E0640170059007668008E06425
:1052880006600C90095212526F90094B1254049008
:10529800075DE0703F90075EE064037027C39009E4
:1052A8004A12540A50030253E6900949C3E0940194
:1052B800A312540A40030253C175800053FD0F9096
:1052C800075E800CE0700302540175800053FD0FE7
:1052D800E4025400F890075EE06870030253889077
:1052E800075DE014600914601714602602537F906C
:1052F800094BC08212540FD08212541B5079802D52
:1053080090095412542D12526CC3EA98EB995067C5
:105318008035900952C08290076212526F758309D6
:10532800D08212541B500F90095212526F9007628C
:10533800E8F0A3E9801890095412542D900762C32D
:10534800E09AA3E09B5008900762EAF0A3EBF09084
:105358000770E0F9900762C08290094B12542D75CE
:105368008307D082E0C39AFAA3E09BFB12127890DD
:105378000949EAF0A3EBF090075DE090075E8078BA
:10538800900949125439701675800053FD0F900723
:105398005DE4F090075FF090094F7402805A90071F
:1053A8005DE0146005146024804F90094BC08212A0
:1053B800540FD08212541B503343FDF07580409037
:1053C8000949E024FFF0A3E034FF802C900954C081
:1053D8008212526C758309D08212541B500E43FD01
:1053E800F075808090094912474E800C75800053F3
:1053F800FD0F900949E4F0A3F00250F7E8F0A3E9A3
:10540800F022E01250E222900952E0F8A3E0F97588
:10541800830922C3E098A3E09922E8FCE9FDECC3E4
:1054280033FCED33FDE0FAA3E0FB22850882850911
:1054380083E0F8A3E0F9E84922C082C083E59054EC
:105448000F900784F090094FE0640170030255BB88
:10545800900784E0640F90094F7020E4F090075D96
:10546800F0900785740FF090075EE0640370030204
:1054780055BB75800053FD0F0255BB7402F09009AF
:105488004EE060030255BB900785E0F8900784E082
:105498006870030255BB90075EE064037003025511
:1054A800A8900784E024FD700302553F24FE602C79
:1054B80024FE602024FE700302556024FE605724F9
:1054C800FE600914700302559B0255B390075D7482
:1054D800010255B290075D74020255B2900764E06C
:1054E8006406601D900768E0F47003A3E0F470039D
:1054F8000255B390075D7403F090076812526F80ED
:105508007512581B798D7A007B0012127E43FDF0CC
:105518007580C00255B3900764E064066005900783
:105528006A804012581B798F7A017B0012127E43E1
:10553800FDF07580208074900764E0640660059033
:10554800076C801F12581B79917A027B0012127E19
:1055580043FDF07580A08053900764E06406601FE7
:1055680090076E12526F74FF68700374FF69603B96
:1055780090075D7403F0900762E8F0A3E9802B12AE
:10558800581B79937A037B0012127E43FDF07580D5
:1055980060801890075DE4F043FDF0758010800B83
:1055A80090075DE4F0900949F0A3F0900784E0903B
:1055B8000785F00250F774F41218F3E9FE74046ECC
:1055C80060030256F19007601254397003025700C5
:1055D800900760C3E0941EA3E09400500D7C047D06
:1055E800007A867B0712148E80077A047B001214D7
:1055F80094900786E090078EF0900787E0F990076F
:105608008FF0900788E0FA900790F0900789E0FB08
:10561800900791F0909004780812176C90078A7898
:10562800081215C67072909008780812176C9007C7
:105638008E78081215C6604C90078E780812176C81
:1056480074016508700474026509601490078E7807
:105658000812176C740165087004740165097024D8
:1056680090900C780812176C90078E78081215C65F
:105678006012909010780812176C90078E780812B4
:1056880015C6701490078E7401F0A37404F0A37407
:1056980001F0A374AAF0806090078E780812176C46
:1056A80074016508700474056509700E90078A7C9A
:1056B8008E7D0774041217AF800FE9900764F0EA33
:1056C800900767F0EB900766F090078E780812173E
:1056D8006C90078A78081215C6601D90078E7C8A20
:1056E8007D0774041217AF800FEEC3940540098E2E
:1056F80008AA087B00121494900760E4F0A3F07FD6
:10570800040219C574F41218F3EAFEEBFFEEF8EF81
:10571800F9E8C333F8E933F9900770E0600C1460D6
:10572800112481601514601A80227508CE75090E3F
:10573800801A7508D875090E80127508CE75090E7D
:1057480080067508D875090EE8FEE9FF12526C75D7
:105758008307758262E0C398FAA3E099FB85088203
:1057680085098312581EC3EC9EED9FA2D265D033E3
:10577800502E900770E0F91212788A0A8B0BAC0A47
:10578800AD0BEEF8EFF9850882850983A3A31254BF
:105798002D121809880A890B850882850983804794
:1057A800C3E49CF8E49DF9C3EE98EF99A2D265D0C2
:1057B80033505D900770E0F91212788A0A8B0BACAF
:1057C8000AAD0BEEF8EFF9850882850983A3A3A338
:1057D800A3A3A312542D121809880A890B850882DD
:1057E800850983A3A3A3A3A3A3A3A312526FE88548
:1057F8000AF0A4C8AAF0850BF0A42AFA850AF0E9F1
:10580800A42AF9ECC398F8ED99F9900949125404BF
:1058180002570790094BE0FCA3E0FD2274F0121830
:10582800F374FA12189C890BECFEEDFF750A008AD6
:10583800088B097808121B4A000410575A675885C4
:10584800589F58B758D558ED58105928593C59669B
:1058580059EE59FF59165A315A575A575A7C5974A2
:1058680001650B6003025A528E828F83E0F8C3945D
:10587800034003025A52E8900F8A025A2E740265B6
:105888000B6003025A528E828F83126154900F8BE1
:10589800E8F0A3E9025A2E7401650B6003025A521C
:1058A800125A7F4003025A52E890079B025A2E74FC
:1058B80001650B6003025A528E828F83E0F8C3940D
:1058C800054003025A52E890079C025A2E7401655B
:1058D8000B6003025A52125A7F4003025A52E89050
:1058E800079D025A2E7410650B6003025A52750800
:1058F800107509007808121B067A9E7B0712112280
:1059080074021218B2025A787401650B6003025AC5
:1059180052125A7F4003025A52E89007AE025A2E9A
:105928007401650B6003025A528E828F83E0900FD8
:105938008E025A2E7404650B6003025A528E828FAF
:1059480083780C12176C909064780C1215FB500336
:10595800025A529007B0780C12177B025A78E96005
:1059680003025A5212078CE9700512135C8060908A
:105978000843806E7407650B6003025A5275080667
:105988007509007808121B068E828F83A3AC82AD3E
:105998008374021218E7AA82AB83121128740212C8
:1059A80018B27C007D00851882851983AA82AB8392
:1059B8008E828F83E0F9121302E9F508C3940A4036
:1059C80003025A7512078CE9700CA9081213627940
:1059D80050121524806F74442508F5827408340029
:1059E800F583740180407401650B705E125A7F5014
:1059F80059E89007AF802F7401650B704D8E828F28
:105A080083E0F8C3940A5042E8900F8D801874011F
:105A1800650B70368E828F83E0F874F928C3940A78
:105A28005028E8900F8FF080477401650B701B9029
:105A38000842E0F88E828F83E0900842F0E87030E8
:105A4800E06401702B1213508026750A188021C358
:105A5800EA9427EB940050157402650B700F8E8240
:105A68008F8312655312062AE9F50A8003750A0224
:105A7800A90A74060261498E828F83E0F8C39402F2
:105A88002274F01218F374CC12189C8C0A8D0B74C3
:105A9800201218E7AC82AD8375838F7582D874069F
:105AA8001217AF74201218E7AC82AD83121302E903
:105AB800F50874441218E7E0FEE9C3940A400302AB
:105AC8005BF775F006E9A4F50974261218E7AC82AD
:105AD800AD837A0E74202509F912151EE970097430
:105AE800321218E7E0FF80027F00900F8AE064021C
:105AF800700474018001E4F50D780D121B0AEEFDA7
:105B0800EFFCA908AA0AAB0B12138674011218B28B
:105B18007C147D007900740C1218E7AA82AB8312FA
