:020000040000FA
:0600000002010A0221BC0E
:03002B0002263179
:030033000226138F
:03003B0002265248
:030043000225C7CC
:0300530002223254
:03006B000225ED7E
:1000830002206BE5C754F84401F5C779012200004B
:100093000080FB120086B900030200F4E4792178A2
:1000A30008B800028004F709D8FCE479297802B87B
:1000B30000028004F709D8FCE49002817832790CBD
:1000C3008002F0A3D8FCD9FA900DB2AA82AB839038
:1000D300013A780779058015E493A3AC82AD838A4E
:1000E300828B83F0A3AA82AB838C828D83D8E9D9D8
:1000F300E77582BB7583BE740312011C758291750B
:100103008300740012011C75D00075813F7518813E
:10011300751902759F00020096C09FF59FE473D086
:100123009F22D083D082C09FE493C0E0740193C028
:10013300E0740293F59F22FF0000B400002800281A
:1001430000283075A000A000A000A000000800084F
:10015300E001F0001000100010001000100010006B
:1001630050005000500010001000D00700000000A5
:1001730000000F00010005003075070010000100AA
:1001830081FF00000000FF3E075C074407FF0202F7
:100193000208025000A0000000E80302DD90010005
:1001A30000909002AF90010000090E029B900100A5
:1001B30000B30202AF900100000A0E029990010001
:1001C30000C90202AF900100000B0E02A1900100D2
:1001D30000CB0202AF900100000C0E02C190080098
:1001E30000CC0202AF900100000D0E02AD900100A1
:1001F300000E0EFF0100FF2002DD9001000093902E
:1002030002AF90010000720E02AB900000000000EC
:10021300029D9003000019036E0D6E0D6E0D6E0DA1
:100223006E0D6E0D6E0D6E0D6E0D6E0D6E0D6E0DF3
:100233006E0D44105C103E10FFFF0200E2FF02004F
:10024300E7FF0200F3FF0200F3FFFAFF07000300DA
:10025300F9FFFBFF07000400F7FF07000300090095
:1002630003000A000E0005000D0005000E00020247
:1002730002020202020202010D000000100102DD6F
:1002830090010000969002AF90010000E90E02C3B6
:1002930090010000990702AF90010000EA0E02BF2F
:1002A300900100006B8F02AF90010000EB0E02BDC6
:1002B300900100005D8F02AF90010000EC0E02BBC5
:1002C30090010000CB8E02AF90010000ED0E02B949
:1002D30090010000B98E02AF90010000EE0E02B74C
:1002E30090010000DD8E02AF90010000EF0E02B519
:1002F30090010000958E02AF90010000F00E02B352
:10030300900100004F8F02AF90010000F10E02B187
:1003130090010000F20E01E803053F100AFF0001FF
:100323003075030201060000000000000000000019
:1003330000000000000000000000000000000000BA
:100343000000FFFF0600800CE80384030F0013097D
:100353004F666669636577656C6C20233030303097
:100363006666051208000800020A0002010603027D
:10037300F1FF53696D706C6520424C4520506572E6
:100383006970686572616C8415000090150A486194
:1003930072647761726520496E666F726D6174690C
:1003A3006F6E000A507265736574204865696768EB
:1003B30074000A506F7374757265204A75646765BB
:1003C3006D656E74000A416374696F6E2052616ECD
:1003D30067650008436F6E74726F6C20436F6D6DB9
:1003E300616E6400125065736B205374617475738E
:1003F300000A4C6F636B2053746174757300025071
:100403006F77657275702054696D657374616D7073
:100413000000104865616C74682044617461000ACF
:100423004175746F6D61746963204D6F7665204407
:10043300617461000002DD90010000B98F02AF908A
:10044300010000081002CB90030000710D029F9081
:10045300010000091002AF900100001E1002CD90B0
:10046300030000750D029F900100001F1002AF9062
:100473000100002D1002CF900300007D0D029F901C
:100483000100002E1002AF90010000401002D19035
:100493000300007F0D029F90010000411002AF9006
:1004A3000100004E1002D390020000830D029F90C2
:1004B3000100004F1002AF900100005F1002D590C1
:1004C300010000840D029D90030000880D029F909F
:1004D300010000601002AF900100006C1002D79081
:1004E3000300008E0D029F900100006D1002AF907B
:1004F300010000791002D990010000930D029F9032
:100503000100007A1002AF900100008D1002DB9011
:10051300000000970D029D90030000A70D029F901D
:100523000100008E1002AF900100009A1002C790E4
:10053300030000AD0D029F900100009B10120125E6
:1005430059AE0312012570AE03120125A1AE0312A9
:100553000125DCAE0312012506AF0312012530AFDE
:100563000312012547AF031201255EAF03120125D4
:1005730075AF031201259EAF03120125B1AF03121C
:100583000125C7AF03120125DAAF0312012501B01C
:10059300031201253CB00212012540B102120125CC
:1005A30078B1021201259BB102120125A6B10212F4
:1005B3000125C9B102120125D8B202120125ADB33A
:1005C3000212012528B402120125B0B4021201253A
:1005D300EBB40212012522B502120125B0B50212B5
:1005E300012589B602120125E9B602120125F4B6E6
:1005F3000212012573B70212012576B702120125F3
:1006030079B70212012508B8021201250BB80212AC
:1006130001253BB80212012565B80212012553B921
:100623000212012505BA02120125C3840312012512
:10063300EB8403120125198503120125508503124A
:100643000125AE8503120125F98503120125448690
:1006530003120125848603120125CA86031201258C
:10066300F88603120125B58703120125BF870312FC
:100673000125CC8703120125FF8703120125CB88AF
:1006830003120125D78803120125EF8803120125E0
:10069300F988031201254BBA0312012559BA031233
:1006A300012571BA0312012589BA031201256F705E
:1006B300001201251B7100120125967100120125FC
:1006C300B77200120125F372001201259C73001208
:1006D3000125837400120125E775001201253E767A
:1006E30000120125BF7600120125AF770012012504
:1006F300FC7700120125827800120125B4780012DC
:100703000125C87A001201250A7B00120125287BE6
:1007130000120125AB7B001201257F7C001201250D
:10072300477D00120125DEE502120125B1E6021222
:1007330001255AE702120125ADE7021201255DE802
:1007430002120125E9E802120125D5E90212012569
:1007530004EA0212012517EB021201255FEB0212D4
:10076300012534EC0212012570EC021201258CECF8
:100773000212012518BD03120125BE96031201259D
:10078300D49603120125FA96031201251698031233
:1007930001252098031201255599031201254D9A2D
:1007A30003120125B9F802120125E9F90212012504
:1007B3001CFA0212012566FA021201252DFC02120F
:1007C30001250FC60112012579C601120125D8C7DB
:1007D30001120125E8C70112012515C801120125DF
:1007E3006CC80112012515C9011201251CCA011289
:1007F3000125E6CA0112012546CC0112012589CC47
:10080300011201252ECD011201257BCD01120125F7
:10081300A1CD01120125AFCF01120125B4CF0112E1
:100823000125B9D10112012506D20112012579D280
:1008330001120125ACD2011201254ED3011201256B
:10084300F7D3011201252FD40112012532D401124D
:1008530001257AD401120125BAD40112012511D53B
:1008630001120125AFA303120125C7A3031201251A
:100873000FA40312012525A4031201256CA403125E
:10088300012580A5031201250DA60312012558A6F3
:1008930003120125C42600120125D02600120125CA
:1008A3000B270012012550270012012510280012E2
:1008B3000125962800120125FB280012012527296E
:1008C300001201256029001201259E2B001201252B
:1008D300822D00120125682F00120125AB30001272
:1008E3000125F932001201250B340012012556357A
:1008F30000120125663600120125833600120125F8
:10090300BE3600120125E0360012012543370012DE
:100913000125043C00120125993C00120125EA3C03
:1009230000120125113D00120125633D001201252E
:10093300813D00120125DB3D00120125C43E00125A
:1009430001253A4000120125BE400012012580898D
:10095300031201258A8903120125CD89031201257A
:10096300E88903120125788A03120125A08A03125C
:100973000125DD8A03120125148B031201253D8B0A
:1009830003120125B28B03120125C78B0312012524
:10099300DC8B031201250D8C03120125218C03121C
:1009A3000125468C03120125808C03120125AC8C92
:1009B30003120125388D03120125638D03120125CE
:1009C300AC8D03120125D68D03120125018E03126E
:1009D30001252FB603120125FF8D021201252D8E4D
:1009E300021201257B8F021201255B900212012561
:1009F3007A9002120125F790021201253A91021210
:100A03000125909202120125519302120125D895D6
:100A1300021201257996021201256F970212012510
:100A23006C9802120125C69902120125519A0212ED
:100A33000125D4B4031201253DB50312012591B557
:100A430003120125B8B503120125E9B503120125E7
:100A5300298E03120125968E03120125DD8E0312C2
:100A63000125F58F03120125F19003120125D4917D
:100A730003120125B9CD02120125FBCD0212012576
:100A8300CDCE02120125A6CF02120125A0D002125B
:100A9300012582D102120125EBD102120125A1D237
:100AA3000212012515D30212012581D30212012559
:100AB300AAD30212012524D402120125BDD40212A5
:100AC300012522D50212012537D5021201257DD534
:100AD3000212012596D502120125FBD5021201252A
:100AE300FED502120125B6A003120125DEA00312D2
:100AF30001251CA103120125DAA10312012541A23C
:100B0300031201255DA20312012585A2031201250B
:100B1300B5A203120125C4A20312012541A30312A6
:100B2300012567A30312012507B601120125A5B705
:100B330001120125C0B901120125FCB901120125D9
:100B430029BA011201250EBB0112012555BB011261
:100B5300012599BB01120125ABBB01120125EBBB9A
:100B63000112012518BC0112012563BC01120125E4
:100B7300A3BC01120125D1BC0112012523BD011221
:100B83000125B3BD0112012551C00112012567C220
:100B930001120125A5C20112012536C40112012546
:100BA3007BC401120125F2C4011201253CC50112C7
:100BB3000125E4C50112012540C402120125BFC469
:100BC3000212012581CA0212012590CB02120125CE
:100BD300F8CC021201258FCD02120125E1900112FA
:100BE30001252A91011201255791011201258A91AC
:100BF30001120125979101120125A39101120125EB
:100C0300B591011201259C9201120125FA9201125C
:100C130001252F9301120125729401120125BF941E
:100C230001120125E39401120125509501120125BA
:100C33000E9601120125C796011201253497011260
:100C43000125E69701120125F697011201257D98EA
:100C5300011201253C99011201256999011201250F
:100C6300E299011201253F9A01120125899A011285
:100C730001251F9B01120125EA9B011201259F9C5F
:100C830001120125149D01120125759D01120125F3
:100C9300DF9D01120125189E01120125BA9E011242
:100CA3000125CA9F011201250AA00112012527A0CF
:100CB3000112012546A0011201258DA00112012573
:100CC300B2A001120125DFA00112012559A10112D1
:100CD30001259AA101120125BEA2011201256EA3CD
:100CE30001120125C5A3011201252FA4011201251B
:100CF30048A40112012576BA02120125C9BA0212CB
:100D03000125D5BA02120125AABB02120125D1BBC6
:100D1300021201250CBC0212012578BC0212012526
:100D2300B4BC02120125EDBC0212012505BD02125D
:100D330001255ABD0212012573BD02120125BCBD56
:100D430002120125CFBD02120125E9BD02120125C0
:100D5300FFBD0212012532BF0212012579C0021222
:100D630001257BC10212012575C202120125F87FFC
:100D73000012012599F201120125C9F20112012580
:100D830091F601120125E8F701120125B1F80112CC
:100D9300012531FA0112012502FB011201253FFB56
:100DA3000112012562FB01120125A0FB011201259D
:100DB300A9FB01120125F3FB01120125FDFB011221
:100DC3000125A7FC0112012580FD01120125D4FD97
:100DD3000112012536FE0112012589FE01120125AA
:100DE300B8FE01120125F5FE011201257AA40112B4
:100DF3000125E1A701120125E7A70112012569AD2C
:100E030001120125E2B101120125B8B50112012534
:100E1300579A03120125CD9A03120125E39A03126F
:100E23000125249B031201255E9B03120125D79BF9
:100E330003120125129C03120125859C031201252F
:100E4300C39C03120125CC9C03120125D89C0312D9
:100E53000125F49C031201251F9D03120125359DD5
:100E630003120125799D0312012500800312012538
:100E73001380031201252D800312012556800312CE
:100E83000125998003120125D880031201251681BB
:100E9300031201257B810312012590810312012591
:100EA3009B8103120125A88103120125BF8103122F
:100EB3000125CD8103120125D88103120125E48187
:100EC30003120125F7810312012502820312012572
:100ED300258203120125CC8203120125DC82031231
:100EE3000125F682031201251383031201252F83A3
:100EF300031201255483031201255F830312012585
:100F0300748303120125888303120125E9830312E5
:100F13000125EF8303120125F58303120125FB83CA
:100F230003120125138403120125468403120125AC
:100F33006FE401120125F3E401120125A2E5011278
:100F4300012501E70112012522E9011201250EEA1B
:100F53000112012543EA0112012565EA0112012567
:100F630014EB011201250CED0112012535ED0112DF
:100F73000125C7ED01120125F9ED0112012506EE48
:100F8300011201255DEE0112012583EE01120125F7
:100F9300F0F001120125F3F1011201254BF20112C8
:100FA3000125FED50112012508D701120125EFD72E
:100FB30001120125F9D7011201251BD801120125C0
:100FC30027D801120125C0D901120125EFD9011239
:100FD30001250BDB0112012564DB01120125CADCAB
:100FE30001120125A9DD0112012505DE01120125EA
:100FF30072DE01120125ADDE01120125ECDE0112C4
:101003000125A5E101120125BFE1011201254BE2F2
:101013000112012559E201120125B2E20112012553
:10102300C0E20112012533E30112012597E3011206
:101033000125E1E301120125D29A02120125F49A56
:10104300021201251A9D021201252FA00212012569
:1010530047A102120125FAA102120125DCA2021204
:10106300012513B00312012538B003120125AAB0DC
:101073000312012564DE021201256DDE0212012531
:1010830076DE021201254DDF02120125FEE0021277
:10109300012534E1021201256EE102120125A4E1CA
:1010A30002120125DEE10212012512E202120125DC
:1010B3003EE20212012587E202120125C1E2021279
:1010C30001250AE30212012562E30212012597E3D7
:1010D30002120125F2E3021201252CE4021201257A
:1010E3007DE402120125B3E402120125EDE40212AC
:1010F30001251BE5021201253EE502120125D8BB9D
:101103000312012504BC031201255FBC0312012550
:1011130069BC0312012579BC0312012538F30212BD
:10112300012542F30212012580F302120125C9F3BE
:101133000212012503F4021201255DF402120125B6
:101143007EF40212012587F402120125D4F402125F
:101153000125FDF40212012507F50212012573F59D
:101163000212012505F6021201254FF6021201258E
:1011730085F60212012511F70212012552F7021218
:10118300012589F7021201259BF702120125BAF7FF
:1011930002120125C3F7021201258BF80212012561
:1011A30048B7031201253FB803120125E0FD0212DF
:1011B300012516FE021201254CFE0212012597FF9E
:1011C300021201259CBD03120125B2BD03120125A4
:1011D300BCBD0312012506BE03120125969203121C
:1011E3000125AB92031201255E93031201259E9301
:1011F30003120125B79303120125F293031201256C
:101203003F9403120125719403120125B394031231
:10121300012554B9031201257DB903120125ACB987
:1012230003120125C4B90312012506BA03120125CD
:1012330025410012012577410012012529420012A0
:101243000125224300120125E24300120125ED444A
:1012530000120125C54500120125E44500120125B0
:101263007C460012012563470012012573470012D3
:101273000125C747001201254B4900120125A04D46
:1012830000120125464E00120125094F00120125C7
:10129300634F00120125994F001201251D500012C2
:1012A3000125A95000120125195100120125805171
:1012B30000120125985100120125C5510012012584
:1012C300EF5100120125F45200120125AA54001215
:1012D30001251857001201256658001201257E5971
:1012E30000120125B95900120125AF5A0012012538
:1012F30082A603120125A7A603120125D1A6031274
:10130300012565BE03120125D95A001201253E5D50
:1013130000120125DF5E00120125935F00120125F3
:10132300266000120125AB6000120125D060001277
:101333000125266400120125AC6400120125DF6536
:10134300001201251966001201254E6600120125BF
:101353000E68001201256B6800120125B4680012A3
:1013630001251F6900120125906900120125C26938
:1013730000120125DA6900120125236B00120125F1
:10138300336B001201254E6C00120125706C0012A4
:101393000125A66C001201255A6E00120125E76E85
:1013A30000120125266F001201254A700012012543
:1013B30022BB0312012533BB031201250EBF031207
:1013C30001254DBF0312012557BF03120125607F7D
:1013D30000120125707F00120125887F001201256C
:1013E300EE7F0012012550B803120125D5B8031270
:1013F30001253BB9031201255AB30312012583B317
:1014030003120125EEB3031201253FB40312012594
:101413009AB4031201254EA90312012563A90312ED
:1014230001257FAA03120125F3AA031201250DAB9F
:101433000312012524AB0312012537AB0312012547
:1014430051AB0312012568AB031201258EAB0312C6
:101453000125DFAB03120125EFFF02120125A99D30
:1014630003120125399E03120125A99E03120125AA
:101473003A9F03120125439F03120125C19F0312C3
:101483000125D49F0312012540A003120125A0A02A
:1014930003120125B3A00312012583BC0312012506
:1014A300F2BC03120125FDBC031201250DBD03127D
:1014B3000125B8B1031201250AB20312012594B222
:1014C30003120125FBB20312012514AC03120125FB
:1014D3003EAC031201250CAD03120125E7AD031247
:1014E300012522D602120125E9D60212012520D7B1
:1014F300021201254AD702120125AAD70212012599
:1015030000D80212012565D802120125FDD8021266
:1015130001250CDA02120125A3DB0212012530DCBE
:101523000212012597DC02120125AEDC021201250D
:10153300C8DD0212012506DE021201250080021217
:101543000125818302120125098502120125608587
:10155300021201257F8502120125FD850212012554
:10156300938702120125788802120125868C0212C4
:1015730001255C8D0212012500A60212012593A903
:101583000212012566AA021201259AAB0212012555
:1015930023AE02120125A1AF0212012528B00212C7
:1015A300012501ED0212012551ED021201256EED17
:1015B3000212012505EF02120125A1EF02120125F6
:1015C3009DF002120125FFF202120125D0FF011244
:1015D3000125D1FF02E066701008A3E066700A08D7
:1015E300A3E066700408A3E06622C3E7960809E750
:1015F300960809E7960809E79622C3E09608A3E050
:101603009608A3E09608A3E09622C008C3E096F5E7
:101613000808A3E096420808A3E096420808A3E05E
:101623009645087001D3D00822080808EAC0E0EB09
:10163300C0E086F0E7A4FA180986F0E7A42AFA18AE
:101643000986F0E7A42AFA180986F0E7A42AFA190A
:1016530086F0E7A4FBE5F02AFA190886F0E7A42B45
:10166300FBE5F03AFA190886F0E7A42BFBE5F03A1C
:10167300FA18180986F0E7A4C5F02BFBE43AFA1927
:1016830008E7C5F0C6A426F6E5F03BFBE43AFA18F2
:1016930086F0E7A4F6E5F00826F6E43B08F6E43A1C
:1016A30008F6D0E0FBD0E0FA226016080808C6C3AB
:1016B30013C618C613C618C613C618C613C6D5E074
:1016C300EA227009080808226016181818C6C333DE
:1016D300C608C633C608C633C608C633C6D5E0EA4D
:1016E30022E627F60809E637F60809E637F6080979
:1016F300E637F622E026F608A3E036F608A3E0363E
:10170300F608A3E036F622E026F008A3E036F00858
:10171300A3E036F008A3E036F022C3E697F6080903
:10172300E697F60809E697F60809E697F622C3E076
:1017330096F008A3E096F008A3E096F008A3E096DD
:10174300F022E056F608A3E056F608A3E056F608A2
:10175300A3E056F622E056F008A3E056F008A3E013
:1017630056F008A3E056F022E647F60809E647F6E6
:101773000809E647F60809E647F622E0F608A3E07B
:10178300F608A3E0F608A3E0F622E6F008A3E6F0E5
:1017930008A3E6F008A3E6F022E0FAA3E0FBA3E047
:1017A300FCA3E0FD22EAF0A3EBF0A3ECF0A3EDF041
:1017B30022CAC0E0E6F0A308DAFAD0E0FA22CAC0EF
:1017C300E0E0A3C582CCC582C583CDC583F0A3C5A4
:1017D30082CCC582C583CDC583DAE6D0E0CA22C3F5
:1017E300E498F8E499F91218238026C3E49AFAE4FA
:1017F3009BFBE920E7E9121823E498F8E499F9221E
:10180300C3E498F8E499F9121823E498F8E499F9F1
:10181300C3E49AFAE49BFB22EB20E7CFE920E7E05D
:10182300B90010BB0008E88AF084F8AAF022E4FBB0
:10183300C8FA22EB70227B10C833C8C933C93350AE
:1018430007C39AC3DBF280069A50012ADBEAC83346
:10185300F4C8C933F4C9FA2275F008E4C833C8C917
:1018630033C933C99AC99B5004C92AC93BD5F0EC83
:10187300FBC833F4C8E4C9FA22600D08C6A2E71313
:10188300C618C613C6D5E0F322600C08C6C313C638
:1018930018C613C6D5E0F422700422600D18C6C31F
:1018A30033C608C633C6D5E0F41822251810AF088E
:1018B300F518400215198008F51840021519D2AF22
:1018C30022C0D0251810AF08F5185002051980085A
:1018D300F51850020519D2AFD0D0222518F5821081
:1018E300AF08F518400215198008F51840021519BC
:1018F300D2AF851983222518F582E43519F58322A1
:10190300E4732518C582C0E0E51934FFC583C0E040
:10191300E518C3958224F810AF08858319858218CA
:101923008008858319858218D2AFCEF0A3E520F015
:10193300A37808E608F0A3DEFAEFF0A3E58124FA22
:10194300F8E608F0A3E608F0A3E608F0A30808E623
:1019530008F0A3E608F0A315811581D0E0FED0E0DE
:10196300F8158115811581E8C0E0EEC0E022251845
:10197300C582C0E0E51934FFC583C0E0E518C3950F
:101983008224F910AF08858319858218800885831E
:1019930019858218D2AFCEF0A3E520F0A37808E62C
:1019A30008F0A3DEFAEFF0A3E58124FBF8E608F0E4
:1019B300A3E608F0A30808E608F0A3E608F0A315D9
:1019C300811581D0E0FED0E0F815811581E8C0E0F3
:1019D300EEC0E022851983851882E0A3FEE0A3F51B
:1019E300207808E0A3F608DFFAE0A3FFE0A3C0E055
:1019F300E0A3C0E0E0A3C0E0E0A3C0E0E0A3C0E058
:101A030010AF08858218858319800885821885831D
:101A130019D2AFD083D0820201228519838518821F
:101A2300E0A3FEE0A3F5207808E0A3F608DFFAE0E0
:101A3300A3FFE0A3C0E0E0A3C0E0E0A3C0E0E0A315
:101A4300C0E010AF08858218858319800885821845
:101A5300858319D2AFD083D08222C0D02518C58206
:101A6300C0E0E51934FFC583C0E0E518C3958224BF
:101A7300F310AF088583198582188008858319853B
:101A83008218D2AFC8F0A3E9F0A3EAF0A3EBF0A366
:101A93007908E709F0A3D8FAECF0A3EDF0A3EEF090
:101AA300A3EFF0A3D0E0F0A3D0E0F0A3D0E0F0A345
:101AB300E520F0A3E5F0F0A322851983851882E0E1
:101AC300C0E0A3E0F9A3E0FAA3E0FBA37808E0F603
:101AD30008A3DFFAE0FCA3E0FDA3E0FEA3E0FFA37D
:101AE300E0C0E0A3E0C0E0A3E0F5D0A3E0F520A3CD
:101AF300E0A3F5F010AF0885831985821880088567
:101B03008319858218D2AFD082D083D0E0F8D0E099
:101B13003274048006740280027401C0E0F404127B
:101B230018DED0E01217B42274048004740280001B
:101B3300CCC0E0EDC0E0E518C39CCCAD1950011D4D
:101B430010AF068C188D1980068C188D19D2AF1220
:101B530017C1D0E0FDD0E0FC22D083D082E9C0E001
:101B6300E493A3C386F0C5F095F0F908E493A38644
:101B7300F0C5F095F0700BE493A3C3994005E90415
:101B83008002A3E475F002A42582F582E5F0358393
:101B9300F583D0E0F9E493A3C0E0E493C0E022D05E
:101BA30083D082ECC0E0EDC0E0E493A3FCE493A314
:101BB300FDED4C600D121BEEEC24FFFCED34FFFD3C
:101BC30080EFE493A3FCE493A3FDED4C600D121CA2
:101BD3002DEC24FFFCED34FFFD80EFD0E0FDD0E0E1
:101BE300FCE493A3C0E0E493C0E022C0E0C3E49329
:101BF30096087401939618400FE49366700808746E
:101C03000193661870007019A3A3C3E49396087434
:101C130001939618A3A3400DD0E0D0E0D0E0021BBF
:101C2300DEA3A3A3A3A3A3D0E022C0E0C0F088F067
:101C3300E4936670080874019366187000A8F0A313
:101C4300A3700BD0F0D0E0D0E0D0E0021BDEA3A362
:101C5300D0F0D0E02274F5121971EAFEEBFFEE2406
:101C630034F8EF3400F988088909EE2435121D840D
:101C7300F8EE2437121D84F50AEC850AF0A4FCAAB9
:101C8300F0850AF0EDA42AFDE82CF8E43DF97A2565
:101C93007B00121823EA850882850983F074075AAA
:101CA300F87401B800028004C333D8FCFBEA1313B1
:101CB30013541FF8EE28F8EF3400F9E8245DF58299
:101CC300E9121D875B6003EA801CEE2436121D8433
:101CD300F5F0EA84A8F0EE28F8EF3400F9E82438A8
:101CE300F582E9121D87F97F04021A1D74F5121992
:101CF30071EAFEEBFFEE2434121D84C0E0EE2435BE
:101D0300F582EF3400F583D0E0F08E828F83A3A3B6
:101D1300A3A3A3E0FAA3E0FB8E828F83A3A3A3A3D1
:101D2300A3A3A3E0FCA3E0FDECC39AF50AED9BF5A6
:101D33000BEE247FF508EF3400F509850882F5835F
:101D4300E06401702BEE2480F582EF3400F58312FA
:101D53001B2F121D8D74021218C4E960137CDC7DE5
:101D630004EEFAEFFB120C96850882850983E4F0F2
:101D7300AC0AAD0BEEFAEFFB121C581225B3021C92
:101D8300EAF582EF3400F583E022C082C083851830
:101D930082851983E0F8A3E0F9C3EA9CEB9D501018
:101DA300C3EC98ED99401BC3EA98EB995014800E4D
:101DB300C3EA98EB994007C3EC98ED994004790185
:101DC30080027900D083D08222EAC39CFAEB9DFB88
:101DD3002274ED1219719003A2E064086005E064B7
:101DE30007702C9061C8E060269003D0E0F874FF80
:101DF30068601CE875F003A4C8AAF02AF974D22815
:101E0300FE740339FF8E828F83A3A3A3E070057949
:101E130000021F74EE2468F510EF3400F511906092
:101E230060E0851082851183F0750A45750B057591
:101E33000800750900E5D914F50EE5D95403F50F2B
:101E4300601CEE2482F50CEF3400F50D7403650F6E
:101E53006058E50E6013EE2467121D84700B793D04
:101E6300EEFAEFFB120CBA80A6900540E064016025
:101E730026850C82850D83E0600478048002780057
:101E8300850E08E508C398FA95E0FB120B3A8A0819
:101E93008B09EA45097006120F12021E12850C8285
:101EA300850D83E070048A0A8B0B78008016E5D9D0
:101EB300C0E08812E50A2512F582E50B3400F583AC
:101EC300D0E0F008E8C3950E40E4850C82850D83CD
:101ED300E0602874FC250EF50E780A121B18AC0E70
:101EE300A90FEEFAEFFB120D6874021218C4E97021
:101EF3000AAA08AB091214B8021E617403650F60C5
:101F030058850E0C750D00780C121B18AC0AAD0B1E
:101F1300AA08AB09120D2C74021218C4851082850D
:101F23001183E0F87480687005750C7F8002880C5B
:101F3300E50CF50A780A121B1CE50FF50A780A125C
:101F43001B1CA90EAC08AD099003D0E0FA7B00126C
:101F530009D274021218C480139003A2E0640860CB
:101F63000BAC0AAD0BEEFAEFFB120DFE120F1E794E
:101F7300017F0C021A1D74F312197174FC1218AE4E
:101F8300EAFEEBFF8908A2AFE433F509C2AFEE2402
:101F930063F50AEF3400F50B8010AA0AAB0B120CA1
:101FA300E41214B89004E3E004F0850A82850B83FD
:101FB300E0F8A3E0F9E849602FE82402FAE93400E5
:101FC300FBEA2402F50CEB3400F50D780C121B1818
:101FD3008A828B83E0FCA3E0F9EEFAEFFB120CD8C4
:101FE30074021218C4E960B29004E3E060579004ED
:101FF300E4E0F89004E3E0C398500C7402650870C1
:10200300449004E5E0603E8E828F83A3A3A3A3E004
:1020130085188285198312205874021218F9E81260
:1020230020589004E2E028F074021218F9AC82AD53
:1020330083851882851983AA82AB8379011209DE0D
:102043009004E3E4F0E509A2E092AF74041218C42B
:102053007F06021A1DF0A3E4F09004E3E0F82200E7
:10206300008521878522C622C0E074EF121A5DA283
:10207300AFE433FEC2AF759B00906182E0A2E050F3
:1020830012E591A2E0500C7591FE74016521700375
:10209300121DD4E0A2E55051E591A2E5504B759194
:1020A300DF9003A2E064076005E064087023740115
:1020B3006521703579019003D0E0FA75F003A4CA65
:1020C300A8F028FB74D22AFA74033BFB121F798011
:1020D30018E0640D70139003C4E004F064287002E8
:1020E300E4F07A00E0F9120F24906182E0A2E64066
:1020F30003022192E591A2E640030221927591BF6A
:102103009003A2E064057008120E40120E4C800387
:10211300120E46752100120EB2E99003A3F0790066
:10212300120EA6120C007A017B009003A1E0F912B3
:102133001176907803E064427055900544E014F002
:10214300704DC2AF12214A00782AD0E0F618D0E0D1
:10215300F6E59F540770057509FF800375097FC471
:10216300C0E07829E6F50808E65509F509740B7807
:102173000812188CD0E02508F8906270E0A2E740BE
:10218300F8E8C333906272F0906270E0D2E0F090AE
:102193006181E0A2E35009E5E9A2E3500375E9F7A1
:1021A300A3E0A2E75009E591A2E7500375917FEE02
:1021B300A2E092AF7F04021ABCC0E0C0D0C082C0CC
:1021C30083906183E0A2E05009E5BFA2E05003756C
:1021D300BFFEE0A2E15009E5BFA2E1500375BFFDD8
:1021E300E0A2E25009E5BFA2E2500375BFFBE0A203
:1021F300E35009E5BFA2E3500375BFF7E0A2E45043
:1022030009E5BFA2E4500375BFEFE0A2E55009E57D
:10221300BFA2E5500375BFDFE0A2E65009E5BFA208
:10222300E6500375BFBFD083D082D0D0D0E032C098
:10223300E074F2121A5DE5A7A2E4500FE5A1A2E44F
:10224300500953A7EF75A1EF122286E5A7A2E55027
:102253000CE5A1A2E5500653A7DF75A1DFE5A7A210
:10226300E15009E5A1A2E1500375A1FDE5A7A2E2B2
:10227300500CE5A1A2E2500653A7FB75A1FB7F0119
:10228300021ABC74F81219717521019003A2E0645B
:102293000670077A007B00120E28A2AFE433FED249
:1022A300AF9003A8E0640170187A207B009003A12B
:1022B300E0F91212007A207B009003A1E0F91211D9
:1022C3007C906182E0D2E6F0900541E0602185C612
:1022D3002280169003A7E064017008E5C654F84411
:1022E30005F5C653BEFC1220647401652160E4EE5B
:1022F300A2E092AF7F01021A1D8E238F24858228CC
:10230300858327851882851983E0CEA3E0CF8528AE
:1023130082852783EBC9EAC8EDCBECCA75F010C3FD
:10232300E833C8E933C9EA33CAEB33CBC3EA9EF5D2
:1023330026EB9FF525B35004AB25AA26EC33CCED51
:1023430033CDD5F0DAAE23AF242274F11219718A9A
:10235300088B098C0A8D0B909048780812174574E6
:102363000F1218F9780C12177E909048780C1217F8
:10237300457808790C1215ED90903450107808794F
:102383000C12171D780812160D4014800E780C7964
:102393000812171D780C12160D500479018002796A
:1023A300007F08021A1D74ED1219718A088B098CBB
:1023B3000A8D0B909048780812174574131218F978
:1023C300780C12177E909048780C121745780C7988
:1023D300081215ED40117808790C12171DAA08ABE5
:1023E30009AC0AAD0B80227510007511007512003F
:1023F3007513017810790C12171D781079081216CD
:10240300E4AA10AB11AC12AD137F0C021A1D90900D
:1024130048780812177E8A828B8378081217587FB0
:1024230004021A1D74F51219718C828D83780812B7
:10243300177E8A828B83780812173112247BC3E0BC
:1024430098F0A3E09912246D401E909068780812CA
:10245300177E8A828B83780812170A8E828F83E015
:102463002420F0A3E0344EF080A4F08E828F83C347
:10247300E09420A3E0944E22EA2404F8EB3400F91C
:10248300E8FEE9FF8C828D83A3A3A3A3E0F8A3E076
:10249300F98E828F832274F5121971E9FE9004F785
:1024A300E0FAA3E0FBEEC333F8E433F9741028F544
:1024B30082748F39F583E02AF508A3E03BF50978A8
:1024C30008121B1890906412179C1222FC740212BB
:1024D30018C48A088B098C0A8D0B7410780812169D
:1024E300ACAA08AB097F04021A1D74F11219718A90
:1024F3000C8B0D8C0E8D0F740F1218F9E0FAA3E0FC
:10250300FB74111218F9E0F508A3E0F50978081235
:102513001B18EA2401F508EB3400F509E4F50AF584
:102523000B780C790812162C90902C780812177ED1
:10253300780C790812162CAA0CAB0DAC0EAD0F1249
:1025430022FC74021218C48B09EA450960047A015B
:1025530080027A00EC2AFCED3400FD74131218F9A2
:10256300E0F8A3E0F9E8FEE9FFECF8EDF97A717B16
:102573000212182388088909E4F50AF50B8E828F65
:1025830083780812178DECF8EDF97A717B02121833
:10259300238A088B097405780812189B8E828F830F
:1025A300A3A3A3A3E508F0A3E509F07F08021A1D7E
:1025B300C082C083E9906000F0D083D08222C2AF92
:1025C30002000022C0E074F2121A5DA2AFE433FEEF
:1025D300D2AFC2C0E5D1A2E4500653D1EF12149496
:1025E300EEA2E092AF7F01021ABCC0E074F2121AAD
:1025F3005DA2AFE433FED2AFE589A2E1500312142A
:1026030010758900C2C5EEA2E092AF7F01021ABC29
:10261300C0E074F2121A5DA2AFE433FED2AFE58BD1
:10262300A2E05003121410758B00C2E880D8C0E0FA
:10263300C0D0E8C0E0E9C0E0E5A8D2AFC2C7A2E7D6
:10264300A2E792AFD0E0F9D0E0F8D0D0D0E032C02A
:10265300E0C0D0E8C0E0E9C0E0C008C009C082C063
:1026630083A2AFE433F9D2AF90089BE0F8A3E0680C
:102673007008539AFBA374018026C2E990089BE07B
:10268300F50874012508F074972508F58274083459
:1026930000F583E0F5C190089BE0C394044002E495
:1026A300F0E9A2E092AFD083D082D009D008D0E085
:1026B300F9D0E0F8D0D0D0E032FFFFFFFFFFFFFFFB
:1026C300FFC082C083E9900E71F002295374F712A0
:1026D3001905E99002E1F07C197D037AFF7BFF1273
:1026E30009249002E274FFF0A3F0A3E4F0A3F079CD
:1026F300051208AC9002E1E0F91207CE7A427B0999
:10270300120AEC7F010219D774F41219058A088B97
:1027130009EB548060309002E1E0F912115E8A0AFD
:102723008B0BAE0AAF0BEE4F60138E828F83E06488
:10273300B070031208C4EEFAEFFB12114CAA08E5BD
:10274300096480FB80047A007B0002292274F21260
:10275300190574FC1218AEEAFEEBFFEE4F603874F5
:10276300021218F9EEF0A3EF122B87ECF0A3ED128F
:102773002B87AA82AB831207C8E9F508707374121A
:102783001218F912373BE50A450B60658E828F8379
:102793001227FEEE4F700575080280557A067B00FE
:1027A3001211B88A0C8B0DA80CA90DE84970057598
:1027B3000813803D88828983E4122808A3A3EEF0DE
:1027C300A3EF123BD4E50AF0A3E50BF09002E71266
:1027D30028909002E76017E0FCA3E08003EAFCEB9B
:1027E300FD8C828D8312289070F38C828D83123638
:1027F30060A90874041218C4023DD6A3A3A3A3E0DE
:10280300FEA3E0FF22F0A3F0888289832274F212F0
:102813001905890AE975F017A4FEAFF09002E6E402
:10282300F09002E4122890600A1211BE9002E4E4D0
:10283300F0A3F0EEFAEFFB1211B88A088B09EA4510
:1028430009602FEEFCEFFD790012113A9002E4E5E6
:1028530008F0A3E509F07B00800812287AE4F0A3CE
:10286300F00BEBC3950A40F2E50A9002E6F079001B
:1028730080027913023DD6EB75F017A4F8A9F09006
:1028830002E4E028FAA3E0398A82F583221233F6C0
:10289300EA4B2274F4121905750800750900740CCB
:1028A3001218F9123BA8FEE9FF800CE5082401F594
:1028B30008E5093400F509C3E5089CE5099D503294
:1028C30085080A85090B7403780A12189BEA250AFE
:1028D300F8EB350BF988828983A3A3A3A3A3A312DF
:1028E300373BEE650A7003EF650B70BFE8FAE9FB4F
:1028F30080047A007B00802774F41219057900EABA
:10290300A2E0501B7508F075098F7808121B187C1C
:10291300047D007A737B0E1208A674021218C47F1A
:10292300040219D7C082C0839002E712295A601C9F
:1029330088828983A3A3E06A7003A3E06B888289FA
:102943008370E8A3A3A3A31233F280047A007B006D
:10295300D083D082020122123EA9E8492274EE12EA
:10296300190574FC1218AEEAFEEBFF85188285196F
:1029730083E4F0A3F0EE2402123644EE2405122B76
:1029830075EE2404F50EEF122F5AE024FE6039246D
:10299300FC604624FE605224FE605E24FE70030247
:1029A3002A7A24FE7003022AF224FE7003022B010A
:1029B30024FE7003022B1024FC7003022B1F24FE41
:1029C3007003022B2E022B6B9003007417F0A3E409
:1029D300122B8F120546022B6B851882851983AC47
:1029E30082AD831208CA022B3B851882851983ACFA
:1029F30082AD831208D0022B3B850C08850D097428
:102A0300021218F9AC82AD838508828509831233DB
:102A1300F21207EC8A0C8B0DAC0CAD0DEC4D604241
:102A2300E4F50CF50D780C121B18750C00750D03ED
:102A3300780C121B18750C01750D03780C121B18FA
:102A430074081218F9121B2F79161233EC12090CA1
:102A530074081218C4E9F50C700B1233E812055E02
:102A6300800F750C01850882850983122B7D123630
:102A730060850C08022B3E74021218F9AC82AD83F8
:102A8300850C82850D831233F21207EC8A108B11A9
:102A9300AC10AD11EC4D6043850C82850D83A3A36F
:102AA300121B2F7510007511037810121B18751067
:102AB300017511037810121B1874081218F9121BF0
:102AC3002F79161233EC12090C74081218C4E9F5A5
:102AD30009700B1233E8120564800F750901850C28
:102AE30082850D83122B7D123660850908804C8503
:102AF3001882851983AC82AD831208D6803A851873
:102B030082851983AC82AD831208DC802B85188201
:102B1300851983AC82AD831208E2801C85188285F7
:102B23001983AC82AD831208E8800D85188285195C
:102B330083AC82AD831208EEE9F508E50860298EBF
:102B4300828F83A3E06414601F850E82850F83E068
:102B5300900300122B87123EA5900301123660E505
:102B630008A3122B8F120540EEFAEFFB12086A023C
:102B7300354CF50CEF3400F50D22123EA985188271
:102B830085198322F085188285198322F07C007DC4
:102B930003850A82850B831233F62274EE1219051C
:102BA30074FC1218AE8A0A8B0B8C0E8D0FEA240567
:102BB300F508EB3400F5097C157D0079007A007B7C
:102BC3000312113AE5082402F50CE509122B788566
:102BD30018828519838582108583117810121B183A
:102BE300850882850983A3A3A3A31230A2121B180D
:102BF300E5082405F510E5093400F5117810121BDA
:102C030018850C82850D831233FC1207E6740612B5
:102C130018C48A108B11AE10AF11E50A2402F50A0D
:102C2300E50B123647EE4F7003022D6480177402D2
:102C33001218F91233F288828983EAF0A3EBF09039
:102C43000300E004F0900300E0C394054003022D69
:102C530064E4F510F5117810121B187510E975115D
:102C6300027810121B187510EA7511027810121BE6
:102C73001874061218F9121B2F7910EEFCEFFD12CF
:102C830033EC12090C74081218C4E9705E850882CB
:102C9300850983A3A3A3A3A3A3A3E0F89002E9E078
:102CA3006870481230A2121B187CEA7D02E50824E2
:102CB30008FAE5093400FB12113474021218C4E94E
:102CC30060298E828F83A3A3A3A31233F290030000
:102CD300E0F5107402781012189B74012510F58228
:102CE30074033511F583EAF0A3EBF074021218F9BB
:102CF3008582108583117810121B1874021218F93B
:102D0300121B2F850C82850D83123EBA1207F274B3
:102D1300041218C48A108B11AE10AF11900300E097
:102D2300F5107511007402781012189B74002510A9
:102D3300F874033511F988828983A31228907003EC
:102D4300022C28E82403F8E93400F9EE4F6003026B
:102D53002C318882898374FFF0A3F0900300E00490
:102D6300F0900300E0600A1233E812055279008004
:102D73000B850882850983123657790A02354C740C
:102D8300EA12190574FE1218AE8C128D13EA24058B
:102D9300F50CEB124024122802750800750900EAAD
:102DA3002402F510EB3400F511851882851983850B
:102DB300820A85830B780A121B18850C82850D8382
:102DC300A3A3A3A3122F64121B18E50C2405F50A71
:102DD300E50D123647780A121B18850C82850D8380
:102DE300123EB81207E674061218C48A0A8B0BEA5D
:102DF300450B7003022F15EA2404F50EEB122F5A2C
:102E03001228028A828B83A3A3A3E0F9851082850B
:102E130011831233F21207D4E9F5096003022F1567
:102E2300E4F514F5157814121B187514E9751502D9
:102E33007814121B187514EA7515027814121B18EE
:102E430074061218F9121B2F7913AC0AAD0B8510F7
:102E5300828511831233F212090C74081218C4E923
:102E6300F5096003022F159002E9E0F8E5087009FF
:102E7300E02402900301F08017900301E0FCE824B2
:102E830002FAE43400FBEA6C7001EB6003022F19D1
:102E9300850882AA82123099941412309150738556
:102EA3000E82850F83E0C0E074022A122F51D0E016
:102EB300F00508850E82850F83A3E0C0E085080A2C
:102EC3007402250A122F51D0E0F005089002E9128E
:102ED3002F64121B187CEA7D0285080A7402250AF6
:102EE300FA74033400FB12112274021218C4900204
:102EF300E9E02508F50874FF6E700374FF6F601234
:102F0300EE24010EEF3400FFE508C39414500302CE
:102F13002DACE50860131232DD8510828511831212
:102F230033F212055879008014E509700375090A14
:102F3300851282851383EEF0A3EFF0A909740212C0
:102F430018C47F0E0219D785080C7402250CF5826C
:102F530074033400F583223400F50F850E82F58364
:102F630022123BE72274EE12190574FE1218AE8C7E
:102F73000E8D0FEA2405F50CEB122B78750B0090E0
:102F83000300E4F0F50AEA2402F508EB3400F5093E
:102F93008049900300E0FA9002E9E0F81230999436
:102FA30017123091400D900300E0F87416C3989007
:102FB30002E9F01230A2121B187CEA7D0274012A86
:102FC300FA74033400FB12112274021218C4900223
:102FD300E9E0F8900300E028F0050AE50C2416F573
:102FE30082E50D122F55E0F8E50AC398400302303D
:102FF3007A900300E0C39416507DE50AC333F8E4E6
:1030030033F9E50C28FEE50D39FF85188285198310
:10301300AC82AD838E828F831233F21207EC8A1057
:103023008B11AC10AD11EC4D7005750B018043E4B1
:10303300F510F5117810121B187510E97511027847
:1030430010121B187510EA7511027810121B1874F0
:10305300061218F9121B2F79168508828509831227
:1030630033F212090C74081218C4E9F50B70030249
:103073002F9512365380107C007D038508828509C5
:10308300831233F212056AA90B740202354EE994D6
:1030930000C365D03322EA28F8E43400F9E822E0DB
:1030A300F51075110078102274EA12190574FC12D8
:1030B30018AE8A0C8B0D8C128D13EA2405F50AEBDE
:1030C300123647750800750900E50A2402F510E574
:1030D3000B3400F51174021218F985820E85830FE3
:1030E300780E121B18850A82850B83A3A3A3A31250
:1030F3003B93121B18E50A2405F50EE50B3400F586
:103103000F780E121B1885108285118312364D120B
:1031130033EC1207E674061218C48A0E8B0FAE0E38
:10312300AF0FE50C2402F50EE50D3400F50F8040DA
:103133008882898374FFF00508122F4A74FFF00513
:10314300089002E9E0F50C750D00780C121B187C51
:10315300EA7D0285080C7402250CFA74033400FB23
:1031630012112274021218C49002E9E02508F5082E
:10317300EE4F60718E828F83A3A3A3E0F9850E8245
:10318300850F831233F21207D4E9F509EE240412F2
:103193002B75E97044E4F514F5157814121B1875B2
:1031A30014E97515027814121B187514EA751502C3
:1031B3007814121B1874081218F9121B2F7911EEC8
:1031C300FCEFFD850E82850F831233F212090C7416
:1031D300081218C4E9F5096027850C82850D83124E
:1031E30032D3123660E50870030232B91232DD853C
:1031F3000E82850F831233F212057079000232CEEC
:10320300850882AA82EA9002E97009E02404900307
:1032130001F08022E0F8900301E0F514E82404FCB7
:10322300E43400FDEC65147001ED70C01230999424
:103233001212309150B6850C82850D83E0C0E07484
:10324300022A122F51D0E0F00508850C82850D83E8
:10325300A3E0C0E0122F4AD0E01232EF85820C8542
:10326300830D780C121B1874041218F9121B2F8586
:103273001082851183123EBA1207F274041218C425
:103283008A0C8B0DAE0CAF0D85080C7402250CF85F
:1032930074033400F9EE4F700302313385188285CD
:1032A3001983E0888289831232EFA3E0C0E0122FF2
:1032B3004AD0E0023141E509700375090A850A82A3
:1032C300850B831232D3123660A9097404022F428C
:1032D300123EA985128285138322900301E0F5F043
:1032E300E50884900300F07C007D0322F005088547
:1032F30018828519832274EC12190574FE1218AE14
:103303008A088B098C0E8D0FEA2405FEEB3400FF2F
:10331300851882851983AC82AD838E828F831233A5
:10332300F21207EC8A0A8B0BEE2418122B75EA456E
:103333000B70030233C31235355032851882851959
:10334300831233F21209008A108B11EA4511606B64
:103353007912AC0AAD0B8508828509831233F28595
:103363001082851183121903E9F50A7058E4F50AEE
:10337300F50B780A121B188E828F83A3A3E0F50A3C
:10338300780A121B18EE2403123644780A121B180B
:103393008E828F831233FC12091274061218C4E949
:1033A300F50A7021850C82850D83E0701F850882E4
:1033B3008509831233F21205768011750A0E80098E
:1033C300750A018004E50A6003123653850C828571
:1033D3000D83E0600479008002A90A74021218C404
:1033E3007F0C0219D77C007D03850A82850B83122B
:1033F30033F622E0FAA3E0FB22E0FCA3E0FD85081C
:10340300828509831233F62274EE12190574FE12B3
:1034130018AE8A088B098C0C8D0DEA2405FEEB345B
:1034230000FF750E00851882851983AC82AD838EEB
:10343300828F831233F21207EC8A0A8B0BEA450B55
:10344300700302352112353550358518828519836D
:103453001233F21209008A0E8B0FEA450F605E7970
:1034630012AC0AAD0B8508828509831233F2850EEF
:1034730082850F83121903E9F50E60030235248553
:10348300088285098312373BAA0AFB1208F48A10C3
:103493008B11A810A911E849701E7AFF7BFF12084F
:1034A300F48A108B11A810A911E849606C888289ED
:1034B30083E50AF0A3E50BF0750A008007750E0E8D
:1034C300805F050A9002E6E0FAE50AC39A504AE5EE
:1034D3000A75F017A4FAABF088828983A3A3E02AC4
:1034E300FAA3E03BFB8A828B8312364DEC4D70D2FC
:1034F300750A17750B00780A121B18EEFCEFFD1204
:10350300112274021218C4EEFCEFFD8508828509AE
:10351300831233F212057C8014750E098003750E35
:1035230001123EA1850C82850D83123660A90E021D
:10353300308CE5082402F508E5093400F5098A8290
:103543008B83A3A3A3E0A2E52274041218C47F0A09
:103553000219D774EC1219058C108D11EA2405F5A4
:103563000CEB122B78750F00EA2402F50AEB1236E6
:1035730047850A82F5831233F21208F48A088B090D
:10358300EA45097003023639750E008071850C8295
:10359300850D83E06401704F8E828F83A3A3121B7A
:1035A3002F8E828F83A3A3A3A3E0F5127513007854
:1035B30012121B18EE2405F512EF3400F5137812DE
:1035C300121B181233EC12091274061218C4E9F50F
:1035D3000F6014850C82850D83E4F0123EA18510E3
:1035E300828511831236607C177D007900EEFAEF35
:1035F300FB12113A8E828F83E4F0A3F0050E900242
:10360300E6E0F8E50EC398501EE50E75F017A4F832
:10361300A9F0850882850983A3A312402E12364D93
:10362300EC4D600302359085088285098374FFF0B1
:10363300A3F0E50F70061233EC120582A90F0233D3
:10364300E3F50AEF3400F50B22A3E0FCA3E0FD222F
:103653008E828F83123EA9850E82850F83E8F0A3A5
:10366300E9F022C082C0839002E2E06A7003A3E023
:103673006B70067AE27B0280047A007B0002295396
:10368300C082C08378008C828D83E06A7003A3E0DC
:103693006B7010E875F003A4F8A9F0EC28FAED3983
:1036A300FB8015088C828D83A3A3A3E06A7003A318
:1036B300E06B60DF7A007B0002295374F612190570
:1036C3001208BE8A828B83E582458370067A007B6B
:1036D300008007A3A3A3A31233F2023D5274F21294
:1036E3001905E9FE740E1218F912373B74101218FB
:1036F300F9123BB38C828D83E064027036A3123ED1
:10370300AFF50CA3E0F9A80C74026870037429697F
:103713007021750C02750D00780C121B18780812B5
:103723001B18780A121B18EEF912093674061218C0
:10373300C480027901023DD6E0F50AA3E0F50B222D
:1037430074E812190574FB1218AEE98518828519FD
:1037530083F08A168B17ECFEEDFF751000741D12B3
:1037630018F9123EA5741D1218F91236608E828F55
:1037730083A3A3A3E0A2E4502D741D1218F91233FE
:10378300F21209008A828B83E58245837003023B30
:1037930084790AEEFCEFFDAA16AB17121903E9F5BB
:1037A300106003023B87741F1218F9123BB3742194
:1037B3001218F912373B74231218F9E0F50EA3E03F
:1037C300F50F8E828F83E064026003023B32A31203
:1037D3003EA5850882850983A3858212858313EE1E
:1037E3002406122B7588828983E0FAA3E0F9EA2480
:1037F30000F514E439F5157814121BA20100002812
:103803000128273807000228EC38032859380029F3
:10381300233A01294E3A0229EF390329233A04298D
:10382300CD3A323BE50E450F6003023B2D850C82FA
:10383300850D83123BA8FAE9FB8A828B83E0850A14
:1038430082850B83123BDE121B188A828B83A3E0D3
:10385300FCA3E0023AB7E50E450F6003023B2D855A
:103863000A82850B837401F0123BBB8508828509AC
:1038730083F07C007D008E828F83A3A3A3A3E02427
:1038830001FAA3E03400FB1207ECEA4B60418A82A1
:103893008B83E02402F8850A82850B83E028F0EA13
:1038A3002404F8EB3400F988828983E08512828549
:1038B3001383123BF0123BDE121B188A828B831296
:1038C300364CE5082403FAE5093400FB023ABC85CB
:1038D3000A82850B83E02404F07C047D007900AA2E
:1038E30012AB1312113A023B87E50E450F60030238
:1038F3003B2D123BBBFEA3E0FF850A82850B83743D
:1039030004F0EE850882850983F0EF851282851322
:1039130083F074031218F9AC82AD83EEFAEFFB1255
:1039230007EC8A0C8B0DEA450D70030239D08A82AD
:103933008B83A3A31227FE74011218F985820E85C7
:10394300830F780E121B1874051218F9121B2F7CA3
:10395300FF7DFF1207F274041218C48B0FEA450FA0
:103963007033850C82850D83123B93121B18850CD3
:1039730082850D83A3121B2F7C027D007AA57B9089
:1039830012061E74041218C4E9700A74011218F99D
:1039930074FFF0A3F08E828F83E064027039750C9C
:1039A30002750D00780C121B188E828F8312364C11
:1039B300E5082404FAE5093400FB1211227402120B
:1039C30018C4850A82850B83E024028009740112DE
:1039D30018F9EEF0A3EFF074011218F9123BA4F0FA
:1039E30074011218F9A3123B9C023B27E50E450F05
:1039F3006003023B2D850C82850D8312364DAA167A
:103A0300AB1712092A850A82850B837402F0EA85B3
:103A13000882850983F0851282851383EB023B2A92
:103A2300E50E450F6003023B2D123BBBF8A3E0F903
:103A3300850A82850B837402F0E8850882850983F1
:103A4300F0E9851282851383023B2A850C82850D5A
:103A5300831233F212111CEAFC8C82A882C3950EE6
:103A6300E4950F405FE8650E7002E50F70047C007B
:103A73008022851882851983E0FAE50E2AFAE50F7C
:103A83003400FBC3EA98EB94005003E08005E50E95
:103A9300CCC39CFCEC850A82850B83F08C0A750BE6
:103AA30000780A121B18850C82850D83E0250EFC15
:103AB300A3E0350FFDAA08AB0912112274021218F4
:103AC300C4023B87751007023B87E50E450F705A0A
:103AD300850C82850D83123EA5850A82850B83742E
:103AE3000712280A123B9C12280AA3E0851282853A
:103AF3001383F0E82402FAE93400FB8A828B8312F1
:103B03003B9C123BCB123BA4A3123BD4123BADF024
:103B1300E82405F8E93400F988828983123BADA3D0
:103B2300123BF0A3A3A3A3F0805A75100B80557426
:103B33001D1218F91233F21208BE8A828B83E582B2
:103B43004583603D123EA5880C890DE8450D603123
:103B5300780E121B18780A121B187808121B187497
:103B6300061218F9E0F9EEFCEFFDAA16AB17850C67
:103B730082850D8312190374061218C4E9F51080A7
:103B83000375100EA91074051218C47F100219D7FB
:103B9300E0F50E750F00780E22E085088285098313
:103BA30022123BFA22123EA9E822123BFAA3A322D5
:103BB300E0F508A3E0F50922850C82850D83E0F882
:103BC300A3E0F5838882E022A3A3F08A828B83A3F8
:103BD30022F088828983A3A3A3A322F08A828B8302
:103BE300123BE722E0F50A750B00780A22F088827F
:103BF3008983A3123BFA22E0850882850983A3A364
:103C03002274EE12190574FE1218AE8A0A8B0BEC9D
:103C1300FAEDFB74141218F9E0F510A3E0F5117432
:103C2300161218F9E0FE74181218F9E0F50EA3E065
:103C3300F50F851882851983AC82AD831207EC8A50
:103C43000C8B0DEA450D6049851882851983123363
:103C5300F21208BE8A828B83E5824583602FA3A379
:103C6300123BB3E50845096024780E121B1878103F
:103C7300121B18EEF9AC0CAD0DAA0AAB0B8508822A
:103C830085098312190374041218C48006790E80FF
:103C930002790102308C74F612190574FE1218AE03
:103CA300740C1218F9123BA8851882851983F074D5
:103CB300011218F9E9F0E4F508F5097808121B1860
:103CC3007508027808121B1874041218F985820803
:103CD3008583097808121B1812091274061218C476
:103CE30074021218C4806874F7121905EAFEEBFF18
:103CF30089087C197D0312092AEA5402600BA9087A
:103D0300EEFAEFFB1207E08002790102270674F650
:103D130012190574FF6A700374FF6B70168C828D21
:103D230083123D57E4F08C828D83A3A3A3123D57E6
:103D3300A380181208FA8A088B09A808A909E84978
:103D4300600D8882898374FF122808A3A3E4F07F9F
:103D5300020219D774FFF0A3F08C828D83A3A322F0
:103D630074F61219051208FA8A828B83E582458359
:103D73006006A3A3E0FA80027A007B0080D174F28C
:103D83001219058A088B09ECFEEDFF740E1218F95F
:103D9300E0F50A1208FA8A0C8B0DA80CA90DE84964
:103DA3007026EEFCEFFD7AFF7BFF1208FA8A0C8B7C
:103DB3000DA80CA90DE84970047911801688828931
:103DC30083E508F0A3E509F088828983A3A3E50AC4
:103DD300F079007F060219D774EE121905EAFEEB9B
:103DE300FF8C088D09890C74141218F9123EA574FE
:103DF300161218F91233F2750D00E8496003023EFA
:103E0300997402650C6003023E9474121218F9123D
:103E13003EAFFCA3E0F9EC2400F50EE439F50FEA1C
:103E2300F4F8EBF4F9EC58F8E50F59F9E849705C4C
:103E3300E5082406F8ED3400F9880A890B8882F531
:103E430083123EBA12092A8A108B11E50E6510708F
:103E530004E50F65116042780E121B18850A8285EE
:103E63000B83123EBA12093074021218C4E9F50D1D
:103E73007027780E121B18850882850983A3A31265
:103E83003EB812094874021218C4800D750D808063
:103E930008750D0D8003750D0BA90D0235518E822A
:103EA3008F83123EA922E0F8A3E0F922123EA988EB
:103EB300828983E022A3A3E0FCA3E0FDEEFAEFFBFB
:103EC3002274E812190574E71218AE851882851951
:103ED30083EAF0A3EBF08C168D17890E7508007535
:103EE300090074311218F9E0F512A3E0F5137433E5
:103EF3001218F9E0F514A3E0F51574351218F9E07A
:103F0300F50FE50975F003A4F8A9F0851882851962
:103F13008312402EE0F47003A3E0F4700302401117
:103F2300EE2402F50CEF124024E0700302401185E9
:103F3300160A85170B780A121B18AC14AD15AA12B2
:103F4300AB131208B274021218C48A0A8B0BEA4527
:103F53000B7003024011E4F510F5117810121B18D1
:103F630074061218F98582108583117810121B18B4
:103F730074091218F98582108583117810121B18A1
:103F8300851282851383A3A3A3A3121B2F7914ACD9
:103F93000AAD0B8E828F831233F212090C7408124E
:103FA30018C4E97069850A82850B83A3A3A3A312AE
:103FB3003EA574021218F9123660850C82850D83B2
:103FC300E0A2E05018A90E74021218F9AC82AD8376
:103FD3008E828F831233F2120804E94208850C8221
:103FE300850D83E0A2E15026E50FF50A780A121B3E
:103FF3001CA90E74031218F9AC82AD838E828F83D1
:104003001233F21207FE74011218C4E942080509BB
:10401300E509C394025003023F05A9087419023B42
:104023008B3400F50D850C82F58322E028FEA3E096
:1040330039FF8E828F832274F2121905EAFEEBFF99
:10404300890B7401650B600E7402650B706A79014C
:10405300120B0AE97062EEFAEFFB1208F48A088B7E
:1040630009EA45096047750A00800B7C177D0079D2
:104073000012113A050A9002E6E0F8E50AC39850E7
:1040830021E50A75F017A4F8A9F08508828509834C
:10409300A3A3E028FAA3E039FB8A828B8312295A6F
:1040A30070C985088285098374FFF0A3F07C197DAC
:1040B30003EEFAEFFB120924023DD674F21219053E
:1040C3008A088B09ECFEEDFF740E1218F912373BC8
:1040D300900E71E0F4603D7A097B00121146EA4BC1
:1040E30060328A828B8374B1F0A3E4123BCDA312B6
:1040F3003BCBA3E508F0A3E50912411AEEF0A3EFC9
:1041030012411AA3A3E50AF0A3E50BF0900E71E0A8
:10411300F9121152023DD6F08A828B83A3A3A3A383
:10412300A322C082C08390075FE0F8E94A68900742
:104133005D603C7403F07410697013EAC333FCE4EC
:1041430033FD74682CF58274073DF5838015E9709F
:104153002074016A7005900959800874026A70110D
:1041630090095B125978900762ECF0A3ED8001E4AB
:10417300F002517974F012190574FE1218AE8A0810
:104183008B097E007F00EEF8EFF97A027B001218AC
:104193001BE8C333F50EE933F50F7468250EF50CF0
:1041A3007407350FF50D850C82F583A385820A8587
:1041B300830B851882851983AC82AD837A02EE2442
:1041C3008DF9121530E9601B74C2250EF582748FC8
:1041D300350FF583125498850C82850D83E8F0A37F
:1041E300E9801A851882851983E0850A82850B8305
:1041F300F074011218F9E0850C82850D83F0E5084F
:104203002EF8E509124EE9EE2402FEEF3400FFC357
:10421300EE9408EF125115500302418974021218EB
:10422300C47F080219D774F712190574FE1218AE69
:10423300EAFEEBFF851882851983AC82AD837A028F
:104243007995121530E96045900770E0600C1460B1
:10425300142481601B14601F802890095974BDF0D9
:10426300A37404803C9009597403F0A3740580314E
:1042730090095974E0800590095974F5F0A374010D
:10428300801F90095974FFF0A3743F80148518822E
:10429300851983E0F974011218F9E0900959F0A324
:1042A300E9124E2E7997121530E96041900770E0BC
:1042B300600C1460102481601714601F802790091C
:1042C3005B74C6800590095B7465F0A3740280314A
:1042D30090095B7416F0A37401802690095B74F552
:1042E300F0A3E4801C90095BE4F0A380148518829A
:1042F300851983E0F974011218F9E090095BF0A3C2
:10430300E9F090095A1249449009591243DD900982
:104313005C1243C890095B1243D27402024E3E748E
:10432300F712190574FC1218AEEAFEEBFF8518822A
:10433300851983AC82AD837A047989121530E960DB
:104343002C9007707401F0900952C3E09458A3E0D5
:104353009402500E900764E0640170069007707435
:1043630081F090077174021259B4A38028851882D2
:10437300851983E0900771F074011218F9E0900732
:1043830070F074021218F9E0F974031218F9E0904E
:104393000772F0A3E9F0900770E0547F900FC770A5
:1043A3000474148002740F1259B4900771124944B3
:1043B3009007701243DD9007731243C8900772127F
:1043C30043D2024E3C1243CC221247C0A3F0221226
:1043D30043D6221247C0A3A3F0221247BCF0227493
:1043E300E8121905EAFEEBFF8C0A8D0B74181218FC
:1043F300F9781012177E8E168F178E088F09EE4FDD
:10440300702F7A057B001211B88A088B09AE08AFAA
:10441300098E828F83A3A3A3A3E4F08E828F83A349
:10442300A3E50AF0A3E50BF08E828F83E4F0A3806B
:104433004EEA2404F514EB3400F5159090687810D7
:104443001216F7851482851583E0F50CE4F50DF556
:104453000EF50F7810790C1215ED502A8004880898
:1044630089098508828509831252EC70F17A057BEC
:10447300001211B81244C0851482851583E004F03C
:104483008032880889098508828509831252EC7075
:10449300F17A057B001211B81244C08E828F83E03B
:1044A300FEA3E0FF85148285158312493CAA16AB4F
:1044B300171211BEEEFAEFFB7F100219D78A0C8B8D
:1044C3000DA80CA90D88828983A3A3E50AF0A3E5AF
:1044D3000BF088828983E4F0A3F085088285098341
:1044E3001244E722E8F0A3E9F02274F412190574E8
:1044F300FC1218AE8908900778E06508700302453E
:10450300BB851882851983AA82AB83121290900906
:1045130054E0F50A75F005A4F8A9F0745D28FE745B
:104523000939FFE0C394C950198E828F831252D583
:1045330012179C8E828F83A31217A8900954E0044C
:10454300806B78007900E8FAE9FBEA75F005A4FAD4
:10455300ACF075F005EBA42CFB745D2AFC74093BED
:10456300FD8C828D83A3A3A3A3A374051217C1E8B3
:10457300240108E93400F9E50A24FFFAE434FFFBD7
:10458300C3E89AE99BA2D265D03340BAEE24FBF587
:1045930082EF34FFF5831252D512179CEE24FCF5FB
:1045A30082EF34FFF5831217A8900954E4F0E5086D
:1045B300900778F079018002790074041218C4021C
:1045C3005861C082C083900760C3E09489A3E094DC
:1045D300139007604005E4F0A3800312548802514E
:1045E3007874F71219058908740F5508F874F05593
:1045F30008600A24F0603424F06067806F900955E6
:10460300E07069900956E0640260617401F07EF421
:10461300FFE8601214600514600680507A0180027E
:104623007A02790080371212AE8041900955E0700A
:104633003B900956E064026033E4F07EF47F01E8C6
:10464300600B14600C14600D14600E801F7A0080E0
:104653000A7A0180067A0280027A037910121230F4
:10466300800A9009577401F07E007F00E5089007E7
:104673005FF0EEFAEFFB024E4174F0121905EAFE09
:10468300EBFF90901C121B2B90077D12549875839F
:1046930007758266E0C398FCA3E099FD9007791241
:1046A300571212124874041218C4900779EAF0A33F
:1046B300EBF07C007D009007791254988007E02C82
:1046C300FCA3E03DFD88828983E5822402F8E5832B
:1046D3003400F9E8FAE9FB1252EC8A828B8370DE2C
:1046E300E02CF508A3E03DF509900764780C121758
:1046F3007E90077B780C1215D8600C9007647C7B46
:104703007D0774041217C1900764780C12177E900A
:10471300077F780C1215D8603A900783125498C318
:10472300EE98EF99502D9007647C7F7D07740412F7
:1047330017C1900783F0A3F07A04FB1211B88A0A19
:104743008B0BAE0AAF0B1247971215AEEEFAEFFBC7
:104753001211BE9007831256FBAA08AB090242242A
:10476300C3EA9CEB9D400479028002790102012295
:1047730074F61219057A047B001211B88A088B09A2
:10478300AE08AF091247971215AEEEFAEFFB1211FE
:10479300BE025098900764E08E828F83F090076585
:1047A3001247BCF09007671243CC9007661243D6BA
:1047B300EEFCEFFD7A047905221247C022E08E82D7
:1047C3008F83A32274F61219057A087B001211B89D
:1047D3008A088B09AE08AF09121236EEFCEFFD7A98
:1047E3000879011215AEEEFAEFFB1211BE7A057BC2
:1047F300001211B88A088B09AE08AF097C4A7D0DF7
:104803007A01799B121530E96005900D4AE4F09026
:104813000D4A124944EEFCEFFD7A0579061215AEF6
:10482300EEFAEFFB1211BE7A047B001211B88A086C
:104833008B09AE08AF09121242EEFCEFFD7A047940
:10484300001215AEEEFAEFFB1211BE7A047B0012D2
:1048530011B88A088B09AE08AF0912123CEEFCEFBF
:10486300FD7A0479031215AEEEFAEFFB1211BE7A4C
:10487300027B001211B88A088B09AE08AF097CC508
:104883007D0F7A027999121530E9601A900770E06A
:10489300A2E7900FC540087484F0A37403800674E4
:1048A30062F0A37401F0900FC6124944900FC51231
:1048B30043DDEEFCEFFD7A0279021215AEEEFAEF5C
:1048C300FB1211BE7A057B001211B88A088B09AE60
:1048D30008AF097C747D077A04799D121530E9606D
:1048E3000C9007761259B29007741259B27C4F7D1F
:1048F3000D7A01799C121530E96005900D4FE4F0B3
:10490300900D4F1249449007771243DD90077612BA
:1049130043C89007751243D290077412493CEEFCCA
:10492300EFFD7A05790F1215AEEEFAEFFB1211BE09
:1049330075C90043C9080250981247BCA3A3A3F04A
:1049430022E08E828F83F02274EA12190589107592
:104953000A00750B007C007D0079008911E5106069
:10496300351460142481601B14703F7512F57513A0
:10497300017514F5891580177512037513057514E0
:1049830065801C7512E07513017514167515019079
:104993000785740280117512BD7513047514C675ED
:1049A300150290078574041259B4900958E0F5086C
:1049B30089097403780812189B85080E85090F74FA
:1049C300C5250EF50C740E350FF50D74B5250EF5D2
:1049D3000E740E350FF50FEAC333F508EB33F50903
:1049E300C3EA94011251145003024B23900762E06F
:1049F300F514A3E0F515E512C39514F514E5139525
:104A030015F515C3E5149414E51594005030099079
:104A13000762E0C39512F50AA3E09513F50BE50AC7
:104A23002414F50AE50B3400124CE9E5129401E570
:104A3300131251154006AC12AD1380028911124DA9
:104A430094EA9512EB9513A2D265D0335003024C2E
:104A5300D0E50C2402F512E50D3400F513E50E2420
:104A630002F582E50F3400F583E9A2E04049E51041
:104A73007003024C1F14601B24816038146003020E
:104A83004CD4124D1012181B12570712181B124C3C
:104A9300DD8017EAF8EBF912571212181B880A89FE
:104AA3000BE508250AF8E509350BF985128285130C
:104AB30083024C43024BFD124D287003024C8D14AC
:104AC300602324816057146003024CD4124CF81203
:104AD300181B12570712181B880A890BEC250AFAB0
:104AE300ED350B8017ECF8EDF912571212181B88ED
:104AF3000E890FE50A250EFAE50B350FFB851282A9
:104B0300851383125498E8850CF0A4F8ACF0850C57
:104B1300F0E9A42CF9EA28F8EB39024CC5024C5D04
:104B2300C31251144003024CD0900762E0C39514A2
:104B3300F512A3E09515F513C3E5129414E5139448
:104B430000501B09E51224ECF50AE51334FF124C5F
:104B5300E91251155006AC12AD1380028911124DA2
:104B630094E49512F512E49513F513C3E5129AE54F
:104B7300139BA2D265D0335003024CD0E50E24061A
:104B8300F582E50F3400F583E50E2404F50EE50FF9
:104B93003400F50FE9A2E05003024C4CE50C240667
:104BA300F8E50D3400F9880A890BE50C2404F8E5CF
:104BB3000D3400F9880C890DE510606014601B2426
:104BC300816037146003024CD4124D1012181B126B
:104BD300570712181B124CDD8017EAF8EBF912572E
:104BE3001212181B880C890DE508250CF8E5093508
:104BF3000DF9850A82850B838046124D1012181B0E
:104C0300E8FCE9FDECC333FCED33FD850E82850F33
:104C13008312571212181B124CDD801DEAF8EBF9B0
:104C2300850E82850F8312571212181B880A890B6F
:104C3300E508250AF8E509350BF9850C82850D830E
:104C4300E028FEA3E039024CCD124D28603C1460ED
:104C53003F248160051470798006850E82850F8359
:104C6300E0FEA3E0FF124CF812181BE8FCE9FDEC90
:104C7300C333FCED33FDEEFAEFFB12181B880A89F0
:104C83000BEC250AF8ED350B8023850E82850F8307
:104C9300E0FEA3E0FFECF8EDF9EEFAEFFB12181BD0
:104CA300880E890FE50A250EF8E50B350FF9EE8519
:104CB3000CF0A4FEAAF0850CF0EFA42AFFE82EF86E
:104CC300E93FF9E82508FEE93509FF80047E007F06
:104CD30000EEFAEFFB7F0E0219D788088909EC254D
:104CE30008F8ED350922F50BEAC3950AF512EB95A1
:104CF3000BF513C322EC75F07FA4FCA8F075F07FCD
:104D0300EDA428FDECF8EDF97A327B0022EA75F088
:104D13007FA4FAA8F075F07FEBA428FBEAF8EBF97F
:104D23007A327B0022E511A2E0B3E433F50CE50A05
:104D33009AF8E50B9BF9851108E88508F0A4F88536
:104D4300F0118508F0E9A42511F9EAC3950AFAEBF5
:104D5300950BFBEA850CF0A4FA85F008850CF0EBC3
:104D6300A42508FBE82AF508E93BF509E50875F0F1
:104D730003A4F508A8F075F003E509A428F5098C48
:104D83000A8D0BE50AC333F50AE50B33F50BE51082
:104D930022900785E0F512A3E0F513C32274F712FE
:104DA300190574F61218AEE9FEEAC333FAEB33FBC6
:104DB30074682AF874073BF988828983ECF0A3EDC1
:104DC3001252D7125AA8C0E074011218F9D0E01297
:104DD3004E2EEEF912152A7A007B00EAF8EBF9E879
:104DE300C333F8E933F974021218F9E58228FCE5B4
:104DF3008339FD746828F8740739F988828983A395
:104E0300E08C828D83125AA88C828D83A312509DCD
:104E1300940412511440C474021218F9AC82AD8385
:104E23007A0879011215AE740A8010F0851882850C
:104E33001983AC82AD837A022274041218C47F01F1
:104E43000219D774F012190574F61218AE8A088B7A
:104E530009750E00750F00E50EC333FEE50F33FF32
:104E630074682EF50C74073FF50D850C82F583A34A
:104E730085820A85830BE5082EF582E5093FF583D4
:104E83001252EC6026850C82850D83E8F0A3E912AB
:104E930052D7124F00C0E074011218F9D0E0124E3D
:104EA3002EE50EC333248DF912152A74021218F954
:104EB300E5822EF8E583124EE9E50E2401F50EE5B1
:104EC3000F3400F50FC3E50E9404E50F125115409E
:104ED3008674021218F9AC82AD837A08790112152F
:104EE300AE740A0242213FF9850A82850B83E0886A
:104EF300828983124F0088828983A3F022F0850C74
:104F030082850D83E02274EC1219058A0C7510005A
:104F13007511007512007513007A00850C088B0952
:104F23008C0A8D0BEA33333354F878081216AC909D
:104F3300900078081217457403C39A33333354F837
:104F430078081216C57810790812176B0AEAC39409
:104F53000440C8AA10AB11AC12AD137F0C0219D7D1
:104F630074F712190574FC1218AEEAFEEBFF121166
:104F7300A01211A612128A8518828519831217A806
:104F8300851882851983EEFCEFFDECFAEDFB7404C2
:104F93001217C1024E3C74F41219057A057B0012F4
:104FA30011B88A088B09AE08AF09740C1218F912EC
:104FB300494478017900C3E498FAE499FB740C122C
:104FC30018F9E5822AF582E5833BF583A3A3A3A31E
:104FD300A3E0C0E0EE28F582EF39F583D0E012516B
:104FE3005A40D3EEFCEFFD7A0579061215AEEEFAC0
:104FF300EFFB1211BE740C1218F9E06018740D1255
:1050030018F9780812177EE5084509450A450B701B
:105013000479018002790002586174F6121905902F
:105023000957E060707A107B001211B88A088B0967
:10503300AE08AF09900787E075F00FA4F8A9F074E4
:105043005D28F8740939F9124944900787E004F0A0
:105053007A007B00E82AF582E93BF583E0C0E0EEC5
:105063002AF582EF3BF583A3D0E012509D940F12F3
:10507300511440E0EEFCEFFD7A1079081215AEEE04
:10508300FAEFFB1211BE900787E0C394434006E496
:10509300F0900957F07F020219D7F0EA24010AEBD6
:1050A3003400FBC3EA2274F612190574FC1218AE1D
:1050B300851882851983AA82AB831212907A047BA6
:1050C300001211B88A088B09AE08AF09780079007D
:1050D300851882851983E58228F582E58339F5836E
:1050E300E0C0E0EE28F582EF39F583D0E012516C91
:1050F3009404E912511540D8EEFCEFFD7A047907C8
:105103001215AEEEFAEFFB1211BE74041218C4802E
:1051130084EB12516422C082C0838A828B83E09025
:105123000D4AF078017900EA28F582EB39F583E03E
:10513300C0E0C3E498FCE499FD744F2CF582740D30
:105143003DF583D0E012515A40DD7C4A7D0D7A0152
:10515300799B12152A801F12516C9405E912516430
:10516300229400A2D265D03322F0E8240108E93466
:1051730000F9C3E822F0D083D082020122C082C0AA
:1051830083900956E4F090075DF090075FF0900973
:1051930050F0A380E0C082C0838A828B83A3E0F8AF
:1051A300748168600D74016860087480686003E846
:1051B300700BEAFCEBFD7A04798912152A1212723C
:1051C30080B474F7121905EAFEEBFF8E828F83E039
:1051D300F9A3E0900FC51252DF799912152AEEFC5C
:1051E300EFFD7A0279021215AE024E4174F71219DD
:1051F3000574F81218AEEAFCEBFD8C828D83E0C0D7
:10520300E074011218F9D0E0125AA2A3E0851882C3
:10521300851983F0EC2402FEED3400FF8E828F8328
:10522300E0C0E074031218F9D0E0125AA2A3A3A3BA
:10523300E0C0E074021218F9D0E01252D71252EC17
:10524300900959600C1244E77A02799512152A8065
:105253000C1254988518828519831244E77402123C
:1052630018F91252EC90095B600BE81252DF799740
:1052730012152A800B12549874021218F91244E77B
:1052830074011218F9E0C0E074041218F9D0E012A6
:1052930052D7E0C0E074051218F9D0E0F07403129D
:1052A30018F9E0C0E074061218F9D0E0F0740212A5
:1052B30018F9E0C0E074071218F9D0E0F074041292
:1052C30018F9AC82AD837A0479031215AE7408021F
:1052D3004E3EE508F0851882851983221244E8EED4
:1052E300FCEFFD7A0222900766E0F8A3E0F9E849B3
:1052F30022C082C083900764E06401700590076652
:105303008008E06406600C90095912549890095281
:105313001244E790075DE0703F90075EE06403701E
:1053230027C39009511254835003025465900950C6
:10533300C3E09401A31254834003025440758000D8
:1053430053FD0F90075E800CE0700302548075805C
:105353000053FD0FE402547FF890075EE06870038A
:1053630002540790075DE014600914601714602667
:105373000253FE900952C08212549ED082125700EB
:105383005079802D90095B125712125495C3EA98F5
:10539300EB9950678035900959C082900762125487
:1053A30098758309D082125700500F9009591254EF
:1053B30098900762E8F0A3E9801890095B125712EE
:1053C300900762C3E09AA3E09B5008900762EAF05B
:1053D300A3EBF0900770E0F9900762C08290095246
:1053E300125712758307D082E0C39AFAA3E09BFB9E
:1053F300121278900950EAF0A3EBF090075DE09069
:10540300075E80789009501252EC70167580005335
:10541300FD0F90075DE4F090075FF090095674026A
:10542300805A90075DE0146005146024804F900952
:1054330052C08212549ED082125700503343FDF063
:10544300758040900950E024FFF0A3E034FF802CE6
:1054530090095BC082125495758309D0821257005C
:10546300500E43FDF0758080900950125488800CD3
:1054730075800053FD0F900950E4F0A3F0025179B9
:10548300E01251642212548C22E02401F0A3E03490
:105493000022900952E0F8A3E0F922900959E0F8BC
:1054A300A3E0F975830922C082C083E590540F906D
:1054B3000788F0900956E0640170030256F89007DC
:1054C30088E0640F9009567025E4F090075DF09032
:1054D3000789740FF090078AE4F090075EE0640395
:1054E30070030256F875800053FD0F0256F87402DC
:1054F300F0900955E060030256F890076A125712BC
:10550300900789E0F8900788E0687003025664907A
:10551300075EE06403700302564F900788E024FDA2
:1055230070030255DC24FE602C24FE602024FE70F0
:105533000302560224FE606024FE60091470030215
:10554300564202565A90075D740102565990075D00
:105553007402025659900764E06406601E9007685F
:10556300E0F47003A3E0F4700302565A90075D74ED
:1055730003F09007681254980256201252E9600310
:1055830002565A125975798D7A007B0012127E43A6
:10559300FDF07580C002565A900764E06406601DF2
:1055A30074FF6A700374FF6B700302565A90075DB1
:1055B3007403F0900762EAF0A3EB0256591252E922
:1055C300600302565A125975798F7A017B001212C1
:1055D3007E43FDF0758020807E900764E064066062
:1055E3000590076C80241252E9706C1259757991F9
:1055F3007A027B0012127E43FDF07580A0805890E2
:105603000764E06406601F90076E12549874FF6885
:10561300700374FF69604090075D7403F090076244
:10562300E8F0A3E980301252E9702C12597579938E
:105633007A037B0012127E43FDF075806080189020
:10564300075DE4F043FDF0758010800B90075DE487
:10565300F0900950F0A3F0900788E0900789025674
:10566300F7E0640E60030256F875800053FD0F9057
:10567300078BC3E09410A3E094004050900D4FE0DB
:105683007034900768C082900FC5125498758307D1
:10569300D082125700400B900FC5C3E09AA3E09B42
:1056A300502A90075D7401F0900D4FF0900765E06C
:1056B300F91212DE800B90075D7402F0900D4FE437
:1056C300F07C4F7D0D7A01799C12152A90078AE0B0
:1056D300702390078B1256FB90078BC3E09419A39A
:1056E300E09400401090075DE4F090078BF0A3F086
:1056F30090078A04F002517912548CF022C3E09887
:10570300A3E09922E8FCE9FDECC333FCED33FDE0B3
:10571300FAA3E0FB2274F4121905E9FE74046E6027
:105723000302584B9007601252EC700302585A90D0
:105733000760C3E0941EA3E09400500D7C047D0039
:105743007A8D7B071214A080077A047B001214A6BB
:1057530090078DE0900795F090078EE0F9900796FB
:10576300F090078FE0FA900797F0900790E0FB9096
:105773000798F0909004780812177E9007917808A4
:105783001215D87072909008780812177E900795BA
:1057930078081215D8604C900795780812177E7414
:1057A3000165087004740265096014900795780810
:1057B30012177E74016508700474016509702490E2
:1057C300900C780812177E90079578081215D86008
:1057D30012909010780812177E900795780812158A
:1057E300D870149007957401F0A37404F0A37401A6
:1057F300F0A374AAF08060900795780812177E745E
:10580300016508700474056509700E9007917C9515
:105813007D0774041217C1800FE9900764F0EA90C2
:105823000767F0EB900766F0900795780812177EEC
:1058330090079178081215D8601D9007957C917D8B
:105843000774041217C1800FEEC3940540098E0834
:10585300AA087B001214A6900760E4F0A3F07F046B
:105863000219D774F4121905EAFEEBFFEEF8EFF90B
:10587300E8C333F8E933F9900770E0600C14601162
:105883002481601514601A80227508D575090E806D
:105893001A7508DF75090E80127508D575090E8013
:1058A300067508DF75090EE8FEE9FF125495758346
:1058B30007758262E0C398FAA3E099FB85088285A5
:1058C3000983125978C3EC9EED9FA2D265D0335061
:1058D3002E900770E0F91212788A0A8B0BAC0AAD8E
:1058E3000BEEF8EFF9850882850983A3A3125712FB
:1058F30012181B880A890B8508828509838047C390
:10590300E49CF8E49DF9C3EE98EF99A2D265D033F5
:10591300505D900770E0F91212788A0A8B0BAC0A7B
:10592300AD0BEEF8EFF9850882850983A3A3A3A342
:10593300A3A312571212181B880A890B85088285A4
:105943000983A3A3A3A3A3A3A3A3125498E8850A3B
:10595300F0A4C8AAF0850BF0A42AFA850AF0E9A4FA
:105963002AF9ECC398F8ED99F99009501244E7022B
:105973005861900952E0FCA3E0FD22C082C083E994
:10598300602A7402697004740180027402900D50DD
:10599300F064017005900776800390077412571224
:1059A300900D51EAF0A3EB1259B4A3F002517974AC
:1059B3001EF0A3E4F02274F2121905EAFEEBFFEEE7
:1059C3002402F8EF3400F98E828F83A3AA82AB837B
:1059D300E0F50888828983E0FDE5082400940FED53
:1059E3009400500D8A828B83E4F088828983740F3C
:1059F300F0EE2404FCEF3400FDEE2403F508EF344D
:105A030000F509850882F583E0F50C8C828D83E02F
:105A1300F50BE50C2400941EE50B9400500D85084E
:105A230082850983E4125AA2741EF08A828B83E072
:105A3300900777125AA8900776F085088285098324
:105A4300E0900775125AA2E0900774F08E828F835C
:105A5300E0602890076812549875830F7582C51209
:105A630057004011900FC512549875830775826AC9
:105A730012570050068E828F83E4F08E828F83E06C
:105A8300900D4FF0EEFCEFFD7A05799C12152AEE8E
:105A9300FCEFFD7A05790F1215AE7F060219D7F0D8
:105AA3008C828D8322F088828983E022C082C08326
:105AB300900D50E0640190075D70087403F0900747
:105AC3006880067403F090076A125498900762E89E
:105AD300F0A3E902517874F012190574FA1218AEA2
:105AE300890BECFEEDFF750A008A088B0978081212
:105AF3001B5C0004100C5D1C5B3A5B545B6C5B8AA3
:105B03005BA25BC55BDD5BF15B1B5CA35CB45CCB45
:105B13005CE65C0C5D0C5D315C7401650B6003023B
:105B23005D078E828F83E0F8C394034003025D0711
